:020000040800F2
:1000000000040020C1010008811B0008811B0008BA
:10001000811B0008811B0008811B0008811B000850
:10002000811B0008811B0008811B0008610E00086D
:10003000811B0008811B0008811B0008811B000830
:10004000811B0008811B0008811B0008811B000820
:10005000811B0008811B0008811B0008811B000810
:10006000811B0008811B0008811B0008811B000800
:10007000811B0008811B0008811B0008811B0008F0
:10008000811B0008811B0008811B0008811B0008E0
:10009000811B0008811B0008811B0008811B0008D0
:1000A000811B0008811B0008811B0008811B0008C0
:1000B000C10D0008811B0008811B0008811B00087E
:1000C000811B0008811B0008811B0008811B0008A0
:1000D000811B0008811B0008811B0008811B000890
:1000E000811B0008811B0008811B0008811B000880
:1000F000811B0008811B0008811B0008811B000870
:10010000811B0008811B0008811B0008811B00085F
:10011000811B0008811B0008811B0008811B00084F
:10012000811B0008811B0008811B0008811B00083F
:10013000811B0008811B0008811B0008811B00082F
:10014000811B0008811B0008811B0008811B00081F
:10015000811B0008811B0008811B0008811B00080F
:10016000811B0008811B0008811B0008811B0008FF
:10017000811B000801180008811B0008811B000872
:10018000811B0008811B0008811B0008811B0008DF
:10019000811B0008811B0008811B0008811B0008CF
:1001A000811B0008811B0008811B0008811B0008BF
:1001B000811B0008811B0008811B0008811B0008AF
:1001C00072B6214880F30988022080F31488BFF3B7
:1001D0006F8F07F0BDFA4FF055301C491C4A914211
:1001E0003CBF41F8040BFAE71A49174A91423CBF59
:1001F00041F8040BFAE71849184A194B9A423EBFD6
:1002000051F8040B42F8040BF8E700201549164A90
:1002100091423CBF41F8040BFAE707F019FB134C7D
:10022000134DAC4203DA54F8041B8847F9E706F093
:10023000DFFE104C104DAC4203DA54F8041B884723
:10024000F9E707F0FDBA00000008002000000020D8
:100250000004002000040020088E00080008002090
:10026000700E0020700E0020781E0020C0010008D3
:10027000C0010008C0010008C00100080000000023
:100280002DE9F04FC1F80CD0D0F80CD0BDE8F08FBC
:10029000002383F311882846A047002007F0B8FA0E
:1002A00007F0C6FA00DFFEE70000000000000000D3
:1002B000014B5B6883607047001000E000000000A5
:1002C000202383F31188044B9A690023506B5363F6
:1002D00083F31188704700BF9012002000000000D7
:1002E000014B01221A707047801B002000000000A3
:1002F000FEE700BF0000000000000000000000005A
:100300000346202282F311880849094A08681268C6
:10031000073323F00703121A93429ABF1B180B608E
:100320000020002383F31188704700BFDC140020F5
:100330000814002000000000000000000000000081
:10034000022906D0032906D00129064818BF00203B
:10035000704705487047032A9ABF044800EBC20063
:1003600000207047B08B0008508B0008708C00088C
:10037000024B0022C3E900339A607047CC1400207E
:10038000024B0122C3E900339A607047E014002059
:10039000704700BF000000000000000000000000E7
:1003A000704700BF000000000000000000000000D7
:1003B000024B0022C3E900339A607047E01400202A
:1003C000202383F3118862B672B683F3118862B674
:1003D000002383F3118862B6704700BF000000005D
:1003E00030B4084A084B09481B60151D042400213D
:1003F0001D619C605B60DA60C3E90522C3E9070107
:1004000030BC7047F0140020A808002091030008B9
:10041000084A094B094810B40021141D1C611B60D7
:100420005B60DA60C3E90522D8619960196210BC8B
:10043000704700BFF014002010080020910300084E
:10044000034B00224FF4A471C3E900219A60704766
:10045000C0140020000000000000000000000000A8
:10046000084B094910B400224FF4CC6403F110008A
:10047000C1E900249960C3E904001A60DA609A6156
:1004800010BC704768140020F01400200000000029
:10049000FFF7E6BF000000000000000000000000C1
:1004A0000020704700000000000000000000000075
:1004B000034B00224FF4A471C3E900219A607047F6
:1004C0009C08002000000000000000000000000068
:1004D000084B094910B400224FF4CC6403F110001A
:1004E000C1E900249960C3E904001A60DA609A61E6
:1004F00010BC7047601B0020F014002000000000BA
:10050000FFF7DEBE00000000000000000000000059
:10051000FFF7F6BF00000000000000000000000030
:10052000FFF7EEBF00000000000000000000000028
:1005300030B40B4B0B4A1A6002F11405052403F189
:100540001C010020C3E9022203F110025D605C621D
:10055000C3E906011962C3E9042230BC704700BF39
:1005600074080020F01400200000000000000000CB
:100570000649074A074B096000204960C2E900228A
:1005800090609860C3E90033704700BF0008002006
:100590005408002064080020000000000000000053
:1005A000044A054B126000215260C3E90033996090
:1005B000704700BF00080020540800200000000021
:1005C000FFF7EEBF00000000000000000000000088
:1005D000044A054B12600021C2E901219960C3E978
:1005E0000033704754080020640800200000000019
:1005F000024B0022C3E900339A6070475408002080
:10060000FFF7F6BF0000000000000000000000003F
:10061000024B0022C3E900339A607047CC080020E7
:10062000FFF7F6BF0000000000000000000000001F
:10063000FFF7EEBF00000000000000000000000017
:1006400020B370B584B06D462C46114E00E01446C0
:10065000A6FB0023DB0803EB8301A0EB410000F1C4
:1006600030012246C9B202F8011B1846002BEED118
:10067000AA4209D9074E01E014F8011D3068036849
:100680009B689847A542F7D104B070BD704700BF82
:10069000CDCCCCCCE0130020000000000000000016
:1006A00028B9044B1868036830219B681847FFF786
:1006B000C7BF00BFE01300200000000000000000E2
:1006C00070B5084D4C24286803682D219B68984715
:1006D000013CF8D128680449036802221B68BDE880
:1006E00070401847E0130020347E0008000000002E
:1006F0000A4B30B403F114002025002453F8042BD6
:100700003AB185F31188517F41F00401517784F3A8
:1007100011888342F2D130BC704700BF841B002097
:1007200010B4202383F311884FF080440023646ABF
:1007300083F31188641A521A944206D3044C054973
:10074000054A012323700B701060184610BC7047D7
:10075000581B0020BC14002064140020000000007E
:10076000F0B40E4E0E4F356801393B4603E013F8E6
:10077000014B944208D19D4211F8012FF7D81AB9C4
:1007800037601046F0BC7047064C0749074B012202
:10079000227018600A701046F0BC7047A81B002039
:1007A000981B0020581B0020BC140020641400205B
:1007B00051B910B40649074C074A01232370106051
:1007C0000B70184610BC704700231846704700BFD6
:1007D000BC140020581B00206414002000000000FE
:1007E000202383F31188044B1A68511C1960107080
:1007F000002383F311887047A81B0020000000002D
:100800004320FFF7EDBF00BF000000000000000024
:100810004220FFF7E5BF00BF00000000000000001D
:100820004120FFF7DDBF00BF000000000000000016
:100830000078FFF7D5BF00BF0000000000000000F7
:10084000FFF7F6BF000000000000000000000000FD
:1008500070B5017889B10A4D0446286803689B6821
:10086000984714F8011F0029F7D128680549036843
:1008700002221B68BDE870401847014DF5E700BF34
:10088000E0130020347E000800000000000000009B
:10089000017859B138B5064D0446286803689B684D
:1008A000984714F8011F0029F7D138BD704700BFE1
:1008B000E013002000000000000000000000000025
:1008C000826E10B402EB41140123D4F8000940F009
:1008D0000440C4F80009D2F8340810BC03FA01F14E
:1008E0000143C2F834187047000000000000000007
:1008F00000EB810310B4DC68826E606943680361B9
:1009000093B161B1208A10BC02EB4112411E19441F
:10091000B1FBF0F143EAC143C2F810397047402BF4
:1009200084BF40234360EDE702EB41124FF4002304
:10093000C2F8103910BC7047000000000000000031
:1009400000EB810370B4DE68B5696A682A6129B971
:10095000402A03D94022094C6A6001E042F0C044B9
:10096000758A806E6B1E00EB41111344B3FBF5F3E7
:1009700044EAC343C1F8103B70BC704740000060BC
:100980002DE9F041244EB76E07EB40130546D3F82E
:10099000084BC3F8084B20070AD5D7F814381907B5
:1009A00006D506EB85032946DB6830465B68984729
:1009B000E2072ED5D7F81438DB072AD506EB8503D6
:1009C000D9688B6958681A6990420CD37389CC68CE
:1009D00011480122AA4023EA0203738129462346D3
:1009E000BDE8F0411847121A0024C3E90124294642
:1009F0000948FFF7A5FF202383F31188B36E03EBAB
:100A00004515D5F8003B43F08063C5F8003B84F3FF
:100A10001188BDE8F08100BFC81000200000000070
:100A200090F84C20062A14D838B50123934013F0CF
:100A3000670F044627D113F008020BD0C3689B69E7
:100A40009B682BB9836D03B19847002384F84C3021
:100A500038BD7047DB06FBD5C368052180F84C1014
:100A60005B6911461A70DA60C3E90122FFF740FFA3
:100A7000202383F31188238913F0010119D0002367
:100A800083F3118838BD836E4168D3F800290D685F
:100A900042F40012C3F80029D3F8002B42F40012EC
:100AA000C3F8002B0DB10521A847062384F84C306C
:100AB00038BD43F0010323812046FFF701FFDEE745
:100AC00038B590F84C300446062B31D8DFE803F0F7
:100AD000590438595931590090F8630094F862204C
:100AE000616DE36842EA002291422AD2188AB1FB82
:100AF000F0F200FB121222BB5B6911461A70DA6039
:100B0000C3E901222046FFF7F3FE202383F3118877
:100B1000238913F0010105D143F00103238120460D
:100B2000FFF7CEFE002383F31188022384F84C30B4
:100B300038BD836D03B19847002384F84C3038BD2D
:100B4000C368032284F84C209B6900211970D96086
:100B5000C3E901112046FFF7F3FE202383F3118838
:100B60006389DA0709D4A16ED1F8002B43F00103A1
:100B700042F080626381C1F8002B002383F3118867
:100B800038BD836E4168D3F800290D6842F4001225
:100B9000C3F80029D3F8002B42F40012C3F8002B4D
:100BA0000DB10521A847062384F84C3038BD00BF9D
:100BB000012270B502FA01F304899BB214EA03061C
:100BC00001D0104670BD23430381FFF779FE304604
:100BD00070BD00BF00000000000000000000000029
:100BE000012270B402FA01F344899BB214EA0306AD
:100BF00002D0104670BC7047856E05EB411123434F
:100C0000D1F8004B438144F080643046C1F8004B7A
:100C100070BC7047000000000000000000000000F1
:100C2000F8B5046AD4F8542213681978042900D05E
:100C3000F8BD217A0229FBD150795A89012505FA9C
:100C400000F10A40F4D103EB8003E169DE68D4E9E6
:100C50000503768ACB1A1B1A9E42E9D882F31188C3
:100C6000B3FBF6F3D4F854120868497900EB810716
:100C700006FB03F3FE68B66904F10C077360357078
:100C8000C6E90227FFF75CFE202383F31188D4F81E
:100C9000543259791868BDE8F840FFF7A1BF00BF8A
:100CA000704700BF000000000000000000000000CE
:100CB000F8B5046AD4F8542213681978042900D0CE
:100CC000F8BD217A0229FBD112791989012505FA8B
:100CD00002F30B40F4D1D4E90F02A16B121A521A9D
:100CE000EED083F31188D4F854120868097900EB28
:100CF000810604F13007F6687669C6E9012335708C
:100D0000F760FFF7F5FD202383F31188D4F8543200
:100D100019791868BDE8F840FFF74ABF00000000E5
:100D200090F85C3003F06003202B01D00020704766
:100D300090F85D30202BF9D3212B07D8074B0365A2
:100D400007220023C0E9152301207047222BEDD193
:100D50000023C0E914338365012070473408002064
:100D6000202383F31188114B5B6813F4006302D1D5
:100D700083F31188704780B400AFEFF309834FF01D
:100D8000807243F8042CA3F1200282F30988084AF8
:100D9000116892698968926891428CBF054A064A37
:100DA00043F8082CBD4680BC704700BF00ED00E052
:100DB00090120020A1020008A40200080000000018
:100DC0002DE9F8434FF0804633699B0703D4BDE813
:100DD000F843FFF7C5BF00253561202787F3118849
:100DE0001B4C716AE369A26AD3F808C0881A60458F
:100DF00004F11C0819D31968D3F80C9062444145DA
:100E0000A262C1F80480E161DD6008BFF56085F38E
:100E100011881869C84787F31188E369716AA26A63
:100E2000D3F808C0881A8445E5D9434508D0624400
:100E3000521A4FF08043022A2CBF8A188A1C5A6328
:100E4000002383F31188BDE8F843FFF789BF00BF93
:100E500090120020000000000000000000000000D0
:100E600080B400AFEFF30983203383F309880023B4
:100E700083F31188BD4680BC704700BF00000000AE
:100E800008B52022034682F31188006828B1026861
:100E90001A60002383F3118808BD9A68002AF8D0ED
:100EA00058689047002383F3118808BD00000000B4
:100EB00070B5314B314C05222025002085F3118877
:100EC00021681960236080F311886168013A0B443E
:100ED000F4D12A4E05253046FFF7D2FF011C18BF7A
:100EE00001210120FFF764FCA0BB013DF3D12348A1
:100EF000FFF7C6FFB0FA80F149090220FFF758FC5E
:100F000040BB1F4A1C4B02F11006202080F31188C1
:100F100021681960236085F31188964202D052F847
:100F2000043BF3E7154E05253046FFF7A9FF011CEA
:100F300018BF01210320FFF73BFC58B9013DF3D155
:100F40000E48FFF79DFFB0FA80F149090420FFF732
:100F50002FFC00B170BD10220A4B0848A360C4E901
:100F60000052FFF78DFFB0FA80F149090520BDE876
:100F70007040FFF71DBC00BFF01400209C0800204B
:100F8000B48C0008A104000800000000000000006C
:100F9000202383F31188024602E08B4207D01A46D1
:100FA00013688342F9D1002383F3118870470B68DB
:100FB0001360002383F31188704700BF0000000016
:100FC0002DE9F041334C8AB02020246080F3118851
:100FD000314923680AAD012745F8143D8B69069312
:100FE0004FF0FF3200232560CDE90773099283F3A8
:100FF000118880F311880AAE206846F8280D8969A7
:1010000001914FF00208CDE903322660CDF8088047
:1010100083F311882168091B18BF01213846FFF7A7
:10102000C7FB10B10AB0BDE8F08129462046FFF7A2
:10103000AFFF2168091B18BF01214046FFF7B8FB2D
:101040000028EFD131462046FFF7A2FF2168091B97
:10105000B1FA81F103204909FFF7AAFB0028E1D189
:101060000E4E0446072525FA04F313F0010F07FA84
:1010700004F220460CD056F8243025EA020501344B
:101080009847002DEFD106490420FFF769FBC9E717
:101090000134E8E708080020901200206080000872
:1010A0007080000800000000000000000000000048
:1010B0000E4B0F4A5B68C168F0B48468566F426893
:1010C0001B1BD0E904459B1BE61845F100070131C5
:1010D0009342C0E90231C0E9046705D8026893422F
:1010E00038BF0360F0BC70474360FBE7001000E0CE
:1010F000901200200000000000000000000000002E
:101100002439F0B44518C560049E43500D4B0E4978
:101110006E60296203615D69C263012182600227FA
:1011200000F124060022817700F1280145618783C0
:10113000C0E90D228261286146625861C0E90A1146
:10114000F0BC7047901200209102000800000000DF
:10115000202383F31188037F072B0ED8DFE803F0E9
:10116000270D0D2308040D08026A9368013393606C
:10117000D0E900231A600268536010B400224FF0D7
:10118000FF3481680C4B046202771B689A688A42BC
:10119000FBD25A680021C0E900321060586081F328
:1011A000118810BC7047036A00221A60E5E700232B
:1011B00083F31188704700BF9012002000000000E8
:1011C00001460022064B80680A771B689A688242B3
:1011D000FBD25A680846C1E9003211605960704775
:1011E000901200200000000000000000000000003D
:1011F000074B1A689A4209D0116810B400244B605A
:1012000019601462104610BCFFF7DABF704700BFC8
:1012100000080020000000000000000000000000A6
:1012200010B5D0E90524A24283681CD00133541CB8
:10123000836044611170D0E904329A420CD2036891
:1012400098420ED01A6802600024506018461C6252
:10125000FFF7B6FF204610BDC3684361036898429C
:10126000F0D1002010BD002BE0D06FF0030010BDC6
:1012700038B5114BD3E9050188429A6817D01D692A
:10128000481C01329A609861A8420C780CD21A6806
:101290009A4207D01168196000254B60104615620C
:1012A000FFF78EFF204638BDDA689A61EFE7002A23
:1012B000E5D06FF0020038BDA80800200000000053
:1012C0002DE9F041324DAE6E06EB40130746D3F8E0
:1012D0000849C3F80849E10716D5D6F81038DA07E7
:1012E00012D505EB8003D9684B6958681A6990429A
:1012F0002ED32B89D1F808800122BA4023EA0203B9
:101300002B8139462846C047230606D50123D6F847
:10131000342803FA07F7174201D1BDE8F0812023F2
:1013200083F311886A6FD6F83438A96F3A4323EAF9
:1013300007076A67C6F8347829B10023AB67084607
:101340000B62FFF73DFF002383F31188BDE8F081B6
:10135000121A4FF00008C3E9012839462846FFF762
:10136000C7FA202383F31188AA6E02EB47100123EA
:10137000D0F8001941F00441C0F80019D2F834182F
:10138000BB400B43C2F8343888F31188BCE700BF78
:10139000C810002000000000000000000000000055
:1013A000436B027F19430A2A416309D00B2A00D0FC
:1013B0007047036A8B43FBD100230362FFF700BF32
:1013C000036A1942F8D170470000000000000000D5
:1013D00070B50468A0420FD006460D46E3682B4363
:1013E000E36015B12269134203D0D4E90101FFF78C
:1013F000D7FF2468A642F1D170BD00BF00000000F5
:10140000F8B501F10D0350F82340BCB107460D4675
:10141000202686F3118804216018FFF7D9FF07EB17
:10142000850CD4E90530E269DCF80C10121A498AFF
:10143000D31A994203D9002383F31188F8BD002001
:1014400080F31188DCF80C20B3FBF1F3926901FB07
:1014500003F30C340121C2E901301170D460294634
:101460003846FFF76DFA86F3118829463846FFF7AC
:10147000B7FB002383F31188E0E700BF0000000002
:10148000F8B500EB81031C6A7CB30E4605462027A5
:1014900087F311880821201DFFF79AFFD4E90F1365
:1014A000A26B5B1A9B1A21D105EB8601CB685A69A6
:1014B0005268BAB11B8A013B134013D183F31188E0
:1014C000CA685269C2E9013330340121D460117015
:1014D00031462846FFF70CFA87F311883146284633
:1014E000FFF766FB002383F31188F8BD002181F329
:1014F000118805EB86023034D26852690120D4602D
:10150000C2E901311070E3E70000000000000000B4
:10151000124B30B404689D69C368AB63844218D031
:101520000146E86B4BB11A68934203D0926890422F
:1015300038BF1046DB68002BF5D1A26B2368A8608A
:101540000B6020465960C1E90242A16330BCFFF73D
:1015500037BE0023A36030BC704700BF901200204C
:1015600083680133002B836000DD704703681A68CD
:1015700002600021506018461962FFF721BE00BFCB
:1015800038B50C4B5A6A002A10DDD3E90154211DED
:10159000013AA9425A62996028BF1A682060064839
:1015A00028BF9A60FFF7DCFF002038BD4FF0FF3006
:1015B00038BD00BF7408002084080020000000002F
:1015C0000C4A516A002911DDD36810B51468043B38
:1015D0000139A3425162D36002D25368043BD36005
:1015E00018600548FFF7BCFF002010BD4FF0FF302A
:1015F000704700BF7408002084080020000000002D
:101600000C4B9969002912DD10B5DA68013999612E
:101610005968146804328A42DA60046028BF1A6884
:10162000054828BFDA60FFF79BFF002010BD4FF090
:10163000FF30704774080020900800200000000070
:1016400070B5856881600135002D0CDC04466FF0B3
:1016500001066068436863601C60FFF7B1FD0135F7
:10166000012D0662F5D170BD0000000000000000F1
:1016700038B5036898420BD004460D461A682260BC
:10168000184654601D62FFF79BFD23689C42F5D10C
:1016900038BD00BF00000000000000000000000096
:1016A0001A4BDA69824210B40FD0D0E900210A60E7
:1016B00002681C3300249A425160C46003D08168E0
:1016C00093680B44936010BC70471846116840F84B
:1016D0001C1F002481424860D46012D0946888683E
:1016E0009A6A03194FF080448B60616A8A1A9342A8
:1016F000E9D99B1A022B2CBFCB188B1C636310BC3F
:1017000070474FF08043DC60DDE700BF901200209F
:10171000F0B41C4D2E46022956F81C4F03614FF0C1
:10172000804738BF0221B442C2607B6A1BD0AE6AD8
:10173000A26819448B1B9A4203D912E024689B1AB1
:10174000A2689A42FAD36268C0E900421060606001
:101750008360A2684FF0FF31D31AA3606962F0BCC6
:1017600070477963EDE7AB62CE1800220223C5E92A
:101770000700C0E9004481607E633A61FB60F0BC11
:10178000704700BF90120020000000000000000021
:1017900008B50B4B00221A70202383F311880948E7
:1017A000C3680BB1FFF77CFF0023074A054842F2EC
:1017B0001071FFF7ADFF002383F3118808BD00BF50
:1017C000801B0020AC1B0020E1020008000000008C
:1017D000EFF30583202383F3118870470000000096
:1017E000034A516853685B1A9842FBD8704700BFA0
:1017F000001000E0000000000000000000000000F9
:101800002DE9F041894FBD6E6E69AB691E40F4044D
:101810006E613BD4B00448BFD5F80838310704D511
:101820007B68DB680BB181489847F20600F19F8026
:101830007303D5F8184811D5E70700F1DE80A50736
:1018400000F1CE80600700F1D180210700F1E08037
:10185000E20600F1E380A30600F1D680370311D53C
:10186000E60300F19E80A50300F1A180600300F172
:10187000A480210300F1A780E20200F1AA80A30264
:1018800000F18880BDE8F041FFF76ABA0023C7E99C
:101890000233022120227B66C7E90433C7E90633FD
:1018A0003B6287F84C3039702A612C6914F02004AF
:1018B000FBD10C20FFF794FFD7F86CC0DCF80800D0
:1018C0004FF000610130FF2205EB441301348442E4
:1018D000C3F80019C3F8001BC3F80829C3F8082B84
:1018E000F2D1DCF800303B674FF0FF32DCF800103B
:1018F000BB6EC5F818284FF00112C5F81C2810223D
:1019000069621A611C6914F01004FBD10C20FFF706
:1019100067FFD5F8003879683A6FD1F8008023F472
:10192000FE63C5F80038AB6943F4402343F010036D
:10193000AB610923C5F81038C5F814383C4BC5F81D
:10194000104BC5F8003BC5F81049C5F8003902F145
:1019500010033B6742F48012364BAA62FB60B8F179
:10196000000F3FF457AF21463048C04752E72023CD
:1019700083F31188AB69BA6F23F01003AB612AB10E
:101980000023BB6710461362FFF71AFC002383F3A2
:1019900011884DE70520FEF7F3FFBDE8F041FFF7A2
:1019A000DFB90020FEF7ECFFA5037FF55FAF012054
:1019B000FEF7E6FF60037FF55CAF0220FEF7E0FF75
:1019C00021037FF559AF0320FEF7DAFFE2027FF52E
:1019D00056AF0420FEF7D4FFA3027FF553AFD9E73B
:1019E0000120FFF76DFC60077FF52FAF0220FFF7A6
:1019F00067FC21077FF52CAF0AE00020FFF760FCB1
:101A0000A5077FF51FAFEBE70520FFF759FC25E79A
:101A10000320FFF755FCE2067FF51DAF0420FFF71A
:101A20004FFCA3067FF51AAFEEE700BFC8100020F9
:101A300040800010D07F000800000000000000007F
:101A4000C20710B412D5294BD3E90014994241D0F2
:101A500000220968994202F10102FAD18C4236D083
:101A600064689C4202F1FF32FAD182BB830713D52E
:101A70001E4CD4E907211C34A2422FD00023126847
:101A8000A24203F10103FAD1914220D04968A14258
:101A900003F1FF33FAD1D3B910F0040015D0134B82
:101AA000D3E904219A424FF000001BD012699A42F8
:101AB00000F10100FAD1914209D04969994200F13F
:101AC000FF30FAD1003018BF012010BC7047012050
:101AD00010BC70479C42C9D00022C1E7A142DBD0B4
:101AE0000023D3E79142E8D1EFE700BF9012002036
:101AF00038B5202484F311880120FFF7A1FF0023CB
:101B000083F3118880F00101C9B20120FEF750FE75
:101B100000B138BD054684F311880220FFF790FF1D
:101B200085F3118880F00101C9B20220FEF740FE62
:101B300005460028EDD184F311880420FFF780FFCB
:101B400085F3118880F00101C9B20320FEF730FE51
:101B500005460028DDD184F311880820FFF770FFC7
:101B600085F3118880F00101C9B20420BDE8384036
:101B7000FEF71EBE00000000000000000000000094
:101B800072B6024B024ADA62FEE700BF90120020F2
:101B9000207B0008000000000000000000000000A2
:101BA00038B50D4698B1044628600D49204605F029
:101BB000A7FE044420460A4905F07AFE68B1421C9B
:101BC00000232A600370237823B1204638BD0C68B7
:101BD000002CEAD10024204638BD2860F3E700BF7E
:101BE000107B000800000000000000000000000062
:101BF0000EB42DE9F04F86B00FAF044657F8046BD2
:101C000002974FF000083178721C61B1252910D07D
:101C1000236816469B6820469847317808F10108EA
:101C2000721C0029F2D1404606B0BDE8F04F03B067
:101C3000704771782D2903BFB178B21C4FF0010CA9
:101C40004FF0000C302903BF517801324FF0300AB9
:101C50004FF0200A0132002505E03B78043712F8E6
:101C6000011B03EB4005A1F13003DBB2092B9646C3
:101C700005EB8500F3D92A29EFD02E294FF0000279
:101C800048D001F0DF034C2B0EF101064ED0A1F13C
:101C90004103A1F14400DBB2342800F21681DFE8F1
:101CA00010F06501140114011401140165011401FF
:101CB0001401140114011401100114011401140180
:101CC00014011401E100140114016E011401140146
:101CD000140114011401140114011401140114015C
:101CE0008F00650114011401140114016501140130
:101CF0001401140114011401100114011401140140
:101D00006D001401E100140114016E013B780437E9
:101D100003EB40021EF8011BA1F13003DBB2092BDB
:101D200002EB8200F4D92A29F0D0AAE79EF800300D
:101D30000BB3A3F14401342900F2C980DFE801F0BC
:101D4000D7C7C7C7C7D7C7C7C7C7C7C2C7C7C7C708
:101D5000C793C7C7D4C7C7C7C7C7C7C7C7C7C741C0
:101D6000D7C7C7C7C7D7C7C7C7C7C7C2C7C7C71F90
:101D7000C793C7C7D4000B467646DAE77646D7F84E
:101D800000900437B9F1000F00F0FD8099F80030A1
:101D90004846002A40F0FE80002B00F00C8147F6F8
:101DA000FE724B4601E0013A03D413F8011F0029EB
:101DB000F9D11B1AED1A013B00934FF0200A0BE0FA
:101DC00076460DF118093B6809F80C3D0023013DEA
:101DD000043700934FF0200A002D1EDBBCF1000FEA
:101DE0007ED16B42002D7AD099F8001022682D29FF
:101DF000926800F0A8809B4601E023689A685146EB
:101E0000204690471BF1010BF7D1009A002A5B4650
:101E1000A844FFF6F8AE1D4604E0009B002BFFF639
:101E2000F2AE0025DDF800B0236819F8011B9B68AD
:101E30000BF1FF3B20469847BBF1FF3FF4D1009BDD
:101E400008F1010843449846002D3FF4DCAEA94652
:101E5000236851469B6820469847B9F10109F7D19C
:101E6000A844D0E676464FF00A0957F8042B0DF146
:101E7000170100E00146B2FBF9FE09FB1E2202F148
:101E80003003392BC8BF02F13703DBB2724601F8C9
:101E9000013C481E002AEDD10DF11702A2EB000B08
:101EA0000DF10C094A46584401E011F8013B02F8D3
:101EB000013B8142F9D10BF1FF33A5EB0B050093F8
:101EC0008AE776464FF00809CFE776460B460DF1D4
:101ED0001809013D09F80C3D002300937CE71D46DD
:101EE000009B002B9EDAAFE74FF01009BDE7391DCC
:101EF0003A680F46002A55DB0DF10C09484600F1FF
:101F00000B03009319462F4BA3FB02E3DB0803EB03
:101F1000830B9E46A2EB4B033033DBB2724601F8D3
:101F2000013D002AEFD1009A521A024401E011F853
:101F3000013F00F8013B9042F9D1A0EB0900431E9C
:101F40002D1A009348E7BAF1300F7FF454AF2046C2
:101F500001939047009B2268013B0093019B92688C
:101F600008F1010809F101099B4648E73946192B98
:101F700051F8042B764688BF0F46BBD8B8E77646A3
:101F80004FF0100971E710488146002A3FF407AF6F
:101F9000013A06E7002BFBD14FF0FF3300934FF0DF
:101FA000200A19E72D2352428DF80C300DF10D0057
:101FB0000DF10C09A3E74FF0FF3300934FF0200A17
:101FC0000CE700BFCDCCCCCCC07C000800000000EA
:101FD000002903DD074A0849FFF70ABE202383F3DF
:101FE00011884FF080420023526A83F3118803491D
:101FF000FFF7FEBDE07E0008E87E0008F47E0008E2
:10200000002903DD194A1A49FFF7F2BD10B5194A34
:10201000194982B00446FFF7EBFD184A18492046DB
:10202000FFF7E6FD174A18492046FFF7E1FD174A7A
:1020300017492046FFF7DCFD164A17492046FFF7EF
:10204000D7FD164A16492046FFF7D2FD154A164914
:102050002046FFF7CDFD154B00932046144B154A43
:102060001549FFF7C5FD02B010BD00BFD07C0008C8
:10207000E87E0008D87C0008E07C0008F47C0008BA
:102080003C7D0008507D00085C7D0008707D0008E4
:102090007C7D0008907D0008A87D0008BC7D0008BC
:1020A000E87D0008FC7D0008247E0008607E0008B2
:1020B000387E00083C7E0008487E000800000000D2
:1020C00010B52F482F4CFEF7E3FB4FF4A870FEF736
:1020D000B7FA2046FEF7BCFB2B48FEF7D9FB44209D
:1020E000FEF7AEFA2046FEF7B3FB2848FEF7D0FB1A
:1020F0001420FEF7A5FA2046FEF7AAFB2448FEF7B7
:10210000C7FB0C20FEF79CFA2046FEF7A1FB2148F6
:10211000FEF7BEFB0420FEF793FA2046FEF798FB7D
:102120001D48FEF7B5FB1420FEF78AFA2046FEF79D
:102130008FFB1A48FEF7ACFB1020FEF781FA204611
:10214000FEF786FB1648FEF7A3FB0820FEF778FA99
:102150002046FEF77DFB1348FEF79AFB2420FEF78E
:102160006FFA2046FEF774FB0F48FEF791FB28201C
:10217000FEF766FA2046BDE81040FEF769BB00BFD7
:10218000907B0008A07B0008A87B0008B87B0008B3
:10219000C87B0008D87B0008E87B0008F87B0008B3
:1021A000087C0008187C0008287C0008000000005B
:1021B00000EB8101002370B580F84C30CB68426899
:1021C0001B6A19685B680366C16593680446002B47
:1021D00037D09847002834D0616D94F85C2094F88B
:1021E000630094F8623043EA00238B422CBF0B4615
:1021F00063651006E16800F1A680002B00F089807D
:10220000042284F84C208A69216DD160002153603A
:10221000117091602046FEF793FB202383F3118811
:102220006389DA0709D4A16ED1F8002B43F00103CA
:1022300042F080626381C1F8002B002383F3118890
:1022400070BD94F85C2012F06005104616D0A36EA5
:10225000D3F80029616842F40012C3F80029D3F8CA
:10226000002B0D6842F40012C3F8002B15B10521B4
:102270002046A847062384F84C3070BD94F85D10C2
:1022800002F07F0343EA0123B3F5407F00F00B81A6
:1022900017D9B3F5C06F00F0ED8040F28C80B3F534
:1022A000106F66D040F602418B4200F0CA80B3F551
:1022B000006FCCD104F167030121A565C4E9143195
:1022C0008DE7022B00F0A48040F29A80B3F5807F66
:1022D00062D0B3F5817FBAD194F85E30002BB6D1CD
:1022E00094F8603013F00F010CD0A26E13F0800F41
:1022F00002EB411340F0F280D3F8002B22F40012DD
:10230000C3F8002B0023C4E91433A3650306E16876
:1023100025D4052384F84C304B690021C3E9011111
:102320001970D9602046FEF7E3FA202383F3118861
:10233000238913F0010180D143F00103238120465A
:10234000FEF7BEFA79E753B1012284F84C204A69BE
:10235000216DD1600021536011709160E2E7032389
:1023600084F84C308B6900211970D960C3E90111E0
:1023700050E794F85E3084F86730002B40F0A2807C
:102380000323237063681B68002BBBD02046022107
:10239000984794F85C00B5E794F85E30012B7FF421
:1023A00056AFB4F86430256523F00203C4E915552F
:1023B000A4F86430AAE740F20232934243D0B3F566
:1023C000A06F7FF444AFB4F85C30B3F5A06F99D13F
:1023D00094F85E10A26E84F86610D2F80038606837
:1023E00023F4FE63056843EA0113C2F8003815B10F
:1023F00001212046A847032394F85C00237081E75D
:10240000E3B904F164000221A365C4E91401E6E61E
:1024100094F86000A36E050600F00F0155D4583102
:10242000490159580E047FF513AF8B0254D5324B36
:10243000236502210023C4E91513D0E6012B7FF4A4
:1024400006AF2E4BF4E794F85E30002B7FF4FFAE1E
:1024500094F8603013F00F013FF454AFA26E1D06E4
:1024600002EB411241D4D2F8003B43F40013C2F80E
:10247000003B47E794F86100616894F860304E686B
:1024800094F85E2094F85F1043EA00232046B0479A
:1024900000283FF4DCAED0E9001394F85C20A56579
:1024A000C4E914319BE694F85E30012B7FF4CFAE83
:1024B000B4F86430256543F00203C4E91555A4F867
:1024C000643023E7042323705CE7483149015958FD
:1024D00008047FF5BDAEA8E7094BA9E7D3F80029AA
:1024E00022F40012C3F800290CE7D2F8003943F4B3
:1024F0000013C2F8003905E780800008D08C00087E
:10250000407B000800000000000000000000000008
:102510002DE9F84353690D462BB10021196059602C
:102520009960D960196193692BB1002119605960D4
:102530009960D960196113680FFA85F800EB880774
:1025400003F00303022BFA6000F09780032B00F0E6
:1025500091804B4C4B49012B0CBFA1468946846EA0
:10256000D668690163184FF0000CC3F810CB05F171
:1025700010034FF0010C0CFA03F3002E4BD0B2F80D
:1025800012C005F1580676014CEA090C44F806C061
:10259000D4F81C683343C4F81C386618D2F808C055
:1025A0000023A901C6F8103941F020016B1EBCF1CF
:1025B000000F3FD0B2F81CC0168ABCF1010F4FEAE1
:1025C000960203F14003066F88BF0CFB02F204EB96
:1025D000830302EB060C46EA0242C0F870C05A6060
:1025E000216123699A06FCD40C20FFF7F9F8FB68F7
:1025F0001B8A05F1480243EA8553520143EA090365
:10260000A3500121D4F81C3801FA05F51D43C4F884
:102610001C58BDE8F88304EB481CDCF8006B26F47A
:102620000046CCF8006BD4F81C6826EA0303C4F813
:102630001C38B2E705F13F0304EB8303124A5A60EA
:10264000216123699B06FCD404EB48180C20FFF79A
:10265000C7F8D8F8003923F40043C8F80039D4F893
:102660001C38012101FA05F523EA0505C4F81C58B8
:10267000BDE8F883DFF8149071E7DFF814906EE797
:1026800000800410008000100004000200800C1084
:1026900000800810000000000000000000000000A2
:1026A000022947D1F8B506460D46202383F3118849
:1026B000214C224A0121FFF72BFF29463046204AB0
:1026C000FFF726FF04F10C07D4F85422A36916681B
:1026D0006362384600256FF0010123626561FEF7F1
:1026E000C7FFD4E90F2304F130009B1A6FF00101FA
:1026F000A2646264A363FEF7BBFF201D0121FEF705
:1027000067FED4F85432597906EB81033046DA6813
:102710009369528A5A6001221A70C3E90257FEF780
:102720000FF9D4F8543230465979FEF759FA85F347
:102730001188F8BD704700BF700E002000800008AF
:1027400030800008000000000000000000000000D1
:1027500038B5202383F31188114A1068946983687F
:10276000A1688B4203D2002383F3118838BD03682C
:1027700013605A600125906100220577227700E0FE
:102780001B689A689142FBD95A682146C4E9003215
:1027900014605C60FDF774FD002383F3118838BD7D
:1027A0009012002000000000000000000000000067
:1027B00038B5094D0446FFF7CBFFFFF7C9FFFFF718
:1027C000C7FFFFF7C5FF2368AA6904332360537F5F
:1027D0005B07F0D538BD00BF90120020000000005C
:1027E0000D4A106830B4036894691360A1685A6098
:1027F0000125906100220577227700E01B689A6826
:102800009142FBD35A682146C4E9003214605C60EF
:1028100030BCFDF735BD00BF901200200000000065
:10282000044B1A689B6992689B689A4200D870476B
:10283000FFF7D6BF9012002000000000000000004B
:1028400008B5202282F311888368002B05DDFFF78D
:10285000E7FF002383F3118808BDFEF781FEFFF731
:10286000DFFF002383F3118808BD00BF00000000D4
:10287000134A70B52023946983F31188A36BB3B115
:1028800000261A68D968A1639342104613D0956B4D
:10289000116819604B60C3E902259363FEF790FC51
:1028A000A36B002BEDD1E36BA360FFF7B9FF00230F
:1028B00083F3118870BD9E600B46002BE1D1F2E7D7
:1028C0009012002000000000000000000000000046
:1028D00010B5202383F31188084B9B69DC6B996842
:1028E000A14201D0814200D29860D863FFF798FFDF
:1028F000002383F31188204610BD00BF90120020F2
:10290000F8B5494EB3699C68651C2846FFF7E0FF9F
:10291000011BB1FA81F1074649090120FDF748FF83
:1029200000B1F8BDB3699968491BB1FA81F1022081
:102930004909FDF73DFF0028F3D13846FFF7C8FFEE
:10294000291AB1FA81F149090320FDF731FF002866
:10295000E7D1B3699968091BB1FA81F104204909EB
:10296000FDF726FF0028DCD1202383F31188B2690C
:1029700093680233936080F31188B3699968A71C48
:10298000C91BB1FA81F149090520FDF711FF0028A3
:10299000C7D12846FFF79CFF011BB1FA81F1490915
:1029A0000620FDF705FF0028BBD1B3699968C91B54
:1029B000B1FA81F149090720FDF7FAFE0028B0D1EC
:1029C000B369D96B4F1B794279410820FDF7F0FEBE
:1029D0000028A6D1E71C3846FFF77AFF281A4142A3
:1029E00041410920FDF7E4FE00289AD1B3699968B6
:1029F000CA1B514251410A20FDF7DAFE002890D14E
:102A0000B369D96BCB1B594259410B20FDF7D0FE5E
:102A1000002886D1202383F31188B3699C60DC638E
:102A200080F31188F8BD00BF901200200000000064
:102A300010B5EFF30584C4F308041CB1002383F33D
:102A4000118810BDFFF7ECFE84F3118810BD00BFA4
:102A500008B5202383F31188002282F3118883F3C1
:102A60001188EFF312831BB9FEF7B2FEFFF7E0FF08
:102A7000002383F3118808BD00000000000000005F
:102A8000144B70B49E6985680446B0682162854223
:102A90004FF000020BD822771B689A689542FBD949
:102AA0005A68C4E9003214605C6070BC70473277C9
:102AB0001A46126891688842FBD9516871600120FA
:102AC00032600E6056602077314620469C6170BCB3
:102AD000FDF7D6BB901200200000000000000000AF
:102AE000F0B5104D83B0064628460F46FEF7C8F9EC
:102AF000A8B1202383F311880B4B696800973246F5
:102B0000FEF7FEFA02234377056400210446FFF72F
:102B1000B7FF002383F31188204603B0F0BD0446BD
:102B2000FAE700BFC01400204108000800000000C0
:102B300008B5202383F31188064B1868984205D006
:102B400002681A6053600021FFF79AFF002383F3A5
:102B5000118808BD000800200000000000000000EF
:102B6000164B70B59D69202383F311880468C368F0
:102B7000AB6384421CD0E96B4BB11A68934203D01B
:102B80009268914238BF1146DB68002BF5D10346AD
:102B9000A66B2268A96020461A6000215360C3E931
:102BA0000246A363FFF76CFF002383F3118870BD17
:102BB0000023A360002383F3118870BD90120020CE
:102BC00008B5202383F3118883680133002B8360C9
:102BD00003DD002383F3118808BD03460068026803
:102BE0001A6000215360FFF74BFF002383F3118825
:102BF00008BD00BF00000000000000000000000051
:102C0000F8B5069E0446202585F311882439451819
:102C1000C560124F4350124B6E602F6203615969B9
:102C2000C2638260002500F128024FF0020C00F11F
:102C3000240601274161A0F81CC08777C0E90D5523
:102C4000856108612946C0E90962C2625861FFF7DF
:102C500017FF85F311882046F8BD00BF91020008D8
:102C600090120020000000000000000000000000A2
:102C7000074B99691A6810B4087710681860012426
:102C800043601477104610BC9A61FDF7F9BA00BF93
:102C90009012002000000000000000000000000072
:102CA00038B5202383F31188154CA3680133002B1A
:102CB000A3601ADD013B002BA36006DBFFF7B0FD2C
:102CC0000020002383F3118838BD0E4A636895699C
:102CD0000520C5E900431D602C626560FFF7C8FF51
:102CE000286A002383F3118838BD206803682360B5
:102CF0005C60FEF765FA0022A3680262DAE700BFB3
:102D0000CC0800209012002000000000000000000D
:102D100010B51E4A1E4B92691E4892681E4C82B026
:102D20000021013200914FF4A471FFF769FF1B4BA2
:102D30001860FFF7B5FF2168091BB1FA81F1012086
:102D40004909FDF735FD08B102B010BDA168B1FA1F
:102D500081F149090220FDF72BFD0028F4D1FFF78E
:102D60009FFF2168091BB1FA81F103204909FDF792
:102D70001FFD0028E8D1A168B1FA81F149090420BA
:102D800002B0BDE81040FDF713BD00BF9012002057
:102D900051500008F0140020CC080020841B0020B3
:102DA0000B4A10B52023946983F31188636B33B900
:102DB0004FF0FF3323620A20FFF75AFF636B58423C
:102DC000184023EA00036363002383F3118810BDD6
:102DD0009012002000000000000000000000000031
:102DE000094A10B52023946983F31188606B30B9C8
:102DF0004FF0FF330A202362FFF73AFF606B002396
:102E0000636383F3118810BD90120020000000005E
:102E1000074A10B52023946983F311880320FFF734
:102E200027FF236A002BF9D0002383F3118810BDFC
:102E300090120020000000000000000000000000D0
:102E400030B54B1C87B012D00C4C0D4AA369054617
:102E500001A8FEF75DFC2846FFF70AFF049B13B1AB
:102E600001A8FEF71DFCA369186A07B030BD034C2A
:102E7000FFF7FEFEA369186A07B030BD901200206C
:102E800051110008000000000000000000000000D8
:102E9000202383F31188104B99684A1E002A9A60F8
:102EA00004DB0020002383F31188704780B10B4AB4
:102EB00010B592695C681362C2E900340146226071
:102EC00005205A60FFF7BCFF002383F3118810BD73
:102ED00099604FF0FF30E5E7CC0800209012002009
:102EE00070B5554C2023A26983F31188536B3BB90D
:102EF00083F3118801210120FDF75AFC80B170BDD8
:102F00005942194023EA01035363002383F31188D4
:102F1000B1FA81F149090120FDF74AFC0028EED100
:102F2000A369202282F311885A6B002A6FD058635C
:102F300080F3118801460220FDF73AFC0028DED11B
:102F4000A369202282F311885A6B013263D080F387
:102F50001188012001460320FDF72AFC0028CED16C
:102F6000A669202383F31188756B4DB94FF0FF33A9
:102F70000A2133620846FFF763FF00284FDB756BB9
:102F80006942294025EA01057563002383F311880E
:102F9000B1FA81F149090420FDF70AFC0028AED1FD
:102FA000A669202383F31188756B4DB94FF0FF3369
:102FB0000A2133620846FFF743FF002833DB756BB5
:102FC0000023736383F31188B5FA85F1490905205D
:102FD000FDF7EEFB0546002891D1A469202383F379
:102FE0001188636B013308D04FF0FF3323620A214D
:102FF0000B20FFF725FF002819DB0023636383F311
:10300000118829460620BDE87040FDF7D1BB82F348
:10301000118801218FE7586380F311889AE785F3BF
:1030200011880121B7E785F311880121CFE785F3E6
:1030300011880125E5E700BF901200200000000084
:103040008368013B002B836001DB00207047074B46
:103050009B6910B41862186044685C600246236083
:103060000520536010BCFFF7EBBE00BF901200209C
:1030700070B52023064683F311880D4C04F11C0023
:10308000FFF7DEFF054668B9D4E90112131D8B4234
:10309000A3600848166024BF2368A360FEF760FAA7
:1030A000FFF7BEFB002383F31188284670BD00BFE5
:1030B00074080020840800200000000000000000C8
:1030C00070B52023064683F31188104C04F11C00D0
:1030D000FFF7B6FF054620B1002383F31188284689
:1030E00070BDE3682268043B9342E36002D26368E8
:1030F000043BE3601E600648FEF732FAFFF790FBE0
:10310000002383F31188284670BD00BF7408002097
:103110008408002000000000000000000000000003
:1031200070B52023064683F311880D4C04F110007E
:10313000FFF786FF054670B9E368626819680948B9
:1031400004339342E360316024BF2368E360FEF7F9
:1031500007FAFFF765FB002383F31188284670BD4B
:10316000740800209008002000000000000000000B
:10317000F0B5202383B083F31188D14D696AA1F1A2
:103180000501B1FA81F101204909FDF711FB002881
:1031900040F0918180F3118842244FF0FF312046A6
:1031A000FFF766FFB0FA80F149090220FDF700FB46
:1031B000013478B9462CF0D14FF0FF314120FFF7B0
:1031C0007FFFB0FA80F149090320FDF7F1FA0028EA
:1031D00000F07E8103B0F0BD80F3118884F3118884
:1031E0004120FEF7CDF9B0FA80F149091620FDF72C
:1031F000DFFA0028EED14220FEF7C2F9B0FA80F1E2
:1032000049091720FDF7D4FA0028E3D14320FEF73F
:10321000B7F9B0FA80F149091820FDF7C9FA00287A
:10322000D8D14420FEF7ACF9B0FA80F14909192051
:10323000FDF7BEFA06460028CCD14520FEF7A0F9DE
:1032400086F31188B0FA80F149091A20FDF7B0FA27
:103250000028BFD1D5E90231A1EB030CDCF100015C
:1032600041EB0C011B20FDF7A3FA0028B2D1074661
:10327000052684F3118801A8FEF7C2F987F31188A7
:10328000B0FA80F149091C20FDF792FA0028A1D17B
:103290009DF80400FDF7A4FA013EEAD189491D20FA
:1032A000FDF75EFA002895D184F31188696A4F1FF3
:1032B000794279411E20FDF77BFA002840F02382F5
:1032C00086F3118884F31188A969B1FA81F149095B
:1032D0001F20FDF76DFA002840F0158286F3118853
:1032E000D5E90231CA1A514251412020FDF760FA56
:1032F00000287FF46FAF84F311884520FEF760F952
:10330000B0FA80F149092120FDF752FA00287FF434
:1033100061AF4420FEF754F9B0FA80F14909222048
:10332000FDF746FA00287FF455AF4320FEF748F931
:10333000B0FA80F149092320FDF73AFA00287FF41A
:1033400049AF4220FEF73CF9B0FA80F14909242048
:10335000FDF72EFA00287FF43DAF4120FEF730F94B
:10336000002383F31188B0FA80F149092520FDF785
:103370001FFA00287FF42EAFD5E90231CB1A59424B
:1033800059412620FDF714FA00287FF423AF0646A2
:103390000524202787F3118801A8FEF731F986F369
:1033A0001188B0FA80F149092720FDF701FA0028B9
:1033B0007FF410AF9DF80400FDF712FA013CE9D14B
:1033C00040492820FDF7CCF900287FF403AF87F3AC
:1033D0001188696AA1F1050EDEF1000141EB0E01D1
:1033E0002920FDF7E5F9002840F0C58084F3118815
:1033F00087F31188A969B1FA81F149092A20FDF7FB
:10340000D7F9002840F0B78084F31188D5E902315C
:10341000A1EB030CDCF1000141EB0C012B20FDF7CB
:10342000C7F900287FF4D6AE87F31188D5E90032BA
:10343000D21A91102448AB60EB60FEF701F92146E7
:103440002248FEF7FDF8FFF7EBF984F3118887F3C4
:103450001188696A4E1F714271412C20FDF7A8F94D
:10346000002840F0888084F3118887F31188A969C7
:10347000B1FA81F149092D20FDF79AF900287AD196
:1034800084F3118887F311882968AB68CA1A5142FE
:1034900051412E20FDF78CF900286CD184F311885E
:1034A00087F311882968EB68CB1A59424FF02F0037
:1034B0005941FDF77DF9002383F3118803B0F0BD76
:1034C00074080020B08000089008002084080020C4
:1034D00001215820FFF7CCFDA0F1FF31B1FA81F1B5
:1034E00049090420FDF764F9044600287FF472AE10
:1034F000202686F311885820FEF742F8014684F30F
:103500001188A1F1FF31B1FA81F105204909FDF7D8
:103510004FF900287FF45EAE01215820FFF7D0FD5F
:10352000A0F1FF31B1FA81F149090620FDF740F918
:10353000044600287FF44EAE86F311885820FEF72B
:103540003FF8014684F31188A1F1FF31B1FA81F10E
:1035500007204909FDF72CF9044600287FF43AAE0C
:1035600086F31188696AB1FA81F149090820FDF7EB
:103570001FF9074610B184F311882BE680F31188F8
:1035800086F31188A969A1F1050EDEF1000141EB76
:103590000E010920FDF70CF910B187F3118819E627
:1035A00080F3118886F31188D5E90231A1EB030C71
:1035B000DCF100014FF00A0041EB0C01FDF7F8F8D7
:1035C000002300287FF478AF83F31188052405E0F9
:1035D0009DF80400FDF704F9013C0DD04FF0FF31D8
:1035E00001A8FFF79DFDB0FA80F149090B20FDF716
:1035F000DFF80028ECD0EDE544490C20FDF7B0F8E9
:1036000000287FF4E7AD4FF0FF314720FFF730FD92
:10361000B0FA80F149090D20FDF7CAF800287FF4BF
:10362000D9AD4FF0FF3101A8FFF77AFDB0FA80F174
:1036300049090E20FDF7BCF800287FF4CBAD2968BE
:10364000AB68CF1A794279410F20FDF7B1F8002815
:103650007FF4C0AD2968EB68CE1A71427141102029
:10366000FDF7A6F800287FF4B5AD012101A8FFF70A
:1036700057FD0130414241411120FDF799F80028E2
:103680007FF4A8AD202686F3118801A8FDF7B8FFC6
:10369000014684F311884A1C514251411220FDF722
:1036A00087F800287FF496AD86F31188696A4B1F6E
:1036B000594259411320FDF77BF800287FF4FBAEF7
:1036C000002787F31188202484F31188A969B1FAAF
:1036D00081F149091420FDF76BF8064600287FF4B4
:1036E0005CAF80F3118884F31188D5E90231A1EB36
:1036F000030EDEF1000141EB0E011520FDF758F835
:1037000000283FF469AD86F3118863E5B0800008B6
:1037100061B1084B9B6910B4186044685C60024654
:1037200023600420536010BCFFF78ABB4FF0FF30CA
:10373000704700BF90120020000000000000000051
:103740002DE9F04F83B004460D4616460193D0F89C
:103750001C804FF0200989F311880027BA46A3681E
:1037600005F1010B591E2046FBB16369A160591C8C
:10377000616129781970D4E90431994224BFE36862
:103780006361B8F1000F00D0C0478AF31188013E91
:1037900007F1010713D089F31188A3685D46591E0C
:1037A00005F1010B2046002BDFD101990093204643
:1037B000FFF7AEFF009B0028D1D083F31188384675
:1037C00003B0BDE8F08F00BF000000000000000063
:1037D0003030FFF7B5BF00BF000000000000000060
:1037E00030304FF0FF33FFF7ABBF00BF00000000E9
:1037F000F8B504460F461646202383F3118803E0EC
:10380000FFF786FF002817DBA56831462046002D0C
:10381000F6D06369013D5A1C6261A5601F70D4E94E
:1038200004329A4224BFE3686361E36903B19847B5
:10383000002080F31188F8BD85F31188F8BD00BF22
:103840004FF4FA6200210148FFF7D2BFA808002018
:103850003030FFF7CDBF00BF0000000000000000C7
:1038600030304FF0FF32FFF7C3BF00BF0000000051
:103870002DE9F04F044683B0894693461D46D0F8A3
:103880001C80202787F3118800260197B246B8F1E3
:10389000000F05D02046C04702E0FFF739FFD8B936
:1038A000A76829462046002FF7D0A269013F511C86
:1038B000A161A760137809F8013B2369A2699A42C4
:1038C00024BFE368A3618AF311880136B34505D0AC
:1038D000019B83F31188DAE787F31188304603B040
:1038E000BDE8F08F000000000000000000000000B4
:1038F0000C30FFF7BDBF00BF00000000000000005B
:103900000C304FF0FF33FFF7B3BF00BF00000000E3
:1039100070B520230E46044683F31188C3692BB18A
:10392000984703E0FFF7F4FE002815DBA568314651
:103930002046002DF6D0A2692169531C8B4205F167
:10394000FF35A361A56028BFE368107828BFA36195
:10395000002383F3118870BD85F3118870BD00BF0B
:103960004FF4FA610148FFF7D3BF00BF10080020F1
:103970000C30FFF7CDBF00BF0000000000000000CA
:103980000C304FF0FF31FFF7C3BF00BF0000000055
:1039900008B50146202383F311880820FFF750FA69
:1039A000002383F3118808BD000000000000000020
:1039B00008B5094B094A9B69094C9A614FF4804547
:1039C0002E46668341F28830FFF7E2FF258341F2FD
:1039D0008830FFF7DDFFF4E790120020F07A00084E
:1039E000001802400000000000000000000000007D
:1039F00008B5094B094A9B69094C9A614FF4005577
:103A00002E46668340F6C410FFF7C2FF258340F6BA
:103A1000C410FFF7BDFFF4E790120020007B000800
:103A2000001802400000000000000000000000003C
:103A300010B586B0EFF312831BB9FDF7C9FEFEF790
:103A4000F7FF202383F31188EFF312831BB9FDF7EF
:103A5000BFFEFEF7EDFF002383F31188EFF312831F
:103A600013B9202383F31188EFF3128313B92023B2
:103A700083F31188002383F31188202282F31188B5
:103A8000EFF312820AB183F31188EFF3128313B1BB
:103A9000002383F3118800230493202383F31188E8
:103AA000049B01AC13B12046FDF7FAFD204600232C
:103AB0000B4A0121FDF72CFE002484F311880A2013
:103AC000FFF766FF202383F31188049984F311889C
:103AD000B1FA81F149090120FCF76AFE06B010BD78
:103AE000512A000800000000000000000000000053
:103AF00010B504464FF4FA70FFF74AFF202383F312
:103B0000118801212046FDF74BFCFEF789FE0023BA
:103B100083F3118810BD00BF00000000000000000A
:103B200038B5202585F3118800210B48FDF750FC9E
:103B30000024FEF775FE84F311884FF4FA70FFF746
:103B400027FF85F3118805482146FDF741FCFEF764
:103B500067FE84F3118838BD080800200C08002097
:103B600008B54FF4FA70FFF713FF202383F3118891
:103B70000448FDF7F5FCFEF753FE002383F311889C
:103B800008BD00BFCC0800200000000000000000BD
:103B900008B50120FFF7FCFE202383F311884FF0C6
:103BA00080420023506A83F3118808BD00000000A2
:103BB0002DE9F047FFF7ECFFFDF7EAFD0024DFF801
:103BC00070A0164F164E174DA1464FF0200888F3EF
:103BD000118800233A4630460121FDF799FD3A4607
:103BE000002342F210712846FDF792FD3046FDF7A2
:103BF00057FD2846FDF754FD89F311889AF80030E7
:103C00000134002BE3D00848FCF742FE6000FCF7CB
:103C100047FD0648BDE8F047FCF71ABEA1030008BF
:103C2000C01B0020D41B0020507B0008607B0008D4
:103C3000801B0020000000000000000000000000C9
:103C4000F8B5264B264C274FE36003F11002002500
:103C50002261C4E9053324606460A560C4E90755A6
:103C6000FFF796FFFDF794FD2E46202383F311887E
:103C700000212046FDF7D4FA20460121FDF7D0FAB5
:103C800020460221FDF7CCFA20460321FDF7C8FAB1
:103C900086F311884FF0FF312046FFF739FE4FF0D1
:103CA000FF312046FFF734FE4FF0FF312046FFF78B
:103CB0002FFE20464FF0FF31FFF72AFE3B780135FB
:103CC000002BD2D00848FCF7E3FDA800FCF7E8FC85
:103CD0000648BDE8F840FCF7BBBD00BF88140020D3
:103CE00098140020801B0020507B0008907C000866
:103CF0002DE9F043144BDFF860909B69DFF85C809E
:103D00009D68124F83B0FFF743FFFDF741FD00248C
:103D100001352646434600962A464FF4A47138469C
:103D2000FEF76EFF99F800300134002BF2D00848FE
:103D3000FCF7AEFD2046FCF7B3FC064803B0BDE837
:103D4000F043FCF785BD00BF90120020F014002066
:103D5000507B0008507C0008801B00202178000860
:103D6000F8B5FFF715FF202686F311884FF0804540
:103D700000236C6A83F311884FF47A70FFF708FE12
:103D800004F2EB3204F57A710120FCF7C9FC00B1B2
:103D9000F8BD86F311886C6A80F311884FF47A704D
:103DA000FFF7F6FD04F2EB3204F57A710220FCF71E
:103DB000B7FC0028ECD186F311886C6A80F3118877
:103DC00042F21070FFF7E4FD04F51C521146103169
:103DD00013320320FCF7A4FC0028D9D186F3118804
:103DE0006F6A80F3118807F57A7486F31188696A1F
:103DF000611A02D00820FFF723F8002383F311880B
:103E0000042007F2EB322146BDE8F840FCF788BCFD
:103E10002DE980486E4B6F499A69856E916187B034
:103E2000202383F3118800F17803A9460593054602
:103E30002B78012B05D06B6F8BB9D9F81430DB06CA
:103E40000DD4D9F81830624A43F010039269C9F8CA
:103E50001830059BAA6703201362FEF709FF0023B1
:103E600083F311889A46D9F8143013F0100358D010
:103E7000AA6E136A03F4F011B1F5802F24D0B1F5C6
:103E8000402FF0D103F00F0105EB8101C3F30A13BA
:103E9000C96803339B080C6AE5D002F58052022101
:103EA0001668581E49B1034644F8046B0139002BCB
:103EB000D9D01668581E0029F5D10028D3D0023B6E
:103EC0001068002BF5D1CEE703F00F0605EB860650
:103ED000C3F30A14F3689F693B78F868002B3BD161
:103EE000D7E90113CE1CE11CF61A89084FEA9606A1
:103EF0000ED002F5805284469646DEF800204B1E16
:103F000016B319464CF8042B013E0029F5D1BB68C5
:103F10002044F8602344BB60D9F8143013F0100338
:103F2000A6D101266A6F06FA0AF6164254D10AF1A2
:103F300001030293EB6E9DF808A09B689A4592D905
:103F4000202383F3118873E7002BE0D00239DEF8D9
:103F500000300029D1D1DAE73CB3416902F5805243
:103F6000A446BCF1030F07D903698B4204D8C1688A
:103F70004161BCF1030FF7D8D2F800E000232EFA1C
:103F800003F701F10108C0F814800F70D0E904179D
:103F90008F4224BFC1684161BCF1010C03F10803E9
:103FA00003D0202B4169EAD1DBE7202383F311887A
:103FB0008368234483600021FDF75AFBFEF730FC41
:103FC000002383F31188F3689F69BB68A2E700BFF1
:103FD00090120020308B0008202282F31188D9F83B
:103FE00008106A6F21F0010122EA0602C9F80810E0
:103FF0006A6783F3118805EB8A031F46D9684A690B
:10400000D2E90130984280F0B180D5F868E00C8A9E
:104010004FEA4A180EEB080C1B1ADCF818099C42F0
:1040200028BF1C4683B2B4EB830F00F2AC800AF1C8
:10403000010302931B03CDE903960193B946019E48
:104040001378D068B644002B79D0FCB1D0F810B00A
:1040500022469708836959D0BBEB030148BF03315F
:104060008E10BE4228BF3E46B100521A002E77D0B5
:10407000194453F8046BCEF800608B42F9D15945CE
:10408000816140D3C3688361002AE2D1202383F396
:1040900011888368234483600021FDF7E9FAFEF765
:1040A000BFFB002383F31188D9F80C104A69D2E9C9
:1040B00001031C44A042946054D9D5F868E0B1F8DB
:1040C00010C00EEB080A041BDAF81839644528BF43
:1040D00064469BB2B4EB830FB1D9DDE903960022AD
:1040E000202383F31188D9F8083043F00103C9F87D
:1040F000083022B9D9F834381E43C9F8346800238F
:1041000083F3118816E7002AC0D00B4600210E4623
:104110005F1C87611B785F4503FA01F346EA0306DB
:1041200024BFC3688361013A04D0182902D0083142
:104130008369EDE7CEF80060002A8AD1A6E7E31C88
:104140009B080AD000EB8301034653F8046BCEF8BA
:1041500000608B42F9D1D9F80C102044D060A5E75B
:1041600019468CE7DDE903960122B9E7202383F3A2
:104170001188D9F808300AF1010243F001030292D4
:10418000C9F80830BBE7202383F31188D9F8083039
:104190000AF1010243F001030292C9F80830A9E7CD
:1041A00010B5202383F311880B4CA269134653F8F2
:1041B000280F984208D0016891620D224B600023BD
:1041C000027783F3118810BD0E20FEF751FDA2691E
:1041D000906A02F12803EEE7901200200000000030
:1041E00070B520260025FFF7DBFF046B86F31188EE
:1041F0002146FEF745FC85F31188002CF3D170BDF4
:1042000070B51F4A1F4B91691F488A6882B00132FE
:1042100000914FF4A471FEF7F3FC1C4B1860FFF7FC
:10422000BFFF2025066B85F311883146FEF728FC79
:10423000002484F31188F0B2FCF7D2FAFFF7B0FF44
:10424000066B85F311883146FEF71AFC84F311885A
:10425000F0B2FCF7C5FAFFF7A3FF066B85F31188F0
:104260003146FEF70DFC84F31188F0B2FCF7B8FA82
:104270000749012002B0BDE87040FCF771BA00BFE9
:104280009012002011430008F0140020841B00202D
:104290007080000800000000000000000000000026
:1042A0000E4B10B520229C6982F3118800F1280280
:1042B00022622260C26A626021631460027FC4626B
:1042C0000E2A07D00C20FEF7D3FC206A002383F3CC
:1042D000118810BDFCF774FFF4E700BF90120020B6
:1042E00070B50546FFF754FCFDF752FA074E00245F
:1042F00001212846FFF7D4FF33780134002BF7D093
:1043000028460021FFF7CCFF204670BD801B00200F
:1043100010B541210446FFF7C3FF20464221FFF7B5
:10432000BFFF20464321BDE81040FFF7B9BF00BFE3
:10433000F8B5364A83689569002B3FD0A9689A681A
:104340009142044606D91A7F9960062A3BD0072A73
:1043500015D042B32646234603E09968AA689142E5
:104360002AD31B689C42F8D173680620C5E9006314
:104370001D6075602C62BDE8F840FEF779BCD3E99A
:10438000000210601E6A18684260324602E09068BF
:10439000884232D312689642F9D17268C3E900624A
:1043A00013607360D6E7D3E90012116019681846EC
:1043B0004A60FCF705FFCDE71E46D5E7AB6BC0E9C9
:1043C0000253A863F8BDD3E9000210601E6A1868A2
:1043D00037464260324602E09068884214D3126841
:1043E0009642F9D17A68A968C3E9007213607B60CC
:1043F000B3689A688A42A6D3ACE716467268C3E9E6
:10440000006213607360A5E71746EBE79012002087
:1044100008B5202383F31188FFF78AFF002383F375
:10442000118808BD0000000000000000000000002E
:1044300070B5FFF7ADFBFDF7ABF9154E154C002538
:104440002046FFF7E5FF2046FEF78AFB2046FFF7F0
:10445000DFFF2046FEF784FB2046FFF7D9FF20460A
:10446000FEF77EFB2046FFF7D3FF2046FEF778FBE2
:1044700033780135002BE3D00748FCF709FAA80090
:10448000FCF70EF90548BDE87040FCF7E1B900BF44
:10449000801B0020CC140020507B0008807B00088B
:1044A000F8B507461B48FFF7B3FF1B48FFF7B0FFFF
:1044B000202383F31188194DAB699E6B3046FDF7BD
:1044C00027F8174BAC691846236203E09968A26885
:1044D000914202D31B688342F8D15A680720C4E98D
:1044E000003214605C60FEF7C3FBAB691B6A0133EA
:1044F00002D03046FFF71CFF002383F31188387881
:10450000FCF76EF90448FEF72BFB0248BDE8F840C3
:10451000FEF726BB640800205408002090120020FB
:104520000008002000000000000000000000000063
:1045300070B506461648FFF76BFF202383F31188FA
:10454000144B9C69A56B2846FCF7E2FF12482062D9
:10455000034603E09968A268914202D31B68834234
:10456000F8D15A680720C4E9003214605C60FEF795
:104570007FFB2846FFF7DCFE002383F311883078A9
:10458000FCF72EF90248BDE87040FEF7E9BA00BF1B
:1045900054080020901200200008002000000000B5
:1045A00038B5064C05462046FFF732FF2878FCF761
:1045B00017F92046BDE83840FEF7D2BA640800205B
:1045C000F8B5374DAA692023966883F31188354CD6
:1045D000A368002B57D00021002383F3118801200A
:1045E000FCF7E6F8014600B1F8BD202383F31188FB
:1045F000A368002B4ED00121002383F311880220F1
:10460000FCF7D6F807460028EED1202383F3118863
:104610002448FCF77DFF87F311882168091BB1FA54
:1046200081F103204909FCF7C3F80028DCD1A16817
:10463000B1FA81F149090420FCF7BAF80028D3D176
:10464000AB699968891BB1FA81F105204909FCF72A
:10465000AFF80028C8D11348FFF7DAFEFEF708F9D3
:104660002168091BB1FA81F106204909FCF7A0F87D
:104670000028B9D1A168B1FA81F149090720BDE844
:10468000F840FCF795B8AB69A3609A6BE2609C6355
:104690000121A1E7AB69A3609A6BE2609C63ABE781
:1046A00090120020540800200000000000000000CC
:1046B00010B5064C4FF4FA70FFF76AF92046FFF781
:1046C000A7FE2046BDE81040FEF74ABA6408002065
:1046D00010B5064C40F2DC50FFF75AF92046FFF7C0
:1046E00097FE2046BDE81040FEF73ABA5408002075
:1046F00038B5064C05462046FFF78AFE2878FCF7B9
:104700006FF82046BDE83840FEF72ABA540800206A
:1047100070B5114C002818BF044604F11005284656
:104720000E46FFF775FEA3686BB100221446D3E96D
:10473000003001340244002BF9D128463260FEF7E4
:104740000FFA204670BD1A461C4628463260FEF716
:1047500007FA204670BD00BFE813002000000000EB
:1047600030B5002983B004DD0F49FDF741FA03B0ED
:1047700030BD044601A90020FFF7CAFF0B4A0C4BCD
:1047800012681B680B49D21A05462046FDF730FA1D
:104790002A4609492046FDF72BFA2046019A074987
:1047A000FDF726FA03B030BD707E00080814002023
:1047B000DC140020807E0008A07E0008B87E00087F
:1047C000F8B550F8085C05F110070646A0F108049A
:1047D00008353846FFF71CFE2B46AB421A6801D05D
:1047E000A34202D21AB1944201D31346F5E746F828
:1047F000082C56F8042C1C6056F8080CB11881429D
:104800000AD0596801F108021A44944212D038467D
:10481000BDE8F840FEF7A4B94968B05846F8080C5E
:1048200008320A4446F8042C596801F108021A4477
:104830009442ECD156E902020832114418605960E2
:104840003846BDE8F840FEF78BB900BF0000000015
:1048500030B4202181F31188837F013BDBB2837761
:10486000002484F311881BB9047F0F2C024601D069
:1048700030BC7047447F04F00304012C0FD0022C9D
:10488000F6D1D0E9040420611569106C6C6181F3E4
:10489000118801681160026083F31188E8E7D0E9AC
:1048A00004131961026930BC5361FFF789BF00BF6F
:1048B00010B5202383F31188074B04699C421DBF68
:1048C000A37F0133A3770024002383F31188FFF72C
:1048D000BFFF204610BD00BF901200200000000066
:1048E000002902DD1649FDF783B9F0B5154985B0F9
:1048F0000546FDF77DF9202383F31188124B1C69CF
:10490000A37F0133A377002383F311880F4F104E49
:10491000227FE36857F822200292A27F013A019297
:10492000A2680092314622462846FDF761F92046EA
:10493000FFF7BEFF04460028EAD105B0F0BD00BF76
:10494000207F0008347F000890120020E0820008D9
:10495000647F00080000000000000000000000006C
:1049600038B50546202383F311880A4B1B699A7FCB
:1049700001329A77002484F311881846AB4208BFAD
:1049800044F00104FFF794FF03460028F5D12046C8
:1049900038BD00BF901200200000000000000000A1
:1049A000F8B5204E002818BF064606F1100707315B
:1049B000384621F0070506F10804FFF729FD03E05A
:1049C0004368AB4212D2044620680028F8D138462A
:1049D000FEF7C6F8336813B305F108009847F0B145
:1049E000C0E9006500F108042046F8BD05F10802A1
:1049F0009342016808D221600446384644F8086BA7
:104A0000FEF7AEF82046F8BD00EB020C5B1B083B3E
:104A10008150CCF80430C4F800C04560ECE70024B5
:104A2000E2E700BFE81300200000000000000000E3
:104A300070B582B069460020FFF76AFE10210020A1
:104A4000FFF7AEFF011C054618BF01210120FBF74F
:104A5000AFFE08B102B070BD04462846FFF7B0FEB5
:104A60006FF0FF012046FFF79BFFB0FA80F1490984
:104A70000220FBF79DFE0028ECD169467C48FFF739
:104A800047FE10217A48FFF78BFF10210646784831
:104A9000FFF786FF102105467548FFF781FF0446A2
:104AA0003046FFF78DFE2846FFF78AFE2046FFF7C7
:104AB00087FE01A96E48FFF72BFEA0F10101B1FAB4
:104AC00081F149090320FBF773FE0028C2D11021B0
:104AD0006748FFF765FF102104466548FFF760FF50
:104AE000102105466248FFF75BFFFFF769FE284685
:104AF000FFF766FE2046FFF763FE01A95C48FFF75B
:104B000007FEA0F10101B1FA81F149090420FBF788
:104B10004FFE00289ED111215548FFF741FF10217B
:104B200004465348FFF73CFF05462046FFF748FE82
:104B300001A94F48FFF7ECFDA0F10201B1FA81F1A4
:104B400049090520FBF734FE002883D1102148488D
:104B5000FFF726FF01A904464548FFF7D9FD0128C4
:104B600000F0838001A94248FFF7D2FDA0F10201C5
:104B7000B1FA81F149090620FBF71AFE00287FF4FB
:104B800069AF2846FFF71CFE2046FFF719FE01A972
:104B90003748FFF7BDFDA0F10101B1FA81F14909E4
:104BA0000720FBF705FE00287FF454AF10213048A2
:104BB000FFF7F6FE102105462D48FFF7F1FE0446EB
:104BC0002846FFF7FDFD01A92948FFF7A1FD851E35
:104BD000694269410820FBF7EBFD00287FF43AAFFA
:104BE00020212348FFF7DCFEFFF7EAFD2046FFF710
:104BF000E7FD01A91E48FFF78BFD01384142414105
:104C00000920FBF7D5FD00287FF424AF01A918483F
:104C1000FFF77EFD01991648FFF7C2FE01A9044681
:104C20001348FFF775FDB0FA80F149090A20FBF738
:104C3000BFFD00287FF40EAF2046FFF7C1FD01A99C
:104C40000B48FFF765FD421E514251410B20FBF717
:104C5000AFFD00287FF4FEAEDDE90031CB1A5942EA
:104C600059410C20FBF7A4FDF4E6014683E700BFA1
:104C7000601B002000000000000000000000000099
:104C8000F0B583B016461F460D46FFF789FEA8B162
:104C9000202383F31188089B009332463B46294624
:104CA000FCF72EFA0123437700210446FDF7E8FEC6
:104CB000002383F31188204603B0F0BD0446FAE7D1
:104CC00010B54A4B4A499A694A4892684A4B82B0A1
:104CD000013A00914FF4A471FFF7D2FF044601207E
:104CE000A17F091AB1FA81F14909FBF761FD08B109
:104CF00002B010BD202383F31188A37F0133A37773
:104D000080F31188A17F0220091AB1FA81F14909C3
:104D1000FBF74EFD0028EBD12046FFF799FDA17F60
:104D2000A1F10101B1FA81F103204909FBF740FD2E
:104D30000028DDD12046FFF713FE01460420FBF7D3
:104D400037FD0028D4D12046FFF70AFE0146052092
:104D5000FBF72EFD0028CBD12046FFF779FDA17F80
:104D6000B1FA81F149090620FBF722FD0028BFD1E5
:104D7000217FB1FA81F149090720FBF719FD0028CD
:104D8000B6D12046FFF7ECFD01460820FBF710FDE9
:104D90000028ADD12046FFF7E3FD01460920FBF7CF
:104DA00007FD0028A4D14FF4FA70FEF7F1FD217F32
:104DB000A1F10F03594259410A20FBF7F9FC0028E1
:104DC00096D12046FFF7CCFD01460B20FBF7F0FC07
:104DD00000288DD12046FFF7C3FD80F00101C9B244
:104DE0000C2002B0BDE81040FBF7E2BC901200209E
:104DF000C07F00086814002041080008000000007F
:104E0000202383F311888368013B002B836004DB3C
:104E10000020002383F31188704710B5084CA26965
:104E2000106210604168516003460A6005205A60B4
:104E3000FDF71EFFA369186A002383F3118810BDD4
:104E400090120020000000000000000000000000A0
:104E500070B5FEF79DFEFCF79BFC154E154C00252A
:104E60002046FFF7CDFF2046FDF7AAFE2046FFF7BC
:104E7000C7FF2046FDF7A4FE2046FFF7C1FF2046EE
:104E8000FDF79EFE2046FFF7BBFF2046FDF798FE8C
:104E900033780135002BE3D00748FBF7F9FCA80075
:104EA000FBF7FEFB0548BDE87040FBF7D1BC00BF37
:104EB000801B0020E0140020507B0008707B00085D
:104EC00038B5074CA3695B7F5A0707D4054D2846C0
:104ED000FFF796FFA3695B7F5B07F8D538BD00BF7E
:104EE00090120020E01400200000000000000000EC
:104EF000F0B587B003AC0025CDE903440595202625
:104F000086F3118829462046FCF79AFBFDF788FCBA
:104F100085F3118886F311880599A942CCBF002139
:104F200001210120FBF744FC18B185F3118807B07B
:104F3000F0BD074680F31188414A424B92694248CE
:104F400092680094013A4FF4A471FDF759FE3F4B6B
:104F500018602046FFF754FF86F311880599002951
:104F6000CCBF002101210220FBF722FC18B187F3FE
:104F7000118807B0F0BD80F3118886F31188059B76
:104F8000002B24DDFDF74CFC002585F3118820273C
:104F900087F311880599A9424FF00300D4BF00217F
:104FA0000121FBF705FC06460028BED180F31188DD
:104FB00087F311880599A1F10101B1FA81F104206B
:104FC0004909FBF7F5FB30B186F31188AFE72046BE
:104FD000FCF7C6FAD6E780F3118887F31188059BA2
:104FE000002B28DDFDF71CFC002484F3118820260B
:104FF00086F311880599A1424FF00300D4BF002128
:105000000121FBF7D5FB054610B184F311888EE72B
:1050100080F3118886F311880599A1F10101B1FA95
:1050200081F105204909FBF7C3FB00287FF47DAF20
:1050300080F311887BE72046FCF792FAD2E700BFA5
:105040009012002041280008F0140020841B00204A
:1050500010B5044C2046FFF7D3FE2046BDE81040B3
:10506000FDF7AEBDCC0800200000000000000000ED
:1050700010B504460348FFF7C3FE2078BDE8104092
:10508000FBF7AEBBCC0800200000000000000000D1
:1050900038B50446202383F31188037F0F2B07D0F4
:1050A000084B426A9B6909201A606362FDF7E0FDC4
:1050B000256A002383F311882046FFF7C9FB2846A1
:1050C00038BD00BF9012002000000000000000006A
:1050D000002902DD0E49FCF78BBD10B50D4A0E4BC1
:1050E000926982B00446926800904FF4E471002007
:1050F000FFF7C6FD20B102B0BDE81040FFF7C8BF02
:105100000649204602B0BDE81040FCF771BD00BF63
:10511000007F000890120020316A0008107F00080C
:105120002DE9F043154BDFF864909B69DFF8608050
:105130009D68134F83B0FEF72BFDFCF729FB00247D
:10514000013D264643462A464FF4A4710096384650
:10515000FDF756FDFFF79CFF99F800300134002B56
:10516000F0D00848FBF794FB2046FBF799FA064875
:1051700003B0BDE8F043FBF76BBB00BF901200200B
:10518000F0140020507B0008507C0008801B002099
:10519000217800080000000000000000000000006E
:1051A00070B5074C002604F1140554F8040B18B12F
:1051B000FFF76EFF44F8046CAC42F6D170BD00BF3F
:1051C000841B002000000000000000000000000020
:1051D0002DE9F04184B004ACDFF8CC802D4F2E4E89
:1051E0002E4D002344F8043DFEF7D2FCD8F81830C9
:1051F0009A6800943B46013A30464FF4A471FDF79B
:10520000FFFCD8F8183028609A6800943B46013AB1
:1052100006F5A4704FF4A471FDF7F2FCD8F818302D
:1052200068609A6800943B46013A06F524704FF492
:10523000A471FDF7E5FCD8F81830A8609A680094CE
:105240003B46013A06F576704FF4A471FDF7D8FCA1
:10525000D8F81830E8609A680094013A3B464FF459
:10526000A47106F5A460FDF7CBFC286142F2107032
:10527000FEF78EFBFBF73CFAFFF792FF0848FBF7BF
:1052800007FB0398FBF70CFA0648FBF7E1FA04B0BA
:10529000BDE8F081B1270008F0140020841B002035
:1052A000507B0008807C0008901200200000000065
:1052B0002DE9F0413A4E3B4BB2693B4892683B4D79
:1052C000DFF80C813A4F82B0002405324FF4A4710C
:1052D0000094FDF795FCB36928609A683548314B16
:1052E000009404324FF4A471FDF78AFCB36968603E
:1052F0009A6831482B4B009403324FF4A471FDF7A8
:105300007FFCB369A8609A682C48264B009402324F
:105310004FF4A471FDF774FCB369E8609A682848FB
:10532000204B009401324FF4A471FDF769FC286111
:10533000FEF72EFCFCF72CFA2546202686F3118872
:1053400000213846FCF77CF9FDF76AFA85F31188ED
:1053500098F800300134002BF0D0FBF7C9F986F340
:10536000118800211248FCF76BF9FDF759FA85F313
:105370001188FFF715FF1348FBF78AFA2046FBF761
:105380008FF904EB44041048FBF782FA6000FBF746
:1053900087F90E4802B0BDE8F041FBF759BA00BFEB
:1053A00090120020C14E0008F0140020841B002041
:1053B000E01400203816002080170020C8180020B4
:1053C000101A0020507B0008607C0008807C0008D8
:1053D000801B002000000000000000000000000012
:1053E0002DE9F041234A244B926924489268DFF862
:1053F0009C8082B0002501324FF4A4710095FDF726
:10540000FFFB1F4B04461860FEF7C2FBFCF7C0F918
:105410002E46202787F3118800212046FDF730FB18
:1054200020460021FDF72CFB20460021FDF728FB3C
:1054300020460021FDF724FB86F3118898F8003000
:105440000435002BE6D087F311884FF0FF3120465A
:10545000FDF716FB86F31188FFF7A2FE0948FBF75C
:1054600017FA6800FBF71CF9074802B0BDE8F041E5
:10547000FBF7EEB990120020112E0008F014002066
:10548000841B0020507B0008807C0008801B0020CB
:105490002DE9F0412C4F2D4DBA692D4B92682D4CC2
:1054A000DFF8C08082B000260132284600964FF413
:1054B000A471FDF7A5FBBB6920609A68009643467E
:1054C000023A05F5A4704FF4A471FDF799FBBB698E
:1054D00060609A6800964346033A05F524704FF4DD
:1054E000A471FDF78DFBBB69A0609A6800964346E6
:1054F000043A05F576704FF4A471FDF781FBBB69A2
:10550000E0609A680096053A43464FF4A47105F5A9
:10551000A460FDF775FB20612068FEF7E1FE0446FC
:10552000FFF73EFE0C48FBF7B3F92046FBF7B8F84F
:105530000A48FBF7ADF96000FBF7B2F8084802B083
:10554000BDE8F041FBF784B990120020F014002070
:10555000E1410008841B0020507B0008407C0008CB
:10556000807C000821780008000000000000000096
:1055700010B5134A134B92691348926882B0002108
:10558000013200914FF4A471FDF73AFB0F4B186004
:10559000FEF7A6FE0446FFF703FE0D48FBF778F979
:1055A0002046FBF77DF80B48FBF772F96000FBF72C
:1055B00077F8094802B0BDE81040FBF749B900BFD1
:1055C00090120020E1410008F0140020841B00200C
:1055D000507B0008407C0008807C00080000000030
:1055E00010B5134A134B92691348926882B0002198
:1055F000013A00914FF4A471FDF702FB0F4B1860C4
:10560000FEF76EFE0446FFF7CBFD0D48FBF740F9B1
:105610002046FBF745F80B48FBF73AF96000FBF72B
:105620003FF8094802B0BDE81040FBF711B900BFD0
:1056300090120020E1410008F0140020841B00209B
:10564000507B0008407C0008807C000800000000BF
:105650002DE9F041202382B083F31188824DD5E9F2
:1056600005329A423ED000210120FBF7A1F898BBF9
:1056700080F311887C4E4124214601344FF0FF32E3
:105680003046E4B2FEF7B4F8452CF5D1202686F377
:105690001188A968B1FA81F149090220FBF788F85D
:1056A0000746C8B980F311880424804686F3118820
:1056B000FBF7DEFD88F31188C0B2FBF791F8013CDF
:1056C000F4D186F31188D5E905239A4228D03946CA
:1056D0000320FBF76DF850B1002383F3118802B06B
:1056E000BDE8F081A968003118BF0121BCE780F353
:1056F00011885E490420FBF733F804460028EED1F8
:10570000202686F31188FBF7B3FD033014BF002178
:1057100001210520FBF74CF838B184F31188DEE74E
:10572000AF68003718BF0127D1E780F3118808223E
:1057300003464F494C48FEF703F8A0F10401B1FAC3
:1057400081F149090620FBF733F804460028C6D149
:1057500086F31188A968B1FA81F149090720FBF79E
:1057600027F807460028D8D180F31188414A424BD8
:10577000926942489268009701324FF4A471FDF794
:105780003FFA3F4B186086F31188D5E90323A968D7
:105790009B1A591AA1F10401B1FA81F149090820B3
:1057A000FBF706F8044610B187F3118897E780F3FA
:1057B0001188FFF7F5FC86F31188D5E903232A4801
:1057C000AA619B1A6FF001016A61AB60FBF750FFA1
:1057D00084F3118886F31188D5E90323A9689B1AFD
:1057E0005F1A794279410920FAF7E2FF034600285F
:1057F00093D180F3118802221D491B48FDF7A0FFB9
:105800000238414241410A20FAF7D2FF03460028FC
:105810007FF465AF022216491348FDF791FF821EFF
:10582000514251410B20FAF7C3FF00287FF457AFD4
:1058300086F31188A968B1FA81F149090C20FAF7B9
:10584000B7FF00287FF448AF002181F311880A22B6
:105850000548FDF7CDFF431C594259410D2002B0C8
:10586000BDE8F041FAF7A4BFA80800202082000894
:10587000381600209012002041380008F014002053
:10588000841B002000000000000000000000000059
:1058900070B5202682B086F31188994CA168B1FAC0
:1058A00081F149090120FAF783FF10BB054680F317
:1058B000118886F3118841212046FBF7B1FC204670
:1058C0004221FBF7ADFC20464321FBF7A9FC204613
:1058D0004421FBF7A5FC85F3118886F31188D4E9F0
:1058E00005329A4238D029460220FAF761FF054670
:1058F00020B1002383F3118802B070BD80F31188BA
:10590000202383F311887E482946FBF789FC043065
:1059100014BF002101210320FAF74AFFC0B980F328
:105920001188774E04254FF0FF313046FDF7F0FF28
:10593000C0B2FAF755FF013DF5D1202686F3118854
:10594000A168B1FA81F149090420FAF731FF78B171
:1059500085F3118802B070BDA568003518BF012518
:1059600029460220FAF724FF05460028C1D1C5E7E1
:1059700085F3118863490520FAF7F2FE0028BBD1B0
:1059800086F3118841215E48FBF74AFC42215C48BE
:10599000FBF746FC43215A48FBF742FC4421584898
:1059A000FBF73EFC85F311885749554808222B46E2
:1059B000FDF75EFFA0F10401B1FA81F1490906206B
:1059C000FAF7F6FE002897D186F31188A168B1FA9C
:1059D00081F149090720FAF7EBFE0028B8D185F3D9
:1059E000118886F3118841214548FBF719FC4221B3
:1059F0004348FBF715FC43214148FBF711FC4421C8
:105A00003F48FBF70DFC85F311883F493C480222D3
:105A10002B46FDF72DFFA0F10201B1FA81F14909F2
:105A20000820FAF7C5FE00287FF466AF36493448EF
:105A30002B460222FDF71CFFA0F10201B1FA81F111
:105A400049090920FAF7B4FE00287FF455AF86F320
:105A50001188A168B1FA81F149090A20FAF7A8FE74
:105A600000287FF475AF85F3118886F311882448E8
:105A70002946FBF7D5FBE3682148A5606FF00101DB
:105A8000C4E90533FBF7F4FD85F3118886F311882B
:105A9000A168B1FA81F149090B20FAF789FE0028C3
:105AA0007FF456AF85F31188184A194B926919484B
:105AB0009268009501324FF4A471FDF7A1F8164BDE
:105AC000186086F31188A168B1FA81F149090C20A8
:105AD000FAF76EFE002310B183F311880CE783F30D
