:020000040800F2
:10000000000400204101000801130008011300084A
:100010000113000801130008011300080113000870
:10002000011300080113000801130008210900084A
:100030000113000801130008011300080113000850
:100040000113000801130008011300080113000840
:100050000113000801130008011300080113000830
:100060000113000801130008011300080113000820
:100070000113000801130008011300080113000810
:100080000113000801130008011300080113000800
:1000900001130008011300080113000801130008F0
:1000A00001130008011300080113000801130008E0
:1000B000810800080113000801130008011300085B
:1000C00001130008011300080113000801130008C0
:1000D0000113000801130008A10D00080113000816
:1000E00001130008011300080113000801130008A0
:1000F0000113000801130008011300080113000890
:10010000011300080113000801130008011300087F
:10011000011300080113000801130008011300086F
:10012000011300080113000801130008011300085F
:10013000011300080113000801130008011300084F
:1001400072B6214880F30988022080F31488BFF337
:100150006F8F05F025FC4FF055301C491C4A914229
:100160003CBF41F8040BFAE71A49174A91423CBFD9
:1001700041F8040BFAE71849184A194B9A423EBF56
:1001800051F8040B42F8040BF8E700201549164A11
:1001900091423CBF41F8040BFAE705F081FC134C97
:1001A000134DAC4203DA54F8041B8847F9E705F015
:1001B000B7F8104C104DAC4203DA54F8041B8847D2
:1001C000F9E705F065BC00000008002000000020F1
:1001D0000004002000040020D86700080008002068
:1001E000B8080020B808002078130020400100085B
:1001F0004001000840010008400100080000000024
:100200002DE9F04FC1F80CD0D0F80CD0BDE8F08F3C
:10021000002383F311882846A047002005F000FC46
:1002200005F02EFC00DFFEE70000000000000000EB
:10023000014B5B6883607047001000E00000000025
:10024000202383F311880023034A9269506B536380
:1002500083F31188704700BF3009002000000000C0
:100260000122014B1A707047C811002000000000E5
:10027000FEE700BF000000000000000000000000DA
:100280000346202282F311880849094A0868126847
:10029000073323F00703121A93429ABF1B180B600F
:1002A0000020002383F31188704700BF240B002037
:1002B000A80A00200000000000000000000000006C
:1002C000024A938943F080039381704700440040C1
:1002D0000022024B9A60C3E900337047140B0020E0
:1002E0000122024B9A60C3E900337047280B0020BB
:1002F000704700BF00000000000000000000000088
:10030000704700BF00000000000000000000000077
:100310000022024B9A60C3E900337047280B00208B
:10032000202383F3118862B672B683F3118862B614
:10033000002383F3118862B6704700BF00000000FD
:1003400030B404240021074A074B084815191D61E1
:100350009C60C3E9003330BCDA60C3E90522C3E91D
:1003600007017047380B002088080020F1020008C0
:100370000021084A084B094810B4141D1C61C3E948
:100380000033DA60C3E90522D8619960196210BCB4
:10039000704700BF380B002010080020F102000851
:1003A00000224FF4A471024B1A60C3E90112704796
:1003B000080B00200000000000000000000000000A
:1003C00010B400224FF4CC64064B074903F110002F
:1003D000C1E90024C3E904001A60DA609A619960F7
:1003E00010BC7047B00A0020380B0020000000004D
:1003F000FFF7E6BF00000000000000000000000062
:100400000020704700000000000000000000000015
:1004100000224FF4A471024B1A60C3E90112704725
:100420007C08002000000000000000000000000028
:1004300010B400224FF4CC64064B074903F11000BE
:10044000C1E90024C3E904001A60DA609A61996086
:1004500010BC7047A8110020380B002000000000DD
:10046000FFF7EEBE000000000000000000000000EA
:10047000FFF7F6BF000000000000000000000000D1
:10048000FFF7EEBF000000000000000000000000C9
:1004900030B4002005240A4B0A4A03F11C0102F182
:1004A00014051A60C3E9022203F110025D605C6268
:1004B000C3E9060130BC1962C3E90422704700BFDA
:1004C00054080020380B002000000000000000004D
:1004D0000020064A064B07499060C2E90022986056
:1004E000C3E90033C1E90011704700BF34080020A0
:1004F0004408002000080020000000000000000068
:100500000021044B044A9960C3E90033C2E9002288
:10051000704700BF340800200008002000000000E1
:10052000FFF7EEBF00000000000000000000000028
:100530000021044A044B9160C2E900229960C3E99A
:1005400000337047340800204408002000000000F9
:100550000022024B9A60C3E9003370473408002040
:10056000FFF7F6BF000000000000000000000000E0
:100570000022024B9A60C3E900337047AC080020A8
:10058000FFF7F6BF000000000000000000000000C0
:10059000FFF7EEBF000000000000000000000000B8
:1005A00020B370B584B06D46114E2C4600E0144661
:1005B0002246A6FB0013DB0803EB8301A0EB4100FE
:1005C00000F13001C9B202F8011B1846002BEED130
:1005D000AA4209D9074E01E014F8011D30680368EA
:1005E0009B689847A542F7D104B070BD704700BF23
:1005F000CDCCCCCC800A0020000000000000000020
:1006000028B9044B3021186803689B681847FFF726
:10061000C7BF00BF800A00200000000000000000EB
:1006200070B54C24074D28682D2103689B689847B6
:10063000013CF8D128680222BDE8704003680249F5
:100640001B681847800A00201060000800000000A6
:1006500030B420250024094B03F1140053F8042B77
:100660003AB185F31188517F41F00401517784F349
:1006700011888342F2D130BC704700BFCC110020FA
:1006800010B4202383F311884FF080440023646A60
:1006900083F31188A4B2641A521A944206DB012330
:1006A000044C0549054A23700B701060184610BCB5
:1006B000704700BFA0110020040B0020AC0A0020EE
:1006C000F0B40E4E0E4F013935683B4603E013F887
:1006D000014B944208D19D4211F8012FF7D81AB965
:1006E00037601046F0BC70470122064C0649074BA4
:1006F000227018600A701046F0BC7047F01100209C
:10070000E0110020A0110020040B0020AC0A002002
:1007100051B9012310B40649064C074A23701060F2
:100720000B70184610BC704700231846704700BF76
:10073000040B0020A0110020AC0A002000000000E3
:1007400010B4202383F31188044B00211A68541C31
:1007500010701C6081F3118810BC7047F0110020EC
:100760004320FFF7EDBF00BF0000000000000000C5
:100770004220FFF7E5BF00BF0000000000000000BE
:100780004120FFF7DDBF00BF0000000000000000B7
:100790000078FFF7D5BF00BF000000000000000098
:1007A000FFF7F6BF0000000000000000000000009E
:1007B00070B5017889B10446094D286803689B68C3
:1007C000984714F8011F0029F7D128680222BDE8D4
:1007D0007040036803491B681847014DF5E700BFE7
:1007E000800A0020106000080000000000000000E7
:1007F000017859B138B50446054D286803689B68EF
:10080000984714F8011F0029F7D138BD704700BF81
:10081000800A00200000000000000000000000002E
:10082000202383F31188114B5B6813F4006302D11A
:1008300083F31188704780B400AFEFF309834FF062
:100840008071A3F1200243F8041C82F30988084A4E
:10085000116892698968926891428CBF054A064A7C
:1008600043F8082CBD4680BC704700BF00ED00E097
:1008700030090020210200082402000800000000C6
:100880002DE9F0414FF0804423699B0703D4BDE874
:10089000F041FFF7C5BF00272025276185F31188A8
:1008A0001E4E606AB6F826C0F36980B2A0EB0C0158
:1008B0001A8989B2914206F11C081BD31968624457
:1008C0004145F284DA68C1F80480F161DF6008BF55
:1008D000E76087F311881869904785F31188606A8B
:1008E000B6F826C0F36980B2A0EB0C011A8989B270
:1008F0008A42E3D943450AD06244121A92B2022ACC
:100900002CBF8218821C4FF0804392B25A6300239E
:1009100083F31188BDE8F041FFF782BF3009002062
:1009200080B400AFEFF30983203383F309880023F9
:1009300083F31188BD4680BC704700BF00000000F3
:1009400008B52022034682F31188006828B10268A6
:100950001A60002383F3118808BD9A68002AF8D032
:1009600058689047002383F3118808BD00000000F9
:1009700070B50522202500202F4B304C85F31188BF
:1009800021682360196080F311886168013A0B4483
:10099000F4D10525294E3046FFF7D2FF011C18BFC0
:1009A00001210120FFF7B4FEA0BB013DF3D1234894
:1009B000FFF7C6FFB0FA80F102204909FFF7A8FE51
:1009C00040BB20261E4A1C4B02F1100086F3118802
:1009D00021681960236085F31188904202D052F893
:1009E000043BF3E70525154E3046FFF7A9FF011C30
:1009F00018BF01210320FFF78BFE58B9013DF3D149
:100A00000E48FFF79DFFB0FA80F104204909FFF777
:100A10007FFE00B170BD10220A4B0848C4E90052A5
:100A2000A360FFF78DFFBDE87040B0FA80F10520AC
:100A3000C140FFF76DBE00BF380B00207C080020CE
:100A4000C467000801040008000000000000000066
:100A5000202383F31188024602E08B4207D01A4616
:100A600013688342F9D1002383F3118870470B6820
:100A70001360002383F31188704700BF000000005B
:100A80002DE9F041334C8AB04FF0200C24608CF3F8
:100A90001188012700234FF0FF302F4A26680AAD46
:100AA000916945F8146D06912560CDE907730990A9
:100AB00083F311888CF311884FF002089169226842
:100AC0000AAE46F8282D0191CDE903302660CDF815
:100AD000088083F3118821683846091B18BF01215B
:100AE000FFF716FE10B10AB0BDE8F0812946204696
:100AF000FFF7AEFF21684046091B18BF0121FFF731
:100B000007FE0028EFD131462046FFF7A1FF2168FC
:100B10000320091BB1FA81F14909FFF7F9FD00280B
:100B2000E1D1044607250D4E25FA04F3DB0707FA49
:100B300004F20DD556F82430204625EA020501348A
:100B40009847002DF0D106490420FFF7B9FDCAE708
:100B50000134E9E70808002030090020805C000823
:100B6000905C000800000000000000000000000091
:100B7000104B114A5B688168126F5B1A9B1A4168BF
:100B8000C2682DE93008D0E9044514EB030B45F1A8
:100B9000000C01328B42C0E90232C0E904BC06D825
:100BA0000268934238BF0360BDE830087047436075
:100BB000FAE700BF001000E030090020000000004C
:100BC000202383F31188037F072B0ED8DFE803F07F
:100BD000270D0D2308040D08026A93680133936002
:100BE000D0E900231A600268536010B400224FF06D
:100BF000FF3481680C4B046202771B689A688A4252
:100C0000FBD25A680021C0E900321060586081F3BD
:100C1000118810BC70470022036A1A60E5E70023C0
:100C200083F31188704700BF3009002000000000E6
:100C300001460022064B80680A771B689A68824248
:100C4000FBD25A680846C1E900321160596070470A
:100C5000300900200000000000000000000000003B
:100C6000074B1A689A4209D010B400241168104644
:100C70004B601960146210BCFFF7DABF704700BF09
:100C8000000800200000000000000000000000003C
:100C900010B5D0E90524A24283681DD00133541C4D
:100CA000836044611170D0E904329A420DD2026827
:100CB00090420FD0034600241168104619604B6023
:100CC0001462FFF7B5FF204610BD0268C36890426A
:100CD0004361EFD1002010BD002BDFD06FF0030087
:100CE00010BD00BF00000000000000000000000078
:100CF000D0E90512914238B5836818D00569511CB6
:100D0000013383608161A94214780DD20268904258
:100D100008D0034600251168104619604B60156223
:100D2000FFF786FF204638BDC3688361EEE7002BDE
:100D3000E4D06FF0020038BD0000000000000000A9
:100D40000346426B007F11430A2859630AD00B28DF
:100D500000D070471A6A8A43FBD1002218461A62F3
:100D6000FFF766BF1A6A1142F7D170470000000012
:100D700070B50468A0420FD006460D46E3682B43C9
:100D8000E36015B12269134203D0D4E90101FFF7F2
:100D9000D7FF2468A642F1D170BD00BF000000005B
:100DA0002DE9F047524FD7F874A0BAF80C60BAF8A2
:100DB0000040B6B2A4B2E50567D4202383F31188BE
:100DC00014F02F0F3CD0DFF8308108F108090AE059
:100DD000BAF80410A0068DB220D4BAF80040A4B22C
:100DE00014F02F0F2CD02007F2D014F0080F0CBFF6
:100DF00000218021E20748BF41F02001A30748BF3E
:100E000041F04001650748BF41F480714046FFF75B
:100E1000AFFFBAF80410A0068DB2DED57B697BB3B4
:100E2000E9B24846FFF734FF0028D6DA8021404671
:100E3000FFF79EFFBAF80040A4B214F02F0FD2D1F2
:100E4000002383F31188310601D522062DD46306D1
:100E500012D5202383F31188D7E911239A4233D086
:100E60004FF6BF7226F04006B6B2AAF80C60002317
:100E7000AAF8002083F31188BDE8F047FFF7D0BC43
:100E800004214046FFF774FFCAE7202383F311884B
:100E90004FF40071381DFFF76BFF4FF6FF62002320
:100EA000AAF8002083F3118887E7202383F31188B1
:100EB0001048FFF71DFF00280EDB80B2AAF80400DF
:100EC000002383F31188C2E7BB6B002BC8D010212D
:100ED0000948FFF74DFFC3E708210748FFF748FF20
:100EE00026F0C00343F04003AAF80C30E8E700BF47
:100EF000B8080020E8080020BC080020000000001E
:100F0000124A30B40468C36895698442AB6318D050
:100F10000146E86B4BB11A68934203D09268904245
:100F200038BF1046DB68002BF5D1A26B2368A860A0
:100F30000B6020465960C1E90242A16330BCFFF753
:100F400077BE0023A36030BC704700BF300900208B
:100F500083680133002B836000DD704710B40246C4
:100F6000002403681968184611604A601C6210BCAE
:100F7000FFF75EBE0000000000000000000000005F
:100F800038B50C4B5A6A002A10DDD3E90154211DF3
:100F9000013AA9425A6228BF1A689960206006483F
:100FA00028BF9A60FFF7D4FF002038BD4FF0FF3014
:100FB00038BD00BF54080020640800200000000075
:100FC0000C4A516A002911DDD36810B51468043B3E
:100FD0000139A3425162D36002D25368043BD3600B
:100FE00018600548FFF7B4FF002010BD4FF0FF3038
:100FF000704700BF54080020640800200000000073
:101000000C4B9969002912DDDA68013910B5996134
:101010005968146804328A42DA6028BF1A6804608A
:10102000054828BFDA60FFF793FF002010BD4FF09E
:10103000FF307047540800207008002000000000B6
:1010400070B5856881600135002D0CDC04466FF0B9
:10105000010660680135436863601C60FFF7E8FDC6
:10106000012D0662F5D170BD0000000000000000F7
:101070001C4B70B4DA6982420FD0D0E90021002401
:101080000A6002681C339A425160C46003D001892F
:1010900013890B44138170BC7047184600241168F3
:1010A00040F81C1F81424860D46017D04FF0804444
:1010B000606A1689DD8C0B8982B23344501B9BB267
:1010C00080B283420B81E6D91B1A9BB2022B2CBF44
:1010D000D318931C9BB2636370BC70474FF080437E
:1010E000DC60D8E7300900200000000000000000AC
:1010F000F0B51E4E4FF08047B646022938BF022198
:101100007D6A5EF81C4F1FFA85FC01EB0C057445E7
:101110000361C260ADB21BD0F38C2289EB1A9BB283
:101120009A4204D912E024689B1A22899BB29A42FF
:10113000F9D34FF6FF716268C0E900421060606049
:1011400003812289D31A2381B184F0BD7D63EEE748
:1011500000220223A6F826C0C6E90700C0E9004421
:1011600001817D633A61FB60F0BD00BF3009002062
:1011700000210B4A08B52023117083F31188094818
:10118000C3680BB1FFF774FF0023074A4FF4FA61FD
:101190000448FFF7ADFF002383F3118808BD00BFAB
:1011A000C8110020F41100206102000800000000B6
:1011B000EFF30583202383F31188704700000000BC
:1011C000C20710B410D5264BD3E9001499423BD086
:1011D0000022096801329942FBD18C4231D0646807
:1011E000013A9C42FBD162BB830712D51C4BDA69E2
:1011F00003F11C04A242196A2AD0002312680133A9
:10120000A242FBD191421CD04968013BA142FBD1D3
:10121000BBB910F0040012D0114B0020D3E9042117
:101220009A4219D0126901309A42FBD1914208D0FA
:10123000496901389942FBD1003018BF012010BC28
:101240007047012010BC70479C42CDD00022C6E7F9
:10125000A142DED00023D7E79142E9D1EFE700BFFA
:101260003009002000000000000000000000000025
:1012700038B5202484F311880120FFF7A1FF002353
:1012800083F3118880F00101C9B20120FFF740FA11
:1012900000B138BD054684F311880220FFF790FFA6
:1012A00085F3118880F00101C9B20220FFF730FAFE
:1012B00005460028EDD184F311880420FFF780FF54
:1012C00085F3118880F00101C9B20320FFF720FAED
:1012D00005460028DDD184F311880820FFF770FF50
:1012E00085F31188BDE8384080F00101C9B20420BF
:1012F000FFF70EBA00000000000000000000000030
:1013000072B6024B024A9A62FEE700BF3009002023
:10131000C05A0008000000000000000000000000AB
:1013200010B52F482F4CFFF763FA4FF4A870FFF762
:1013300037F92046FFF73CFA2B48FFF759FA4420CB
:10134000FFF72EF92046FFF733FA2848FFF750FA47
:101350001420FFF725F92046FFF72AFA2448FFF763
:1013600047FA0C20FFF71CF92046FFF721FA214825
:10137000FFF73EFA0420FFF713F92046FFF718FAAB
:101380001D48FFF735FA1420FFF70AF92046FFF74A
:101390000FFA1A48FFF72CFA1020FFF701F9204640
:1013A000FFF706FA1648FFF723FA0820FFF7F8F8C8
:1013B0002046FFF7FDF91348FFF71AFA2420FFF73C
:1013C000EFF82046FFF7F4F90F48FFF711FA28204D
:1013D000FFF7E6F82046BDE81040FFF7E9B900BF87
:1013E000205B0008305B0008385B0008485B0008A1
:1013F000585B0008685B0008785B0008885B0008A1
:10140000985B0008A85B0008B85B000800000000BB
:1014100070B5202383F31188114A1068946983689A
:10142000A1688B4203D2002383F3118870BD01268B
:10143000002503685A60136006779061257700E005
:101440001B689A689142FBD95A682146C4E9003268
:1014500014605C60FEF7D4FE002383F3118870BD36
:101460003009002000000000000000000000000023
:1014700038B50446084DFFF7CBFFFFF7C9FFFFF76C
:10148000C7FFFFF7C5FF2368AA6904332360537FB2
:101490005B07F0D538BD00BF300900200000000018
:1014A00070B4012600250C4A106894690368A1688D
:1014B00013605A6006779061257700E01B689A6890
:1014C0009142FBD35A682146C4E9003214605C6043
:1014D00070BCFEF795BE00BF300900200000000080
:1014E000044B1A689B6992689B689A4200D87047BF
:1014F000FFF7D6BF30090020000000000000000008
:1015000008B5202282F311888368002B05DDFFF7E0
:10151000E7FF002383F3118808BDFFF719FDFFF7EC
:10152000DFFF002383F3118808BD00BF0000000027
:10153000134A70B52023946983F31188A36BB3B168
:1015400000261A68D9689342A16314D0956B11687C
:10155000104619604B60C3E902259363FFF768FBEF
:10156000A36B002BEDD1E36BA360FFF7B9FF002362
:1015700083F3118870BD9E600B46002BE1D1F2E72A
:101580003009002000000000000000000000000002
:1015900010B5202383F31188084B9B69DC6B996895
:1015A000A14201D0814200D29860D863FFF798FF32
:1015B000002383F31188204610BD00BF30090020AE
:1015C000F8B5494EB3699C68651C2846FFF7E0FFF3
:1015D0000746391BB1FA81F101204909FFF798F854
:1015E00000B1F8BDB36902209968491BB1FA81F1D5
:1015F0004909FFF78DF80028F3D13846FFF7C8FFF7
:10160000291AB1FA81F103204909FFF781F800286E
:10161000E7D1B36904209968091BB1FA81F149093E
:10162000FFF776F80028DCD1202383F31188B26914
:1016300093680233936080F31188B369A71C99689B
:101640000520C91BB1FA81F14909FFF761F80028AB
:10165000C7D12846FFF79CFF011BB1FA81F1062094
:101660004909FFF755F80028BBD1B36907209968ED
:10167000C91BB1FA81F14909FFF74AF80028B0D136
:10168000B3690820D96B4F1B79427941FFF740F8C5
:101690000028A6D1E71C3846FFF77AFF281A4142F6
:1016A00041410920FFF734F800289AD1B3690A2094
:1016B0009968CA1B51425141FFF72AF8002890D17E
:1016C000B3690B20D96BCB1B59425941FFF720F866
:1016D000002886D1202383F31188B3699C60DC63E2
:1016E00080F31188F8BD00BF300900200000000021
:1016F00010B5EFF30584C4F308041CB1002383F391
:10170000118810BDFFF7ECFE84F3118810BD00BFF7
:1017100008B5202383F31188002282F3118883F314
:101720001188EFF312831BB9FFF742FDFFF7E0FFCB
:10173000002383F3118808BD0000000000000000B2
:10174000144B70B49E69856804460162B068854296
:101750000CD8002222771B689A689542FBD95A68F8
:10176000C4E9003214605C6070BC704700211A4606
:101770003177126891688842FBD901205168C6E927
:1017800000210E6056602077314620469C6170BC77
:10179000FEF736BD30090020000000000000000008
:1017A0002DE9F8431E4E804630468946FFF7C8F8BB
:1017B0000446002831D0202383F311884FF0020C17
:1017C00000254FF0010E7368164A243BC718C76006
:1017D000C250154A154BC7F804903B620261576925
:1017E00000F1240100F12803C0F808804761C0F827
:1017F0003C8080F81EE080F81CC0C0E90D55856172
:101800003861416280F81DC00664C0E90A33294688
:101810005061FFF795FF85F311882046BDE8F883F6
:10182000080B0020A1070008300900201102000861
:1018300008B5202383F31188064B1868984205D019
:101840000268002153601A60FFF77AFF002383F3D8
:10185000118808BD00080020000000000000000002
:10186000164B70B59D69202383F311880468C36803
:101870008442AB631CD0E96B4BB11A68934203D02E
:101880009268914238BF1146DB68002BF5D10346C0
:10189000A66B22682046A9601A6000215360C3E944
:1018A0000246A363FFF74CFF002383F3118870BD4A
:1018B0000023A360002383F3118870BD300900204A
:1018C00008B5202383F3118883680133002B8360DC
:1018D00003DD002383F3118808BD0346006800215F
:1018E00002681A605360FFF72BFF002383F311880F
:1018F00008BD00BF00000000000000000000000064
:10190000F8B5069F0446202585F3118800254FF081
:10191000020E4FF0010C24394618C6604350104B9C
:1019200010497760316203615969C263826000F1D6
:10193000240600F128024161A0F81CE080F81EC0D6
:10194000C0E90D55856108612946C0E90962C26296
:101950005861FFF7F5FE85F311882046F8BD00BFFA
:101960003009002011020008000000000000000003
:1019700030B40125064B99691A6808771468104637
:10198000636015771C6030BC9A61FEF739BC00BFFC
:1019900030090020000000000000000000000000EE
:1019A00038B5202383F31188154CA3680133002B2D
:1019B000A3601ADD013B002BA36006DBFFF790FD5F
:1019C0000020002383F3118838BD0E4A63689569AF
:1019D0000520C5E900431D602C626560FFF7C8FF64
:1019E000286A002383F3118838BD206803685C608F
:1019F0002360FFF71DF90022A3680262DAE700BF47
:101A0000AC080020300900200000000000000000A9
:101A100010B500241D4A82B092694FF4A4719268F7
:101A20001B4B013200941B48FFF76AFF1A4C1B4BFB
:101A30001860FFF7B5FF21680120091BB1FA81F199
:101A40004909FEF765FE08B102B010BDA168022089
:101A5000B1FA81F14909FEF75BFE0028F4D1FFF7E6
:101A60009FFF21680320091BB1FA81F14909FEF7A4
:101A70004FFE0028E8D1A1680420B1FA81F149099C
:101A800002B0BDE81040FEF743BE00BF30090020A1
:101A900021390008380B0020AC080020CC110020B0
:101AA0000B4A10B52023946983F31188636B33B913
:101AB0004FF0FF330A202362FFF75AFF636B58424F
:101AC000184023EA00036363002383F3118810BDE9
:101AD00030090020000000000000000000000000AD
:101AE000094A10B52023946983F31188606B30B9DB
:101AF0004FF0FF330A202362FFF73AFF606B0023A9
:101B0000636383F3118810BD3009002000000000DA
:101B1000074A10B52023946983F311880320FFF747
:101B200027FF236A002BF9D0002383F3118810BD0F
:101B3000300900200000000000000000000000004C
:101B40004FF6FF7330B5994287B012D005460C4C62
:101B500001A8A3690B4AFFF7CBFA2846FFF708FF55
:101B6000049B13B101A8FFF783FAA369186A07B0B1
:101B700030BDFFF7FDFE024CA369186A07B030BD07
:101B800030090020C10B0008000000000000000028
:101B9000202383F31188104B99684A1E002A9A600B
:101BA00004DB0020002383F31188704780B10B4AC7
:101BB00010B592695C681362C2E900340146226084
:101BC00005205A60FFF7BCFF002383F3118810BD86
:101BD00099604FF0FF30E5E7AC08002030090020A5
:101BE00070B5554C2023A26983F31188536B3BB920
:101BF00083F3118801210120FEF78AFD80B170BDB9
:101C00005942194023EA01035363002383F31188E7
:101C1000B1FA81F101204909FEF77AFD0028EED1E1
:101C2000A369202282F311885A6B002A6FD058636F
:101C300080F3118801460220FEF76AFD0028DED1FC
:101C4000A369202282F311885A6B013263D080F39A
:101C50001188012001460320FEF75AFD0028CED14D
:101C6000A669202383F31188756B4DB94FF0FF33BC
:101C70000A2133620846FFF763FF00284FDB756BCC
:101C80006942294025EA01057563002383F3118821
:101C9000B1FA81F149090420FEF73AFD0028AED1DE
:101CA000A669202383F31188756B4DB94FF0FF337C
:101CB0000A2133620846FFF743FF002833DB756BC8
:101CC0000023736383F31188B5FA85F14909052070
:101CD000FEF71EFD0546002891D1A469202383F359
:101CE0001188636B013308D04FF0FF330A21236260
:101CF0000B20FFF725FF002819DB0023636383F324
:101D000011882946BDE870400620FEF701BD82F328
:101D1000118801218FE7586380F311889AE785F3D2
:101D200011880121B7E785F311880121CFE785F3F9
:101D300011880125E5E700BF300900200000000000
:101D40008368013B002B836001DB00207047024663
:101D5000064B10B49B6905201A621A6054685C60D7
:101D60002360536010BCFFF7EBBE00BF30090020BA
:101D700070B52023064683F311880D4C04F11C0036
:101D8000FFF7DEFF054670B9D4E90112131D8B423F
:101D9000A36028BF23681660064828BFA360FFF72A
:101DA000D7F8FFF79DFB002383F31188284670BD09
:101DB000540800206408002000000000000000001B
:101DC00070B52023064683F31188104C04F11C00E3
:101DD000FFF7B6FF054620B1002383F3118828469C
:101DE00070BDE3682268043B9342E36002D26368FB
:101DF000043BE3601E600648FFF7AAF8FFF770FB9C
:101E0000002383F31188284670BD00BF54080020CA
:101E10006408002000000000000000000000000036
:101E200070B52023064683F311880E4C04F1100090
:101E3000FFF786FF054678B9E2686168131D8B429B
:101E40001268E36028BF23683260074828BFE36058
:101E5000FFF77EF8FFF744FB002383F31188284641
:101E600070BD00BF54080020700800200000000072
:101E7000F0B5202383B083F31188D14D0120696A26
:101E8000A1F10501B1FA81F14909FEF741FC0028F1
:101E900040F0908180F3118842244FF6FF71204674
:101EA000FFF766FFB0FA80F102204909FEF730FC27
:101EB000013478B9462CF0D14FF6FF714120FFF77D
:101EC0007FFFB0FA80F103204909FEF721FC0028CA
:101ED00000F07E8103B0F0BD80F3118884F3118897
:101EE0004120FFF74DF8B0FA80F116204909FEF7BE
:101EF0000FFC0028EED14220FFF742F8B0FA80F143
:101F000017204909FEF704FC0028E3D14320FFF71E
:101F100037F8B0FA80F118204909FEF7F9FB0028DC
:101F2000D8D14420FFF72CF8B0FA80F119204909E4
:101F3000FEF7EEFB06460028CCD14520FFF720F83F
:101F400086F31188B0FA80F11A204909FEF7E0FB08
:101F50000028BFD1D5E90231A1EB030CDCF100016F
:101F600041EB0C011B20FEF7D3FB0028B2D1074642
:101F7000052684F3118801A8FFF742F887F311883A
:101F8000B0FA80F11C204909FEF7C2FB0028A1D15C
:101F90009DF80400FEF7D4FB013EEAD189491D20DB
:101FA000FEF78EFB002895D184F31188696A1E2004
:101FB0004F1F79427941FEF7ABFB002840F02382A6
:101FC00086F3118884F31188A9691F20B1FA81F181
:101FD0004909FEF79DFB002840F0158286F3118821
:101FE000D5E90231CA1A514251412020FEF790FB37
:101FF00000287FF46FAF84F311884520FEF7E0FFDF
:10200000B0FA80F121204909FEF782FB00287FF415
:1020100061AF4420FEF7D4FFB0FA80F122204909D5
:10202000FEF776FB00287FF455AF4320FEF7C8FF8C
:10203000B0FA80F123204909FEF76AFB00287FF4FB
:1020400049AF4220FEF7BCFFB0FA80F124204909D5
:10205000FEF75EFB00287FF43DAF4120FEF7B0FFA6
:10206000002383F31188B0FA80F125204909FEF797
:102070004FFB00287FF42EAFD5E90231CB1A59422D
:1020800059412620FEF744FB00287FF423AF064683
:102090000524202787F3118801A8FEF7B1FF86F3F6
:1020A0001188B0FA80F127204909FEF731FB00289A
:1020B0007FF410AF9DF80400FEF742FB013CE9D12C
:1020C00040492820FEF7FCFA00287FF403AF87F38D
:1020D0001188696A2920A1F1050EDEF1000141EBAA
:1020E0000E01FEF715FB002840F0C58084F311882F
:1020F00087F31188A9692A20B1FA81F14909FEF70D
:1021000007FB002840F0B78084F31188D5E902313D
:10211000A1EB030CDCF1000141EB0C012B20FEF7DD
:10212000F7FA00287FF4D6AE87F31188D5E900329C
:10213000D21A91102448AB60EB60FEF781FF214674
:102140002248FEF77DFFFFF7CBF984F3118887F370
:102150001188696A2C204E1F71427141FEF7D8FA2E
:10216000002840F0888084F3118887F31188A969DA
:102170002D20B1FA81F14909FEF7CAFA00287AD177
:1021800084F3118887F311882968AB682E20CA1A56
:1021900051425141FEF7BCFA00286CD184F31188FA
:1021A00087F311882968EB682F20CB1A59425941CF
:1021B000FEF7AEFA002383F3118803B0F0BD00BF31
:1021C00054080020A05E0008700800206408002069
:1021D00001215820FFF7CCFDA0F1FF31B1FA81F1C8
:1021E00004204909FEF794FA044600287FF472AEF1
:1021F000202686F311885820FEF7C2FE014684F39C
:102200001188A1F1FF31B1FA81F105204909FEF7EA
:102210007FFA00287FF45EAE01215820FFF7D0FD41
:10222000A0F1FF31B1FA81F106204909FEF770FAF9
:10223000044600287FF44EAE86F311885820FEF73E
:10224000BFFE014684F31188A1F1FF31B1FA81F19B
:1022500007204909FEF75CFA044600287FF43AAEED
:1022600086F31188696A0820B1FA81F14909FEF7FD
:102270004FFA074610B184F311882BE680F31188DA
:1022800086F31188A9690920A1F1050EDEF100018C
:1022900041EB0E01FEF73CFA10B187F3118819E605
:1022A00080F3118886F31188D5E90231A1EB030C84
:1022B000DCF100014FF00A0041EB0C01FEF728FAB7
:1022C000002300287FF477AF83F31188052405E00D
:1022D0009DF80400FEF734FA013C0DD04FF6FF7173
:1022E00001A8FFF79DFDB0FA80F10B204909FEF728
:1022F0000FFA0028ECD0EDE544490C20FEF7E0F998
:1023000000287FF4E7AD4FF6FF714720FFF730FD5F
:10231000B0FA80F10D204909FEF7FAF900287FF4A0
:10232000D9AD4FF6FF7101A8FFF77AFDB0FA80F141
:102330000E204909FEF7ECF900287FF4CBAD29689F
:10234000AB680F20CF1A79427941FEF7E1F90028F6
:102350007FF4C0AD2968EB681020CE1A714271413C
:10236000FEF7D6F900287FF4B5AD012101A8FFF7EB
:1023700057FD0130414241411120FEF7C9F90028C3
:102380007FF4A8AD202686F3118801A8FEF738FE59
:10239000014684F311884A1C514251411220FEF734
:1023A000B7F900287FF496AD86F31188696A132087
:1023B0004B1F59425941FEF7ABF900287FF4FAAEA2
:1023C000002787F31188202484F31188A969142039
:1023D000B1FA81F14909FEF79BF9064600287FF41E
:1023E0005CAF80F3118884F31188D5E90231A1EB49
:1023F000030EDEF1000141EB0E011520FEF788F916
:1024000000283FF469AD86F3118863E5A05E0008FB
:1024100061B10246074B10B49B6904201A605468EE
:102420005C602360536010BCFFF78ABB4FF0FF3045
:10243000704700BF300900200000000000000000CD
:102440002DE9F04F83B004460D4616460193D0F8AF
:102450001C804FF0200989F311880027BA46A36831
:1024600005F1010B591EFBB16369A160591C616143
:1024700029781970D4E90431994224BFE368636173
:10248000B8F1000F01D02046C0478AF31188013E01
:1024900007F1010712D089F311885D46A36805F1A1
:1024A000010B591E002BDFD1019920460093FFF745
:1024B000AFFF009B0028D2D083F31188384603B0C9
:1024C000BDE8F08F000000000000000000000000E8
:1024D0003030FFF7B5BF00BF000000000000000073
:1024E00030304FF6FF73FFF7ABBF00BF00000000B6
:1024F000F8B504460F461646202383F3118805E0FD
:1025000031462046FFF784FF002816DBA568002D22
:10251000F6D06369013D5A1C6261A5601F70D4E961
:1025200004329A4224BFE3686361E3690BB1204639
:102530009847002080F31188F8BD85F31188F8BD15
:102540004FF4C87200210148FFF7D2BF880800206D
:102550003030FFF7CDBF00BF0000000000000000DA
:1025600030304FF6FF72FFF7C3BF00BF000000001E
:102570002DE9F04F044683B0894693461D46D0F8B6
:102580001C80202787F311880026B2460197B8F1F6
:10259000000F07D02046C04704E029462046FFF739
:1025A00037FFC8B9A768002FF7D0A269013F511CB7
:1025B000A161A760137809F8013B2369A2699A42D7
:1025C00024BFE368A3618AF311880136B34505D0BF
:1025D000019B83F31188DAE787F31188304603B053
:1025E000BDE8F08F000000000000000000000000C7
:1025F0000C30FFF7BDBF00BF00000000000000006E
:102600000C304FF6FF73FFF7B3BF00BF00000000B0
:1026100070B520230E46044683F31188C3693BB18D
:10262000984705E031462046FFF7F2FE002813DB0D
:10263000A568002DF6D0A2692169531C8B42A361C5
:1026400005F1FF3528BFE368A560107828BFA361B6
:10265000002383F3118870BD85F3118870BD00BF1E
:102660004FF4C8710148FFF7D3BF00BF1008002026
:102670000C30FFF7CDBF00BF0000000000000000DD
:102680000C304FF6FF71FFF7C3BF00BF0000000022
:1026900008B50146202383F311880820FFF750FA7C
:1026A000002383F3118808BD000000000000000033
:1026B0004FF480552E4608B5074B084A9B69084CD5
:1026C0009A6126614FF47A70FFF7E2FF65614FF47B
:1026D0007A70FFF7DDFFF4E730090020B05A0008F8
:1026E0000010014000000000000000000000000099
:1026F00010B586B0EFF312831BB9FEF759FDFEF754
:10270000F7FF202383F31188EFF312831BB9FEF741
:102710004FFDFEF7EDFF002383F31188EFF31283E3
:1027200013B9202383F31188EFF3128313B9202305
:1027300083F31188002383F31188202282F3118808
:10274000EFF312820AB183F31188EFF3128313B10E
:10275000002383F3118800222023049283F311883D
:10276000049B01AC13B12046FEF782FC20460023F7
:102770000B4A0121FEF7BCFC002484F311880A20D7
:10278000FFF786FF202383F31188049984F31188CF
:10279000B1FA81F101204909FDF7BAFF06B010BD79
:1027A00011170008000000000000000000000000F9
:1027B00010B504466420FFF76BFF202383F31188D4
:1027C00001212046FEF7BCFAFEF78AFE002383F3C0
:1027D000118810BD00000000000000000000000093
:1027E00038B5202585F3118800210B48FEF7C0FA83
:1027F0000024FEF775FE84F311886420FFF748FF7C
:1028000085F3118805482146FEF7B2FAFEF768FE07
:1028100084F3118838BD00BF080800200C08002090
:1028200008B56420FFF734FF202383F311880448A0
:10283000FEF78EFBFEF754FE002383F3118808BDDC
:10284000AC080020000000000000000000000000B4
:1028500008B50120FFF71CFF202383F311884FF0F8
:1028600080420023506A83F3118880B208BD00BF04
:102870002DE9F0470024FFF7EBFFA246FEF778FCB6
:102880004FF02009DFF86880144F154E154D89F37D
:10289000118800233A4630460121FEF729FC3A46CA
:1028A000002342F210712846FEF722FC3046FEF764
:1028B000DFFB2846FEF7DCFB8AF3118898F800302E
:1028C0000134002BE3D00848FDF792FF6000FDF7CC
:1028D00097FEBDE8F0470548FDF76ABF0103000811
:1028E000081200201C120020E05A0008F05A0008CC
:1028F000C8110020000000000000000000000000DF
:10290000F8B500231D46254A254C02F1100121612E
:10291000E260C4E90522A360C4E90733C4E90044C6
:102920002F46FFF795FFFEF723FC1E4E202383F36F
:10293000118800212046FEF7ABF920460121FEF761
:10294000A7F920460221FEF7A3F920460321FEF74E
:102950009FF987F311884FF6FF712046FFF758FE65
:102960004FF6FF712046FFF753FE4FF6FF712046EA
:10297000FFF74EFE20464FF6FF71FFF749FE337812
:102980000135002BD2D00848FDF732FFA800FDF733
:1029900037FEBDE8F8400548FDF70ABFD00A002021
:1029A000E00A0020C8110020E05A0008205C00085E
:1029B0002DE9F0430024144B83B09B69A1469D6828
:1029C000FFF746FFFEF7D4FBDFF850800F4F104EA5
:1029D00001353B46CDF800902A464FF4A4713046AD
:1029E000FEF78EFF98F800300134002BF1D0094833
:1029F000FDF7FEFE2046FDF703FE074803B0BDE8E5
:102A0000F043FDF7D5BE00BF30090020715A000821
:102A1000380B0020E05A0008E05B0008C8110020D5
:102A2000F8B5FFF715FF202686F311884FF0804593
:102A30006C6A0023A4B283F31188C820FFF728FE34
:102A400004F1CB0204F1C80192B289B20120FDF772
:102A500017FE00B1F8BD86F311886C6AA4B280F34A
:102A60001188C820FFF714FE04F1CB0204F1C8015D
:102A700092B289B20220FDF703FE0028EAD186F364
:102A800011886C6AA4B280F311884FF4FA60FFF7E2
:102A9000FFFD04F2D37204F5FA6192B289B2032009
:102AA000FDF7EEFD0028D5D186F311886C6AA4B23B
:102AB00080F3118804F1C807BFB286F31188696AF0
:102AC000791A89B211B10820FFF73AF8002383F38D
:102AD000118804F1CB023946BDE8F84092B20420D7
:102AE000FDF7CEBD00000000000000000000000067
:102AF00038B5202383F311880B4CA269134653F891
:102B0000280F984208D00D250168002491624B607F
:102B1000057784F3118838BD0E20FEF729FFA269DE
:102B2000906A02F12803EEE730090020000000005F
:102B300070B520260025FFF7DBFF046B86F31188B4
:102B40002146FEF7FDFD85F31188002CF3D170BD01
:102B500070B51F4A82B094694FF4A471A2681D4BEE
:102B6000013200941C48FEF7CBFE1C4B2025186058
:102B7000FFF7BEFF066B85F311883146FEF7E0FDD7
:102B8000002484F31188F0B2FDF7DAFDFFF7B0FFFF
:102B9000066B85F311883146FEF7D2FD84F3118868
:102BA000F0B2FDF7CDFDFFF7A3FF066B85F31188AB
:102BB0003146FEF7C5FD84F31188F0B2FDF7C0FD84
:102BC0000120074902B0BDE87040FDF779BD00BFA4
:102BD00030090020612C0008380B0020CC110020A7
:102BE000905C0008000000000000000000000000F1
:102BF0000E4B10B520229C6982F3118800F1280247
:102C000022622260C26A216362601460027FC46231
:102C10000E2A07D00C20FEF7ABFE206A002383F3B8
:102C2000118810BDFEF704F8F4E700BF300900205A
:102C300070B505460024FFF70BFEFEF799FA074E24
:102C400001212846FFF7D4FF33780134002BF7D059
:102C500028460021FFF7CCFF204670BDC811002098
:102C600010B504464121FFF7C3FF20464221FFF77C
:102C7000BFFF2046BDE810404321FFF7B9BF00BFAA
:102C8000F8B5374A83689569002B3FD0A9689A68E0
:102C90000446914206D91A7F9960062A3BD0072A3A
:102CA00015D042B32646234603E09968AA689142AC
:102CB0002AD31B689C42F8D173680620C5E90063DB
:102CC0001D6075602C62BDE8F840FEF751BE1F68BC
:102CD00058681E6A07601F683246786002E0906894
:102CE000884234D312689642F9D17268C3E900620F
:102CF00013607360D6E7D3E90012116018461B68B1
:102D00005A60FDF795FFCDE71E46D5E7AB6BC0E9EE
:102D10000253A863F8BD1F6858681E6A07601F68E1
:102D2000B4463246786002E09068884216D3126852
:102D30009642F9D1DCF80420A968C3E900C2136007
:102D4000CCF80430B3689A688A42A4D3AAE716463E
:102D50007268C3E9006213607360A3E79446E9E711
:102D6000300900200000000000000000000000000A
:102D700008B5202383F31188FFF782FF002383F334
:102D8000118808BD000000000000000000000000E5
:102D900070B5FFF75DFD0025FEF7EAF9144E154CFE
:102DA0002046FFF7E5FF2046FEF75AFD2046FFF7D5
:102DB000DFFF2046FEF754FD2046FFF7D9FF2046EF
:102DC000FEF74EFD2046FFF7D3FF2046FEF748FDF5
:102DD00033780135002BE3D00748FDF709FDA80043
:102DE000FDF70EFCBDE870400448FDF7E1BC00BFF4
:102DF000C8110020140B0020E05A0008105B0008E6
:102E0000F8B507461C48FFF7B3FF1C48FFF7B0FFB3
:102E1000202383F311881A4DAB699E6B3046FEF771
:102E20006FF8184AAC6910461346226203E09968AD
:102E3000A268914202D31B688342F8D15A680720E6
:102E4000C4E9003214605C60FEF792FDAB691B6A56
:102E5000013302D03046FFF713FF002383F31188BC
:102E60003878FDF76DFC0548FEF7FAFCBDE8F84040
:102E70000148FEF7F5BC00BF4408002034080020DC
:102E800030090020000800200000000000000000C1
:102E900070B506461648FFF76BFF202383F31188B1
:102EA000144B9C69A56B2846FEF72AF8124A104677
:102EB0001346226203E09968A268914202D31B681C
:102EC0008342F8D15A680720C4E9003214605C607C
:102ED000FEF74EFD2846FFF7D3FE002383F311884B
:102EE0003078FDF72DFCBDE870400148FEF7B8BC16
:102EF00034080020300900200008002000000000F5
:102F000038B50546054C2046FFF732FF2878FDF717
:102F100017FC2046BDE83840FEF7A2BC440800205C
:102F2000F8B5374D2023AA69966883F31188354C8C
:102F3000A368002B57D00021002383F311880120C0
:102F4000FDF7E6FB014600B1F8BD202383F31188AD
:102F5000A368002B4ED00121002383F311880220A7
:102F6000FDF7D6FB07460028EED1202383F3118816
:102F70002448FDF7C5FF87F3118821680320091B4A
:102F8000B1FA81F14909FDF7C3FB0028DCD1A16842
:102F90000420B1FA81F14909FDF7BAFB0028D3D129
:102FA000AB6905209968891BB1FA81F14909FDF7E0
:102FB000AFFB0028C8D11348FFF7DAFEFEF7B8FAD6
:102FC00021680620091BB1FA81F14909FDF7A0FB30
:102FD0000028B9D1A1680720BDE8F840B1FA81F115
:102FE0004909FDF795BBAB6901219A6B9C63C4E964
:102FF0000232A1E7AB699A6B9C63C4E90232ABE78A
:10300000300900203408002000000000000000000B
:1030100010B5064C6420FFF73BFB2046FFF7A8FEE7
:103020002046BDE81040FEF71BBC00BF440800204E
:1030300010B5064C4FF49670FFF72AFB2046FFF7B9
:1030400097FE2046BDE81040FEF70ABC3408002079
:1030500038B50546054C2046FFF78AFE2878FDF76F
:103060006FFB2046BDE83840FEF7FABB340800206D
:1030700070B5114C0E46002818BF044604F1100527
:103080002846FFF775FEA3686BB100221446586806
:103090001B6801340244002BF9D128463260FEF748
:1030A000DFFB204670BD1A461C4628463260FEF7FC
:1030B000D7FB204670BD00BF880A0020000000003A
:1030C000F8B550F8085C064605F11007A0F10804B1
:1030D00008353846FFF74CFE2B46AB421A6801D044
:1030E000A34202D21AB1944201D31346F5E746F83F
:1030F000082C56F8042C1C6056F8080CB1188142B4
:103100000AD0596801F108021A44944211D0384695
:10311000BDE8F840FEF7A4BB496802F10805B058C5
:10312000294446E90201596801F108021A4494420F
:10313000EDD156E9020208321144C3E900013846D4
:10314000BDE8F840FEF78CBB000000000000000066
:1031500030B4202181F31188837F0024013BDBB24E
:10316000837784F311881BB9047F02460F2C01D0AA
:1031700030BC7047447F04F00304012C0FD0022CB4
:10318000F6D1D0E90454006C256115696C6181F3B6
:10319000118801681160026083F31188E8E7D0E9C3
:1031A00004131961026930BC5361FFF789BF00BF86
:1031B0002DE9F8438046202585F31188184F002615
:1031C0003869837F0133837786F31188A8EB000980
:1031D000B9FA89F94FEA591985F311880469BC4293
:1031E00008BF044601D111E01C46A37F0133A37739
:1031F00086F31188FFF7ACFFA04508BF49F001092D
:1032000085F3118823692046BB42EDD1002383F367
:1032100011882046FFF79CFF4846BDE8F88300BFB1
:103220003009002000000000000000000000000045
:10323000F8B5204E0731002818BF064606F11007E2
:10324000384621F0070506F10804FFF791FD03E079
:103250004368AB4212D2044620680028F8D13846B1
:10326000FEF7FEFA336813B305F108009847F0B192
:10327000C0E9006500F108042046F8BD05F1080228
:103280009342016808D221600446384644F8086B2E
:10329000FEF7E6FA2046F8BD5B1B00EB020C083B8C
:1032A0008150CCF80430C4F800C04560ECE700243D
:1032B000E2E700BF880A00200000000000000000D4
:1032C0002DE9F041064688461A484FF4A471FFF7ED
:1032D000AFFF044658B3202383F31188022300254F
:1032E0000127154A00F592710261C1601349866099
:1032F000C663DFF84CC05669C0F84411037700F18B
:10330000240100F128034661C0F82881C0F824C1D7
:10331000C0E90D5585618777306141624777C0E923
:103320000A3329465061FEF70BFA85F311882046CF
:10333000BDE8F081B00A0020300900201102000829
:10334000A1070008000000000000000000000000CD
:10335000464B10B59B69464998680138FFF7B0FFA6
:10336000817F04460120091AB1FA81F14909FDF76C
:10337000CFF900B110BD202383F31188A37F01335F
:10338000A37780F311880220A17F091AB1FA81F195
:103390004909FDF7BDF90028ECD12046FFF7D8FE1A
:1033A000A17F0320A1F10101B1FA81F14909FDF7E3
:1033B000AFF90028DED12046FFF7FAFE01460420CF
:1033C000FDF7A6F90028D5D12046FFF7F1FE01460A
:1033D0000520FDF79DF90028CCD12046FFF7B8FE67
:1033E000A17F0620B1FA81F14909FDF791F9002882
:1033F000C0D1217F0720B1FA81F14909FDF788F991
:103400000028B7D12046FFF7D3FE01460820FDF77C
:103410007FF90028AED12046FFF7CAFE01460920F9
:10342000FDF776F90028A5D16420FFF731F9217F57
:103430000A20A1F10F0359425941FDF769F900280B
:1034400098D12046FFF7B4FE01460B20FDF760F946
:1034500000288FD12046FFF7ABFEBDE8104080F07A
:103460000101C9B20C20FDF753B900BF300900209B
:10347000705C000800000000000000000000000078
:1034800070B582B069460020FFF7F2FD10210020E0
:10349000FFF7CEFE011C054618BF01210120FDF7F4
:1034A00037F908B102B070BD04462846FFF708FEA0
:1034B0006FF0FF012046FFF7BBFEB0FA80F102205B
:1034C0004909FDF725F90028ECD169467C48FFF74A
:1034D000CFFD10217A48FFF7ABFE10210646784851
:1034E000FFF7A6FE102105467548FFF7A1FE04462A
:1034F0003046FFF7E5FD2846FFF7E2FD2046FFF7DF
:10350000DFFD01A96E48FFF7B3FDA0F10101B1FA9B
:1035100081F103204909FDF7FBF80028C2D11021F1
:103520006748FFF785FE102104466548FFF780FED7
:10353000054610216248FFF77BFEFFF7C1FD2846D4
:10354000FFF7BEFD2046FFF7BBFD01A95C48FFF772
:103550008FFDA0F10101B1FA81F104204909FDF7C5
:10356000D7F800289ED111215548FFF761FE1021A0
:1035700004465348FFF75CFE05462046FFF7A0FDD2
:1035800001A94F48FFF774FDA0F10201B1FA81F1E2
:1035900005204909FDF7BCF8002883D110214848CF
:1035A000FFF746FE01A904464548FFF761FD0128E3
:1035B00000F0838001A94248FFF75AFDA0F1020103
:1035C000B1FA81F149090620FDF7A2F800287FF43D
:1035D00069AF2846FFF774FD2046FFF771FD01A98A
:1035E0003748FFF745FDA0F10101B1FA81F107204D
:1035F0004909FDF78DF800287FF454AF10213048B9
:10360000FFF716FE102105462D48FFF711FE044670
:103610002846FFF755FD01A92948FFF729FD851E1A
:10362000694269410820FDF773F800287FF43AAF3A
:1036300020212348FFF7FCFDFFF742FD2046FFF75E
:103640003FFD01A91E48FFF713FD013841424141EA
:103650000920FDF75DF800287FF424AF01A9184880
:10366000FFF706FD01991648FFF7E2FD01A90446A0
:103670001348FFF7FDFCB0FA80F10A204909FDF775
:1036800047F800287FF40EAF2046FFF719FD01A987
:103690000B48FFF7EDFC421E514251410B20FDF754
:1036A00037F800287FF4FEAEDDE90031CB1A59422D
:1036B00059410C20FDF72CF8F4E6014683E700BFE2
:1036C000A811002000000000000000000000000021
:1036D000202383F311888368013B002B836004DB84
:1036E0000020002383F311887047034610B5084C6F
:1036F0000520A26913621360596851600A605A601C
:10370000FEF736F9A369186A002383F3118810BD08
:103710003009002000000000000000000000000050
:1037200070B5FFF795F80025FDF722FD144E154CF6
:103730002046FFF7CDFF2046FEF7C2F82046FFF7F0
:10374000C7FF2046FEF7BCF82046FFF7C1FF204622
:10375000FEF7B6F82046FFF7BBFF2046FEF7B0F8AD
:1037600033780135002BE3D00748FDF741F8A80076
:10377000FCF746FFBDE870400448FDF719B800BFEC
:10378000C8110020280B0020E05A0008005B000848
:1037900038B5074CA3695B7F5A0707D4054D284607
:1037A000FFF796FFA3695B7F5B07F8D538BD00BFC5
:1037B00030090020280B002000000000000000005D
:1037C000F0B5002587B003AC0595CDE9034420266C
:1037D00086F3118829462046FDF732FCFDF780FE6E
:1037E00085F3118886F3118805990120A942CCBF81
:1037F00000210121FCF78CFF18B185F3118807B077
:10380000F0BD074680F31188404A4FF4A4719269D5
:103810003F4B92683F48013A0094FEF771F83E4BE7
:1038200018602046FFF754FF86F31188059902209F
:103830000029CCBF00210121FCF76AFF18B187F3F2
:10384000118807B0F0BD80F3118886F31188059BBD
:10385000002B23DDFDF744FE002585F3118820278A
:1038600087F3118805990320A942D4BF00210121C3
:10387000FCF74EFF06460028BFD180F3118887F37E
:10388000118805990420A1F10101B1FA81F14909DA
:10389000FCF73EFF30B186F31188B0E72046FDF714
:1038A00057FBD7E780F3118887F31188059B002B1E
:1038B00027DDFDF715FE002484F31188202686F30A
:1038C000118805990320A142D4BF00210121FCF7F2
:1038D0001FFF054610B184F3118890E780F311882B
:1038E00086F3118805990520A1F10101B1FA81F152
:1038F0004909FCF70DFF00287FF47FAF80F31188A2
:103900007DE72046FDF724FBD3E700BF3009002008
:1039100001150008380B0020CC1100200000000029
:1039200010B5044C2046FFF7D3FE2046BDE81040FA
:10393000FDF7C6BFAC08002000000000000000003A
:1039400010B504460348FFF7C3FE2078BDE81040D9
:10395000FCF7F6BEAC0800200000000000000000EC
:1039600038B50446202383F31188037F0F2B07D03B
:10397000084B426A9B6909201A606362FDF7F8FFF1
:10398000256A002383F311882046FFF7E1FB2846D0
:1039900038BD00BF3009002000000000000000001A
:1039A0002DE9F0430024154B83B09B69A1469D6827
:1039B000FEF74EFFFDF7DCFBDFF85480104F114E91
:1039C000013D3B462A464FF4A471CDF800903046A5
:1039D000FDF796FFFFF7C4FF98F800300134002B85
:1039E000EFD00948FCF704FF2046FCF709FE074822
:1039F00003B0BDE8F043FCF7DBBE00BF3009002098
:103A0000715A0008380B0020E05A0008E05B0008FB
:103A1000C8110020000000000000000000000000AD
:103A200070B50026064C04F1140554F8040B18B1C7
:103A3000FFF796FF44F8046CAC42F6D170BD00BFAE
:103A4000CC11002000000000000000000000000079
:103A500000232DE9F041DFF8D08084B004AC44F8B5
:103A6000043DFEF7F5FED8F818302A4F2A4E9A6822
:103A700030463B46013A00944FF4A471FDF740FFF5
:103A8000D8F81830254D9A684FF4A47128603B4649
:103A9000013A009406F5A470FDF732FFD8F818300B
:103AA00068609A6806F524703B46013A00944FF42A
:103AB000A471FDF725FFD8F81830A8609A6806F5BC
:103AC00076703B46013A00944FF4A471FDF718FF5D
:103AD000D8F818304FF4A4719A68E8603B46013A70
:103AE000009406F5A460FDF70BFF28614FF4FA601F
:103AF000FEF7CEFDFCF7ACFDFFF792FF0848FCF7A0
:103B000077FE0398FCF77CFD0648FCF751FE04B0F5
:103B1000BDE8F08171140008380B0020CC110020A2
:103B2000E05A0008105C0008300900200000000086
:103B30002DE9F04100243A4D82B0AA69394B9268D0
:103B40004FF4A471053238480094FDF7D9FEAB69F3
:103B5000364E9A684FF4A47130600432314B0094B1
:103B60003348FDF7CDFEAB6970609A684FF4A471DD
:103B70002C4B033200942F48FDF7C2FEAB69B060B6
:103B80009A684FF4A471274B023200942A48FDF73B
:103B9000B7FEAB69F0609A684FF4A471214B013213
:103BA00000942648FDF7ACFE25463061FEF750FE36
:103BB0002026FDF7DDFADFF89880214F86F3118883
:103BC00000213846FDF73CFAFDF78AFC85F31188A1
:103BD00098F800300134002BF0D0FCF739FD86F363
:103BE000118800211648FDF72BFAFDF779FC85F3C3
:103BF0001188FFF715FF1348FCF7FAFD2046FCF784
:103C0000FFFC04EB44041048FCF7F2FD6000FCF7F5
:103C1000F7FC0E4802B0BDE8F041FCF7C9BD00BF9B
:103C20003009002091370008380B0020CC1100200B
:103C3000800C0020C80D0020100F0020581000201C
:103C4000280B0020E05A0008F05B0008105C000818
:103C5000C81100200000000000000000000000006B
:103C60002DE9F0410025234A82B092694FF4A471F6
:103C70009268214B013221480095FDF741FE204B0F
:103C8000044618602E46FEF7E3FD2027FDF770FA84
:103C9000DFF8788087F3118800212046FDF750FD7A
:103CA00020460021FDF74CFD20460021FDF748FD90
:103CB00020460021FDF744FD86F3118898F8003076
:103CC0000435002BE6D087F311884FF0FF312046F2
:103CD000FDF736FD86F31188FFF7A2FE0948FCF7D1
:103CE00087FD6800FCF78CFC074802B0BDE8F04196
:103CF000FCF75EBD30090020111B0008380B0020C6
:103D0000CC110020E05A0008105C0008C811002007
:103D10002DE9F04100262C4F2C4DBB6982B09A68EA
:103D200028462B4B013200964FF4A471FDF7E8FDB5
:103D3000BB69284C9A68DFF8AC8020604346023AA1
:103D4000009605F5A4704FF4A471FDF7D9FDBB6989
:103D500060609A6805F524704346033A00964FF474
:103D6000A471FDF7CDFDBB69A0609A6805F576707A
:103D70004346043A00964FF4A471FDF7C1FDBB69B8
:103D80004FF4A4719A68E0604346053A009605F541
:103D9000A460FDF7B5FD20612068FEF749FF0446E9
:103DA000FFF73EFE0C48FCF723FD2046FCF728FCFD
:103DB0000A48FCF71DFD6000FCF722FC084802B031
:103DC000BDE8F041FCF7F4BC30090020380B0020BE
:103DD000312B0008CC110020E05A0008D05B00080D
:103DE000105C0008715A000800000000000000008C
:103DF00010B50024124A82B092694FF4A4719268FF
:103E0000104B013200941048FDF77AFD0F4B1860FB
:103E1000FEF70EFF0446FFF703FE0D48FCF7E8FC33
:103E20002046FCF7EDFB0B48FCF7E2FC6000FCF7DA
:103E3000E7FB094802B0BDE81040FCF7B9BC00BF81
:103E400030090020312B0008380B0020CC11002055
:103E5000E05A0008D05B0008105C00080000000079
:103E600010B50024124A82B092694FF4A47192688E
:103E7000104B013A00941048FDF742FD0F4B1860BB
:103E8000FEF7D6FE0446FFF7CBFD0D48FCF7B0FC6D
:103E90002046FCF7B5FB0B48FCF7AAFC6000FCF7DA
:103EA000AFFB094802B0BDE81040FCF781BC00BF81
:103EB00030090020312B0008380B0020CC110020E5
:103EC000E05A0008D05B0008105C00080000000009
:103ED0002DE9F043202383B083F311888A4DD5E97F
:103EE00005329A4241D000210120FCF711FCB0BB01
:103EF00080F311884124844E214601344FF6FF722D
:103F00003046E4B2FEF7F4FA452CF5D1202686F3CC
:103F10001188A9680220B1FA81F14909FCF7F8FB80
:103F20000746E0B980F3118804248146DFF8D88180
:103F300086F311884046FCF7DBFE89F31188C0B296
:103F4000FCF7FEFB013CF3D186F31188D5E905238C
:103F50009A4229D039460320FCF7DAFB50B10023FE
:103F600083F3118803B0BDE8F083A968003118BF5E
:103F70000121B9E780F3118864490420FCF7A0FB14
:103F800004460028EED1202686F311885E48FCF70F
:103F9000AFFE033014BF002101210520FCF7B8FB60
:103FA00038B184F31188DDE7AF68003718BF012707
:103FB000D0E780F311880822034655495248FEF79E
:103FC0003FFAA0F10401B1FA81F106204909FCF79A
:103FD0009FFB04460028C5D186F31188A9680720F5
:103FE000B1FA81F14909FCF793FB07460028D8D1C3
:103FF00080F31188474A484B92694FF4A471926844
:10400000464801320097FDF77BFC454B186086F36C
:104010001188A968D5E903239B1A591AA1F1040153
:10402000B1FA81F108204909FCF772FB10B187F35E
:10403000118897E780F31188FFF7F2FC86F3118867
:10404000D5E903122B68521AAB42C5E90511AA60E3
:104050000BD06FF001041A68184655601C622A6084
:10406000FCF7E6FD2B68AB42F5D1002484F3118800
:10407000202686F31188D5E90323A9689B1A5F1AC5
:10408000794279410920FCF743FB0346002888D197
:1040900080F3118802221E491B48FEF7D1F902382D
:1040A000414241410A20FCF733FB034600287FF4DC
:1040B00059AF022216491448FEF7C2F9821E514236
:1040C00051410B20FCF724FB044600287FF44AAF43
:1040D00086F31188A9680C20B1FA81F14909FCF72F
:1040E00017FB014600287FF45CAF80F311880A2299
:1040F0000548FEF7FDF9431C0D205942594103B014
:10410000BDE8F043FCF704BB8808002020600008ED
:10411000800C00203009002041250008380B0020C9
:10412000CC11002000000000000000000000000092
:10413000F0B5202683B086F311889F4C0120A1683A
:10414000B1FA81F14909FCF7E3FA10BB054680F3A7
:10415000118886F3118841212046FCF799FD2046FD
:104160004221FCF795FD20464321FCF791FD2046B6
:104170004421FCF78DFD85F3118886F31188D4E97D
:1041800005329A4238D029460220FCF7C1FA05468A
:1041900020B1002383F3118803B0F0BD80F31188B0
:1041A000202383F3118884482946FCF771FD0430ED
:1041B00014BF002101210320FCF7AAFAC0B980F343
:1041C000118804257C4E4FF6FF713046FEF720FA29
:1041D000C0B2FCF7B5FA013DF5D1202686F311886F
:1041E000A1680420B1FA81F14909FCF791FA78B18C
:1041F00085F3118803B0F0BDA5680220003518BF13
:1042000001252946FCF784FA05460028C1D1C5E7F7
:1042100085F3118869490520FCF752FA0028BBD1C3
:1042200086F3118841216448FCF732FD422162483F
:10423000FCF72EFD43216048FCF72AFD44215E482F
:10424000FCF726FD85F311885D4908222B465A4864
:10425000FEF78EF9A0F10401B1FA81F106204909B7
:10426000FCF756FA002897D186F31188A168072039
:10427000B1FA81F14909FCF74BFA0028B8D185F36E
:10428000118886F3118841214B48FCF701FD42213A
:104290004948FCF7FDFC43214748FCF7F9FC442161
:1042A0004548FCF7F5FC85F31188454902222B4669
:1042B0004148FEF75DF9A0F10201B1FA81F1082051
:1042C0004909FCF725FA00287FF466AF3C492B46E4
:1042D00002223948FEF74CF9A0F10201B1FA81F14E
:1042E00009204909FCF714FA00287FF455AF86F33A
:1042F0001188A1680A20B1FA81F14909FCF708FA8E
:1043000000287FF475AF85F3118886F311882A4859
:104310002946FCF7BDFC2368E268A342A560C4E916
:1043200005220BD06FF001051A68184654601D6213
:104330002260FCF77DFC2368A342F5D1002787F3B8
:104340001188202686F31188A1680B20B1FA81F12B
:104350004909FCF7DDF9054610B187F311881BE721
:1043600080F31188174A184B92694FF4A471926830
:10437000164801320095FDF7C3FA154B186086F315
:104380001188A1680C20B1FA81F14909FCF7C0F944
:1043900000287FF42DAF80F31188FFF741FB0A213D
:1043A0000548FEF735F9431C0D205942594103B029
:1043B000BDE8F040FCF7ACB9100800202060000810
:1043C000800C00203009002061260008380B0020F6
:1043D000CC110020000000000000000000000000E0
:1043E000F8B520270026304A304B9169304A8D6855
:1043F000304903F10C0487F31188086810600A60E3
:1044000086F311889C4202D053F8042BF3E72A4923
:10441000681EFDF7C5F9294C29492060A81EFDF743
:10442000BFF928496060E81EFDF7BAF92649A06087
:10443000281FFDF7B5F92549E060681FFDF7B0F9C1
:104440002168206141B1616831B1A16821B1E168A1
:1044500011B1B0FA80F149090120FCF759F900B116
:10446000F8BDFFF7DDFA1A490220FCF729F9002808
:10447000F6D104240F4D2846FCF762FA011C18BF40
:1044800001210320FCF744F90028E9D1013CF2D1D5
:104490000848FCF755FABDE8F840B0FA80F104206E
:1044A0004909FCF735B900BF30090020C46700088E
:1044B000380B0020080B0020705C0008CC11002095
:1044C000605C0008645C0008685C0008A45E00088A
:1044D0002060000800000000000000000000000054
:1044E00070B52C4B82B09B6969469D682A48FEF7DF
:1044F000BFFD2A49681EFEF7E3FE294C29492060CA
:10450000A81EFEF7DDFE01A960602348FEF7B0FD9E
:1045100001992148FEF78CFE23490646E81EFEF766
:10452000CFFEA0603046FEF7CBFD216821B1616867
:1045300011B1A16831B300210120FCF7E9F808B1FD
:1045400002B070BDFFF76CFA18490220FCF7B8F80A
:104550000028F5D101A91048FEF78AFDA0F101015C
:10456000B1FA81F103204909FCF7D2F80028E7D11C
:10457000DDE90031C91AB1FA81F104204909FCF7DB
:10458000C7F8DDE7E368002BD6D12169B1FA81F1E4
:104590004909D1E730090020B00A0020705C00080A
:1045A000CC110020605C0008645C0008505C0008CE
:1045B0002DE9F04F20268FB086F31188AD4C0021F5
:1045C000A269536B43F00703536381F31188FDF72E
:1045D00067FAA0F10101B1FA81F101204909FCF764
:1045E00097F810B10FB0BDE8F08FFDF759FAA0F1C0
:1045F0000201B1FA81F102204909FCF789F800288B
:10460000F0D1FDF74DFAA0F10401B1FA81F10320D8
:104610004909FCF77DF80028E4D1FBF711FEB0FA58
:1046200080F104204909FCF773F805460028D9D128
:10463000FEF70EF986F311884FF08048D8F8247001
:10464000BFB285F31188A0694FF4A47182688A4BC8
:10465000013A00908948FDF753F9894D2860FDF72C
:104660001FFA07F16E0207F16401814692B289B226
:104670000520FCF705F80028B4D1A9F10101B1FA31
:1046800081F106204909FCF743F80028AAD1FBF77D
:10469000D7FDB0FA80F107204909FCF739F8074641
:1046A00000289FD1FFF7BCF986F31188A269536BEC
:1046B00043F00503536387F31188FDF711FA471F91
:1046C000794279410820FCF723F800288AD1FBF7CA
:1046D000B7FDB0FA80F109204909FCF719F807463F
:1046E00000287FF47FAFFEF7B3F886F31188D8F87F
:1046F0002460B6B287F31188A0694FF4A471826870
:104700005D4B013A00905D48FDF7FAF82860FDF72F
:10471000E7F906F16E0206F16401074692B289B22A
:104720000A20FBF7ADFF00287FF45CAF781E414202
:1047300041410B20FBF7ECFF00287FF453AFFBF760
:104740007FFDB0FA80F10C204909FBF7E1FF8046BC
:1047500000287FF447AFFFF763F94A4F4A4B4FF009
:10476000200B3F601E461B608BF3118801234FF026
:10477000FF3238680DF1380AA1694AF8280DCDF8E2
:104780001C80CDE90513C7F800A0089288F31188B2
:104790008BF31188042330680DF13809A16949F8B9
:1047A000140DCDE90C82CDE90A13C6F8009088F308
:1047B0001188FEF74DF88BF311884FF08042526A52
:1047C00091B2039188F31188A269304B926801F18C
:1047D000640C0093013A2E4B4FF4A47127481FFA42
:1047E0008CF6FDF78DF8A46928608BF31188636B54
:1047F00003F00502052A05D005230B202362FDF7EF
:10480000B7F8636B23F005036363002383F3118818
:10481000039A31466E3292B20D20FBF731FF002829
:104820007FF4E0AEFBF70CFDB0FA80F10E204909F1
:10483000FBF76EFF00287FF4D5AEFFF7F1F8514685
:104840001048FCF705F949460F48FCF701F93968AB
:104850000F20CA1B51425141FBF75AFF00287FF439
:10486000C1AE094B10201968CB1A59425941FBF7C8
:104870004FFFB7E630090020B1270008380B0020B1
:10488000CC110020080800200C080020705C0008F3
:10489000E127000800000000000000000000000008
:1048A00070B5194B194D9A69194B966882B0721CF4
:1048B00000932846174B4FF4A471FDF721F8164CCE
:1048C000164B2060B21C009305F5A470144B4FF4F6
:1048D000A471FDF715F8134BF21C4FF4A47160603E
:1048E000009305F52470104BFDF70AF8A060FCF763
:1048F0009FFFFCF79DFFFFF793F801200B4902B0E3
:10490000BDE87040FBF7DCBE30090020380B00200A
:10491000705C0008012E0008CC110020645C0008C7
:10492000912E0008605C0008012F0008905C0008D0
:1049300030B52C4B2C489A6983B095682B4B6A1C78
:1049400000904FF4A4712A48FCF7DAFF294C2A4B57
:104950002060AA1C00934FF4A471244B2748FCF755
:10496000CFFF274B6060EA1C00934FF4A4711F4BEC
:104970002448FCF7C5FF244BA0602A1D00934FF488
:10498000A4711A4B2148FCF7BBFF214BE0606A1D64
:1049900000934FF4A471154B1E48FCF7B1FF202380
:1049A000206183F311881C4C2368A3420BD06FF065
:1049B00001051A68184654602260FCF739F923682B
:1049C0000562A342F5D1FCF78BFD002383F3118828
:1049D000FFF726F80120114903B0BDE83040FBF78E
:1049E0006FBE00BF30090020A45E0008912E0008B1
:1049F000380B0020CC110020685C0008800C0020DF
:104A0000645C0008C80D0020605C0008100F0020E6
:104A1000705C00085810002000080020A05E00080C
:104A2000F0B52C4B2C4E9B692C4D9F682C4983B0C4
:104A30007A1C3346009128464FF4A471FCF760FFBE
:104A4000284C29492060BA1C3346009105F5A47012
:104A50004FF4A471FCF754FF24496060FA1C3346FC
:104A6000009105F524704FF4A471FCF749FF20492B
:104A7000A0603A1D3346009105F576704FF4A4719D
:104A8000FCF73EFF1B49E060334600917A1D05F5B7
:104A9000A4604FF4A471FCF733FF2023206183F35B
:104AA0001188FCF7DDF8FCF7DBF8FCF7D9F8FCF728
:104AB000D7F8FCF7D5F8FCF713FD002383F3118832
:104AC000FEF7AEFF01200C4903B0BDE8F040FBF754
:104AD000F7BD00BF30090020912E0008380B0020E0
:104AE000A45E0008CC110020685C0008645C00082B
:104AF000605C0008705C0008A05E00080000000018
:104B00002DE9F041844D8548AA6982B09468844BB0
:104B1000671C4FF4A4713A4600908248FCF7F0FEFF
:104B2000814E824B04F1020830604FF4A47142467A
:104B300000937F487F4BFCF7E3FE70607E48FEF7F2
:104B400017F9AB6901209968091BB1FA81F149098C
:104B5000FBF7DEFD10B102B0BDE8F081C820FDF723
:104B600097FDAB6902209968C91BB1FA81F1490927
:104B7000FBF7CEFD0028EED17048FEF7F9F8AB69DF
:104B800003209968C91BB1FA81F14909FBF7C0FDFF
:104B90000028E0D1C820FDF77BFDAB6904209968AF
:104BA000A1EB0801B1FA81F14909FBF7B1FD002839
:104BB000D1D16248FCF754FEAB6905209968C91B46
:104BC000B1FA81F14909FBF7A3FD0028C3D1C82040
:104BD000FDF75EFDAB6906209968C91BB1FA81F14A
:104BE0004909FBF795FD0028B5D1FCF7A1FCAB699D
:104BF00007209968091BB1FA81F14909FBF788FD83
:104C00000028A8D1FEF70CFF4D4A454B00924FF407
:104C1000A4713A464348FCF773FE4A4B3060424663
:104C20004FF4A47100934248424BFCF769FE706058
:104C30004148FEF79DF8AB69082099680A1B51426C
:104C40005141FBF765FD002885D1C820FDF720FD07
:104C5000AB6909209968CB1B59425941FBF758FDB4
:104C600000287FF478AF3548FEF782F8AB690A2058
:104C70009968A1EB070EDEF1000141EB0E01FBF795
:104C800047FD00287FF467AFC820FDF701FDAB6941
:104C90000B209968A1EB080CDCF1000141EB0C0141
:104CA000FBF736FD064600287FF455AF202383F33B
:104CB00011882248FCF724F9FCF712FC86F31188CE
:104CC000AB690C209968CE1B71427141FBF720FD46
:104CD00000287FF440AFC820FDF7DAFCAB690D2057
:104CE0009968CA1B51425141FBF712FD00287FF41D
:104CF00032AFFCF71DFCAB690E2099680B1B5942C3
:104D00005941FBF705FD00287FF425AF02B0BDE84F
:104D1000F041FEF785BE00BF30090020605C00084E
:104D200011300008380B0020CC110020705C000806
:104D3000800C002031300008440800203408002096
:104D4000685C0008645C00080000000000000000CF
:104D500070B5294E82B0B36928489C68FEF708F800
:104D6000274B621C00934FF4A471264B2648FCF796
:104D7000C7FD264D264B2860A21C00934FF4A4715A
:104D8000204B2448FCF7BCFD234B6860E21C0093D9
:104D90004FF4A4711B4B2148FCF7B2FD204BA860D7
:104DA000221D00934FF4A471164B1E48FCF7A8FD7A
:104DB0001D4B4FF4A471621DE86000931B48114B1A
:104DC000FCF79EFD28610D48FCF74AFDFEF728FE22
:104DD000B36901209968091BB1FA81F14909FBF710
:104DE00097FC08B102B070BD0220114902B0BDE8C5
:104DF0007040FBF765BC00BF30090020340800207C
:104E0000A45E000851300008380B0020CC110020AF
:104E1000685C0008800C0020645C0008C80D00205D
:104E2000605C0008100F0020705C00085810002023
:104E3000A05E00080000000000000000000000006C
:104E400070B5202382B083F311884C4CA368013BDA
:104E50005ABFA36000210121002383F311880120A0
:104E6000FBF756FC08B102B070BD21680220091B97
:104E7000B1FA81F14909FBF74BFC0028F3D1A16895
:104E80000320B1FA81F14909FBF742FC0028EAD17D
:104E90003B4A4FF4A47192693A4B92680090013AF0
:104EA0003948FCF72DFD394B18604FF47A70FCF748
:104EB0006FFE0546FEF7B4FDB5FA85F104204909F9
:104EC000FBF726FC0028CED121680520091BB1FA8A
:104ED00081F14909FBF71CFC0028C4D1A168062018
:104EE000B1FA81F14909FBF713FC05460028BAD154
:104EF000FDF7AEFC202383F311884FF080435E6AF8
:104F000085F3118841252846FBF71AFC6420FCF73D
:104F10003FFEA0F1FF31B1FA81F107204909FBF70B
:104F2000F7FB00289FD121680820091BB1FA81F105
:104F30004909FBF7EDFB002895D1A1680920B1FADA
:104F400081F14909FBF7E4FB0135EDB200288AD174
:104F5000462DD8D10E490A20FBF7B2FB002882D19A
:104F60000B20B6B206F5FC7206F5FA7692B2B1B233
:104F700002B0BDE87040FBF783BB00BFAC08002067
:104F80003009002021280008380B0020CC11002017
:104F9000A05E00080000000000000000000000000B
:104FA000F0B54B4D4B4FAA6983B092684A4B4FF412
:104FB000A471053200974948FCF7A2FCAB69484C44
:104FC0009A68484B2060013200934FF4A471424B21
:104FD0004548FCF795FCAA69444B92684FF4A471CC
:104FE00060600332009342483B4BFCF789FCAA699E
:104FF000404B92684FF4A471A060043200933E4885
:10500000354BFCF77DFCAA693C4B92684FF4A471C8
:105010000232E06000933A482F4BFCF771FC2061AC
:105020003848FCF74DFC3748FCF74AFC3548FCF79C
:1050300047FC3448FCF744FC3248FCF741FCFEF7DF
:10504000EFFC31490120FBF73BFB08B103B0F0BD99
:10505000AA6906469268204B4FF4A4710532009766
:105060001E48FCF74DFC2023206083F311880225A5
:10507000244C02E0012D0ED00125A3680133002B42
:10508000A360F7DC206803685C602360FBF7D0FD59
:10509000012D0662F0D1FCF723FA002585F3118873
:1050A000FEF7BEFC202383F31188A1680220A1F142
:1050B0000101B1FA81F14909FBF72AFB18B980F324
:1050C000118803B0F0BD85F3118803B0F0BD00BFB7
:1050D00030090020705C000841390008380B0020BE
:1050E000CC110020605C0008800C0020645C00088B
:1050F000C80D0020685C0008100F0020A45E0008A6
:1051000058100020AC080020A05E0008000000003D
:105110002DE9F043414DDFF82C81AB69404C9A6892
:10512000404983B043460091043A04F5A4704FF41B
:10513000A471FCF7E5FBAB693B4E9A683B49706094
:1051400043460091053A20464FF4A471FCF7D8FB82
:10515000AB6937499A68306043460091013A04F5DB
:10516000A4604FF4A471FCF7CBFBAB6931499A689A
:1051700030610091023A434604F576704FF4A47111
:10518000FCF7BEFB2022F06082F31188002702208A
:105190004FF00109AB6928499B68C4F8B813033B79
:1051A000C4F89832C4F8CC3204F56D73C4F89C325C
:1051B000224B6969C4F8D43304F52473A4F8AC0213
:1051C000C4F8A412C4F8B483C4F8A05204F52D7036
:1051D000C4F8C872C4F8C472C4F8A87284F8AE9255
:1051E0000B6104F52E716B61B360C4F8B402C4F8AE
:1051F000B812C4F8BC1287F31188B06882F3118822
:10520000FBF716FD87F31188FEF70AFC48460C49A8
:1052100003B0BDE8F043FBF753BA00BF30090020EC
:10522000380B0020685C0008CC110020A45E000848
:10523000705C0008605C0008645C000811020008F3
:10524000A05E0008910700080000000000000000B8
:10525000F0B5274F274EBB69274D9A68274983B081
:1052600033460091053A28464FF4A471FCF748FBF9
:10527000BB69234C9A682349206033460091043A65
:1052800005F5A4704FF4A471FCF73AFBBB691E4905
:105290009A68606033460091033A05F524704FF434
:1052A000A471FCF72DFBBB6918499A68A0603346CE
:1052B0000091023A05F576704FF4A471FCF720FBDB
:1052C000BB6913499A68E060013A3346009105F5DD
:1052D000A4604FF4A471FCF713FB2061FEF7A0FB60
:1052E00001200C4903B0BDE8F040FBF7E9B900BF6D
:1052F0003009002091070008380B0020A45E000848
:10530000CC110020685C0008645C0008605C000848
:10531000705C0008A05E00080000000000000000B3
:1053200000244FF0FF334FF0805A4FF00109AB4D8E
:105330002DE980482E692B612C61EE68EB604FF0FF
:10534000FF334FF08832EC60EE69A54846EA0A0662
:10535000EE61EE69A34F46F0006680F80890EE61BA
:105360003E684FF0100E46F480763E60AF699E4E68
:1053700047F07D07AF619D4FF360776007F58027A9
:1053800007F53F77376006F1E946994F06F55E1657
:105390008836FB607E603A6007F19147954E07F5CD
:1053A000093707F56277F3607760934F4FF08041DC
:1053B0003760924FC6F80C34C6F80424C6F800745F
:1053C000C6F80C38C6F80428C6F800288C4A4FF6F0
:1053D000FF7C40F8042B824A4FF6FF0B134602F184
:1053E0000C065060D660EA691E6142EA0902EA6171
:1053F00003F174021A64834AC3F838E0DA64824A1B
:105400005C61C3E90A435A671B6548F69F437F48BE
:105410007F4E42684FF0200842F4006242608B6287
:105420006FF07F03C1F82CC08C614C63CC604C6082
:10543000C1F81490C1F8009086F81C334FF0FF3388
:1054400067498DB001F154028A61C1E9082201F176
:105450006402CA61CA63C1E9112201F13002C1E9E3
:105460000C226C4AC6F880A1C6F800A09460D068EF
:10547000694900EA0B0001436848D160C168DFF860
:10548000CCA141F08071C16065484027016841EAC4
:105490000901016082F81FE082F82280CDE906341C
:1054A0000AF11C030022CAE907330023CAF824C00A
:1054B00006A8CAE900AACDE90A23CDE90844CAF83A
:1054C0000840CAE904AACAF87040FAF7B1FE06A873
:1054D000FBF74EFB534A089BDAF814C0CAF8703049
:1054E00002F11003C2E904330AF12C03CAF840C0E8
:1054F00094618AF84940CAE918448AF84A90CAF87F
:105500004440CAF83CA0CAF83470CAF86870CCF8B5
:105510001030DFF83CC1CAE905330AF15003CAF87C
:10552000503041480AF154034049C2F800C0C2E972
:105530000244CAE915333E4A3E4B20F0070021F0F1
:1055400007018AF848901060196084F3118862B6E8
:105550003949DAF818304A4699610AF17800374B30
:105560000094D821FCF7CCF9354B836188F311887E
:105570001B490B7A4B4509D1C022EB6943F4003338
:10558000EB6186F82623C6F88471776040F2A93271
:10559000134B44F240055B6F01241A8142F22C1038
:1055A000002202211D829C8298811A8018889B8883
:1055B0000B4B197282F31188224B00924FF4A471A5
:1055C00041222148FCF79CF9DFF88890DFF88880B9
:1055D000DFF888A0DFF888B048E000BF0010024084
:1055E000B808002000700040000801408848848806
:1055F000000C014000100140888884444488888859
:10560000A0670008C102000800440040002004E038
:1056100000E100E000ED00E00003FA05F0ED00E03D
:10562000001000E0880A00207F13002000500020B6
:10563000240B0020A80A0020305C0008710200083A
:10564000805D0008B12600083012002030090020DB
:1056500081020008800A0020F0110020040B0020C5
:10566000CC1100204FF47A70FDF712F8A34B9B6821
:10567000DB07F7D5A24BA348C9F80030FBF798F831
:10568000A148FBF795F8A148FBF792F82A21A04C16
:10569000D9F8000003689B68984714F8011F002997
:1056A000F6D19C48FBF784F82A219B4CD9F80000DE
:1056B00003689B68984714F8011F0029F6D19748A2
:1056C000FBF776F82A21964CD9F8000003689B680E
:1056D000984714F8011F0029F6D19248FBF768F8A3
:1056E0002A21914CD9F8000003689B68984714F868
:1056F000011F0029F6D18D48FBF75AF82A218C4C5E
:10570000D9F8000003689B68984714F8011F002926
:10571000F6D18848FBF74CF82A21874CD9F80000CD
:1057200003689B68984714F8011F0029F6D1834845
:10573000FBF73EF82A21824CD9F8000003689B68E9
:10574000984714F8011F0029F6D17E48FBF730F87E
:105750002A217D4CD9F8000003689B68984714F80B
:10576000011F0029F6D179480391FBF721F865481C
:10577000FBF71EF8764B0399764D1970764B05931F
:10578000764B0493764B039A002401320392002B4C
:1057900000F08B80FAF744FF2D21724ED9F80000FB
:1057A00003689B68984716F8011F0029F6D10398F3
:1057B000FAF726FFD9F800002E210368661C9B68C3
:1057C00098473046FAF71CFF2021674FD9F80000B0
:1057D00003689B68984717F8011F0029F6D155F810
:1057E00024301F68397841B1D9F8000003689B68FC
:1057F000984717F8011F0029F6D15C48FAF7D8FF3F
:105800004FF4C870FCF744FF002355F82470CBE92F
:105810000033CBE90233CBF81030554A7968C8F829
:1058200000208AF8003001B18847FB689847BB68C0
:1058300003B19847FEF7F4F89AF80030002B3ED0F9
:105840002D214C4FD9F8000003689B68984717F842
:10585000011F0029F6D1484B484F1868FAF7D0FECF
:105860002021D9F8000003689B68984717F8011FAA
:105870000029F6D1D8F800303D4A93420BD917469B
:10588000D9F8000017F8011B03689B689847D8F8FF
:1058900000309F42F4D33A48FAF78AFF05EB8403BD
:1058A0005B683446002B7FF475AF049D5DB1059AAB
:1058B0002B68114651F8042F0492059163E7314893
:1058C000FAF776FFEAE7FAF7ABFE0E48FAF770FF51
:1058D00046212D4CD9F8000003689B68984714F8BE
:1058E000011F0029F6D11A4B1B781BB92748FAF77C
:1058F0005FFFB7E62648FAF75BFFB3E60008014012
:10590000B8080020005C0008885D0008A45D00085D
:10591000A05C0008A85D0008B45C0008B05D000849
:10592000C85C0008C85D0008DC5C0008105E000868
:10593000F05C0008185E0008045D0008245E0008A2
:10594000185D00083C5E00082C5D0008685E0008D9
:10595000A0110020E05F0008845F0008F05F0008ED
:1059600030670008405D0008505D00087C5E00085C
:10597000E0110020545D0008AC0A00206C5D0008B6
:10598000805E0008845E0008705D0008905E00087C
:10599000985E000800000000000000000000000009
:1059A0001B4B1A46196841F00101196013689807EA
:1059B000FCD500201368164903F0F903136050600A
:1059C0004B6813F00C0FFBD10B68114A43F4803382
:1059D0000B6013689903FCD553680D4943F4E81331
:1059E0005360136843F0807313600B689B01FCD510
:1059F0001222084B084848601A604B68044A43F07A
:105A000002034B60536803F00C03082BFAD1704774
:105A1000001002400020024000641D000000000051
:105A200038B52022034682F311880E4A9469606AD1
:105A300004F12405A842236206D003686362FBF7E1
:105A4000F7F8606AA842F8D1637F9B0704D1D4E9D4
:105A500004231A61226953610F20BDE83840FBF727
:105A600087BF00BF300900200000000000000000D8
:105A7000FFF7D6BF0000000000000000000000009B
:105A8000FBF70EBD00000000000000000000000059
:105A9000FEE700BF00000000000000000000000062
:105AA000704700BF00000000000000000000000080
:105AB000626C696E6B6572000000000000000000FF
:105AC000756E68616E646C6564206578636570747A
:105AD000696F6E0000000000000000000000000080
