:020000040800F2
:1000000000040020C1010008A1100008A110000890
:10001000A1100008A1100008A1100008A1100008FC
:10002000A1100008A1100008A11000087104000828
:10003000A1100008A1100008A1100008A1100008DC
:10004000A1100008A1100008A1100008A1100008CC
:10005000A1100008A1100008A1100008A1100008BC
:10006000A1100008A1100008A1100008C10B000891
:10007000810B0008410B0008010B0008C10A0008B1
:10008000810A0008410A0008910E0008A11000082A
:10009000A1100008A1100008A1100008A11000087C
:1000A000A1100008A1100008A1100008A11000086C
:1000B000410F0008A1100008A1100008A1100008BD
:1000C000A1100008A1100008A1100008A11000084C
:1000D000A1100008A1100008A1100008A11000083C
:1000E000A1100008A1100008A1100008A11000082C
:1000F000A1100008A1100008A1100008010A0008C2
:10010000A1100008A1100008A1100008A11000080B
:10011000A1100008A1100008A1100008A1100008FB
:10012000C109000881090008410900080109000807
:10013000C1080008A1100008A1100008A1100008C3
:10014000A1100008A1100008A1100008A1100008CB
:10015000810800084108000801080008A1100008F3
:10016000A1100008A1100008A1100008A1100008AB
:10017000A1100008A1100008A1100008A11000089B
:10018000A1100008A1100008A1100008A11000088B
:10019000A1100008A1100008A1100008A11000087B
:1001A000A1100008A1100008A1100008A11000086B
:1001B000A1100008A1100008A1100008A11000085B
:1001C00072B6214880F30988022080F31488BFF3B7
:1001D0006F8F00F0ADFF4FF055301C491C4A914223
:1001E0003CBF41F8040BFAE71A49174A91423CBF59
:1001F00041F8040BFAE71849184A194B9A423EBFD6
:1002000051F8040B42F8040BF8E700201549164A90
:1002100091423CBF41F8040BFAE702F0A9F8134CF5
:10022000134DAC4203DA54F8041B8847F9E701F098
:100230007FFB104C104DAC4203DA54F8041B884786
:10024000F9E702F08DB8000000080020000000204F
:100250000004002000040020D0270008000800202F
:10026000000800200008002080600020C001000875
:10027000C0010008C0010008C00100080000000023
:100280002DE9F04FC1F80CD0D0F80CD0BDE8F08FBC
:1002900000F0FEFF00F0ACFF002383F31188284636
:1002A000A047002001F01CFA00F0AAFF01F020F89E
:1002B00000F0AEFF00F0ECFF00F09AFF00DFFEE779
:1002C000FEE700BF0000000000000000000000008A
:1002D00072B6024B024ADA62FEE700BFD82800205D
:1002E000B026000800000000000000000000000030
:1002F00072B6014BD862FEE7D8280020000000004B
:1003000011F00C0F00D1704772B6024B024ADA624C
:10031000FEE700BFD8280020A0270008000000004A
:10032000002854D0F0B42C4F457AD7F800C00126ED
:1003300006FA05F414EA0C0F47D1284E44EA0C04DF
:1003400006EBC50C14F0FF0F3C6046F83520CCF8E6
:10035000043004D0224D2B6B43F400132B6314F4B0
:100360007F4F2AD103681C6824F01F041C601C689E
:1003700014F00104FBD1077A46683D25BD402127D2
:1003800035601C605F61F2B1807A43099B0000F127
:10039000604503F160430A0103F5614300F01F006B
:1003A00005F5614501218140D2B285F80023204640
:1003B000C3F880111960F0BC7047094C236B43F4FB
:1003C00080032363CEE71046F5E73046F3E772B6C5
:1003D000044B054ADA62FEE7502F0020D02E0020A1
:1003E00000380240D8280020402500080000000006
:1003F0004FF08043DA68920701D55863704772B6B0
:10040000014B024ADA62FEE7D8280020E024000807
:10041000202383F31188114B5B6813F4006302D12E
:1004200083F31188704780B400AFEFF309834FF076
:10043000807243F8042CA3F1200282F30988084A51
:10044000116892698968926891428CBF054A064A90
:1004500043F8082CBD4680BC704700BF00ED00E0AB
:10046000D8280020A9020008BC02000800000000F3
:1004700080B400AFEFF30983203383F309880023AE
:1004800083F31188BD4680BC704700BF00000000A8
:10049000034AD2F8A8340133C2F8A834704700BF29
:1004A000D82800200000000000000000000000002C
:1004B0000E4B42685B68F0B48B60D0E90261D0E912
:1004C00004459B1BE61845F1000701319342C0E942
:1004D0000231C0E9046705D80268934238BF03605F
:1004E000F0BC70474360F0BC704700BF001000E0F4
:1004F0000F4B104A5B68C168F0B48468D2F8A064FE
:1005000042681B1BD0E904459B1BE61845F1000718
:1005100001319342C0E90231C0E9046705D802689D
:10052000934238BF0360F0BC70474360F0BC704733
:10053000001000E0D82800200000000000000000AB
:100540000148FFF7D5BF00BFA02D0020000000002C
:10055000014B5B6883607047001000E00000000002
:100560000148FFF7F5BF00BFA02D002000000000EC
:100570000B4A30B4D36B446A91694FF080456D6A81
:100580001D60C3E9011490F820101973103302F5AF
:1005900088618B4228BF02F14003D36330BC7047AF
:1005A000D82800200000000000000000000000002B
:1005B000054B1A6B1AB95A6B002A00DD704772B6E8
:1005C000024ADA62FEE700BFD828002000270008B0
:1005D000054B1A6B002A03DB5A6B002A00DD7047BB
:1005E00072B6024ADA62FEE7D8280020F026000838
:1005F00008B5FFF7EDFFD0B190F8203001468BB180
:100600000F2B0FD000220C4B806881F820201B6834
:100610009A688242FBD25A680846C1E900321160EA
:10062000596008BD72B6044B044ADA62FEE772B63E
:10063000014B024ADA62FEE7D82800206024000855
:10064000036873B193F82020032A04D072B6054BD7
:10065000054ADA62FEE70022026018465962FFF797
:10066000C7BF7047D8280020A02400080000000061
:1006700010B5FFF7ADFFC368002B2FD01C4AD3691C
:1006800083420ED0D0E900310B6003681C32002495
:1006900093425960C46003D081689A680A449A60A2
:1006A00010BD1046196840F81C1F002481424860A4
:1006B000DC6018D098688B68926A03444FF08040E1
:1006C0008B60406A821A9342EAD99B1A022B2CBF94
:1006D000C0180230BDE81040FFF78ABE72B6044B66
:1006E000044ADA62FEE74FF08043DC6010BD00BFD1
:1006F000D82800207024000800000000000000003E
:100700002DE9F041214D044698461046FFF760FF61
:10071000AC464FF080465CF81C7F6745C4E903088F
:10072000706A1DD0AB6ABA680844C11A8A4201D9FE
:10073000FFF75EFEEB699A688A4204D21B68891A49
:100740009A688A42FAD35A68C4E9003214605C603D
:10075000A1609A684FF0FF30521A9A6068620EE00A
:10076000A862C5E90744A160F36813F00203C4E975
:100770000077084405D1022270633361F260BDE85E
:10078000F08172B6024BEB62FEE700BFD828002072
:10079000B02400080000000000000000000000007D
:1007A000202383F31188074B1A6B002A01DD596B54
:1007B00019B172B6044ADA62FEE7013A1A6381F3AC
:1007C00011887047D828002070250008000000001C
:1007D000202383F31188074B1A6B002A01DB596B26
:1007E00019B172B6044ADA62FEE701321A6381F384
:1007F00011887047D82800206025000800000000FC
:1008000010B5FFF745FEFFF7E3FF094B09485968AC
:10081000826F890D01F03D018C05DC600AB1C06F6B
:100820009047FFF7BDFFBDE81040FFF7F1BD00BFE7
:1008300000640240D02E00200000000000000000F4
:1008400010B5FFF725FEFFF7C3FF094B09485968AC
:10085000026F090C01F03D010C04DC600AB1406F2D
:100860009047FFF79DFFBDE81040FFF7D1BD00BFE7
:1008700000640240D02E00200000000000000000B4
:1008800010B5FFF705FEFFF7A3FF094B09485968AC
:10089000826E890901F03D018C01DC600AB1C06EF5
:1008A0009047FFF77DFFBDE81040FFF7B1BD00BFE7
:1008B00000640240D02E0020000000000000000074
:1008C00008B5FFF7E5FDFFF783FF084B08485968B7
:1008D000026E01F03D01D9600AB1406E9047FFF70A
:1008E0005FFFBDE80840FFF793BD00BF0064024012
:1008F000D02E0020000000000000000000000000DA
:1009000010B5FFF7C5FDFFF763FF094B09481968EC
:10091000826D890D01F03D018C059C600AB1C06DAE
:100920009047FFF73DFFBDE81040FFF771BD00BFE6
:1009300000640240D02E00200000000000000000F3
:1009400010B5FFF7A5FDFFF743FF094B09481968EC
:10095000026D090C01F03D010C049C600AB1406D70
:100960009047FFF71DFFBDE81040FFF751BD00BFE6
:1009700000640240D02E00200000000000000000B3
:1009800010B5FFF785FDFFF723FF094B09481968EC
:10099000826C890901F03D018C019C600AB1C06C38
:1009A0009047FFF7FDFEBDE81040FFF731BD00BFE7
:1009B00000640240D02E0020000000000000000073
:1009C00008B5FFF765FDFFF703FF084B08481968F6
:1009D000026C01F03D0199600AB1406C9047FFF74D
:1009E000DFFEBDE80840FFF713BD00BF0064024012
:1009F000D02E0020000000000000000000000000D9
:100A000010B5FFF745FDFFF7E3FE094B09485968AC
:100A1000826B890D01F03D018C05DC600AB1C06B71
:100A20009047FFF7BDFEBDE81040FFF7F1BC00BFE7
:100A300000600240D02E00200000000000000000F6
:100A400010B5FFF725FDFFF7C3FE094B09485968AC
:100A5000026B090C01F03D010C04DC600AB1406B33
:100A60009047FFF79DFEBDE81040FFF7D1BC00BFE7
:100A700000600240D02E00200000000000000000B6
:100A800010B5FFF705FDFFF7A3FE094B09485968AC
:100A9000826A890901F03D018C01DC600AB1C06AFB
:100AA0009047FFF77DFEBDE81040FFF7B1BC00BFE7
:100AB00000600240D02E0020000000000000000076
:100AC00008B5FFF7E5FCFFF783FE084B08485968B7
:100AD000026A01F03D01D9600AB1406A9047FFF710
:100AE0005FFEBDE80840FFF793BC00BF0060024016
:100AF000D02E0020000000000000000000000000D8
:100B000010B5FFF7C5FCFFF763FE094B09481968EC
:100B10008269890D01F03D018C059C600AB1C069B4
:100B20009047FFF73DFEBDE81040FFF771BC00BFE6
:100B300000600240D02E00200000000000000000F5
:100B400010B5FFF7A5FCFFF743FE094B09481968EC
:100B50000269090C01F03D010C049C600AB1406976
:100B60009047FFF71DFEBDE81040FFF751BC00BFE6
:100B700000600240D02E00200000000000000000B5
:100B800010B5FFF785FCFFF723FE094B09481968EC
:100B90008268890901F03D018C019C600AB1C0683E
:100BA0009047FFF7FDFDBDE81040FFF731BC00BFE7
:100BB00000600240D02E0020000000000000000075
:100BC00008B5FFF765FCFFF703FE084B084A1968F4
:100BD00001F03D01996013680BB150689847FFF729
:100BE000DFFDBDE80840FFF713BC00BF0060024016
:100BF000D02E0020000000000000000000000000D7
:100C0000064B1A6B002A05DD5A6B002A02DD002212
:100C10005A63704772B6024ADA62FEE7D8280020AB
:100C2000B0250008000000000000000000000000E7
:100C3000064B1A6B002A01DD5A6B1AB172B6044AD0
:100C4000DA62FEE701225A63704700BFD82800200D
:100C500090250008000000000000000000000000D7
:100C600011F00C0F38B53AD1426A1368196821F0B7
:100C70001F0119601968CC07FCD4157A036A5468FF
:100C80001A683D21A9402160116821F01F011160FF
:100C90001168C907FCD44268596812680446187A7A
:100CA0003D2383400B60FAB1042323702046904714
:100CB0002378042B18D0202383F31188FFF750FCEE
:100CC000FFF7B6FF04F108000021FFF7B9FCFFF7BA
:100CD00097FFFFF735FC002383F3118838BD72B608
:100CE000034B044ADA62FEE702232370E3E700BF06
:100CF000D8280020A0270008000000000000000005
:100D000011F00C0F2DE9F0410446056935D0C06A99
:100D100003681A6822F01F021A60196811F00101B5
:100D2000FBD1077A4668AD68A36A3D22BA4001202C
:100D3000326059609960986045B105232370204660
:100D4000A8472378052B04BF0223237000252561C3
:100D5000202383F31188FFF703FCFFF769FF04F1F9
:100D600014004FF0FF31FFF76BFCFFF749FFFFF76F
:100D7000E7FB85F31188BDE8F081002DFBD08A06E2
:100D800011D52B786E68CBB1002EF4D0D0E90212C9
:100D9000012A45D96B885208540004FB03113346DD
:100DA000BDE8F0411847CB06E5D56B68002BE2D0D3
:100DB000D0E90212BDE8F04152081847C06A026843
:100DC000136823F01F031360136813F00103FBD1B2
:100DD000077A4568A26A3D21B94001202960536025
:100DE0009360906006B304232370D4E90212204676
:100DF000B0472378042B17D0202383F31188FFF703
:100E0000AFFBFFF715FF04F114000021FFF718FCFA
:100E1000FFF7F6FEFFF794FB002383F31188AAE7A0
:100E20003346BDE8F04118470222002322702361B7
:100E3000E2E700BF0000000000000000000000002A
:100E400008B5202383F31188FFF78AFBFFF7F0FE34
:100E5000FFF7BEFB0948C3680BB1FFF709FC084B5D
:100E6000084A06486421FFF74BFCFFF7C9FEFFF76D
:100E700067FB002383F3118808BD00BFC40800206E
:100E8000A0260008F1020008000000000000000099
:100E9000F8B5FFF7FDFAFFF79BFC234B1A6800211A
:100EA0001960930639D5214CE16A0A685368002B12
:100EB00033D02569002D30D0136823F01F03136051
:100EC000136813F00103FBD10F7A4E68AD68A26A74
:100ED0003D20B8400121306053609360916045B17E
:100EE000052323701148A8472378052B04BF02234C
:100EF000237000252561202383F31188FFF730FB41
:100F0000FFF796FE4FF0FF310948FFF799FBFFF717
:100F100077FEFFF715FB85F31188FFF741FCBDE86D
:100F2000F840FFF775BA00BF00200140000800201C
:100F30001408002000000000000000000000000075
:100F40002DE9F0474FF08046FFF7A2FAFFF740FC8B
:100F500033699B0705D4FFF723FCBDE8F047FFF793
:100F600057BA002737614FF0200888F311882E4CBC
:100F7000FFF7F6FAFFF75CFEFFF72AFBFFF728FB07
:100F8000E569736AA16AAA68581A904249D3B946BA
:100F9000374604F11C062B68D5F80CA01144B34267
:100FA000A1625E60E361C5F80C9008BFC7F80C90C1
:100FB000FFF726FEFFF7C4FA89F311882869D047A6
:100FC00088F31188FFF7CCFAFFF732FEE5697B6AF8
:100FD000A16AAA68581A8242DDD9B54214D01144D8
:100FE000C91A02292CBF5918991C0846FFF700FAA4
:100FF0004FF08043A06A5A6A0B1A121A9A4203D918
:1010000072B60A4BE362FEE7FFF7FAFDFFF798FAC4
:10101000002383F31188FFF7C3FBBDE8F047FFF718
:10102000F7B904F11C06D8E7D828002040240008AE
:1010300008B50146202383F31188FFF791FAFFF7E3
:10104000F7FD91F82030072B10D8DFE803F0150FDB
:101050000F1D0A040F0A486AFFF7BAFA83680133C2
:101060008360D1E900231A600A6853604FF0FF33B0
:101070004B620846FFF7BCFAFFF7C2FDFFF760FAC4
:10108000002383F3118808BD4B6A00221A604FF0D9
:10109000FF334B620846FFF7ABFAEDE700000000B4
:1010A00072B6024B024ADA62FEE700BFD82800207F
:1010B0008026000800000000000000000000000082
:1010C00038B5164CFFF774FAA569236885F8200037
:1010D0001A68226001215460284683F82010A36119
:1010E000FFF746FAD4F8AC34A169013305F14800A2
:1010F0004831C4F8AC34FFF7DBF9EFF30983EA6950
:10110000243B9A4205D82946A069BDE83840FFF73C
:10111000B7B872B6024BE362FEE700BFD8280020E2
:101120001027000800000000000000000000000080
:101130002A4B2B4A4FF080504FF440411864116005
:101140001A6842F001021A601A689207FCD5996881
:10115000224A21F00301996099689960936813F01D
:101160000C03FBD110681D4900F0F900106093607A
:10117000136843F4803313600B689803FCD54B6FFE
:10118000164A43F001034B67536F9907FCD5154B83
:1011900053601368124943F0807313604B685A041C
:1011A000FCD50E490B689B01FCD50F4B0F4A8A609A
:1011B00040F205721A608B68084A43F002038B60A4
:1011C000936803F00C03082BFAD1536C43F480436B
:1011D0005364536E43F480435366704700380240B3
:1011E0000070004008544007003C0240009408385A
:1011F0000148FFF77DB900BF882D002000000000E6
:101200000148FFF7A5B900BF882D002000000000AD
:1012100070B51B4C2268A5691368AE682360012075
:1012200000215C6082F82000A26185F8201000E0B7
:101230001B689A689642FBD35A682846C5E9003273
:1012400015605D60FFF794F9D4F8AC34A1690133FF
:10125000483105F14800C4F8AC34FFF729F9EFF341
:101260000983EA69243B9A4205D82946A069BDE86A
:101270007040FFF705B872B6024BE362FEE700BFAD
:10128000D8280020102700080000000000000000FF
:10129000054B1A6B22B9596B002901DD5A6370475F
:1012A00072B6024ADA62FEE7D8280020A0250008BC
:1012B00008B5FFF7EDFFFFF79BFF084B1A689A424E
:1012C00004D0996992688968914203D3002383F31B
:1012D000118808BD72B6024ADA62FEE7D8280020FB
:1012E00020240008000000000000000000000000B2
:1012F000054B1A6B0AB95A6B1AB172B6034ADA6215
:10130000FEE701225A637047D82800208025000894
:10131000F8B50446202383F31188FFF771FFFFF728
:10132000E7FF23785A1E012A04D972B65A4B5B4A4A
:10133000DA62FEE75A4A6260012B27D0D4E90A013B
:10134000E36920F4F04021F4F041C4E90A01528934
:10135000002042F44172072118601A6059601A682F
:10136000022142F040021A602170FFF791FFFFF75F
:101370003FFF494B1A689A4204D09969926889687C
:10138000914228D3002383F31188F8BD454B9C423A
:101390004FD0454B9C4238D0444B9C421FD0D4E99F
:1013A000080162680E68E369D0F800C05789D4E983
:1013B0000A0103F10C053F05CCF80850B56020F494
:1013C000F04621F4F045BCD546F4205645F42055AE
:1013D000C4E90A65BBE772B6354ADA62FEE723461E
:1013E000344A206A0A21FEF79BFF002844D1234695
:1013F000314A606A0A21FEF793FF002837D12F4A4D
:10140000136C43F400431364C9E72346294A206A56
:101410000A21FEF785FF28BB2346274A606A0A2176
:10142000FEF77EFFC8B9254A136C43F4804313646A
:10143000B5E723461F4A206A0A21FEF771FF28BB41
:1014400023461D4A606A0A21FEF76AFFC8B91B4A93
:10145000536C43F480535364A1E772B60E4B184AA1
:10146000DA62FEE772B60C4B154ADA62FEE772B634
:10147000094B134ADA62FEE772B6074B104ADA628A
:10148000FEE772B6044B0E4ADA62FEE772B6024B12
:101490000B4ADA62FEE700BFD8280020D0240008FB
:1014A0004027000834080020640800209408002029
:1014B00030240008610C00080103000800380240D5
:1014C00000250008000000000000000000000000EF
:1014D00010B50146202383F31188FFF791FEFFF733
:1014E00007FFFFF775F81148114B04681A68CB1D08
:1014F00023F00703121B93429ABF1B1903600024B9
:10150000FFF7C6FEFFF774FE0A4B1A689A4204D032
:10151000996992688968914204D3002383F3118802
:10152000204610BD72B6044ADA62FEE7582F00204A
:10153000542F0020D82800201024000800000000AC
:101540002DE980485E4D5F49AA69ADF5077D00230E
:1015500046AC916104930646234686A91A1B03F8FC
:10156000012B8B42FAD1DFF870B1DFF870A10DF1D9
:10157000180906F10808202787F31188FFF740FEB5
:10158000FFF7B6FEFFF724F8049B13B101A8FFF79D
:101590006FF85B465246642101A8FFF7B1F8FFF7E8
:1015A00077FEFFF725FE2B68AB4204D0AA699B6843
:1015B00092689A4217D3002383F31188BEB187F350
:1015C0001188FFF71DFEFFF793FE3378022B03D03F
:1015D00072B63D4BEB62FEE773681B685BB172B697
:1015E000394BEB62FEE772B6384BEB62FEE772B640
:1015F000354BEB62FEE7D6E9082303203070D6F8BE
:1016000028C0F16A12681B68C2F80C904FF4807E03
:101610004CF4806C41F48061C2F804E0C2F800C070
:10162000DC60C3F804E019601168D6F808C041F026
:10163000010111601A68A96942F001021A60BCF147
:10164000000F03D072B6224BEB62FEE7B160C1F827
:101650002480FFF735FDFFF71BFEFFF7C9FD2B6860
:10166000AB4204D0AA699B6892689A421FD30023B8
:1016700083F3118887F31188FFF7C2FDFFF738FE67
:10168000FEF7A6FF049B13B101A8FEF7F1FFFFF7D9
:10169000FFFDFFF7ADFD2B68AB4204D0AA699B6844
:1016A00092689A4207D3002383F3118864E772B6E5
:1016B000084BEB62FEE772B6044BEB62FEE700BF3D
:1016C000D8280020B0270008302500085024000842
:1016D0009024000830240008C0270008F102000808
:1016E00008B50146202383F31188114DFFF788FDCB
:1016F000FFF7FEFDAC69A06A616204F12806B04202
:1017000006D00268A262FEF773FFA06AB042F8D169
:1017100094F821309B0704D1D4E904231A6122698B
:1017200053610F20FFF7CCFC72B6024BEB62FEE771
:10173000D8280020802400080000000000000000DD
:1017400010B5014686B0202383F31188154CFFF7AE
:1017500057FDFFF7CDFDFEF72BFFA369124A01A845
:10176000FEF7CEFF0820FFF7ABFCFEF731FF049B2E
:1017700013B101A8FEF77CFFFFF78AFDFFF738FDE4
:101780002368A34204D0A2699B6892689A4204D35A
:10179000002383F3118806B010BD72B6034BE362D9
:1017A000FEE700BFD8280020311000080024000800
:1017B00008B5094B094A9B69094C9A614FF40055D9
:1017C0002E46268341F28830FFF7BAFF658341F247
:1017D0008830FFF7B5FFF4E7D8280020F023000891
:1017E000000C0240000000000000000000000000AB
:1017F0002DE9F843044600F1600605461746994670
:10180000FF2005F8010BAE42FBD16018A84205D9B4
:101810002A46552302F8013B9042FBD1202383F353
:101820001188FFF7EDFCFFF763FDFEF7D1FE2439C9
:101830006218E260374E44F80190374B08995160C6
:1018400013622661726962610021022004F128039B
:101850004FF00108A76027642084C4E90E11A1613C
:1018600004F12C0C4FF0FF3084F8228004F148077B
:1018700014610022A3620023C4E91623C4E91311F2
:101880006165A064C4E90BCC3846E5617461FEF77C
:101890005FFEFEF78DFEB069A268836861629A42BE
:1018A00030D9FEF7A5FE84F820800546B461FEF726
:1018B0005FFED6F8AC34394601334830C6F8AC3454
:1018C000FEF7F6FDEFF30983EA69243B9A4215D847
:1018D00029462046FEF7D4FCFFF7DAFCFFF788FC28
:1018E0003368B34204D0B2699B6892689A420DD3C0
:1018F000002383F311882046BDE8F88372B6074BB6
:10190000F362FEE72046FEF773FEE5E772B6044B8E
:10191000F362FEE7D8280020910200081027000893
:10192000002400080000000000000000000000008B
:101930001A4B1B4C1A694FF0FF3100222DE98048E9
:1019400019611A61586959615A61186A60F08050CA
:1019500018621A62586A59625A62196C41F08051D1
:101960001964216841F480712160196F01F440719C
:10197000B1F5007F8BB003D04FF4803119671A673F
:10198000074C084D6368084A0849094823F4007366
:10199000636000242C60234625460DE00038024099
:1019A00000700040502F0020CC250008106002403D
:1019B000D02E002052F80C1C0D6040F8335001333B
:1019C000102B02F10C02F5D1DFF89CB3D34ADFF8FB
:1019D0009CA302934FF0FF31CBF80810CBF80C100A
:1019E0009160D160DAF83020DFF88483DFF884E397
:1019F000DFF884C3CA4FCB4CCB48CC4EDFF87C9386
:101A000040F2FF1B42EA0B02CAF83020DAF85020FD
:101A100042EA0B0BCAF850B06FF4A84BC8F8045058
:101A2000C8F808B0DFF858B3C8F80CB04FF6FF722A
:101A3000DFF850B3C8F81420C8F820B0DFF848B376
:101A4000C8F824B00BF12A5B0BF5B01BC8F800B046
:101A50004FF41078CEF80480DFF830B3CEF80810D9
:101A60004FF08068CEF80CB0CEF81420CEF820806D
:101A7000DFF81C834023CEF82430CEF8008008F134
:101A8000AA48A8F54308A8F62C38CCF80450CCF89E
:101A90000810CCF80C804FF0C048CCF81420CCF8DB
:101AA0002080DFF8F082CCF82480DFF8EC82CCF8DC
:101AB0000080DFF8E8C27D60B960C7F80CC040F66E
:101AC000FF7CC7F814C0DFF8D8C23D627D62C7F85A
:101AD00000C06560A160E5606261256265622360A7
:101AE00045608160C5604261056245620560C4F879
:101AF0000458C4F80818C4F80C58C4F81428C4F8DA
:101B00002058C4F82458C4F80058894C894BDFF891
:101B100094C2DFF89482884F0EF5C05E9034CEF800
:101B20000450A0F57440CEF80810CEF80C50CEF852
:101B30001420CEF82050CEF82450CEF800505D602E
:101B40004FF0600E9960DD6075605A611D62B5608E
:101B50005D62F5601D60794BF462903C4FF0010BC3
:101B6000B0624FF4802206F118007444C6E90455AF
:101B70003562C6F830C0B06186F800B083F812E371
:101B8000C3F8802104F1240EF0611A60C9F82040E6
:101B90006B4A6C4CDFF814C2C9F8145009F10C0000
:101BA000C9E90A42C9E90155C9F81CC0C9F824E0CD
:101BB000C9E9030089F800B088F800B087F800B0E0
:101BC000DAF84020604CC8F8045042EA0B02C8F82A
:101BD0000850CAF84020A0685C4AC8F81C2040EAB7
:101BE0000B0C5348386200F12402C8F8202000F1A1
:101BF00030025430C8F8242078624FF080425448B4
:101C0000F86142F2CF00C8F81450C7E901557D6170
:101C1000DFF89CE1C4F808C0906208F10C04DFF81A
:101C200094C14C48D162C8F80C409561C8F8104086
:101C3000556307F10C04C8F828C0D560C7F828C060
:101C400055604FF0800CC8F82C00C2F814B0F86250
:101C50004FF08050C2F800B0C7E9034483F81CC3BA
:101C6000C3F880011860CEF80850DEF80C003A4A3C
:101C7000DFF844C14FF6FF0420400243CEF80C20A9
:101C8000D3F8FC2C354C42F08072C3F8FC2CDCF805
:101C900000209DF80830646042EA0B02CCF8002076
:101CA0008EF81F3004F11C024FF020038EF8223012
:101CB00004A80023C4E9072224600022CDE904150A
:101CC000CDE9082361620391CDE90655A560A562BF
:101CD000C4F8A054C4E90444FEF73AFC04A8FEF793
:101CE00007FC1F481F4ADFF8D4E00399CEF80850DC
:101CF00020F0070C402022F00703A063C4F848043A
:101D0000C4F880040698029300220023C4F8A004BB
:101D100004F59860C0E9002352E000BF006402406F
:101D2000000C024000100240001402400008002095
:101D3000C0250008002002409408002000E100E0D7
:101D40004600010616000106002004E000380040AD
:101D5000003C0040460001000003FA05D82800209E
:101D6000000002208760002000600240003802402E
:101D70000000024000040240000802403408002035
:101D8000540001400000565500AA0A00154551555F
:101D900080200800000606000180200255505500F2
:101DA00000010055162C020064080020003001409C
:101DB00000ED00E016000100001000E0B02E002051
:101DC00004F59B60C0E9002304F14000E0630220B9
:101DD000A4F860046948029B694A03606948CEF828
:101DE0000C50C2F800C0CEF818500EF11002C4F822
:101DF000A854C4F8AC54C4F8B014C4F8B454C4F82B
:101E0000B854C4F8BC54C4F8C814C4F8CC54C4F8CA
:101E1000D054C4F8D454C4F87C54C4F87854C4F8EA
:101E2000585484F862B4C4F85044CEF80000636992
:101E3000C4F85434CEE9042204F588621A6104F52A
:101E40008D6E04F5936304F5946C6261C4F8881494
:101E500000220021C4F88C54C4F89054C4F894545F
:101E600004F26C45C3E9001204F59160C4F868E41B
:101E7000C4F85CC4C4F86C54C4F87054FEF768FB32
:101E8000236B414984F860B404F58862A261C4F808
:101E90005C140BB9656B1DB172B63C4BE362FEE797
:101EA00085F3118862B6A369394A9A6104F59C608A
:101EB0005A460095374BF821FFF79AFC364B836161
:101EC0004A22364B00954FF4B4713548FFF790FC29
:101ED000202383F31188FFF793F9FFF709FA96F8A7
:101EE00000B00BF1FF33012B03D972B62D4BE36227
:101EF000FEE7BBF1010F756000F0A0810223337093
:101F0000FFF7D6F9284A536843F4000353602023AF
:101F100083F31188FFF774F9FFF7EAF9FEF758FB2E
:101F20002248C3680BB1FEF7A3FB214B214A1F488F
:101F30006421FEF7E5FBFFF7ABF9FFF759F92368DA
:101F4000A34205D0A2699B6892689A42C0F095812D
:101F5000002383F31188202383F31188FFF750F9BE
:101F6000FFF7C6F9FEF734FB3378022B26D0043B8B
:101F7000012B23D972B6104BE362FEE7582F0020E5
:101F8000542F0020D114000800040020502700081E
:101F900020270008C102000858270008B1170008D0
:101FA000185F0020C024000800230140C40800205E
:101FB000A0260008F102000810250008F26AB349C3
:101FC000DFF83CC303233370336B12683161102098
:101FD000F060AF49D16043F484738020B1605060F9
:101FE00013601168B36AAB48AB4E41F00101116058
:101FF00000254FF0D8121D60DA604FF4E0021D6139
:10200000DA6240F211221A6340F20332C3F834C09C
:102010005E609A609860FFF74BF9A048FFF778F987
:102020009F48FFF775F99F48FFF772F99E4BCDF86F
:10203000009041224FF49D619C48FFF7D9FB9A4BD9
:10204000CDF8008041224FF49D619948FFF7D0FB05
:10205000954B009741224FF49D619648FFF7C8FBCE
:102060002B462A4629469448FEF75AF9034600288B
:1020700040F04881024601469048FEF751F9002899
:1020800040F0FF808E4A034602F8013F0133B3F56A
:10209000805FF9D18B4A002383F0AA010133B3F5A5
:1020A000805F02F8011FF7D1DFF834B2DFF82CA20D
:1020B000DFF83092DFF83082834E844D844F002366
:1020C0000793202383F31188FFF79AF8FFF710F99D
:1020D000FEF77EFA079B13B104A8FEF7C9FA7D4B01
:1020E0007D4A642104A8FEF70BFBFFF7D1F8FFF748
:1020F0007FF82368A34205D0A2699B6892689A4240
:10210000C0F00881002383F311884FF4805240F21D
:102110008163C6F808B0C6F80CA072603360C5F8D9
:1021200008B0C5F80C906A602B607368002BFCD176
:10213000336823F01F0333603368D807FCD44FF4AF
:1021400074133B606B68002BFCD12B6823F01F03DA
:102150002B602B68D907FCD44FF074633B604FF4BD
:1021600080525E495E4800F00BF9002840F0D680AE
:102170004FF480525B495A4800F002F9002840F0C1
:10218000D1804FF4805240F28163C6F80880C6F8CF
:102190000CA072603360C5F80880C5F80C906A60C6
:1021A0002B607368002BFCD1336823F01F0333606E
:1021B0003368DA07FCD44FF474133B606B68002B70
:1021C000FCD12B6823F01F032B602B68DB07FCD4AA
:1021D0004FF074633B604FF480524049424800F036
:1021E000CFF8002840F0AA804FF480523D493E4885
:1021F00000F0C6F8002840F09D80202383F311886A
:10220000FEF7FEFFFFF774F8FEF7E2F9079B13B144
:1022100004A8FEF72DFAFFF73BF8FEF7E9FF236865
:10222000A34204D0A2699B6892689A427ED300239D
:1022300083F311881420FFF783FA40E733462B4AD3
:10224000F06A0621FEF76CF800285FD1F36A284A8D
:102250001B6828499A60DAF84430B26A43F4807304
:10226000CAF844304B6803F4400343F480334B60B6
:1022700050609060C2F808B040E672B61E4BE36250
:10228000FEE772B61D4BE362FEE700BFC026000802
:102290005C4F0020030300400001000434080020CC
:1022A00064080020940800204115000860500020B8
:1022B00048550020305A002068260008742600087F
:1022C0005B2F00205B3F0020A0640240B864024006
:1022D0000C64024074270008F1020008D8080020AE
:1022E0005C2F0020D81800205C3F0020010D000862
:1022F0004C200140002301405024000860270008C2
:102300008B2DB61872B60F4BE362FEE772B60E4B1A
:10231000E362FEE772B60D4BE362FEE772B60C4B6A
:10232000E362FEE772B60A4BE362FEE772B6074B62
:10233000E362FEE772B6064BE362FEE772B6044B59
:10234000E362FEE760270008F0240008502400083C
:1023500084270008000000000000000000000000CA
:10236000FEE700BF000000000000000000000000C9
:10237000704700BF000000000000000000000000E7
:10238000032A70B414D940EA0105AD0704460B4690
:1023900022D11D682668AE421946204603F1040387
:1023A00004F1040418D1043A032A20461946F0D84F
:1023B000541E72B102780B789A4208BF641806D096
:1023C0000CE010F8012F11F8013F9A4206D1A1420A
:1023D000F7D1002070BC7047541EEBE7D01A70BCD8
:1023E000704700BF00000000000000000000000077
:1023F000626C696E6B6572000000000000000000F6
:102400006368537973556E6C6F636B000000000056
:102410006368537973556E6C6F636B000000000046
:102420006368537973556E6C6F636B000000000036
:102430006368537973556E6C6F636B000000000026
:1024400063685654446F5469636B49000000000090
:102450006368537973556E6C6F636B000000000006
:102460006368536368526561647949000000000045
:1024700063685654446F52657365744900000000E8
:102480006368546864457869745300000000000074
:10249000636854686453757370656E64530000001C
:1024A0006368546864526573756D65490000000087
:1024B00073745374617274416C61726D000000003A
:1024C00061646353746172740000000000000000D6
:1024D00073706953746172740000000000000000A2
:1024E0007374536574416C61726D000000000000EC
:1024F0006164635F6C6C645F73746172740000008C
:102500007370695F6C6C645F737461727400000057
:102510006164635374617274436F6E76657273693C
:102520006F6E490000000000000000000000000085
:1025300073706945786368616E676500000000002C
:10254000646D6153747265616D416C6C6F6361742D
:102550006500000000000000000000000000000016
:102560005356233800000000000000000000000067
:102570005356233900000000000000000000000056
:10258000535623340000000000000000000000004B
:102590005356233600000000000000000000000039
:1025A000535623350000000000000000000000002A
:1025B0005356233700000000000000000000000018
:1025C000106002400860024000000B0028600240DA
:1025D0000860024006010C004060024008600240B2
:1025E00010020D00586002400860024016030E0001
:1025F000706002400C60024000040F0088600240DE
:102600000C60024006051000A06002400C60024011
:1026100010061100B86002400C60024016072F003F
:102620001064024008640240000838002864024038
:102630000864024006093900406402400864024010
:10264000100A3A005864024008640240160B3B002E
:10265000706402400C640240000C3C00886402403C
:102660000C640240060D4400A06402400C64024069
:10267000100E4500B86402400C640240160F46007C
:10268000756E68616E646C656420657863657074EE
:10269000696F6E00000000000000000000000000F4
:1026A0004144432074696D656F757400000000003B
:1026B000414443206572726F720000000000000008
:1026C00001000800410E0008D102000800000000CF
:1026D00000000040D800D80000000000000070009A
:1026E000110200008B2DB618000000000000000051
:1026F00053562331300000000000000000000000AD
:10270000535623313100000000000000000000009B
:10271000737461636B206F766572666C6F7700000F
:102720006D61696E00160118040460080C1014181D
:102730001C2021220000000000000000000000001A
:1027400000000000000402400C0000000000000037
:10275000535623330000000069646C6500000000DC
:10276000444D4120616C726561647920696E207509
:1027700073650000636F70792074696D656F75749F
:10278000000000007061747465726E206572726F73
:1027900072000000000000000000000000000000C7
:1027A000444D41206661696C75726500000000004F
:1027B000535049206F7665726C6F726400000000A0
:0C27C0005350492074696D656F757400FA
:04000005080001C12D
:00000001FF
