:020000040800F2
:1000000000040020C1000008F10200089106000869
:100010009106000891060008910600089106000864
:100020009106000891060008910600089106000854
:100030009106000891060008910600089106000844
:100040009106000881070008410700089106000892
:1000500091060008F1080008A1080008C10700087F
:100060009106000891060008910600089106000814
:100070009106000891060008910600084109000851
:1000800091060008910600089106000891060008F4
:1000900091060008910600089106000891060008E4
:1000A00091060008910600089106000891060008D4
:1000B00091060008910600089106000891060008C4
:1000C00072B6204880F30988022080F31488BFF3B9
:1000D0006F8F00F0A5FC1C481C491D4A914202DAB2
:1000E00008600431FAE71B49164A914202DA0860B7
:1000F0000431FAE71849194A194B9A4204DA086898
:10010000106004310432F8E700201649164A914283
:1001100002DA08600431FAE701F07AF8134C144D62
:10012000AC4203DA216888470434F9E700F030FD77
:10013000104C114DAC4203DA216888470434F9E7CA
:100140000E4908470006002055555555000000206F
:100150000004002000040020E01400080006002035
:100160000006002000060020AC0B0020C0000008A4
:10017000C0000008C0000008C0000008011200080C
:10018000F0B544464D4656465F46F0B46B46CB60EC
:10019000C3689D46F0BCA046A946B246BB46F0BD2A
:1001A00000F0C6FC62B6281CA047002001F000F851
:1001B00000F0D6FC00F08CFC00F0BAFC014A024BC7
:1001C0001360FEE704ED00E0000000800000000086
:1001D000244AC3005268F0B5D3181C680F2810D801
:1001E00003250F26204A05409446AD0022093240DF
:1001F000AE40AA408108890061448F68B7433A4302
:100200008A6001252A008240D143254214D0174D2F
:10021000A8681043A860A00714D5144CE0681043E8
:10022000E0605B68002B14D0104B186802431A6022
:100230005A6811405960F0BD0C4DA8680840A8608C
:10024000A007EAD4094CE0680840E0605B68002B36
:10025000EAD1064B586802435A601A681140196087
:10026000E9E7C0460006002000000140000401400C
:10027000FEE7C04600000000000000000000000093
:100280008022024B52005A837047C0460008004843
:100290008023DB05DA68920701D55863704772B690
:1002A000014B024ADA62FEE708060020D01200087D
:1002B00080B500AF72B6EFF30983203B83F3098862
:1002C00080225204DA61074A11689269896892684B
:1002D000914203D8044A9A61BD4680BD034A9A619F
:1002E000FAE7C04608060020BC010008B10100087A
:1002F00080B500AFEFF30983203383F3098862B63A
:10030000BD4680BD000000000000000000000000AD
:1003100080210B4AC905D36B496A196091695960FC
:10032000416A99602021415C19738821C90010330A
:1003300051188B4201D313004033D3637047C0463A
:10034000080600200000000000000000000000007F
:10035000054B1A6B002A03D15A6B002A00DD704747
:1003600072B6024ADA62FEE708060020B0130008FF
:10037000054B1A6B002A03DB5A6B002A00DD70471D
:1003800072B6024ADA62FEE708060020A0130008EF
:1003900010B50400FFF7ECFF002C19D02023E25C1D
:1003A000002A10D00F2A0ED00022E254A2680B4B74
:1003B0001B6899689142FBD25A68236062602000F2
:1003C00014605C6010BD72B6044B054ADA62FEE749
:1003D00072B6024B024ADA62FEE7C0460806002007
:1003E0008012000800000000000000000000000073
:1003F00010B50400FFF7BCFFE368002B30D01D4BA5
:10040000D969A1420FD0616822681C330A60226852
:1004100051600021E1609A4204D09168A3688C4643
:100420006344936010BD1C0000200A681C34DA612C
:100430005460C860A24218D0886891689B6A8C4654
:10044000604490608022D205526AD31A9842E9D95A
:10045000C01A022800D202208018FFF719FFE1E736
:1004600072B6044B044ADA62FEE78023DB05D860EB
:10047000D8E7C046080600209012000800000000DF
:10048000F8B5040015001F000E00FFF771FFE560CE
:100490001D4D80232900EA69DB051C312761586A5C
:1004A0008A421DD0AB6A3018C61A9368B34201D98C
:1004B000FFF7EEFEEB699A68B24204D21B68B61AE7
:1004C0009A68B242FAD35A682360626014605C6032
:1004D000A6609A68961B9E6001235B426B620DE0EA
:1004E0000221A862EC612C62A66022606260DA6878
:1004F00030180A4003D158631A61D960F8BD72B64A
:10050000024BEB62FEE7C04608060020B01200086E
:1005100072B6074B1A6B002A02DD596B002903D013
:1005200072B6044ADA62FEE7013A1A6362B67047AD
:100530000806002030130008000000000000000042
:1005400072B6074B1A6B002A02DB596B002903D0E5
:1005500072B6044ADA62FEE701321A6362B6704785
:100560000806002020130008000000000000000022
:10057000064B1A6B002A05DD5A6B002A02DD0022A9
:100580005A63704772B6024ADA62FEE70806002034
:1005900070130008000000000000000000000000D0
:1005A000064B1A6B002A02DD5A6B002A03D072B682
:1005B000034ADA62FEE701225A6370470806002008
:1005C00050130008000000000000000000000000C0
:1005D00070B5040072B6FFF7E3FF2023E35C072B3E
:1005E0000ED8114A9B00D3589F46656AFFF7C0FE9C
:1005F000AB680133AB60226863681A60226853609D
:1006000001235B4263622000FFF7C2FEFFF7B0FFE9
:1006100062B670BD0022636A20001A6001235B424B
:100620006362FFF7B5FEF1E720120008000000004A
:100630008022134B520010B51A8372B6FFF7B0FF39
:10064000FFF796FE0F4CE368002B15D02000FFF754
:10065000CFFEFFF78DFEE368002B02D02000FFF7EE
:10066000C7FEFA210023084AC9002000FFF708FF4F
:10067000FFF77EFF62B610BDFFF77AFEF1E7C046D6
:1006800000080048980B00208102000800000000CC
:1006900072B6024B024ADA62FEE7C0460806002044
:1006A00080130008000000000000000000000000AF
:1006B00070B50600FFF74CFE20220E4CA56923689A
:1006C000AE54196828004C60216001219954A3613F
:1006D000FFF71EFEEFF30983EA69243B9A4204D830
:1006E0002900A069FFF74CFD70BD72B6024BE362B2
:1006F000FEE7C04608060020C01300080000000006
:1007000010B586B0FFF724FE0A4C0B4AA3690B49CB
:1007100001A8FFF7B5FE0820FFF7CAFFFFF728FE84
:10072000049B002B02D001A8FFF762FEA369586A60
:1007300006B010BD08060020D105000850C3000017
:1007400010B57446FFF7FCFE8022084B92025A61F6
:100750008C23074811214268D3589847FFF7D8FEE9
:100760000F3401D0FFF7A4FD10BDC04600040140C6
:100770000006002000000000000000000000000053
:1007800010B57446FFF7DCFE8022084B52025A6116
:100790008423074810214268D3589847FFF7B8FED2
:1007A0000F3401D0FFF784FD10BDC04600040140A6
:1007B0000006002000000000000000000000000013
:1007C00070B57546FFF7BCFE2F4A304B5469234085
:1007D0005361E30604D52E48042143685B6A9847B9
:1007E000A30604D52A4805214368DB6A98476306B7
:1007F00004D52748062143685B6B9847230604D538
:10080000234807214368DB6B9847E30504D520485C
:10081000082143685B6C9847A30504D51C4809214F
:100820004368DB6C9847630504D519480A2143687F
:100830005B6D9847230504D515480B214368DB6D94
:100840009847E30404D512480C2143685B6E98472F
:10085000A30404D50E480D214368DB6E984763045A
:1008600004D50B480E2143685B6F9847230404D5D9
:1008700007480F214368DB6F9847FFF749FE0F35A4
:1008800001D0FFF715FD70BD00040140F0FF00002E
:100890000006002000000000000000000000000032
:1008A00070B57546FFF74CFE0C230C4A5469234083
:1008B0005361630704D50A48022143685B6998477E
:1008C000230704D5064803214368DB699847FFF7EF
:1008D0001FFE0F3501D0FFF7EBFC70BD0004014097
:1008E00000060020000000000000000000000000E2
:1008F00070B57546FFF724FE03230C4A5469234064
:100900005361E30704D50A48002143685B689847B0
:10091000A30704D5064801214368DB689847FFF721
:10092000F7FD0F3501D0FFF7C3FC70BD0004014097
:100930000006002000000000000000000000000091
:10094000F0B5D6464F4646468024C0B5E405774606
:10095000FFF7F6FD23699B070AD4FFF7D9FD0F3790
:1009600001D0FFF7A5FC1CBC90469946A246F0BDFD
:100970000023236172B6FFF713FEFFF7F9FCFFF7C0
:10098000F7FC234D616AEE69AA6AB368881A984237
:1009900022D31C2189460021A94488460EE0FFF796
:1009A000E7FD62B63069D04772B6FFF7F9FDEE6930
:1009B000616AAA6AB368881A83420DD8D3184A4676
:1009C000AB6233685A60F268EB6192464246F2606D
:1009D0004B45E4D1E260E2E70E48864214D09B1812
:1009E0005B1A022B00D202235C182000FFF750FC98
:1009F0008023DB055A6AAB6AD21AE31A9A4203D9FA
:100A000072B6054BEB62FEE7FFF7B2FD62B6A4E7F4
:100A100008060020240600207012000800000000D4
:100A20000121264B1A680A431A6001311A681142E3
:100A3000FCD003215A688A435A605A6809315A60C7
:100A40001E4A53680B40FCD1F92110680140116027
:100A500001215360536B0B435363184A0131536BAD
:100A60001942FCD00121536A0B435362134A0131EE
:100A7000536A1942FCD0A1239B0353600023D36225
:100A80001363802311685B040B43802113600B4ABE
:100A9000890413680B42FCD01121094B196053687B
:100AA0000F390B435360054A0A3153680B40082B3A
:100AB000FBD1012193690B43936170470010024001
:100AC00000200240000000000000000000000000C4
:100AD0002021012070B5134D2A68AC691368A668FF
:100AE0005D605054AA6100222B60625400E01B68D4
:100AF0009A689642FBD35A682360626020001460B3
:100B00005C60FFF705FCEFF30983E269243B9A423E
:100B100004D8A8692100FFF733FB70BD72B6024B01
:100B2000EB62FEE708060020C0130008000000008A
:100B3000064B1A6B002A04D1596B002901DD5A6358
:100B4000704772B6024ADA62FEE7C0460806002025
:100B5000601300080000000000000000000000001A
:100B6000064B1A6B002A02D15A6B002A03D072B6C8
:100B7000034ADA62FEE701225A6370470806002042
:100B8000401300080000000000000000000000000A
:100B9000D54B01219A6AF0B50022D6464F4646460B
:100BA0004942C0B599629A62186919611A61D86898
:100BB000CE490143D9608021DA60D86949050143F3
:100BC000D9618021CA484900046821430160C020DE
:100BD000196A800001400138FF38814203D080212A
:100BE000490219621A628022BF4B1202196A11422D
:100BF00007D18021186A890001431962196A0A43E2
:100C00001A62BC23B848DB034269FC2113439022DB
:100C100043610023A024D205090653609160B549C1
:100C2000A405D160B449B54D51611362536214609B
:100C3000FC24B34AA40053609460B24C8026D46074
:100C40005161136253621360AF4A53609560AF4DB8
:100C5000D560AF4D5561A025ED021362536215605A
:100C6000AC4A53609360D4605161AB4C13625362E1
:100C70001360AA4A53609360D46051610121A84D6A
:100C80001362536213602970C2696B600A43C261C8
:100C9000A448CF248268A4000A4382608022A2482C
:100CA000D205906201204042D06293615363D360C9
:100CB0005360516111609D4A16518024013624020F
:100CC000FF36945114609A4C9A4E226A3240226246
:100CD000994C22001C32A3606062A36224606460AD
:100CE000E2612262954A0830954E073282433260B3
:100CF000944A824394480260944A954893601060F5
:100D0000100010301061506120004030E0638920F5
:100D1000D36093614022C000225038302250A26339
:100D20008C4AA350043AA350203AA3508A23DB00F4
:100D3000E450894B1032E450A018143BE318A05043
:100D4000864A236163618548A3618C23A2182250DF
:100D5000043022500122DB00E152814BE254814BEE
:100D6000814AE250236B002B02D1636B002B03D02E
:100D700072B67E4BE362FEE762B67D4AA3697D4EA2
:100D80009A619A22D200A1183300FF221A7001330F
:100D90008B42FBD1AD22784BD200A1189A46552246
:100DA0001A7001339942FBD172B60027FFF7D8FEC3
:100DB000FFF7DEFA714B724AE250724B724AE25010
:100DC0000433E750714A724BE25001239846922354
:100DD0004246DB00E2503833E2506E4BE750043BB2
:100DE000E750183B994602234A46A35242466A4BB3
:100DF000E2540A3BE750083BE450684A6369A35059
:100E00001E619623664ADB00E250664B664A6661C5
:100E1000A3500432A3505246644BE250FFF798FAB5
:100E2000634BA069E7508368BB4200D01AE1FFF72B
:100E3000AFFA4B464246E2540700A661FFF768FA54
:100E4000EFF30983FA69243B9A4200D912E1390091
:100E50003000FFF795F9FFF76BFE2368A34205D03A
:100E6000A2699B6892689A4200D2FFE062B694231E
:100E7000504ADB00E25072B6FFF772FE2B785A1E22
:100E8000012A03D972B64C4BE362FEE74B4A6A6013
:100E9000012B21D1C522C0212020244B9200995042
:100EA000953AFF3A98501860C620800019504020AB
:100EB00098501860C7208000195080209850186002
:100EC000C12080001950022098501860C220800074
:100ED0001950BC399950196004239946033B0027E7
:100EE000374E984681E0C04600100240FFFFBFFF2A
:100EF0000070004054555565FFFF000000000FF0E2
:100F000000040048555555550008004855555005F2
:100F1000FFFC0000000C00485055555500140048D7
:100F20000006002000580140BF12000000E100E070
:100F300000ED00E0FFFF00FF08060020AC0B0020E2
:100F4000940B002000200020900B0020700B00204C
:100F5000511100087C040000540400006C040000DF
:100F6000620400005C04000000040020D0140008AB
:100F7000D0130008900A0020D80A00209404000032
:100F80004C0B00205405000071020008A10100086C
:100F900064050000C4040000AA0400009C040000D2
:100FA000B80A0020BC0A0020B4040000A404000019
:100FB000AC040000D8140008C0120008F0130008A8
:100FC000000401404146B940CB43326801371A4022
:100FD000326072681A407260B2681A40B260F26899
:100FE0001340F36071611C2F0BD06A68FB009B58A3
:100FF0004A461342E6D038000137FFF7E9F81C2FC4
:10100000F3D102232B70FFF793FD2368A34205D091
:10101000A2699B6892689A4200D279E062B6032383
:1010200001279846424E72B6FFF79AFDFFF768FB1C
:10103000FFF77EFD2368A34204D0A2699B689268F3
:101040009A4269D362B672B6FFF78AFD2B78022BFB
:1010500004D142466B681B6813420FD172B6354B00
:10106000E362FEE73000FFF793F9F4E672B6324B25
:10107000E362FEE772B6314BE362FEE73368BB43DF
:1010800033607368BB437360B368BB43B360F3689A
:10109000BB43F3607761FFF74BFD2368A34204D0A5
:1010A000A2699B6892689A423AD362B672B6FFF719
:1010B00057FDFFF725FBFFF73BFD2368A34204D054
:1010C000A2699B6892689A422ED362B672B6FFF705
:1010D00047FD2B78022B04D142466B681B681342F4
:1010E00003D172B6164BE362FEE70020FFF770F8FB
:1010F000FFF71EFD2368A34204D0A2699B68926893
:101100009A4201D362B68EE772B60E4BE362FEE7F7
:1011100072B60C4BE362FEE772B6074BE362FEE782
:1011200072B6084BE362FEE772B6034BE362FEE77A
:10113000000401400013000840120008C01300081A
:10114000E01200086012000800000000000000002B
:1011500010B5040072B6FFF703FDFFF709F9072287
:10116000E31D93430E490F4A0C681268121B934209
:1011700013D8E3180B60FFF7DBFC0B4B1A689A429D
:1011800004D0996992688968914202D362B62000BE
:1011900010BD72B6054ADA62FEE70024EBE7C046EE
:1011A000940B0020900B002008060020501200082D
:1011B00070B5060072B6FFF7D3FC0F4DAC696662DE
:1011C0002600A06A2836B04206D00368A362FFF763
:1011D000DFF8A06AB042F8D12123E35C9B0704D179
:1011E000226963691A61226953610F20FFF760FA6F
:1011F00072B6024BEB62FEE708060020A012000860
:10120000FEE7C046000000000000000000000000F3
:101210007047C04600000000000000000000000011
:101220000C06000800060008000600081406000866
:10123000F6050008EA05000800060008F6050008A3
:101240006368537973556E6C6F636B000000000028
:101250006368537973556E6C6F636B000000000018
:101260006368537973556E6C6F636B000000000008
:1012700063685654446F5469636B49000000000072
:101280006368536368526561647949000000000037
:1012900063685654446F52657365744900000000DA
:1012A0006368546864457869745300000000000066
:1012B00073745374617274416C61726D000000004C
:1012C00065787453746172740000000000000000BF
:1012D0007374536574416C61726D0000000000000E
:1012E0006578744368616E6E656C456E61626C65AD
:1012F00000000000000000000000000000000000EE
:101300006578744368616E6E656C44697361626C84
:101310006500000000000000000000000000000068
:1013200053562338000000000000000000000000B9
:1013300053562339000000000000000000000000A8
:10134000535623340000000000000000000000009D
:10135000535623360000000000000000000000008B
:10136000535623350000000000000000000000007C
:10137000535623370000000000000000000000006A
:10138000756E68616E646C65642065786365707401
:10139000696F6E0000000000000000000000000007
:1013A0005356233130000000000000000000000010
:1013B00053562331310000000000000000000000FF
:1013C000737461636B206F766572666C6F77000073
:1013D0006D61696E00160118040448080C10141899
:1013E0001C2021220000000000000000000000007E
:1013F00007000000310600080000000000000000A7
:1014000000000000000000000000000000000000DC
:1014100000000000000000000000000000000000CC
:1014200000000000000000000000000000000000BC
:1014300000000000000000000000000000000000AC
:10144000000000000000000000000000000000009C
:10145000000000000000000000000000000000008C
:10146000000000000000000000000000000000007C
:10147000000000000000000000000000000000006C
:10148000000000000000000000000000000000005C
:10149000000000000000000000000000000000004C
:1014A000000000000000000000000000000000003C
:1014B000000000000000000000000000000000002C
:1014C000000000000000000000000000000000001C
:1014D000535623330000000069646C65000000006F
:04000005080000C12E
:00000001FF
