:020000040800F2
:1000000000040020C1010008510C0008510C000838
:10001000510C0008510C0008510C0008510C00084C
:10002000510C0008510C0008510C00086104000834
:10003000510C0008510C0008510C0008510C00082C
:10004000510C0008510C0008510C0008510C00081C
:10005000510C0008510C0008510C0008510C00080C
:10006000510C0008510C0008510C0008310A00081E
:10007000F1090008B10900087109000831090008F8
:10008000F1080008B1080008510C0008510C0008E4
:10009000510C0008510C0008510C0008510C0008CC
:1000A000510C0008510C0008510C0008510C0008BC
:1000B000510B0008510C0008510C0008510C0008AD
:1000C000510C0008510C0008510C0008510C00089C
:1000D000510C0008510C0008510C0008510C00088C
:1000E000510C0008510C0008510C0008510C00087C
:1000F000510C0008510C0008510C00087108000850
:10010000510C0008510C0008510C0008510C00085B
:10011000510C0008510C0008510C0008510C00084B
:1001200031080008F1070008B1070008710700084E
:1001300031070008510C0008510C0008510C000850
:10014000510C0008510C0008510C0008510C00081B
:10015000F1060008B106000871060008510C0008FD
:10016000510C0008510C0008510C0008510C0008FB
:10017000510C0008510C0008510C0008510C0008EB
:10018000510C0008510C0008510C0008510C0008DB
:10019000510C0008510C0008510C0008510C0008CB
:1001A000510C0008510C0008510C0008510C0008BB
:1001B000510C0008510C0008510C0008510C0008AB
:1001C00072B6214880F30988022080F31488BFF3B7
:1001D0006F8F00F085FD4FF055301C491C4A91424D
:1001E0003CBF41F8040BFAE71A49174A91423CBF59
:1001F00041F8040BFAE71849184A194B9A423EBFD6
:1002000051F8040B42F8040BF8E700201549164A90
:1002100091423CBF41F8040BFAE701F0C1FB134CDB
:10022000134DAC4203DA54F8041B8847F9E700F099
:1002300057FE104C104DAC4203DA54F8041B8847AB
:10024000F9E701F0A5BB0000000800200000002035
:100250000004002000040020701C0008000800209A
:100260000008002000080020A4100020C0010008A1
:10027000C0010008C0010008C00100080000000023
:100280002DE9F04FC1F80CD0D0F80CD0BDE8F08FBC
:1002900000F0E6FD00F094FD002383F3118828466A
:1002A000A047002001F044FB00F092FD00F008FEA2
:1002B00000F096FD00F0D4FD00F082FD00DFFEE7C7
:1002C0002DE9F0410022022405260F254FF0010CF4
:1002D000032726E0D0F8208003EA080343EA0E0350
:1002E000036243680CFA02FE23EA0E0343605300E4
:1002F000D0F808E007FA03F3DB430EEA030EC0F878
:1003000008E0D0F80CE003EA0E0EC0F80CE0D0F8DC
:1003100000E003EA0E0323430360490818D0A40059
:10032000013202F0070E4FEA8E0E05FA0EF311F0BD
:10033000010F06FA0EFE6FEA0303EED0072AC9D9B1
:10034000D0F8248003EA080343EA0E034362C8E7B7
:10035000BDE8F08100000000000000000000000087
:10036000FEE700BF000000000000000000000000E9
:10037000704700BF00000000000000000000000007
:1003800011F00C0F1DD10B4611F0200110B50446E1
:100390000CD04268D368CBB1042101709268520836
:1003A000114698472378042B10D010BDDB06FCD5EE
:1003B0004268D368002BF8D09268BDE8104052081C
:1003C000184772B6034B044ADA62FEE70223237031
:1003D00010BD00BF20080020301C000800000000F5
:1003E0004FF08043DA68920701D55863704772B6C0
:1003F000014B024ADA62FEE720080020401A00089A
:10040000202383F31188114B5B6813F4006302D13E
:1004100083F31188704780B400AFEFF309834FF086
:10042000807243F8042CA3F1200282F30988084A61
:10043000116892698968926891428CBF054A064AA0
:1004400043F8082CBD4680BC704700BF00ED00E0BB
:1004500020080020A9020008BC02000800000000DB
:1004600080B400AFEFF30983203383F309880023BE
:1004700083F31188BD4680BC704700BF00000000B8
:10048000034AD2F8A8340133C2F8A834704700BF39
:100490002008002000000000000000000000000014
:1004A0000E4B42685B68F0B48B60D0E90261D0E922
:1004B00004459B1BE61845F1000701319342C0E952
:1004C0000231C0E9046705D80268934238BF03606F
:1004D000F0BC70474360F0BC704700BF001000E004
:1004E0000F4B104A5B68C168F0B48468D2F8A0640E
:1004F00042681B1BD0E904459B1BE61845F1000729
:1005000001319342C0E90231C0E9046705D80268AD
:10051000934238BF0360F0BC70474360F0BC704743
:10052000001000E020080020000000000000000093
:10053000014B5B6883607047001000E00000000022
:100540000B4A30B4D36B446A91694FF080456D6AB1
:100550001D60C3E9011490F820101973103302F5DF
:1005600088618B4228BF02F14003D36330BC7047DF
:100570002008002000000000000000000000000033
:10058000054B1A6B1AB95A6B002A00DD704772B618
:10059000024ADA62FEE700BF20080020F01B0008D4
:1005A000054B1A6B002A03DB5A6B002A00DD7047EB
:1005B00072B6024ADA62FEE720080020E01B00085B
:1005C00008B5FFF7EDFFD0B190F8203001468BB1B0
:1005D0000F2B0FD000220C4B806881F820201B6865
:1005E0009A688242FBD25A680846C1E9003211601B
:1005F000596008BD72B6044B044ADA62FEE772B66F
:10060000014B024ADA62FEE720080020F0190008D8
:10061000202383F31188074B1A6B002A01DD596BE5
:1006200019B172B6044ADA62FEE7013A1A6381F33D
:100630001188704720080020B01A00080000000050
:10064000202383F31188074B1A6B002A01DB596BB7
:1006500019B172B6044ADA62FEE701321A6381F315
:100660001188704720080020A01A00080000000030
:1006700010B5FFF705FFFFF7E3FF094B094859687D
:10068000826F890D01F03D018C05DC600AB1C06FFD
:100690009047FFF7BDFFBDE81040FFF7B1BE00BFB8
:1006A00000640240180E002000000000000000005E
:1006B00010B5FFF7E5FEFFF7C3FF094B094859687E
:1006C000026F090C01F03D010C04DC600AB1406FBF
:1006D0009047FFF79DFFBDE81040FFF791BE00BFB8
:1006E00000640240180E002000000000000000001E
:1006F00010B5FFF7C5FEFFF7A3FF094B094859687E
:10070000826E890901F03D018C01DC600AB1C06E86
:100710009047FFF77DFFBDE81040FFF771BE00BFB7
:1007200000640240180E00200000000000000000DD
:1007300008B5FFF7A5FEFFF783FF084B0848596887
:10074000026E01F03D01D9600AB1406E9047FFF79B
:100750005FFFBDE80840FFF753BE00BF00640240E2
:10076000180E002000000000000000000000000043
:1007700010B5FFF785FEFFF763FF094B09481968BD
:10078000826D890D01F03D018C059C600AB1C06D40
:100790009047FFF73DFFBDE81040FFF731BE00BFB7
:1007A00000640240180E002000000000000000005D
:1007B00010B5FFF765FEFFF743FF094B09481968BD
:1007C000026D090C01F03D010C049C600AB1406D02
:1007D0009047FFF71DFFBDE81040FFF711BE00BFB7
:1007E00000640240180E002000000000000000001D
:1007F00010B5FFF745FEFFF723FF094B09481968BD
:10080000826C890901F03D018C019C600AB1C06CC9
:100810009047FFF7FDFEBDE81040FFF7F1BD00BFB8
:1008200000640240180E00200000000000000000DC
:1008300008B5FFF725FEFFF703FF084B08481968C6
:10084000026C01F03D0199600AB1406C9047FFF7DE
:10085000DFFEBDE80840FFF7D3BD00BF00640240E3
:10086000180E002000000000000000000000000042
:1008700010B5FFF705FEFFF7E3FE094B094859687D
:10088000826B890D01F03D018C05DC600AB1C06B03
:100890009047FFF7BDFEBDE81040FFF7B1BD00BFB8
:1008A00000600240180E0020000000000000000060
:1008B00010B5FFF7E5FDFFF7C3FE094B094859687E
:1008C000026B090C01F03D010C04DC600AB1406BC5
:1008D0009047FFF79DFEBDE81040FFF791BD00BFB8
:1008E00000600240180E0020000000000000000020
:1008F00010B5FFF7C5FDFFF7A3FE094B094859687E
:10090000826A890901F03D018C01DC600AB1C06A8C
:100910009047FFF77DFEBDE81040FFF771BD00BFB7
:1009200000600240180E00200000000000000000DF
:1009300008B5FFF7A5FDFFF783FE084B0848596887
:10094000026A01F03D01D9600AB1406A9047FFF7A1
:100950005FFEBDE80840FFF753BD00BF00600240E6
:10096000180E002000000000000000000000000041
:1009700010B5FFF785FDFFF763FE094B09481968BD
:100980008269890D01F03D018C059C600AB1C06946
:100990009047FFF73DFEBDE81040FFF731BD00BFB7
:1009A00000600240180E002000000000000000005F
:1009B00010B5FFF765FDFFF743FE094B09481968BD
:1009C0000269090C01F03D010C049C600AB1406908
:1009D0009047FFF71DFEBDE81040FFF711BD00BFB7
:1009E00000600240180E002000000000000000001F
:1009F00010B5FFF745FDFFF723FE094B09481968BD
:100A00008268890901F03D018C019C600AB1C068CF
:100A10009047FFF7FDFDBDE81040FFF7F1BC00BFB8
:100A200000600240180E00200000000000000000DE
:100A300008B5FFF725FDFFF703FE084B084A1968C4
:100A400001F03D01996013680BB150689847FFF7BA
:100A5000DFFDBDE80840FFF7D3BC00BF00600240E7
:100A6000180E002000000000000000000000000040
:100A7000064B1A6B002A05DD5A6B002A02DD0022A4
:100A80005A63704772B6024ADA62FEE72008002015
:100A9000F01A000800000000000000000000000044
:100AA000064B1A6B002A01DD5A6B1AB172B6044A62
:100AB000DA62FEE701225A63704700BF2008002077
:100AC000D01A000800000000000000000000000034
:100AD00008B50146202383F311881948FFF728FD44
:100AE000FFF7DEFF91F82030072B10D8DFE803F086
:100AF000150F0F1E0A040F0A486AFFF751FD83689D
:100B000001338360D1E900231A600A6853604FF013
:100B1000FF334B620846FFF753FDFFF7A9FF084874
:100B2000FFF7DEFC002383F3118808BD4B6A002227
:100B30001A604FF0FF334B620846FFF741FDECE7C8
:100B4000E80C002000000000000000000000000091
:100B50002DE9F0474FF08046FFF792FCFFF770FD5C
:100B600033699B0705D4FFF753FDBDE8F047FFF756
:100B700047BC00273761202383F311882F4C04F5ED
:100B80009960FFF7D5FCFFF78BFFFFF709FDFFF733
:100B900007FDE569736AA16AAA68581A904204F1D0
:100BA0001C0925D309F2AC482B68D5F80CA01144D8
:100BB0004B45A162C3F80490E361EF6008BFF760A2
:100BC000FFF756FF4046FFF78BFC87F31188286933
:100BD000D047202383F311884046FFF7A9FCFFF795
:100BE0005FFFE569736AA16AAA68581A8242DBD975
:100BF0004D4514D01144C91A02292CBF5918991C0B
:100C00000846FFF7EDFB4FF08043A06A5A6A0B1AC3
:100C1000121A9A4203D972B6094BE362FEE7FFF754
:100C200027FF0848FFF75CFC002383F31188FFF7D8
:100C3000EFFCBDE8F047FFF7E3BB00BF2008002052
:100C4000E0190008E80C002000000000000000008F
:100C500072B6024B024ADA62FEE700BF20080020AB
:100C6000C01B0008000000000000000000000000A1
:100C700038B5164CFFF784FCA569236885F8200079
:100C80001A68226001215460284683F82010A3616D
:100C9000FFF756FCD4F8AC34A169013305F14800E4
:100CA0004831C4F8AC34FFF7FBFBEFF30983EA6982
:100CB000243B9A4205D82946A069BDE83840FFF791
:100CC000DFBA72B6024BE362FEE700BF20080020E5
:100CD000001C0008000000000000000000000000F0
:100CE000304B314A4FF080504FF44041186411604E
:100CF0001A6842F001021A601A689107FCD59968D7
:100D0000284A21F00301996099689960936813F06B
:100D10000C03FBD11068234900F0F90010609360C8
:100D2000136843F4803313600B689A03FCD54B6F50
:100D30001C4A43F001034B67536F9B07FCD51B4BC9
:100D400053601368184943F0807313604B6858046C
:100D5000FCD5144A13689901FCD5154BC2F88430B0
:100D60001368104943F0806313600B681B01FCD5C6
:100D7000104B114A8A6040F205721A608B68094A6A
:100D800043F002038B60936803F00C03082BFAD145
:100D9000536C43F480435364536E43F4804353666F
:100DA000704700BF00380240007000400854400700
:100DB00000300050003C0240009408380000000061
:100DC0000148FFF78DBB00BFD00C002000000000E1
:100DD0000148FFF7ADBB00BFD00C002000000000B1
:100DE00070B51B4C2268A5691368AE6823600120AA
:100DF00000215C6082F82000A26185F8201000E0EC
:100E00001B689A689642FBD35A682846C5E90032A7
:100E100015605D60FFF794FBD4F8AC34A169013331
:100E2000483105F14800C4F8AC34FFF739FBEFF363
:100E30000983EA69243B9A4205D82946A069BDE89E
:100E40007040FFF71DBA72B6024BE362FEE700BFC7
:100E500020080020001C0008000000000000000026
:100E6000054B1A6B22B9596B002901DD5A63704793
:100E700072B6024ADA62FEE720080020E01A000893
:100E800008B5FFF7EDFFFFF79BFF084B1A689A4282
:100E900004D0996992688968914203D3002383F34F
:100EA000118808BD72B6024ADA62FEE72008002007
:100EB000D019000800000000000000000000000041
:100EC000054B1A6B0AB95A6B1AB172B6034ADA6249
:100ED000FEE701225A63704720080020C01A00086C
:100EE0001A4B1B4C1A694FF0FF3100222DE9804844
:100EF00019611A61586959615A61186A60F0805025
:100F000018621A62586A59625A62196C41F080512B
:100F10001964216841F480712160196F01F44071F6
:100F2000B1F5007F89B003D04FF4803119671A679B
:100F3000074C084B6168084A21F400716160074C56
:100F400000200146206007460CE000BF0038024048
:100F5000007000400C1B000810600240980E00203A
:100F600053F80C2C1760D54A42F831700131102922
:100F700003F10C03F4D1DFF88CE3D148DFF888A348
:100F8000D04ADFF888C3D04ED04DD14CDFF88083F3
:100F90004FF0FF33CEF80830CEF80C308360C360DA
:100FA000DAF8300040F2FF1940EA0900CAF83000D0
:100FB000DAF8500040EA0909CAF850906FF4A849DD
:100FC0005760C2F80890DFF84C93C2F80C904FF6C7
:100FD000FF70DFF844935061C2F82090DFF83C9333
:100FE000C2F8249009F12A5909F5B019C2F8009005
:100FF00002F1AA524FF4107902F57422CCF8049051
:1010000002F215524FF08069CCF80830CCF80C2071
:10101000CCF81400CCF82090DFF804934022CCF8F0
:101020002420CCF8009009F1AA49A9F54309A9F6B2
:101030002C397760B360C6F80C904FF0C0497061EE
:10104000C6F82090DFF8DC92C6F82490DFF8D8923A
:10105000C6F80090DFF8D4926F60AB60C5F80C90D2
:1010600040F6FF79C5F81490DFF8C4922F62AEF510
:10107000984E6F620CF5A05CC5F8009006F5A0567E
:10108000944DC8F804704FF00109C8F80830C8F84A
:101090000C70C8F81400C8F82070C8F82470C8F89C
:1010A00000200192CEF80470CEF80830CEF80C7013
:1010B000CEF81400CEF82070CEF82470CEF8007070
:1010C000CCF80470CCF80830CCF80C70CCF81400D4
:1010D000CCF82070CCF82470CCF800707760B36046
:1010E000F76070613762776237606760A360E760BE
:1010F000606127626762276085F80090DAF8400037
:10110000754E6F6040EA0900CAF84000D6F808E062
:10111000DFF820C26F614FF080404EEA090EC6F83A
:1011200008E06E4C42F2CF0686624FF0800E4FF020
:101130008056C36287614763C7604760C0F81490F8
:10114000C0F8009084F81CE3C4F880612660CCF8F5
:101150000870DCF80C406248DFF8DCE1EF614FF624
:10116000FF0A04EA0A042043CCF80C00DEF80C0065
:101170005C4E5D4C2C61A8F5EC38C5F808804FF446
:10118000407840F08070A5F80C80DFF8B081C5F899
:101190001880CEF80C003068544C4FF0200E40EA16
:1011A00009000DF1080830604FF0000A8CF81F109C
:1011B0004FF0000B8CF822E0404604F11C06C4E915
:1011C0000044CDE9023763620093CDE90477A7605C
:1011D000A762C4F8A074C4E90444C4E90766CDE971
:1011E00006ABFFF7A5F9FFF77BF9019AA263C4F8F4
:1011F0004824C4F88024049AC4F8A02404F5986212
:10120000C2E900AB04F59B62C2E900AB04F1400205
:10121000E2633748DFF828C13649009B8F6002221D
:10122000A4F86024344ACF6020F007001060334AED
:1012300033488F612CF0070CC2F800C001F1100296
:101240000860C4F8A874C4F8AC74C4F8B034C4F826
:10125000B474C4F8B874C4F8BC74C4F8C834C4F81E
:10126000CC74C4F8D074C4F8D474C4F87C74C4F8D2
:101270007874C4F8587484F86294C4F85044C1E98E
:1012800004226169C4F8541404F588620A6104F503
:101290008D6C04F59461C4F88834C4F88C7404F53A
:1012A0009363C4F89074C4F8947404F26C47C4F85F
:1012B0005C14C3E900AB04F5916043E0180E002014
:1012C000006402400000024000080240000C02409E
:1012D0000020024000080020002004E000E100E0BF
:1012E0000003FA05001000E0241B0008200800207D
:1012F000AB100020F80D0020A01000209C0E002054
:10130000C11800080060024000380240000402409A
:1013100000100240540001400000565500AA0A0087
:10132000802008000006060001802002555055006C
:101330000001005500ED00E0F0ED00E01E2D010081
:1013400000000220C4F868C4C4F86C74C4F8707457
:101350006261FFF7EDF8236BBC49A26184F86094E9
:10136000C4F85C140BB9636B1BB172B6B84BE36283
:10137000FEE783F3118862B6A369B64A9A6104F561
:101380009C694B4604F5A86BFF2203F8012B5B45D3
:10139000FBD15B460BF19801552203F8012B8B42E0
:1013A000FBD1202383F31188FFF712FDAA4FFFF72B
:1013B00087FDFFF7F5F86369DFF8C0C2A748C4F8F6
:1013C000B4C500214FF0010A0222C4F8D405A4F8E4
:1013D0000025C4F8F434C4F8B815C4F81C15C4F8D2
:1013E0001815C4F8F814C4F8F044C4F8EC74C4F840
:1013F000E8A4C4F820A584F802A54FF0FF32C3F892
:101400001090A7F1A803A7F1AC00C4F82825C4F8F0
:101410000C350022C4F81035002347E91F23C4F817
:101420002C15C4F83015C4F83415C4F80805C4F8F0
:10143000FCB4A7F18C00C4F81490FFF779F8FFF71B
:101440009FF8A069C4F804158368D4F8E8249A4288
:1014500040F21282FFF7B4F884F800A58346C4F87E
:101460001890FFF76DF8D4F8AC3448300133A7F189
:101470008C01C4F8AC34FFF713F8EFF30983DBF801
:101480001C20243B9A4200F2F3815946A7F1D40074
:10149000FEF7F6FEFFF7E4FCFFF792FC2368A34299
:1014A00005D0A2699B6892689A42C0F0EA81002345
:1014B00083F311886A4BC4F8F834202383F311882E
:1014C000FFF786FCFFF7FCFC2B785A1E012A03D994
:1014D00072B6644BE362FEE7634A6A60012B00F078
:1014E0004F81AB89AA6843F4006310211162D36174
:1014F00002212970FFF7C4FC4FF480615B48FEF7BE
:10150000DFFE08215A48FEF7DBFE202383F3118813
:10151000FFF75EFCFFF7D4FC2B78022B03D072B6EA
:10152000544BE362FEE769680B8A8A6803F006039E
:1015300003B152002B693BB11B684868D8605A6000
:10154000186840F0010018606B693BB11B680968BE
:10155000D9605A601A6842F001021A60AA68DFF87E
:1015600020B1D369DFF81CA143F48063D361032366
:101570002B70FFF785FC4FF020090227DAF81030B6
:10158000DB0700F19E8089F31188FFF721FCFFF74C
:1015900097FCFEF7F5FFFFF703F8D4E906124FF0CA
:1015A0008043B242CDF814B00691586A11D000F5CC
:1015B0009C50A16A93680830411A994201D2FEF703
:1015C0000FFFE3699A68914240F2BF801B68891A55
:1015D000F8E741F288310491DA68A06212F0020261
:1015E000C4E90788CDE9026608444DD158631A6101
:1015F000DF600820FFF73CFBFEF7D2FF059B8BB1B5
:10160000FEF7CEFFE369029A434541D003990A6091
:10161000029B0022B3425960059203D09A68049954
:101620000A449A60FFF71CFCFFF7CAFB2368A34239
:1016300004D0A2699B6892689A4203D3002383F383
:1016400011889BE772B60C4BE362FEE700040020B2
:10165000601C0008101C0008D40D00209102000836
:10166000681C0008201A0008401C00080004024002
:1016700000080240501A0008B01900086103000871
:10168000D10A00080000024072B6804BE362FEE718
:101690000023B242E2615660059365D093680498D6
:1016A000A16A03444FF080409360406A421A93421B
:1016B000B8D99B1A022B2CBFC0180230FEF790FE3F
:1016C000B0E789F31188FFF783FBFFF7F9FB2B786D
:1016D000023B022B4CD86B6993B11A68116821F058
:1016E0001F0111601168C807FCD4187A5A68A968EC
:1016F0003D23834013608B6803F08203022BFAD1F1
:10170000A9682B69CA6922F48062CA6163B11A6848
:10171000116821F01F0111601168C907FCD4197A02
:101720005A683D238B4013602F70FFF799FBFFF73A
:1017300047FB2368A34204D0A2699B6892689A423F
:101740001AD3002383F311881DE702935A6803928A
:10175000C2F80080C3F8048004919A68521A4FF0CE
:10176000FF319A60616244E74FF08042D36059E7ED
:1017700072B6474BE362FEE772B6464BE362FEE7A2
:10178000DFF820E12A69DEF8400040F48040CEF81E
:101790004000002A68D04049507A0F6883403B429D
:1017A0005ED13E4901EBC00C3B49CCF804503B43B1
:1017B0000B603A493A4F41F8307013F0FF0F05D0F3
:1017C000DEF8300040F40010CEF8300013F47F4F04
:1017D00004D034490B6B43F480030B6311680B682E
:1017E00023F01F030B60086810F00100FBD192F892
:1017F00008C053683D2707FA0CF74FF0210C1F6013
:101800000860C1F814C0927A02F1604707F5614799
:1018100053094FF0A00C9B0087F800C303F160430D
:10182000AF68D5F814C003F561434FF0010E02F024
:101830001F020EFA02F2C3F880211A60AB69386009
:1018400007F10C02C7F804E00B608A60BCF1000FDE
:101850003FF447AEDCF80030E96919609A6040E671
:1018600072B6114BE362FEE772B6104BE362FEE71D
:1018700072B60F4BE362FEE7A7F1D400FEF7A0FEBD
:1018800008E672B60B4BE362FEE700BF101A0008D1
:10189000701A0008D0190008980E0020180E0020B9
:1018A0008103000800380240301A0008801A00083E
:1018B000001C0008B0190008000000000000000033
:1018C00010B50146202383F31188FFF781FAFFF753
:1018D000F7FAFEF765FE1148114B04681A68CB1D34
:1018E00023F00703121B93429ABF1B1903600024C5
:1018F000FFF7B6FAFFF764FA0A4B1A689A4204D067
:10190000996992688968914204D3002383F311880E
:10191000204610BD72B6044ADA62FEE7A01000202D
:101920009C0E002020080020C019000800000000C4
:1019300008B50146202383F31188114DFFF748FABB
:10194000FFF7BEFAAC69A06A616204F12806B042F2
:1019500006D00268A262FEF733FEA06AB042F8D158
:1019600094F821309B0704D1D4E904231A61226939
:1019700053610F20FFF77CF972B6024BEB62FEE772
:1019800020080020001A00080000000000000000ED
:10199000FEE700BF000000000000000000000000A3
:1019A000704700BF000000000000000000000000C1
:1019B0006368537973556E6C6F636B0000000000B1
:1019C0006368537973556E6C6F636B0000000000A1
:1019D0006368537973556E6C6F636B000000000091
:1019E00063685654446F5469636B490000000000FB
:1019F00063685363685265616479490000000000C0
:101A000063685468644578697453000000000000FE
:101A100073745374617274416C61726D00000000E4
:101A2000693273537461727400000000000000009A
:101A30006932735F6C6C645F737461727400000070
:101A40007374536574416C61726D00000000000096
:101A5000693273537461727445786368616E676547
:101A60000000000000000000000000000000000076
:101A700069327353746F7045786368616E6765008F
:101A8000646D6153747265616D416C6C6F636174F8
:101A900065000000000000000000000000000000E1
:101AA0005356233800000000000000000000000032
:101AB0005356233900000000000000000000000021
:101AC0005356233400000000000000000000000016
:101AD0005356233600000000000000000000000004
:101AE00053562335000000000000000000000000F5
:101AF00053562337000000000000000000000000E3
:101B0000106002400860024000000B0028600240A4
:101B10000860024006010C0040600240086002407C
:101B200010020D00586002400860024016030E00CB
:101B3000706002400C60024000040F0088600240A8
:101B40000C60024006051000A06002400C600240DC
:101B500010061100B86002400C60024016072F000A
:101B60001064024008640240000838002864024003
:101B700008640240060939004064024008640240DB
:101B8000100A3A005864024008640240160B3B00F9
:101B9000706402400C640240000C3C008864024007
:101BA0000C640240060D4400A06402400C64024034
:101BB000100E4500B86402400C640240160F460047
:101BC000756E68616E646C656420657863657074B9
:101BD000696F6E00000000000000000000000000BF
:101BE00053562331300000000000000000000000C8
:101BF00053562331310000000000000000000000B7
:101C0000737461636B206F766572666C6F7700002A
:101C10006D61696E00160118040460080C10141838
:101C20001C20212200000000000000000000000035
:101C3000444D41206661696C7572650000000000CA
:101C400000000000A00E0020000100007103000849
:101C50000000100000000000000000000000000074
:101C6000535623330000000069646C6500000000D7
:04000005080001C12D
:00000001FF
