:020000040800F2
:100000000004002041010008C10A0008C10A0008DC
:10001000C10A0008C10A0008C10A0008C10A000894
:10002000C10A0008C10A0008C10A000881030008CB
:10003000C10A0008C10A0008C10A0008C10A000874
:10004000C10A0008C10A0008C10A0008C10A000864
:10005000C10A0008C10A0008C10A0008C10A000854
:10006000C10A0008C10A0008C10A00087107000897
:1000700031070008F1060008B10600087106000803
:1000800031060008F1050008C10A0008C10A00088D
:10009000C10A0008C10A0008C10A0008C10A000814
:1000A000C10A0008C10A0008C10A0008C10A000804
:1000B00031090008C10A0008C10A0008C10A000885
:1000C000C10A0008C10A0008C10A0008C10A0008E4
:1000D000C10A0008C10A0008C10A0008C10A0008D4
:1000E000C10A0008C10A0008C10A0008C10A0008C4
:1000F000C10A0008C10A0008C10A0008C10A0008B4
:10010000C10A0008C10A0008C10A0008C10A0008A3
:10011000C10A0008C10A0008C10A0008C10A000893
:10012000C10A0008C10A0008C10A0008C10A000883
:10013000C10A0008C10A0008C10A0008C10A000873
:1001400072B6214880F30988022080F31488BFF337
:100150006F8F00F035FD4FF055301C491C4A91421D
:100160003CBF41F8040BFAE71A49174A91423CBFD9
:1001700041F8040BFAE71849184A194B9A423EBF56
:1001800051F8040B42F8040BF8E700201549164A11
:1001900091423CBF41F8040BFAE701F0E1FA134C3D
:1001A000134DAC4203DA54F8041B8847F9E700F01A
:1001B00067FF104C104DAC4203DA54F8041B88471B
:1001C000F9E701F0C5BA0000000800200000002097
:1001D0000004002000040020601A0008000800202D
:1001E0000008002000080020F8100020400100084E
:1001F0004001000840010008400100080000000024
:100200002DE9F04FC1F80CD0D0F80CD0BDE8F08F3C
:1002100000F066FD00F014FD002383F311882846EA
:10022000A047002000F04CFE00F012FD00F088FD19
:1002300000F016FD00F054FD00F002FD00DFFEE7C7
:100240001B4A70B41369146B1878D16828B101295E
:1002500094BF44F0200444F024045D88D06A01FB7C
:1002600005F100689568926AC560416004600568A0
:10027000D3E9034145F0010511F4841F056044F4FE
:10028000807414BF41F4807041F48170546040F078
:100290000100DC690143D3E905659160D660D3E9CB
:1002A00008131561D462116370BC5363906070478A
:1002B0000008002000000000000000000000000016
:1002C000FEE700BF0000000000000000000000008A
:1002D000704700BF000000000000000000000000A8
:1002E000044888420CBF044904490B6813440B605E
:1002F000704700BF8C0E0020740E0020780E002086
:100300004FF08043DA68920701D55863704772B6A0
:10031000014B024A9A62FEE73808002030180008B4
:10032000202383F31188114B5B6813F4006302D11F
:1003300083F31188704780B400AFEFF309834FF067
:100340008071A3F1200243F8041C82F30988084A53
:10035000116892698968926891428CBF054A064A81
:1003600043F8082CBD4680BC704700BF00ED00E09C
:1003700038080020290200083C02000800000000A4
:1003800080B400AFEFF30983203383F3098800239F
:1003900083F31188BD4680BC704700BF0000000099
:1003A000034AD2F8A8340133C2F8A834704700BF1A
:1003B00038080020000000000000000000000000DD
:1003C000104B2DE93008D0E904455B68C2688B60AA
:1003D000816801325B1A416814EB030B45F1000C94
:1003E0008B42C0E90232C0E904BC06D8BDE830083F
:1003F0000268934238BF036070474360BDE830082D
:10040000704700BF001000E0000000000000000086
:10041000114B124A5B688168D2F8A0245B1A9B1AC0
:100420004168C2682DE93008D0E9044514EB030B9C
:1004300045F1000C01328B42C0E90232C0E904BC34
:1004400006D8BDE830080268934238BF03607047A1
:100450004360BDE830087047001000E03808002015
:100460000148FFF7D5BF00BF000D002000000000CD
:10047000014B5B6883607047001000E000000000E3
:100480004FF080430B4A30B49169446A5D6A936BC4
:10049000C3E901141D8090F8204003F1100102F21D
:1004A0003C4081421C732ABF02F13C039163936379
:1004B00030BC704738080020000000000000000039
:1004C000054BDA6A1AB91A6B002A00DD704772B65A
:1004D000024A9A62FEE700BF38080020101A00089E
:1004E000054BDA6A002A03DB1A6B002A00DD70472D
:1004F00072B6024A9A62FEE738080020001A000825
:1005000008B5FFF7EDFFD0B190F8203001468BB170
:100510000F2B0FD000220C4B806881F820201B6825
:100520009A688242FBD25A680846C1E900321160DB
:10053000596008BD72B6044B044A9A62FEE772B66F
:10054000014B024A9A62FEE738080020C0170008F3
:1005500003688BB1024693F82000032804D072B6DA
:10056000064B074A9A62FEE710B40024184614604E
:10057000596210BCFFF7C4BF704700BF38080020A5
:10058000F01700080000000000000000000000005C
:10059000202383F31188074BDA6A002A01DD196BE7
:1005A00019B172B6044A9A62FEE7013ADA6281F33F
:1005B0001188704738080020D0180008000000009B
:1005C000202383F31188074BDA6A002A01DB196BB9
:1005D00019B172B6044A9A62FEE70132DA6281F317
:1005E0001188704738080020C0180008000000007B
:1005F00010B5FFF7D5FEFFF7E3FF084B0848196871
:10060000026BC1F303610C065C600AB1406B90475A
:10061000FFF7BEFFBDE81040FFF782BE00000240BA
:10062000300E00200000000000000000000000006C
:1006300010B5FFF7B5FEFFF7C3FF084B0848196870
:10064000826AC1F303510C055C600AB1C06A90472D
:10065000FFF79EFFBDE81040FFF762BE00000240BA
:10066000300E00200000000000000000000000002C
:1006700010B5FFF795FEFFF7A3FF084B0848196870
:10068000026AC1F303410C045C600AB1406A9047FE
:10069000FFF77EFFBDE81040FFF742BE00000240BA
:1006A000300E0020000000000000000000000000EC
:1006B00010B5FFF775FEFFF783FF084B0848196870
:1006C0008269C1F303310C035C600AB1C0699047D1
:1006D000FFF75EFFBDE81040FFF722BE00000240BA
:1006E000300E0020000000000000000000000000AC
:1006F00010B5FFF755FEFFF763FF084B0848196870
:100700000269C1F303210C025C600AB140699047A1
:10071000FFF73EFFBDE81040FFF702BE00000240B9
:10072000300E00200000000000000000000000006B
:1007300010B5FFF735FEFFF743FF084B084819686F
:100740008268C1F303110C015C600AB1C068904774
:10075000FFF71EFFBDE81040FFF7E2BD00000240BA
:10076000300E00200000000000000000000000002B
:1007700008B5FFF715FEFFF723FF084B084A196875
:1007800001F00F01596013680BB150689847FFF7EB
:10079000FFFEBDE80840FFF7C3BD00BF00000240F8
:1007A000300E0020000000000000000000000000EB
:1007B000064BDA6A002A05DD1A6B002A02DD0022E8
:1007C0001A63704772B6024A9A62FEE73808002040
:1007D00010190008000000000000000000000000E8
:1007E000064BDA6A002A01DD1A6B1AB172B6044AA6
:1007F0009A62FEE701221A63704700BF38080020A2
:10080000F0180008000000000000000000000000D8
:100810002DE9F0410D07044630D50F230021C26AAF
:1008200007691668356825F00F053560167A556832
:10083000B340BA682B60836A99603AB105230370AC
:1008400090472378052B04BF022323700025202323
:10085000256183F311883448FFF70AFEFFF7C0FFD4
:1008600004F114004FF0FF31FFF772FEFFF7A0FF15
:10087000FFF7F6FD85F31188BDE8F0818A0712D5F0
:1008800003691A785D68D2B1002DF5D0D0E9021263
:10089000012A45D95B885208540004FB03112B46FA
:1008A000BDE8F04118474B07E6D503695B68002BAC
:1008B000E2D0D0E90212BDE8F041520818470F23F8
:1008C000C16A0F683E6826F00F063E600F7A4E68D8
:1008D000816ABB4033608A60EDB10423C268037053
:1008E0008168A8472378042B15D0202383F311882F
:1008F0000D48FFF7BDFDFFF773FF04F11400002161
:10090000FFF726FEFFF754FFFFF7AAFD002383F34E
:100910001188BDE8F0810222002322702361E4E700
:100920002B46BDE8F0411847000D002000000000F4
:100930002DE9F0474FF08046FFF732FDFFF740FE0C
:1009400033699B0705D4FFF723FEBDE8F047FFF7A7
:10095000E7BC00272023376183F31188344C04F56A
:100960009960FFF785FDFFF73BFFFFF7B9FDFFF744
:10097000B7FD736AE18CE5699BB2581A2A8980B287
:10098000904251D3B946374604F11C0606F2AC48F2
:100990002B680A44B342E284D5F80CA05E60E361A0
:1009A000C5F80C9008BFC7F80C90FFF701FFFFF7E0
:1009B00057FD89F311882869D047202383F31188D4
:1009C0004046FFF755FDFFF70BFF7B6AE18CE569B9
:1009D0009BB2581A2A8980B28242D9D9B54216D020
:1009E0000A44D21A92B2022A2CBF9918991C88B2D2
:1009F000FFF786FC4FF080435A6AE08C92B20B1AE4
:100A0000121A9A4203DD72B60A4BA362FEE7FFF7A1
:100A1000CFFEFFF725FD002383F31188FFF7B8FD14
:100A2000BDE8F047FFF77CBC04F11C06D6E700BF29
:100A300038080020B0170008000000000000000087
:100A400008B50146202383F311881948FFF710FDEC
:100A5000FFF7C6FE91F82030072B10D8DFE803F02F
:100A6000150F0F1D0A040F0A486AFFF739FD836846
:100A700001338360D1E900231A600A6853604FF0A4
:100A8000FF3308464B62FFF73BFDFFF791FEFFF790
:100A9000E7FC002383F3118808BD00224B6A084657
:100AA0001A604FF0FF334B62FFF72AFDEDE700BFFE
:100AB000000D002000000000000000000000000009
:100AC00072B6024B024A9A62FEE700BF3808002065
:100AD0008019000800000000000000000000000075
:100AE00070B50446FFF7ECFC174DA268A86983684F
:100AF00061629A421FD9FFF703FD0123064684F87D
:100B00002030AC61FFF7BCFCD5F8AC3406F14800EE
:100B1000013304F14801C5F8AC34FFF751FCEFF3A1
:100B20000983F269243B9A420AD831462046BDE83F
:100B30007040FFF765BB2046BDE87040FFF7E0BCA2
:100B400072B6024BAB62FEE738080020201A00089C
:100B500038B5FFF7B5FC0121144CA569236885F869
:100B600020001A682846546083F820102260A36190
:100B7000FFF786FCD4F8AC34A169013305F14800D5
:100B80004831C4F8AC34FFF71BFCEFF30983EA6982
:100B9000243B9A4205D82946A069BDE83840FFF7B2
:100BA0002FBB72B6024BA362FEE700BF38080020DD
:100BB000201A0008000000000000000000000000F3
:100BC0001B4B1A46196841F0010119601368980718
:100BD000FCD500201368164903F0F9031360506038
:100BE0004B6813F00C0FFBD10B68114A43F48033B0
:100BF0000B6013689903FCD553680D4943F4E8135F
:100C00005360136843F0807313600B689B01FCD53D
:100C10001222084B084848601A604B68044A43F0A7
:100C200002034B60536803F00C03082BFAD17047A2
:100C3000001002400020024000641D00000000007F
:100C40000148FFF7E5BB00BFE80C002000000000F2
:100C50000148FFF70DBC00BFE80C002000000000B9
:100C60000120002170B51A4C2268A5691368AE688E
:100C700023605C6082F82000A26185F8201000E00B
:100C80001B689A689642FBD35A682846C5E9003229
:100C900015605D60FFF7F4FBD4F8AC34A169013353
:100CA000483105F14800C4F8AC34FFF789FBEFF395
:100CB0000983EA69243B9A4205D82946A069BDE820
:100CC0007040FFF79DBA72B6024BA362FEE700BF09
:100CD00038080020201A0008000000000000000072
:100CE000054BDA6A22B9196B002901DD1A637047D6
:100CF00072B6024A9A62FEE738080020001900081E
:100D000008B5FFF7EDFFFFF79BFF084B1A689A4203
:100D100004D0996992688968914203D3002383F3D0
:100D2000118808BD72B6024A9A62FEE738080020B0
:100D3000A0170008000000000000000000000000F4
:100D4000054BDA6A0AB91A6B1AB172B6034A9A628B
:100D5000FEE701221A63704738080020E0180008F7
:100D60002DE9F84F0F4692469B46FF26054604465E
:100D7000603004F8016BA042FBD1EA19944205D21D
:100D80002346552103F8011B9A42FBD1202383F30C
:100D900011880021FFF75CFFFFF7D2FFFFF7A0FBF0
:100DA00001234FF0020C4FF0FF304FF000084FF0DE
:100DB0000009243F204EEA19EA6045F807B01662A0
:100DC0001E4E51602E61726985F8223005F12803AC
:100DD0006A61C5E90F1AA963A961A5F820C0C5F821
:100DE00008A01561AB6205F12C03C5E90B33C5E919
:100DF00013116965A864EC6105F14800C5E916891D
:100E00007561FFF735FB2846FFF76AFEFFF768FFBD
:100E1000FFF716FF3368B34204D0B2699B6892684B
:100E20009A4205D3002383F311882846BDE8F88F42
:100E300072B6034BB362FEE71102000838080020C7
:100E40008017000800000000000000000000000003
:100E500010B50146202383F31188FFF7F9FEFFF751
:100E60006FFFFFF73DFB1148114B04681A68CB1D5B
:100E700023F00703121B93429ABF1B19036000243F
:100E8000FFF72EFFFFF7DCFE0A4B1A689A4204D0E8
:100E9000996992688968914204D3002383F3118889
:100EA000204610BD72B6044A9A62FEE7700E00201A
:100EB0006C0E002038080020901700080000000089
:100EC00008B50146202383F31188FFF7C1FEFFF721
:100ED00037FF0F4DAC69A06A04F12806B042616289
:100EE00006D00268A262FFF70BFBA06AB042F8D1FD
:100EF00094F821309B0704D1D4E904231A612269B4
:100F000053610F20FFF724FE72B6024BAB62FEE77F
:100F100038080020D0170008000000000000000082
:100F200070B5014686B0202383F31188504CFFF73B
:100F30008FFE2546FFF704FFFFF7C2FAFFF7D0FA4E
:100F40004FF08042A36955F81C6F4A480593536AD5
:100F5000AE4204909BB220D00B44E18C98B2411A6F
:100F6000338989B28B427CD8E3691A898A4205D2D7
:100F70001B68891A1A8989B28A42F9D34FF6FF7021
:100F80005A6801AECDE9013216605E60ADF80C1012
:100F90001A89511A1981A08411E0D068E384CDE93F
:100FA00001660B4401AE10F002009BB2ADF80C10CC
:100FB000C4E9076632D1022153631061D160082071
:100FC000FFF7C6FDFFF78CFA049B93B1FFF788FA91
:100FD000E3690198B34225D00021029A1060019B79
:100FE000AB425A60049104D01A89BDF80C100A442F
:100FF0001A81FFF775FEFFF723FE2368A34204D092
:10100000A2699B6892689A4204D3002383F31188F3
:1010100006B070BD72B6184BA362FEE772B6174BEE
:10102000A362FEE70023A842E061456004931BD061
:101030004FF080435A6AE18C0389BDF80C5092B29C
:10104000511A2B449BB289B28B420381D1D95B1ACE
:101050009BB2022B2CBFD318931C98B2FFF750F908
:10106000C7E7FFF74DF97FE74FF08042D360C0E755
:1010700038080020410A00088017000810180008EE
:1010800000204FF0FF34C94B2DE980481E691C61D8
:101090001861DE68DC60D860DC69C54D44F08054BE
:1010A000DC61DC69DFF858A344F00064DC612B6884
:1010B00089B043F480732B6001460246BD4CBE4BA1
:1010C000BE4FCAF8000001E054F80C3C1A6047F823
:1010D00031200131072904F10C04F5D14FF0FF3321
:1010E0004FF088344FF0010CB54942F28A584FF066
:1010F000090E0E46B34DAD486B60D0F81890A5F5BB
:10110000784549F07D09C0F81890DFF8F892EB6057
:10111000C5F8049009F5802909F53F79C5F80090D4
:1011200005F1E945DFF8E09205F55E158835C9F867
:101130000C30C9F80450C9F8004009F19149A24D9A
:1011400009F5093909F56279EB60C5F80490DFF813
:10115000BC92C5F80090DFF8B892C5F80C34C5F819
:101160000444C5F80094C5F80C38C5F80448C5F81F
:101170000048964D85F800C083696A6043F40073A7
:10118000C5E90222C5E904222A628361904BA96263
:10119000C5E90B3805F11803C5E906334A60C1F803
:1011A00008C0C1F808E0B3681C07FCD40523DFF8C9
:1011B00010E2B360DEF8086016F00406FAD14FF0D2
:1011C000010B7A49CEF80860D1F818E04FF080435F
:1011D0002EF4007EC1F818E0D1F81CE04FF6FF7045
:1011E0004EEA0B0EC1F81CE0DFF828E24FF0805405
:1011F000DEF804104FF6FF0C41F40061CEF8041045
:1012000041F61F4199626FF07F01D8629E615E6373
:10121000DE605E60C3F814B0C3F800B06D4B4FF0F1
:10122000FF3283F81C13C3F880411C60C3F8086CBC
:10123000D3F80C4C684904EA0C042143674CC3F80A
:101240000C1CE168DFF8D0C141F08071E160DCF88E
:101250000010634C41EA0B01CCF800104FF0100174
:10126000646083F81F1C4FF020014FF000084FF01E
:101270000009A66083F8221C04F11C032460C4E961
:101280000444E361606202A82362CDE90122C4F84C
:10129000A064CDE903660596CDE90689FFF7E8F875
:1012A00002A8FFF7B5F840214FF0020E049B4D480D
:1012B000C4F8A03404F59863C3E9008904F59B637E
:1012C000C3E9008904F13C03A363474B20F0070CFA
:1012D0004648C3F800C0DFF844C120F00700444B83
:1012E000CCF800004348019A186003F11000C3E9EC
:1012F0000400C4F8B024C4F8C824A4F860E4C3E926
:1013000002669E616163C4F84814C4F8A864C4F816
:10131000AC64C4F8B464C4F8B864C4F8BC64C4F879
:10132000CC64C4F8D064C4F8D464C4F87C64C4F851
:10133000786484F862B4C4F85864C4F85044C4F8BB
:101340008014636904F58861C4F85434196104F5A4
:101350008D6304F5946CC4F88824C4F8683404F5EB
:10136000936204F26C43C2E90089C4F86C34C4F897
:101370007034C4F88C64C4F89064C4F8946404F5C0
:101380009160C4F85CC46161FFF772F81A4AE36ABD
:10139000A16184F860B4C4F85C2413B9266B002EF4
:1013A0003ED072B6154BA362FEE700BF00100240AC
:1013B000007000402C19000808000240300E002088
:1013C00000240140000002400010014000080020FD
:1013D0002019000800E100E00003FA05F0ED00E04C
:1013E00038080020FF100020700E00200050002060
:1013F000100E0020510E000800040020501A0008B2
:10140000680E002088488488000C01408888844445
:1014100044888888002004E0001000E06C0E002062
:1014200086F3118862B6A149A3695A46996104F509
:101430009C609F4BF821FFF793FC3246032308265C
:101440001146DFF8C0C2C0F818C018064FEA0111F3
:101450004FEA021258BF41F00F0113F4004F08BFCA
:1014600042F00F02013E4FEA4303EED19148924B06
:10147000D0F804C00CEA02024260D0F800C040225A
:101480000CEA010101604FF4B4718C48FFF768FC6D
:10149000202383F31188FFF7DBFBFFF751FC2B7848
:1014A0005A1E012A03D972B6854BA362FEE7012BAF
:1014B0006E6064D002232B70FFF722FC202383F39D
:1014C0001188FFF7C5FBFFF73BFC6B691BB172B6D8
:1014D0007C4BA362FEE7FFF703F82B78022B06D0C4
:1014E000043B012B03D972B6774BA362FEE70821B8
:1014F0000326764A764BAA602B61E9602E70FEF7D0
:101500009FFE6A69A3691AB172B6724BA362FEE7C5
:10151000714A6B615A623046FFF71AFBFFF7F0FB26
:1015200042F21070FFF7FCFC202383F31188FFF7D1
:101530008FFBFFF705FCFEF7D3FF2B78022B06D0BD
:10154000043B012B03D972B65F4BA362FEE7102068
:101550000321624A624BE8602970AA602B614FF058
:101560002008FEF76DFE0026FFF7CAFB5D4FBB6843
:10157000DB0757D441F28830FFF7D2FCF7E7EA6A7D
:10158000002A4BD0517ADAF800008B40034241D157
:10159000554E034347F8316007EBC1005906CAF8BE
:1015A0000030456004D051494B6943F001034B6161
:1015B0000F27002601204FF0600C11680B6823F004
:1015C0000F030B6092F808E0536807FA0EF71F60EC
:1015D0000E60927ADFF830E153099B0002F1604718
:1015E00003F1604302F01F0200FA02F203F56143C7
:1015F0003E4807F5614787F800C3C3F880211A60A9
:10160000C1F808E08369AA6A43F4007383615660F5
:1016100096604FE772B6364BA362FEE772B6354B63
:10162000A362FEE788F31188FFF712FBFFF788FB40
:101630002B789A1E012A31D8022B20D00F234FF08D
:10164000020CEA6A1068016821F00F010160107A4B
:1016500051688340AA6A68690B60966085F800C08B
:101660002E6160B190F82030032B03D072B6224B6C
:10167000A362FEE76FF001016E61FFF731FAFFF739
:101680002FFBFFF7DDFA2368A34204D0A2699B6811
:1016900092689A4206D386F311886BE772B6174BAD
:1016A000A362FEE772B6164BA362FEE7301A00088B
:1016B000C10200080010014011170008900F00201F
:1016C0002018000890180008501800087C0E002010
:1016D000A0190008E0170008140800208C0E002054
:1016E000D01900080008014011080008001002404D
:1016F00040180008A018000800180008701800081A
:10170000A0170008581A00084C24014000000000EF
:101710004FF480552E4608B5074B084A9B69084C84
:101720009A61666141F28830FFF7FAFB256141F268
:101730008830FFF7F5FBF4E7380800207017000841
:101740000010014000000000000000000000000048
:10175000FEE700BF000000000000000000000000E5
:10176000704700BF00000000000000000000000003
:10177000626C696E6B657200000000000000000082
:101780006368537973556E6C6F636B0000000000E3
:101790006368537973556E6C6F636B0000000000D3
:1017A0006368537973556E6C6F636B0000000000C3
:1017B00063685654446F5469636B4900000000002D
:1017C00063685363685265616479490000000000F2
:1017D0006368546864457869745300000000000031
:1017E000636854686453757370656E6453000000D9
:1017F0006368546864526573756D65490000000044
:101800006368546864526573756D65530000000029
:1018100073745374617274416C61726D00000000E6
:101820006164635374617274000000000000000082
:101830007374536574416C61726D000000000000A8
:101840006164635F6C6C645F737461727400000048
:101850006164635374617274436F6E766572736909
:101860006F6E490000000000000000000000000052
:1018700061646353746F70436F6E76657273696FE2
:101880006E000000000000000000000000000000EA
:10189000616463436F6E766572740000000000003F
:1018A000646D6153747265616D416C6C6F636174DA
:1018B00065000000000000000000000000000000C3
:1018C0005356233800000000000000000000000014
:1018D0005356233900000000000000000000000003
:1018E00053562334000000000000000000000000F8
:1018F00053562336000000000000000000000000E6
:1019000053562335000000000000000000000000D6
:1019100053562337000000000000000000000000C4
:10192000080002400400024000000B001C000240BE
:101930000400024004010C00300002400400024098
:1019400008020D0044000240040002400C030E0097
:10195000580002400400024010040F006C000240D6
:101960000400024014051000800002400400024000
:101970001806110000000000000000000000000038
:10198000756E68616E646C656420657863657074FB
:10199000696F6E0000000000000000000000000001
:1019A0000000010000000000D1020008000000005B
:1019B0000000000000000000000000000000000027
:1019C000000000000A00000000000000000000000D
:1019D00001000800E1020008D10200080000000038
:1019E000000080002400FC000000000000007000E7
:1019F000110200006AA9A516000000000000000006
:101A000053562331300000000000000000000000A9
:101A10005356233131000000000000000000000098
:101A2000737461636B206F766572666C6F7700000C
:101A30006D61696E00160118040260080C1014181C
:101A40001C20212200000000000000000000000017
:101A5000535623330000000069646C6500000000E9
:0400000508000141AD
:00000001FF
