:020000040800F2
:1000000000040020C101000881AC000881AC000898
:100010000167000881AC000881AC000881AC0008D1
:1000200081AC000881AC000881AC0008F1D0000868
:1000300081AC000881AC000881AC0008C135010822
:1000400081AC0008E106010871080108C108010837
:1000500081AC000881AC000821040108710401088A
:10006000C1040108110501086105010871F60008C5
:10007000C1F6000811F7000861F70008B1F70008A1
:1000800001F8000851F8000861010108610A01083F
:10009000D10A0108810B0108310C0108B1050108E2
:1000A00081AC000881AC0008112F010881AC000868
:1000B00081310108C131010801320108511D0108D7
:1000C000911E010881AC000881AC000881AC0008D9
:1000D00081AC000881AC000881AC000881360108C1
:1000E00041060108310701088107010881AC0008B9
:1000F00081AC000881AC000881AC0008A1F80008C0
:1001000081AC0008C10D01084132010881AC000832
:1001100081AC000881AC0008D12E010881AC000838
:10012000F1F8000841F9000891F90008E1F9000828
:1001300031FA000881AC0008D107010881AC000841
:1001400081AC000881AC000881AC0008612901087D
:1001500081FA0008D1FA000821FB000881AC0008F0
:1001600081AC000881AC000881AC000881AC0008BB
:100170002108010881AC00084149000881AC000851
:1001800081AC000881AC000881AC000881AC00089B
:1001900081AC000881AC000881AC000881AC00088B
:1001A00081AC000881AC000881AC000881AC00087B
:1001B00081AC000881AC000881AC000881AC00086B
:1001C00072B62E4880F3098840F20000CCF200009D
:1001D0004EF63471CEF20001086040F20000C0F229
:1001E000F0004EF68851CEF2000108604FF000009A
:1001F000E1EE100A4EF63C71CEF2000108600620D6
:1002000080F31488BFF36F8F13F082FB4FF05530EB
:100210001B491C4A91423CBF41F8040BFAE71A49BA
:10022000164A91423CBF41F8040BFAE71749184AB5
:10023000184B9A423EBF51F8040B42F8040BF8E702
:1002400000201549154A91423CBF41F8040BFAE7DA
:100250000AF0FEFC124C134DAC4203DA54F8041BB6
:100260008847F9E702F064F80F4C104DAC4203DA0E
:1002700054F8041B8847F9E70AF0FABC000800208C
:10028000000000200004002000040020B8EC010859
:1002900000080020D41C0020D81C0020F868002092
:1002A000C0010008C0010008C0010008C00100082A
:1002B0002DE9F04F2DED108AC1F80CD0D0F80CD0FC
:1002C000BDEC108ABDE8F08F0AF01AFE0BF0B8FE04
:1002D000002383F311882846A04700200BF0E8FB99
:1002E0000BF096FE0AF0ECFD0BF00AFA0AF008FE9D
:1002F0000BF0A6FE00DFFEE700000000000000009B
:100300002DE9F843544B80461A68544882422DED3B
:10031000028B1BD052490B68DA0405D40A6842F4F8
:1003200080530B60012000E000204E4A4E491160CE
:1003300013684A4A934208D147490B6030B1484894
:10034000036823F48052026000E0FEE798ED018A22
:10035000B5EE408A0021F1EE10FAC8F81C10C8F87A
:100360001810C8F81410C8F81010C8F82810C8F8E9
:100370002410C8F8201029D0DFED3C7A28EE270A97
:1003800010EE100A01F038F8044618EE100A0D4677
:1003900001F032F80646B8F800000F4601F01AF8EE
:1003A0002BA3D3E9002301F0ADF902460B463046FA
:1003B000394600F0C3FE02460B462046294601F0AE
:1003C000A1F901F055FBA8F82C0001E0A8F82C10C9
:1003D00098ED028AB5EE408AF1EE10FA26D0B8F810
:1003E00000904FEA092000F0F5FF044618EE100ACD
:1003F0000D4601F001F816A3D3E9002301F058F8E7
:10040000064648460F4600F0E5FF02460B463046DA
:10041000394600F093FE02460B462046294601F07D
:1004200071F901F025FBA8F82E0002E00020A8F8E1
:100430002E00B8F800204FF47A73B2FBF3F1A8F85D
:100440003010BDEC028BBDE8F88300BFAFF3008035
:100450001F85EB51B81E1940D81C0020CDB5E8B55A
:100460003038024000300240C2A507F4000080434B
:100470002DE9F04F9BB083461992A94A1891A948DB
:100480001168814200D0FEE79E6AB3F80CC09F69F4
:100490009A8DD98D039603261C6A5D6A059706928C
:1004A00006FB0CF74FEA8C0206264FEA4C000B9134
:1004B0000E97052106FB0CF70F9207220294049574
:1004C0000D90119701FB0CF04FEACC0602FB0CF1EA
:1004D00000271D695C69D3F81CA010901291179633
:1004E0000197188EDDF80490814580F20A818E48CC
:1004F0009BF800601BF80C7010F80690C25DA144D8
:100500008419511994F8008194F8002201EB4808ED
:10051000CDF81C80DDF834801BF80860855DC719B4
:10052000A9180E9A97F800411BF8022097F800725C
:1005300001EB4405815C0895CC1981190F9E91F857
:10054000008191F8007204EB48081BF80640CDF8D2
:1005500024808218055D92F8006192F80022E91962
:1005600001EB460505EB0807DDF8408015971BF801
:1005700008700A950419C15D94F8005194F800427E
:10058000DDF81C808E1806EB4501119D089A1BF8BA
:1005900005508E18C719425D1696161997F8002156
:1005A00006EB42029044CDF85080129C97F80072FE
:1005B0001BF804604519845DE41995F8007195F8FD
:1005C0000052801904EB47044FF01C0804EB0907A4
:1005D00090F80061139708FB09AADDF81C800C94C1
:1005E0000AEB0209152705EB460490F8005207FBB9
:1005F0000890099FDDF820900A2606FB070A0F27BE
:1006000007FB09A04FF00308DDF8289008FB010064
:100610004FF0060A0AFB0900009015984FF03009C8
:1006200009FB00FADDF858902E2000FB09A0824655
:100630000598824413984FF0240909FB00AA1498E6
:100640004FF02A0909FB00AA0898DDF8249008FB5E
:1006500000F8062000FB0988DDF81C9008EB090073
:1006600007FB01010A9F0C98DDF8009006FB0718B4
:100670001C2606FB008115270B9807FB021205922A
:10068000A9F5003868B1029E049FCDF8108006EBF2
:100690000801CE1B46434FF4807296FBF2F00290A5
:1006A0008046069961B1039E08FB01F8C1F5807789
:1006B00006FB07894FF4807299FBF2F003908046A5
:1006C000199901FB08F7002F02DD0837381103E004
:1006D000083F102697FBF6F047F6BC72019E1349BF
:1006E000189FDDF85C809042A8BF1046DA897243FB
:1006F0008842A8BF0146013627F81210C34401966C
:10070000EFE61D615C61029D059C1D629C61039D7D
:10071000049CC3F81CA05C629D621BB0BDE8F08F16
:10072000D81C0020CDB5E8B5000800204480FFFFAC
:100730002DE9F04FA1B0C74C1F92C74A1E91116816
:10074000A14200D0FEE79F6A9A69998DDC8D0497DB
:100750009F89069207910F940322052106241D6AA2
:100760005E6A03957A4379437C43129214911594FF
:10077000072209210A24794305964FEA47084FEAE0
:1007800087097A434FEAC70A7C431E695D69D3F83B
:100790001CB01891CDF84480CDF84C901692CDF84D
:1007A0005CA01D94002102911A8E0299914280F260
:1007B0005981AA4A047812F80490A944C55D111918
:1007C00012F8058091F8004191F800A2464406EB2A
:1007D0004406119C0896045D5519165D95F800C1F4
:1007E00095F8005206EB0A0808EB4C0ADDF8488041
:1007F000CDF824A010F80810DDF84C80565C1419D0
:1008000006EB050A10F8085094F800C1565D94F8FC
:10081000004251180AEB4C0C361991F800A1149CB7
:1008200091F80012CDF828C006EB4A08065DCDF815
:100830002C80945DDDF85480551904EB010A95F87D
:10084000004195F800520AEB44010C9110F8081091
:100850009619545C641996F8005104EB45040D9404
:10086000169D96F80062DDF824A0DDF85C80A444B3
:10087000445DCDF86CC0155D5118AD1991F800615B
:1008800091F8001205EB460505EB0A060E9510F8E7
:1008900008501C961419565DDDF860A0711894F884
:1008A000006194F8004201EB460C08990CEB01063C
:1008B0001A9610F80A605519915D9219091995F860
:1008C000004192F8006195F8005201EB44012D249B
:1008D00001EB090804FB09BB10910899CDF864806D
:1008E0000BEB0C09DDF8288005EB460592F8006259
:1008F000242202FB019A152404FB08A9DDF824A098
:100900000C994FF01C0B0BFB0A994FF00A08DDF80D
:100910002CA008FB01994FF00F0B0E990BFB0A99C5
:100920004FF00308DDF834A008FB01994FF0060BE7
:100930000BFB0A99CDF80490DDF82CA00C994FF030
:100940004B0B51440BFB01F91B994FF0490A0AFB71
:10095000019B0699DDF868900BEB010A4FF03F0B05
:100960001C990BFB09AA4FF0450BDDF864900BFBBB
:1009700001AA4FF0370B0BFB09ABDDF824A00A9955
:1009800008FB0AF84FF00609DDF820A009FB0188F2
:100990000C99D0444FF00F09DDF82CA009FB018819
:1009A0000A21DDF8389001FB0A884FF01C0A0D99E6
:1009B0000AFB098804FB018A109C0F994FF02D094E
:1009C00009FB04A8DDF804A002FB0C820692AAF53C
:1009D0007A3971B1039C0599CDF8149004EB0902A2
:1009E000541A0F9A4FF48071544394FBF1F403941A
:1009F000A146079961B1049CC1F5807209FB01FC15
:100A000004FB02C94FF4807199FBF1F20492914604
:100A10001F9C04FB09F1002902DD10314C1103E099
:100A20001039202291FBF2F447F6BC718C42A8BF2A
:100A30000C46DA890299DDF874804A4308498C42F1
:100A4000A8BF21461E9C24F81210029A4044511C53
:100A5000A9E600BFCDB5E8B5D81C002000080020ED
:100A60004480FFFF05981E615D61039E069D049C06
:100A700058629D61C3F81CB01E629C62104621B092
:100A8000BDE8F08F2DE9F04F95B0994C1392994A3B
:100A900012911168A14200D0FEE75E6A1D6A9F6A4A
:100AA0009A69998DB3F82E800C964FF00009D3F80F
:100AB00010C05E69D3F81CB00195029709920A91A3
:100AC000CDF83480CDF80C908B4904780D190C5D6D
:100AD00095F8007295F8008106EB070A067ACDF8C2
:100AE0002CA08F198E5D97F8002202EB4805AC44CC
:100AF000057C97F80081CDF810C04A194D5D92F839
:100B0000009292F8002109EB040A0AEB480C90F8D5
:100B100018A090F82090CDF814C001EB0A0494F8C6
:100B2000007294F80041BF1907EB420801EB09027B
:100B3000CDF8188092F8006292F80021771907EB3F
:100B4000440606EB080C90F8288011F80A70079606
:100B500001EB0805CDF840C095F8004295F800512A
:100B6000E619059F06EB4204E619119690F83060ED
:100B700008948C1911F8097094F80022D219049F76
:100B800002EB4502BD180F9590F8385011F8089007
:100B900094F80041DDF82C808E5D4F1997F800A283
:100BA00097F800710AEB090C0CEB4404DDF818A06F
:100BB00011F805C000941C2505FB082944440A21AE
:100BC000DDF8148001FB0A9906EB4706DDF820A04A
:100BD0000F2707FB0899032101FB0A99DDF81CA0E8
:100BE0004FF0060808FB0A99DDF810A0152101FB5B
:100BF0000A99CB44DDF84490CDF82CB04FF02E0A82
:100C00000AFB09FADDF840904FF0300B0BFB09AA04
:100C10004FF0240B0BFB04A90F9C4FF02A0A0AFB90
:100C2000049B099CDDF81890DDF810A0A344059CF6
:100C300008FB09A8DDF820A04FF0030909FB048890
:100C4000079C07FB0A890A2707FB0498DDF8009038
:100C5000DDF82CA00C9F05FB098501FB02520199D0
:100C60000992AAF500328C180D99DDF82880E51B51
:100C70004D434FF4807195FBF1F40194019F44467C
:100C80007C43029FC8EB010507FB054595FBF1F18D
:100C90000291139C6143002902DD0831091103E030
:100CA0000839102791FBF7F147F6BC75134C129FDA
:100CB0000C92A942A8BF2946039DA142B8BF214674
:100CC00079530C354030C02D03957FF4FDAE099863
:100CD000019C029D9861C3F810C05E61C3F81CB00E
:100CE0001C625A629D62102015B0BDE8F08F00BFF3
:100CF000CDB5E8B5D81C0020000800204480FFFFD7
:100D00002DE9F04FA1B084461F92BE4A1E91BE4805
:100D10001168814200D0FEE79E6A9F6905969E8910
:100D2000D98D01967000079703277E431190019893
:100D30009A8D0F9112960521019E08924843B200A8
:100D40001490019E01980199139206277E43072271
:100D5000C700514315961797019E019F1C6A5D6A53
:100D6000169109220A2156434F434FF0000804947C
:100D700006955C691D69D3F81CB018961D97CDF8CF
:100D80000C80188EDDF80C90814580F25A819F49C5
:100D90009CF80000DDF804900F181CF8096097F823
:100DA00000A297F80021085CA2448C198E5D94F88B
:100DB000008294F80041454405EB4207119D0997D4
:100DC0001CF805504A194D5D92F8007292F80081A6
:100DD0003F18129807EB44091CF80040CDF8289002
:100DE00008190C5D90F8007290F80001BF1907EB2C
:100DF0004809DDF84C80CDF82C901CF8089001EBE8
:100E00000902CDF8089092F8006292F80021771953
:100E1000149E1CF80690159E07EB400801EB090094
:100E2000CDF8308090F8005290F800012F1907EBB0
:100E300042081CF80670029DCDF83480CA194E5D38
:100E400092F80042A41904EB40050295DDF82C80CD
:100E5000169E92F80021CF5DA844CDF86C801CF856
:100E6000068011F80950DDF8609001EB080011F8D8
:100E7000088090F8004290F8000166190A9D06EB80
:100E80004204179A0E9466191C961CF802608C197D
:100E90008E5D94F8002294F80041D519099F05EB66
:100EA0004002D5191A951CF809504F194D5D97F855
:100EB000000297F80071404400EB44002D2100EB44
:100EC0000A0401FB0ABB1090099819940BEB020A63
:100ED00006EB470424210B9F01FB00A94FF01508E6
:100EE000DDF828A00D9808FB07964FF01C0B0BFBB4
:100EF0000A69DDF830800A2606FB009A0F27DDF824
:100F0000389007FB08AB4FF0030808FB09BADDF87F
:100F100008B0062000FB0BA9CDF80090DDF834A046
:100F2000DDF830B04FF04B090AEB0B0009FB00FA7B
:100F30001B984FF0490B0BFB00A9079809EB000A1F
:100F4000DDF868901C984FF03F0B0BFB09AA4FF09F
:100F5000450BDDF864900BFB00AA4FF0370B0BFB41
:100F600009ABDDF828A00B9808FB0AF84FF006093A
:100F7000DDF824A009FB00880D9808EB0A0907FB9F
:100F800000980C9FDDF83890029806FB07864FF01A
:100F90001C0A0AFB0968152707FB008610980F9F9B
:100FA0004FF02D0909FB006A01FB02A2DDF800A049
:100FB0000792AAF57A386FB10499069ECDF8188089
:100FC00001EB0800811B79434FF4807291FBF2F72B
:100FD0000497B846089860B1059908FB00F8C0F579
:100FE000807601FB06894FF4807299FBF2F7059732
:100FF000B8461F9800FB08F6002E09DD1036771161
:101000000AE000BFD81C0020CDB5E8B500080020DC
:10101000103E202196FBF1F7039ED8891049DDF898
:10102000748047F6BC729742A8BF17468F42A8BF8C
:10103000394670431E9F721C27F81010C444039257
:101040009FE65C61079C049A9C61059E069C1D615D
:10105000C3F81CB01A625C629E6221B0BDE8F08FDA
:101060004480FFFFAFF3008000000000000000009C
:101070004B1C012B98BF70472DE9F003911C9B0876
:10108000B1F80480B1F802900A8831F802CC8044AB
:10109000814402448444D9F80070D8F8006015688F
:1010A000DCF80040C9F80060C8F80070CCF80050C7
:1010B0001460D9F80470D8F804605568DCF804406E
:1010C000C9F80460C8F80470CCF8045054600831C2
:1010D000013BD5D1BDE8F00370474B1C012B98BFF5
:1010E00070472DE9F003911C9B08B1F80480B1F81A
:1010F00002900A8831F802CC00EB580800EB59093D
:1011000000EB520200EB5C0CD9F80070D8F80060DC
:101110001568DCF80040C9F80060C8F80070CCF829
:10112000005014600831013BDFD1BDE8F003704787
:1011300081F0004102E000BF83F0004330B54FEA88
:1011400041044FEA430594EA050F08BF90EA020FF5
:101150001FBF54EA000C55EA020C7FEA645C7FEA88
:10116000655C00F0E2804FEA5454D4EB5555B8BFAB
:101170006D420CDD2C4480EA020281EA030382EA1C
:10118000000083EA010180EA020281EA0303362DAE
:1011900088BF30BD11F0004F4FEA01314FF4801C81
:1011A0004CEA113102D0404261EB410113F0004F93
:1011B0004FEA03334CEA133302D0524263EB43034A
:1011C00094EA050F00F0A780A4F10104D5F1200EE8
:1011D0000DDB02FA0EFC22FA05F2801841F1000143
:1011E00003FA0EF2801843FA05F359410EE0A5F117
:1011F00020050EF1200E012A03FA0EFC28BF4CF048
:10120000020C43FA05F3C01851EBE37101F00045FD
:1012100007D54FF0000EDCF1000C7EEB00006EEB0A
:101220000101B1F5801F1BD3B1F5001F0CD3490894
:101230005FEA30004FEA3C0C04F101044FEA4452EB
:1012400012F5800F80F09A80BCF1004F08BF5FEA72
:10125000500C50F1000041EB045141EA050130BD52
:101260005FEA4C0C404141EB010111F4801FA4F1F5
:101270000104E9D191F0000F04BF01460020B1FA4A
:1012800081F308BF2033A3F10B03B3F120020CDA82
:101290000C3208DD02F1140CC2F10C0201FA0CF060
:1012A00021FA02F10CE002F11402D8BFC2F1200CC5
:1012B00001FA02F120FA0CFCDCBF41EA0C0190407B
:1012C000E41AA2BF01EB0451294330BD6FEA0404C4
:1012D0001F3C1CDA0C340EDC04F11404C4F12002AF
:1012E00020FA04F001FA02F340EA030021FA04F3C1
:1012F00045EA030130BDC4F10C04C4F1200220FA18
:1013000002F001FA04F340EA0300294630BD21FA55
:1013100004F0294630BD94F0000F83F4801306BF1B
:1013200081F480110134013D4EE77FEA645C18BF0F
:101330007FEA655C29D094EA050F08BF90EA020FA6
:1013400005D054EA000C04BF1946104630BD91EA9E
:10135000030F1EBF0021002030BD5FEA545C05D1A1
:101360004000494128BF41F0004130BD14F58004E0
:101370003CBF01F5801130BD01F0004545F0FE4154
:1013800041F470014FF0000030BD7FEA645C1ABF89
:10139000194610467FEA655C1CBF0B46024650EAC0
:1013A000013406BF52EA033591EA030F41F40021EC
:1013B00030BD00BF90F0000F04BF0021704730B572
:1013C0004FF4806404F132044FF000054FF0000147
:1013D00050E700BF90F0000F04BF0021704730B508
:1013E0004FF4806404F1320410F0004548BF4042DD
:1013F0004FF000013EE700BF42004FEAE2014FEA32
:1014000031014FEA02701FBF12F07F4393F07F4F0C
:1014100081F06051704732F07F4208BF704793F00F
:101420007F4F04BF41F40021704730B54FF4607422
:1014300001F0004521F000411CE700BF50EA010225
:1014400008BF704730B54FF000050AE050EA0102CE
:1014500008BF704730B511F0004502D5404261EB3E
:1014600041014FF4806404F132045FEA915C3FF47F
:10147000D8AE4FF003025FEADC0C18BF03325FEA1C
:10148000DC0C18BF033202EBDC02C2F1200300FACD
:1014900003FC20FA02F001FA03FE40EA0E0021FAF2
:1014A00002F11444BDE600BF00000000000000008F
:1014B00070B54FF0FF0C4CF4E06C1CEA11541DBFEA
:1014C0001CEA135594EA0C0F95EA0C0F00F0DEF8B5
:1014D0002C4481EA030621EA4C5123EA4C5350EA9A
:1014E000013518BF52EA033541F4801143F48013EB
:1014F00038D0A0FB02CE4FF00005E1FB02E506F07C
:101500000042E0FB03E54FF00006E1FB03569CF0D0
:10151000000F18BF4EF0010EA4F1FF04B6F5007FD6
:1015200064F5407404D25FEA4E0E6D4146EB060648
:1015300042EAC62141EA55514FEAC52040EA5E50D1
:101540004FEACE2EB4F1FD0C88BFBCF5E06F1ED87B
:10155000BEF1004F08BF5FEA500E50F1000041EBB2
:10156000045170BD06F0004646EA010140EA02005F
:1015700081EA0301B4EB5C04C2BFD4EB0C0541EA81
:10158000045170BD41F480114FF0000E013C00F396
:10159000AB8014F1360FDEBF002001F0004170BDBA
:1015A000C4F10004203C35DA0C341BDC04F11404D3
:1015B000C4F1200500FA05F320FA04F001FA05F25F
:1015C00040EA020001F0004221F0004110EBD3702C
:1015D00021FA04F642EB06015EEA430E08BF20EA58
:1015E000D37070BDC4F10C04C4F1200500FA04F3FB
:1015F00020FA05F001FA04F240EA020001F000418D
:1016000010EBD37041F100015EEA430E08BF20EAFF
:10161000D37070BDC4F1200500FA05F24EEA020E47
:1016200020FA04F301FA05F243EA020321FA04F076
:1016300001F0004121FA04F220EA020000EBD3702D
:101640005EEA430E08BF20EAD37070BD94F0000F2D
:101650000FD101F00046400041EB010111F4801F61
:1016600008BF013CF7D041EA060195F0000F18BF12
:10167000704703F00046520043EB030313F4801F4E
:1016800008BF013DF7D043EA0603704794EA0C0F08
:101690000CEA135518BF95EA0C0F0CD050EA41061E
:1016A00018BF52EA4306D1D181EA030101F000419B
:1016B0004FF0000070BD50EA410606BF10461946C3
:1016C00052EA430619D094EA0C0F02D150EA0136CF
:1016D00013D195EA0C0F05D152EA03361CBF104610
:1016E00019460AD181EA030101F0004141F0FE41AF
:1016F00041F470014FF0000070BD41F0FE4141F433
:10170000780170BD70B54FF0FF0C4CF4E06C1CEA32
:1017100011541DBF1CEA135594EA0C0F95EA0C0FE7
:1017200000F0A7F8A4EB050481EA030E52EA0335A2
:101730004FEA013100F088804FEA03334FF08055C3
:1017400045EA131343EA12634FEA022245EA1115F0
:1017500045EA10654FEA00260EF000419D4208BFA1
:10176000964244F1FD0404F5407402D25B084FEA4E
:101770003202B61A65EB03055B084FEA32024FF4FA
:1017800080104FF4002CB6EB020E75EB030E22BF57
:10179000B61A754640EA0C005B084FEA3202B6EB17
:1017A000020E75EB030E22BFB61A754640EA5C00C6
:1017B0005B084FEA3202B6EB020E75EB030E22BF56
:1017C000B61A754640EA9C005B084FEA3202B6EB57
:1017D000020E75EB030E22BFB61A754640EADC0016
:1017E00055EA060E18D04FEA051545EA16754FEA78
:1017F00006164FEAC30343EA52734FEAC2025FEA96
:101800001C1CC0D111F4801F0BD141EA00014FF024
:1018100000004FF0004CB6E711F4801F04BF0143F5
:101820000020B4F1FD0C88BFBCF5E06F3FF6AFAE11
:10183000B5EB030C04BFB6EB020C5FEA500C50F1A1
:10184000000041EB045170BD0EF0004E4EEA113124
:1018500014EB5C04C2BFD4EB0C0541EA045170BD2B
:1018600041F480114FF0000E013C90E645EA060E6F
:101870008DE60CEA135594EA0C0F08BF95EA0C0F9D
:101880003FF43BAF94EA0C0F0AD150EA01347FF4E5
:1018900034AF95EA0C0F7FF425AF104619462CE7BC
:1018A00095EA0C0F06D152EA03353FF4FDAE10461F
:1018B000194622E750EA410618BF52EA43067FF470
:1018C000C5AE50EA41047FF40DAF52EA43057FF400
:1018D000EBAE12E700000000000000000000000076
:1018E0004FF0FF3C06E000BF4FF0010C02E000BFEC
:1018F0004FF0010C4DF804CD4FEA410C7FEA6C5CCF
:101900004FEA430C18BF7FEA6C5C1BD001B050EA71
:10191000410C0CBF52EA430C91EA030F02BF90EA5C
:10192000020F0020704710F1000F91EA030F58BF1B
:10193000994208BF90422CBFD8176FEAE37040F07D
:10194000010070474FEA410C7FEA6C5C02D150EA1B
:10195000013C07D14FEA430C7FEA6C5CD6D152EAD6
:10196000033CD3D05DF8040B704700BF844610469B
:1019700062468C461946634600E000BF01B5FFF79A
:10198000B7FF002848BF10F1000F01BD4DF808ED6A
:10199000FFF7F4FF0CBF012000205DF808FB00BF3B
:1019A0004DF808EDFFF7EAFF34BF012000205DF895
:1019B00008FB00BF4DF808EDFFF7E0FF94BF0120E2
:1019C00000205DF808FB00BF4DF808EDFFF7CEFFE3
:1019D00094BF012000205DF808FB00BF4DF808ED22
:1019E000FFF7C4FF34BF012000205DF808FB00BFF3
:1019F0004FEA410C7FEA6C5C02D150EA013C0AD10B
:101A00004FEA430C7FEA6C5C02D152EA033C02D1FC
:101A10004FF0000070474FF00100704700000000D9
:101A20004FEA410212F5001215D211D56FF4787306
:101A3000B3EB625212D94FEAC12343F0004343EAA9
:101A4000505311F0004F23FA02F018BF4042704784
:101A50004FF00000704750EA013005D111F000400E
:101A600008BF6FF0004070474FF00000704700BFA4
:101A70004A0011D212F5001211D20DD56FF478730D
:101A8000B3EB62520ED44FEAC12343F0004343EA62
:101A9000505323FA02F070474FF00000704750EAAD
:101AA000013002D14FF0FF3070474FF00000704717
:101AB0004FEA4102B2F1E04324BFB3F5001CDCF170
:101AC000FE5C0DD901F0004C4FEAC0024CEA5070A8
:101AD000B2F1004F40EB830008BF20F001007047D7
:101AE00011F0804F21D113F13872BCBF01F00040DA
:101AF000704741F480114FEA5252C2F11802C2F10C
:101B0000200C10FA0CF320FA02F018BF40F001008C
:101B10004FEAC1234FEAD32303FA0CFC40EA0C003E
:101B200023FA02F34FEA4303CCE77FEA625307D17B
:101B300050EA01331EBF4FF0FE4040F440007047B2
:101B400001F0004040F0FE4040F40000704700BF4C
:101B500053B94AB9002908BF00281CBF4FF0FF3114
:101B60004FF0FF3000F074B9ADF1080C6DE904CE10
:101B700000F006F8DDF804E0DDE9022304B0704768
:101B80002DE9F047089E04468846002B4BD18A4237
:101B9000154667D9B2FA82F24AB1C2F1200701FABA
:101BA00002F320FA07F7954047EA030894404FEA0A
:101BB000154E230CB8FBFEF71FFA85FC0EFB1788A9
:101BC00043EA084307FB0CF1994209D9EB1807F1E6
:101BD000FF3080F01B81994240F21881023F2B4474
:101BE0005B1AA4B2B3FBFEF00EFB103344EA0344CD
:101BF00000FB0CFCA44509D92C1900F1FF3380F03F
:101C00000781A44540F2048102382C4440EA074091
:101C1000A4EB0C0400271EB1D4400023C6E9004306
:101C20003946BDE8F0878B4209D9002E00F0EB80E1
:101C30000027C6E9000138463946BDE8F087B3FA07
:101C400083F7002F47D18B4202D3824200F2FA8001
:101C5000841A61EB030301209846002EE0D0C6E908
:101C60000048DDE702B9FFDEB2FA82F2002A40F056
:101C70008F80491B4FEA154E1FFA85F80127B1FBEB
:101C8000FEFC230C0EFB1C1143EA014308FB0CF184
:101C9000994207D9EB180CF1FF3002D2994200F2B9
:101CA000CD808446591AA3B2B1FBFEF00EFB10148E
:101CB00043EA044408FB00F8A04507D92C1900F1B9
:101CC000FF3302D2A04500F2B6801846A4EB080408
:101CD00040EA0C409FE7C7F1200CBB4022FA0CFE03
:101CE0004EEA030E01FA07F420FA0CF521FA0CF380
:101CF0004FEA1E482543B3FBF8F92C0C08FB1933B7
:101D00001FFA8EFA44EA034309FB0AF49C4202FAE2
:101D100007F200FA07F10BD91EEB030309F1FF30BC
:101D200080F087809C4240F28480A9F102097344CC
:101D30001B1BADB2B3FBF8F008FB103345EA0344BC
:101D400000FB0AFAA24508D91EEB040400F1FF3398
:101D50006BD2A24569D90238744440EA0940A0FB1D
:101D60000289A4EB0A044C45C2464B4654D351D0D9
:101D7000002E69D0B1EB0A0564EB030404FA0CFCF5
:101D8000FD40FC404CEA0505C6E90054002747E742
:101D9000C2F1200320FA03F7954001FA02F021FA7C
:101DA00003F34FEA154E3843010CB3FBFEF71FFA5D
:101DB00085F80EFB173341EA034107FB08F38B421A
:101DC00004FA02F407D9691807F1FF3C2FD28B42BD
:101DD0002DD9023F2944CB1A81B2B3FBFEF00EFB92
:101DE000103341EA034100FB08F38B4207D969181D
:101DF00000F1FF3C17D28B4215D902382944C91A89
:101E000040EA07473BE73746304609E70746E7E63B
:101E10001846FBE64145ABD2B8EB020A69EB0E026D
:101E200001381346A4E76046E9E7184695E7674698
:101E3000D1E781467CE702382C4447E7ACF1020C3D
:101E40002B442FE7384608E73746E9E60000000054
:101E5000704700BF0000000000000000000000000C
:101E6000844641EA000313F003036DD1403A41D3A5
:101E700051F8043B40F8043B51F8043B40F8043B64
:101E800051F8043B40F8043B51F8043B40F8043B54
:101E900051F8043B40F8043B51F8043B40F8043B44
:101EA00051F8043B40F8043B51F8043B40F8043B34
:101EB00051F8043B40F8043B51F8043B40F8043B24
:101EC00051F8043B40F8043B51F8043B40F8043B14
:101ED00051F8043B40F8043B51F8043B40F8043B04
:101EE00051F8043B40F8043B51F8043B40F8043BF4
:101EF000403ABDD2303211D351F8043B40F8043B94
:101F000051F8043B40F8043B51F8043B40F8043BD3
:101F100051F8043B40F8043B103AEDD20C3205D3A3
:101F200051F8043B40F8043B043AF9D2043208D09B
:101F3000D2071CBF11F8013B00F8013B01D30B880D
:101F400003806046704700BF082A13D38B078DD0EB
:101F500010F003038AD0C3F10403D21ADB071CBFBD
:101F600011F8013B00F8013B80D331F8023B20F827
:101F7000023B7BE7043AD9D3013A11F8013B00F860
:101F8000013BF9D20B7803704B7843708B788370E8
:101F900060467047000000000000000000000000E4
:101FA00090F800F06DE9024520F007016FF0000C99
:101FB00010F0070491F820F040F049804FF0000441
:101FC0006FF00700D1E9002391F840F000F108001C
:101FD00082FA4CF2A4FA8CF283FA4CF3A2FA8CF354
:101FE0004BBBD1E9022382FA4CF200F10800A4FABB
:101FF0008CF283FA4CF3A2FA8CF3E3B9D1E904230F
:1020000082FA4CF200F10800A4FA8CF283FA4CF345
:10201000A2FA8CF37BB9D1E9062301F1200182FAFF
:102020004CF200F10800A4FA8CF283FA4CF3A2FA05
:102030008CF3002BC6D0002A04BF04301A4612BA13
:10204000B2FA82F2FDE8024500EBD2007047D1E916
:10205000002304F00305C4F100004FEAC50514F0A5
:10206000040F91F840F00CFA05F562EA05021CBF76
:1020700063EA050362464FF00004A9E70000000090
:1020800001F0FF01102A2BDB10F0070F08D010F829
:10209000013B013A8B422DD010F0070F42B3F6D12D
:1020A000F0B441EA012141EA014122F007047FF046
:1020B00000070023F0E80256083C85EA010586EA9D
:1020C000010685FA47F5A3FA87F586FA47F6A5FAD9
:1020D00087F68EB9EED1F0BC01F0FF0102F00702E5
:1020E00032B110F8013B013A83EA010313B1F8D190
:1020F0000020704701387047002D06BF3546033871
:10210000073815F0010F07D1013015F4807F02BFA9
:10211000013015F4C03F0130F0BC0138704700BFFA
:1021200010B50B4C82B0236801930BF041F808F016
:10213000BFFD02F0EDF800F0BBF9019A23689A4266
:1021400004D102B0BDE8104000F03ABF00F0D8F86A
:10215000000B002000000000000000000000000054
:1021600010B50F4C82B023680193002000F020F9D5
:1021700003210C4800F04CFA0021012002F0F0F895
:1021800000F066FF00F09CFF019A236806490120D9
:102190009A42487001D102B010BD00F0B1F800BF02
:1021A000000B0020D0A40108482D002000000000F2
:1021B00030B5104D104C2B6883B00020019300F017
:1021C000F7F803210D4800F023FA002319461846BA
:1021D0002370637002F0C4F800F01AFF00F070FF83
:1021E000019A2B6801219A42217001D103B030BDC0
:1021F00000F086F8000B0020482D0020B0A4010854
:1022000010B50D4C82B023680193002000F0D0F887
:1022100003210A4800F0FCF90121022002F0A0F895
:10222000019A23689A4204D102B0BDE8104002F03E
:10223000EFB800F065F800BF000B002050A50108C2
:1022400010B50B4C82B023680193002000F0B0F869
:102250000321084800F0DCF9019A23689A4204D16E
:1022600002B0BDE8104000F013BF00F049F800BF15
:10227000000B002030A50108000000000000000055
:1022800010B51B4B1B4C1B78226882B0013B01929E
:10229000042B04D8DFE803F0131A1D230F000220DB
:1022A00002F07EF8019A23689A421FD102B0BDE87D
:1022B000104002F0ADB8FFF7A3FF0120F0E70E4B8E
:1022C0001B78002BEBD1FFF773FFF6E7FFF748FF12
:1022D000F3E7002000F06CF800F00AFFEDE7064B92
:1022E0005B78002BDBD0FFF7ABFFE6E700F008F8E8
:1022F0008C2D0020000B0020482D00200000000045
:1023000000B5084B83B01A680192019A1B689A4283
:1023100005D1054803B05DF804EB08F031BDFFF7C7
:10232000EFFF00BF000B002090A401080000000098
:1023300080B5164B164F1B68164E174D82B0012400
:102340000193FFF7EDFE0421144800F061F94FF40A
:10235000167009F0EDFA02F043F8012000F028F8B9
:102360000321284600F054F90D483C7009F010FF95
:1023700003210C4800F04CF9FFF782FF00234FF4D3
:102380007A70337009F0D4FAE7E700BF000B002041
:10239000902D00208C2D002000A50108F0A401083C
:1023A000300B002014A50108000000000000000010
:1023B00010B5144C82B022680192012809D015D3BF
:1023C000022805D0019A23689A4218D102B010BDA4
:1023D000002004F02DF9019A23689A4208BF0020DA
:1023E0000DD102B0BDE8104004F042B9002004F065
:1023F0001FF9019A23689A4208BF0120F1D0FFF724
:102400007FFF00BF000B0020000000000000000064
:1024100070B5144E82B005463368019304F050F94C
:10242000002D12DD01350124002004F021F94FF4C4
:10243000967009F07DFA0120044404F019F94FF474
:10244000FA7009F075FAAC42EED1019A33689A42FB
:1024500005D1002002B0BDE8704004F009B9FFF7D3
:102460004FFF00BF000B0020000000000000000034
:102470000EB410B50A4C0B4923680B4883B0019386
:1024800006AB1A46009311F09BFA019A23689A4210
:1024900004D103B0BDE8104003B07047FFF730FF30
:1024A000000B002070A501084C680020000000000F
:1024B00000B5084B83B01A680192019A1B689A42D2
:1024C00006D10549054803B05DF804EB0CF038BCB3
:1024D000FFF716FF000B0020040B00204C680020C3
:1024E0002DE9F04F454B87B01B68059382460E4699
:1024F000002A7FD10846FFF753FD0446204602F02C
:102500000FF83F493F4D024603A814F079FF5046AB
:10251000FFF746FD804603A8FFF742FD00EB0803E6
:102520001A1D10460193009214F04AFA0746003033
:1025300018BF012001F0C4FF03A8FFF731FD03A974
:10254000814602463846FFF78BFC07EB090302334E
:1025500047F67C4B514627F809B018464246FFF72C
:102560007FFC2A6820F808B0D2F80090264905229E
:102570002846C847009A82B1019BDFF890A03B44EF
:1025800003F1030807F1FF3BA9461BF8012F514651
:102590004846FFF76DFFC345F7D104B3B4F57A6F32
:1025A00017D9DFF860904FF000082B6806EB0801A0
:1025B0004FF47A621B6848469847A4F57A644FF452
:1025C000C87009F0B5F9B4F57A6F08F57A68ECD8F7
:1025D00046442B680B481B68224631469847074BF8
:1025E000059A1B689A4207D1384607B0BDE8F04FFC
:1025F00014F0EEB9144681E7FFF782FE000B0020CD
:10260000A0A501084C680020A4A5010870A5010838
:102610002DE9F04FDFF8048185B0D8F8003003933E
:10262000002907DC039AD8F800309A4269D105B036
:10263000BDE8F08F0446FFF7B3FC334B334E1B88E5
:102640002352013001F06CFF3149024601A814F019
:10265000D7FE01A8FFF7A4FC05462046FFF7A0FC23
:10266000054405F10B0B584614F0AAF90746003053
:1026700018BF012001F024FF01A8FFF791FC01A978
:10268000824602463846FFF7EBFB224B07EB0A096E
:1026900047F67C42186827F80A20C9F80200988893
:1026A0009B7989F80830A9F80600A9F80920204686
:1026B000FFF776FC2146024609F10B00FFF7D0FB3D
:1026C000336815491B68304605229847BBF1000F57
:1026D0000CD03D44DFF848900A357C1E14F8012FD9
:1026E00049463046FFF7C4FEAC42F7D1039AD8F80A
:1026F00000309A4205D1384605B0BDE8F04F14F0DD
:1027000067B9FFF7FDFD00BF88A501084C680020F0
:10271000A0A50108B0A50108A4A50108000B002090
:1027200070A501080000000000000000000000008B
:102730002DE9F04FDFF8FC808DB0D8F800300B9316
:10274000002863D003AC2046FFF72AFC01F0E8FE26
:102750003349344E024601A814F052FE01A8FFF797
:102760001FFC05462046FFF71BFC054405F10B0B3B
:10277000584614F025F90746003018BF012001F033
:102780009FFE01A8FFF70CFC01A9824602463846CD
:10279000FFF766FB244B07EB0A0947F67C421868F3
:1027A00027F80A20C9F8020098889B7989F8083030
:1027B000A9F80600A9F809202046FFF7F1FB2146F9
:1027C000024609F10B00FFF74BFB336817491B6802
:1027D000304605229847BBF1000F0CD03D44DFF88E
:1027E00058900A357C1E14F8012F49463046FFF7F1
:1027F0003FFEAC42F7D10B9AD8F800309A420DD187
:1028000038460DB0BDE8F04F14F0E2B8084B93E83D
:10281000070003AC234603C31A8094E7FFF770FD5B
:10282000A0A501084C6800208CA50108A4A50108FA
:1028300080A50108000B002070A501080000000021
:102840002DE9F04F654BDFF8B4911B68644FDFF85A
:10285000B0B185B04FF0000A03936BE0202383F3FF
:10286000118809F0D5FB08F02BFBBE6A08F048FB85
:1028700009F0E6FB3B68BB4207D0BA699B689268E7
:102880009A4202D2574808F07BFA8AF31188202333
:102890000136DBF8008083F3118809F0B9FB08F0FA
:1028A0000FFBBB6A019308F02BFB09F0C9FB3B68E7
:1028B000BB4207D0BA699B6892689A4202D24948E3
:1028C00008F05EFA8AF31188019B94ED000AD4EDBA
:1028D000010ACBF80030A6EB080601F0B9FB4FF473
:1028E0007A7101FB06F1404B40480139A3FB0131ED
:1028F000890900F065FFD4ED007AF5EE407AF1EE3B
:1029000010FA4FF0000106D1D4ED017AF5EE407ACD
:10291000F1EE10FA38D03648FFF77AFE94E803005B
:10292000324B83E80300012389F800302846002158
:102930000AF0AEF80AF064F899F80030846B0546A6
:10294000002B8BD1202383F3118809F061FB08F061
:10295000B7FABE6A08F0D4FA09F072FB3B68BB42D2
:1029600007D0BA699B6892689A4202D21D4808F063
:1029700007FA8AF3118894ED000AD4ED010ACBF826
:10298000006001F065FBB6E71A48FFF741FE89F8E1
:1029900000A0202383F3118809F03AFB08F090FA95
:1029A00008F05EFB144B9B68002B13DD08F080FEE3
:1029B00008F0A6FA09F044FB3B68BB4207D0BA69AD
:1029C0009B6892689A4202D2064808F0D9F98AF3C5
:1029D0001188ABE7084809F013FCE7E7000B00207B
:1029E000285A0020C0A50108D34D62104C2D0020AC
:1029F000E4A50108D0A50108100B00204A2D0020F5
:102A0000542D002000000000000000000000000025
:102A1000F0B52DED028B2B4D2B4E2B6887B008EEB9
:102A2000101A03C8059303AB83E803001946306806
:102A300009F08EFF202383F31188244C09F0E8FA73
:102A400008F03EFAA76A08F05BFA09F0F9FA236881
:102A5000A34204D0A2699B6892689A422CD30023B7
:102A600083F31188DFED1A7A1A4AB8EEC88A4FF458
:102A70007A7328EE278A3846FCEEC87A17EE901A49
:102A800003FB01F101F2E731A2FB013107EB9111E8
:102A900008F08EFF002301A930680193029309F02A
:102AA00057FF0D4809F074FB059A2B689A4207D12D
:102AB00007B0BDEC028BF0BD084808F061F9CEE725
:102AC000FFF71EFC000B0020582D0020285A002084
:102AD000E5D0823FD34D6210100B0020C0A5010845
:102AE00030B50C4C85B0236803930D4603C801F044
:102AF00087FA294601A88DED010ACDED020AFFF7FC
:102B000087FF039A23689A4201D105B030BDFFF7D1
:102B1000F7FB00BF000B00200000000000000000D9
:102B200010B59FED1B7ADFED1B7A1B4CB5EEC00A8A
:102B3000F1EE10FA84B058BFF0EE477ACDED027A8C
:102B4000F0EEC07A17EE900A2268039200230193F8
:102B5000FEF752FC0022114BFEF7AAFC0AA3D3E9B0
:102B60000023FEF7CFFDFEF75BFF014601A8FFF74C
:102B7000B7FF039A23689A4201D104B010BDFFF752
:102B8000BFFB00BFAFF30080000000A09999D93FC0
:102B9000CDCCCC3ECDCCCCBE000B002000408F4035
:102BA00030B5184C90ED010A236885B005460393B3
:102BB000FFF7B6FF2B681448002B80FB03104FEA89
:102BC000E373B4BF6FF0270128210022C3EB20106C
:102BD00002920191FEF7FEFB21F00043002219460C
:102BE0000A4BFEF765FCFEF71BFF014601A8FFF745
:102BF00077FF039A23689A4201D105B030BDFFF7F1
:102C00007FFB00BF000B00206766666600408F40B8
:102C1000F0B50C4E85B033680393044601F038FCE0
:102C20006D460746284601F053F895E8070084E80A
:102C30000700039A3368E7609A4201D105B0F0BDFE
:102C4000FFF75EFB000B002000000000000000000A
:102C50002DE9F043DFF85C9085B0044600300E4665
:102C6000D9F80030039318BF012001F029FC002E91
:102C700016DD0025DFF840802F46C82008F058FEFA
:102C80002046FFF7C5FF013540F20B2101A801974F
:102C9000CDF80880FFF724FFAE4204F11004ECD118
:102CA000039AD9F800309A4202D105B0BDE8F0830A
:102CB000FFF726FB000B0020CDCCCC3E000000002F
:102CC00030B52D4D2D4A2B6889B040F20B2105A857
:102CD0000793002305930692FFF702FF00F058FDCB
:102CE0004FF4F07013F06CFE0446003018BF012062
:102CF00001F0E6FB1E212046FFF7AAFF204600F068
:102D00008FFD204613F064FE01A800F0F9FF01A931
:102D100003A800F035FF03A8FFF742FF202383F349
:102D2000118809F075F908F0CBF808F099F9144802
:102D30008368002B1BDD08F0BBFC08F0E1F809F00C
:102D40007FF9104B1A689A4204D0996993688A688F
:102D50009A4208D3002383F31188079A2B689A427A
:102D600008D109B030BD084808F00AF8F2E709F0C8
:102D700047FAE0E7FFF7C4FA000B0020CDCCCC3EC9
:102D80001C0B0020285A0020C0A5010800000000EC
:102D90002DE9F04F2DED068BDFF880B1DFF880A133
:102DA000DBF80030DFED568A9FED568ADFED569A4C
:102DB0009FED569ADFED56AAC5B00EA843930027A3
:102DC00000F086FF9DED10AA0AE000234FF49D71EC
:102DD00006A88DED078A0693FFF782FE312F63DC8C
:102DE000962008F0A5FD17A8FFF712FF9AF800102B
:102DF00017A801F03DF8013705460028E5D14FF44A
:102E0000F57108A80895CDED098AFFF769FE1BAC9E
:102E100043AE962008F08CFD2046FFF7F9FE1034F3
:102E200062210AA80A958DED0B8AFFF759FEA6428A
:102E3000EFD19AF800301BA902A86A4601F070F899
:102E4000009B013302D1019B01334DD002A8FFF753
:102E5000A7FEDDE9000100F003FA029B2D48CDED4D
:102E6000059A002B80FB03204FEAE373CCBF6FF081
:102E700027022822A3EB20100492FEF7ABFA21F0E0
:102E800000490022244B4946FEF712FBFEF7C8FD1D
:102E9000014604A8FFF724FE9DED030A39EE400A1F
:102EA000FFF73EFE312F9BDD11A800F011FFDDED95
:102EB000137AF4EECA7AF1EE10FA91D414A800F065
:102EC00007FF7AEE2A7A9DED167AB4EEE77AF1EEF4
:102ED00010FA85DC439ADBF800309A420DD145B0F8
:102EE000BDEC068BBDE8F08F4FF49D710CA80C95DE
:102EF0008DED0D8AFFF7F4FD70E7FFF701FA00BFD3
:102F0000CDCCCCBECDCCCC3E00000000FDAD003E13
:102F1000DB0F49406766666600408F40000B00206B
:102F2000482D00200000000000000000000000000C
:102F300010B51C4C1C48236882B003210193FFF795
:102F400067FBFFF725FF202383F3118809F060F862
:102F500007F0B6FF08F084F814488368002B1BDDE7
:102F600008F0A6FB07F0CCFF09F06AF8104B1A68CE
:102F70009A4204D0996993688A689A4208D30023D8
:102F800083F31188019A23689A4208D102B010BDD8
:102F9000084807F0F5FEF2E709F032F9E0E7FFF73D
:102FA000AFF900BF000B002000A601081C0B002099
:102FB000285A0020C0A50108000000000000000001
:102FC00010B50F4C84B02368039301F039FA00F078
:102FD000FFFF00F0B5FB00F0D3F800230093482278
:102FE000084B09484FF4AF6108F04AFC039A236884
:102FF00006499A42086001D104B010BDFFF780F97C
:10300000000B002041280008E01C0020582D002063
:1030100010B50A4C0A4B22680A4884B04FF4AF61DD
:10302000039200220092472208F02AFC039A2368A8
:103030009A4201D104B010BDFFF762F9000B0020E5
:10304000C12C0008582200200000000000000000F1
:1030500010B50A4C0A4B22680A4884B04FF4AF619D
:10306000039200220092422208F00AFC039A23688D
:103070009A4201D104B010BDFFF742F9000B0020C5
:10308000312F0008D02700200000000000000000C1
:1030900000B5084B83B01A680192019A1B689A42E6
:1030A00005D1002003B05DF804EBFFF741BBFFF74B
:1030B00027F900BF000B0020000000000000000006
:1030C00000B5084B83B01A680192019A1B689A42B6
:1030D00005D1054803B05DF804EB09F059B8FFF7D6
:1030E0000FF900BF000B00201C0B002000000000A7
:1030F00000B5064B83B01A680192019A1B689A4288
:1031000002D103B05DF804FBFFF7FAF8000B0020D2
:1031100070B5174E174A336810689AB01993002398
:103120001D461C46C25C283302F01F01B3F5165F32
:1031300004EBD2040D44F5D122462B460E496846D5
:1031400014F05EF9641B68460321FFF761FAB4F5D9
:103150007A7F04DD002001F023F901F059F9199A72
:1031600033689A4201D11AB070BDFFF7C9F800BFA9
:10317000000B00205C2D002030A60108000000009C
:1031800010B5164C86B02368059302F029FD10B1E6
:10319000032001F0B5F903F0E3F84FF4964013F083
:1031A0000FFC0F4980234FF4F0720860CDE9013322
:1031B00000924FF4A0730022A021302002F088FE7C
:1031C00002F096FD059A23689A4205D1002006B0C8
:1031D000BDE8104002F0BCBDFFF792F8000B0020E4
:1031E0005C2D002000000000000000000000000036
:1031F00030B5174C83B0236801930220FFF7D8F84D
:103200004FF4C87008F094FB02F012FD10B10420D6
:1032100001F076F90F4D02F0DBFD02F049FD286860
:10322000003018BF012001F04BF902F0A9FD286021
:10323000642008F07DFB019A23689A4205D10020A2
:1032400003B0BDE83040FFF7B3B8FFF759F800BF4F
:10325000000B00205C2D002000000000000000009A
:1032600070B50F4C94B005460E4623681393FFF7D4
:10327000BFFFFFF74DFF33462A460A4901A814F065
:10328000BFF8094B4FF49642196801A8FFF728F9D7
:10329000139A23689A4201D114B070BDFFF730F839
:1032A000000B002020A601085C2D0020000000007B
:1032B0002DE9F04F2DED068B07EE103A92ED018AC5
:1032C000D2ED009A4B4DB8EEC79A78EE297A85B0C8
:1032D00067EE897A2B6803938A46044617EE900AB4
:1032E000FEF78AF8DAED028ADFED437A78EEA77A04
:1032F000064617EE900A0F46FEF77EF841EC100BDB
:1033000041EC1A0B10F0E4FF53EC102BDAF800003C
:10331000CDE90023FEF75EF8DDE90023804689460B
:1033200030463946FEF7C4F80022344BFEF7EAF97E
:1033300002460B4640464946FDF700FFFEF770FB8C
:10334000B0EE4A0AF0EE6A0A834611F031F853EC07
:10335000102BDAF80400CDE90023FEF73BF8DDE995
:1033600000238046894630463946FEF7A1F8002200
:10337000224BFEF7C7F938EE698A02460B464046F3
:103380004946FDF7DBFEFEF74BFB28EE098ADFED31
:103390001C6A9FED1C7AC8EE267A77EEA87AF4EEC6
:1033A000C77AF1EE10FA06DB77EEC77AF4EEC77A49
:1033B000F1EE10FAF8DAF5EEC07AF1EE10FA08D56F
:1033C0009FED107A77EE877AF5EEC07AF1EE10FA7B
:1033D000F8D4039A2B68C4ED027A9A42C4E900B08B
:1033E000204604D105B0BDEC068BBDE8F08FFEF79A
:1033F00087FF00BF000B0020DB0FC93F00409F404C
:1034000000F05247DB0FC940000000000000000040
:103410002DE9F0472DED048B2B4ECF68336884B037
:103420000546886803930C46FDF7E6FF41EC100B58
:1034300041EC180B10F0BCFFB0EE409AF0EE609A31
:10344000B0EE480AF0EE680A10F042FF53EC102B81
:1034500007F12100CDE90023FDF7BCFFDDE90023E2
:10346000FEF726F8804660688946FDF7B3FF0246FE
:103470000B4640464946FDF761FEFEF7D1FA82460B
:103480006FF02000C01BFDF7A5FF53EC192BFEF7D2
:103490000FF8804620688946FDF79CFF02460B46E0
:1034A00040464946FDF74AFEFEF7BAFA039A3368EA
:1034B0009A42C5E9000A05D1284604B0BDEC048B48
:1034C000BDE8F087FEF71CFF000B002000000000A5
:1034D0002DE9F04F2DED048B584D594C2B6899B0C8
:1034E000B0EE408A179308AB83E8030010EE100A91
:1034F000FDF782FF41EC100B41EC190B10F0E8FED8
:10350000089857EC106BFDF765FFB0EE490AF0EE36
:10351000690A8046894610F04BFF09988DED020B31
:10352000FDF758FFCDE904012068FDF753FF42463F
:1035300082464B468B4630463946CDE90667FDF755
:10354000B7FFDDE9042306460F46DDE90201FDF77A
:10355000AFFF02460B4630463946FDF7EDFD024609
:103560000B4650465946FDF7E7FDFEF759FA206035
:1035700082466068FDF72EFFDDE9022306460F460E
:1035800040464946FDF794FFDDE90423804689461D
:10359000DDE90601FDF78CFF02460B464046494631
:1035A000FDF7CCFD02460B4630463946FDF7C4FD1B
:1035B000FEF736FA94ED020ADFED227A606038EE0B
:1035C000000A0646B4EEE70AF1EE10FA84ED020AAC
:1035D00008DB30EE670AB4EEE70AF1EE10FAF8DA2B
:1035E00084ED020AB5EEC00AF1EE10FA0AD5DFED5D
:1035F000157A30EE270AB5EEC00AF1EE10FAF8D4CB
:1036000084ED020A10EE100AFDF7F6FE3346CDE90E
:10361000000152460C490AA813F0F2FE0AA8032141
:10362000FEF7F6FF179A2B689A4204D119B0BDEC49
:10363000048BBDE8F08FFEF763FE00BF000B002097
:10364000682D0020DB0FC94030A7010800000000F2
:103650002DE9F0412DED048BDFF8DC8090B0D8F837
:1036600000300F930229174655DD9FED318AA0F1F6
:103670001002F0EE488A02EBC102D0E9044543682B
:1036800006685D1B07EE905A341BB8EEE77A07EE2A
:10369000904AF8EEE77A06EE906A87EE276A0830DD
:1036A000824207EE903AF8EEE66AF8EEE77A78EEB4
:1036B000868AE6EEC67A38EE278ADED1023907EE30
:1036C000901A18EE900AB8EEE79AFDF795FE0446B8
:1036D00018EE100A0D46FDF78FFE88EE897A224615
:1036E0002B46C8EE097A87ED007AC7ED017ACDE95D
:1036F0000001104902A813F083FE02A80321FEF77F
:1037000087FF0F9AD8F800309A420FD110B0BDEC65
:10371000048BBDE8F0819FED069A0020002104464D
:103720000D46B0EE498AF0EE498AD6E7FEF7E8FD8D
:103730000000000050A60108000B0020000000005F
:1037400010B50E4C0E4B226882B000210192082069
:1037500000229960C3E9002213F032F9019A23682C
:1037600008499A42086007D1003018BF012002B012
:10377000BDE8104000F0A4BEFEF7C2FD000B002023
:10378000682D0020602D00200000000000000000D7
:1037900010B5094A094B116882B0002401910198C3
:1037A00011689C6000228842C3E9002201D102B066
:1037B00010BDFEF7A5FD00BF000B0020682D002006
:1037C00070B5144E144C336894B002AD0246139396
:1037D00028460B462146FFF76BFD95E8070084E875
:1037E00007000546A0680C46FDF706FE2346CDE916
:1037F00000012A46094906A813F002FE06A8032183
:10380000FEF706FF139A33689A4201D114B070BDD7
:10381000FEF776FD000B0020682D002010A70108A0
:103820002DE9F04F2DED028BD04BA7B01B682593EF
:1038300004464FF4806013F0C3F88146003018BF8F
:10384000012000F03DFE00260223204689F8783052
:1038500004F5F0773546B6464FF0010C19E0012C1F
:103860003DD07CBB03EB850454F8044CE468A142D2
:1038700026DC0BD001368032072EDD6709EB020310
:103880004ADC49F80200012583F878C01030B842BC
:1038900011D0C168F201312909EB0203F6DD93F87A
:1038A0007840022CDBD17DB949F802001030B842D3
:1038B0004FF00105EDD1062EDD672FDC002048E139
:1038C00043F825000135E1E759F80220D26891421A
:1038D0001BDA83F878C043F825000135D6E703EBFF
:1038E000850858F8048CD8F80C804145E8DBCDD029
:1038F00001368032072EDD6709EB02030CDC49F844
:103900000200254683F878E0C0E7BFD083F878E06E
:1039100043F825000135B9E70022DA670023CDE935
:103920000A33CDE90C3306AC0194082013F048F8B3
:1039300044F8040B0AABA342F7D1A9F104030093A6
:103940000023029404ADCDF80C909A46009ED6F860
:10395000801000294FEA6A032FDD26AA02EB8303B9
:103960001F4653F8700C53F8804C00F1010B5B4676
:103970004FEACB0900EB0108B3461E4600E00136D2
:103980004946204613F03CFB0446003018BF012096
:1039900047F8804C00F094FD5BF8041F2846FFF7C1
:1039A00037FD95E8030004EB0903464503E90300EE
:1039B00009F1080947F8706CE1D1009B0AF1010A8E
:1039C0008033BAF1080F0093C0D1DDF80C9048465F
:1039D00012F0FEFFDDE9014810AD2E460AAF54F8A3
:1039E000040B57F8041B3246FFF732FE444506F13C
:1039F0000806F4D1019F0026386812F0E9FF47F865
:103A0000046BBC42F8D100232A46D5ED037AD5EDEC
:103A1000025A95ED016AD2ED006A37EEC66A76EE7B
:103A2000E56A0AA886EE267A0AAA1A440835BDEE87
:103A3000C77AF8EEC76A17EE101AE5EEA67AC150FB
:103A40000833FDEEE77A182BC2ED017ADCD112982B
:103A5000474CFDF7D1FC41EC100B10F089FA51EC0A
:103A6000100BFEF725F80AAB80F0004500EE105A67
:103A700093E80300FFF72CFD00232360A360284692
:103A8000FDF7BAFC41EC100B41EC180B10F020FCD8
:103A90005BEC10ABB0EE480AF0EE680A10F088FC60
:103AA0000C9857EC106BFDF795FC52465B46FDF702
:103AB000FFFC304B804618688946FDF78BFC0246B8
:103AC0000B4640464946FDF739FB80460D9889462E
:103AD000FDF780FC32463B46FDF7EAFC02460B460A
:103AE00040464946FDF728FBFDF79AFF054665600D
:103AF0000E98FDF76FFC32463B46FDF7D9FC1D4B97
:103B0000064658680F46FDF765FC02460B463046F0
:103B10003946FDF713FB06460F980F46FDF75AFC92
:103B200052465B46FDF7C4FC02460B46304639461A
:103B3000FDF704FBFDF774FF2A46034606460E49CF
:103B4000E66018A813F05CFC18A80321FEF760FDDE
:103B50000120064B259A1B689A4204D127B0BDEC80
:103B6000028BBDE8F08FFEF7CBFB00BF000B0020FF
:103B7000742D0020682D0020C0A601080000000060
:103B80002DE9F0472DED028BDFF838A1454FDAE93A
:103B90000023D1E9005490B0AD1AE41A06463B6800
:103BA00094FBF5F00F93FDF715FC41EC100B10F0B2
:103BB000DFF959EC108B10EE100A4946FDF778FF3B
:103BC000FDF71AFC23462A46CDE90001364902A832
:103BD00013F016FC02A80321FEF71AFD002DACBF5E
:103BE0009FED327A9FED327ADAED027A77EE677ADC
:103BF00004FB04F417EE900AFDF7FEFB42464B4629
:103C0000FDF79CFAFDF754FF08EE100A05FB05408E
:103C1000FDF7E0FB41EC100B10F02AFC51EC100B0F
:103C2000FDF7FEFEDFED237AB4EEE78AF1EE10FA3F
:103C3000044608DD9FED207A38EE478AB4EEE78A25
:103C4000F1EE10FAF8DCDFED1D7AB4EEE78AF1EE62
:103C500010FA08D59FED187A38EE078AB4EEE78A95
:103C6000F1EE10FAF8D418EE100AFDF7C5FB224663
:103C7000CDE90001124902A813F0C2FB02A80321FA
:103C8000FEF7C6FC0F9A3B6834609A4286ED018AC3
:103C9000304604D110B0BDEC028BBDE8F087FEF7D2
:103CA0002FFB00BF000B0020D0A60108E4CB9640FC
:103CB000DB0FC93FDB0F4940DB0FC940DB0F49C0B9
:103CC000F4A60108682D002000000000000000009C
:103CD00030B5094C094A256883B00346019507CAE7
:103CE000019D2468A54283E8070002D1184603B06D
:103CF00030BDFEF705FB00BF000B0020682D002043
:103D000030B50B490B4A0C68D368526883B003EB9B
:103D1000D3730194019D0C6802EBD2725B105210B8
:103D2000A542C0E9002301D103B030BDFEF7E8FA97
:103D3000000B0020742D0020000000000000000097
:103D40002DE9F043414F91B03B680F93064668461A
:103D500090468946FFF75CFBDDE900543C492A4662
:103D6000234602A813F04CFB02A80321FEF750FCE7
:103D7000B8F1000F3AD0DFF8E480DFF8E490D8F82B
:103D80000010D9F8000000291DDDD0E90032A21A88
:103D900002FB02F2EB1A03FB03233B2B45DD8446B7
:103DA0004FF0000E0BE0DCE90232A21A02FB02F235
:103DB000EB1A03FB03233B2B0CF1080C35DD0EF152
:103DC000010E8E45EFD10131C90013F019F9D8F871
:103DD0000020C9F8000040F83250D8F8003000EB5D
:103DE000C20001334460C8F8003009E01949D9F82D
:103DF0000C300A68213302F1130098420ADA0B6092
:103E0000C6E900540F9A3B689A4230461BD111B064
:103E1000BDE8F083133A9A42F1DC4FF47A724FF026
:103E2000FF330A60C6E90033ECE70B4B0FCB02AC63
:103E300007C402A823700321FEF7EAFB4FF0FF330B
:103E4000C6E90033DEE7FEF75BFA00BF000B002097
:103E500090A60108280B0020A8A60108642D0020C8
:103E6000602D0020000000000000000000000000A5
:103E70002DE9F041254D90B02B680F930C46074675
:103E800001466846FFF7C4FADDE90068204932467A
:103E9000434602A813F0B4FA02A80321FEF7B8FBC8
:103EA000B4B11C4A13683133B3420BDA5368313B67
:103EB000B34207DD93683133434503DAD368313BBE
:103EC000434512DC144B4FF47A7220461A6005E029
:103ED000F868B0F5867FB4BF002001200F9A2B68E8
:103EE0009A4211D110B0BDE8F0810C4B93E8070065
:103EF00002AB03C323F8022B120C02A803211A7091
:103F0000FEF786FB0020E9E7FEF7FAF9000B002038
:103F100060A60108742D0020280B00207CA6010853
:103F20002DE9F0472DED028BDFF898809FED218A77
:103F3000D8F80040CD68DFED205A9FED206ADFED14
:103F4000206A84B007460394914601F1A0068A4690
:103F500002200FE0CC68AC420BDA07EE900AF8EED4
:103F6000E77A254667EEA57A8A4687EE867A37EEA7
:103F7000668A02301031B142ECD16C461A462046B6
:103F80005146FFF7DDFE94E8030089E8030003993A
:103F9000DAF80C30D8F8002087ED018A783B91429E
:103FA0003B60384604D104B0BDEC028BBDE8F0871D
:103FB000FEF7A6F9DB0FC9BEDB0F49400000204326
:103FC000DB0FC93E000B00200000000000000000D5
:103FD00000B5074B83B01A680192019A1B689A4298
:103FE00004D103B05DF804EB02F00ABEFEF788F9D5
:103FF000000B002000000000000000000000000096
:1040000000B589B002AB83E8030007EE900A0E4BBF
:104010009DED037A1A680792F8EEE70AF3EE0B7A41
:10402000B0EE600AA7EE670A079A1B68E7EE270A58
:104030009A428DED050ACDED060A02D109B05DF870
:1040400004FBFEF75DF900BF000B0020000000003C
:1040500030B5144D144CD5ED007A236860EE277A04
:1040600085B0FDEEE77A039317EE900A8DED000A16
:10407000CDED010A02F0ACFD039A23689A420ED1FD
:10408000DDED017A95ED007A67EE877AFDEEE77A4D
:1040900017EE900A05B0BDE8304002F081BDFEF792
:1040A0002FF900BF2C0B0020000B002000000000A7
:1040B00000B525499FED257A0B6883B078300193D0
:1040C0004FF0FF321E23F0EC017AF4EEC77AF1EEE6
:1040D00010FAC8BF1AB203F10103C8BFB0EE677A85
:1040E0003F2BF0D192B2A2F12003022B1DD9A2F1F5
:1040F0002603022B0FD9A2F12D03022B19D9A2F10D
:104100003303022B19D93A3A022A114B94BF0322E6
:1041100000221A7002E00E4B02221A70019A0B68FC
:104120009A420ED103B05DF804FB094B01221A70CC
:10413000F4E7074B04221A70F0E7054B05221A70CA
:10414000ECE7FEF7DDF800BF000B0020007C124812
:104150008C2D002000000000000000000000000086
:104160002DE9F04F5E4D5F4C95F80080236883B0D9
:104170000193B8F1000F07D1019A23689A4240F0E9
:10418000AA8003B0BDE8F08F574E584F8346306881
:1041900000308A4618BF012000F092F9BAF1000FF2
:1041A0003FD0BBF906303988D6F800C007EE903A08
:1041B0004A1C8B1C92B29BB2F8EEE77A0CEB82029F
:1041C0004FF000090CEB8101B3F5006FC1ED007AEF
:1041D0003B80C2F8009024D20AF1FF31C1F38D0177
:1041E00058460BEBC101002217E0B0F90E2007EE94
:1041F000902A5A1C0CEB830E92B202330CEB820213
:10420000F8EEE77A9BB2B3F5006FCEED007A00F1DD
:104210000800C2F8009042465FD28142E5D1002AF0
:104220005BD1DFF8DC80D8F80000003018BF012037
:1042300000F046F93B88B3F5006F9DD33168DFF895
:10424000C4904FF4806000F083F93068D8F8001013
:104250004FF4806211F0DCFF99F80030082B06D88B
:104260000133DBB2002289F800303A8084E7D8F8C5
:104270000000FFF71DFF1E4B1A78002389F800305D
:104280000AB90123EEE72B703B80202383F31188CA
:1042900007F0BEFE06F014FE06F0E2FE1548836845
:1042A000002B15DD07F004FA06F02AFE07F0C8FE21
:1042B000114B1A689A4207D0996993688A689A42A2
:1042C00002D20E4806F05CFD002383F3118853E709
:1042D00007F096FFE6E7FEF713F83B80A1E700BF83
:1042E000902D0020000B0020842D00208E2D00201A
:1042F0008C2D0020300B0020285A002050A70108E8
:10430000882D0020912D00200000000000000000FA
:1043100030B50F4C0F4D236883B04FF4005001931C
:1043200012F04EFB0C4B18604FF4805012F048FB1B
:10433000019A2368094928609A424FF000000870EA
:1043400004D103B0BDE8304001F06ABBFDF7D8FFEF
:10435000000B0020882D0020842D0020902D0020AF
:1043600030B50C4C83B023680193054601F0D8FBAF
:10437000022D019A236803D09A4209D103B030BDBF
:104380009A4205D1284603B0BDE8304001F068BB31
:10439000FDF7B6FF000B0020000000000000000049
:1043A00030B50C4C83B023680193054601F0B8FB8F
:1043B000022D019A236807D89A4209D1032003B03D
:1043C000BDE8304001F04CBB9A4201D103B030BD92
:1043D000FDF796FF000B0020000000000000000029
:1043E00000B5084B83B01A680192019A1B689A4283
:1043F00005D1054803B05DF804EB00F089BFFDF777
:104400007FFF00BF000B002061410008000000009A
:1044100000B5074B83B01A680192019A1B689A4253
:1044200004D103B05DF804EB01F052BBFDF768FF67
:10443000000B002000000000000000000000000051
:1044400010B50D4C82B02368019306F011FB0B4AA6
:104450000B490C4806F04CFB02F0C2FD019A2368A0
:104460009A4206D14FF4FA7002B0BDE8104007F04E
:104470005FBAFDF745FF00BF000B00203C0B00209A
:10448000440B0020744A00200000000000000000DF
:1044900010B5094C82B02368019306F011FB074B5D
:1044A000019A196823689A42A0EB010001D102B079
:1044B00010BDFDF725FF00BF000B0020942D00204C
:1044C00000B50B4B83B01A680192019A1B6820B1AA
:1044D0009A420AD103B05DF804FB9A4205D101204B
:1044E00003B05DF804EB00F00BB8FDF709FF00BF67
:1044F000000B002000000000000000000000000091
:1045000000B5064B83B01B68019304462046FDF7B7
:104510007FFF4FF4FA6007F00BFAF7E7000B00207B
:1045200010B50A4C82B023680193B0F5803F05D2E4
:10453000019A23689A4207D102B010BD0220FFF70A
:10454000DFFF4FF0FF30F3E7FDF7DAFE000B00204E
:1045500000B50D4B83B01A680192B0F5806F019AD7
:104560001B6804D09A420CD103B05DF804FB9A4258
:1045700007D106480123002203B05DF804EB11F0D7
:10458000C7BDFDF7BDFE00BF000B002060A70108FE
:1045900030B54368174D1A68296883B00446019105
:1045A00012B304220270DA681B6852081146984759
:1045B0002378042B18D0202383F3118807F058FDAB
:1045C00006F0BEFC04F10800002107F0E9FA06F04D
:1045D000D7FC07F065FD002383F31188019A2B684F
:1045E0009A4204D103B030BD02232370E3E7FDF704
:1045F00087FE00BF000B002000000000000000004C
:1046000070B5194D82B02B68019311F00C0F0C4658
:10461000064622D114F0200109D0019A2B689A4253
:104620001FD1304602B0BDE87040FFF7B1BFE306CE
:104630000DD57268136853B1019C2868844210D16B
:10464000D2683046520802B0BDE870401847019A5F
:104650002B689A4205D102B070BD044806F090FB69
:10466000D8E7FDF74DFE00BF000B002090A7010822
:1046700070B5194D82B02B68019311F00C0F0C46E8
:10468000064622D114F0200109D0019A2B689A42E3
:104690001FD1304602B0BDE87040FFF779BFE30696
:1046A0000DD57268136853B1019C2868844210D1FB
:1046B000D2683046520802B0BDE870401847019AEF
:1046C0002B689A4205D102B070BD044806F058FB31
:1046D000D8E7FDF715FE00BF000B002090A70108EA
:1046E00030B50F4D0F4C2A680F4B83B02046019216
:1046F0004FF6FF721A8000F013FC0C4B01992A68E8
:104700000B480C4D2562636203F1240591420A4B6C
:104710002363C4E90A5001D103B030BDFDF7F0FDB9
:10472000000B0020B02D0020982D002018B60108A5
:104730001E010100003C0040460001000000000096
:1047400070B52C4D03782A6882B0012B0446019283
:1047500024D06368E26A5989236B22F4F04223F47F
:10476000F043090544BF42F4205243F42053C4E906
:104770000B23236A00221A606268236A52891A6036
:10478000236A03225A60226A136843F040031360CD
:10479000019A2B689A422BD102B070BD164EB042DE
:1047A0000AD0D4E9083212680C339360A26A236AF3
:1047B00012680C339360CCE70346104A406A0A2122
:1047C0000BF00EFA80B9B06A0B4B0D4A0A210BF0C0
:1047D00007FA28B90B4A136C43F400431364E0E76B
:1047E000094806F0CDFAF5E7074806F0C9FAEAE706
:1047F000FDF786FD000B0020B02D0020714600085B
:10480000014600080038024070A7010800000000BF
:1048100070B5456A174C2D68266882B00196EB602A
:10482000436A1B685960456AC36A2D6843F4806314
:104830002B60836A1B68DA60836A1B685960826A2E
:10484000036B126843F480631360436A1A68136849
:1048500043F001031360836A1A68136843F001038D
:104860001360019A23689A4201D102B070BDFDF72E
:1048700047FD00BF000B002000000000000000000A
:1048800030B5104D81682B680F4A83B001930B68D7
:1048900023F001030B608168946A03E0936A1B1B99
:1048A000C72B09D8086810F00100F7D1019A2B68CE
:1048B0009A4204D103B030BD4FF0FF30F6E7FDF768
:1048C0001FFD00BF000B0020285A00200000000040
:1048D00030B5184D83B02B68019311F00C0F0446CE
:1048E0000AD00378032B13D00622636822709A68DB
:1048F0001AB100212046904763685B688BB101992B
:104900002A68914213D1204603B0BDE830401847D1
:10491000FFF7B6FF0622636822709A68002AE8D182
:10492000EBE7019A2B689A4201D103B030BDFDF745
:10493000E7FC00BF000B00200000000000000000AA
:10494000F0B5284D83B02B68019307F029FB06F0E2
:1049500037FB254B1E69F20715D55A69234C42F0E7
:1049600001025A612778BB1F012B2AD905226368EF
:1049700022701B680BB120469847042F27D0022FC6
:1049800025D003232370B30710D5174A174C53695A
:1049900043F0020353612378032B1DD063689B68A7
:1049A0000622227013B101211048984706F030FB0F
:1049B000019A2B689A4213D103B0BDE8F04008F089
:1049C000B7BB019A2B689A420AD103B0F0BD02230B
:1049D0002370B307EAD5D8E72046FFF751FFDDE79C
:1049E000FDF78EFC000B0020000005509C2D0020E0
:1049F00030B50B4D0B4C2B6883B02046019300F073
:104A00002FF9019A2B680848084D094921619A42FB
:104A1000C4E9025001D103B030BDFDF771FC00BF05
:104A2000000B00209C2D00206CB6010800000550F2
:104A30001655020200000000000000000000000007
:104A40002DE9F0412F4C0578266882B0012D0196A2
:104A500006D0019A23689A4252D102B0BDE8F08193
:104A6000294DA842F5D10E4690461F46274AE868D0
:104A70002B460C210BF0B4F8002839D1D5E90232CD
:104A8000126828339360EB681A68042151611B682F
:104A9000C3F80C80EB681A6817611B68B6085E6083
:104AA0002B694FB343F480232B61E968184A0968E6
:104AB0000B60EB6819680B6843F001030B60536BE4
:104AC00043F0010353630B214E200AF069FDD5E941
:104AD0000113DA6842F00102DA60DA6842F0020299
:104AE000DA60CA6822F4804222F001021A60B0E75C
:104AF000084806F045F9C1E723F480232B61D4E789
:104B0000FDF7FEFB000B00209C2D0020D148000883
:104B100000380240A0A701080000000000000000CB
:104B200030B5184C0378226883B0022B019205D06F
:104B3000019A23689A4223D103B030BD124B9842A8
:104B40000546F5D18168114A0B6823F4804323F0B0
:104B500001030B608168CB6823F00F03CB60536BBC
:104B600023F0010353634E200AF042FD019A2368AB
:104B70009A4205D1E86803B0BDE830400BF098B820
:104B8000FDF7BEFB000B00209C2D002000380240EA
:104B900000B50F4B0278196883B0022A01910ED13B
:104BA00081680A6842F002020A6081680A6842F479
:104BB00080420A6081680A6842F001020A60019A34
:104BC0001B689A4202D103B05DF804FBFDF798FB25
:104BD000000B0020000000000000000000000000AA
:104BE00000B50F4B0278196883B0022A01910ED1EB
:104BF00081680A6822F002020A6081680A6842F449
:104C000080420A6081680A6842F001020A60019AE3
:104C10001B689A4202D103B05DF804FBFDF770FBFC
:104C2000000B002000000000000000000000000059
:104C300000B5074B83B01A680192019A1B689A422B
:104C400004D103B05DF804EBFFF7D2BEFDF758FBCB
:104C5000000B002000000000000000000000000029
:104C600000B5084B83B01A68019201220270019AC4
:104C70001B6800219A42416002D103B05DF804FB39
:104C8000FDF73EFB000B00200000000000000000CC
:104C90002DE9F043254D83B02C680194DDF8289070
:104CA0000F4616469846044618B111B1204B9A4259
:104CB0002FD9204806F064F8202383F3118807F0E9
:104CC000A7F906F0FDF82378012B02D0194806F069
:104CD00057F84246314620464B466760FFF7B0FE24
:104CE0000223237006F00CF907F0AAF9124B1A6898
:104CF0009A4204D0996993688A689A420FD3002334
:104D000083F31188019A2B689A420CD103B0BDE855
:104D1000F0839307CDD1B8F1000FCDD1C9E7074893
:104D200006F02EF8EBE7FDF7EBFA00BF000B0020D2
:104D3000FCFF0300D0A70108285A0020C0A70108E3
:104D400030B51C4D83B02B680193044658B3202323
:104D500083F3118807F05CF906F0B2F82378022B90
:104D600002D0154806F00CF82046FFF7D9FE0123C3
:104D7000237006F0C5F807F063F9104B1A689A42E1
:104D800004D0996993688A689A4208D3002383F310
:104D90001188019A2B689A4209D103B030BD0848A6
:104DA00005F0EEFFF2E7044805F0EAFFCFE7FDF774
:104DB000A7FA00BF000B0020E0A70108285A002036
:104DC000C0A7010800000000000000000000000073
:104DD00030B51C4D83B02B680193044658B3202393
:104DE00083F3118807F014F906F06AF82378022B90
:104DF00002D0154805F0C4FF2046FFF7C9FE042382
:104E0000237006F07DF807F01BF9104B1A689A42E0
:104E100004D0996993688A689A4208D3002383F37F
:104E20001188019A2B689A4209D103B030BD084815
:104E300005F0A6FFF2E7044805F0A2FFCFE7FDF773
:104E40005FFA00BF000B0020F0A70108285A0020DD
:104E5000C0A70108000000000000000000000000E2
:104E600030B51C4D83B02B680193044658B3202302
:104E700083F3118807F0CCF806F022F82378022B90
:104E800002D0154805F07CFF2046FFF7A9FE03235A
:104E9000237006F035F807F0D3F8104B1A689A42E1
:104EA00004D0996993688A689A4208D3002383F3EF
:104EB0001188019A2B689A4209D103B030BD084885
:104EC00005F05EFFF2E7044805F05AFFCFE7FDF773
:104ED00017FA00BF000B002010A80108285A002074
:104EE000C0A7010800000000000000000000000052
:104EF00000B5074B83B01A680192019A1B689A4269
:104F000004D103B05DF804EBFFF7EABBFDF7F8F955
:104F1000000B002000000000000000000000000066
:104F200000B50A4B83B01A68019201220270019900
:104F30001A6800239142C0E9013305D10C3003B057
:104F40005DF804EB07F09CB9FDF7DAF9000B0020DF
:104F500070B51E4D82B02B6801930E46044670B3A7
:104F600069B3202383F3118807F052F805F0A8FFF6
:104F70002378013B012B02D9154805F001FF20469B
:104F80006660FFF7DDFB0223237005F0B9FF07F031
:104F900057F8104B1A689A4204D0996993688A6846
:104FA0009A4208D3002383F31188019A2B689A420E
:104FB00009D102B070BD084805F0E2FEF2E70448EE
:104FC00005F0DEFECDE7FDF79BF900BF000B0020EA
:104FD00030A80108285A002020A80108000000007D
:104FE0002DE9F041214D82B02C6801940E46904687
:104FF0001F46044600B171BB1D4805F0C1FE2023C9
:1050000083F3118807F004F805F05AFF2378022B88
:1050100002D0174805F0B4FE03203B464246314615
:1050200020702046FFF7F4FB05F06AFF07F008F850
:10503000104B1A689A4204D0996993688A689A4218
:105040000ED3002383F31188019A2B689A420BD167
:1050500002B0BDE8F081002BCED0002ACFD1CBE743
:10506000054805F08DFEECE7FDF74AF9000B00203E
:1050700040A80108285A002020A8010800000000CC
:1050800000B5084B83B01A680192019A1B689A42D6
:1050900005D1054803B05DF804EB05F071BEFDF7DE
:1050A0002FF900BF000B002030AB0108000000000A
:1050B00070B5164B164C1A78216882B001912AB14E
:1050C000019A23689A421FD102B070BD054601269D
:1050D00010481E70802343830F4A104910484FF434
:1050E000B47308F055FB019A23689A420CD14FF42F
:1050F000B4730C480C4903FB05F3B1FBF3F102B0A8
:10510000BDE8704008F0A4BCFDF7FAF8082E0020B6
:10511000000B0020000C024060A80108F82D0020C0
:1051200078640020CC67002000BD0105000000006D
:1051300010B50C4C0C4B22680C4882B001928022B6
:105140001A8308F0E5FC0A4808F062FB019A23681C
:10515000084900209A42087001D102B010BDFDF745
:10516000CFF800BF000B0020000C0240CC670020ED
:1051700078640020082E00200000000000000000DD
:1051800070B5154D154A164B2968164E9E6082B0B3
:1051900000244FF400601080019194701146124871
:1051A0005C6001221A60DC6008F072FA0F4B104E4E
:1051B00010485C60202219469A60DC601E6008F08E
:1051C000D7FB019A2B689A4204D102B0BDE8704027
:1051D000FFF7AEBFFDF794F8000B0020F42D002080
:1051E000F82D00208150000878640020E42D002074
:1051F00000BD0105CC670020000000000000000099
:105200002DE9F04F3B4A3C4B126883B001240192D8
:105210001C70002968D04FF00008384CC246C346C5
:10522000C1464746C446434647F6FF7E14E0AB45B9
:10523000A8BFAB46B2F90450BD4220DCB2F906204B
:10524000AA45A8BFAA464A451EDC043390459BB236
:10525000A8BF904699421CD930F9136000EB430275
:10526000B442B2F90250B8BF3446B645A8BFB646FC
:105270006545DCDDAC46B2F90450BD42DEDDB2F975
:1052800006204A452F46E0DD04339BB29942914601
:10529000E2D8A4EB0E04ACEB0B0CA7EB0A07A9EBCE
:1052A0000808A4B21FFA8CFCBFB21FFA88F8144A8F
:1052B00010491480019C0968124BA2F802C0978023
:1052C000B0F8F8C4B0F8FA64A2F80680B0F8FC545C
:1052D000B0F8FE24A3F800C08C425E809D80DA8086
:1052E00006D103B0BDE8F08F88460F468C46DEE756
:1052F000FDF706F8000B0020092E00200080FFFFBC
:10530000142E00200C2E00200000000000000000E1
:1053100010B5404B404C1B78226882B0012B0192A3
:1053200005D0019A23689A4271D102B010BD0028BD
:105330006AD00090684600F0DBF9384A384B516C6F
:1053400041F480315164506A002140F48030506251
:1053500051621961D9601A6A22F001021A629A69CF
:1053600022F003029A619A6942F001029A619A69F5
:1053700022F0F0029A611A6A22F00A021A629A690D
:1053800022F00C029A619A6822F070029A609A6880
:1053900042F050029A609A6822F4803222F00702AA
:1053A0009A609A6842F007029A601A68012022F413
:1053B00040721A60D862996258611A6A22F010022B
:1053C0001A629A6922F440729A619A6922F0807294
:1053D00022F4E0429A619A6942F4C0429A611A6AE0
:1053E00022F0A0021A6298639A6942F400629A61FC
:1053F0001A6A22F480621A621A6A42F011021A6270
:105400001A6802431A608CE7064B009392E7FCF798
:1054100077FF00BF64670020000B002000380240C7
:1054200000400140015200080000000000000000A0
:1054300070B5114C82B0236801930E4615462023A7
:1054400083F3118806F014FE05F07AFD0B4B0C482F
:10545000C3E9006506F0D4FE05F092FD06F020FEDB
:10546000002383F31188019A23689A4201D102B084
:1054700070BDFCF745FF00BF000B0020304300204B
:105480001C2E0020000000000000000000000000B2
:1054900070B5114C82B0236801930E461546202347
:1054A00083F3118806F0E4FD05F04AFD0B4B0C4830
:1054B000C3E9006506F0A4FE05F062FD06F0F0FD0C
:1054C000002383F31188019A23689A4201D102B024
:1054D00070BDFCF715FF00BF000B00201441002039
:1054E0001C2E002000000000000000000000000052
:1054F0002DE9F04F634B64499A69644B916185B023
:105500001B6803935F4B9B6993F821305B0700F1A5
:10551000AE805F4806F03CFE5D4806F039FE594B10
:105520009B6993F8212012F0040240F0A080594DAD
:1055300059482B6801680446406805EB830304EB77
:10554000810103F50279430001F10808019343D07A
:10555000DFF854B1514BDFF860A1012018F8125068
:1055600018F8006019F8121019F8004005F0550CF1
:10557000770806F0550613F80CC09E5D01F0550E35
:105580004CEA061649084FEA540C01F0550104F0A4
:1055900055040CF0550C6D0813F80EE0595C1C5DB9
:1055A00013F80CC00BF8126005F0550507F055070D
:1055B00041EA0C114EEA041E0AF812E05D5D0AF899
:1055C0000010DF5D0199013245EA071591420BF8A1
:1055D000005000F10200C1D1314B32493248334D05
:1055E0000422FAF745FF324B324933480422FAF7D6
:1055F0003FFF324B324933480422FAF739FF324B2E
:10560000324933480422FAF733FFDFF8D8C028685C
:105610009CF80070234A274900EBC71302F14006AB
:1056200054881C8032F8044B5C800C889C804C8829
:10563000DC80964201F1040103F10803F0D1092F47
:1056400011D1244B00221B688CF800204FF42071EC
:1056500098472B68204A214993420B6006BF204B94
:105660002B602A604EE701378CF800704AE7074B41
:10567000039A1B689A4202D105B0BDE8F08FFCF78F
:105680003FFE00BF285A002040AB0108000B00205D
:105690001C2E00203043002014410020580B002015
:1056A000EC3E0020A8330020E8330020D80B002077
:1056B000543F0020BC3F0020FC3F0020203F002042
:1056C000AA330020E9330020883F0020BE3F00209D
:1056D000FD3F0020FC400020E8340020DC0B0020CF
:1056E000E8390020E83E0020000000000000000033
:1056F0002DE9F04F494A0168494B116085B00021FE
:105700000E461B684748039306F0E2FC4FF4AF6176
:10571000454B009641224548454DDFF84891454CA0
:10572000DFF844A1444F06F0ABF8444B444A1860FC
:10573000136BC5F804A043F480534FF002184FF4E4
:105740007A5B13632846C5E90298A5F800B0FAF71A
:10575000D7FD2046C4E901A9C4F80C80A4F800B024
:10576000FAF7CEFD05F13400C5E90EA9C5F8408071
:10577000A5F834B0FAF7C4FD324DC4F8408004F106
:105780003400C4E90EA9A4F834B0FAF7B9FD3146E3
:1057900040F20C42384611F0E3FBDFF8D0902A4A81
:1057A0006E604FF400634FF080082E812A606B8199
:1057B000264CC5F80C80C7F80894FFF799FB2946DA
:1057C0002348244DFFF7C4FB07F5027307F10802D5
:1057D0004FF480711E48FFF703FC314620464FF41A
:1057E000037211F0BDFB1C4B1C4AC4F8089208342C
:1057F0001A611946C3E900641948C3E9028508F033
:1058000077FB074B039A1B689A4205D1144805B0F1
:10581000BDE8F04F08F0B4BBFCF772FDFC4000207F
:10582000000B00201C2E0020F1540008302E002018
:10583000EC3E0020543F002030430020282E002062
:105840000038024020430020315400081441002059
:10585000B02D002091540008004100202C030800C6
:1058600064670020000020410000FA45EFBEADDE75
:1058700070B5114C82B00546236801930E46FFF7C0
:105880007FFC15B12846FFF713FC4FF47A700B4BE1
:1058900000FB06F000F2E730A3FB0030800906F0C1
:1058A00047F8019A23689A4204D102B0BDE87040DB
:1058B000FFF73EBCFCF724FD000B0020D34D621027
:1058C0002DE9F0472DED028BDFF84881474BD8F8E2
:1058D000182047491B68474DDFED478A9FED478AEF
:1058E000474EDFF82C91474F916182B001932023FE
:1058F00083F3118806F08CFB05F0E2FA424806F0CB
:10590000F7F8286005F0FCFA06F09AFBD8F80030AA
:10591000434508D0D8F818209B6892689A4202D272
:105920003A4805F02DFA4FF0000A8AF311882B68E7
:105930001A890121317012B92FE032786AB3D3E9A4
:10594000001202EB8A0393ED007A31F81A00C8EED8
:10595000877A0AF1010AFCEEE77A17EE903A9CB2D8
:105960002146FFF785FF07EE904AF8EEE77A4FF4FD
:105970007A7367EE887AFCEEE77A17EE902A90B297
:1059800003FB00F000F2E730A7FB0030800905F0D0
:10599000CFFF2B681A895245CFDC202383F311886F
:1059A00006F036FB05F08CFA05F05AFBD9F8083002
:1059B000002B17DD05F07CFE05F0A2FA06F040FB97
:1059C000D8F80030434508D0D8F818209B68926872
:1059D0009A4202D20D4805F0D3F9002383F31188CF
:1059E000337084E70A4806F00BFCE3E7000B002065
:1059F00050AB01084047002000007A446666A63F8D
:105A0000580E0020D34D62103C47002060AB0108C7
:105A1000480C0020285A0020000000000000000070
:105A200010B50A4C0A4B22680A4884B04FF4FC7146
:105A3000039200220092402205F022FF039A23687D
:105A40009A4201D104B010BDFCF75AFC000B0020B3
:105A5000C158000848470020000000000000000076
:105A600030B5134B134D1A78296883B00446019161
:105A7000AAB91148019A036863B12B689A4214D1FC
:105A80000E4904EB440401EB840103B0BDE830404F
:105A900006F0E6B82B689A4207D103B030BD002269
:105AA00007481A7006F074FBE3E7FCF729FC00BF17
:105AB000580E0020000B00203C470020280E00203C
:105AC000480C002000000000000000000000000062
:105AD00000B50D4A0D4B1278196883B0019132B9A7
