:020000040800F2
:1000000000040020C1010008C1760008C176000884
:1000100091300008C1760008C1760008C17600085A
:10002000C1760008C1760008C1760008C19A0008B0
:10003000C1760008C1760008C176000891FC00086E
:10004000C176000861CF0008F1D0000841D1000856
:10005000C1760008C1760008A1CC0008F1CC0008E8
:1000600041CD000891CD0008E1CD0008F1BE0008A7
:1000700041BF000891BF0008E1BF000831C000087F
:1000800081C00008D1C00008E1C90008E1D2000821
:1000900051D3000801D40008B1D4000831CE0008C3
:1000A000C1760008C1760008E1F50008C1760008B5
:1000B00051F8000891F80008D1F80008D1E50008CF
:1000C00011E70008C1760008C1760008C176000873
:1000D000C1760008C1760008C176000851FD00080D
:1000E000C1CE0008B1CF000801D00008C1760008D9
:1000F000C1760008C1760008C176000821C1000859
:10010000C176000841D6000811F90008C176000840
:10011000C1760008C1760008A1F50008C176000884
:1001200071C10008C1C1000811C2000861C2000805
:10013000B1C20008C176000851D00008C17600089D
:10014000C1760008C1760008C1760008E1F1000818
:1001500001C3000851C30008A1C30008C17600080C
:10016000C1760008C1760008C1760008C176000893
:10017000A1D00008C1760008712A0008C1760008E5
:10018000C1760008C1760008C1760008C176000873
:10019000C1760008C1760008C1760008C176000863
:1001A000C1760008C1760008C1760008C176000853
:1001B000C1760008C1760008C1760008C176000843
:1001C00072B62E4880F3098840F20000CCF200009D
:1001D0004EF63471CEF20001086040F20000C0F229
:1001E000F0004EF68851CEF2000108604FF000009A
:1001F000E1EE100A4EF63C71CEF2000108600620D6
:1002000080F31488BFF36F8F0FF0EAFE4FF0553084
:100210001B491C4A91423CBF41F8040BFAE71A49BA
:10022000164A91423CBF41F8040BFAE71749184AB5
:10023000184B9A423EBF51F8040B42F8040BF8E702
:1002400000201549154A91423CBF41F8040BFAE7DA
:1002500007F01EFA124C134DAC4203DA54F8041B9B
:100260008847F9E701F0F4F90F4C104DAC4203DA7E
:1002700054F8041B8847F9E707F01ABA0008002071
:10028000000000200004002000040020A86F0108E6
:1002900000080020BC140020C01400207847002073
:1002A000C0010008C0010008C0010008C00100082A
:1002B0002DE9F04F2DED108AC1F80CD0D0F80CD0FC
:1002C000BDEC108ABDE8F08F07F03AFB08F0A0FB08
:1002D000002383F311882846A047002008F008F97E
:1002E00008F07EFB07F00CFB07F02AFF07F028FB65
:1002F00008F08EFB00DFFEE70000000000000000B9
:1003000081F0004102E000BF83F0004330B54FEAC6
:1003100041044FEA430594EA050F08BF90EA020F33
:100320001FBF54EA000C55EA020C7FEA645C7FEAC6
:10033000655C00F0E2804FEA5454D4EB5555B8BFE9
:100340006D420CDD2C4480EA020281EA030382EA5A
:10035000000083EA010180EA020281EA0303362DEC
:1003600088BF30BD11F0004F4FEA01314FF4801CBF
:100370004CEA113102D0404261EB410113F0004FD1
:100380004FEA03334CEA133302D0524263EB430388
:1003900094EA050F00F0A780A4F10104D5F1200E26
:1003A0000DDB02FA0EFC22FA05F2801841F1000181
:1003B00003FA0EF2801843FA05F359410EE0A5F155
:1003C00020050EF1200E012A03FA0EFC28BF4CF086
:1003D000020C43FA05F3C01851EBE37101F000453C
:1003E00007D54FF0000EDCF1000C7EEB00006EEB49
:1003F0000101B1F5801F1BD3B1F5001F0CD34908D3
:100400005FEA30004FEA3C0C04F101044FEA445229
:1004100012F5800F80F09A80BCF1004F08BF5FEAB0
:10042000500C50F1000041EB045141EA050130BD90
:100430005FEA4C0C404141EB010111F4801FA4F133
:100440000104E9D191F0000F04BF01460020B1FA88
:1004500081F308BF2033A3F10B03B3F120020CDAC0
:100460000C3208DD02F1140CC2F10C0201FA0CF09E
:1004700021FA02F10CE002F11402D8BFC2F1200C03
:1004800001FA02F120FA0CFCDCBF41EA0C019040B9
:10049000E41AA2BF01EB0451294330BD6FEA040402
:1004A0001F3C1CDA0C340EDC04F11404C4F12002ED
:1004B00020FA04F001FA02F340EA030021FA04F3FF
:1004C00045EA030130BDC4F10C04C4F1200220FA56
:1004D00002F001FA04F340EA0300294630BD21FA94
:1004E00004F0294630BD94F0000F83F4801306BF5A
:1004F00081F480110134013D4EE77FEA645C18BF4E
:100500007FEA655C29D094EA050F08BF90EA020FE4
:1005100005D054EA000C04BF1946104630BD91EADC
:10052000030F1EBF0021002030BD5FEA545C05D1DF
:100530004000494128BF41F0004130BD14F580041E
:100540003CBF01F5801130BD01F0004545F0FE4192
:1005500041F470014FF0000030BD7FEA645C1ABFC7
:10056000194610467FEA655C1CBF0B46024650EAFE
:10057000013406BF52EA033591EA030F41F400212A
:1005800030BD00BF90F0000F04BF0021704730B5B0
:100590004FF4806404F132044FF000054FF0000185
:1005A00050E700BF90F0000F04BF0021704730B546
:1005B0004FF4806404F1320410F0004548BF40421B
:1005C0004FF000013EE700BF42004FEAE2014FEA70
:1005D00031014FEA02701FBF12F07F4393F07F4F4B
:1005E00081F06051704732F07F4208BF704793F04E
:1005F0007F4F04BF41F40021704730B54FF4607461
:1006000001F0004521F000411CE700BF50EA010263
:1006100008BF704730B54FF000050AE050EA01020C
:1006200008BF704730B511F0004502D5404261EB7C
:1006300041014FF4806404F132045FEA915C3FF4BD
:10064000D8AE4FF003025FEADC0C18BF03325FEA5A
:10065000DC0C18BF033202EBDC02C2F1200300FA0B
:1006600003FC20FA02F001FA03FE40EA0E0021FA30
:1006700002F11444BDE600BF0000000000000000CD
:1006800070B54FF0FF0C4CF4E06C1CEA11541DBF28
:100690001CEA135594EA0C0F95EA0C0F00F0DEF8F3
:1006A0002C4481EA030621EA4C5123EA4C5350EAD8
:1006B000013518BF52EA033541F4801143F4801329
:1006C00038D0A0FB02CE4FF00005E1FB02E506F0BA
:1006D0000042E0FB03E54FF00006E1FB03569CF00F
:1006E000000F18BF4EF0010EA4F1FF04B6F5007F15
:1006F00064F5407404D25FEA4E0E6D4146EB060687
:1007000042EAC62141EA55514FEAC52040EA5E500F
:100710004FEACE2EB4F1FD0C88BFBCF5E06F1ED8B9
:10072000BEF1004F08BF5FEA500E50F1000041EBF0
:10073000045170BD06F0004646EA010140EA02009D
:1007400081EA0301B4EB5C04C2BFD4EB0C0541EABF
:10075000045170BD41F480114FF0000E013C00F3D4
:10076000AB8014F1360FDEBF002001F0004170BDF8
:10077000C4F10004203C35DA0C341BDC04F1140411
:10078000C4F1200500FA05F320FA04F001FA05F29D
:1007900040EA020001F0004221F0004110EBD3706A
:1007A00021FA04F642EB06015EEA430E08BF20EA96
:1007B000D37070BDC4F10C04C4F1200500FA04F339
:1007C00020FA05F001FA04F240EA020001F00041CB
:1007D00010EBD37041F100015EEA430E08BF20EA3E
:1007E000D37070BDC4F1200500FA05F24EEA020E86
:1007F00020FA04F301FA05F243EA020321FA04F0B5
:1008000001F0004121FA04F220EA020000EBD3706B
:100810005EEA430E08BF20EAD37070BD94F0000F6B
:100820000FD101F00046400041EB010111F4801F9F
:1008300008BF013CF7D041EA060195F0000F18BF50
:10084000704703F00046520043EB030313F4801F8C
:1008500008BF013DF7D043EA0603704794EA0C0F46
:100860000CEA135518BF95EA0C0F0CD050EA41065C
:1008700018BF52EA4306D1D181EA030101F00041D9
:100880004FF0000070BD50EA410606BF1046194601
:1008900052EA430619D094EA0C0F02D150EA01360D
:1008A00013D195EA0C0F05D152EA03361CBF10464E
:1008B00019460AD181EA030101F0004141F0FE41ED
:1008C00041F470014FF0000070BD41F0FE4141F471
:1008D000780170BD70B54FF0FF0C4CF4E06C1CEA71
:1008E00011541DBF1CEA135594EA0C0F95EA0C0F26
:1008F00000F0A7F8A4EB050481EA030E52EA0335E1
:100900004FEA013100F088804FEA03334FF0805501
:1009100045EA131343EA12634FEA022245EA11152E
:1009200045EA10654FEA00260EF000419D4208BFDF
:10093000964244F1FD0404F5407402D25B084FEA8C
:100940003202B61A65EB03055B084FEA32024FF438
:1009500080104FF4002CB6EB020E75EB030E22BF95
:10096000B61A754640EA0C005B084FEA3202B6EB55
:10097000020E75EB030E22BFB61A754640EA5C0004
:100980005B084FEA3202B6EB020E75EB030E22BF94
:10099000B61A754640EA9C005B084FEA3202B6EB95
:1009A000020E75EB030E22BFB61A754640EADC0054
:1009B00055EA060E18D04FEA051545EA16754FEAB6
:1009C00006164FEAC30343EA52734FEAC2025FEAD4
:1009D0001C1CC0D111F4801F0BD141EA00014FF063
:1009E00000004FF0004CB6E711F4801F04BF014334
:1009F0000020B4F1FD0C88BFBCF5E06F3FF6AFAE50
:100A0000B5EB030C04BFB6EB020C5FEA500C50F1DF
:100A1000000041EB045170BD0EF0004E4EEA113162
:100A200014EB5C04C2BFD4EB0C0541EA045170BD69
:100A300041F480114FF0000E013C90E645EA060EAD
:100A40008DE60CEA135594EA0C0F08BF95EA0C0FDB
:100A50003FF43BAF94EA0C0F0AD150EA01347FF423
:100A600034AF95EA0C0F7FF425AF104619462CE7FA
:100A700095EA0C0F06D152EA03353FF4FDAE10465D
:100A8000194622E750EA410618BF52EA43067FF4AE
:100A9000C5AE50EA41047FF40DAF52EA43057FF43E
:100AA000EBAE12E7000000000000000000000000B4
:100AB0004FF0FF3C06E000BF4FF0010C02E000BF2A
:100AC0004FF0010C4DF804CD4FEA410C7FEA6C5C0D
:100AD0004FEA430C18BF7FEA6C5C1BD001B050EAB0
:100AE000410C0CBF52EA430C91EA030F02BF90EA9B
:100AF000020F0020704710F1000F91EA030F58BF5A
:100B0000994208BF90422CBFD8176FEAE37040F0BB
:100B1000010070474FEA410C7FEA6C5C02D150EA59
:100B2000013C07D14FEA430C7FEA6C5CD6D152EA14
:100B3000033CD3D05DF8040B704700BF84461046D9
:100B400062468C461946634600E000BF01B5FFF7D8
:100B5000B7FF002848BF10F1000F01BD4DF808EDA8
:100B6000FFF7F4FF0CBF012000205DF808FB00BF79
:100B70004DF808EDFFF7EAFF34BF012000205DF8D3
:100B800008FB00BF4DF808EDFFF7E0FF94BF012020
:100B900000205DF808FB00BF4DF808EDFFF7CEFF21
:100BA00094BF012000205DF808FB00BF4DF808ED60
:100BB000FFF7C4FF34BF012000205DF808FB00BF31
:100BC0004FEA410C7FEA6C5C02D150EA013C0AD149
:100BD0004FEA430C7FEA6C5C02D152EA033C02D13B
:100BE0004FF0000070474FF0010070470000000018
:100BF0004FEA410212F5001215D211D56FF4787345
:100C0000B3EB625212D94FEAC12343F0004343EAE7
:100C1000505311F0004F23FA02F018BF40427047C2
:100C20004FF00000704750EA013005D111F000404C
:100C300008BF6FF0004070474FF00000704700BFE2
:100C40004FEA4102B2F1E04324BFB3F5001CDCF1EE
:100C5000FE5C0DD901F0004C4FEAC0024CEA507026
:100C6000B2F1004F40EB830008BF20F00100704755
:100C700011F0804F21D113F13872BCBF01F0004058
:100C8000704741F480114FEA5252C2F11802C2F18A
:100C9000200C10FA0CF320FA02F018BF40F001000B
:100CA0004FEAC1234FEAD32303FA0CFC40EA0C00BD
:100CB00023FA02F34FEA4303CCE77FEA625307D1FA
:100CC00050EA01331EBF4FF0FE4040F44000704731
:100CD00001F0004040F0FE4040F40000704700BFCB
:100CE00053B94AB9002908BF00281CBF4FF0FF3193
:100CF0004FF0FF3000F074B9ADF1080C6DE904CE8F
:100D000000F006F8DDF804E0DDE9022304B07047E6
:100D10002DE9F047089E04468846002B4BD18A42B5
:100D2000154667D9B2FA82F24AB1C2F1200701FA38
:100D300002F320FA07F7954047EA030894404FEA88
:100D4000154E230CB8FBFEF71FFA85FC0EFB178827
:100D500043EA084307FB0CF1994209D9EB1807F164
:100D6000FF3080F01B81994240F21881023F2B44F2
:100D70005B1AA4B2B3FBFEF00EFB103344EA03444B
:100D800000FB0CFCA44509D92C1900F1FF3380F0BD
:100D90000781A44540F2048102382C4440EA074010
:100DA000A4EB0C0400271EB1D4400023C6E9004385
:100DB0003946BDE8F0878B4209D9002E00F0EB8060
:100DC0000027C6E9000138463946BDE8F087B3FA86
:100DD00083F7002F47D18B4202D3824200F2FA8080
:100DE000841A61EB030301209846002EE0D0C6E987
:100DF0000048DDE702B9FFDEB2FA82F2002A40F0D5
:100E00008F80491B4FEA154E1FFA85F80127B1FB69
:100E1000FEFC230C0EFB1C1143EA014308FB0CF102
:100E2000994207D9EB180CF1FF3002D2994200F237
:100E3000CD808446591AA3B2B1FBFEF00EFB10140C
:100E400043EA044408FB00F8A04507D92C1900F137
:100E5000FF3302D2A04500F2B6801846A4EB080486
:100E600040EA0C409FE7C7F1200CBB4022FA0CFE81
:100E70004EEA030E01FA07F420FA0CF521FA0CF3FE
:100E80004FEA1E482543B3FBF8F92C0C08FB193335
:100E90001FFA8EFA44EA034309FB0AF49C4202FA61
:100EA00007F200FA07F10BD91EEB030309F1FF303B
:100EB00080F087809C4240F28480A9F1020973444B
:100EC0001B1BADB2B3FBF8F008FB103345EA03443B
:100ED00000FB0AFAA24508D91EEB040400F1FF3317
:100EE0006BD2A24569D90238744440EA0940A0FB9C
:100EF0000289A4EB0A044C45C2464B4654D351D058
:100F0000002E69D0B1EB0A0564EB030404FA0CFC73
:100F1000FD40FC404CEA0505C6E90054002747E7C0
:100F2000C2F1200320FA03F7954001FA02F021FAFA
:100F300003F34FEA154E3843010CB3FBFEF71FFADB
:100F400085F80EFB173341EA034107FB08F38B4298
:100F500004FA02F407D9691807F1FF3C2FD28B423B
:100F60002DD9023F2944CB1A81B2B3FBFEF00EFB10
:100F7000103341EA034100FB08F38B4207D969189B
:100F800000F1FF3C17D28B4215D902382944C91A07
:100F900040EA07473BE73746304609E70746E7E6BA
:100FA0001846FBE64145ABD2B8EB020A69EB0E02EC
:100FB00001381346A4E76046E9E7184695E7674617
:100FC000D1E781467CE702382C4447E7ACF1020CBC
:100FD0002B442FE7384608E73746E9E600000000D3
:100FE000704700BF0000000000000000000000008B
:100FF000844641EA000313F003036DD1403A41D324
:1010000051F8043B40F8043B51F8043B40F8043BE2
:1010100051F8043B40F8043B51F8043B40F8043BD2
:1010200051F8043B40F8043B51F8043B40F8043BC2
:1010300051F8043B40F8043B51F8043B40F8043BB2
:1010400051F8043B40F8043B51F8043B40F8043BA2
:1010500051F8043B40F8043B51F8043B40F8043B92
:1010600051F8043B40F8043B51F8043B40F8043B82
:1010700051F8043B40F8043B51F8043B40F8043B72
:10108000403ABDD2303211D351F8043B40F8043B12
:1010900051F8043B40F8043B51F8043B40F8043B52
:1010A00051F8043B40F8043B103AEDD20C3205D322
:1010B00051F8043B40F8043B043AF9D2043208D01A
:1010C000D2071CBF11F8013B00F8013B01D30B888C
:1010D00003806046704700BF082A13D38B078DD06A
:1010E00010F003038AD0C3F10403D21ADB071CBF3C
:1010F00011F8013B00F8013B80D331F8023B20F8A6
:10110000023B7BE7043AD9D3013A11F8013B00F8DE
:10111000013BF9D20B7803704B7843708B78837066
:101120006046704700000000000000000000000062
:10113000A2EB0300704700BF02780B78012A28BF9A
:101140009A42F5D16DE9044540EA0104CDE9026710
:101150006FF0000C4FEA447212B380EA010414F0FD
:10116000070F6AD100F0070420F0070004F0030520
:1011700021F007014FEAC505F0E8042314F0040F3D
:10118000F1E804670CFA05F462EA040266EA040670
:101190000AD063EA0403624667EA0407664603E08E
:1011A000F0E80423F1E8046782FA4CF582EA0604C9
:1011B000A4FA8CF46CBB83FA4CF583EA0705A5FA14
:1011C0008CF595B950E9022351E9026782FA4CF592
:1011D00082EA0604A4FA8CF483FA4CF583EA070544
:1011E000A5FA8CF52543DBD09CB92DBAB5FA85F468
:1011F00024F0070427FA04F1DDE9026723FA04F377
:1012000003F0FF0001F0FF01FDE80445A0EB010041
:10121000704724BAB4FA84F424F0070426FA04F1DF
:10122000DDE9026722FA04F202F0FF0001F0FF019B
:10123000FDE80445A0EB0100704714F0030F3CD11A
:1012400010F0030428D150F8082B51F8083B82FA1B
:101250004CF582EA0305A5FA8CF55DB950F8042C2B
:1012600051F8043C82FA4CF582EA0305A5FA8CF5A4
:10127000002DE8D02DBAB5FA85F424F0070423FA3E
:1012800004F122FA04F202F0FF0001F0FF01FDE890
:101290000445A0EB010070474FEAC40420F00300AE
:1012A00050F8082B21F0030151F8083B0CFA04F424
:1012B00062EA040263EA0403C9E710F003041AD0E7
:1012C000A1EB040120F00300E40750F8042B06D042
:1012D0000FD28B785FFAA2F4E41A06D12BB1CB7847
:1012E0005FFAB2F4E41A00D11BB920465DF8104B46
:1012F000704701F1040150F8042BCC0721F00301E1
:1013000051F8043B48D824D222F07F4482FA4CF5AD
:1013100094EA1325A5FA8CF50AD165B951F8043B76
:1013200084EA0204B4EB036F0ED150F8042BEBE710
:101330004FEA132355E035F07F454DD10878FDE89D
:101340000445C0F1000070474FEA126203F0FF034A
:1013500047E002EA1C4482FA4CF594EA1345A5FAE8
:101360008CF50AD165B951F8043B84EA0204B4EB68
:10137000034F0CD150F8042BEBE74FEA134330E056
:1013800015EA1C4528D10B884FEA124229E04FEAA2
:10139000124203EA1C4324E002F0FF0482FA4CF5F7
:1013A00094EA1365A5FA8CF50AD165B951F8043BA6
:1013B00084EA0204B4EB032F09D150F8042BEBE7C5
:1013C0004FEA13630DE015F0FF0F05D10B684FEAEC
:1013D000122223F07F4304E04FF00000FDE80445B3
:1013E000704712BA1BBA82FA4CF482EA0304A4FAD8
:1013F0008CF5B5FA85F402FA04F203FA04F34FEA25
:101400001260FDE80445A0EB136070470000000087
:1014100090F800F06DE9024520F007016FF0000C34
:1014200010F0070491F820F040F049804FF00004DC
:101430006FF00700D1E9002391F840F000F10800B7
:1014400082FA4CF2A4FA8CF283FA4CF3A2FA8CF3EF
:101450004BBBD1E9022382FA4CF200F10800A4FA56
:101460008CF283FA4CF3A2FA8CF3E3B9D1E90423AA
:1014700082FA4CF200F10800A4FA8CF283FA4CF3E1
:10148000A2FA8CF37BB9D1E9062301F1200182FA9B
:101490004CF200F10800A4FA8CF283FA4CF3A2FAA1
:1014A0008CF3002BC6D0002A04BF04301A4612BAAF
:1014B000B2FA82F2FDE8024500EBD2007047D1E9B2
:1014C000002304F00305C4F100004FEAC50514F041
:1014D000040F91F840F00CFA05F562EA05021CBF12
:1014E00063EA050362464FF00004A9E7000000002C
:1014F00001F0FF01102A2BDB10F0070F08D010F8C5
:10150000013B013A8B422DD010F0070F42B3F6D1C8
:10151000F0B441EA012141EA014122F007047FF0E1
:1015200000070023F0E80256083C85EA010586EA38
:10153000010685FA47F5A3FA87F586FA47F6A5FA74
:1015400087F68EB9EED1F0BC01F0FF0102F0070280
:1015500032B110F8013B013A83EA010313B1F8D12B
:101560000020704701387047002D06BF354603380C
:10157000073815F0010F07D1013015F4807F02BF45
:10158000013015F4C03F0130F0BC0138704700BF96
:1015900010B50B4C82B02368019308F0F1FA06F005
:1015A000A7F801F0ADF800F0C3F8019A23689A4259
:1015B00004D102B0BDE8104000F0C2BB00F030F82A
:1015C00000080020000000000000000000000000F3
:1015D00030B50E4D0E4C0F482B6883B0032101939C
:1015E00000F0BEF80023C4E90033A36000F0E0FB84
:1015F00000F0FEFB236801992A68013391422360C1
:1016000001D103B030BD00F00BF800BF000800208E
:10161000C014002030590108000000000000000044
:1016200000B5084B83B01A680192019A1B689A4270
:1016300005D1054803B05DF804EB06F0C1B8FFF72B
:10164000EFFF00BF00080020105901080000000053
:1016500000B50A4B83B01B680193FFF799FF042183
:10166000074800F07DF84FF4167006F081FEFFF792
:10167000AFFF40F2DC5006F07BFEFAE700080020E6
:1016800050590108000000000000000000000000A8
:1016900070B5144E82B005463368019301F0D8FC52
:1016A000002D12DD01350124002001F0A9FC4FF4CA
:1016B000967006F05DFE0120044401F0A1FC4FF499
:1016C000FA7006F055FEAC42EED1019A33689A42A8
:1016D00005D1002002B0BDE8704001F091BCFFF7D9
:1016E0009FFF00BF00080020000000000000000075
:1016F0000EB410B583B005AA094C52F8041B236838
:101700000848009201930EF0C3FC019A23689A42A4
:1017100004D103B0BDE8104003B07047FFF780FF6D
:1017200000080020CC46002000000000000000005F
:1017300000B5084B83B01A680192019A1B689A425F
:1017400006D10549054803B05DF804EB09F038BF40
:10175000FFF766FF0008002004080020CC460020A8
:101760002DE9F047DFF8F49084B0D9F80030039306
:10177000002907DC039AD9F800309A4263D104B0FB
:10178000BDE8F0870446FFF743FE304B1B88235229
:10179000013001F02DF92E49024601A811F070F830
:1017A00001A8FFF735FE05462046FFF731FE054448
:1017B00005F10B0A504610F043FB0646003018BFF7
:1017C000012001F0E5F801A8FFF722FE01A98046FB
:1017D00002463046FFF70CFC1E4B06EB080747F6A7
:1017E0007C421868B3F804C09B7926F80820C7F833
:1017F0000200A7F80920A7F806C03B722046FFF7B1
:1018000007FE2146024607F10B00FFF7F1FBBAF194
:10181000000F0DD03544DFF848800F4F0A35741E95
:1018200014F8012F41463846FFF762FFAC42F7D16A
:10183000039AD9F800309A4205D1304604B0BDE889
:10184000F04710F005BBFFF7EBFE00BF7059010831
:101850006059010874590108CC4600200008002096
:1018600064590108000000000000000000000000B2
:101870002DE9F04F674BDFF8C0911B68664FDFF82A
:10188000BCB185B04FF0000A03936BE0202383F3D3
:10189000118807F0A5F806F033F8BE6A06F050F894
:1018A00007F0B6F83B68BB4207D0BA699B689268FC
:1018B0009A4202D2594805F083FF8AF31188202307
:1018C0000136DBF8008083F3118807F089F806F011
:1018D00017F8BB6A019306F033F807F099F83B68F4
:1018E000BB4207D0BA699B6892689A4202D24B48C1
:1018F00005F066FF8AF31188019B94ED000AD4ED90
:10190000010ACBF80030A6EB080600F0C9FE4FF440
:101910007A7101FB06F1424B42480139A3FB0131C8
:10192000890900F0CDFCD4ED007AF5EE407AF1EEB5
:1019300010FA4FF0000106D1D4ED017AF5EE407AAD
:10194000F1EE10FA3CD03848FFF70AFF94E80300A4
:10195000344B83E80300012389F800302846002136
:1019600007F07EFD07F034FD054600212F48AC6BE3
:10197000FFF7F6FE99F80030002B87D1202383F380
:10198000118807F02DF805F0BBFFBE6A05F0D8FFFF
:1019900007F03EF83B68BB4207D0BA699B68926883
:1019A0009A4202D21D4805F00BFF8AF3118894ED8C
:1019B000000AD4ED010ACBF8006000F071FEB2E736
:1019C0001B48FFF7CDFE89F800A0202383F3118880
:1019D00007F006F805F094FF06F062F8154B9B68D7
:1019E000002B13DD06F084FB05F0AAFF07F010F8CA
:1019F0003B68BB4207D0BA699B6892689A4202D2A0
:101A0000064805F0DDFE8AF31188A7E7094807F0CC
:101A1000DFF8E7E700080020A83800208059010817
:101A2000D34D6210D01F0020C05901089059010801
:101A3000AC590108E01F0020CC1F0020D81F002057
:101A40002DE9F041234D244E2B6886B0884603C80B
:101A5000059303AB83E803001946306807F060FC88
:101A6000202383F311881D4C06F0BAFF05F048FFD0
:101A7000A76A05F065FF06F0CBFF2368A34204D0F8
:101A8000A2699B6892689A421ED3002383F311884F
:101A90004FF47A71124B01FB08F101F2E731A3FB1D
:101AA000013107EB9111384606F0A2FC00233068A3
:101AB000019301A9029307F033FC059A2B689A421F
:101AC00006D106B0BDE8F081064805F079FEDCE7F6
:101AD000FFF7A6FD00080020DC1F0020A83800202A
:101AE000D34D621080590108000000000000000082
:101AF00030B50C4C85B0236803930D4603C800F045
:101B0000A7FD294601A88DED010ACDED020AFFF7D8
:101B100097FF039A23689A4201D105B030BDFFF7C1
:101B20007FFD00BF00080020000000000000000052
:101B3000F0B50C4E85B033680393044600F048FEC0
:101B40006D460746284600F053FD95E8070084E8F7
:101B50000700039A3368E7609A4201D105B0F0BDEF
:101B6000FFF75EFD000800200000000000000000FC
:101B70002DE9F043DFF85C9085B0044600300E4656
:101B8000D9F80030039318BF012000F001FF002EA8
:101B900016DD0025DFF840802F46FA2006F0E8FB2E
:101BA0002046FFF7C5FF01354FF4FA7101A80197F0
:101BB000CDF80880FFF79CFFAE4204F11004ECD191
:101BC000039AD9F800309A4202D105B0BDE8F083FB
:101BD000FFF726FD000800205077D63E00000000E9
:101BE00070B5204D204E2B688CB000240B9300F074
:101BF000B7FCDFED1E7A20EE270A0022FDEEC07A48
:101C00004FF07E5317EE901A01A801920293FFF74E
:101C10006FFF174806F0A4FF3C230393049403AB23
:101C200093E8030000F014FD05AB8DED050ACDED42
:101C3000060A93E8030009AB83E8030019463068FD
:101C400007F06EFB00F084FE3068079407A9089443
:101C500007F066FB0B9A2B689A4201D10CB070BD5D
:101C6000FFF7DEFC00080020DC1F002000007A44A3
:101C7000E01F002000000000000000000000000045
:101C800030B5284C2848236883B003210193FFF71F
:101C900067FD00F0FDFA4FF4F07010F0D1F81E214E
:101CA0000546FFF765FF03212048FFF759FD022194
:101CB000284600F025FB284610F0CAF800F0A0FDE9
:101CC0009FED1B0AFFF78CFF202383F3118806F09A
:101CD00087FE05F015FE05F0E3FE16488368002B2D
:101CE0001BDD06F005FA05F02BFE06F091FE124B07
:101CF0001A689A4204D0996993688A689A4208D30C
:101D0000002383F31188019A23689A4208D103B013
:101D100030BD0A4805F054FDF2E706F059FFE0E750
:101D2000FFF77EFC00080020D0590108EC5901089B
:101D300000000000EC1F0020A83800208059010896
:101D400010B5144C84B02368039300F011FD00F02B
:101D500067FC00F085FA01210F4806F0A1FE012181
:101D60000E4806F09DFE01210D4806F099FE002365
:101D7000009343220B4B0C484FF4AF6106F0A0FADE
:101D8000039A236809499A42086001D104B010BD42
:101D9000FFF746FC00080020EC1F0020C01F0020B9
:101DA000E01F002071180008D0140020DC1F002064
:101DB00010B50A4C0A4B22680A4884B04FF4AF6150
:101DC000039200220092422206F07AFA039A2368D4
:101DD0009A4201D104B010BDFFF722FC0008002098
:101DE000811C0008481A00200000000000000000CC
:101DF00000B5084B83B01A680192019A1B689A4299
:101E000005D1054803B05DF804EB06F0A9BEFFF765
:101E100007FC00BF00080020EC1F002000000000AD
:101E20002DE9F04F2DED068B07EE103A92ED018A69
:101E3000D2ED009A4D4DB8EEC79A78EE297A85B06A
:101E400067EE897A2B680393044617EE900A8B4657
:101E5000FEF7BAFBDBED028A064618EE900A0F4643
:101E6000FEF7B2FB41EC100B41EC1A0B0EF098FDA3
:101E700053EC102BDBF80000CDE90023FEF792FBBA
:101E8000DDE900238046894630463946FEF7F8FBF7
:101E90000022374BFEF71EFD02460B4640464946E0
:101EA000FEF734FAFEF7A4FEB0EE4A0AF0EE6A0A34
:101EB00082460EF0E5FD53EC102BDBF80400CDE973
:101EC0000023FEF76FFBDDE900238046894630469C
:101ED0003946FEF7D5FB0022254BFEF7FBFC38EE1A
:101EE000698A02460B4640464946FEF70FFAFEF75E
:101EF0007FFE28EE098A9FED1F7ADFED1F6AC8EE8C
:101F0000077A77EEA87AF4EEE67AF1EE10FA0EDBB5
:101F100087EEA67ADFED196ABDEEC77A17EE103AA2
:101F20005B0007EE103AB8EEC77AE7EE667AF5EE98
:101F3000C07AF1EE10FA08D59FED0F7A77EE877A26
:101F4000F5EEC07AF1EE10FAF8D4039A2B68C4EDDE
:101F5000027A9A42C4E900A0204604D105B0BDEC43
:101F6000068BBDE8F08FFFF75BFB00BF0008002089
:101F700000409F4000905547DB0FC940DB0F4940B0
:101F80002DE9F0472DED048B2B4ECF68336884B0DC
:101F90000546886803930C46FEF716FB41EC100BD0
:101FA00041EC180B0EF06CFDB0EE409AF0EE609A2A
:101FB000B0EE480AF0EE680A0EF0F2FC53EC102B7B
:101FC00007F12100CDE90023FEF7ECFADDE900235B
:101FD000FEF756FB804660688946FEF7E3FA024644
:101FE0000B4640464946FEF791F9FEF701FE824650
:101FF0006FF02000C01BFEF7D5FA53EC192BFEF74B
:102000003FFB804620688946FEF7CCFA02460B4625
:1020100040464946FEF77AF9FEF7EAFD039A33682F
:102020009A42C5E9000A05D1284604B0BDEC048BEC
:10203000BDE8F087FFF7F4FA000800200000000078
:102040002DE9F04F2DED048B524D534C2B688BB086
:10205000B0EE408A099306AB83E8030010EE100A45
:10206000FEF7B2FA41EC100B41EC190B0EF098FCA4
:10207000069857EC106BFEF795FAB0EE490AF0EEB1
:10208000690A804689460EF0FBFC07988DED000B2F
:10209000FEF788FA824620688B46FEF783FA4246AE
:1020A000CDE904014B4630463946CDE90267FEF7DB
:1020B000E7FA524606460F465B46DDE90001FEF7A9
:1020C000DFFA02460B4630463946FEF71DF9024656
:1020D0000B46DDE90401FEF717F9FEF789FD2060E4
:1020E0006068FEF75FFADDE9002306460F464046CA
:1020F0004946FEF7C5FA5246804689465B46DDE909
:102100000201FEF7BDFA02460B4640464946FEF77D
:10211000FDF802460B4630463946FEF7F5F8FEF765
:1021200067FD94ED020A9FED1D7A606030EE480A6B
:10213000B4EEC70AF1EE10FA0EDBC0EE077A9FED9F
:10214000187AFDEEE77A17EE903A5B0007EE903AC8
:10215000F8EEE77AA7EEC70AB5EEC00AF1EE10FA7C
:1021600084ED020A0AD5DFED0D7A30EE270AB5EECE
:10217000C00AF1EE10FAF8D484ED020A099A2B682D
:102180009A4204D10BB0BDEC048BBDE8F08FFFF791
:1021900047FA00BF00080020F81F0020DB0FC940ED
:1021A000DB0F4940000000000000000000000000BC
:1021B000F0B5DFF8A0C083B0DCF80030019302294D
:1021C0003CDDDFED235AA0F11006B0EE655A06EBB8
:1021D000C106D0E90445436807685D1B07EE905AC5
:1021E0003C1BB8EEE77A07EE904AF8EEE77A06EE87
:1021F000907A87EE276A0830864207EE903AF8EE2A
:10220000E66AF8EEE77A35EE065AE6EEC67A75EE3D
:10221000A75ADED1023907EE901AF8EEE77AC5EE3A
:10222000276A019985EEA77AC2ED006ADCF80030D2
:1022300082ED017A994208D103B0F0BDDFED047A56
:10224000F0EE675AB0EE675AE9E7FFF7E9F900BF29
:102250000000000000080020000000000000000056
:1022600010B5094A094B116882B000240191019808
:1022700011689C6000228842C3E9002201D102B0AB
:1022800010BDFFF7CDF900BF00080020F81F0020A7
:1022900000B5074B83B01A680192019A1B689A42F5
:1022A00004D103B05DF804EBFFF7DABFFFF7B8F92C
:1022B00000080020000000000000000000000000F6
:1022C00070B50C4E0C4C336886B06D4602460593D3
:1022D00028460B462146FFF7A3FD95E80700059D1C
:1022E00033689D4284E8070001D106B070BDFFF756
:1022F00097F900BF00080020F81F00200000000030
:102300002DE9F04F2DED028B914B8FB01B680D9393
:1023100005464FF400700FF093FD0446003018BFDF
:10232000012000F035FB00270223284684F878308E
:1023300005F5F07C3E46B8464FF0010E19E0012D40
:1023400046D0002D38D103EB860555F8045CED68C6
:10235000A9422FDC0AD001378032032FDE6704EB5D
:10236000020351DCA050012683F878E01030844548
:1023700011D0C1684D1EFA01952D04EB0203F5D86A
:1023800093F87850022DDAD1C6B9A05010308445A8
:102390004FF00106EDD1022FDE6737DC00206C4BD9
:1023A0000D9A1B689A4240F0D1800FB0BDEC028BB1
:1023B000BDE8F08F43F826000136D7E7A258D2686F
:1023C00091421ADA83F878E043F826000136CDE727
:1023D00003EB860959F8049CD9F80C904945E9DBD0
:1023E000C4D001378032032FDE6704EB02030BDC1D
:1023F000A0502E4683F87880B8E7B7D083F878806D
:1024000043F826000136B1E70022DA6708200FF012
:1024100017FD824608200FF013FD4FF00008CDE9AC
:10242000018804AEA14683460394D9F87C20002A93
:102430003EDD00241BE0029B0133DD0029465046AF
:10244000029310F01DF88246003018BF012000F002
:102450009FFA39463046FFF793FD96E8030055444E
:1024600005E90300D9F87C200134A24220DD019B5C
:1024700059F82470012BDEDD08F101084FEAC80588
:10248000294658460FF0FCFF8346003018BF012054
:1024900000F07EFA39463046FFF772FD96E80300F9
:1024A0005D4405E90300D9F87C200134A242DEDC5A
:1024B000019B0133042B019309F18009B5D1039CE1
:1024C00020460FF0C5FC029909AA5046FFF770FE9E
:1024D0000BAA41465846FFF76BFE50460FF0B8FC7A
:1024E00058460FF0B5FC9DED0B7ADDED0C7A9DEDB5
:1024F0000A6ADDED096A37EEC66A76EEC76A17EE3C
:10250000100A86EE268A0EACBDEEC88AF8EEC86ABE
:10251000E7EE267AFDEEE77ACDED087AFEF754F87D
:1025200041EC100B0EF08CF818EE103A51EC100B39
:1025300044F81C3DFEF784FB07EE900A94E8030084
:10254000B1EE670AFFF77CFD012028E7FFF768F886
:102550000008002000000000000000000000000053
:1025600000B51D4BDFED1D6AD3ED027A9FED1C7A9D
:102570001C4B30EE670A83B030EE660A1A6801928F
:10258000B4EEC70AF1EE10FA0EDBC0EE077A9FED4B
:10259000167AFDEEE77A17EE902A520007EE902A9F
:1025A000F8EEE77AA7EEC70AB5EEC00AF1EE10FA28
:1025B00008D5DFED0B7A30EE270AB5EEC00AF1EE52
:1025C00010FAF8D4019A1B689A4202D103B05DF860
:1025D00004FBFFF725F800BFF81F0020DB0FC93F01
:1025E000DB0FC94000080020DB0F4940000000005D
:1025F00030B5094C094A256883B00346019507CADE
:10260000019D2468A54283E8070002D1184603B063
:1026100030BDFFF705F800BF00080020F81F0020BC
:1026200000B5074B83B01A680192019A1B689A4261
:1026300004D103B05DF804EB00F0AABFFEF7F0FF91
:102640000008002000000000000000000000000062
:1026500000B589B002AB83E8030007EE900A0E4B89
:102660009DED037A1A680792F8EEE70AF3EE0B7A0B
:10267000B0EE600AA7EE670A079A1B68E7EE270A22
:102680009A428DED050ACDED060A02D109B05DF83A
:1026900004FBFEF7C5FF00BF00080020000000009B
:1026A00030B5144D144CD5ED007A236860EE277ACE
:1026B00085B0FDEEE77A039317EE900A8DED000AE0
:1026C000CDED010A00F04CFF039A23689A420ED127
:1026D000DDED017A95ED007A67EE877AFDEEE77A17
:1026E00017EE900A05B0BDE8304000F021BFFEF7BC
:1026F00097FF00BF10080020000800200000000025
:1027000000B5094B09491A6883B000200192019A6B
:102710001B6808709A4204D103B05DF804EB00F026
:1027200087BBFEF77DFF00BF0008002004200020CB
:1027300030B50B4C0B49236883B005460A4801931A
:1027400004F016FF019A23689A4206D12946802296
:1027500003B0BDE8304004F073BFFEF761FF00BF77
:1027600000080020105A0108F42800200000000092
:1027700010B5104C1048236882B00121019306F077
:102780008FF904F045FE0D4A0D490E4804F080FE15
:1027900001F0EEF801F03CF9019A23689A4206D163
:1027A0004FF4FA7002B0BDE8104005F0E1BDFEF74D
:1027B00037FF00BF00080020082000201408002078
:1027C0001C080020F4280020000000000000000089
:1027D00010B5094C82B02368019304F041FE074B09
:1027E000019A196823689A42A0EB010001D102B056
:1027F00010BDFEF715FF00BF000800209425002043
:1028000010B50A4C0A4B22680A4884B04FF4AF61F5
:10281000039200220092452205F052FD039A23689C
:102820009A4201D104B010BDFEF7FAFE0008002064
:10283000912800081820002000000000000000007F
:10284000F0B5104FA3B004463B68219301A8FFF7F1
:102850006FFF0D4B0D4A1D68166804F11C00221F06
:1028600011A951F8043B334405FB03F342F8043F3C
:102870008242F6D1219A3B689A4201D123B0F0BD41
:10288000FEF7CEFE00080020300800209025002032
:102890002DE9F047274B284F1B68284EDFF8A08012
:1028A000DFF8A09092B0BA46119301A8FFF7C8FFD5
:1028B0006D46002402E00134082C31D055F8043F65
:1028C00041F682229342F6D12246414609A80FF0F2
:1028D000D7FF032109A8FEF743FF202383F31188C4
:1028E00006F07EF805F00CF805F0DAF8BB68002B6E
:1028F0001BDD05F0FDFB05F023F806F089F83368D1
:10290000B34207D0B2699B6892689A4202D24846A5
:1029100004F056FF002383F311880134082CCDD135
:102920004FF47A7005F024FDBFE7504606F050F9E9
:10293000DFE700BF0008002008200020A8380020A2
:10294000305A0108005A0108000000000000000091
:1029500010B50A4C0A48236882B0019306F000F9CA
:10296000019A23689A4206D10648032102B0BDE8C5
:102970001040FEF7F5BEFEF753FE00BF0008002032
:1029800008200020205A010800000000000000007C
:1029900000B50B4B83B01A680192019A1B6820B1F5
:1029A0009A420AD103B05DF804FB9A4205D1012096
:1029B00003B05DF804EB00F00BB8FEF731FE00BF8A
:1029C00000080020000000000000000000000000DF
:1029D00000B5064B83B01B68019304462046FEF702
:1029E00057FE4FF4FA6005F0C3FCF7E7000800203B
:1029F00010B50A4C82B023680193B0F5803F05D230
:102A0000019A23689A4207D102B010BD0220FFF755
:102A1000DFFF4FF0FF30F3E7FEF702FE0008002073
:102A200030B5104D81682B680F4A83B001930B6855
:102A300023F001030B608168946A03E0936A1B1B17
:102A4000C72B09D8086810F00100F7D1019A2B684C
:102A50009A4204D103B030BD4FF0FF30F6E7FEF7E5
:102A6000DFFD00BF00080020A838002000000000A3
:102A7000F0B5284D83B02B68019305F079FF04F081
:102A8000BFFF254B1E69F20715D55A69234C42F04A
:102A900001025A612778BB1F012B2AD905226368DE
:102AA00022701B680BB120469847042F27D0022FB5
:102AB00025D003232370B30710D5174A174C536949
:102AC00043F0020353612378032B1DD063689B6896
:102AD0000622227013B101211048984704F0B8FF74
:102AE000019A2B689A4213D103B0BDE8F04007F079
:102AF00007B8019A2B689A420AD103B0F0BD0223AD
:102B00002370B307EAD5D8E72046FFF789FFDDE752
:102B1000FEF786FD000800200000055098250020E3
:102B200000B5084B83B01A680192019A1B689A425B
:102B300005D1054803B05DF804EB04F041BEFEF793
:102B40006FFD00BF00080020205D010800000000AC
:102B500070B5164B164C1A78216882B001912AB1D3
:102B6000019A23689A421FD102B070BD0546012622
:102B700010481E70802343830F4A104910484FF4B9
:102B8000B47307F0EDFA019A23689A420CD14FF41E
:102B9000B4730C480C4903FB05F3B1FBF3F102B02D
:102BA000BDE8704007F03CBCFEF73AFDD0250020A0
:102BB00000080020000C0240505A0108C0250020E7
:102BC000F84200204C46002000BD01050000000036
:102BD00010B50C4C0C4B22680C4882B0019280223C
:102BE0001A8307F07DFC0A4807F0FAFA019A236875
:102BF000084900209A42087001D102B010BDFEF7CA
:102C00000FFD00BF00080020000C02404C460020D1
:102C1000F8420020D0250020000000000000000045
:102C200070B5154D154A164B2968164E9E6082B038
:102C300000244FF4006010800191947011461248F6
:102C40005C6001221A60DC6007F00AFA0F4B104E3C
:102C500010485C60202219469A60DC601E6007F014
:102C60006FFB019A2B689A4204D102B0BDE8704014
:102C7000FFF7AEBFFEF7D4FC00080020BC25002003
:102C8000C0250020212B0008F8420020AC250020A0
:102C900000BD01054C4600200000000000000000BF
:102CA00070B5114C82B00546236801930E46FFF7BC
:102CB000B7FF15B12846FFF74BFF4FF47A700B4B67
:102CC00000FB06F000F2E730A3FB0030800905F0BE
:102CD0004FFB019A23689A4204D102B0BDE87040CC
:102CE000FFF776BFFEF79CFC00080020D34D621072
:102CF0002DE9F0432DED028BDFF82881404BD8F809
:102D0000182040491B68404DDFED408A9FED408A06
:102D1000404E414F916183B00193202383F311888A
:102D200005F05EFE04F0ECFD3C4805F001FC286077
:102D300004F006FE05F06CFED8F80030434508D0DC
:102D4000D8F818209B6892689A4202D2344804F05E
:102D500037FD4FF0000989F311882B681A8901218A
:102D6000317012B92FE032786AB3D3E9001202EB66
:102D7000890393ED007A31F81900C8EE877A09F1DA
:102D80000109FCEEE77A17EE903A9CB22146FFF774
:102D900087FF07EE904AF8EEE77A4FF47A7367EE12
:102DA000887AFCEEE77A17EE902A90B203FB00F0E7
:102DB00000F2E730A7FB0030800905F0D9FA2B6854
:102DC0001A894A45CFDC202383F3118805F008FED9
:102DD00004F096FD04F0B4FD05F01AFED8F80030BA
:102DE000434508D0D8F818209B6892689A4202D2CE
:102DF0000B4804F0E5FC002383F3118833708CE763
:102E000000080020305D0108D825002000007A4429
:102E10006666A63F34080020D34D6210D4250020FA
:102E2000405D0108A83800200000000000000000FC
:102E300010B50A4C0A4B22680A4884B04FF4FC7162
:102E4000039200220092402205F03AFA039A236886
:102E50009A4201D104B010BDFEF7E2FB0008002049
:102E6000F12C0008E0250020000000000000000018
:102E700070B5164E16483368154D82B005224FF4D2
:102E8000807101930BF0C4FA20246B6983F4807382
:102E90006B61012005F06CFA631E13F0FF04F4D19E
:102EA0004FF4807140F20622298309480BF0B0FAF2
:102EB000019A33689A4206D10649074802B0BDE834
:102EC000704007F075BBFEF7ABFB00BF00080020A9
:102ED00000040240505D010828430020000000006B
:102EE00000B50C4A0C4B1278196883B0012A019185
:102EF000019A1B6804D09A4209D103B05DF804FB23
:102F00009A4204D103B05DF804EBFFF7B1BFFEF7BE
:102F100087FB00BF284300200008002000000000BD
:102F200000B5084B83B01A680192019A1B689A4257
:102F300005D1054803B05DF804EB07F081BBFEF74F
:102F40006FFB00BF000800202843002000000000A5
:102F500070B5294D82B02B6801930E46032841D8E5
:102F6000DFE800F01A120A02012922D9234A536924
:102F700083F40063536116E0012926D91F4A53697F
:102F800083F4806353610EE0012918D91B4A536909
:102F900083F04003536106E001291CD9174A5369A5
:102FA00083F020035361019A2B689A4218D102B032
:102FB00070BD124B4FF4006229B15A83F3E70F4BF7
:102FC00040220029F9D11A83EDE70C4B4FF48062BF
:102FD0000029F8D0F1E7094B20220029F3D0ECE7D3
:102FE000FEF71EFB0024E0B231460134FFF7B0FFCC
:102FF000042CF8D1D7E700BF00080020000C0240E5
:1030000000B50E4B83B01A68019201280BD90C4908
:103010004A6982F480424A61019A1B689A420AD145
:1030200003B05DF804FB064A4FF4804108B95183B0
:10303000F2E71183F0E7FEF7F3FA00BF0008002083
:10304000000C024000000000000000000000000032
:10305000F0B50D4F0D4C3B6883B0002501932E4613
:10306000E8B200210135FFF773FF042D267066706A
:10307000A67004F10304F3D1019A3B689A4201D18E
:1030800003B0F0BDFEF7CCFA00080020D8270020DE
:1030900070B51A4D1A4C1B4E0FCD0FC49EB02A6846
:1030A000336822801D93EFF30981682203A8FDF79E
:1030B0009FFF154B9D6AAA0714D4EB0708D5124B46
:1030C00008995B6B114A00910D4880210FF090FB2D
:1030D0001D9A33689A420FD109481EB0BDE870406E
:1030E00004F06EBB099A5B6B0092A4F11000084AD1
:1030F00080210FF07DFBE0E7FEF792FAA45D010866
:10310000E42700200008002000ED00E0805D0108B9
:10311000605D0108000000000000000000000000E9
:1031200000B51F4B0278196883B00191E2B11D4AC6
:103130004FF4005111834278EAB11A4A4FF480519A
:1031400011838278F2B1174A4FF480411183C2781B
:10315000FAB9144A4FF400415183019A1B689A420C
:103160001CD103B05DF804FB0E4A4FF400515183AB
:103170004278002AE1D10B4A4FF480515183827882
:10318000002AE0D1074A4FF480415183C278002AD7
:10319000DFD0044A4FF400411183DEE7FEF740FA26
:1031A00000080020001002400000000000000000A5
:1031B00000B51F4B0278196883B00191E2B11D4A36
:1031C0004FF4007111834278EAB11A4A4FF48071CA
:1031D00011838278F2B1174A4FF400611183C278EB
:1031E000FAB9144A4FF480615183019A1B689A42DC
:1031F0001CD103B05DF804FB0E4A4FF400715183FB
:103200004278002AE1D10B4A4FF4807151838278D1
:10321000002AE0D1074A4FF400615183C278002AA6
:10322000DFD0044A4FF480611183DEE7FEF7F8F93E
:103230000008002000100240000000000000000014
:1032400030B50C4A0C4B116883B04FF40055019116
:103250004FF480544FF400414FF480405D835C8311
:103260005883598301991368994201D103B030BD45
:10327000FEF7D6F900080020001002400000000010
:1032800030B50C4A0C4B116883B04FF400750191B6
:103290004FF480744FF480614FF400605D835C8371
:1032A0005883598301991368994201D103B030BD05
:1032B000FEF7B6F9000800200010024000000000F0
:1032C00010B50B4C0B48236882B099220021019362
:1032D00007F0A6FB019A23689A4206D1054800210F
:1032E00002B0BDE8104007F083BCFEF799F900BFBB
:1032F00000080020784600200000000000000000C8
:1033000010B50B4C0B48236882B099220021019321
:1033100007F086FB019A23689A4206D105480021EE
:1033200002B0BDE8104007F063BCFEF779F900BFBA
:10333000000800209446002000000000000000006B
:1033400000B5084B83B01A680192019A1B689A4233
:1033500006D10548002103B05DF804EB07F0B0BBCF
:10336000FEF75EF90008002078460020000000000B
:1033700000B5084B83B01A680192019A1B689A4203
:1033800006D10548002103B05DF804EB07F098BBB7
:10339000FEF746F9000800209446002000000000D7
:1033A00070B51A4C1A4E2378326882B0022B019203
:1033B000A26811D165781748013505F0070500EBC3
:1033C000850090476368657001336360019A3368D4
:1033D0009A4219D102B070BD012B08D0019933680F
:1033E000994211D10C4802B0BDE870401047657891
:1033F0000848013D05F0070500EB8500904763682C
:103400006570013B6360E1E7FEF70AF97C28002064
:1034100000080020505E0108405E01080000000026
:1034200070B51A4C1A4E2378326882B0012B019283
:10343000A26811D165781748013505F0070500EB42
:10344000850090476368657001336360019A336853
:103450009A4219D102B070BD022B08D0019933688D
:10346000994211D10C4802B0BDE870401047657810
:103470000848013D05F0070500EB850090476368AB
:103480006570013B6360E1E7FEF7CAF8642800203D
:1034900000080020505E0108405E010800000000A6
:1034A00070B51D4D82B02B68019340F69803994288
:1034B00004460FDD012303702D2623699847019AE6
:1034C0002B689A4225D16069314602B0BDE8704050
:1034D00007F05EBA114B994207DB002909D1017050
:1034E000036998474FF47A76E9E7022303702D26A3
:1034F000E3E7D6BF022301234942037040F2892348
:103500009942074E96FBF1F6B6B2D6DCC3689847EF
:10351000D5E7FEF785F800BF0008002068F7FFFF39
:10352000A086010000000000000000000000000074
:1035300000B5084B83B01A680192019A1B689A4241
:1035400006D10146044803B05DF804EBFFF7A8BFBD
:10355000FEF766F8000800207C280020000000002C
:1035600000B5084B83B01A680192019A1B689A4211
:1035700006D10146044803B05DF804EBFFF790BFA5
:10358000FEF74EF80008002064280020000000002C
:1035900070B51D4E1D4A1E4B30681E491E4C916071
:1035A00082B00021D46001901C4C1D481D4D9D60CF
:1035B000117051705160106154611B481B4A1C4DC1
:1035C000D8601C48197059705960C3E90425FFF789
:1035D000A7FD1848FFF7ECFD1749204607F088F9CA
:1035E000204607F0BDFA2846144907F081F9019AF0
:1035F00033689A4205D1284602B0BDE8704007F012
:10360000AFBAFEF70DF800BF000800207C280020AC
:103610006428002021310008C132000878460020CB
:1036200041330008B131000801330008713300084C
:1036300094460020405E0108005E0108C05D01085C
:103640000A490B4B09680B4A82B0202001914021A6
:1036500058834FF4806559834FF400644FF48040E1
:1036600004215D835C8358835183FEE700080020BA
:10367000000C0240000402400000000000000000B6
:1036800010B51E491E4A0B78106882B0013B0190AC
:10369000072B0AD8DFE803F012151C1F26290F0498
:1036A00018480824012304830B7001991368994278
:1036B00021D102B010BD08230B70F6E702230B7076
:1036C000F3E711484FF48054032304830B70ECE7B5
:1036D00004230B70E9E70C484FF48044052304836E
:1036E0000B70E2E706230B70DFE70648042407238C
:1036F00004830B70D9E7FDF793FF00BF202F002054
:1037000000080020001002400004024000000000F9
:1037100030B50C4B0C4918680C4A83B04FF4804507
:1037200001904FF480504883042408204D83548333
:103730005083019A1B689A4201D103B030BDFDF756
:103740006FFF00BF0008002000040240001002408C
:103750002DE9F04F4E4B4F4A9B694F499961A5B0F7
:1037600007AE05AD80231768009331462A46002432
:103770000CA84A4B2397CDE90766CDE90555CDE95D
:1037800009440B9403F09CFE0CA9454A4548434C60
:10379000454DDFF83481DFF834B1DFF834A103F0B0
:1037A000B7FE04F11C0604F16007A146504605F07F
:1037B000D7F92A682B69226063602A6A2B6BA260A2
:1037C000E3606A686B69226163616A6A6B6BA2611C
:1037D000E361AA68AB6922626362AA6AAB6BA26208
:1037E000E362EA68EB6922636363EA6AEB6B2F4981
:1037F000A263E36351F8043F0A6AB142A3EB0203F8
:103800000B64F7D1802249460CA803F0D9FE98F842
:103810000030002BCAD09BF8003033B3012BC5D148
:10382000DFF8B0C02248614650F8042B51F8043F3D
:10383000B84213440B60F7D11E4A13780133DBB250
:10384000642B1370B2D11C495CF8043F1B4A82FB05
:103850000302DB17C3EB621341F8043B184B9C4592
:10386000F2D1002388F80030A0E719462022124840
:1038700003930EF0B5FD039B1248194620220EF06B
:10388000AFFD0C49039B0B7001228BF800208DE7E4
:10389000A838002000080020705E010824290020BC
:1038A000105A0108F4280020B42800202029002004
:1038B0006429002001290020842900201F85EB5164
:1038C00020290020042900200029002002290020AE
:1038D000380800200029002000000000000000003F
:1038E00070B502691E4D52882B6882B006460C46A0
:1038F0001C480193920000210EF072FD33695B8831
:103900005BB1184AA11E002331F8020F42F8040BE4
:103910003069408801339842F6D8202383F3118818
:1039200005F08EF804F02CF804F0BAF80E4883681D
:10393000002B0FDD04F044F805F09AF8002383F320
:103940001188019A2B68094901209A42087004D114
:1039500002B070BD05F03CF9ECE7FDF761FE00BF79
:1039600000080020B428002038080020202F002064
:1039700070B51F4D1F4C2E78236884B0012E039321
:1039800005D0039A23689A422FD104B070BD00215C
:10399000284606F00DFA284606F0CAFA33462846AD
:1039A000154A164906F084FA1549164806F0A0FF94
:1039B0004FF496720021134807F032F800211148A5
:1039C00007F016F90F4807F0CBF831464FF4827232
:1039D0000C4807F025F80023009340220A4B0B48BF
:1039E0004FF4AF6104F06CFCCBE7FDF719FE00BFAC
:1039F000044000200008002094280020805E010878
:103A0000B05E01085C46002051370008A82900205C
:103A100030B50C4D0C4A2B680C4C83B0002101933F
:103A2000012311702370142004F0A2FC2378002BD2
:103A3000F9D1019A2B689A4201D103B030BDFDF74C
:103A4000EFFD00BF0008002002290020002900200F
:103A500000B5084B83B01A680192019A1B689A421C
:103A600005D1054803B05DF804EB05F0D9B9FDF7C1
:103A7000D7FD00BF0008002044080020000000001F
:103A800000B5084B83B01A680192019A1B689A42EC
:103A900005D1054803B05DF804EB05F0F9B9FDF771
:103AA000BFFD00BF00080020440800200000000007
:103AB00070B50D4C82B0236801930D1E06460DDDD6
:103AC000284605F095FF18B90C2333604FF0FF30FE
:103AD000019A23689A4205D102B070BD034803F0F1
:103AE0006FFEEDE7FDF79CFD00080020F05E010889
:103AF00000B5064B83B01A680192019A1B689A427E
:103B000002D103B05DF804FBFDF78AFD0008002038
:103B100000B5074B83B01A680192019A1B689A425C
:103B200004D103B05DF804EB05F07AB9FDF778FD38
:103B3000000800200000000000000000000000005D
:103B400000B5074B83B01A680192019A1B689A422C
:103B500004D103B05DF804EB05F09AB9FDF760FD00
:103B6000000800200000000000000000000000002D
:103B700000B5074B83B01A680192019A1B689A42FC
:103B800004D103B05DF804EB05F0AABAFDF748FDD7
:103B900000080020000000000000000000000000FD
:103BA00000B5074B83B01A680192019A1B689A42CC
:103BB00004D103B05DF804EB05F012BBFDF730FD56
:103BC00000080020000000000000000000000000CD
:103BD00000B5074B83B01A680192019A1B689A429C
:103BE00004D103B05DF804EB03F03AB8FDF718FD1B
:103BF000000800200000000000000000000000009D
:103C000010B50C4C82B02368019315290CD8012201
:103C1000094B8A4013403BB101740020019A23688C
:103C20009A4204D102B010BD6FF00700F6E7FDF72D
:103C3000F7FC00BF000800200B003000000000006F
:103C400000B5074B83B01A680192019A1B689A422B
:103C500004D103B05DF804EB02F0CABAFDF7E0FC52
:103C6000000800200000000000000000000000002C
:103C700010B5074B82B01C680194019C1B689C42E4
:103C800004D102B0BDE8104002F072B9FDF7C8FCE3
:103C900000080020000000000000000000000000FC
:103CA00010B5074B82B01C680194019C1B689C42B4
:103CB00004D102B0BDE8104002F072BAFDF7B0FCCA
:103CC00000080020000000000000000000000000CC
:103CD0002DE9F04182B002AB0024364D03F8054DCA
:103CE00090462A6801920F461A460121064603F0C3
:103CF000DFF90446E0B9B8F1010F9DF803301FD099
:103D0000042F53D8DFE807F0322D0328230003F0F7
:103D1000FB07BB420CD03A460121304603F068F95C
:103D2000044628B986F830717169304602F060FAAD
:103D3000019A2B689A42204636D102B0BDE8F08144
:103D4000042F33D8DFE807F02B26211C170003F0DF
:103D50007F07BB42DFD1EBE703F0BF07BB42DAD1FD
:103D6000E6E703F0D707BB42D5D1E1E703F0EF0761
:103D7000BB42D0D1DCE743F08007BB42CBD1D7E7D1
:103D800043F04007BB42C6D1D2E743F00407BB4231
:103D9000C1D1CDE743F02807BB42BCD1C8E743F00F
:103DA0001007BB42B7D1C3E7FDF73AFC6FF003043D
:103DB000BEE700BF00080020000000000000000077
:103DC00030B583B002AA114D002302F8053D0C4620
:103DD0002B680193012103F06BF978B99DF803304A
:103DE000C3F30011C3F3C0022170A270C3F38001BA
:103DF000C3F38012DB096170E2702371019A2B68B2
:103E00009A4201D103B030BDFDF70AFC0008002042
:103E100070B5134C84B00E46236803930DF106026F
:103E2000F821054603F05CF928B1039A23689A4209
:103E300013D104B070BD02AA0421284603F068F92A
:103E40000028F2D1BDF8062012B93368AB61ECE767
:103E5000029BB3FBF2F33360F8E7FDF7E1FB00BF31
:103E6000000800200000000000000000000000002A
:103E700000B5084B027F18680A7083B00190019A60
:103E80001B689A4203D1002003B05DF804FBFDF7E4
:103E9000C7FB00BF00080020000000000000000079
:103EA00070B5104C82B00E46236801930DF10202EA
:103EB0002021054603F014F938B9BDF8023053B19A
:103EC000DB00012233602B622A77019A23689A4231
:103ED00005D102B070BD2B6A33602877F5E7FDF796
:103EE0009FFB00BF00080020000000000000000051
:103EF000F0B5294F83B03B680193052947D80E469A
:103F00000446154662B100EB81020023526B01208A
:103F1000711E04292FD8DFE801F025221306310095
:103F200010460123F4E75B00FE226021204603F0E7
:103F30008FF870B9344445B9284684F8285008E011
:103F400084F82B003444002DF6D0012384F8283067
:103F50000020019A3B689A421CD103B0F0BD84F85E
:103F60002A00EFE7C2F34F224421204603F058F81D
:103F70000028DFD0EDE784F82800E3E71B01EF22FB
:103F80006021204603F064F80028D3D0E1E76FF009
:103F90000300DEE7FDF744FB0008002000000000FE
:103FA00010B50C4B82B01C68019405290AD8014455
:103FB000002091F828101170019A1B689A4206D1CE
:103FC00002B010BD002111706FF00300F4E7FDF79F
:103FD00027FB00BF000800200000000000000000D8
:103FE000F0B543181C4E83B0044693F8280033689C
:103FF00001930D46174630B105292AD8DFE801F0B4
:10400000141E1A1C0C0C04EB81046263019A3368C1
:104010009A421CD103B0F0BDC2F34F226421204666
:1040200002F0FEFF08B1F1E7626304EB85040020B3
:104030006763EBE7E263F8E72264F6E7C2F34F2237
:104040004421204602F0ECFF0028EED0DEE7FDF729
:10405000E7FA6FF00300D9E7000800200000000035
:1040600070B5204C82B02368019305461646052999
:1040700034D8DFE801F0030E0C1E2020436B3360C0
:104080000020019A23689A4226D102B070BDC36B0A
:10409000F5E70DF10202442103F022F80028F0D1E7
:1040A000BDF802305A028BB9AB6B336085F829003A
:1040B000E7E7036CE3E70DF10202642103F010F877
:1040C0000028DED1BDF802305B02D8E70123326060
:1040D000AA6385F82930D4E7FDF7A2FA6FF0030050
:1040E000CFE700BF00080020000000000000000033
:1040F00070B5104C82B00E46236801930DF1030297
:104100000121054602F0D4FF58B99DF8033085F827
:1041100030311B064BBF012303463370307085F8E6
:104120004C30019A23689A4201D102B070BDFDF76C
:1041300077FA00BF00080020000000000000000027
:104140002DE9F047DFF898A0027CDAF8003082B061
:104150000F4601F8082B06460193FFF759FEA0BB56
:10416000387307F110013046FFF79AFE68BB07F17C
:104170001401304600F064FD38BB044607F1240505
:1041800006F1280907F118082A46A1B23046FFF7C0
:1041900067FFD0B9013419F8013B08F8013B062C40
:1041A00005F10405F0D107F13C013046FFF7A0FF0F
:1041B00058B9019ADAF800309A420ED1391D3046CA
:1041C00002B0BDE8F04702F08BB8019ADAF800308F
:1041D0009A4202D102B0BDE8F087FDF721FA00BF94
:1041E00000080020000000000000000000000000A7
:1041F0002DE9F041614F92B005463B6811930022D2
:10420000882102F0F5FE4FF47A724FF4C8735C49CE
:10421000A5F85221A5F854315A4AC5F8581100237F
:10422000C5F8D42085F8F0302B62284601A9FFF7A5
:1042300087FF044688B9ADF8040001AE0FCE05F142
:10424000100CACE80F000FCEACE80F000FCEACE8BE
:104250000F0096E80F008CE80F004B4BC5F8343187
:1042600001264FF420634FF4FA72A5F83C31A5F80B
:1042700038218021324685F85061284602F0B8FE88
:1042800032468046FF21284602F0B2FE002248EA6C
:10429000000011460443284602F0AAFE64B20DF164
:1042A000030204439121284602F002FF64B29DF804
:1042B000033085F83A31044332460021284602F0A3
:1042C00097FE64B200220443FF21284602F090FECC
:1042D00064B2044300228021284602F089FE64B2C1
:1042E000204340B278B90146324628463446FFF7AB
:1042F000FFFD40B90122A1B228461444FFF7F8FDA2
:10430000062CF6D130B1119A3B689A4233D112B0E3
:10431000BDE8F0816885024604212846FFF7E8FDE4
:104320000028F0D1024605212846FFF7E1FD0028CC
:10433000E9D14FF490136B634FF48042012128467A
:10434000FFF74EFE0028DED14FF40C13EB6395F817
:104350002B3003B10023FF222B6485F8302101218B
:10436000284602F045FE012385F832310028CAD1E3
:1043700085F81501C7E7FDF753F900BF00080020D5
:10438000856B0100A4700900640084030000000034
:1043900010B5084B82B01C680194019C1B689C42BC
:1043A00005D1012302B0BDE8104000F039BFFDF790
:1043B00037F900BF000800200000000000000000E6
:1043C00030B5184C90F8DA30226883B0042B019293
:1043D0000D460DF1030211D0142102F069FE20B93F
:1043E0009DF80330DB0706D42870019A23689A42AF
:1043F00015D103B030BD01232B70F6E7132102F075
:1044000057FE9DF8033013F0180F03F0070318BF91
:104410006FF00500042BEED000232B70E5E7FDF7CD
:10442000FFF800BF000800200000000000000000AE
:104430002DE9F047564F8EB03B680D930C460C2388
:104440000AAA1421054602F0B3FD8646002840F072
:104450008B809DF82EE09DF830C09DF82F209DF8B0
:1044600031109DF82A609DF82B30A07502EB0E22CA
:1044700001EB0C2192B289B249025202C4E9032134
:1044800003EB0623C4E900009BB2A3829DF83280AF
:104490009DF83360B5F852E195F831C19DF82810C8
:1044A00006EB0826BEF57A7FB6B21FD006FB0EF6E5
:1044B000DFF8E09095F81C80D5F820E006F5FA7654
:1044C000A9FB0696B609B8F1000F0ED01FFA8EFEB2
:1044D00003FB0EFE4FEA2E2E72454DD0B6B202FB04
:1044E00006F6A2EB0E0EB6FBFEF6B6B2BCF1000F5E
:1044F00047D0B001C0B2B608E0750DF10B002681BF
:10450000CDE90040284602F043FA864660BB9DF89C
:104510000B8084F8188005F150060FCE0DF10C0CBD
:10452000ACE80F002389ADF8143096E807006389E2
:10453000ADF81630E36894F817A0B4F81490069319
:104540002369646804948CE8070003AC8DF8248028
:104550008DF823A00793ADF820900FCC50350FC5F0
:104560009CE8070086E807000D9A3B689A4270466F
:104570000CD10EB0BDE8F087BCF1000F03D148F6B6
:10458000E0260020B8E740F6AE06B5E7FDF748F8AC
:1045900000080020D34D6210000000000000000061
:1045A0002DE9F041134D144C296882B01646019153
:1045B0000DF102020E211F46804602F091FDBDF86A
:1045C000023004EA4343336050B90DF10202404621
:1045D0000C2102F085FDBDF8023004EA43443C6042
:1045E000019A2B689A4202D102B0BDE8F081FDF732
:1045F00017F800BF000800200000FE1F00000000A8
:10460000F0B590F8DA30254C85B0013B2268039272
:10461000022B07D90025039A23689A4228463AD1EB
:1046200005B0F0BD02AB0F4601AA01210646FFF717
:10463000B7FF019BB3F57F0F05461FD9002DEAD1C7
:104640001FBB0422FF21304602F0D2FC2A46074657
:104650007021304602F0CCFC2A460743FF21304649
:1046600002F0C6FC7FB22A46802147EA00053046A8
:1046700002F0BEFC6DB205436DB2CCE7029BB3F510
:104680007F0FC8D9002DDBD0C5E73046044901F0C3
:104690009FFE0546BFE7FCF7C3FF00BF00080020F0
:1046A0004C09002000000000000000000000000095
:1046B000F0B53F4F057C3B6883B004460122802162
:1046C000019302F095FC0122FF21204602F090FCAC
:1046D00000221146204602F08BFC94F83A219121E9
:1046E000204602F085FC01220021204602F080FCD9
:1046F0000022FF21204602F07BFC20460022802180
:1047000002F076FC012D37D017D3032D08D06FF0BF
:104710000706019A3B689A42304647D103B0F0BD84
:1047200068B304220021204602F062FC06460028FD
:10473000EFD1042384F83231EBE701220021204637
:1047400002F056FC012306468DF803300028E0D124
:1047500005462DB301350DF103020021204602F07C
:10476000A7FC9DF80330DB0713D590B9B5F5FA6FB8
:10477000EFD16FF00606CCE730B10222D2E701217B
:104780002046FFF73DFFCCE729462046FFF738FFDC
:10479000F3E7B5F5FA6F14BF06466FF00606B8E703
:1047A0009DF80330DA07B4D50225D4E7FCF738FFCB
:1047B00000080020000000000000000000000000D1
:1047C00030B5114C037C226883B0019283B9054651
:1047D000FFF76EFF30B9284600F072FF10B90323CF
:1047E00085F83231019A23689A420AD103B030BD6C
:1047F000019A23689A4204D103B0BDE8304000F02A
:104800005FBFFCF70DFF00BF0008002000000000A4
:10481000F0B51A4F83B03B6801930646002501228C
:104820000B21304602F0E4FB002204460B21304607
:1048300002F0DEFB0DF1030204431321304602F0C7
:1048400037FC9DF8033064B2204301355B0740B26A
:10485000EDB20CD0032D07D00028E0D0019A3B68C0
:104860009A4209D103B0F0BD6FF00B00F6E7032DBB
:1048700008BF6FF00B00F1E7FCF7D2FE0008002044
:1048800070B5124C82B000222368027405460E46B1
:104890000193FFF795FF28B1019A23689A4212D13C
:1048A00002B070BD31462846FFF7C2FD0028F3D1A3
:1048B000019A23689A4206D10146284602B0BDE813
:1048C0007040FFF7A5BFFCF7ABFE00BF000800205B
:1048D000F0B5574D83B02C680194152906463AD09F
:1048E00014461F46042A00F2A080DFE802F02132BD
:1048F0002E30030004220A21304602F079FBF0B981
:10490000002F14BF10230023EF228421304602F031
:104910009FFBA0B9019A2B6886F8DA409A4240F0D2
:1049200082800146304603B0BDE8F040FFF770BF1B
:1049300000220A21304602F05BFB0028E0D0019AF9
:104940002B689A426FD103B0F0BD0222D3E7032255
:10495000D1E70122CFE70122FF2102F049FB00222B
:1049600011460446304602F043FB00220443FF2177
:10497000304602F03DFB64B2012204438021304600
:1049800002F036FB64B2022204438521304602F075
:104990002FFB64B204220443FF21304602F028FBBF
:1049A00064B200220443CD21304602F021FB64B200
:1049B00011220443CC21304602F01AFB64B20722D4
:1049C0000443FF21304602F013FB64B2002204438B
:1049D000BE21304602F00CFB64B206220443FF21E4
:1049E000304602F005FB64B209220443CC21304674
:1049F00002F0FEFA64B200220443FF21304602F0C6
:104A0000F7FA64B201220443FF21304602F0F0FAC3
:104A100064B2002204431146304602F0E9FA64B25F
:104A2000204340B28BE7FCF7FBFD6FF00A0086E7FE
:104A3000000800200000000000000000000000004E
:104A4000F0B5704F97B004463B68159340220021A3
:104A500005A80DF0C5FC002320460121ADF80A3061
:104A60008DF807308DF80830039300F091FE94F82C
:104A70001421012A06D894F8131100F0B9800C29EA
:104A800040F2B98002AA03A9204600F0F9FB0546CE
:104A9000002D40F0A38094F85031002B00F0A58049
:104AA0005949204601F094FC0546002840F09680C4
:104AB0002B46294604222046FFF70AFF0546002818
:104AC00040F08C800122FF21204602F091FA0DF186
:104AD0000A0206468421204602F002FB2A46FF21F4
:104AE00046EA0005204602F083FA6DB205436DB236
:104AF000002D73D1BDF80A301B01C4F8D43005A9CC
:104B00002046FFF71DFB0546002867D10DF107027F
:104B10000921204602F0CCFA054600285ED105AEF8
:104B20000FCE9DF807C004F110050CF0010C84F8BD
:104B300031C10FC50FCE0FC50FCE0FC596E80F00C0
:104B40008DF807C085E80F000DF10702012120460E
:104B500002F0AEFA0546002840D19DF8073084F8EF
:104B60003031024601462046FFF7B2F80546A8BBA1
:104B7000024602212046FFF7ABF8054670BB03232F
:104B8000014684F832310DF10902204601F008FB9C
:104B9000054618BB9DF8093084F8E8300DF109028C
:104BA0000121204601F0FCFA0546B8B99DF809300C
:104BB00084F8E03004AA0321204601F0C9F8054634
:104BC00060B9049BC4F8E43004AA0421204601F033
:104BD000BFF8054610B9049BC4F8DC30159A3B6851
:104BE0009A4228460CD117B0F0BDD4F84C1158E7C2
:104BF00020293FF647AF204600F042F9054647E737
:104C0000FCF70EFD000800205808002000000000FE
:104C100010B5074B82B01C680194019C1B689C4234
:104C200004D102B0BDE8104000F02ABBFCF7F8FC4C
:104C3000000800200000000000000000000000004C
:104C400030B5134C83B00D46236801930DF1020279
:104C5000282102F045FA50B9BDF80230C3F30B0326
:104C6000B3F5006F09D2FA2202FB03F32B60019A1D
:104C700023689A420AD103B030BDA3F58053C3EB39
:104C8000431203EB82035B002B60F0E7FCF7C8FCE8
:104C900000080020000000000000000000000000EC
:104CA000F0B5DFF860C083B0DCF800400194D708AD
:104CB0004FF0FF348F421C6017D23C1902F00702FC
:104CC00020443E4610F8015FBE4203BF1541EDB2DD
:104CD0001446002415F0010F0ED10134082C4FEAC0
:104CE0005505F7D10136B142ECD1019ADCF800301C
:104CF0009A4205D103B0F0BD04EBC6041C60F4E792
:104D0000FCF78EFC000800200000000000000000FE
:104D10002DE9F04F87B0354CDDF84C802468129EA9
:104D200005941F46149B01900296DDE9105B0093E9
:104D3000B8F1000F33D08A46914600241AE003EB05
:104D40000B0292092A4951F82220003218BF012291
:104D5000524518D1DA08954207D9B85C03F007012B
:104D6000012606FA01F10143B9540134A04503F1CB
:104D7000010614D002AB324629464846FFF790FFA1
:104D8000029B5A1CDBD1009B6FF031001E60174B59
:104D9000059A1B689A4227D107B0BDE8F08F009BA7
:104DA00001981E603A460623B02102F0E1F800287F
:104DB000EDD1019803AA0623B02102F0F9F8002DE5
:104DC000E5D09DF80C203B789A420AD13D4403ABD4
:104DD0000137AF42DBD017F8012B13F8011F9142C6
:104DE000F7D06FF03100D2E7FCF71AFC0008002082
:104DF000040B002000000000000000000000000084
:104E0000F0B51D4D90F830612B6889B00F46C02277
:104E100001210446079302F0EBF828B1079A2B68AA
:104E20009A4226D109B0F0BD69462046FFF728FD19
:104E30000028F3D10122FF21204602F0D9F80028F2
:104E4000ECD13A46B621204602F04AF90028E5D1D5
:104E50000246FF21204602F0CBF80028DED1324680
:104E60000121204602F0C4F80028D7D184F830612F
:104E7000D4E7FCF7D5FB00BF0008002000000000CD
:104E8000F0B52F4E89B00F461546336807930122BF
:104E9000FF21044602F0ACF8A8B30021C4F82411A5
:104EA000A4F828116DB327488368012203B306A82C
:104EB000B4220623CDE90032CDE90217049004F5AF
:104EC000927304F5957229462046FFF721FF30B909
:104ED000012384F8137184F8145184F81531079A6A
:104EE00033689A422AD109B0F0BD2C290A46DED097
:104EF00002F1B5039B09511C50F82330002BF4D06C
:104F0000D5E72946D3E702464F21204602F070F844
:104F10000028C2D12C224E21204602F069F8024618
:104F20000028BAD1FF21204602F062F80028B4D14F
:104F3000B422B621204602F05BF8AEE7FCF770FB26
:104F400000080020040B002000000000000000000A
:104F500030B5164C83B041F0010223680193002163
:104F6000054602F045F8024630B10199236899429E
:104F7000104619D103B030BD284600F0A1FB02460F
:104F80000028F2D101462846FFF742FC02460028DD
:104F9000EBD101992368994206D12846114603B006
:104FA000BDE8304002F024B8FCF73AFB00080020CE
:104FB0002DE9F04F87B03F4F109C039400263C68CA
:104FC00002928A460122FF210546019305948DF83D
:104FD0001360DDF844809DF848B09DF84C9002F0D5
:104FE00007F8324604463146284602F001F83246B8
:104FF0000443FF21284601F0FBFF64B2044364B27E
:10500000BAF1000F27D0BBF1000F33D1B9F1000F77
:105010003AD10122FF21284601F0EAFF0122044390
:105020000021284601F0E4FF64B200220443FF217E
:10503000284601F0DDFF9DF81330059A23F0100398
:1050400088F800303B6864B220439A4240B22FD1C6
:1050500007B0BDE8F08FBBF1000F1ED1B9F1000F12
:10506000D7D0019B8022EE21284601F0F1FF0443B6
:1050700064B2CEE7039ACB21284602F019F8044324
:1050800064B2B9F1000FC4D00DF11302EE2128462D
:1050900002F00EF8044364B2BBE7029ACB21284623
:1050A00001F0A6FF044364B2B9F1000FB1D0D8E714
:1050B000FCF7B6FA00080020000000000000000025
:1050C0002DE9F0472A4F86B03C6805940024054638
:1050D000884691468DF813401E469BB1012290F8F8
:1050E00030A11146284601F083FF044698B1002301
:1050F00088F80030059A3B689A42204635D106B0C0
:10510000BDE8F0870122114628469A4601F070FF5B
:1051100004460028EBD140212846FFF719FF04463A
:105120000028E4D1B9F1010F0ED088F80000002E5C
:10513000E0D052460121284601F05AFF04460028DB
:10514000D8D185F830A1D5E70DF11303CDE9029050
:10515000019302460346CDF8008049462846FFF7F2
:1051600027FF0028E3D00446C4E7FCF759FA00BF44
:105170000008002000000000000000000000000007
:105180002DE9F047254F86B03C68059405468846D2
:1051900091461E469BB190F830A10222012128467B
:1051A00001F026FF044660B1002388F80030059A1C
:1051B0003B689A4220462ED106B0BDE8F0879A4659
:1051C000EBE701462846FFF7C3FE04460028EBD173
:1051D000B9F1010F0ED088F80000002EE7D052463A
:1051E0000121284601F004FF04460028DFD185F89C
:1051F00030A1DCE70DF11303CDE90209009302466B
:105200000346CDF8048049462846FFF7D1FE002822
:10521000E3D00446CBE7FCF703FA00BF0008002008
:105220002DE9F041144C90F8307182B01E4623688D
:1052300001939046002332460546FFF741FF30B107
:10524000019A23689A4214D102B0BDE8F081034666
:10525000324641462846FFF793FF0028F0D13A46F0
:105260000121284601F0C4FE0028E9D185F83071FB
:10527000E6E7FCF7D5F900BF0008002000000000B9
:105280002DE9F04FDFF8B0A2B0F83C71DAF8004039
:1052900095B00023CDE90912C0F82431A0F82831D7
:1052A0000122FF2106461394CDE90F338DF83830E3
:1052B0008DF8393001F09CFE054648B1139ADAF8B2
:1052C00000309A42284640F0318115B0BDE8F08F99
:1052D00002464F21304601F08BFE05460028EDD1F5
:1052E0002C224E21304601F083FE05460028E5D1F0
:1052F0000246FF21304601F07BFE05460028DDD145
:10530000B422B621304601F073FE05460028D5D1FF
:1053100002468021304601F06BFE05460028CDD1C3
:1053200003460DF139020EA93046FFF779FF054615
:105330000028C3D10DF1500B06F595734BF8140DF1
:105340000320039006F592780620B4240D9302956D
:1053500029461A46CDE90004CDF810B04346304640
:10536000FFF7D6FC05460028A8D10DF13A013046DA
:105370000F9CFFF745FD054600289FD1BDF83A3048
:10538000BB4230D904F1B4039B096A4951F8232088
:105390000023C6F82431A6F82831002A40F0BF8047
:1053A0002B2C03D9BBE02C2A144607D004F1B503FB
:1053B0009B09621C51F82330002BF4D0B421062342
:1053C0004FF00309CDE90031CDE90229CDF810B045
:1053D00043460D9A01213046FFF79AFC002800F061
:1053E0008D8005466AE700220C9291460792BB42E7
:1053F00066D2DB1B002BB8BF5B42B8F80420D8F89C
:10540000000008930B959DF81C300D9DADF84820C9
:1054100011900C934FF0030B224610AB0621284647
:10542000FFF73EFC109C631C10D004F1B403414A0A
:105430009B0952F82330079A003318BF0123934287
:1054400059D1E308052B0BF1010902D96FF03105A1
:1054500034E718F8031004F00702012000FA02F202
:105460000A4308F80320B02106234246304601349F
:1054700001F07EFD0028B4D10DF13A013046FFF76E
:10548000BFFC0028ADD1BDF83A20D31B002BB8BF1C
:105490005B42BA4225D9089A0B9D934210D9062344
:1054A00011AAB021304601F063FDBDF84820034643
:1054B0001198C6F82401D946A8F80420002B37D14A
:1054C000099A0A999DF83040C2F8009001230C70A7
:1054D00086F81531136886F813310B7886F8143185
:1054E000ECE6D8F80000B8F8042011900893CB46F9
:1054F000ADF8482090E70B9DD946E1E70DF13A0160
:1055000030460F9CFFF77CFC00287FF46AAFBDF8A3
:105510003A30BB4205D901220C92079267E7224636
:105520004CE701220C908146079260E7FCF778F87F
:105530001D46C3E6040B0020000800200000000008
:1055400010B50E4982B00B680193013830F0FF03AB
:1055500009D000234008013320F0FF029BB2002A4B
:10556000F8D11B029BB2019C0A681844944280B295
:1055700001D102B010BDFCF753F800BF00080020B5
:105580002DE9F0434B4E85B033680393032917464A
:10559000054657D0042940F0878001A9FEF710FC8A
:1055A0009DF8070078BB80460DF101094A460121AC
:1055B0002846FEF775FB0446E8B99DF801203E4BEE
:1055C0003E4803FB02F303F5FA73A0FB0323DA0959
:1055D0004FF47A709B0900FB0720B0FBF3F010EB4F
:1055E00008005DD102467121284601F019FD0446EC
:1055F00008B9C5F8DC70039A33689A42204656D140
:1056000005B0BDE8F0830DF101094A4600212846A6
:10561000FEF746FB04460028EDD10DF102025121B0
:10562000284601F05DFDBDF802305FFA83F81B0AE1
:1056300008FA03F808F101081FFA88F80446002860
:10564000B4D0D8E70DF101020021FEF729FB9DF847
:105650000120194B044603FB02F3184803F5FA73C3
:10566000A0FB0323DA094FF47A709B0900FB0720A3
:10567000B0FBF3F080B280B9ADF80200A5F8D80015
:10568000002CB8D102465121284601F0C9FC04463D
:105690000028B0D1C5F8E470ADE7FFF751FFEBE7A4
:1056A000FFF74EFF02469EE76FF00304A3E7FBF708
:1056B000B7FF00BF00080020002F3A00D34D621052
:1056C000F0B5134F83B002AE00223B6806F8052DFB
:1056D000054601934FF4FA6408E09DF80330012B6E
:1056E0000AD0013C0ED0284601F02AFD314628465A
:1056F000FEF766FE0028F0D0019A3B689A4204D17A
:1057000003B0F0BD6FF00600F6E7FBF789FF00BFBE
:105710000008002000000000000000000000000061
:10572000F0B5174F83B03B680193002283210646F2
:1057300001F05EFC044680B94FF4FA6502E060B9FE
:10574000013D17D00DF103028321304601F0B0FC7A
:105750009DF803300446002BF1D00122304683210E
:1057600001F046FC019A3B6820439A4240B204D1C2
:1057700003B0F0BD6FF00604EFE7FBF751FF00BF89
:1057800000080020000000000000000000000000F1
:105790002DE9F04FDFF8B48590F8F060D8F80030CC
:1057A00091B04FF0000B072E0F93CDE906BB0AD145
:1057B0005C460F9AD8F800309A42204640F0C482E6
:1057C00011B0BDE8F08F0F4601228021054601F09F
:1057D0000FFC01228146FF21284601F009FC5A46B0
:1057E00049EA00095946284601F002FC4FFA89F9B6
:1057F000062249EA0009FF21284601F0F9FB4FFA89
:1058000089F949EA00090DF111028321284601F0C6
:105810004FFC9DF811204FFA89F949EA000942F03E
:1058200004028321284601F0E3FB4FFA89F907229D
:1058300049EA0009FF21284601F0DAFB4FFA89F90D
:105840000122812149EA0009284601F0D1FB4FFAE3
:1058500089F949EA0009284601F072FC4FFA89F9F2
:1058600049EA000901228021284601F0C1FB4FFAD4
:1058700089F949EA000017F0010A44B213D0F3078E
:1058800040F1FE8117F00203CDE901BB009310D176
:1058900017F0040B00F0EA80700740F16B810023E1
:1058A00003939946E5E0CDE901AA17F002030093BE
:1058B000EED016F00209EBD102229421284601F025
:1058C00097FB83462846FFF72BFF4BEA0000044373
:1058D0000DF112029021284601F0EAFB64B27B220E
:1058E00094210443284601F083FB64B20443284614
:1058F000FFF716FF64B20DF113020443902128460E
:1059000001F0D6FB64B2772294210443284601F0CB
:105910006FFB64B204432846FFF702FF64B20443FE
:1059200005AA9021284601F0F3FB059B64B2DA003A
:10593000C3F38641044302F07802C3F3C6204FEA62
:10594000536C8DF81120C3F3061378228DF82910BB
:105950008DF82A00942128468DF828C08DF82B3028
:1059600001F046FB64B204432846FFF7D9FE64B257
:1059700005AA04439021284601F0CAFB059B9DF827
:1059800011C0990101F0400164B2C3F3865204438F
:105990008DF81110C3F30620C3F3C6310CEB537C12
:1059A0008DF82D20C3F3460379228DF82E108DF843
:1059B0002F00942128468DF82CC08DF8303001F04E
:1059C00017FB64B204432846FFF7AAFE64B205AA97
:1059D00004439021284601F09BFB059B9DF8112074
:1059E00064B202EB9362C3F3C6414FEA830C0443F3
:1059F000C3F306300CF07C0CC3F346138DF8312052
:105A00008DF832107A2294218DF8330028468DF8D3
:105A100011C08DF8343001F0EBFA64B2044328462B
:105A2000FFF77EFE64B205AA04439021284601F0E8
:105A30006FFB059B9DF811208DF83A9064B202EB44
:105A40009372C3F3C65EC3F3064CC3F3462104430B
:105A5000C3F3860364B28DF835208DF836E08DF8F7
:105A600037C08DF838108DF8393011E7CDF80CB00B
:105A7000D94600228121284601F0BAFA06220443C1
:105A8000FF21284601F0B4FA64B20DF1110204437B
:105A90008321284601F00CFB9DF8112064B20443D9
:105AA00002F0FB028321284601F0A2FA64B201222F
:105AB0000443FF21284601F09BFA64B2012204430B
:105AC0000021284601F094FA64B200220443FF2129
:105AD000284601F08DFA64B2044300228021284652
