:020000040800F2
:1000000000040020C1010008413F0008413F0008F2
:10001000813D0008413F0008413F0008413F000882
:10002000413F0008413F0008413F0008415F000890
:10003000413F0008413F0008413F000811B000085F
:10004000413F0008118A0008A18B0008F18B0008CD
:10005000413F0008413F000851870008A187000880
:10006000F18700084188000891880008917C000809
:10007000E17C0008317D0008817D0008D17D000809
:10008000217E0008717E0008C1850008918D00085E
:10009000018E0008B18E0008618F0008E188000819
:1000A000413F0008413F000821AC0008413F0008E3
:1000B00091AE0008D1AE000811AF0008C19E000843
:1000C00001A00008413F0008413F0008413F0008EF
:1000D000413F0008413F0008413F0008D1B00008FF
:1000E00071890008618A0008B18A0008413F000850
:1000F000413F0008413F0008413F0008C17E000821
:10010000413F0008F190000851AF0008413F00084E
:10011000413F0008413F0008E1AB0008413F0008B3
:10012000117F0008617F0008B17F0008018000088E
:1001300051800008413F0008018B0008413F000842
:10014000413F0008413F0008413F000871A60008F8
:10015000A1800008F180000841810008413F0008AB
:10016000413F0008413F0008413F0008413F00086F
:10017000518B0008413F0008012E0008413F000854
:10018000413F0008413F0008413F0008413F00084F
:10019000413F0008413F0008413F0008413F00083F
:1001A000413F0008413F0008413F0008413F00082F
:1001B000413F0008413F0008413F0008413F00081F
:1001C00072B62E4880F3098840F20000CCF200009D
:1001D0004EF63471CEF20001086040F20000C0F229
:1001E000F0004EF68851CEF2000108604FF000009A
:1001F000E1EE100A4EF63C71CEF2000108600620D6
:1002000080F31488BFF36F8F0BF0AAF84FF05530CE
:100210001B491C4A91423CBF41F8040BFAE71A49BA
:10022000164A91423CBF41F8040BFAE71749184AB5
:10023000184B9A423EBF51F8040B42F8040BF8E702
:1002400000201549154A91423CBF41F8040BFAE7DA
:1002500003F05EFE124C134DAC4203DA54F8041B5B
:100260008847F9E702F054F80F4C104DAC4203DA1E
:1002700054F8041B8847F9E703F05ABE0008002031
:1002800000000020000400200004002008420108B3
:1002900000080020A4190020A8190020C074002024
:1002A000C0010008C0010008C0010008C00100082A
:1002B0002DE9F04F2DED108AC1F80CD0D0F80CD0FC
:1002C000BDEC108ABDE8F08F03F07AFF04F0A0FFC8
:1002D000002383F311882846A047002004F000FD86
:1002E00004F07EFF03F04CFF04F06AFB03F068FFAC
:1002F00004F08EFF00DFFEE70000000000000000B9
:100300002DE9F843544B80461A68544882422DED3B
:10031000028B1BD052490B68DA0405D40A6842F4F8
:1003200080530B60012000E000204E4A4E491160CE
:1003300013684A4A934208D147490B6030B1484894
:10034000036823F48052026000E0FEE798ED018A22
:10035000B5EE408A0021F1EE10FAC8F81C10C8F87A
:100360001810C8F81410C8F81010C8F82810C8F8E9
:100370002410C8F8201029D0DFED3C7A28EE270A97
:1003800010EE100A01F038F8044618EE100A0D4677
:1003900001F032F80646B8F800000F4601F01AF8EE
:1003A0002BA3D3E9002301F0ADF902460B463046FA
:1003B000394600F0C3FE02460B462046294601F0AE
:1003C000A1F901F03DFBA8F82C0001E0A8F82C10E1
:1003D00098ED028AB5EE408AF1EE10FA26D0B8F810
:1003E00000904FEA092000F0F5FF044618EE100ACD
:1003F0000D4601F001F816A3D3E9002301F058F8E7
:10040000064648460F4600F0E5FF02460B463046DA
:10041000394600F093FE02460B462046294601F07D
:1004200071F901F00DFBA8F82E0002E00020A8F8F9
:100430002E00B8F800204FF47A73B2FBF3F1A8F85D
:100440003010BDEC028BBDE8F88300BFAFF3008035
:100450001F85EB51B81E1940A8190020CDB5E8B58D
:100460003038024000300240C2A507F4000080434B
:100470002DE9F04F9BB083461992A94A1891A948DB
:100480001168814200D0FEE79E6AB3F80CC09F69F4
:100490009A8DD98D039603261C6A5D6A059706928C
:1004A00006FB0CF74FEA8C0206264FEA4C000B9134
:1004B0000E97052106FB0CF70F9207220294049574
:1004C0000D90119701FB0CF04FEACC0602FB0CF1EA
:1004D00000271D695C69D3F81CA010901291179633
:1004E0000197188EDDF80490814580F20A818E48CC
:1004F0009BF800601BF80C7010F80690C25DA144D8
:100500008419511994F8008194F8002201EB4808ED
:10051000CDF81C80DDF834801BF80860855DC719B4
:10052000A9180E9A97F800411BF8022097F800725C
:1005300001EB4405815C0895CC1981190F9E91F857
:10054000008191F8007204EB48081BF80640CDF8D2
:1005500024808218055D92F8006192F80022E91962
:1005600001EB460505EB0807DDF8408015971BF801
:1005700008700A950419C15D94F8005194F800427E
:10058000DDF81C808E1806EB4501119D089A1BF8BA
:1005900005508E18C719425D1696161997F8002156
:1005A00006EB42029044CDF85080129C97F80072FE
:1005B0001BF804604519845DE41995F8007195F8FD
:1005C0000052801904EB47044FF01C0804EB0907A4
:1005D00090F80061139708FB09AADDF81C800C94C1
:1005E0000AEB0209152705EB460490F8005207FBB9
:1005F0000890099FDDF820900A2606FB070A0F27BE
:1006000007FB09A04FF00308DDF8289008FB010064
:100610004FF0060A0AFB0900009015984FF03009C8
:1006200009FB00FADDF858902E2000FB09A0824655
:100630000598824413984FF0240909FB00AA1498E6
:100640004FF02A0909FB00AA0898DDF8249008FB5E
:1006500000F8062000FB0988DDF81C9008EB090073
:1006600007FB01010A9F0C98DDF8009006FB0718B4
:100670001C2606FB008115270B9807FB021205922A
:10068000A9F5003868B1029E049FCDF8108006EBF2
:100690000801CE1B46434FF4807296FBF2F00290A5
:1006A0008046069961B1039E08FB01F8C1F5807789
:1006B00006FB07894FF4807299FBF2F003908046A5
:1006C000199901FB08F7002F02DD0837381103E004
:1006D000083F102697FBF6F047F6BC72019E1349BF
:1006E000189FDDF85C809042A8BF1046DA897243FB
:1006F0008842A8BF0146013627F81210C34401966C
:10070000EFE61D615C61029D059C1D629C61039D7D
:10071000049CC3F81CA05C629D621BB0BDE8F08F16
:10072000A8190020CDB5E8B5000800204480FFFFDF
:100730002DE9F04FA1B0C74C1F92C74A1E91116816
:10074000A14200D0FEE79F6A9A69998DDC8D0497DB
:100750009F89069207910F940322052106241D6AA2
:100760005E6A03957A4379437C43129214911594FF
:10077000072209210A24794305964FEA47084FEAE0
:1007800087097A434FEAC70A7C431E695D69D3F83B
:100790001CB01891CDF84480CDF84C901692CDF84D
:1007A0005CA01D94002102911A8E0299914280F260
:1007B0005981AA4A047812F80490A944C55D111918
:1007C00012F8058091F8004191F800A2464406EB2A
:1007D0004406119C0896045D5519165D95F800C1F4
:1007E00095F8005206EB0A0808EB4C0ADDF8488041
:1007F000CDF824A010F80810DDF84C80565C1419D0
:1008000006EB050A10F8085094F800C1565D94F8FC
:10081000004251180AEB4C0C361991F800A1149CB7
:1008200091F80012CDF828C006EB4A08065DCDF815
:100830002C80945DDDF85480551904EB010A95F87D
:10084000004195F800520AEB44010C9110F8081091
:100850009619545C641996F8005104EB45040D9404
:10086000169D96F80062DDF824A0DDF85C80A444B3
:10087000445DCDF86CC0155D5118AD1991F800615B
:1008800091F8001205EB460505EB0A060E9510F8E7
:1008900008501C961419565DDDF860A0711894F884
:1008A000006194F8004201EB460C08990CEB01063C
:1008B0001A9610F80A605519915D9219091995F860
:1008C000004192F8006195F8005201EB44012D249B
:1008D00001EB090804FB09BB10910899CDF864806D
:1008E0000BEB0C09DDF8288005EB460592F8006259
:1008F000242202FB019A152404FB08A9DDF824A098
:100900000C994FF01C0B0BFB0A994FF00A08DDF80D
:100910002CA008FB01994FF00F0B0E990BFB0A99C5
:100920004FF00308DDF834A008FB01994FF0060BE7
:100930000BFB0A99CDF80490DDF82CA00C994FF030
:100940004B0B51440BFB01F91B994FF0490A0AFB71
:10095000019B0699DDF868900BEB010A4FF03F0B05
:100960001C990BFB09AA4FF0450BDDF864900BFBBB
:1009700001AA4FF0370B0BFB09ABDDF824A00A9955
:1009800008FB0AF84FF00609DDF820A009FB0188F2
:100990000C99D0444FF00F09DDF82CA009FB018819
:1009A0000A21DDF8389001FB0A884FF01C0A0D99E6
:1009B0000AFB098804FB018A109C0F994FF02D094E
:1009C00009FB04A8DDF804A002FB0C820692AAF53C
:1009D0007A3971B1039C0599CDF8149004EB0902A2
:1009E000541A0F9A4FF48071544394FBF1F403941A
:1009F000A146079961B1049CC1F5807209FB01FC15
:100A000004FB02C94FF4807199FBF1F20492914604
:100A10001F9C04FB09F1002902DD10314C1103E099
:100A20001039202291FBF2F447F6BC718C42A8BF2A
:100A30000C46DA890299DDF874804A4308498C42F1
:100A4000A8BF21461E9C24F81210029A4044511C53
:100A5000A9E600BFCDB5E8B5A81900200008002020
:100A60004480FFFF05981E615D61039E069D049C06
:100A700058629D61C3F81CB01E629C62104621B092
:100A8000BDE8F08F2DE9F04F95B0994C1392994A3B
:100A900012911168A14200D0FEE75E6A1D6A9F6A4A
:100AA0009A69998DB3F82E800C964FF00009D3F80F
:100AB00010C05E69D3F81CB00195029709920A91A3
:100AC000CDF83480CDF80C908B4904780D190C5D6D
:100AD00095F8007295F8008106EB070A067ACDF8C2
:100AE0002CA08F198E5D97F8002202EB4805AC44CC
:100AF000057C97F80081CDF810C04A194D5D92F839
:100B0000009292F8002109EB040A0AEB480C90F8D5
:100B100018A090F82090CDF814C001EB0A0494F8C6
:100B2000007294F80041BF1907EB420801EB09027B
:100B3000CDF8188092F8006292F80021771907EB3F
:100B4000440606EB080C90F8288011F80A70079606
:100B500001EB0805CDF840C095F8004295F800512A
:100B6000E619059F06EB4204E619119690F83060ED
:100B700008948C1911F8097094F80022D219049F76
:100B800002EB4502BD180F9590F8385011F8089007
:100B900094F80041DDF82C808E5D4F1997F800A283
:100BA00097F800710AEB090C0CEB4404DDF818A06F
:100BB00011F805C000941C2505FB082944440A21AE
:100BC000DDF8148001FB0A9906EB4706DDF820A04A
:100BD0000F2707FB0899032101FB0A99DDF81CA0E8
:100BE0004FF0060808FB0A99DDF810A0152101FB5B
:100BF0000A99CB44DDF84490CDF82CB04FF02E0A82
:100C00000AFB09FADDF840904FF0300B0BFB09AA04
:100C10004FF0240B0BFB04A90F9C4FF02A0A0AFB90
:100C2000049B099CDDF81890DDF810A0A344059CF6
:100C300008FB09A8DDF820A04FF0030909FB048890
:100C4000079C07FB0A890A2707FB0498DDF8009038
:100C5000DDF82CA00C9F05FB098501FB02520199D0
:100C60000992AAF500328C180D99DDF82880E51B51
:100C70004D434FF4807195FBF1F40194019F44467C
:100C80007C43029FC8EB010507FB054595FBF1F18D
:100C90000291139C6143002902DD0831091103E030
:100CA0000839102791FBF7F147F6BC75134C129FDA
:100CB0000C92A942A8BF2946039DA142B8BF214674
:100CC00079530C354030C02D03957FF4FDAE099863
:100CD000019C029D9861C3F810C05E61C3F81CB00E
:100CE0001C625A629D62102015B0BDE8F08F00BFF3
:100CF000CDB5E8B5A8190020000800204480FFFF0A
:100D00002DE9F04FA1B084461F92BE4A1E91BE4805
:100D10001168814200D0FEE79E6A9F6905969E8910
:100D2000D98D01967000079703277E431190019893
:100D30009A8D0F9112960521019E08924843B200A8
:100D40001490019E01980199139206277E43072271
:100D5000C700514315961797019E019F1C6A5D6A53
:100D6000169109220A2156434F434FF0000804947C
:100D700006955C691D69D3F81CB018961D97CDF8CF
:100D80000C80188EDDF80C90814580F25A819F49C5
:100D90009CF80000DDF804900F181CF8096097F823
:100DA00000A297F80021085CA2448C198E5D94F88B
:100DB000008294F80041454405EB4207119D0997D4
:100DC0001CF805504A194D5D92F8007292F80081A6
:100DD0003F18129807EB44091CF80040CDF8289002
:100DE00008190C5D90F8007290F80001BF1907EB2C
:100DF0004809DDF84C80CDF82C901CF8089001EBE8
:100E00000902CDF8089092F8006292F80021771953
:100E1000149E1CF80690159E07EB400801EB090094
:100E2000CDF8308090F8005290F800012F1907EBB0
:100E300042081CF80670029DCDF83480CA194E5D38
:100E400092F80042A41904EB40050295DDF82C80CD
:100E5000169E92F80021CF5DA844CDF86C801CF856
:100E6000068011F80950DDF8609001EB080011F8D8
:100E7000088090F8004290F8000166190A9D06EB80
:100E80004204179A0E9466191C961CF802608C197D
:100E90008E5D94F8002294F80041D519099F05EB66
:100EA0004002D5191A951CF809504F194D5D97F855
:100EB000000297F80071404400EB44002D2100EB44
:100EC0000A0401FB0ABB1090099819940BEB020A63
:100ED00006EB470424210B9F01FB00A94FF01508E6
:100EE000DDF828A00D9808FB07964FF01C0B0BFBB4
:100EF0000A69DDF830800A2606FB009A0F27DDF824
:100F0000389007FB08AB4FF0030808FB09BADDF87F
:100F100008B0062000FB0BA9CDF80090DDF834A046
:100F2000DDF830B04FF04B090AEB0B0009FB00FA7B
:100F30001B984FF0490B0BFB00A9079809EB000A1F
:100F4000DDF868901C984FF03F0B0BFB09AA4FF09F
:100F5000450BDDF864900BFB00AA4FF0370B0BFB41
:100F600009ABDDF828A00B9808FB0AF84FF006093A
:100F7000DDF824A009FB00880D9808EB0A0907FB9F
:100F800000980C9FDDF83890029806FB07864FF01A
:100F90001C0A0AFB0968152707FB008610980F9F9B
:100FA0004FF02D0909FB006A01FB02A2DDF800A049
:100FB0000792AAF57A386FB10499069ECDF8188089
:100FC00001EB0800811B79434FF4807291FBF2F72B
:100FD0000497B846089860B1059908FB00F8C0F579
:100FE000807601FB06894FF4807299FBF2F7059732
:100FF000B8461F9800FB08F6002E09DD1036771161
:101000000AE000BFA8190020CDB5E8B5000800200F
:10101000103E202196FBF1F7039ED8891049DDF898
:10102000748047F6BC729742A8BF17468F42A8BF8C
:10103000394670431E9F721C27F81010C444039257
:101040009FE65C61079C049A9C61059E069C1D615D
:10105000C3F81CB01A625C629E6221B0BDE8F08FDA
:101060004480FFFFAFF3008000000000000000009C
:101070004B1C012B98BF70472DE9F003911C9B0876
:10108000B1F80480B1F802900A8831F802CC8044AB
:10109000814402448444D9F80070D8F8006015688F
:1010A000DCF80040C9F80060C8F80070CCF80050C7
:1010B0001460D9F80470D8F804605568DCF804406E
:1010C000C9F80460C8F80470CCF8045054600831C2
:1010D000013BD5D1BDE8F00370474B1C012B98BFF5
:1010E00070472DE9F003911C9B08B1F80480B1F81A
:1010F00002900A8831F802CC00EB580800EB59093D
:1011000000EB520200EB5C0CD9F80070D8F80060DC
:101110001568DCF80040C9F80060C8F80070CCF829
:10112000005014600831013BDFD1BDE8F003704787
:1011300081F0004102E000BF83F0004330B54FEA88
:1011400041044FEA430594EA050F08BF90EA020FF5
:101150001FBF54EA000C55EA020C7FEA645C7FEA88
:10116000655C00F0E2804FEA5454D4EB5555B8BFAB
:101170006D420CDD2C4480EA020281EA030382EA1C
:10118000000083EA010180EA020281EA0303362DAE
:1011900088BF30BD11F0004F4FEA01314FF4801C81
:1011A0004CEA113102D0404261EB410113F0004F93
:1011B0004FEA03334CEA133302D0524263EB43034A
:1011C00094EA050F00F0A780A4F10104D5F1200EE8
:1011D0000DDB02FA0EFC22FA05F2801841F1000143
:1011E00003FA0EF2801843FA05F359410EE0A5F117
:1011F00020050EF1200E012A03FA0EFC28BF4CF048
:10120000020C43FA05F3C01851EBE37101F00045FD
:1012100007D54FF0000EDCF1000C7EEB00006EEB0A
:101220000101B1F5801F1BD3B1F5001F0CD3490894
:101230005FEA30004FEA3C0C04F101044FEA4452EB
:1012400012F5800F80F09A80BCF1004F08BF5FEA72
:10125000500C50F1000041EB045141EA050130BD52
:101260005FEA4C0C404141EB010111F4801FA4F1F5
:101270000104E9D191F0000F04BF01460020B1FA4A
:1012800081F308BF2033A3F10B03B3F120020CDA82
:101290000C3208DD02F1140CC2F10C0201FA0CF060
:1012A00021FA02F10CE002F11402D8BFC2F1200CC5
:1012B00001FA02F120FA0CFCDCBF41EA0C0190407B
:1012C000E41AA2BF01EB0451294330BD6FEA0404C4
:1012D0001F3C1CDA0C340EDC04F11404C4F12002AF
:1012E00020FA04F001FA02F340EA030021FA04F3C1
:1012F00045EA030130BDC4F10C04C4F1200220FA18
:1013000002F001FA04F340EA0300294630BD21FA55
:1013100004F0294630BD94F0000F83F4801306BF1B
:1013200081F480110134013D4EE77FEA645C18BF0F
:101330007FEA655C29D094EA050F08BF90EA020FA6
:1013400005D054EA000C04BF1946104630BD91EA9E
:10135000030F1EBF0021002030BD5FEA545C05D1A1
:101360004000494128BF41F0004130BD14F58004E0
:101370003CBF01F5801130BD01F0004545F0FE4154
:1013800041F470014FF0000030BD7FEA645C1ABF89
:10139000194610467FEA655C1CBF0B46024650EAC0
:1013A000013406BF52EA033591EA030F41F40021EC
:1013B00030BD00BF90F0000F04BF0021704730B572
:1013C0004FF4806404F132044FF000054FF0000147
:1013D00050E700BF90F0000F04BF0021704730B508
:1013E0004FF4806404F1320410F0004548BF4042DD
:1013F0004FF000013EE700BF42004FEAE2014FEA32
:1014000031014FEA02701FBF12F07F4393F07F4F0C
:1014100081F06051704732F07F4208BF704793F00F
:101420007F4F04BF41F40021704730B54FF4607422
:1014300001F0004521F000411CE700BF50EA010225
:1014400008BF704730B54FF000050AE050EA0102CE
:1014500008BF704730B511F0004502D5404261EB3E
:1014600041014FF4806404F132045FEA915C3FF47F
:10147000D8AE4FF003025FEADC0C18BF03325FEA1C
:10148000DC0C18BF033202EBDC02C2F1200300FACD
:1014900003FC20FA02F001FA03FE40EA0E0021FAF2
:1014A00002F11444BDE600BF00000000000000008F
:1014B00070B54FF0FF0C4CF4E06C1CEA11541DBFEA
:1014C0001CEA135594EA0C0F95EA0C0F00F0DEF8B5
:1014D0002C4481EA030621EA4C5123EA4C5350EA9A
:1014E000013518BF52EA033541F4801143F48013EB
:1014F00038D0A0FB02CE4FF00005E1FB02E506F07C
:101500000042E0FB03E54FF00006E1FB03569CF0D0
:10151000000F18BF4EF0010EA4F1FF04B6F5007FD6
:1015200064F5407404D25FEA4E0E6D4146EB060648
:1015300042EAC62141EA55514FEAC52040EA5E50D1
:101540004FEACE2EB4F1FD0C88BFBCF5E06F1ED87B
:10155000BEF1004F08BF5FEA500E50F1000041EBB2
:10156000045170BD06F0004646EA010140EA02005F
:1015700081EA0301B4EB5C04C2BFD4EB0C0541EA81
:10158000045170BD41F480114FF0000E013C00F396
:10159000AB8014F1360FDEBF002001F0004170BDBA
:1015A000C4F10004203C35DA0C341BDC04F11404D3
:1015B000C4F1200500FA05F320FA04F001FA05F25F
:1015C00040EA020001F0004221F0004110EBD3702C
:1015D00021FA04F642EB06015EEA430E08BF20EA58
:1015E000D37070BDC4F10C04C4F1200500FA04F3FB
:1015F00020FA05F001FA04F240EA020001F000418D
:1016000010EBD37041F100015EEA430E08BF20EAFF
:10161000D37070BDC4F1200500FA05F24EEA020E47
:1016200020FA04F301FA05F243EA020321FA04F076
:1016300001F0004121FA04F220EA020000EBD3702D
:101640005EEA430E08BF20EAD37070BD94F0000F2D
:101650000FD101F00046400041EB010111F4801F61
:1016600008BF013CF7D041EA060195F0000F18BF12
:10167000704703F00046520043EB030313F4801F4E
:1016800008BF013DF7D043EA0603704794EA0C0F08
:101690000CEA135518BF95EA0C0F0CD050EA41061E
:1016A00018BF52EA4306D1D181EA030101F000419B
:1016B0004FF0000070BD50EA410606BF10461946C3
:1016C00052EA430619D094EA0C0F02D150EA0136CF
:1016D00013D195EA0C0F05D152EA03361CBF104610
:1016E00019460AD181EA030101F0004141F0FE41AF
:1016F00041F470014FF0000070BD41F0FE4141F433
:10170000780170BD70B54FF0FF0C4CF4E06C1CEA32
:1017100011541DBF1CEA135594EA0C0F95EA0C0FE7
:1017200000F0A7F8A4EB050481EA030E52EA0335A2
:101730004FEA013100F088804FEA03334FF08055C3
:1017400045EA131343EA12634FEA022245EA1115F0
:1017500045EA10654FEA00260EF000419D4208BFA1
:10176000964244F1FD0404F5407402D25B084FEA4E
:101770003202B61A65EB03055B084FEA32024FF4FA
:1017800080104FF4002CB6EB020E75EB030E22BF57
:10179000B61A754640EA0C005B084FEA3202B6EB17
:1017A000020E75EB030E22BFB61A754640EA5C00C6
:1017B0005B084FEA3202B6EB020E75EB030E22BF56
:1017C000B61A754640EA9C005B084FEA3202B6EB57
:1017D000020E75EB030E22BFB61A754640EADC0016
:1017E00055EA060E18D04FEA051545EA16754FEA78
:1017F00006164FEAC30343EA52734FEAC2025FEA96
:101800001C1CC0D111F4801F0BD141EA00014FF024
:1018100000004FF0004CB6E711F4801F04BF0143F5
:101820000020B4F1FD0C88BFBCF5E06F3FF6AFAE11
:10183000B5EB030C04BFB6EB020C5FEA500C50F1A1
:10184000000041EB045170BD0EF0004E4EEA113124
:1018500014EB5C04C2BFD4EB0C0541EA045170BD2B
:1018600041F480114FF0000E013C90E645EA060E6F
:101870008DE60CEA135594EA0C0F08BF95EA0C0F9D
:101880003FF43BAF94EA0C0F0AD150EA01347FF4E5
:1018900034AF95EA0C0F7FF425AF104619462CE7BC
:1018A00095EA0C0F06D152EA03353FF4FDAE10461F
:1018B000194622E750EA410618BF52EA43067FF470
:1018C000C5AE50EA41047FF40DAF52EA43057FF400
:1018D000EBAE12E700000000000000000000000076
:1018E0004FF0FF3C06E000BF4FF0010C02E000BFEC
:1018F0004FF0010C4DF804CD4FEA410C7FEA6C5CCF
:101900004FEA430C18BF7FEA6C5C1BD001B050EA71
:10191000410C0CBF52EA430C91EA030F02BF90EA5C
:10192000020F0020704710F1000F91EA030F58BF1B
:10193000994208BF90422CBFD8176FEAE37040F07D
:10194000010070474FEA410C7FEA6C5C02D150EA1B
:10195000013C07D14FEA430C7FEA6C5CD6D152EAD6
:10196000033CD3D05DF8040B704700BF844610469B
:1019700062468C461946634600E000BF01B5FFF79A
:10198000B7FF002848BF10F1000F01BD4DF808ED6A
:10199000FFF7F4FF0CBF012000205DF808FB00BF3B
:1019A0004DF808EDFFF7EAFF34BF012000205DF895
:1019B00008FB00BF4DF808EDFFF7E0FF94BF0120E2
:1019C00000205DF808FB00BF4DF808EDFFF7CEFFE3
:1019D00094BF012000205DF808FB00BF4DF808ED22
:1019E000FFF7C4FF34BF012000205DF808FB00BFF3
:1019F0004FEA410212F5001215D211D56FF4787337
:101A0000B3EB625212D94FEAC12343F0004343EAD9
:101A1000505311F0004F23FA02F018BF40427047B4
:101A20004FF00000704750EA013005D111F000403E
:101A300008BF6FF0004070474FF00000704700BFD4
:101A40004A0011D212F5001211D20DD56FF478733D
:101A5000B3EB62520ED44FEAC12343F0004343EA92
:101A6000505323FA02F070474FF00000704750EADD
:101A7000013002D14FF0FF3070474FF00000704747
:101A80004FEA4102B2F1E04324BFB3F5001CDCF1A0
:101A9000FE5C0DD901F0004C4FEAC0024CEA5070D8
:101AA000B2F1004F40EB830008BF20F00100704707
:101AB00011F0804F21D113F13872BCBF01F000400A
:101AC000704741F480114FEA5252C2F11802C2F13C
:101AD000200C10FA0CF320FA02F018BF40F00100BD
:101AE0004FEAC1234FEAD32303FA0CFC40EA0C006F
:101AF00023FA02F34FEA4303CCE77FEA625307D1AC
:101B000050EA01331EBF4FF0FE4040F440007047E2
:101B100001F0004040F0FE4040F40000704700BF7C
:101B200053B94AB9002908BF00281CBF4FF0FF3144
:101B30004FF0FF3000F074B9ADF1080C6DE904CE40
:101B400000F006F8DDF804E0DDE9022304B0704798
:101B50002DE9F047089E04468846002B4BD18A4267
:101B6000154667D9B2FA82F24AB1C2F1200701FAEA
:101B700002F320FA07F7954047EA030894404FEA3A
:101B8000154E230CB8FBFEF71FFA85FC0EFB1788D9
:101B900043EA084307FB0CF1994209D9EB1807F116
:101BA000FF3080F01B81994240F21881023F2B44A4
:101BB0005B1AA4B2B3FBFEF00EFB103344EA0344FD
:101BC00000FB0CFCA44509D92C1900F1FF3380F06F
:101BD0000781A44540F2048102382C4440EA0740C2
:101BE000A4EB0C0400271EB1D4400023C6E9004337
:101BF0003946BDE8F0878B4209D9002E00F0EB8012
:101C00000027C6E9000138463946BDE8F087B3FA37
:101C100083F7002F47D18B4202D3824200F2FA8031
:101C2000841A61EB030301209846002EE0D0C6E938
:101C30000048DDE702B9FFDEB2FA82F2002A40F086
:101C40008F80491B4FEA154E1FFA85F80127B1FB1B
:101C5000FEFC230C0EFB1C1143EA014308FB0CF1B4
:101C6000994207D9EB180CF1FF3002D2994200F2E9
:101C7000CD808446591AA3B2B1FBFEF00EFB1014BE
:101C800043EA044408FB00F8A04507D92C1900F1E9
:101C9000FF3302D2A04500F2B6801846A4EB080438
:101CA00040EA0C409FE7C7F1200CBB4022FA0CFE33
:101CB0004EEA030E01FA07F420FA0CF521FA0CF3B0
:101CC0004FEA1E482543B3FBF8F92C0C08FB1933E7
:101CD0001FFA8EFA44EA034309FB0AF49C4202FA13
:101CE00007F200FA07F10BD91EEB030309F1FF30ED
:101CF00080F087809C4240F28480A9F102097344FD
:101D00001B1BADB2B3FBF8F008FB103345EA0344EC
:101D100000FB0AFAA24508D91EEB040400F1FF33C8
:101D20006BD2A24569D90238744440EA0940A0FB4D
:101D30000289A4EB0A044C45C2464B4654D351D009
:101D4000002E69D0B1EB0A0564EB030404FA0CFC25
:101D5000FD40FC404CEA0505C6E90054002747E772
:101D6000C2F1200320FA03F7954001FA02F021FAAC
:101D700003F34FEA154E3843010CB3FBFEF71FFA8D
:101D800085F80EFB173341EA034107FB08F38B424A
:101D900004FA02F407D9691807F1FF3C2FD28B42ED
:101DA0002DD9023F2944CB1A81B2B3FBFEF00EFBC2
:101DB000103341EA034100FB08F38B4207D969184D
:101DC00000F1FF3C17D28B4215D902382944C91AB9
:101DD00040EA07473BE73746304609E70746E7E66C
:101DE0001846FBE64145ABD2B8EB020A69EB0E029E
:101DF00001381346A4E76046E9E7184695E76746C9
:101E0000D1E781467CE702382C4447E7ACF1020C6D
:101E10002B442FE7384608E73746E9E60000000084
:101E2000704700BF0000000000000000000000003C
:101E3000844641EA000313F003036DD1403A41D3D5
:101E400051F8043B40F8043B51F8043B40F8043B94
:101E500051F8043B40F8043B51F8043B40F8043B84
:101E600051F8043B40F8043B51F8043B40F8043B74
:101E700051F8043B40F8043B51F8043B40F8043B64
:101E800051F8043B40F8043B51F8043B40F8043B54
:101E900051F8043B40F8043B51F8043B40F8043B44
:101EA00051F8043B40F8043B51F8043B40F8043B34
:101EB00051F8043B40F8043B51F8043B40F8043B24
:101EC000403ABDD2303211D351F8043B40F8043BC4
:101ED00051F8043B40F8043B51F8043B40F8043B04
:101EE00051F8043B40F8043B103AEDD20C3205D3D4
:101EF00051F8043B40F8043B043AF9D2043208D0CC
:101F0000D2071CBF11F8013B00F8013B01D30B883D
:101F100003806046704700BF082A13D38B078DD01B
:101F200010F003038AD0C3F10403D21ADB071CBFED
:101F300011F8013B00F8013B80D331F8023B20F857
:101F4000023B7BE7043AD9D3013A11F8013B00F890
:101F5000013BF9D20B7803704B7843708B78837018
:101F60006046704700000000000000000000000014
:101F700090F800F06DE9024520F007016FF0000CC9
:101F800010F0070491F820F040F049804FF0000471
:101F90006FF00700D1E9002391F840F000F108004C
:101FA00082FA4CF2A4FA8CF283FA4CF3A2FA8CF384
:101FB0004BBBD1E9022382FA4CF200F10800A4FAEB
:101FC0008CF283FA4CF3A2FA8CF3E3B9D1E904233F
:101FD00082FA4CF200F10800A4FA8CF283FA4CF376
:101FE000A2FA8CF37BB9D1E9062301F1200182FA30
:101FF0004CF200F10800A4FA8CF283FA4CF3A2FA36
:102000008CF3002BC6D0002A04BF04301A4612BA43
:10201000B2FA82F2FDE8024500EBD2007047D1E946
:10202000002304F00305C4F100004FEAC50514F0D5
:10203000040F91F840F00CFA05F562EA05021CBFA6
:1020400063EA050362464FF00004A9E700000000C0
:1020500001F0FF01102A2BDB10F0070F08D010F859
:10206000013B013A8B422DD010F0070F42B3F6D15D
:10207000F0B441EA012141EA014122F007047FF076
:1020800000070023F0E80256083C85EA010586EACD
:10209000010685FA47F5A3FA87F586FA47F6A5FA09
:1020A00087F68EB9EED1F0BC01F0FF0102F0070215
:1020B00032B110F8013B013A83EA010313B1F8D1C0
:1020C0000020704701387047002D06BF35460338A1
:1020D000073815F0010F07D1013015F4807F02BFDA
:1020E000013015F4C03F0130F0BC0138704700BF2B
:1020F0004FEA410C7FEA6C5C02D150EA013C0AD104
:102100004FEA430C7FEA6C5C02D152EA033C02D1F5
:102110004FF0000070474FF00100704700000000D2
:1021200030B5164D164C2B6883B00020019300F09B
:1021300037F96368002B4FF0000112DD022000F038
:10214000AFFB002000F04CFA00F07AFA00F0E0FB60
:10215000636801992A680133914263600CD103B02E
:1021600030BD012000F09CFB012000F039FA00F0A6
:1021700067FA00F0CDFBEBE700F0FAF8000B002067
:10218000AC1900200000000000000000000000006A
:1021900030B5104D104C2B6883B00020019300F037
:1021A000FFF8002319461846C4E90033A36000F085
:1021B00077FB00F005FA00F043FA00F0A9FB236872
:1021C00001992A6801339142236001D103B030BDE7
:1021D00000F0CEF8000B0020AC1900200000000039
:1021E00010B50E4C82B023680193002000F0D8F89F
:1021F0000021032000F054FB00F002FA00F020FA66
:1022000000F086FB064A01989368216801338842F2
:10221000936001D102B010BD00F0AAF8000B0020BD
:10222000AC190020000000000000000000000000C9
:1022300010B50B4C82B023680193002000F0B0F879
:102240000121042000F02CFB019A23689A4204D15A
:1022500002B0BDE8104000F0B3BB00F089F800BF49
:10226000000B002000000000000000000000000043
:1022700010B5224B224C1B78226882B0013B0192A0
:10228000042B0DD8DFE803F02427032E18001D4B84
:102290001A68002A04DD5A68002A01DD9B6843B3EE
:1022A000022000F04DFB019A23689A4224D102B02B
:1022B000BDE8104000F084BBFFF7BAFF019A236825
:1022C0009A4219D1012002B0BDE8104000F038BB9D
:1022D000FFF75EFFF2E70B4B1B68002BE0DDFFF71B
:1022E0001FFFEBE7074B1B68002BD9DD00F098F9C7
:1022F000E4E7FFF775FFE1E700F03AF8B84900209E
:10230000000B0020AC1900200000000000000000BD
:1023100080B5114B114F1B68114E124D82B0002435
:10232000019303F06DFE01F023FE01F0D1FC00F0FB
:1023300097F900F0ADF800223146284600F0C0F8C9
:10234000012000F02DF800F01BFB074803F080F897
:10235000FFF78EFF3C70EEE7000B0020B84900202D
:102360006003010870030108100B0020000000004A
:1023700000B5084B83B01A680192019A1B689A4213
:1023800005D1054803B05DF804EB01F059BEFFF735
:10239000EFFF00BF000B0020400301080000000019
:1023A00010B5124C82B023680193A0B101280CD162
:1023B00001F0CEFB019A23689A4208BF002012D197
:1023C00002B0BDE8104001F0E3BB019A23689A42D5
:1023D00009D102B010BD01F0BBFB019A23689A42FB
:1023E00008BF0120ECD0FFF7C3FF00BF000B0020A7
:1023F00070B5144E82B005463368019301F0F0FBCE
:10240000002D12DD01350124002001F0C1FB4FF445
:10241000967002F0EDFB0120044401F0B9FB4FF48B
:10242000FA7002F0E5FBAC42EED1019A33689A42B1
:1024300005D1002002B0BDE8704001F0A9BBFFF754
:1024400097FF00BF000B002000000000000000000C
:102450000EB410B583B005AA094C52F8041B2368CA
:1024600008480092019308F0D3FF019A23689A422A
:1024700004D103B0BDE8104003B07047FFF778FF08
:10248000000B002014740020000000000000000079
:1024900000B5084B83B01A680192019A1B689A42F2
:1024A00006D10549054803B05DF804EB04F058BFB8
:1024B000FFF75EFF000B0020040B002014740020C7
:1024C0002DE9F04F374B87B01B6805938246019189
:1024D000002A62D10846FFF74BFD0446204600F073
:1024E000B7FA3149024603A80AF0CAFD5046FFF781
:1024F0003FFD064603A8FFF73BFD00EB060808F189
:10250000040948460AF054FA0546003018BF012075
:1025100000F06EFA03A8FFF72BFD03A90746024659
:102520002846FFF785FCEB19023347F67C4B5146F2
:1025300025F807B018463246FFF77AFC20F806B0B7
:10254000B9F1000F0FD005EB0807DFF864A0DFF842
:102550005C9003376E1E16F8012F51464846FFF770
:1025600077FFBE42F7D16CB1019BDFF848900F4F67
:102570005E1E344416F8012F49463846FFF768FFBF
:10258000B442F7D1074B059A1B689A4207D12846F7
:1025900007B0BDE8F04F0AF013BA14469EE7FFF704
:1025A000E7FE00BF000B0020800301081474002028
:1025B00084030108880301080000000000000000F7
:1025C00000B5064B83B01A680192019A1B689A42C3
:1025D00002D103B05DF804FBFFF7CAFE000B002038
:1025E00000B5064B83B01A680192019A1B689A42A3
:1025F00002D103B05DF804FBFFF7BAFE000B002028
:1026000000B5064B83B01A680192019A1B689A4282
:1026100002D103B05DF804FBFFF7AAFE000B002017
:1026200000B5064B83B01A680192019A1B689A4262
:1026300002D103B05DF804FBFFF79AFE000B002007
:1026400000B5064B83B01A680192019A1B689A4242
:1026500002D103B05DF804FBFFF78AFE000B0020F7
:1026600010B5084C82B02368019301F099F9019AE2
:1026700023689A4204D102B0BDE81040FFF708BFBA
:10268000FFF776FE000B00200000000000000000B5
:1026900000B525499FED257A0B6883B0283001935A
:1026A0004FF0FF320A23F0EC017AF4EEC77AF1EE34
:1026B00010FAC8BF1AB203F10103C8BFB0EE677ABF
:1026C000212BF0D192B2A2F10F03022B1DD9A2F15E
:1026D0001203022B0FD9A2F11603022B19D9A2F172
:1026E0001903022B19D91C3A022A114B94BF052257
:1026F00000221A7002E00E4B02221A70019A0B6837
:102700009A420ED103B05DF804FB094B01221A7006
:10271000F4E7074B03221A70F0E7054B04221A7006
:10272000ECE7FFF725FE00BF000B002000401C4631
:10273000B849002000000000000000000000000078
:10274000F0B54E4E4E4D336883B001932B8800296F
:1027500061D0B0F906204B4C07EE902A5A1C04EBCE
:10276000830792B202339BB2F8EEE77A04EB82025F
:102770004FF0000EB3F5006FC7ED007A2B80C2F862
:1027800000E02CD20139C1F38D0100EBC10100271B
:102790001AE0B0F90E2007EE902A5A1C92B203F10B
:1027A000020C04EB8307F8EEE77A04EB82021FFACF
:1027B0008CF3B3F5006FC7ED007A00F108004FF01D
:1027C0000107C2F800E009D28142E2D1002F52D1C4
:1027D000019A33689A424CD103B0F0BD2B8029494D
:1027E000294C4FF4806000F04BF94FF48062274988
:1027F000244809F005FD2378082BE9D92348FFF781
:1028000047FF234B1A780023237042B9012300228B
:1028100023702A80DCE7B3F5006FD9D3DFE72B8084
:10282000202383F3118802F0DBFC01F0A9FC01F006
:1028300077FD18488368002B18DD02F099F801F045
:10284000BFFC02F0E5FC144B1A689A4207D0996964
:1028500093688A689A4202D2104801F0F1FB002383
:1028600083F3118823780133DBB2D0E702F028FE2E
:10287000E3E7FFF77DFD2B80AAE700BF000B0020F8
:10288000BA490020B8190020BC490020B8390020FE
:10289000B8490020100B0020F065002090030108CB
:1028A00030B51A4D83B02B680193044601F0E0F86F
:1028B00001F0BEF8042C22D8DFE804F0031603036D
:1028C0000E00019A2B689A4208BF00200AD103B07B
:1028D000BDE8304001F084B8019A2B689A4208BFE5
:1028E0000220F4D0FFF744FD019A2B689A4208BFFA
:1028F0000120F7D103B0BDE8304001F071B8019A72
:102900002B689A42EED103B030BD00BF000B00200F
:1029100000B5074B83B01A680192019A1B689A426E
:1029200004D103B05DF804EB01F0A2B8FFF720FD7D
:10293000000B00200000000000000000000000006C
:1029400030B50D4C83B023680193054601F090F833
:1029500001F06EF8012D019A236807D89A4209D137
:10296000032003B0BDE8304001F03AB89A4201D1EB
:1029700003B030BDFFF7FCFC000B0020000000009E
:1029800010B50A4C0A48236882B0019300F0A0FCFD
:10299000019A23689A4207D106490748002202B0EB
:1029A000BDE81040FFF78CBDFFF7E2FC000B0020F4
:1029B00041270008A003010870030108000000007F
:1029C00000B5074B83B01A680192019A1B689A42BE
:1029D00004D103B05DF804EB01F02AB8FFF7C8FC9E
:1029E000000B0020000000000000000000000000BC
:1029F00000B50B4B83B01A680192019A1B6820B195
:102A00009A420AD103B05DF804FB9A4205D1012035
:102A100003B05DF804EB00F00BB8FFF7A9FC00BFB2
:102A2000000B00200000000000000000000000007B
:102A300000B5064B83B01B68019304462046FFF7A0
:102A4000D7FC4FF4FA6002F0D3F8F7E7000B002050
:102A500010B50A4C82B023680193B0F5803F05D2CF
:102A6000019A23689A4207D102B010BD0220FFF7F5
:102A7000DFFF4FF0FF30F3E7FFF77AFC000B002099
:102A800000B50D4B83B01A680192B0F5806F019AC2
:102A90001B6804D09A420CD103B05DF804FB9A4243
:102AA00007D106480123002203B05DF804EB09F0CA
:102AB00027BBFFF75DFC00BF000B0020B00301083F
:102AC00030B54368174D1A68296883B004460191F0
:102AD00012B304220270DA681B6852081146984744
:102AE0002378042B18D0202383F3118802F0A8FB4D
:102AF00001F086FB04F10800002102F039F901F031
:102B00009FFB02F0B5FB002383F31188019A2B6829
:102B10009A4204D103B030BD02232370E3E7FFF7EC
:102B200027FC00BF000B0020000000000000000098
:102B300070B5194D82B02B68019311F00C0F0C4643
:102B4000064622D114F0200109D0019A2B689A423E
:102B50001FD1304602B0BDE87040FFF7B1BFE306B9
:102B60000DD57268136853B1019C2868844210D156
:102B7000D2683046520802B0BDE870401847019A4A
:102B80002B689A4205D102B070BD044801F058FA92
:102B9000D8E7FFF7EDFB00BF000B0020E0030108C2
:102BA00070B5194D82B02B68019311F00C0F0C46D3
:102BB000064622D114F0200109D0019A2B689A42CE
:102BC0001FD1304602B0BDE87040FFF779BFE30681
:102BD0000DD57268136853B1019C2868844210D1E6
:102BE000D2683046520802B0BDE870401847019ADA
:102BF0002B689A4205D102B070BD044801F020FA5A
:102C0000D8E7FFF7B5FB00BF000B0020E003010889
:102C100030B50F4D0F4C2A680F4B83B02046019200
:102C20004FF6FF721A8000F05BF90C4B01992A688D
:102C30000B480C4D2562636203F1240591420A4B57
:102C40002363C4E90A5001D103B030BDFFF790FB04
:102C5000000B0020D4490020BE490020F80D0108D7
:102C60001E010100003C0040460001000000000081
:102C700070B52C4D03782A6882B0012B044601926E
:102C800024D06368E26A5989236B22F4F04223F46A
:102C9000F043090544BF42F4205243F42053C4E9F1
:102CA0000B23236A00221A606268236A52891A6021
:102CB000236A03225A60226A136843F040031360B8
:102CC000019A2B689A422BD102B070BD164EB042C9
:102CD0000AD0D4E9083212680C339360A26A236ADE
:102CE00012680C339360CCE70346104A406A0A210D
:102CF00005F086FA80B9B06A0B4B0D4A0A2105F03F
:102D00007FFA28B90B4A136C43F400431364E0E7DD
:102D1000094801F095F9F5E7074801F091F9EAE76C
:102D2000FFF726FB000B0020D4490020A12B000850
:102D3000312B000800380240C003010800000000E9
:102D400070B5456A174C2D68266882B00196EB6015
:102D5000436A1B685960456AC36A2D6843F48063FF
:102D60002B60836A1B68DA60836A1B685960826A19
:102D7000036B126843F480631360436A1A68136834
:102D800043F001031360836A1A68136843F0010378
:102D90001360019A23689A4201D102B070BDFFF717
:102DA000E7FA00BF000B0020000000000000000058
:102DB00030B5104D81682B680F4A83B001930B68C2
:102DC00023F001030B608168946A03E0936A1B1B84
:102DD000C72B09D8086810F00100F7D1019A2B68B9
:102DE0009A4204D103B030BD4FF0FF30F6E7FFF751
:102DF000BFFA00BF000B0020F065002000000000BB
:102E0000F0B5284D83B02B68019302F0B1F901F0C1
:102E100037FA254B1E69F20715D55A69234C42F043
:102E200001025A612778BB1F012B2AD9052263684A
:102E300022701B680BB120469847042F27D0022F21
:102E400025D003232370B30710D5174A174C5369B5
:102E500043F0020353612378032B1DD063689B6802
:102E60000622227013B101211048984701F030FA70
:102E7000019A2B689A4213D103B0BDE8F04003F0E9
:102E80007FB8019A2B689A420AD103B0F0BD0223A1
:102E90002370B307EAD5D8E72046FFF789FFDDE7BF
:102EA000FFF766FA000B002000000550C049002023
:102EB00000B5074B83B01A680192019A1B689A42C9
:102EC00004D103B05DF804EBFFF7A2BEFFF750FAA0
:102ED000000B0020000000000000000000000000C7
:102EE00000B50A4B83B01A68019201220270019961
:102EF0001A6800239142C0E9013305D10C3003B0B8
:102F00005DF804EB02F01CBBFFF732FA000B002067
:102F100070B51E4D82B02B6801930E46044670B307
:102F200069B3202383F3118802F05AF901F028F9DC
:102F30002378013B012B02D9154801F081F8204686
:102F40006660FFF795FE0223237001F039F902F065
:102F50005FF9104B1A689A4204D0996993688A689D
:102F60009A4208D3002383F31188019A2B689A426E
:102F700009D102B070BD084801F062F8F2E70448D8
:102F800001F05EF8CDE7FFF7F3F900BF000B00207A
:102F900000040108F0650020F003010800000000B3
:102FA0002DE9F041214D82B02C6801940E469046E7
:102FB0001F46044600B171BB1D4801F041F82023B3
:102FC00083F3118802F00CF901F0DAF82378022B70
:102FD00002D0174801F034F803203B464246314600
:102FE00020702046FFF7ACFE01F0EAF802F010F97D
:102FF000104B1A689A4204D0996993688A689A4279
:103000000ED3002383F31188019A2B689A420BD1C7
:1030100002B0BDE8F081002BCED0002ACFD1CBE7A3
:10302000054801F00DF8ECE7FFF7A2F9000B0020CE
:1030300010040108F0650020F00301080000000002
:1030400000B5084B83B01A680192019A1B689A4236
:1030500005D1054803B05DF804EB00F0F1BFFFF7C0
:1030600087F900BF000B00200007010800000000E6
:1030700070B5164B164C1A78216882B001912AB1AE
:10308000019A23689A421FD102B070BD05460126FD
:1030900010481E70802343830F4A104910484FF494
:1030A000B47303F0BDF9019A23689A420CD14FF42E
:1030B000B4730C480C4903FB05F3B1FBF3F102B008
:1030C000BDE8704003F00CBBFFF752F92C4A00201A
:1030D000000B0020000C0240300401081C4A0020B4
:1030E000407000209473002000BD01050000000026
:1030F00010B50C4C0C4B22680C4882B00192802217
:103100001A8303F04DFB0A4803F0CAF9019A2368B9
:10311000084900209A42087001D102B010BDFFF7A3
:1031200027F900BF000B0020000C02409473002020
:10313000407000202C4A0020000000000000000029
:1031400070B5154D154A164B2968164E9E6082B013
:1031500000244FF4006010800191947011461248D1
:103160005C6001221A60DC6003F0DAF80F4B104E4D
:1031700010485C60202219469A60DC601E6003F0F3
:103180003FFA019A2B689A4204D102B0BDE8704020
:10319000FFF7AEBFFFF7ECF8000B0020184A002045
:1031A0001C4A00204130000840700020084A0020DE
:1031B00000BD010594730020000000000000000025
:1031C0002DE9F04F3B4A3C4B126883B00124019239
:1031D0001C70002968D04FF00008384CC246C34626
:1031E000C1464746C446434647F6FF7E14E0AB451A
:1031F000A8BFAB46B2F90450BD4220DCB2F90620AC
:10320000AA45A8BFAA464A451EDC043390459BB296
:10321000A8BF904699421CD930F9136000EB4302D5
:10322000B442B2F90250B8BF3446B645A8BFB6465C
:103230006545DCDDAC46B2F90450BD42DEDDB2F9D5
:1032400006204A452F46E0DD04339BB29942914661
:10325000E2D8A4EB0E04ACEB0B0CA7EB0A07A9EB2E
:103260000808A4B21FFA8CFCBFB21FFA88F8144AEF
:1032700010491480019C0968124BA2F802C0978083
:10328000B0F8F8C4B0F8FA64A2F80680B0F8FC54BC
:10329000B0F8FE24A3F800C08C425E809D80DA80E6
:1032A00006D103B0BDE8F08F88460F468C46DEE7B6
:1032B000FFF75EF8000B00202D4A00200080FFFF82
:1032C000384A0020304A00200000000000000000C2
:1032D00010B5404B404C1B78226882B0012B019204
:1032E00005D0019A23689A4271D102B010BD00281E
:1032F0006AD00090684600F0DBF9384A384B516CD0
:1033000041F480315164506A002140F480305062B1
:1033100051621961D9601A6A22F001021A629A692F
:1033200022F003029A619A6942F001029A619A6955
:1033300022F0F0029A611A6A22F00A021A629A696D
:1033400022F00C029A619A6822F070029A609A68E0
:1033500042F050029A609A6822F4803222F007020A
:103360009A609A6842F007029A601A68012022F473
:1033700040721A60D862996258611A6A22F010028B
:103380001A629A6922F440729A619A6922F08072F4
:1033900022F4E0429A619A6942F4C0429A611A6A40
:1033A00022F0A0021A6298639A6942F400629A615C
:1033B0001A6A22F480621A621A6A42F011021A62D0
:1033C0001A6802431A608CE7064B009392E7FEF7F7
:1033D000CFFF00BF2C730020000B002000380240FC
:1033E00000400140C1310008000000000000000062
:1033F00070B5114C82B0236801930E461546202308
:1034000083F3118801F01CFF00F0FAFE0B4B0C480F
:10341000C3E9006502F054F800F012FF01F028FF44
:10342000002383F31188019A23689A4201D102B0E4
:1034300070BDFEF79DFF00BF000B0020505F002015
:10344000404A0020000000000000000000000000D2
:1034500070B5114C82B0236801930E4615462023A7
:1034600083F3118801F0ECFE00F0CAFE0B4B0C4810
:10347000C3E9006502F024F800F0E2FE01F0F8FE76
:10348000002383F31188019A23689A4201D102B084
:1034900070BDFEF76DFF00BF000B0020345D002003
:1034A000404A002000000000000000000000000072
:1034B0002DE9F04F634B64499A69644B916185B083
:1034C0001B6803935F4B9B6993F821305B0700F106
:1034D000AE805F4801F0BCFF5D4801F0B9FF594B79
:1034E0009B6993F8212012F0040240F0A080594D0E
:1034F00059482B6801680446406805EB830304EBD8
:10350000810103F50279430001F10808019343D0DA
:10351000DFF854B1514BDFF860A1012018F81250C8
:1035200018F8006019F8121019F8004005F0550C51
:10353000770806F0550613F80CC09E5D01F0550E95
:103540004CEA061649084FEA540C01F0550104F004
:1035500055040CF0550C6D0813F80EE0595C1C5D19
:1035600013F80CC00BF8126005F0550507F055076D
:1035700041EA0C114EEA041E0AF812E05D5D0AF8F9
:103580000010DF5D0199013245EA071591420BF801
:10359000005000F10200C1D1314B32493248334D65
:1035A0000422FCF765FF324B324933480422FCF712
:1035B0005FFF324B324933480422FCF759FF324B4C
:1035C000324933480422FCF753FFDFF8D8C028689B
:1035D0009CF80070234A274900EBC71302F140060C
:1035E00054881C8032F8044B5C800C889C804C888A
:1035F000DC80964201F1040103F10803F0D1092FA8
:1036000011D1244B00221B688CF800204FF420714C
:1036100098472B68204A214993420B6006BF204BF4
:103620002B602A604EE701378CF800704AE7074BA1
:10363000039A1B689A4202D105B0BDE8F08FFEF7ED
:1036400097FE00BFF065002010070108000B002066
:10365000404A0020505F0020345D00201C0B0020F9
:103660000C5B0020C84F0020085000209C0B00205D
:10367000745B0020DC5B00201C5C0020405B0020B1
:10368000CA4F002009500020A85B0020DE5B00200C
:103690001D5C00201C5D002008510020A00B0020B4
:1036A00008560020085B0020000000000000000019
:1036B0002DE9F04F494A0168494B116085B000215E
:1036C0000E461B684748039301F0EAFD4FF4AF61D3
:1036D000454B009641224548454DDFF84891454C01
:1036E000DFF844A1444F01F02BFA444B444A1860E0
:1036F000136BC5F804A043F480534FF002184FF445
:103700007A5B13632846C5E90298A5F800B0FCF778
:10371000F7FD2046C4E901A9C4F80C80A4F800B064
:10372000FCF7EEFD05F13400C5E90EA9C5F84080AF
:10373000A5F834B0FCF7E4FD324DC4F8408004F144
:103740003400C4E90EA9A4F834B0FCF7D9FD314621
:1037500040F20C42384609F0FBFBDFF8D0902A4AD1
:103760006E604FF400634FF080082E812A606B81F9
:10377000264CC5F80C80C7F80894FFF799FB29463A
:103780002348244DFFF7C4FB07F5027307F1080235
:103790004FF480711E48FFF703FC314620464FF47A
:1037A000037209F0D5FB1C4B1C4AC4F8089208347C
:1037B0001A611946C3E900641948C3E9028503F098
:1037C00087F8074B039A1B689A4205D1144805B045
:1037D000BDE8F04F03F0C4B8FEF7CAFD1C5D002041
:1037E000000B0020404A0020B1340008504A00205D
:1037F0000C5B0020745B0020505F00204C4A0020CE
:1038000000380240405F0020F1330008345D0020A2
:10381000D449002051340008205D00202C0308000A
:103820002C730020000020410000FA45EFBEADDE01
:1038300070B5114C82B00546236801930E46FFF720
:103840007FFC15B12846FFF713FC4FF47A700B4B41
:1038500000FB06F000F2E730A3FB0030800901F026
:10386000C7F9019A23689A4204D102B0BDE87040BA
:10387000FFF73EBCFEF77CFD000B0020D34D62102D
:103880002DE9F04F2DED028BDFF80881394BD8F888
:10389000182039491B68394D394EDFF8FCA0DFED9F
:1038A000398A9FED398ADFF8F490384F916183B0FF
:1038B0000193202383F3118801F092FC00F060FC57
:1038C000504601F02DFA286000F07AFC01F0A0FCCF
:1038D000D8F80030434508D0D8F818209B68926883
:1038E0009A4202D22A4800F0ABFB4FF0000B8BF358
:1038F00011885946484601F033FD2A681389012191
:10390000317013B92FE0317869B3D2E9000101EBCE
:103910008B0292ED007A30F81B00C8EE877A0BF12B
:10392000010BFCEEE77A17EE903A9CB22146FFF7C6
:103930007FFF07EE904AF8EEE77A4FF47A7267EE6F
:10394000887AFCEEE77A17EE903A98B202FB00F024
:1039500000F2E730A7FB0030800901F049F92A683E
:1039600011895945CFDC002301214846337001F00D
:10397000F7FC9EE7000B0020200701086063002091
:103980001C0E002000007A446666A63FD34D6210EC
:1039900030070108F06500205C630020100E002055
:1039A00010B50A4C0A4B22680A4884B04FF4FC71E7
:1039B000039200220092402201F0C2F8039A236889
:1039C0009A4201D104B010BDFEF7D2FC000B0020DA
:1039D000813800086863002000000000000000003B
:1039E00010B50F4A0F4B11681C6882B0019471B179
:1039F00001991B68994210D10B4B00EB400103EB7E
:103A00008101104602B0BDE8104001F011BA019AE0
:103A10001B689A4201D102B010BDFEF7A9FC00BF9D
:103A20005C630020000B0020E00D0020000000007F
:103A300010B50C4C82B02368019300F071FC0A4869
:103A4000019A8368002B236803DD9A4208D102B0F3
:103A500010BD9A4204D102B0BDE8104001F0F8BC9C
:103A6000FEF786FC000B0020100E00200000000076
:103A700000B5084B08491A6883B000200192019AEA
:103A80001B6808709A4202D103B05DF804FBFEF790
:103A90006FFC00BF000B00201C0E00200000000087
:103AA00070B5294D82B02B6801930E46032841D88A
:103AB000DFE800F01A120A02012922D9234A5369C9
:103AC00083F40063536116E0012926D91F4A536924
:103AD00083F4806353610EE0012918D91B4A5369AE
:103AE00083F04003536106E001291CD9174A53694A
:103AF00083F020035361019A2B689A4218D102B0D7
:103B000070BD124B4FF4006229B15A83F3E70F4B9B
:103B100040220029F9D11A83EDE70C4B4FF4806263
:103B20000029F8D0F1E7094B20220029F3D0ECE777
:103B3000FEF71EFC0024E0B231460134FFF7B0FF6F
:103B4000042CF8D1D7E700BF000B0020000C024086
:103B500000B50D4B83B01A68019201280BD90B49AF
:103B60004A6982F004024A61019A1B689A4209D1AB
:103B700003B05DF804FB054A042108B95183F3E75B
:103B80001183F1E7FEF7F4FB000B00200004024074
:103B900000B50E4B83B01A68019201280BD90C496D
:103BA0004A6982F480424A61019A1B689A420AD1AA
:103BB00003B05DF804FB064A4FF4804108B9518315
:103BC000F2E71183F0E7FEF7D3FB00BF000B002004
:103BD000000C024000000000000000000000000097
:103BE000F0B50D4F0D4C3B6883B0002501932E4678
:103BF000E8B200210135FFF753FF042D26706670EF
:103C0000A67004F10304F3D1019A3B689A4201D1F2
:103C100003B0F0BDFEF7ACFB000B00206065002098
:103C20002DE9F043254E83B034680194042A9DF8B1
:103C30002890144605460F46984639D9B9F1000F29
:103C400014BF00224FF08052640002EB0863013C75
:103C50001C4405F00F0527F01F07202383F311886C
:103C600001F0BEFA3D4300F08BFA154B1035DD60D4
:103C70001C6100F0A5FA01F0CBFA124B1A689A42C7
:103C800004D0996993688A689A420DD3002383F31C
:103C90001188BFF36F8FBFF34F8F019A33689A4239
:103CA0000AD103B0BDE8F083074800F0C9F9EDE799
:103CB000064800F0C5F9C1E7FEF75AFB000B0020EB
:103CC00090ED00E0F0650020C0070108A0070108A2
:103CD00030B5224D224C2B68224A85B0039363688D
:103CE00043F004036360536A43F480335362202338
:103CF00083F3118801F074FA00F042FA17221A4B8C
:103D0000E260236100F05CFA01F082FA174B1A6856
:103D10009A4204D0996993688A689A4218D300201D
:103D200080F31188BFF36F8FBFF34F8F03231D22E2
:103D300000904FF00051FFF773FF094A536843F0BA
:103D400001035360039A2B689A4205D105B030BD38
:103D5000074800F075F9E2E7FEF70AFB000B0020C8
:103D600090ED00E000ED00E009000010F06500209B
:103D7000C007010800000000000000000000000073
:103D800070B51A4D1A4C1B4E0FCD0FC49EB02A6849
:103D9000336822801D93EFF30981682203A8FEF7A0
:103DA00047F8154B9D6AAA0714D4EB0708D5124BA8
:103DB00008995B6B114A00910D48802109F018F9B0
:103DC0001D9A33689A420FD109481EB0BDE8704071
:103DD00000F036B9099A5B6B0092A4F11000084A12
:103DE000802109F005F9E0E7FEF7C2FA840701082F
:103DF0006C650020000B002000ED00E0600701086A
:103E00004007010800000000000000000000000062
:103E10000A490B4B09680B4A82B0202001914021CE
:103E200058834FF4806559834FF400644FF4804009
:103E300004215D835C8358835183FEE7000B0020DF
:103E4000000C0240000402400000000000000000DE
:103E500000B5084B83B01A680192019A1B689A4218
:103E600005D1054803B05DF804EB01F051BCFEF745
:103E70007FFA00BF000B0020E40F002000000000CC
:103E800000B5084B83B01A680192019A1B689A42E8
:103E900005D1054803B05DF804EB01F071BCFEF7F5
:103EA00067FA00BF000B0020E40F002000000000B4
:103EB00070B50D4C82B0236801930D1E06460DDDD2
:103EC000284601F0D5FF18B90C2333604FF0FF30BE
:103ED000019A23689A4205D102B070BD034800F0F0
:103EE000AFF8EDE7FEF744FA000B0020D007010819
:103EF00000B5064B83B01A680192019A1B689A427A
:103F000002D103B05DF804FBFEF732FA000B00208B
:103F100000B5064B83B01A680192019A1B689A4259
:103F200002D103B05DF804FBFEF722FA000B00207B
:103F3000024B82B01B680193FEE700BF000B00201C
:103F400000B5044B04481B6883B0019300F078F877
:103F5000FEE700BF000B0020E007010800000000A2
:103F6000024B82B01B680193FEE700BF000B0020EC
:103F7000F0B5294E294B3268294885B000240392B8
:103F80009C60D968274A4FF6FF0529400A43DA604A
:103F9000C2682549254D42F08072C2600A6842F02D
:103FA00001020A6010202022D87783F8222000F036
:103FB000DFFA00F045FA01F063F801F031FF01F09B
:103FC0009FFF01F0B5F800F0FBF9402105F588608E
:103FD00000F01EFD0127164BC36180F82070A86118
:103FE00000F0A6F884F3118862B6AB69114A9A61B1
:103FF0004FF4C4713A46104B009405F59D6000F0F3
:104000009FFD039A33680D4981619A4201D105B041
:10401000F0BDFEF7ADF900BF000B002000ED00E0A1
:10402000F0ED00E00003FA05001000E0F06500206C
:104030000004002070090108613F00080008010821
:1040400000B5054B83B01B680193044672B6FFF7B9
:10405000DFFE024BDC62FEE7000B0020F065002073
:104060002DE9F047DFF890A0224DDAF8003082B059
:10407000019300F055F9AB6993F8232012B1013A8E
:1040800083F823205A6ADFF8748001325A6200F004
:1040900047F9AB6AEA6901334245AB6220D09368C5
:1040A000013B9360EC69A668D6B94FF020092368FC
:1040B000E768E660C3F804802368EB6100F0C0F8AD
:1040C00001F0D6F886F311882069B84789F3118882
:1040D00001F0B6F800F094F8EC69A368002BE6D084
:1040E000019ADAF800309A4202D102B0BDE8F087B6
:1040F000FEF73EF9F0650020000B00200C66002062
:1041000010B5094C094A236882B00193516853687D
:104110005B1A9842FBD8019A23689A4201D102B0F7
:1041200010BDFEF725F900BF000B0020001000E0D5
:1041300000B50E4A0E4B116B186883B0019009B997
:10414000526B4AB1019A1B689A420CD1094803B0DC
:104150005DF804EBFFF774BF019A1B689A4202D125
:1041600003B05DF804FBFEF703F900BFF065002023
:10417000000B0020100801080000000000000000F3
:1041800030B50B4C0B4D236B2A6883B001920BB9F1
:10419000636B13B10848FFF753FF019A2B680121A5
:1041A0009A42616301D103B030BDFEF7E1F800BF70
:1041B000F0650020000B002040080108000000000E
:1041C00030B50C4C0C4D236B2A6883B0019253B967
:1041D000636B002B07DD019A2B6800219A42616313
:1041E00005D103B030BD0548FFF72AFFF3E7FEF71E
:1041F000BFF800BFF0650020000B00206008010838
:1042000030B50B4C0B4D236B2A6883B0002B019209
:1042100001DD636B13B10848FFF712FF019A2B68A9
:1042200001219A42616301D103B030BDFEF7A0F8CD
:10423000F0650020000B002050080108000000007D
:1042400030B50C4C0C4D236B2A6883B0002B0192C7
:104250000ADD636B002B07DD019A2B6800219A426F
:10426000616305D103B030BD0448FFF7E9FEF3E711
:10427000FEF77EF8F0650020000B002070080108B2
:1042800030B50F4D83B02B680193202383F3118841
:104290000C4C236B002B01DB626B1AB10A48FFF751
:1042A000CFFE236B01332363002383F31188019A2C
:1042B0002B689A4201D103B030BDFEF759F800BF18
:1042C000000B0020F065002020080108000000001D
:1042D00030B50F4D83B02B680193202383F31188F1
:1042E0000C4C236B002B01DD626B1AB10A48FFF7FF
:1042F000A7FE236B013B2363002383F31188019AFC
:104300002B689A4201D103B030BDFEF731F800BFEF
:10431000000B0020F06500203008010800000000BC
:1043200000B50F4A0F4B116B186883B0002901903C
:1043300009DB526B002A06DD019A1B689A420CD1F8
:1043400003B05DF804FB019A1B689A4205D1064848
:1043500003B05DF804EBFFF773BEFEF709F800BF8A
:10436000F0650020000B002080080108000000001C
:1043700000B50E4A0E4B116B186883B0019049B915
:10438000526B002A06DD019A1B689A420CD103B0D9
:104390005DF804FB019A1B689A4205D1054803B0F9
:1043A0005DF804EBFFF74CBEFDF7E2FFF06500207F
:1043B000000B002090080108000000000000000031
:1043C00010B5084A084B116882B040240191019948
:1043D000126818199142C3E90E4001D102B010BD14
:1043E000FDF7C6FF000B0020F06500200000000074
:1043F00010B51149114B0A6882B00192DA6B9C6AC0
:104400001460DA6B9C695460DA6B846A9460DA6BCE
:1044100090F820001073DA6B03F588601032824246
:1044200028BF03F14002DA63019A0B689A4201D176
:1044300002B010BDFDF79CFF000B0020F0650020CE
:1044400010B50B4A0B4B116882B04FF0FF3401914D
:1044500000219962019811685C6203F11C02884294
:10446000C3E9072201D102B010BDFDF781FF00BFF3
:10447000000B0020F065002000000000000000009C
:104480002DE9F041184E82B00546306801900C4687
:1044900017469846FFF744FF05B3FFB1F4B1C5E9ED
:1044A00003781248C3699A68944204D91B68A41A15
:1044B0009A68A242FAD32B605A686A6015605D6000
:1044C000AC609968019D3268091B95424FF0FF343A
:1044D0009960446206D102B0BDE8F0810448FFF75C
:1044E000AFFDDCE7FDF744FF000B0020F065002086
:1044F000A00801080000000000000000000000000B
:1045000030B5164D83B004462B680193FFF708FFC2
:10451000ECB1E368BBB12268A068936801990344D9
:104520009360D4E900231A6020682B680C4A656800
:10453000456099424FF000054FF0FF30E560506252
:1045400009D103B030BD0748FFF77AFDE3E705481E
:10455000FFF776FDDDE7FDF70BFF00BF000B002046
:10456000F0650020B0080108000000000000000015
:1045700000B50A4A0A4B11681B6083B00020019104
:10458000019912685B609142C3E90433986002D1DB
:1045900003B05DF804FBFDF7EBFE00BF000B00204D
:1045A000F065002000000000000000000000000096
:1045B00030B5164D83B004462B680193FFF7B0FE6B
:1045C000ECB194F82030B3B10F2B14D00022A168C5
:1045D0000F4B84F820201B689A688A42FBD2236024
:1045E0005A686260146001992A685C6091422046B2
:1045F00009D103B030BD0748FFF722FDE6E70548C3
:10460000FFF71EFDDDE7FDF7B3FE00BF000B002046
:10461000F0650020C0080108000000000000000054
:1046200070B5204D82B02B6801930446202383F39C
:10463000118800F005FEFFF7E3FD94F82030072B0A
:1046400011D8DFE803F0161010230A04100AA66A36
:10465000FFF766FEB3680133B360D4E900231A6044
:10466000D4E900325A604FF0FF33A3622046FFF7CF
:104670009FFFFFF7E5FD00F0FBFD002383F31188AA
:10468000019A2B689A420BD102B070BDA36A002236
:104690001A604FF0FF33A3622046FFF789FFE8E777
:1046A000FDF766FE000B0020000000000000000087
:1046B000F0B5194E194C336883B007460193FFF7E4
:1046C00057FEA569236885F82070142285F82320F9
:1046D0001A68226001215460284683F82010A361E3
:1046E000FFF786FE2946A06900F05AFDEFF3098323
:1046F000EA69643B9A4202D90948FFF7A1FC019A92
:1047000033689A4206D1A069294603B0BDE8F0405B
:10471000FBF7CEBDFDF72CFE000B0020F06500205E
:10472000D0080108000000000000000000000000A8
:10473000F0B5154C87B0236805930E460746FFF782
:1047400017FE731C18D0114D114AAB6931466846EB
:10475000FFF796FE3846FFF7ABFFFFF7E1FD039B3F
:1047600013B16846FFF7CCFE059A2368A9699A42FF
:10477000886A06D107B0F0BD3846FFF799FF034DB0
:10478000F2E7FDF7F5FD00BF000B0020F06500200B
:1047900021460008000000000000000000000000AA
:1047A000F0B51E4D1E4E2B6883B0044601930F4694
:1047B000FFF7DEFDB069A7628368A2689A421DD93F
:1047C000FFF7F6FE0123074684F82030B461FFF7B7
:1047D0000FFE3946204600F0E3FCEFF30983FA6947
:1047E000643B9A4214D8019A2B689A4214D13946F4
:1047F000204603B0BDE8F040FBF75ABD019A2B6894
:104800009A4209D1204603B0BDE8F040FFF7D0BE80
:104810000448FFF715FCE6E7FDF7AAFD000B0020B2
:10482000F0650020D0080108000000000000000032
:1048300010B50E490E4B8A69086892F823101C685F
:104840008068926882B0019449B9904234BF0020D8
:104850000120019A1B689A4206D102B010BD904215
:1048600094BF00200120F4E7FDF782FDF0650020F1
:10487000000B00200000000000000000000000000D
:1048800070B5184C184E2368A5691A6822605460E8
:10489000012283F8202082B01422316885F8232079
:1048A0002846A3610191FFF783FE2846FFF7A0FD8C
:1048B0002946A06900F074FCEFF30983EA69643BC0
:1048C0009A4202D90948FFF7BBFB019A33689A4222
:1048D00006D1A069294602B0BDE87040FBF7E8BCEC
:1048E000FDF746FDF0650020000B0020D008010810
:1048F00070B51C4D1C4E2A68AC6913682B600121F1
:1049000082B05D60002082F82010AA613268A16840
:1049100084F82000019200E01B689A688A42FBD864
:1049200023605A686260204614605C60FFF760FD97
:104930002146A86900F034FCEFF30983E269643B87
:104940009A4202D90948FFF77BFB019A33689A42E1
:1049500006D1A869214602B0BDE87040FBF7A8BCAB
:10496000FDF706FDF0650020000B0020D0080108CF
:1049700010B50F4C82B023680193FFF7F9FCFFF7E5
:10498000CFFC0C4B1A689B6992689B689A42019A0B
:10499000236803D89A4208D102B010BD9A4204D1CC
:1049A00002B0BDE81040FFF7A3BFFDF7E1FC00BF78
:1049B000000B0020F0650020000000000000000057
:1049C00000B50E4A0E4B9269196892F8232083B005
:1049D000019142B1019A1B689A420DD103B05DF872
:1049E00004EBFFF785BF019A1B689A4204D103B01C
:1049F0005DF804EBFFF744BFFDF7BAFCF06500205B
:104A0000000B00200000000000000000000000007B
:104A1000F0B51A4A1A4D02610446816083B014232E
:104A200050692E68616484F8233002270023012135
:104A3000278484F82210C4E90F3304F16801A361CC
:104A4000019604F12C07636204F1500604F130036F
:104A500060610461C4E90C33E1613046E76254618E
:104A600000F0A6FA304600F0C3FA019A2B689A4289
:104A700002D1204603B0F0BDFDF77AFCF0650020BE
:104A8000000B0020000000000000000000000000FB
:104A900010B5094B82B01C680194884203D200F81B
:104AA000012B8142FBD1019A1B689A4201D102B0CD
:104AB00010BDFDF75DFC00BF000B002000000000F2
:104AC0002DE9F043184E83B0346801940546DDF8B3
:104AD00028900C4617469846FFF722FC15B1B4F50E
:104AE000BC7F19D21148FFF7ABFAA4F16401294445
:104AF000E960C1F84080EB68019AC3F844903368DC
:104B0000E9680B4808669A420CD13946284603B03A
:104B1000BDE8F043FFF77CBF7F2FE3D8B8F1000F6B
:104B2000E3D1DFE7FDF724FC000B0020200901089A
:104B3000C9020008000000000000000000000000A2
:104B40002DE9F04FDFF8A48087B0D8F80040DDF8F9
:104B50004090059407468A46934600F1680604464D
:104B6000FF2504F8015BA642FBD107EB0A05A5422D
:104B700004D9552604F8016BA542FBD103932022EA
:104B800082F3118800F02CFBFFF7FAFA039BCDF8B3
:104B900000905A4651463846FFF792FF00210446DE
:104BA000FFF7FEFDFFF70CFB00F032FB0D4B1A6820
:104BB0009A4204D0996993688A689A420BD3002379
:104BC00083F31188059AD8F800309A42204606D11E
:104BD00007B0BDE8F08F0448FFF732FAEFE7FDF7C2
:104BE000C7FB00BFF0650020E0080108000B0020B3
:104BF00030B5184C83B0236801930546202383F316
:104C0000118800F0EDFAFFF7BBFA15B91248FFF76B
:104C100017FA29460820FFF78BFDFFF7D1FA00F0BD
:104C2000F7FA0E4B1A689A4204D0996993688A6819
:104C30009A4208D3002383F31188019A23689A4289
:104C400005D103B030BD0648FFF7FAF9F2E7FDF7EA
:104C50008FFB00BF000B0020F0080108F06500206A
:104C6000E008010800000000000000000000000053
:104C700070B5164B164E9C693268E36AA06282B02A
:104C800004F12C05AB42019207D01A68E262184683
:104C9000FFF78EFCE36AAB42F7D194F821309B0713
:104CA00005D1D4E904231A61D4E904325A610F20F2
:104CB000FFF7FEFC019A33689A4205D1054802B01D
:104CC000BDE87040FFF7BCB9FDF752FBF06500206E
:104CD000000B002030090108000000000000000067
:104CE00030B50C4C83B0236801930546202383F331
:104CF000118800F075FAFFF743FA019A23689A4287
:104D000005D1284603B0BDE83040FFF7B1BFFDF73D
:104D10002FFB00BF000B002000000000000000007F
:104D2000F0B50D4D0D4E03682A68B76983B004468F
:104D3000019213B10A48FFF783F927600320BC6290
:104D4000FFF7B6FC019A2B68B1699A42886A01D1D3
:104D500003B0F0BDFDF70CFB000B0020F065002058
:104D600040090108000000000000000000000000F1
:104D7000F0B5124D04682B6883B00193B4B194F878
:104D80002030032B06460F460CD100233360019AD6
:104D90002B68A7629A420FD1204603B0BDE8F040CD
:104DA000FFF706BC0648FFF74BF9EEE7019A2B68C0
:104DB0009A4201D103B0F0BDFDF7DAFA000B0020F2
:104DC0005009010800000000000000000000000081
:104DD000F0B5124D04682B6883B00193B4B194F818
:104DE0002030032B06460F460CD100233360019A76
:104DF0002B689A4210D13946204603B0BDE8F040F6
:104E0000FFF7CEBC0648FFF71BF9EEE7019A2B68C7
:104E10009A4201D103B0F0BDFDF7AAFA000B0020C1
:104E20006009010800000000000000000000000010
:104E300070B5164C82B02368019305460E462023B8
:104E400083F3118800F0CCF9FFF79AF93146284630
:104E5000FFF7BEFFFFF7B4F900F0DAF90C4B1A6860
:104E60009A4204D0996993688A689A4208D30023C9
:104E700083F31188019A23689A4205D102B070BD6C
:104E80000448FFF7DDF8F2E7FDF772FA000B0020A7
:104E9000F0650020E00801080000000000000000AC
:104EA00030B5104A83B01368019381B10E4B019D58
:104EB0009B69186044685C60236012684360954297
:104EC0000DD1042003B0BDE83040FFF731BC01999B
:104ED000136899424FF0FF3001D103B030BDFDF7A8
:104EE00047FA00BF000B0020F06500200000000022
:104EF00070B5124D04682B6882B0A042019315D0A2
:104F000023680360586094F82030042B0E4602D0CA
:104F10000B48FFF795F8019A2B68A6629A420BD1CD
:104F2000204602B0BDE87040FFF742BB019A2B68F3
:104F30009A4201D102B070BDFDF71AFA000B0020B1
:104F4000000901080000000000000000000000004F
:104F50002DE9F041DFF850800468D8F8003082B0C5
:104F6000A042019313D00F4F05460E4623682B60D5
:104F70005D6094F82030042B02D03846FFF760F8CB
:104F8000A6622046FFF714FB2C68A542EED1019AD9
:104F9000D8F800309A4202D102B0BDE8F081FDF7A6
:104FA000E7F900BF00090108000B00200000000025
:104FB00030B50B4B83B01A6801924FF0FF3202609C
:104FC00001991A680024002300259142C0E9044594
:104FD000C0E90133C36001D103B030BDFDF7C8F9AA
:104FE000000B002000000000000000000000000096
:104FF00000B5084B084A196883B001915168019ABD
:105000001B6881609A4202D103B05DF804FBFDF792
:10501000AFF900BF000B0020001000E0000000000E
:10502000F0B51449144B0A68846883B00192134A9E
:105030005B68D2F8A864C2681B1BD0E90445013242
:105040009B1BC26042688360E61845F100079342EB
:10505000C0E9046709D80268934238BF0360019A27
:105060000B689A4203D103B0F0BD4360F7E7FDF748
:105070007FF900BF000B0020001000E0F065002069
:1050800030B5114D114C2B6889B04FF0FF310793AB
:10509000002300226846C4F8A834CDE90133039305
:1050A0000023CDE904230091FFF7A2FF6846FFF734
:1050B000B7FF079A2B680299C4F8A8149A4201D145
:1050C00009B030BDFDF754F9000B0020F065002059
:1050D0002DE97048134E144B326883B001925B681F
:1050E0008B60D0E902411B1BD0E90445426814EBF8
:1050F000030B45F1000C01319342C0E90231C0E9D4
:1051000004BC0AD80268934238BF0360019A33682E
:105110009A4204D103B0BDE870884360F6E7FDF71A
:1051200027F900BF000B0020001000E00000000085
:1051300030B50D4D0D4C2B6883B004F5976001938D
:105140000023C4F8B034C4F8B434FFF731FF019A37
:105150002B689A4206D104F59A6003B0BDE830404E
:10516000FFF726BFFDF704F9000B0020F0650020D3
:1051700000B50949094A0B6883B001930198D2F838
:10518000B034096801338842C2F8B03402D103B0A8
:105190005DF804FBFDF7ECF8000B0020F065002043
:1051A00070B50D4C0D4A236882B00193019DD2F871
:1051B000B43424680133A542C2F8B43409D10E4690
:1051C00000F1500106F1500002B0BDE87040FFF759
:1051D0007FBFFDF7CDF800BF000B0020F065002079
:1051E00000B5084B83B01A680192019A1B689A4275
:1051F00005D1054803B05DF804EBFFF7F9BEFDF7F4
:10520000B7F800BF000B0020A86A002000000000D3
:1052100000B5084B83B01A680192019A1B689A4244
:1052200005D1054803B05DF804EBFFF7F9BEFDF7C3
:105230009FF800BF000B0020A86A002000000000BB
:1052400000B5084B83B01A680192019A1B689A4214
:1052500005D1054803B05DF804EBFFF7C9BEFDF7C3
:1052600087F800BF000B0020C06A0020000000008B
:1052700000B5084B83B01A680192019A1B689A42E4
:1052800005D1054803B05DF804EBFFF7C9BEFDF793
:105290006FF800BF000B0020C06A00200000000073
:1052A00070B50C4D82B02B6801930E46044650B188
:1052B000002908DB2460019A2B689A42C4E9014660
:1052C00005D102B070BD0448FEF7BAFEF2E7FDF763
:1052D0004FF800BF000B0020A009010800000000EB
:1052E000F0B51B4F83B004463B6801930E46FFF7B1
:1052F00017F80CB3002E1FDBA5682368002D22DBF6
:10530000A34203D01348FEF79BFEA568A6600135B3
:10531000002D0BDC6FF001066068436863601C6061
:10532000FFF746F90135012D8662F5D1019A3B68F8
:105330009A420BD103B0F0BD0648FEF781FEA56886
:105340002368002DDCDAA342E0D1DBE7FDF710F89B
:10535000000B0020B0090108000000000000000060
:1053600070B5174C82B02368019305460E46202382
:1053700083F31188FFF734FFFEF702FF314628461A
:10538000FFF7AEFFFFF7F4FAFEF71AFFFFF740FF53
:105390000C4B1A689A4204D0996993688A689A42B9
:1053A00008D3002383F31188019A23689A4205D118
:1053B00002B070BD0448FEF743FEF2E7FCF7D8FFE9
:1053C000000B0020F065002090090108000000009B
:1053D00070B51B4D82B004462B680193FEF7C8FFE1
:1053E00044B3A3682268002B10DBA24203D0154807
:1053F000FEF726FEA368013B002BA3600CDB002018
:10540000019A2B689A4219D102B070BDA242EED027
:10541000013B002BA360F2DA0B4EB3699C621C6067
:1054200062685A60052013606360FFF741F9B36951
:10543000986AE5E70348FEF703FED2E7FCF798FF1A
:10544000000B0020C0090108F065002000000000EA
:1054500030B5164C83B0236801930546202383F3AF
:105460001188FFF7BDFEFEF78BFE2846FFF7B0FF61
:105470000546FEF7A5FEFFF7CBFE0D4B1A689A42D4
:1054800004D0996993688A689A4209D3002383F308
:105490001188019A23689A42284605D103B030BD8D
:1054A0000448FEF7CDFDF1E7FCF762FF000B00209A
:1054B000F0650020900901080000000000000000D5
:1054C00030B51C4D83B004462B680193FEF728FFCE
:1054D0004CB3A3682268002B0FDBA24203D016480E
:1054E000FEF7AEFDA3680133002BA3600BDD019A2C
:1054F0002B689A421BD103B030BDA242EFD00133DA
:10550000002BA360F3DC20680199036823602A68FC
:105510005C6091424FF00003836208D103B0BDE8A4
:105520003040FFF745B80448FEF78AFDD1E7FCF7A5
:105530001FFF00BF000B0020D00901080000000081
:1055400030B50B4D83B02B680193044650B12460F5
:1055500001992A68646000239142A360236105D108
:1055600003B030BD0348FEF76BFDF0E7FCF700FF2A
:10557000000B0020F00901080000000000000000FE
:10558000F0B55D4E5D4B32689D6983B00446019273
:10559000FEF7EEFE002C00F08480A068236900284E
:1055A00043D0002B40F39780854276D0AA68836869
:1055B0009A4208D990F820308260062B40D0072B01
:1055C00073D0002B5DD02746234603E09968AA6874
:1055D000914233D31B689C42F8D12F607B686B608B
:1055E00006201D607D60AC62FFF762F8A368AB42E5
:1055F00002D04348FEF724FD2B6CA34202D0404862
:10560000FEF71EFD2369012B05D1019A33689A42EA
:105610006FD103B0F0BD019A33689A4269D138481E
:1056200003B0BDE8F040FEF70BBD002B58D10133AD
:10563000A56023612B6CE3602C64E6E71F46CCE792
:10564000D0E900231A60D0E900325A60876A3B46ED
:1056500003E099688268914247D31B689F42F8D162
:1056600007607B68436018607860836AAA689868FE
:1056700083689342A7D290F820308260062B9ED197
:10568000DEE7D0E90023012180F820101A60D0E97C
:1056900000325A60FEF78CFF95E7236901332361DE
:1056A000B3E71748FEF7CCFC77E7D0E900231A6090
:1056B000D0E900325A60876A3B4603E09968826805
:1056C000914214D31B689F42F8D107607B68436006
:1056D0001860786077E70A48FEF7B2FCA06863E7D5
:1056E0000748FEF7ADFC2369A1E71F46B8E71F4650
:1056F000EBE7FCF73DFE00BF000B0020F06500204B
:10570000000A010800000000000000000000000086
:1057100030B5154C83B0236801930546202383F3ED
:105720001188FFF75DFDFEF72BFD2846FFF728FFE8
:10573000FEF746FDFFF76CFD0C4B1A689A4204D049
:10574000996993688A689A4208D3002383F3118881
:10575000019A23689A4205D103B030BD0448FEF790
:105760006FFCF2E7FCF704FE000B0020F065002060
:10577000E009010800000000000000000000000037
:105780002DE9F043DFF800813C4FD8F80030BE69C6
:1057900083B005460193002864D0202383F3118849
:1057A000FFF71EFDFEF7ECFC336C002B5ED09B6810
:1057B000B34202D03248FEF743FC2B69002B49DD8F
:1057C000013B2B615BBB336CAB4202D02C48FEF734
:1057D00037FCEB683364FEF7CBFD2B689D423ED06F
:1057E000D6E910495CB1FEF7C3FD23689C4203D0A3
:1057F0009B68994538BF9946E468002CF3D1C6F8F8
:1058000008902B6801222A611A682A605560AB60F3
:105810001A6CEA6018461D640021FEF7C1FFFEF70E
:10582000CFFCFFF7F5FC3B68BB4204D0BA699B682C
:1058300092689A420AD3002383F31188019AD8F818
:1058400000309A4217D103B0BDE8F0830D48FEF74F
:10585000F7FBF0E70A48FEF7F3FB2B69B0E70023FC
:10586000AB60DCE70648FEF7EBFB96E70448FEF783
:10587000E7FB336C9BE7FCF77BFD00BFF065002086
:10588000100A0108E0090108000B002000000000D8
:1058900070B5184E82B00446336801930D46FEF78A
:1058A0003FFD0CB3E16B94F8203029430A2BE163F0
:1058B00016D00B2B05D0019A33689A4218D102B04A
:1058C00070BDA36A8B43F6D1019A336800219A42D6
:1058D000A1620DD1204602B0BDE87040FEF768BE5F
:1058E000A36A1942F0D1E6E70348FEF7A9FBD9E71E
:1058F000FCF73EFD000B0020400A010800000000FC
:10590000F0B5134F83B006463B6801930D46FEF792
:1059100007FDB6B13468A6420DD0E3682B43E360BF
:1059200015B12269134203D0D4E90101FFF7B0FF9A
:105930002468A642F1D1019A3B689A4205D103B08E
:10594000F0BD0448FEF77CFBE4E7FCF711FD00BF67
:10595000000B0020200A01080000000000000000E9
:1059600070B50C4CC16082B0266801960A44006094
:10597000019E02612268069D4060C0E905119642C1
:105980004FF00001C3618160056201D102B070BDBA
:10599000FCF7EEFC000B00200000000000000000FF
:1059A00070B5164D82B004462B6801930E46FEF783
:1059B000B7FCFEF7B5FCD4E905239A42A36816D0DC
:1059C0000133511CA36061611670D4E904329A421C
:1059D0000AD220460021FFF78BFA0020019A2B689B
:1059E0009A4209D102B070BDE3686361F1E7002B10
:1059F000E6D06FF00300F1E7FCF7BAFC000B0020E3
:105A0000F0B5234F83B03B68019304460E46202334
:105A100083F31188FFF7E4FBFEF7B2FBE36943B1C0
:105A20002046984705E031462046FFF739FA051E23
:105A300010DBFEF775FCA368002BF4D0A169206988
:105A40004A1C013B8242A360A26128BFE3680D7833
:105A500028BFA361FEF7B4FBFFF7DAFB0D4B1A6812
:105A60009A4204D0996993688A689A4209D30023BC
:105A700083F31188019A3B689A42284605D103B006
:105A8000F0BD0548FEF7DCFAF1E7FCF771FC00BF5A
:105A9000000B0020F0650020500A01080000000003
:105AA0002DE9F04FDFF8F490044685B0D9F80000F6
:105AB00003908A461D46D4F81C809346002A60D085
:105AC000202383F311880193FFF78AFBFEF758FB2D
:105AD0002F4E0027B8F1000F07D02046C04704E042
