:020000040800F2
:1000000000040020C10100086135000861350008C6
:10001000A13300086135000861350008613500082A
:10002000613500086135000861350008A1530008FA
:10003000613500086135000861350008319A000813
:1000400061350008F1780008817A0008D17A00084B
:1000500061350008613500083176000881760008B6
:10006000D17600082177000871770008F16B00084D
:10007000416C0008916C0008E16C0008316D0008CB
:10008000816D0008D16D0008A1740008717C000822
:10009000E17C0008917D0008417E0008C1770008DE
:1000A0006135000861350008A19700086135000836
:1000B000B1980008F198000831990008418A0008B9
:1000C000818B000861350008613500086135000842
:1000D000613500086135000861350008F19A0008B3
:1000E00051780008417900089179000861350008CD
:1000F000613500086135000861350008216E00088F
:1001000061350008D17F0008719900086135000849
:100110006135000861350008619700086135000805
:10012000716E0008C16E0008116F0008616F000851
:10013000B16F000861350008E179000861350008F9
:10014000613500086135000861350008F19100084B
:100150000170000851700008A170000861350008A6
:100160006135000861350008613500086135000817
:10017000317A00086135000811280008613500084F
:1001800061350008613500086135000861350008F7
:1001900061350008613500086135000861350008E7
:1001A00061350008613500086135000861350008D7
:1001B00061350008613500086135000861350008C7
:1001C00072B62E4880F3098840F20000CCF200009D
:1001D0004EF63471CEF20001086040F20000C0F229
:1001E000F0004EF68851CEF2000108604FF000009A
:1001F000E1EE100A4EF63C71CEF2000108600620D6
:1002000080F31488BFF36F8F09F062FD4FF0553013
:100210001B491C4A91423CBF41F8040BFAE71A49BA
:10022000164A91423CBF41F8040BFAE71749184AB5
:10023000184B9A423EBF51F8040B42F8040BF8E702
:1002400000201549154A91423CBF41F8040BFAE7DA
:1002500003F06EF9124C134DAC4203DA54F8041B50
:100260008847F9E701F05CFF0F4C104DAC4203DA10
:1002700054F8041B8847F9E703F06AB90008002026
:100280000000002000040020000400206820010875
:10029000000800205C15002060150020406E002042
:1002A000C0010008C0010008C0010008C00100082A
:1002B0002DE9F04F2DED108AC1F80CD0D0F80CD0FC
:1002C000BDEC108ABDE8F08F03F08AFA04F048FA1A
:1002D000002383F311882846A047002004F010F87B
:1002E00004F026FA03F05CFA03F07AFE03F078FAE1
:1002F00004F036FA00DFFEE7000000000000000016
:100300002DE9F843544B80461A68544882422DED3B
:10031000028B1BD052490B68DA0405D40A6842F4F8
:1003200080530B60012000E000204E4A4E491160CE
:1003300013684A4A934208D147490B6030B1484894
:10034000036823F48052026000E0FEE798ED018A22
:10035000B5EE408A0021F1EE10FAC8F81C10C8F87A
:100360001810C8F81410C8F81010C8F82810C8F8E9
:100370002410C8F8201029D0DFED3C7A28EE270A97
:1003800010EE100A01F038F8044618EE100A0D4677
:1003900001F032F80646B8F800000F4601F01AF8EE
:1003A0002BA3D3E9002301F0ADF902460B463046FA
:1003B000394600F0C3FE02460B462046294601F0AE
:1003C000A1F901F03DFBA8F82C0001E0A8F82C10E1
:1003D00098ED028AB5EE408AF1EE10FA26D0B8F810
:1003E00000904FEA092000F0F5FF044618EE100ACD
:1003F0000D4601F001F816A3D3E9002301F058F8E7
:10040000064648460F4600F0E5FF02460B463046DA
:10041000394600F093FE02460B462046294601F07D
:1004200071F901F00DFBA8F82E0002E00020A8F8F9
:100430002E00B8F800204FF47A73B2FBF3F1A8F85D
:100440003010BDEC028BBDE8F88300BFAFF3008035
:100450001F85EB51B81E194060150020CDB5E8B5D9
:100460003038024000300240C2A507F4000080434B
:100470002DE9F04F9BB083461992A94A1891A948DB
:100480001168814200D0FEE79E6AB3F80CC09F69F4
:100490009A8DD98D039603261C6A5D6A059706928C
:1004A00006FB0CF74FEA8C0206264FEA4C000B9134
:1004B0000E97052106FB0CF70F9207220294049574
:1004C0000D90119701FB0CF04FEACC0602FB0CF1EA
:1004D00000271D695C69D3F81CA010901291179633
:1004E0000197188EDDF80490814580F20A818E48CC
:1004F0009BF800601BF80C7010F80690C25DA144D8
:100500008419511994F8008194F8002201EB4808ED
:10051000CDF81C80DDF834801BF80860855DC719B4
:10052000A9180E9A97F800411BF8022097F800725C
:1005300001EB4405815C0895CC1981190F9E91F857
:10054000008191F8007204EB48081BF80640CDF8D2
:1005500024808218055D92F8006192F80022E91962
:1005600001EB460505EB0807DDF8408015971BF801
:1005700008700A950419C15D94F8005194F800427E
:10058000DDF81C808E1806EB4501119D089A1BF8BA
:1005900005508E18C719425D1696161997F8002156
:1005A00006EB42029044CDF85080129C97F80072FE
:1005B0001BF804604519845DE41995F8007195F8FD
:1005C0000052801904EB47044FF01C0804EB0907A4
:1005D00090F80061139708FB09AADDF81C800C94C1
:1005E0000AEB0209152705EB460490F8005207FBB9
:1005F0000890099FDDF820900A2606FB070A0F27BE
:1006000007FB09A04FF00308DDF8289008FB010064
:100610004FF0060A0AFB0900009015984FF03009C8
:1006200009FB00FADDF858902E2000FB09A0824655
:100630000598824413984FF0240909FB00AA1498E6
:100640004FF02A0909FB00AA0898DDF8249008FB5E
:1006500000F8062000FB0988DDF81C9008EB090073
:1006600007FB01010A9F0C98DDF8009006FB0718B4
:100670001C2606FB008115270B9807FB021205922A
:10068000A9F5003868B1029E049FCDF8108006EBF2
:100690000801CE1B46434FF4807296FBF2F00290A5
:1006A0008046069961B1039E08FB01F8C1F5807789
:1006B00006FB07894FF4807299FBF2F003908046A5
:1006C000199901FB08F7002F02DD0837381103E004
:1006D000083F102697FBF6F047F6BC72019E1349BF
:1006E000189FDDF85C809042A8BF1046DA897243FB
:1006F0008842A8BF0146013627F81210C34401966C
:10070000EFE61D615C61029D059C1D629C61039D7D
:10071000049CC3F81CA05C629D621BB0BDE8F08F16
:1007200060150020CDB5E8B5000800204480FFFF2B
:100730002DE9F04FA1B0C74C1F92C74A1E91116816
:10074000A14200D0FEE79F6A9A69998DDC8D0497DB
:100750009F89069207910F940322052106241D6AA2
:100760005E6A03957A4379437C43129214911594FF
:10077000072209210A24794305964FEA47084FEAE0
:1007800087097A434FEAC70A7C431E695D69D3F83B
:100790001CB01891CDF84480CDF84C901692CDF84D
:1007A0005CA01D94002102911A8E0299914280F260
:1007B0005981AA4A047812F80490A944C55D111918
:1007C00012F8058091F8004191F800A2464406EB2A
:1007D0004406119C0896045D5519165D95F800C1F4
:1007E00095F8005206EB0A0808EB4C0ADDF8488041
:1007F000CDF824A010F80810DDF84C80565C1419D0
:1008000006EB050A10F8085094F800C1565D94F8FC
:10081000004251180AEB4C0C361991F800A1149CB7
:1008200091F80012CDF828C006EB4A08065DCDF815
:100830002C80945DDDF85480551904EB010A95F87D
:10084000004195F800520AEB44010C9110F8081091
:100850009619545C641996F8005104EB45040D9404
:10086000169D96F80062DDF824A0DDF85C80A444B3
:10087000445DCDF86CC0155D5118AD1991F800615B
:1008800091F8001205EB460505EB0A060E9510F8E7
:1008900008501C961419565DDDF860A0711894F884
:1008A000006194F8004201EB460C08990CEB01063C
:1008B0001A9610F80A605519915D9219091995F860
:1008C000004192F8006195F8005201EB44012D249B
:1008D00001EB090804FB09BB10910899CDF864806D
:1008E0000BEB0C09DDF8288005EB460592F8006259
:1008F000242202FB019A152404FB08A9DDF824A098
:100900000C994FF01C0B0BFB0A994FF00A08DDF80D
:100910002CA008FB01994FF00F0B0E990BFB0A99C5
:100920004FF00308DDF834A008FB01994FF0060BE7
:100930000BFB0A99CDF80490DDF82CA00C994FF030
:100940004B0B51440BFB01F91B994FF0490A0AFB71
:10095000019B0699DDF868900BEB010A4FF03F0B05
:100960001C990BFB09AA4FF0450BDDF864900BFBBB
:1009700001AA4FF0370B0BFB09ABDDF824A00A9955
:1009800008FB0AF84FF00609DDF820A009FB0188F2
:100990000C99D0444FF00F09DDF82CA009FB018819
:1009A0000A21DDF8389001FB0A884FF01C0A0D99E6
:1009B0000AFB098804FB018A109C0F994FF02D094E
:1009C00009FB04A8DDF804A002FB0C820692AAF53C
:1009D0007A3971B1039C0599CDF8149004EB0902A2
:1009E000541A0F9A4FF48071544394FBF1F403941A
:1009F000A146079961B1049CC1F5807209FB01FC15
:100A000004FB02C94FF4807199FBF1F20492914604
:100A10001F9C04FB09F1002902DD10314C1103E099
:100A20001039202291FBF2F447F6BC718C42A8BF2A
:100A30000C46DA890299DDF874804A4308498C42F1
:100A4000A8BF21461E9C24F81210029A4044511C53
:100A5000A9E600BFCDB5E8B560150020000800206C
:100A60004480FFFF05981E615D61039E069D049C06
:100A700058629D61C3F81CB01E629C62104621B092
:100A8000BDE8F08F2DE9F04F95B0994C1392994A3B
:100A900012911168A14200D0FEE75E6A1D6A9F6A4A
:100AA0009A69998DB3F82E800C964FF00009D3F80F
:100AB00010C05E69D3F81CB00195029709920A91A3
:100AC000CDF83480CDF80C908B4904780D190C5D6D
:100AD00095F8007295F8008106EB070A067ACDF8C2
:100AE0002CA08F198E5D97F8002202EB4805AC44CC
:100AF000057C97F80081CDF810C04A194D5D92F839
:100B0000009292F8002109EB040A0AEB480C90F8D5
:100B100018A090F82090CDF814C001EB0A0494F8C6
:100B2000007294F80041BF1907EB420801EB09027B
:100B3000CDF8188092F8006292F80021771907EB3F
:100B4000440606EB080C90F8288011F80A70079606
:100B500001EB0805CDF840C095F8004295F800512A
:100B6000E619059F06EB4204E619119690F83060ED
:100B700008948C1911F8097094F80022D219049F76
:100B800002EB4502BD180F9590F8385011F8089007
:100B900094F80041DDF82C808E5D4F1997F800A283
:100BA00097F800710AEB090C0CEB4404DDF818A06F
:100BB00011F805C000941C2505FB082944440A21AE
:100BC000DDF8148001FB0A9906EB4706DDF820A04A
:100BD0000F2707FB0899032101FB0A99DDF81CA0E8
:100BE0004FF0060808FB0A99DDF810A0152101FB5B
:100BF0000A99CB44DDF84490CDF82CB04FF02E0A82
:100C00000AFB09FADDF840904FF0300B0BFB09AA04
:100C10004FF0240B0BFB04A90F9C4FF02A0A0AFB90
:100C2000049B099CDDF81890DDF810A0A344059CF6
:100C300008FB09A8DDF820A04FF0030909FB048890
:100C4000079C07FB0A890A2707FB0498DDF8009038
:100C5000DDF82CA00C9F05FB098501FB02520199D0
:100C60000992AAF500328C180D99DDF82880E51B51
:100C70004D434FF4807195FBF1F40194019F44467C
:100C80007C43029FC8EB010507FB054595FBF1F18D
:100C90000291139C6143002902DD0831091103E030
:100CA0000839102791FBF7F147F6BC75134C129FDA
:100CB0000C92A942A8BF2946039DA142B8BF214674
:100CC00079530C354030C02D03957FF4FDAE099863
:100CD000019C029D9861C3F810C05E61C3F81CB00E
:100CE0001C625A629D62102015B0BDE8F08F00BFF3
:100CF000CDB5E8B560150020000800204480FFFF56
:100D00002DE9F04FA1B084461F92BE4A1E91BE4805
:100D10001168814200D0FEE79E6A9F6905969E8910
:100D2000D98D01967000079703277E431190019893
:100D30009A8D0F9112960521019E08924843B200A8
:100D40001490019E01980199139206277E43072271
:100D5000C700514315961797019E019F1C6A5D6A53
:100D6000169109220A2156434F434FF0000804947C
:100D700006955C691D69D3F81CB018961D97CDF8CF
:100D80000C80188EDDF80C90814580F25A819F49C5
:100D90009CF80000DDF804900F181CF8096097F823
:100DA00000A297F80021085CA2448C198E5D94F88B
:100DB000008294F80041454405EB4207119D0997D4
:100DC0001CF805504A194D5D92F8007292F80081A6
:100DD0003F18129807EB44091CF80040CDF8289002
:100DE00008190C5D90F8007290F80001BF1907EB2C
:100DF0004809DDF84C80CDF82C901CF8089001EBE8
:100E00000902CDF8089092F8006292F80021771953
:100E1000149E1CF80690159E07EB400801EB090094
:100E2000CDF8308090F8005290F800012F1907EBB0
:100E300042081CF80670029DCDF83480CA194E5D38
:100E400092F80042A41904EB40050295DDF82C80CD
:100E5000169E92F80021CF5DA844CDF86C801CF856
:100E6000068011F80950DDF8609001EB080011F8D8
:100E7000088090F8004290F8000166190A9D06EB80
:100E80004204179A0E9466191C961CF802608C197D
:100E90008E5D94F8002294F80041D519099F05EB66
:100EA0004002D5191A951CF809504F194D5D97F855
:100EB000000297F80071404400EB44002D2100EB44
:100EC0000A0401FB0ABB1090099819940BEB020A63
:100ED00006EB470424210B9F01FB00A94FF01508E6
:100EE000DDF828A00D9808FB07964FF01C0B0BFBB4
:100EF0000A69DDF830800A2606FB009A0F27DDF824
:100F0000389007FB08AB4FF0030808FB09BADDF87F
:100F100008B0062000FB0BA9CDF80090DDF834A046
:100F2000DDF830B04FF04B090AEB0B0009FB00FA7B
:100F30001B984FF0490B0BFB00A9079809EB000A1F
:100F4000DDF868901C984FF03F0B0BFB09AA4FF09F
:100F5000450BDDF864900BFB00AA4FF0370B0BFB41
:100F600009ABDDF828A00B9808FB0AF84FF006093A
:100F7000DDF824A009FB00880D9808EB0A0907FB9F
:100F800000980C9FDDF83890029806FB07864FF01A
:100F90001C0A0AFB0968152707FB008610980F9F9B
:100FA0004FF02D0909FB006A01FB02A2DDF800A049
:100FB0000792AAF57A386FB10499069ECDF8188089
:100FC00001EB0800811B79434FF4807291FBF2F72B
:100FD0000497B846089860B1059908FB00F8C0F579
:100FE000807601FB06894FF4807299FBF2F7059732
:100FF000B8461F9800FB08F6002E09DD1036771161
:101000000AE000BF60150020CDB5E8B5000800205B
:10101000103E202196FBF1F7039ED8891049DDF898
:10102000748047F6BC729742A8BF17468F42A8BF8C
:10103000394670431E9F721C27F81010C444039257
:101040009FE65C61079C049A9C61059E069C1D615D
:10105000C3F81CB01A625C629E6221B0BDE8F08FDA
:101060004480FFFFAFF3008000000000000000009C
:101070004B1C012B98BF70472DE9F003911C9B0876
:10108000B1F80480B1F802900A8831F802CC8044AB
:10109000814402448444D9F80070D8F8006015688F
:1010A000DCF80040C9F80060C8F80070CCF80050C7
:1010B0001460D9F80470D8F804605568DCF804406E
:1010C000C9F80460C8F80470CCF8045054600831C2
:1010D000013BD5D1BDE8F00370474B1C012B98BFF5
:1010E00070472DE9F003911C9B08B1F80480B1F81A
:1010F00002900A8831F802CC00EB580800EB59093D
:1011000000EB520200EB5C0CD9F80070D8F80060DC
:101110001568DCF80040C9F80060C8F80070CCF829
:10112000005014600831013BDFD1BDE8F003704787
:1011300081F0004102E000BF83F0004330B54FEA88
:1011400041044FEA430594EA050F08BF90EA020FF5
:101150001FBF54EA000C55EA020C7FEA645C7FEA88
:10116000655C00F0E2804FEA5454D4EB5555B8BFAB
:101170006D420CDD2C4480EA020281EA030382EA1C
:10118000000083EA010180EA020281EA0303362DAE
:1011900088BF30BD11F0004F4FEA01314FF4801C81
:1011A0004CEA113102D0404261EB410113F0004F93
:1011B0004FEA03334CEA133302D0524263EB43034A
:1011C00094EA050F00F0A780A4F10104D5F1200EE8
:1011D0000DDB02FA0EFC22FA05F2801841F1000143
:1011E00003FA0EF2801843FA05F359410EE0A5F117
:1011F00020050EF1200E012A03FA0EFC28BF4CF048
:10120000020C43FA05F3C01851EBE37101F00045FD
:1012100007D54FF0000EDCF1000C7EEB00006EEB0A
:101220000101B1F5801F1BD3B1F5001F0CD3490894
:101230005FEA30004FEA3C0C04F101044FEA4452EB
:1012400012F5800F80F09A80BCF1004F08BF5FEA72
:10125000500C50F1000041EB045141EA050130BD52
:101260005FEA4C0C404141EB010111F4801FA4F1F5
:101270000104E9D191F0000F04BF01460020B1FA4A
:1012800081F308BF2033A3F10B03B3F120020CDA82
:101290000C3208DD02F1140CC2F10C0201FA0CF060
:1012A00021FA02F10CE002F11402D8BFC2F1200CC5
:1012B00001FA02F120FA0CFCDCBF41EA0C0190407B
:1012C000E41AA2BF01EB0451294330BD6FEA0404C4
:1012D0001F3C1CDA0C340EDC04F11404C4F12002AF
:1012E00020FA04F001FA02F340EA030021FA04F3C1
:1012F00045EA030130BDC4F10C04C4F1200220FA18
:1013000002F001FA04F340EA0300294630BD21FA55
:1013100004F0294630BD94F0000F83F4801306BF1B
:1013200081F480110134013D4EE77FEA645C18BF0F
:101330007FEA655C29D094EA050F08BF90EA020FA6
:1013400005D054EA000C04BF1946104630BD91EA9E
:10135000030F1EBF0021002030BD5FEA545C05D1A1
:101360004000494128BF41F0004130BD14F58004E0
:101370003CBF01F5801130BD01F0004545F0FE4154
:1013800041F470014FF0000030BD7FEA645C1ABF89
:10139000194610467FEA655C1CBF0B46024650EAC0
:1013A000013406BF52EA033591EA030F41F40021EC
:1013B00030BD00BF90F0000F04BF0021704730B572
:1013C0004FF4806404F132044FF000054FF0000147
:1013D00050E700BF90F0000F04BF0021704730B508
:1013E0004FF4806404F1320410F0004548BF4042DD
:1013F0004FF000013EE700BF42004FEAE2014FEA32
:1014000031014FEA02701FBF12F07F4393F07F4F0C
:1014100081F06051704732F07F4208BF704793F00F
:101420007F4F04BF41F40021704730B54FF4607422
:1014300001F0004521F000411CE700BF50EA010225
:1014400008BF704730B54FF000050AE050EA0102CE
:1014500008BF704730B511F0004502D5404261EB3E
:1014600041014FF4806404F132045FEA915C3FF47F
:10147000D8AE4FF003025FEADC0C18BF03325FEA1C
:10148000DC0C18BF033202EBDC02C2F1200300FACD
:1014900003FC20FA02F001FA03FE40EA0E0021FAF2
:1014A00002F11444BDE600BF00000000000000008F
:1014B00070B54FF0FF0C4CF4E06C1CEA11541DBFEA
:1014C0001CEA135594EA0C0F95EA0C0F00F0DEF8B5
:1014D0002C4481EA030621EA4C5123EA4C5350EA9A
:1014E000013518BF52EA033541F4801143F48013EB
:1014F00038D0A0FB02CE4FF00005E1FB02E506F07C
:101500000042E0FB03E54FF00006E1FB03569CF0D0
:10151000000F18BF4EF0010EA4F1FF04B6F5007FD6
:1015200064F5407404D25FEA4E0E6D4146EB060648
:1015300042EAC62141EA55514FEAC52040EA5E50D1
:101540004FEACE2EB4F1FD0C88BFBCF5E06F1ED87B
:10155000BEF1004F08BF5FEA500E50F1000041EBB2
:10156000045170BD06F0004646EA010140EA02005F
:1015700081EA0301B4EB5C04C2BFD4EB0C0541EA81
:10158000045170BD41F480114FF0000E013C00F396
:10159000AB8014F1360FDEBF002001F0004170BDBA
:1015A000C4F10004203C35DA0C341BDC04F11404D3
:1015B000C4F1200500FA05F320FA04F001FA05F25F
:1015C00040EA020001F0004221F0004110EBD3702C
:1015D00021FA04F642EB06015EEA430E08BF20EA58
:1015E000D37070BDC4F10C04C4F1200500FA04F3FB
:1015F00020FA05F001FA04F240EA020001F000418D
:1016000010EBD37041F100015EEA430E08BF20EAFF
:10161000D37070BDC4F1200500FA05F24EEA020E47
:1016200020FA04F301FA05F243EA020321FA04F076
:1016300001F0004121FA04F220EA020000EBD3702D
:101640005EEA430E08BF20EAD37070BD94F0000F2D
:101650000FD101F00046400041EB010111F4801F61
:1016600008BF013CF7D041EA060195F0000F18BF12
:10167000704703F00046520043EB030313F4801F4E
:1016800008BF013DF7D043EA0603704794EA0C0F08
:101690000CEA135518BF95EA0C0F0CD050EA41061E
:1016A00018BF52EA4306D1D181EA030101F000419B
:1016B0004FF0000070BD50EA410606BF10461946C3
:1016C00052EA430619D094EA0C0F02D150EA0136CF
:1016D00013D195EA0C0F05D152EA03361CBF104610
:1016E00019460AD181EA030101F0004141F0FE41AF
:1016F00041F470014FF0000070BD41F0FE4141F433
:10170000780170BD70B54FF0FF0C4CF4E06C1CEA32
:1017100011541DBF1CEA135594EA0C0F95EA0C0FE7
:1017200000F0A7F8A4EB050481EA030E52EA0335A2
:101730004FEA013100F088804FEA03334FF08055C3
:1017400045EA131343EA12634FEA022245EA1115F0
:1017500045EA10654FEA00260EF000419D4208BFA1
:10176000964244F1FD0404F5407402D25B084FEA4E
:101770003202B61A65EB03055B084FEA32024FF4FA
:1017800080104FF4002CB6EB020E75EB030E22BF57
:10179000B61A754640EA0C005B084FEA3202B6EB17
:1017A000020E75EB030E22BFB61A754640EA5C00C6
:1017B0005B084FEA3202B6EB020E75EB030E22BF56
:1017C000B61A754640EA9C005B084FEA3202B6EB57
:1017D000020E75EB030E22BFB61A754640EADC0016
:1017E00055EA060E18D04FEA051545EA16754FEA78
:1017F00006164FEAC30343EA52734FEAC2025FEA96
:101800001C1CC0D111F4801F0BD141EA00014FF024
:1018100000004FF0004CB6E711F4801F04BF0143F5
:101820000020B4F1FD0C88BFBCF5E06F3FF6AFAE11
:10183000B5EB030C04BFB6EB020C5FEA500C50F1A1
:10184000000041EB045170BD0EF0004E4EEA113124
:1018500014EB5C04C2BFD4EB0C0541EA045170BD2B
:1018600041F480114FF0000E013C90E645EA060E6F
:101870008DE60CEA135594EA0C0F08BF95EA0C0F9D
:101880003FF43BAF94EA0C0F0AD150EA01347FF4E5
:1018900034AF95EA0C0F7FF425AF104619462CE7BC
:1018A00095EA0C0F06D152EA03353FF4FDAE10461F
:1018B000194622E750EA410618BF52EA43067FF470
:1018C000C5AE50EA41047FF40DAF52EA43057FF400
:1018D000EBAE12E700000000000000000000000076
:1018E0004FF0FF3C06E000BF4FF0010C02E000BFEC
:1018F0004FF0010C4DF804CD4FEA410C7FEA6C5CCF
:101900004FEA430C18BF7FEA6C5C1BD001B050EA71
:10191000410C0CBF52EA430C91EA030F02BF90EA5C
:10192000020F0020704710F1000F91EA030F58BF1B
:10193000994208BF90422CBFD8176FEAE37040F07D
:10194000010070474FEA410C7FEA6C5C02D150EA1B
:10195000013C07D14FEA430C7FEA6C5CD6D152EAD6
:10196000033CD3D05DF8040B704700BF844610469B
:1019700062468C461946634600E000BF01B5FFF79A
:10198000B7FF002848BF10F1000F01BD4DF808ED6A
:10199000FFF7F4FF0CBF012000205DF808FB00BF3B
:1019A0004DF808EDFFF7EAFF34BF012000205DF895
:1019B00008FB00BF4DF808EDFFF7E0FF94BF0120E2
:1019C00000205DF808FB00BF4DF808EDFFF7CEFFE3
:1019D00094BF012000205DF808FB00BF4DF808ED22
:1019E000FFF7C4FF34BF012000205DF808FB00BFF3
:1019F0004FEA410212F5001215D211D56FF4787337
:101A0000B3EB625212D94FEAC12343F0004343EAD9
:101A1000505311F0004F23FA02F018BF40427047B4
:101A20004FF00000704750EA013005D111F000403E
:101A300008BF6FF0004070474FF00000704700BFD4
:101A40004A0011D212F5001211D20DD56FF478733D
:101A5000B3EB62520ED44FEAC12343F0004343EA92
:101A6000505323FA02F070474FF00000704750EADD
:101A7000013002D14FF0FF3070474FF00000704747
:101A80004FEA4102B2F1E04324BFB3F5001CDCF1A0
:101A9000FE5C0DD901F0004C4FEAC0024CEA5070D8
:101AA000B2F1004F40EB830008BF20F00100704707
:101AB00011F0804F21D113F13872BCBF01F000400A
:101AC000704741F480114FEA5252C2F11802C2F13C
:101AD000200C10FA0CF320FA02F018BF40F00100BD
:101AE0004FEAC1234FEAD32303FA0CFC40EA0C006F
:101AF00023FA02F34FEA4303CCE77FEA625307D1AC
:101B000050EA01331EBF4FF0FE4040F440007047E2
:101B100001F0004040F0FE4040F40000704700BF7C
:101B200053B94AB9002908BF00281CBF4FF0FF3144
:101B30004FF0FF3000F074B9ADF1080C6DE904CE40
:101B400000F006F8DDF804E0DDE9022304B0704798
:101B50002DE9F047089E04468846002B4BD18A4267
:101B6000154667D9B2FA82F24AB1C2F1200701FAEA
:101B700002F320FA07F7954047EA030894404FEA3A
:101B8000154E230CB8FBFEF71FFA85FC0EFB1788D9
:101B900043EA084307FB0CF1994209D9EB1807F116
:101BA000FF3080F01B81994240F21881023F2B44A4
:101BB0005B1AA4B2B3FBFEF00EFB103344EA0344FD
:101BC00000FB0CFCA44509D92C1900F1FF3380F06F
:101BD0000781A44540F2048102382C4440EA0740C2
:101BE000A4EB0C0400271EB1D4400023C6E9004337
:101BF0003946BDE8F0878B4209D9002E00F0EB8012
:101C00000027C6E9000138463946BDE8F087B3FA37
:101C100083F7002F47D18B4202D3824200F2FA8031
:101C2000841A61EB030301209846002EE0D0C6E938
:101C30000048DDE702B9FFDEB2FA82F2002A40F086
:101C40008F80491B4FEA154E1FFA85F80127B1FB1B
:101C5000FEFC230C0EFB1C1143EA014308FB0CF1B4
:101C6000994207D9EB180CF1FF3002D2994200F2E9
:101C7000CD808446591AA3B2B1FBFEF00EFB1014BE
:101C800043EA044408FB00F8A04507D92C1900F1E9
:101C9000FF3302D2A04500F2B6801846A4EB080438
:101CA00040EA0C409FE7C7F1200CBB4022FA0CFE33
:101CB0004EEA030E01FA07F420FA0CF521FA0CF3B0
:101CC0004FEA1E482543B3FBF8F92C0C08FB1933E7
:101CD0001FFA8EFA44EA034309FB0AF49C4202FA13
:101CE00007F200FA07F10BD91EEB030309F1FF30ED
:101CF00080F087809C4240F28480A9F102097344FD
:101D00001B1BADB2B3FBF8F008FB103345EA0344EC
:101D100000FB0AFAA24508D91EEB040400F1FF33C8
:101D20006BD2A24569D90238744440EA0940A0FB4D
:101D30000289A4EB0A044C45C2464B4654D351D009
:101D4000002E69D0B1EB0A0564EB030404FA0CFC25
:101D5000FD40FC404CEA0505C6E90054002747E772
:101D6000C2F1200320FA03F7954001FA02F021FAAC
:101D700003F34FEA154E3843010CB3FBFEF71FFA8D
:101D800085F80EFB173341EA034107FB08F38B424A
:101D900004FA02F407D9691807F1FF3C2FD28B42ED
:101DA0002DD9023F2944CB1A81B2B3FBFEF00EFBC2
:101DB000103341EA034100FB08F38B4207D969184D
:101DC00000F1FF3C17D28B4215D902382944C91AB9
:101DD00040EA07473BE73746304609E70746E7E66C
:101DE0001846FBE64145ABD2B8EB020A69EB0E029E
:101DF00001381346A4E76046E9E7184695E76746C9
:101E0000D1E781467CE702382C4447E7ACF1020C6D
:101E10002B442FE7384608E73746E9E60000000084
:101E2000704700BF0000000000000000000000003C
:101E3000844641EA000313F003036DD1403A41D3D5
:101E400051F8043B40F8043B51F8043B40F8043B94
:101E500051F8043B40F8043B51F8043B40F8043B84
:101E600051F8043B40F8043B51F8043B40F8043B74
:101E700051F8043B40F8043B51F8043B40F8043B64
:101E800051F8043B40F8043B51F8043B40F8043B54
:101E900051F8043B40F8043B51F8043B40F8043B44
:101EA00051F8043B40F8043B51F8043B40F8043B34
:101EB00051F8043B40F8043B51F8043B40F8043B24
:101EC000403ABDD2303211D351F8043B40F8043BC4
:101ED00051F8043B40F8043B51F8043B40F8043B04
:101EE00051F8043B40F8043B103AEDD20C3205D3D4
:101EF00051F8043B40F8043B043AF9D2043208D0CC
:101F0000D2071CBF11F8013B00F8013B01D30B883D
:101F100003806046704700BF082A13D38B078DD01B
:101F200010F003038AD0C3F10403D21ADB071CBFED
:101F300011F8013B00F8013B80D331F8023B20F857
:101F4000023B7BE7043AD9D3013A11F8013B00F890
:101F5000013BF9D20B7803704B7843708B78837018
:101F60006046704700000000000000000000000014
:101F700090F800F06DE9024520F007016FF0000CC9
:101F800010F0070491F820F040F049804FF0000471
:101F90006FF00700D1E9002391F840F000F108004C
:101FA00082FA4CF2A4FA8CF283FA4CF3A2FA8CF384
:101FB0004BBBD1E9022382FA4CF200F10800A4FAEB
:101FC0008CF283FA4CF3A2FA8CF3E3B9D1E904233F
:101FD00082FA4CF200F10800A4FA8CF283FA4CF376
:101FE000A2FA8CF37BB9D1E9062301F1200182FA30
:101FF0004CF200F10800A4FA8CF283FA4CF3A2FA36
:102000008CF3002BC6D0002A04BF04301A4612BA43
:10201000B2FA82F2FDE8024500EBD2007047D1E946
:10202000002304F00305C4F100004FEAC50514F0D5
:10203000040F91F840F00CFA05F562EA05021CBFA6
:1020400063EA050362464FF00004A9E700000000C0
:1020500001F0FF01102A2BDB10F0070F08D010F859
:10206000013B013A8B422DD010F0070F42B3F6D15D
:10207000F0B441EA012141EA014122F007047FF076
:1020800000070023F0E80256083C85EA010586EACD
:10209000010685FA47F5A3FA87F586FA47F6A5FA09
:1020A00087F68EB9EED1F0BC01F0FF0102F0070215
:1020B00032B110F8013B013A83EA010313B1F8D1C0
:1020C0000020704701387047002D06BF35460338A1
:1020D000073815F0010F07D1013015F4807F02BFDA
:1020E000013015F4C03F0130F0BC0138704700BF2B
:1020F0004FEA410C7FEA6C5C02D150EA013C0AD104
:102100004FEA430C7FEA6C5C02D152EA033C02D1F5
:102110004FF0000070474FF00100704700000000D2
:1021200030B50E4B0E4D1B680E4C83B0019303F07F
:1021300097F901F02DFA01F0DBF8012000F030F8FA
:1021400000F07EF9204602F0B3FB2B78013B022B16
:10215000F6D9052000F08CF9F2E700BF000B002053
:1021600064450020040B0020000000000000000077
:1021700000B5084B83B01A680192019A1B689A4215
:1021800005D1054803B05DF804EB01F069BAFFF72B
:10219000EFFF00BF000B002090E6000800000000E9
:1021A00010B5124C82B023680193A0B101280CD164
:1021B00000F0DEFF019A23689A4208BF002012D186
:1021C00002B0BDE8104000F0F3BF019A23689A42C4
:1021D00009D102B010BD00F0CBFF019A23689A42EA
:1021E00008BF0120ECD0FFF7C3FF00BF000B0020A9
:1021F00070B5144E82B005463368019301F000F8C3
:10220000002D12DD01350124002000F0D1FF4FF434
:10221000967001F0FDFF0120044400F0C9FF4FF467
:10222000FA7001F0F5FFAC42EED1019A33689A42A0
:1022300005D1002002B0BDE8704000F0B9BFFFF743
:1022400097FF00BF000B002000000000000000000E
:1022500000B51D499FED1D7A0B6883B028300193AE
:102260004FF0FF320A23F0EC017AF4EEC77AF1EE78
:1022700010FAC8BF1AB203F10103C8BFB0EE677A03
:102280001A2BF0D192B2A2F10F03022B15D9A2F1B1
:102290001203022B0DD9163A022A0D4B94BF0322CA
:1022A00000221A70019A0B689A420AD103B05DF8B5
:1022B00004FB074B02221A70F4E7054B01221A7047
:1022C000F0E7FFF755FF00BF000B002000401C4661
:1022D0006445002000000000000000000000000035
:1022E000F0B54B4E4B4D336883B001932B880029DA
:1022F00000F08480B0F90620474C07EE902A5A1C63
:1023000004EB830792B202339BB2F8EEE77A04EB58
:1023100082024FF0000EB3F5006FC7ED007A2B80FC
:10232000C2F800E02BD20139C1F38D0100EBC101ED
:1023300000271AE0B0F90E2007EE902A5A1C92B23C
:1023400003F1020C04EB8307F8EEE77A04EB820258
:102350001FFA8CF3B3F5006FC7ED007A00F10800A7
:102360004FF00107C2F800E008D28842E2D1C7B9B5
:10237000019A33689A4248D103B0F0BD2B802649B8
:10238000264F4FF4806000F083F84FF480622449B8
:10239000214808F015F93C78082C04D801340023B2
:1023A0003C702B80E4E71E48FFF752FF1D4B1B7863
:1023B000002BF3D0202383F3118802F0B9F901F048
:1023C000EFF901F0BDFA18488368002B1ADD01F01F
:1023D000DFFD01F005FA02F0C3F9144B1A689A42C6
:1023E00007D0996993688A689A4202D2104801F02E
:1023F00037F9002383F311883C78CFE7B3F5006FFA
:10240000B6D3BCE702F08CFAE1E7FFF7B1FE00BFFC
:10241000000B002066450020641500206845002060
:102420006435002064450020040B0020705F00200C
:10243000B0E60008000000000000000000000000FE
:1024400000B5084B83B01A680192019A1B689A4242
:1024500005D1054803B05DF804EB00F081BBFFF740
:1024600087FE00BF000B0020E122000800000000F2
:1024700000B5064B83B01B68019304462046FFF766
:10248000B7FE4FF4FA6001F0C3FEF7E7000B00203F
:1024900000B50D4B83B01A680192B0F5806F019AB8
:1024A0001B6804D09A420CD103B05DF804FB9A4239
:1024B00007D106480123002203B05DF804EB07F0C2
:1024C000FFBFFFF755FE00BF000B0020C0E600086D
:1024D00030B54368174D1A68296883B004460191E6
:1024E00012B304220270DA681B685208114698473A
:1024F0002378042B18D0202383F3118802F048F9A5
:1025000001F08EF904F10800002101F041FF01F013
:10251000A7F902F055F9002383F31188019A2B687B
:102520009A4204D103B030BD02232370E3E7FFF7E2
:102530001FFE00BF000B0020000000000000000094
:1025400070B5194D82B02B68019311F00C0F0C4639
:10255000064622D114F0200109D0019A2B689A4234
:102560001FD1304602B0BDE87040FFF7B1BFE306AF
:102570000DD57268136853B1019C2868844210D14C
:10258000D2683046520802B0BDE870401847019A40
:102590002B689A4205D102B070BD044801F060F882
:1025A000D8E7FFF7E5FD00BF000B0020F0E60008CC
:1025B00070B5194D82B02B68019311F00C0F0C46C9
:1025C000064622D114F0200109D0019A2B689A42C4
:1025D0001FD1304602B0BDE87040FFF779BFE30677
:1025E0000DD57268136853B1019C2868844210D1DC
:1025F000D2683046520802B0BDE870401847019AD0
:102600002B689A4205D102B070BD044801F028F849
:10261000D8E7FFF7ADFD00BF000B0020F0E6000893
:1026200030B50F4D0F4C2A680F4B83B020460192F6
:102630004FF6FF721A8000F05BF90C4B01992A6883
:102640000B480C4D2562636203F1240591420A4B4D
:102650002363C4E90A5001D103B030BDFFF788FD00
:10266000000B0020804500206A450020F8EC00089F
:102670001E010100003C0040460001000000000077
:1026800070B52C4D03782A6882B0012B0446019264
:1026900024D06368E26A5989236B22F4F04223F460
:1026A000F043090544BF42F4205243F42053C4E9E7
:1026B0000B23236A00221A606268236A52891A6017
:1026C000236A03225A60226A136843F040031360AE
:1026D000019A2B689A422BD102B070BD164EB042BF
:1026E0000AD0D4E9083212680C339360A26A236AD4
:1026F00012680C339360CCE70346104A406A0A2103
:1027000004F02EFD80B9B06A0B4B0D4A0A2104F08B
:1027100027FD28B90B4A136C43F400431364E0E728
:10272000094800F09DFFF5E7074800F099FFEAE748
:10273000FFF71EFD000B002080450020B12500089A
:102740004125000800380240D0E6000800000000E3
:1027500070B5456A174C2D68266882B00196EB600B
:10276000436A1B685960456AC36A2D6843F48063F5
:102770002B60836A1B68DA60836A1B685960826A0F
:10278000036B126843F480631360436A1A6813682A
:1027900043F001031360836A1A68136843F001036E
:1027A0001360019A23689A4201D102B070BDFFF70D
:1027B000DFFC00BF000B0020000000000000000054
:1027C00030B5104D81682B680F4A83B001930B68B8
:1027D00023F001030B608168946A03E0936A1B1B7A
:1027E000C72B09D8086810F00100F7D1019A2B68AF
:1027F0009A4204D103B030BD4FF0FF30F6E7FFF747
:10280000B7FC00BF000B0020705F0020000000003C
:10281000F0B5284D83B02B68019301F051FF01F012
:102820003FF8254B1E69F20715D55A69234C42F033
:1028300001025A612778BB1F012B2AD90522636840
:1028400022701B680BB120469847042F27D0022F17
:1028500025D003232370B30710D5174A174C5369AB
:1028600043F0020353612378032B1DD063689B68F8
:102870000622227013B101211048984701F038F860
:10288000019A2B689A4213D103B0BDE8F04002F0E0
:10289000A7BD019A2B689A420AD103B0F0BD02236A
:1028A0002370B307EAD5D8E72046FFF789FFDDE7B5
:1028B000FFF75EFC000B0020000005506C45002077
:1028C00000B5074B83B01A680192019A1B689A42BF
:1028D00004D103B05DF804EBFFF7A2BEFFF748FC9C
:1028E000000B0020000000000000000000000000BD
:1028F00000B50A4B83B01A68019201220270019957
:102900001A6800239142C0E9013305D10C3003B0AD
:102910005DF804EB02F044B8FFF72AFC000B00203E
:1029200070B51E4D82B02B6801930E46044670B3FD
:1029300069B3202383F3118801F0FAFE00F030FF21
:102940002378013B012B02D9154800F089FE20466F
:102950006660FFF795FE0223237000F041FF01F04F
:10296000FFFE104B1A689A4204D0996993688A68EE
:102970009A4208D3002383F31188019A2B689A4264
:1029800009D102B070BD084800F06AFEF2E70448C1
:1029900000F066FECDE7FFF7EBFB00BF000B002069
:1029A00010E70008705F002000E70008000000004A
:1029B0002DE9F041214D82B02C6801940E469046DD
:1029C0001F46044600B171BB1D4800F049FE20239C
:1029D00083F3118801F0ACFE00F0E2FE2378022BB5
:1029E00002D0174800F03CFE03203B4642463146E9
:1029F00020702046FFF7ACFE00F0F2FE01F0B0FEC2
:102A0000104B1A689A4204D0996993688A689A426E
:102A10000ED3002383F31188019A2B689A420BD1BD
:102A200002B0BDE8F081002BCED0002ACFD1CBE799
:102A3000054800F015FEECE7FFF79AFB000B0020BD
:102A400020E70008705F002000E700080000000099
:102A50002DE9F04F3B4A3C4B126883B001240192B0
:102A60001C70002968D04FF00008384CC246C3469D
:102A7000C1464746C446434647F6FF7E14E0AB4591
:102A8000A8BFAB46B2F90450BD4220DCB2F9062023
:102A9000AA45A8BFAA464A451EDC043390459BB20E
:102AA000A8BF904699421CD930F9136000EB43024D
:102AB000B442B2F90250B8BF3446B645A8BFB646D4
:102AC0006545DCDDAC46B2F90450BD42DEDDB2F94D
:102AD00006204A452F46E0DD04339BB299429146D9
:102AE000E2D8A4EB0E04ACEB0B0CA7EB0A07A9EBA6
:102AF0000808A4B21FFA8CFCBFB21FFA88F8144A67
:102B000010491480019C0968124BA2F802C09780FA
:102B1000B0F8F8C4B0F8FA64A2F80680B0F8FC5433
:102B2000B0F8FE24A3F800C08C425E809D80DA805D
:102B300006D103B0BDE8F08F88460F468C46DEE72D
:102B4000FFF716FB000B0020B44500200080FFFFBC
:102B5000C0450020B8450020000000000000000033
:102B600010B5404B404C1B78226882B0012B01927B
:102B700005D0019A23689A4271D102B010BD002895
:102B80006AD00090684600F0DBF9384A384B516C47
:102B900041F480315164506A002140F48030506229
:102BA00051621961D9601A6A22F001021A629A69A7
:102BB00022F003029A619A6942F001029A619A69CD
:102BC00022F0F0029A611A6A22F00A021A629A69E5
:102BD00022F00C029A619A6822F070029A609A6858
:102BE00042F050029A609A6822F4803222F0070282
:102BF0009A609A6842F007029A601A68012022F4EB
:102C000040721A60D862996258611A6A22F0100202
:102C10001A629A6922F440729A619A6922F080726B
:102C200022F4E0429A619A6942F4C0429A611A6AB7
:102C300022F0A0021A6298639A6942F400629A61D3
:102C40001A6A22F480621A621A6A42F011021A6247
:102C50001A6802431A608CE7064B009392E7FFF76D
:102C600087FA00BFAC6C0020000B00200038024047
:102C700000400140512A0008000000000000000050
:102C800070B5114C82B0236801930E46154620237F
:102C900083F3118801F07CFD00F0C2FD0B4B0C4862
:102CA000C3E9006501F03CFE00F0DAFD01F088FDAB
:102CB000002383F31188019A23689A4201D102B05C
:102CC00070BDFFF755FA00BF000B0020D85A002056
:102CD000C8450020000000000000000000000000C7
:102CE00070B5114C82B0236801930E46154620231F
:102CF00083F3118801F04CFD00F092FD0B4B0C4862
:102D0000C3E9006501F00CFE00F0AAFD01F058FDDA
:102D1000002383F31188019A23689A4201D102B0FB
:102D200070BDFFF725FA00BF000B0020BC58002043
:102D3000C845002000000000000000000000000066
:102D40002DE9F04F634B64499A69644B916185B0FA
:102D50001B6803935F4B9B6993F821305B0700F17D
:102D6000AE805F4801F0A4FD5D4801F0A1FD594B24
:102D70009B6993F8212012F0040240F0A080594D85
:102D800059482B6801680446406805EB830304EB4F
:102D9000810103F50279430001F10808019343D052
:102DA000DFF854B1514BDFF860A1012018F8125040
:102DB00018F8006019F8121019F8004005F0550CC9
:102DC000770806F0550613F80CC09E5D01F0550E0D
:102DD0004CEA061649084FEA540C01F0550104F07C
:102DE00055040CF0550C6D0813F80EE0595C1C5D91
:102DF00013F80CC00BF8126005F0550507F05507E5
:102E000041EA0C114EEA041E0AF812E05D5D0AF870
:102E10000010DF5D0199013245EA071591420BF878
:102E2000005000F10200C1D1314B32493248334DDC
:102E30000422FDF71DFB324B324933480422FDF7D3
:102E400017FB324B324933480422FDF711FB324B5A
:102E5000324933480422FDF70BFBDFF8D8C028685D
:102E60009CF80070234A274900EBC71302F1400683
:102E700054881C8032F8044B5C800C889C804C8801
:102E8000DC80964201F1040103F10803F0D1092F1F
:102E900011D1244B00221B688CF800204FF42071C4
:102EA00098472B68204A214993420B6006BF204B6C
:102EB0002B602A604EE701378CF800704AE7074B19
:102EC000039A1B689A4202D105B0BDE8F08FFFF764
:102ED0004FF900BF705F002040E70008000B0020A2
:102EE000C8450020D85A0020BC580020100B0020F4
:102EF00094560020504B0020904B0020900B002057
:102F0000FC56002064570020A4570020C85600201B
:102F1000524B0020914B0020305700206657002074
:102F2000A5570020A4580020904C0020940B0020AE
:102F3000905100209056002000000000000000008A
:102F40002DE9F04F494A0168494B116085B00021D5
:102F50000E461B684748039301F04AFC4FF4AF61EB
:102F6000454B009641224548454DDFF84891454C78
:102F7000DFF844A1444F01F0F3F8444B444A186091
:102F8000136BC5F804A043F480534FF002184FF4BC
:102F90007A5B13632846C5E90298A5F800B0FDF7EF
:102FA000AFF92046C4E901A9C4F80C80A4F800B028
:102FB000FDF7A6F905F13400C5E90EA9C5F8408072
:102FC000A5F834B0FDF79CF9324DC4F8408004F107
:102FD0003400C4E90EA9A4F834B0FDF791F93146E4
:102FE00040F20C42384608F083F9DFF8D0902A4AC4
:102FF0006E604FF400634FF080082E812A606B8171
:10300000264CC5F80C80C7F80894FFF759FC2946F0
:103010002348244DFFF784FC07F5027307F10802EB
:103020004FF480711E48FFF7C3FC314620464FF431
:10303000037208F05DF91C4B1C4AC4F8089208346E
:103040001A611946C3E900641948C3E9028502F010
:1030500057FC074B039A1B689A4205D1144805B0E8
:10306000BDE8F04F02F094BCFFF782F8A4580020AE
:10307000000B0020C8450020412D0008D845002045
:1030800094560020FC560020D85A0020D445002039
:1030900000380240C85A0020812C0008BC5800208B
:1030A00080450020E12C0008A85800202C030800CF
:1030B000AC6C0020000020410000FA45EFBEADDE00
:1030C00070B5294D82B02B6801930E46032841D874
:1030D000DFE800F01A120A02012922D9234A5369B3
:1030E00083F40063536116E0012926D91F4A53690E
:1030F00083F4806353610EE0012918D91B4A536998
:1031000083F04003536106E001291CD9174A536933
:1031100083F020035361019A2B689A4218D102B0C0
:1031200070BD124B4FF4006229B15A83F3E70F4B85
:1031300040220029F9D11A83EDE70C4B4FF480624D
:103140000029F8D0F1E7094B20220029F3D0ECE761
:10315000FFF70EF80024E0B231460134FFF7B0FF6C
:10316000042CF8D1D7E700BF000B0020000C024070
:1031700000B50D4B83B01A68019201280BD90B4999
:103180004A6982F004024A61019A1B689A4209D195
:1031900003B05DF804FB054A042108B95183F3E745
:1031A0001183F1E7FEF7E4FF000B0020000402406A
:1031B00000B50E4B83B01A68019201280BD90C4957
:1031C0004A6982F480424A61019A1B689A420AD194
:1031D00003B05DF804FB064A4FF4804108B95183FF
:1031E000F2E71183F0E7FEF7C3FF00BF000B0020FA
:1031F000000C024000000000000000000000000081
:10320000F0B50D4F0D4C3B6883B0002501932E4661
:10321000E8B200210135FFF753FF042D26706670D8
:10322000A67004F10304F3D1019A3B689A4201D1DC
:1032300003B0F0BDFEF79CFF000B0020E45E002011
:103240002DE9F043254E83B034680194042A9DF89B
:103250002890144605460F46984639D9B9F1000F13
:1032600014BF00224FF08052640002EB0863013C5F
:103270001C4405F00F0527F01F07202383F3118856
:1032800001F056FA3D4300F08BFA154B1035DD6026
:103290001C6100F0A5FA01F063FA124B1A689A4219
:1032A00004D0996993688A689A420DD3002383F306
:1032B0001188BFF36F8FBFF34F8F019A33689A4223
:1032C0000AD103B0BDE8F083074800F0C9F9EDE783
:1032D000064800F0C5F9C1E7FEF74AFF000B0020E1
:1032E00090ED00E0705F0020D0E70008B0E7000834
:1032F00030B5224D224C2B68224A85B00393636877
:1033000043F004036360536A43F480335362202321
:1033100083F3118801F00CFA00F042FA17221A4BDD
:10332000E260236100F05CFA01F01AFA174B1A68A8
:103330009A4204D0996993688A689A4218D3002007
:1033400080F31188BFF36F8FBFF34F8F03231D22CC
:1033500000904FF00051FFF773FF094A536843F0A4
:1033600001035360039A2B689A4205D105B030BD22
:10337000074800F075F9E2E7FEF7FAFE000B0020BF
:1033800090ED00E000ED00E009000010705F00200B
:10339000D0E700080000000000000000000000006E
:1033A00070B51A4D1A4C1B4E0FCD0FC49EB02A6833
:1033B000336822801D93EFF30981682203A8FEF78A
:1033C00037FD154B9D6AAA0714D4EB0708D5124B9D
:1033D00008995B6B114A00910D48802107F0D8FFD6
:1033E0001D9A33689A420FD109481EB0BDE870405B
:1033F00000F036B9099A5B6B0092A4F11000084AFC
:10340000802107F0C5FFE0E7FEF7B2FE94E7000871
:10341000F05E0020000B002000ED00E070E70008E7
:1034200050E700080000000000000000000000005D
:103430000A490B4B09680B4A82B0202001914021B8
:1034400058834FF4806559834FF400644FF48040F3
:1034500004215D835C8358835183FEE7000B0020C9
:10346000000C0240000402400000000000000000C8
:1034700000B5084B83B01A680192019A1B689A4202
:1034800005D1054803B05DF804EB01F071BBFEF710
:103490006FFE00BF000B0020980B00200000000012
:1034A00000B5084B83B01A680192019A1B689A42D2
:1034B00005D1054803B05DF804EB01F091BBFEF7C0
:1034C00057FE00BF000B0020980B002000000000FA
:1034D00070B50D4C82B0236801930D1E06460DDDBC
:1034E000284601F0F5FE18B90C2333604FF0FF3089
:1034F000019A23689A4205D102B070BD034800F0DA
:10350000AFF8EDE7FEF734FE000B0020E0E700081F
:1035100000B5064B83B01A680192019A1B689A4263
:1035200002D103B05DF804FBFEF722FE000B002081
:1035300000B5064B83B01A680192019A1B689A4243
:1035400002D103B05DF804FBFEF712FE000B002071
:10355000024B82B01B680193FEE700BF000B002006
:1035600000B5044B04481B6883B0019300F078F861
:10357000FEE700BF000B0020F0E70008000000009D
:10358000024B82B01B680193FEE700BF000B0020D6
:10359000F0B5294E294B3268294885B000240392A2
:1035A0009C60D968274A4FF6FF0529400A43DA6034
:1035B000C2682549254D42F08072C2600A6842F017
:1035C00001020A6010202022D87783F8222000F020
:1035D000DFFA00F045FA00F0FBFF01F051FE01F0C8
:1035E000BFFE01F04DF800F0FBF9402105F58860C1
:1035F00000F01EFD0127164BC36180F82070A86102
:1036000000F0A6F884F3118862B6AB69114A9A619A
:103610004FF4C4713A46104B009405F59D6000F0DC
:103620009FFD039A33680D4981619A4201D105B02B
:10363000F0BDFEF79DFD00BF000B002000ED00E097
:10364000F0ED00E00003FA05001000E0705F0020DC
:103650000004002070E900088135000810E8000827
:1036600000B5054B83B01B680193044672B6FFF7A3
:10367000DFFE024BDC62FEE7000B0020705F0020E3
:103680002DE9F047DFF890A0224DDAF8003082B043
:10369000019300F055F9AB6993F8232012B1013A78
:1036A00083F823205A6ADFF8748001325A6200F0EE
:1036B00047F9AB6AEA6901334245AB6220D09368AF
:1036C000013B9360EC69A668D6B94FF020092368E6
:1036D000E768E660C3F804802368EB6100F0C0F897
:1036E00001F06EF886F311882069B84789F31188D4
:1036F00001F04EF800F094F8EC69A368002BE6D0D6
:10370000019ADAF800309A4202D102B0BDE8F0879F
:10371000FEF72EFD705F0020000B00208C5F002064
:1037200010B5094C094A236882B001935168536867
:103730005B1A9842FBD8019A23689A4201D102B0E1
:1037400010BDFEF715FD00BF000B0020001000E0CB
:1037500000B50E4A0E4B116B186883B0019009B981
:10376000526B4AB1019A1B689A420CD1094803B0C6
:103770005DF804EBFFF774BF019A1B689A4202D10F
:1037800003B05DF804FBFEF7F3FC00BF705F0020A0
:10379000000B002020E800080000000000000000EE
:1037A00030B50B4C0B4D236B2A6883B001920BB9DB
:1037B000636B13B10848FFF753FF019A2B6801218F
:1037C0009A42616301D103B030BDFEF7D1FC00BF66
:1037D000705F0020000B002050E80008000000008F
:1037E00030B50C4C0C4D236B2A6883B0019253B951
:1037F000636B002B07DD019A2B6800219A426163FD
:1038000005D103B030BD0548FFF72AFFF3E7FEF707
:10381000AFFC00BF705F0020000B002070E80008C4
:1038200030B50B4C0B4D236B2A6883B0002B0192F3
:1038300001DD636B13B10848FFF712FF019A2B6893
:1038400001219A42616301D103B030BDFEF790FCC3
:10385000705F0020000B002060E8000800000000FE
:1038600030B50C4C0C4D236B2A6883B0002B0192B1
:103870000ADD636B002B07DD019A2B6800219A4259
:10388000616305D103B030BD0448FFF7E9FEF3E7FB
:10389000FEF76EFC705F0020000B002080E800083F
:1038A00030B50F4D83B02B680193202383F311882B
:1038B0000C4C236B002B01DB626B1AB10A48FFF73B
:1038C000CFFE236B01332363002383F31188019A16
:1038D0002B689A4201D103B030BDFEF749FC00BF0E
:1038E000000B0020705F002030E80008000000009E
:1038F00030B50F4D83B02B680193202383F31188DB
:103900000C4C236B002B01DD626B1AB10A48FFF7E8
:10391000A7FE236B013B2363002383F31188019AE5
:103920002B689A4201D103B030BDFEF721FC00BFE5
:10393000000B0020705F002040E80008000000003D
:1039400000B50F4A0F4B116B186883B00029019026
:1039500009DB526B002A06DD019A1B689A420CD1E2
:1039600003B05DF804FB019A1B689A4205D1064832
:1039700003B05DF804EBFFF773BEFEF7F9FB00BF81
:10398000705F0020000B002090E80008000000009D
:1039900000B50E4A0E4B116B186883B0019049B9FF
:1039A000526B002A06DD019A1B689A420CD103B0C3
:1039B0005DF804FB019A1B689A4205D1054803B0E3
:1039C0005DF804EBFFF74CBEFEF7D2FB705F002002
:1039D000000B0020A0E8000800000000000000002C
:1039E00010B5084A084B116882B040240191019932
:1039F000126818199142C3E90E4001D102B010BDFE
:103A0000FEF7B6FB000B0020705F002000000000F6
:103A100010B51149114B0A6882B00192DA6B9C6AA9
:103A20001460DA6B9C695460DA6B846A9460DA6BB8
:103A300090F820001073DA6B03F588601032824230
:103A400028BF03F14002DA63019A0B689A4201D160
:103A500002B010BDFEF78CFB000B0020705F002051
:103A600010B50B4A0B4B116882B04FF0FF34019137
:103A700000219962019811685C6203F11C0288427E
:103A8000C3E9072201D102B010BDFEF771FB00BFF0
:103A9000000B0020705F002000000000000000000C
:103AA0002DE9F041184E82B00546306801900C4671
:103AB00017469846FFF744FF05B3FFB1F4B1C5E9D7
:103AC00003781248C3699A68944204D91B68A41AFF
:103AD0009A68A242FAD32B605A686A6015605D60EA
:103AE000AC609968019D3268091B95424FF0FF3424
:103AF0009960446206D102B0BDE8F0810448FFF746
:103B0000AFFDDCE7FEF734FB000B0020705F002008
:103B1000B0E8000800000000000000000000000005
:103B200030B5164D83B004462B680193FFF708FFAC
:103B3000ECB1E368BBB12268A068936801990344C3
:103B40009360D4E900231A6020682B680C4A6568EA
:103B5000456099424FF000054FF0FF30E56050623C
:103B600009D103B030BD0748FFF77AFDE3E7054808
:103B7000FFF776FDDDE7FEF7FBFA00BF000B002044
:103B8000705F0020C0E80008000000000000000096
:103B900000B50A4A0A4B11681B6083B000200191EE
:103BA000019912685B609142C3E90433986002D1C5
:103BB00003B05DF804FBFEF7DBFA00BF000B00204A
:103BC000705F002000000000000000000000000006
:103BD00030B5164D83B004462B680193FFF7B0FE55
:103BE000ECB194F82030B3B10F2B14D00022A168AF
:103BF0000F4B84F820201B689A688A42FBD223600E
:103C00005A686260146001992A685C60914220469B
:103C100009D103B030BD0748FFF722FDE6E70548AC
:103C2000FFF71EFDDDE7FEF7A3FA00BF000B002043
:103C3000705F0020D0E800080000000000000000D5
:103C400070B5204D82B02B6801930446202383F386
:103C5000118800F09DFDFFF7E3FD94F82030072B5D
:103C600011D8DFE803F0161010230A04100AA66A20
:103C7000FFF766FEB3680133B360D4E900231A602E
:103C8000D4E900325A604FF0FF33A3622046FFF7B9
:103C90009FFFFFF7E5FD00F093FD002383F31188FC
:103CA000019A2B689A420BD102B070BDA36A002220
:103CB0001A604FF0FF33A3622046FFF789FFE8E761
:103CC000FEF756FA000B0020000000000000000084
:103CD000F0B5194E194C336883B007460193FFF7CE
:103CE00057FEA569236885F82070142285F82320E3
:103CF0001A68226001215460284683F82010A361CD
:103D0000FFF786FE2946A06900F0F2FCEFF3098375
:103D1000EA69643B9A4202D90948FFF7A1FC019A7B
:103D200033689A4206D1A069294603B0BDE8F04045
:103D3000FCF7BEBAFEF71CFA000B0020705F0020F3
:103D4000E0E80008000000000000000000000000A3
:103D5000F0B5154C87B0236805930E460746FFF76C
:103D600017FE731C18D0114D114AAB6931466846D5
:103D7000FFF796FE3846FFF7ABFFFFF7E1FD039B29
:103D800013B16846FFF7CCFE059A2368A9699A42E9
:103D9000886A06D107B0F0BD3846FFF799FF034D9A
:103DA000F2E7FEF7E5F900BF000B0020705F00208E
:103DB000413C00080000000000000000000000007E
:103DC000F0B51E4D1E4E2B6883B0044601930F467E
:103DD000FFF7DEFDB069A7628368A2689A421DD929
:103DE000FFF7F6FE0123074684F82030B461FFF7A1
:103DF0000FFE3946204600F07BFCEFF30983FA6999
:103E0000643B9A4214D8019A2B689A4214D13946DD
:103E1000204603B0BDE8F040FCF74ABA019A2B688F
:103E20009A4209D1204603B0BDE8F040FFF7D0BE6A
:103E30000448FFF715FCE6E7FEF79AF9000B0020AF
:103E4000705F0020E0E800080000000000000000B3
:103E500010B50E490E4B8A69086892F823101C6849
:103E60008068926882B0019449B9904234BF0020C2
:103E70000120019A1B689A4206D102B010BD9042FF
:103E800094BF00200120F4E7FEF772F9705F002074
:103E9000000B0020000000000000000000000000F7
:103EA00070B5184C184E2368A5691A6822605460D2
:103EB000012283F8202082B01422316885F8232063
:103EC0002846A3610191FFF783FE2846FFF7A0FD76
:103ED0002946A06900F00CFCEFF30983EA69643B12
:103EE0009A4202D90948FFF7BBFB019A33689A420C
:103EF00006D1A069294602B0BDE87040FCF7D8B9E8
:103F0000FEF736F9705F0020000B0020E0E80008A3
:103F100070B51C4D1C4E2A68AC6913682B600121DA
:103F200082B05D60002082F82010AA613268A1682A
:103F300084F82000019200E01B689A688A42FBD84E
:103F400023605A686260204614605C60FFF760FD81
:103F50002146A86900F0CCFBEFF30983E269643BDA
:103F60009A4202D90948FFF77BFB019A33689A42CB
:103F700006D1A869214602B0BDE87040FCF798B9A7
:103F8000FEF7F6F8705F0020000B0020E0E8000864
:103F900010B50F4C82B023680193FFF7F9FCFFF7CF
:103FA000CFFC0C4B1A689B6992689B689A42019AF5
:103FB000236803D89A4208D102B010BD9A4204D1B6
:103FC00002B0BDE81040FFF7A3BFFEF7D1F800BF75
:103FD000000B0020705F00200000000000000000C7
:103FE00000B50E4A0E4B9269196892F8232083B0EF
:103FF000019142B1019A1B689A420DD103B05DF85C
:1040000004EBFFF785BF019A1B689A4204D103B005
:104010005DF804EBFFF744BFFEF7AAF8705F0020DD
:10402000000B002000000000000000000000000065
:10403000F0B51A4A1A4D02610446816083B0142318
:1040400050692E68616484F823300227002301211F
:10405000278484F82210C4E90F3304F16801A361B6
:10406000019604F12C07636204F1500604F1300359
:1040700060610461C4E90C33E1613046E762546178
:1040800000F03EFA304600F05BFA019A2B689A4243
:1040900002D1204603B0F0BDFEF76AF8705F002041
:1040A000000B0020000000000000000000000000E5
:1040B00010B5094B82B01C680194884203D200F805
:1040C000012B8142FBD1019A1B689A4201D102B0B7
:1040D00010BDFEF74DF800BF000B002000000000EF
:1040E0002DE9F043184E83B0346801940546DDF89D
:1040F00028900C4617469846FFF722FC15B1B4F5F8
:10410000BC7F19D21148FFF7ABFAA4F1640129442E
:10411000E960C1F84080EB68019AC3F844903368C5
:10412000E9680B4808669A420CD13946284603B024
:10413000BDE8F043FFF77CBF7F2FE3D8B8F1000F55
:10414000E3D1DFE7FEF714F8000B002030E90008A8
:10415000C90200080000000000000000000000008C
:104160002DE9F04FDFF8A48087B0D8F80040DDF8E3
:104170004090059407468A46934600F16806044637
:10418000FF2504F8015BA642FBD107EB0A05A54217
:1041900004D9552604F8016BA542FBD103932022D4
:1041A00082F3118800F0C4FAFFF7FAFA039BCDF806
:1041B00000905A4651463846FFF792FF00210446C8
:1041C000FFF7FEFDFFF70CFB00F0CAFA0D4B1A6873
:1041D0009A4204D0996993688A689A420BD3002363
:1041E00083F31188059AD8F800309A42204606D108
:1041F00007B0BDE8F08F0448FFF732FAEFE7FDF7AC
:10420000B7FF00BF705F0020F0E80008000B00203F
:1042100030B5184C83B0236801930546202383F3FF
:10422000118800F085FAFFF7BBFA15B91248FFF7BD
:1042300017FA29460820FFF78BFDFFF7D1FA00F0A7
:104240008FFA0E4B1A689A4204D0996993688A686B
:104250009A4208D3002383F31188019A23689A4273
:1042600005D103B030BD0648FFF7FAF9F2E7FDF7D4
:104270007FFF00BF000B002000E90008705F0020F6
:10428000F0E800080000000000000000000000004E
:1042900070B5164B164E9C693268E36AA06282B014
:1042A00004F12C05AB42019207D01A68E26218466D
:1042B000FFF78EFCE36AAB42F7D194F821309B07FD
:1042C00005D1D4E904231A61D4E904325A610F20DC
:1042D000FFF7FEFC019A33689A4205D1054802B007
:1042E000BDE87040FFF7BCB9FDF742FF705F0020EA
:1042F000000B002040E90008000000000000000062
:1043000030B50C4C83B0236801930546202383F31A
:10431000118800F00DFAFFF743FA019A23689A42D8
:1043200005D1284603B0BDE83040FFF7B1BFFDF727
:104330001FFF00BF000B0020000000000000000075
:10434000F0B50D4D0D4E03682A68B76983B0044679
:10435000019213B10A48FFF783F927600320BC627A
:10436000FFF7B6FC019A2B68B1699A42886A01D1BD
:1043700003B0F0BDFDF7FCFE000B0020705F0020D5
:1043800050E90008000000000000000000000000EC
:10439000F0B5124D04682B6883B00193B4B194F862
:1043A0002030032B06460F460CD100233360019AC0
:1043B0002B68A7629A420FD1204603B0BDE8F040B7
:1043C000FFF706BC0648FFF74BF9EEE7019A2B68AA
:1043D0009A4201D103B0F0BDFDF7CAFE000B0020E8
:1043E00060E900080000000000000000000000007C
:1043F00030B5104A83B01368019381B10E4B019D13
:104400009B69186044685C60236012684360954251
:104410000DD1042003B0BDE83040FFF799BC0199ED
:10442000136899424FF0FF3001D103B030BDFDF762
:104430009FFE00BF000B0020705F00200000000006
:1044400070B5124D04682B6882B0A042019315D05C
:1044500023680360586094F82030042B0E4602D085
:104460000B48FFF7FDF8019A2B68A6629A420BD120
:10447000204602B0BDE87040FFF7AABB019A2B6846
:104480009A4201D102B070BDFDF772FE000B002010
:1044900010E900080000000000000000000000001B
:1044A0002DE9F041DFF850800468D8F8003082B080
:1044B000A042019313D00F4F05460E4623682B6090
:1044C0005D6094F82030042B02D03846FFF7C8F81E
:1044D000A6622046FFF77CFB2C68A542EED1019A2C
:1044E000D8F800309A4202D102B0BDE8F081FDF761
:1044F0003FFE00BF10E90008000B00200000000094
:1045000030B50B4B83B01A6801924FF0FF32026056
:1045100001991A680024002300259142C0E904454E
:10452000C0E90133C36001D103B030BDFDF720FE07
:10453000000B002000000000000000000000000050
:1045400000B5084B084A196883B001915168019A77
:104550001B6881609A4202D103B05DF804FBFDF74D
:1045600007FE00BF000B0020001000E0000000006C
:10457000F0B51449144B0A68846883B00192134A59
:104580005B68D2F8A864C2681B1BD0E904450132FD
:104590009B1BC26042688360E61845F100079342A6
:1045A000C0E9046709D80268934238BF0360019AE2
:1045B0000B689A4203D103B0F0BD4360F7E7FDF703
:1045C000D7FD00BF000B0020001000E0705F00204E
:1045D00030B5114D114C2B6889B04FF0FF31079366
:1045E000002300226846C4F8A834CDE901330393C0
:1045F0000023CDE904230091FFF7A2FF6846FFF7EF
:10460000B7FF079A2B680299C4F8A8149A4201D1FF
:1046100009B030BDFDF7ACFD000B0020705F00203D
:104620002DE97048134E144B326883B001925B68D9
:104630008B60D0E902411B1BD0E90445426814EBB2
:10464000030B45F1000C01319342C0E90231C0E98E
:1046500004BC0AD80268934238BF0360019A3368E9
:104660009A4204D103B0BDE870884360F6E7FDF7D5
:104670007FFD00BF000B0020001000E000000000E4
:1046800030B50D4D0D4C2B6883B004F59760019348
:104690000023C4F8B034C4F8B434FFF731FF019AF2
:1046A0002B689A4206D104F59A6003B0BDE8304009
:1046B000FFF726BFFDF75CFD000B0020705F0020B8
:1046C00000B50949094A0B6883B001930198D2F8F3
:1046D000B034096801338842C2F8B03402D103B063
:1046E0005DF804FBFDF744FD000B0020705F002027
:1046F00070B50D4C0D4A236882B00193019DD2F82C
:10470000B43424680133A542C2F8B43409D10E464A
:1047100000F1500106F1500002B0BDE87040FFF713
:104720007FBFFDF725FD00BF000B0020705F00205C
:1047300000B5084B83B01A680192019A1B689A422F
:1047400005D1054803B05DF804EBFFF7F9BEFDF7AE
:104750000FFD00BF000B00202864002000000000B7
:1047600000B5084B83B01A680192019A1B689A42FF
:1047700005D1054803B05DF804EBFFF7F9BEFDF77E
:10478000F7FC00BF000B00202864002000000000A0
:1047900000B5084B83B01A680192019A1B689A42CF
:1047A00005D1054803B05DF804EBFFF7C9BEFDF77E
:1047B000DFFC00BF000B0020406400200000000070
:1047C00000B5084B83B01A680192019A1B689A429F
:1047D00005D1054803B05DF804EBFFF7C9BEFDF74E
:1047E000C7FC00BF000B0020406400200000000058
:1047F00070B50C4D82B02B6801930E46044650B143
:10480000002908DB2460019A2B689A42C4E901461A
:1048100005D102B070BD0448FEF722FFF2E7FDF7B4
:10482000A7FC00BF000B0020A0E90008000000006A
:1048300070B51B4D82B004462B680193FFF7A8F8B2
:1048400044B3A3682268002B10DBA24203D01548B2
:10485000FEF706FFA368013B002BA3600CDB0020E2
:10486000019A2B689A4219D102B070BDA242EED0D3
:10487000013B002BA360F2DA0B4EB3699C621C6013
:1048800062685A60052013606360FFF721FAB3691C
:10489000986AE5E70348FEF7E3FED2E7FDF768FC18
:1048A000000B0020B0E90008705F0020000000004D
:1048B00030B5164C83B0236801930546202383F35B
:1048C0001188FFF735FFFEF76BFF2846FFF7B0FFB3
:1048D0000546FEF785FFFFF743FF0D4B1A689A4226
:1048E00004D0996993688A689A4209D3002383F3B4
:1048F0001188019A23689A42284605D103B030BD39
:104900000448FEF7ADFEF1E7FDF732FC000B002096
:10491000705F002090E90008000000000000000027
:1049200030B51C4D83B004462B680193FFF708F89F
:104930004CB3A3682268002B0FDBA24203D01648B9
:10494000FEF78EFEA3680133002BA3600BDD019AF6
:104950002B689A421BD103B030BDA242EFD0013385
:10496000002BA360F3DC20680199036823602A68A8
:104970005C6091424FF00003836208D103B0BDE850
:104980003040FFF725B90448FEF76AFED1E7FDF78E
:10499000EFFB00BF000B0020C0E900080000000092
:1049A00030B50B4D83B02B680193044650B12460A1
:1049B00001992A68646000239142A360236105D1B4
:1049C00003B030BD0348FEF74BFEF0E7FDF7D0FB28
:1049D000000B0020E0E900080000000000000000DB
:1049E000F0B55D4E5D4B32689D6983B0044601921F
:1049F000FEF7CEFF002C00F08480A0682369002819
:104A000043D0002B40F39780854276D0AA68836814
:104A10009A4208D990F820308260062B40D0072BAC
:104A200073D0002B5DD02746234603E09968AA681F
:104A3000914233D31B689C42F8D12F607B686B6036
:104A400006201D607D60AC62FFF742F9A368AB42AF
:104A500002D04348FEF704FE2B6CA34202D040482C
:104A6000FEF7FEFD2369012B05D1019A33689A42B6
:104A70006FD103B0F0BD019A33689A4269D13848CA
:104A800003B0BDE8F040FEF7EBBD002B58D1013379
:104A9000A56023612B6CE3602C64E6E71F46CCE73E
:104AA000D0E900231A60D0E900325A60876A3B4699
:104AB00003E099688268914247D31B689F42F8D10E
:104AC00007607B68436018607860836AAA689868AA
:104AD00083689342A7D290F820308260062B9ED143
:104AE000DEE7D0E90023012180F820101A60D0E928
:104AF00000325A60FFF76CF895E7236901332361B0
:104B0000B3E71748FEF7ACFD77E7D0E900231A605A
:104B1000D0E900325A60876A3B4603E099688268B0
:104B2000914214D31B689F42F8D107607B684360B1
:104B30001860786077E70A48FEF792FDA06863E79F
:104B40000748FEF78DFD2369A1E71F46B8E71F461A
:104B5000EBE7FDF70DFB00BF000B0020705F0020AE
:104B6000F0E9000800000000000000000000000064
:104B700030B5154C83B0236801930546202383F399
:104B80001188FFF7D5FDFEF70BFE2846FFF728FF3B
:104B9000FEF726FEFFF7E4FD0C4B1A689A4204D09C
:104BA000996993688A689A4208D3002383F311882D
:104BB000019A23689A4205D103B030BD0448FEF73C
:104BC0004FFDF2E7FDF7D4FA000B0020705F0020E4
:104BD000D0E9000800000000000000000000000014
:104BE0002DE9F043DFF800813C4FD8F80030BE6972
:104BF00083B005460193002864D0202383F31188F5
:104C0000FFF796FDFEF7CCFD336C002B5ED09B6862
:104C1000B34202D03248FEF723FD2B69002B49DD59
:104C2000013B2B615BBB336CAB4202D02C48FEF7DF
:104C300017FDEB683364FEF7ABFE2B689D423ED058
:104C4000D6E910495CB1FEF7A3FE23689C4203D06D
:104C50009B68994538BF9946E468002CF3D1C6F8A3
:104C600008902B6801222A611A682A605560AB609F
:104C70001A6CEA6018461D640021FFF7A1F8FEF7E0
:104C8000AFFDFFF76DFD3B68BB4204D0BA699B687E
:104C900092689A420AD3002383F31188019AD8F8C4
:104CA00000309A4217D103B0BDE8F0830D48FEF7FB
:104CB000D7FCF0E70A48FEF7D3FC2B69B0E70023E6
:104CC000AB60DCE70648FEF7CBFC96E70448FEF74E
:104CD000C7FC336C9BE7FDF74BFA00BF705F002009
:104CE00000EA0008D0E90008000B002000000000E6
:104CF00070B5184E82B00446336801930D46FEF736
:104D00001FFE0CB3E16B94F8203029430A2BE163BA
:104D100016D00B2B05D0019A33689A4218D102B0F5
:104D200070BDA36A8B43F6D1019A336800219A4281
:104D3000A1620DD1204602B0BDE87040FEF748BF29
:104D4000A36A1942F0D1E6E70348FEF789FCD9E7E8
:104D5000FDF70EFA000B002030EA0008000000000A
:104D6000F0B5134F83B006463B6801930D46FEF73E
:104D7000E7FDB6B13468A6420DD0E3682B43E3608B
:104D800015B12269134203D0D4E90101FFF7B0FF46
:104D90002468A642F1D1019A3B689A4205D103B03A
:104DA000F0BD0448FEF75CFCE4E7FDF7E1F900BF65
:104DB000000B002010EA00080000000000000000C6
:104DC00070B50C4CC16082B0266801960A44006040
:104DD000019E02612268069D4060C0E9051196426D
:104DE0004FF00001C3618160056201D102B070BD66
:104DF000FDF7BEF9000B00200000000000000000DD
:104E000070B5164D82B004462B6801930E46FEF72E
:104E100097FDFEF795FDD4E905239A42A36816D0C5
:104E20000133511CA36061611670D4E904329A42C7
:104E30000AD220460021FFF703FB0020019A2B68CD
:104E40009A4209D102B070BDE3686361F1E7002BBB
:104E5000E6D06FF00300F1E7FDF78AF9000B0020C0
:104E6000F0B5234F83B03B68019304460E462023E0
:104E700083F31188FFF75CFCFEF792FCE36943B112
:104E80002046984705E031462046FFF7B1FA051E57
:104E900010DBFEF755FDA368002BF4D0A169206953
:104EA0004A1C013B8242A360A26128BFE3680D78DF
:104EB00028BFA361FEF794FCFFF752FC0D4B1A6864
:104EC0009A4204D0996993688A689A4209D3002368
:104ED00083F31188019A3B689A42284605D103B0B2
:104EE000F0BD0548FEF7BCFBF1E7FDF741F900BF57
:104EF000000B0020705F002040EA00080000000066
:104F00002DE9F04FDFF8F490044685B0D9F80000A1
:104F100003908A461D46D4F81C809346002A60D030
:104F2000202383F311880193FFF702FCFEF738FC7E
:104F30002F4E0027B8F1000F07D02046C04704E0ED
:104F400029462046FFF754FA60BBFEF7F9FCA36838
:104F5000002BF5D0A269013B511CA161A36013781D
:104F60000AF8013B2369A2699A4224BFE368A3615E
:104F7000FEF736FCFFF7F4FB3368B34204D0B269A6
:104F80009B6892689A4228D3002383F311880137E3
:104F9000BB4519D0019B83F31188FFF7C9FBFEF7CE
:104FA000FFFBC7E7FEF71CFCFFF7DAFB3368B342F1
:104FB00007D0B2699B6892689A4202D20D48FEF708
:104FC0004FFB002383F31188039AD9F800309A42EB
:104FD00038460AD105B0BDE8F08F0648FEF740FB21
:104FE000D2E70548FEF73CFB9AE7FDF7C1F800BFA2
:104FF000705F002040EA000850EA0008000B002023
:1050000070B50B4D82602E68C16082B0C0E90000AF
:1050100001960A44019E02612A68069C9642C0E9F4
:105020000511C0E9073401D102B070BDFDF7A0F849
:10503000000B002000000000000000000000000045
:105040002DE9F0412E4F82B03B680193044688461B
:105050001646202383F31188FFF76AFBFEF7A0FBB7
:1050600005E031462046FFF7C3F9051E2DDBFEF7AC
:1050700067FCA368002BF4D06269013B511C61619D
:10508000A36082F80080D4E904329A4224BFE36826
:105090006361E3690BB120469847FEF7A1FBFFF778
:1050A0005FFB184B1A689A4204D0996993688A6822
:1050B0009A421ED3002585F31188019A3B689A42D3
:1050C00028461AD102B0BDE8F081FEF789FBFFF750
:1050D00047FB0C4B1A689A4207D0996993688A6813
:1050E0009A4202D20848FEF7BBFA002383F31188E4
:1050F000E3E70548FEF7B4FADCE7FDF739F800BF4F
:10510000000B0020705F002040EA00080000000053
:1051100070B5154E82B0044633680193FEF710FC5B
:10512000FEF70EFCD4E905329342A36815D020693E
:10513000511C0133A360A161814215780AD2204637
:105140000021FFF77DF92846019A33689A4209D178
:1051500002B070BDE368A361F1E7002BE7D06FF008
:105160000200F1E7FDF704F8000B0020000000004A
:105170002DE9F04F04463B48D4F81C90006885B0F8
:105180000D46039001931646002A61D04FF0200A85
:105190008AF31188FFF7CCFAFEF702FB4FF0000804
:1051A000314FC346FEF7CCFBA368002B32D06269B7
:1051B000013B511C6161A3602B781370D4E9043268
:1051C0009A4224BFE36863610135B9F1000F01D051
:1051D0002046C847FEF704FBFFF7C2FA3B68BB4214
:1051E00007D0BA699B6892689A4202D21F48FEF7BC
:1051F00037FA8BF31188013E08F101081FD08AF3BA
:105200001188FFF795FAFEF7CBFAFEF799FBA36832
:10521000002BCCD101992046FFF7EAF80028C1D035
:10522000FEF7DEFAFFF79CFA3B68BB4204D0BA698E
:105230009B6892689A420FD3002383F31188094B2D
:10524000039A1B689A4240460AD105B0BDE8F08F28
:105250000748FEF705FA99E70448FEF701FAEBE77D
:10526000FCF786FF000B0020705F002040EA00087A
:1052700060EA0008000000000000000000000000DC
:1052800030B50B490B4A0B680B4D0C4C83B022F028
:105290000702019301980A4B09682A6023F007036B
:1052A0008842236001D103B030BDFCF761FF00BF2D
:1052B000000B0020476E0020E4650020E065002020
:1052C00000000220000000000000000000000000BC
:1052D00070B51C4E82B0336801930446202383F3DB
:1052E0001188FFF725FAFEF75BFAFEF729FB164A4D
:1052F000164B15681B68E01D20F007005B1B9842E9
:105300009ABF401910600025FEF76AFAFFF728FAE5
:105310000F4B1A689A4204D0996993688A689A4236
:1053200009D3002383F31188019A33689A422846EF
:1053300005D102B070BD0748FEF792F9F1E7FCF71E
:1053400017FF00BF000B0020E4650020E06500208F
:10535000705F002080EA00080000000000000000EC
:1053600000B50B4B0B481A6883B0019201991A687B
:10537000094B036091424FF00003C0E9023305D1AD
:10538000103003B05DF804EBFFF70ABBFCF7F0FE4A
:10539000000B0020E8650020D1520008000000004A
:1053A00080B50D4A0D4982B000AF13687B604B6831
:1053B00023F001034B60EFF30983683383F309881B
:1053C000002383F3118879681368994202D1083762
:1053D000BD4680BDFCF7CCFE000B002030EF00E0A6
:1053E000B0B5194C82B000AF23687B60202383F3F3
:1053F0001188164B5B6813F4006308D183F311889E
:105400007A6823689A421DD10837BD46B0BDF1EED7
:10541000103AEFF309854FF080720D4B45F84C2C94
:10542000DB6845F8083CA5F1680383F30988FEF7BB
:105430000FFD18B1074B45F8503CE1E7064B45F826
:10544000503CDDE7FCF794FE000B002000ED00E08F
:1054500030EF00E0E1020008F40200080000000064
:1054600010B5184C82B02368019301F0E1FE164894
:1054700003F0FEF900F0D4F800F00AF900F050F95A
:1054800000F07EF900F0ACF900F0DAF900F008FA6B
:1054900000F0C6FA00F034FF00F03AFE00F0C0FF62
:1054A00001F006F800F0ACFF04F05AFC019A236802
:1054B0009A4204D102B0BDE8104000F0E1BFFCF711
:1054C00057FE00BF000B002090EE00080000000017
:1054D000F0B51A4D83B02B68019391420E461446E5
:1054E000074619D38B1A1F2B16D806F01F03581C1A
:1054F0006209012376098340B24203F1FF3304F0CD
:105500001F0457F822000BD31840E040019A2B6883
:105510009A4210D103B0F0BD0948FEF7A1F8E4E7C4
:1055200057F82610C4F120020B4020FA04F403FAC5
:1055300002F02043EAE7FCF71BFE00BF000B00204F
:1055400090EA0008000000000000000000000000D9
:10555000F0B51D4E83B033680193054670B37E22CB
:105560007F212846FFF7B4FF80B1012806D0002034
:10557000019A33689A4225D103B0F0BD2846302203
:105580004521FFF7A5FF01308002F1E73E224921C6
:105590002846FFF79DFF2F22044631212846FFF7BA
:1055A00097FF5022074653212846FFF791FF013409
:1055B00002370938BC4004FA00F0D9E70348FEF787
:1055C0004FF8CCE7FCF7D4FD000B0020B0EA000850
:1055D000F0B5104D83B02B680193044698B194F850
:1055E000D63094F8D770019994F8D4602A6894F86A
:1055F000D5001B0403EB07633344914203EB002007
:1056000005D103B0F0BD0448FEF72AF8E7E7FCF740
:10561000AFFD00BF000B0020D0EA00080000000032
:1056200000B5074B83B01A680192019A1B689A4231
:1056300004D103B05DF804EB01F0BABEFCF798FDAD
:10564000000B00200000000000000000000000002F
:1056500000B50C4B83B01A680192012202700199C7
:105660001A6800239142C0E90133C0E90333436162
:1056700005D1183003B05DF804EBFFF791B9FCF7E2
:1056800077FD00BF000B00200000000000000000BC
:1056900000B5074B83B01A680192019A1B689A42C1
:1056A00004D103B05DF804EB02F02ABCFCF760FD06
:1056B000000B0020000000000000000000000000BF
:1056C00030B5134B83B01A68019201220270019C1D
:1056D0001968002200F1180300F11C054260836183
:1056E00000F1200200F12403C561026200F12805E7
:1056F00000F1080243628C4200F110038562C0E9A8
:105700000222C0E9043301D103B030BDFCF730FD03
:10571000000B00200000000000000000000000005E
:1057200000B5074B83B01A680192019A1B689A4230
:1057300004D103B05DF804EB03F07AB8FCF718FD70
:10574000000B00200000000000000000000000002E
:1057500000B50A4B83B01A680192012202700199C8
:105760001A6800239142C0E9043305D1183003B010
:105770005DF804EBFFF714B9FCF7FAFC000B00200E
:1057800000B5074B83B01A680192019A1B689A42D0
:1057900004D103B05DF804EB02F0D2BBFCF7E8FCE7
:1057A000000B0020000000000000000000000000CE
:1057B00000B5084B83B01A68019201220270019A69
:1057C0001B6800219A42416002D103B05DF804FBDE
:1057D000FCF7CEFC000B00200000000000000000E1
:1057E00000B5074B83B01A680192019A1B689A4270
:1057F00004D103B05DF804EB03F0F2BFFCF7B8FC92
:10580000000B00200000000000000000000000006D
:1058100000B5084B83B01A68019201220270019A08
:105820001B6800219A42416002D103B05DF804FB7D
:10583000FCF79EFC000B00200000000000000000B0
:1058400000B5074B83B01A680192019A1B689A420F
:1058500004D103B05DF804EB03F022BAFCF788FC36
:10586000000B00200000000000000000000000000D
:1058700000B50A4B83B01A68019201220270019AA6
:105880001B6800219A42416005D10C3003B05DF8DD
:1058900004EBFFF785B8FCF76BFC00BF000B0020A2
:1058A00000B5074B83B01A680192019A1B689A42AF
:1058B00004D103B05DF804EB03F03ABEFCF758FCEA
:1058C000000B0020000000000000000000000000AD
:1058D00000B5084B83B01A68019201220270019A48
:1058E0001B6800219A42416002D103B05DF804FBBD
:1058F000FCF73EFC000B0020000000000000000050
:1059000070B51E4D82B02B6801930E46044670B3ED
:1059100069B3202383F31188FEF70AFFFDF740FFE8
:105920002378013B012B02D91548FDF799FE20464B
:10593000666003F025FE02232370FDF751FFFEF79A
:105940000FFF104B1A689A4204D0996993688A68CD
:105950009A4208D3002383F31188019A2B689A4254
:1059600009D102B070BD0848FDF77AFEF2E704489D
:10597000FDF776FECDE7FCF7FBFB00BF000B002038
:1059800000EB0008705F0020F0EA00080000000053
:1059900030B51C4D83B02B680193044658B32023C7
:1059A00083F31188FEF7C4FEFDF7FAFE2378022B7D
:1059B00002D01548FDF754FE204603F041FE0323B4
:1059C0002370FDF70DFFFEF7CBFE104B1A689A42CD
:1059D00004D0996993688A689A4208D3002383F3B4
:1059E0001188019A2B689A4209D103B030BD08484A
:1059F000FDF736FEF2E70448FDF732FECFE7FCF78D
:105A0000B7FB00BF000B002010EB0008705F002008
:105A1000F0EA0008000000000000000000000000A4
:105A200000B5074B83B01A680192019A1B689A422D
:105A300004D103B05DF804EB03F0BABFFCF798FBA8
:105A4000000B00200000000000000000000000002B
:105A500000B5094B83B01A680192012202700199C6
:105A60001A68002391424360C360037402D103B0FB
:105A70005DF804FBFCF77CFB000B0020000000003D
:105A800070B5104D82B02B6801930E46044650B19C
:105A900049B12379052B0CD00120019A2B689A4239
:105AA0000ED102B070BD0848FDF7DAFD2379052B51
:105AB000F2D1A36A73604FF4007333600020ECE707
:105AC000FCF756FB000B0020A0EB000800000000D4
:105AD0002DE9F047DFF89C8386B002AFD8F800309C
