:020000040800F2
:1000000000040020A1010008A10E0008A10E0008B4
:10001000A10E0008A10E0008A10E0008A10E000804
:10002000A10E0008A10E0008A10E0008810400081E
:10003000A10E0008A10E0008A10E0008A10E0008E4
:10004000A10E0008A10E0008A10E0008A10E0008D4
:10005000A10E0008A10E0008A10E0008A10E0008C4
:10006000A10E0008A10E0008A10E0008A1090008B9
:100070006109000821090008E1080008A10800083A
:100080006108000821080008110C0008A10E0008F2
:10009000A10E0008A10E0008A10E0008A10E000884
:1000A000A10E0008A10E0008A10E0008A10E000874
:1000B000410D0008A10E0008A10E0008A10E0008C5
:1000C000A10E0008A10E0008A10E0008A10E000854
:1000D000A10E0008A10E0008A10E0008A10E000844
:1000E000A10E0008A10E0008A10E0008A10E000834
:1000F000A10E0008A10E0008A10E0008E10B0008E7
:10010000A10E0008A10E0008A10E0008A10E000813
:10011000A10E0008A10E0008A10E0008A10E000803
:10012000E1070008A107000861070008210700088F
:10013000E1060008B10B0008A10E0008A10E00089E
:10014000A10E0008A10E0008A10E0008A10E0008D3
:10015000A10E0008A10E0008A10E0008A10E0008C3
:10016000A10E0008A10E0008A10E0008A10E0008B3
:10017000A10E0008A10E0008A10E0008A10E0008A3
:10018000A10E0008A10E0008A10E0008A10E000893
:10019000A10E0008A10E0008A10E0008A10E000883
:1001A00072B6214880F30988022080F31488BFF3D7
:1001B0006F8F00F0F5FE4FF055301C491C4A9142FC
:1001C0003CBF41F8040BFAE71A49174A91423CBF79
:1001D00041F8040BFAE71849184A194B9A423EBFF6
:1001E00051F8040B42F8040BF8E700201549164AB1
:1001F00091423CBF41F8040BFAE701F0A1FD134C1A
:10020000134DAC4203DA54F8041B8847F9E701F0B8
:1002100027F9104C104DAC4203DA54F8041B884700
:10022000F9E701F085BD0000000800200000002073
:100230000004002000040020F02000080008002036
:10024000000800200008002090120020A0010008F3
:10025000A0010008A0010008A001000800000000A3
:100260002DE9F04FC1F80CD0D0F80CD0BDE8F08FDC
:1002700000F036FF00F0E4FE002383F311882846E7
:10028000A047002001F014F800F0E2FE00F058FF53
:1002900000F0E6FE00F024FF00F0D2FE00DFFEE7F3
:1002A0002DE9F043324C2369B3F8028018F0010FB6
:1002B00058D1D4F828E05D69DEF808601A78A16B9F
:1002C000E76806F470363543DE6846F0010C3AB153
:1002D000012F45F4005594BF41F0200141F0240165
:1002E000626BA0681668E26AF0604FEA580007FB8C
:1002F00000F777603160D6F80080216B1F6AD3F871
:10030000109048F001043460CEF80850D3E9065448
:100310001668D3F824E0166001389026566040EA4B
:100320000708DE6A9F6AC2F8209055611D6B9461D0
:100330005C6BC2F83080C2F834E09763D6634D61DD
:100340008C61D3E90E65D3E91043304308634D63F4
:100350008C63CB63C2F80CC0936843F004039360D2
:10036000BDE8F08372B6034B034ADA62FEE700BFD2
:100370000008002078080020C01E000800000000CF
:10038000FEE700BF000000000000000000000000C9
:10039000704700BF000000000000000000000000E7
:1003A000044888420CBF044904490B6813440B609D
:1003B000704700BF240F0020DC0E0020E00E00205C
:1003C000416BC26A30B4D1E90045206820F00F00CB
:1003D0002060097A0F238B402B609368590706D55C
:1003E000936843F0100393609368DB06FCD430BC41
:1003F000704700BF00000000000000000000000087
:100400004FF08043DA68920701D55863704772B69F
:10041000014B024ADA62FEE778080020101E00084D
:10042000202383F31188114B5B6813F4006302D11E
:1004300083F31188704780B400AFEFF309834FF066
:10044000807243F8042CA3F1200282F30988084A41
:10045000116892698968926891428CBF054A064A80
:1004600043F8082CBD4680BC704700BF00ED00E09B
:1004700078080020890200089C02000800000000A3
:1004800080B400AFEFF30983203383F3098800239E
:1004900083F31188BD4680BC704700BF0000000098
:1004A000034AD2F8A8340133C2F8A834704700BF19
:1004B000780800200000000000000000000000009C
:1004C0000E4B42685B68F0B48B60D0E90261D0E902
:1004D00004459B1BE61845F1000701319342C0E932
:1004E0000231C0E9046705D80268934238BF03604F
:1004F000F0BC70474360F0BC704700BF001000E0E4
:100500000F4B104A5B68C168F0B48468D2F8A064ED
:1005100042681B1BD0E904459B1BE61845F1000708
:1005200001319342C0E90231C0E9046705D802688D
:10053000934238BF0360F0BC70474360F0BC704723
:10054000001000E07808002000000000000000001B
:100550000148FFF7D5BF00BF400D0020000000009C
:10056000014B5B6883607047001000E000000000F2
:100570000148FFF7F5BF00BF400D0020000000005C
:100580000B4A30B4D36B446A91694FF080456D6A71
:100590001D60C3E9011490F820101973103302F59F
:1005A00088618B4228BF02F14003D36330BC70479F
:1005B000780800200000000000000000000000009B
:1005C000054B1A6B1AB95A6B002A00DD704772B6D8
:1005D000024ADA62FEE700BF78080020A020000887
:1005E000054B1A6B002A03DB5A6B002A00DD7047AB
:1005F00072B6024ADA62FEE778080020902000080E
:1006000008B5FFF7EDFFD0B190F8203001468BB16F
:100610000F2B0FD000220C4B806881F820201B6824
:100620009A688242FBD25A680846C1E900321160DA
:10063000596008BD72B6044B044ADA62FEE772B62E
:10064000014B024ADA62FEE778080020A01D00088C
:10065000036873B193F82020032A04D072B6054BC7
:10066000054ADA62FEE70022026018465962FFF787
:10067000C7BF704778080020D01D000800000000A8
:10068000202383F31188074B1A6B002A01DD596B75
:1006900019B172B6044ADA62FEE7013A1A6381F3CD
:1006A0001188704778080020F01E00080000000044
:1006B000202383F31188074B1A6B002A01DB596B47
:1006C00019B172B6044ADA62FEE701321A6381F3A5
:1006D0001188704778080020E01E00080000000024
:1006E00010B5FFF7DDFEFFF7E3FF084B0848196878
:1006F000826DC1F303410C045C600AB1C06D904788
:10070000FFF7BEFFBDE81040FFF78ABE00040240BD
:10071000700E00200000000000000000000000003B
:1007200010B5FFF7BDFEFFF7C3FF084B0848196877
:10073000026DC1F303310C035C600AB1406D904758
:10074000FFF79EFFBDE81040FFF76ABE00040240BD
:10075000700E0020000000000000000000000000FB
:1007600010B5FFF79DFEFFF7A3FF084B0848196877
:10077000826CC1F303210C025C600AB1C06C90472B
:10078000FFF77EFFBDE81040FFF74ABE00040240BD
:10079000700E0020000000000000000000000000BB
:1007A00010B5FFF77DFEFFF783FF084B0848196877
:1007B000026CC1F303110C015C600AB1406C9047FC
:1007C000FFF75EFFBDE81040FFF72ABE00040240BD
:1007D000700E00200000000000000000000000007B
:1007E00008B5FFF75DFEFFF763FF084B084819687F
:1007F000826B01F00F0159600AB1C06B9047FFF79F
:100800003FFFBDE80840FFF70BBE00BF00040240F9
:10081000700E00200000000000000000000000003A
:1008200010B5FFF73DFEFFF743FF084B0848196876
:10083000026BC1F303610C065C600AB1406B904728
:10084000FFF71EFFBDE81040FFF7EABD00000240C1
:10085000700E0020000000000000000000000000FA
:1008600010B5FFF71DFEFFF723FF084B0848196876
:10087000826AC1F303510C055C600AB1C06A9047FB
:10088000FFF7FEFEBDE81040FFF7CABD00000240C2
:10089000700E0020000000000000000000000000BA
:1008A00010B5FFF7FDFDFFF703FF084B0848196877
:1008B000026AC1F303410C045C600AB1406A9047CC
:1008C000FFF7DEFEBDE81040FFF7AABD00000240C2
:1008D000700E00200000000000000000000000007A
:1008E00010B5FFF7DDFDFFF7E3FE084B0848196878
:1008F0008269C1F303310C035C600AB1C06990479F
:10090000FFF7BEFEBDE81040FFF78ABD00000240C1
:10091000700E002000000000000000000000000039
:1009200010B5FFF7BDFDFFF7C3FE084B0848196877
:100930000269C1F303210C025C600AB1406990476F
:10094000FFF79EFEBDE81040FFF76ABD00000240C1
:10095000700E0020000000000000000000000000F9
:1009600010B5FFF79DFDFFF7A3FE084B0848196877
:100970008268C1F303110C015C600AB1C068904742
:10098000FFF77EFEBDE81040FFF74ABD00000240C1
:10099000700E0020000000000000000000000000B9
:1009A00008B5FFF77DFDFFF783FE084B084A19687D
:1009B00001F00F01596013680BB150689847FFF7B9
:1009C0005FFEBDE80840FFF72BBD00BF00000240FE
:1009D000700E002000000000000000000000000079
:1009E000064B1A6B002A05DD5A6B002A02DD002235
:1009F0005A63704772B6024ADA62FEE7780800204E
:100A0000301F00080000000000000000000000008F
:100A1000064B1A6B002A01DD5A6B1AB172B6044AF2
:100A2000DA62FEE701225A63704700BF78080020AF
:100A3000101F00080000000000000000000000007F
:100A40000369002B00F0878070B5CE0604460D4682
:100A500004D5436B1B685B68002B7DD1290652D4FB
:100A6000EA0528D4AB0500D470BD2046FFF7A8FCEA
:100A700023699B684BB105222270042120469847C8
:100A80002378052B04BF0223237000252561202332
:100A900083F31188FFF76CFDFFF7BAFF04F1140030
:100AA0004FF0FF31FFF7D4FDFFF79AFFFFF750FD3E
:100AB00085F3118870BD2046FFF782FC23699B688F
:100AC0004BB1052222700321204698472378052B3D
:100AD00004BF0223237000262661202383F311889C
:100AE000FFF746FDFFF794FF04F114004FF0FF31CC
:100AF000FFF7AEFDFFF774FFFFF72AFD86F31188BD
:100B0000AB05B1D5B1E72046FFF75AFC23699B68D6
:100B10004BB1052222700221204698472378052BED
:100B200004BF0223237000262661202383F311884B
:100B3000FFF71EFDFFF76CFF04F114004FF0FF31CB
:100B4000FFF786FDFFF74CFFFFF702FD86F31188E4
:100B5000EA0587D5AFE77047FFF732FC23699B684A
:100B60004BB1052222700121204698472378052B9E
:100B700004BF0223237000262661202383F31188FB
:100B8000FFF7F6FCFFF744FF04F114004FF0FF31CC
:100B9000FFF75EFDFFF724FFFFF7DAFC86F311880D
:100BA00029067FF55DAFAEE7000000000000000001
:100BB00008B5FFF775FCFFF77BFD064B0648196883
:100BC0001960FFF73DFFFFF75BFDBDE80840FFF749
:100BD00027BC00BF000500503C08002000000000BA
:100BE00008B5FFF75DFCFFF763FD064B0648196883
:100BF0001960FFF725FFFFF743FDBDE80840FFF749
:100C00000FBC00BF000400503C08002000000000A2
:100C100010B5FFF745FCFFF74BFD094A09484FF0B7
:100C2000A0410B68146823430B6019461360FFF75B
:100C300007FFFFF725FDBDE81040FFF7F1BB00BF40
:100C4000000100500008002000000000000000002B
:100C500070B50E07044616D40369002B37D08D07F4
:100C600036D51A78002A3ED05D6885B3D0E90212E5
:100C7000012A5FD95B885208540004FB03112B46FC
:100C8000BDE870401847FFF79BFB23699B684BB199
:100C9000052222700021204698472378052B04BFA7
:100CA0000223237000252561202383F31188FFF799
:100CB0005FFCFFF7ADFE04F114004FF0FF31FFF7CA
:100CC000C7FCFFF78DFEFFF743FC85F3118870BD6D
:100CD0004A07FCD55B68002BF9D0D0E90212BDE8C9
:100CE000704052081847FFF76BFB23695B68E3B15C
:100CF000042222702046D4E9021298472378042B5C
:100D000013D0202383F31188FFF732FCFFF780FE16
:100D100004F114000021FFF79BFCFFF761FEFFF7D1
:100D200017FC002383F3118870BD02220023227078
:100D30002361E6E72B46BDE870401847000000003D
:100D40002DE9F0474FF08046FFF7AAFBFFF7B0FC14
:100D500033699B0705D4FFF793FCBDE8F047FFF725
:100D60005FBB002737614FF0200888F311882E4CB5
:100D7000FFF7FEFBFFF74CFEFFF732FCFFF730FCFE
:100D8000E569736AA16AAA68581A904249D3B946BC
:100D9000374604F11C062B68D5F80CA01144B34269
:100DA000A1625E60E361C5F80C9008BFC7F80C90C3
:100DB000FFF716FEFFF7CCFB89F311882869D047AF
:100DC00088F31188FFF7D4FBFFF722FEE5697B6A01
:100DD000A16AAA68581A8242DDD9B54214D01144DA
:100DE000C91A02292CBF5918991C0846FFF708FB9D
:100DF0004FF08043A06A5A6A0B1A121A9A4203D91A
:100E000072B60A4BE362FEE7FFF7EAFDFFF7A0FBCD
:100E1000002383F31188FFF733FCBDE8F047FFF7A9
:100E2000FFBA04F11C06D8E778080020901D0008DE
:100E300008B50146202383F31188FFF799FBFFF7DC
:100E4000E7FD91F82030072B10D8DFE803F0150FED
:100E50000F1D0A040F0A486AFFF7C2FB83680133BB
:100E60008360D1E900231A600A6853604FF0FF33B2
:100E70004B620846FFF7C4FBFFF7B2FDFFF768FBC4
:100E8000002383F3118808BD4B6A00221A604FF0DB
:100E9000FF334B620846FFF7B3FBEDE700000000AD
:100EA00072B6024B024ADA62FEE700BF7808002001
:100EB000D01F00080000000000000000000000003B
:100EC00070B5194D0446FFF77BFBA869A2688368DB
:100ED00061629A421ED9FFF793FB012384F8203008
:100EE0000646AC61FFF74CFBD5F8AC344830013313
:100EF00004F14801C5F8AC34FFF7E2FAEFF30983D7
:100F0000F269243B9A420AD831462046BDE8704037
:100F1000FFF7A6B92046BDE87040FFF771BB72B677
:100F2000024BEB62FEE700BF78080020B02000080B
:100F300038B5164CFFF744FBA569236885F82000F7
:100F40001A68226001215460284683F82010A361AA
:100F5000FFF716FBD4F8AC34A169013305F1480062
:100F60004831C4F8AC34FFF7ABFAEFF30983EA6910
:100F7000243B9A4205D82946A069BDE83840FFF7CE
:100F80006FB972B6024BE362FEE700BF780800203B
:100F9000B020000800000000000000000000000079
:100FA000234B1A6842F001021A601A689207FCD5B6
:100FB00059681F4A21F00301596059685960536804
:100FC00013F00C03FBD11068194900F0F900106010
:100FD0005360136843F4A02313600B689803FCD597
:100FE0004B6A134A43F001034B62536A9907FCD5DD
:100FF000104B53604FF404513023D16213631368D4
:101000000B4943F0807313600B689B01FCD50A4BBE
:10101000074A122018604B6843F002034B60536884
:1010200003F00C03082BFAD1136B1363704700BF56
:101030000010024000241D000020024000000000BB
:101040000148FFF75DBA00BF280D00200000000036
:101050000148FFF785BA00BF280D002000000000FE
:1010600070B51B4C2268A5691368AE682360012027
:1010700000215C6082F82000A26185F8201000E069
:101080001B689A689642FBD35A682846C5E9003225
:1010900015605D60FFF774FAD4F8AC34A1690133D0
:1010A000483105F14800C4F8AC34FFF709FAEFF312
:1010B0000983EA69243B9A4205D82946A069BDE81C
:1010C0007040FFF7CDB872B6024BE362FEE700BF97
:1010D00078080020B0200008000000000000000098
:1010E000054B1A6B22B9596B002901DD5A63704711
:1010F00072B6024ADA62FEE778080020201F000874
:1011000008B5FFF7EDFFFFF79BFF084B1A689A42FF
:1011100004D0996992688968914203D3002383F3CC
:10112000118808BD72B6024ADA62FEE7780800202C
:10113000801D00080000000000000000000000000A
:10114000054B1A6B0AB95A6B1AB172B6034ADA62C6
:10115000FEE701225A63704778080020001F00084C
:101160002DE9F843054600F1600604461746984607
:10117000FF2004F8010BA642FBD16A18944205D265
:101180002046552300F8013B8242FBD1202383F304
:101190001188FFF75DFFFFF7D3FFFFF721FA24392E
:1011A0006818E860234E45F80180234A0262002156
:1011B00041602E617269A96102230120C5E90E1107
:1011C0006A61AF602B8485F8220005F128032F6443
:1011D0004FF0FF3015614FF0000805F12C024FF081
:1011E0000009AB62C5E913116965C5E90B22A86462
:1011F000EC6105F14800C5E916897561FFF7B0F9A2
:101200002846FFF75DFEFFF76BFFFFF719FF336816
:10121000B34204D0B2699B6892689A4205D3002316
:1012200083F311882846BDE8F88372B6034BF36256
:10123000FEE700BF7808002071020008601D00086A
:1012400010B50146202383F31188FFF701FFFFF754
:1012500077FFFFF7C5F91148114B04681A68CB1DD9
:1012600023F00703121B93429ABF1B19036000244B
:10127000FFF736FFFFF7E4FE0A4B1A689A4204D0E4
:10128000996992688968914204D3002383F3118895
:10129000204610BD72B6044ADA62FEE7D80E00207E
:1012A000D40E002078080020701D00080000000007
:1012B00008B50146202383F31188114DFFF7C8FEBE
:1012C000FFF73EFFAC69A06A616204F12806B042F4
:1012D00006D00268A262FFF793F9A06AB042F8D183
:1012E00094F821309B0704D1D4E904231A612269C0
:1012F00053610F20FFF71CFE72B6024BEB62FEE754
:1013000078080020B01D0008000000000000000068
:10131000F0B5202387B0074683F31188494C254652
:10132000FFF796FEFFF70CFFFFF74AF9FFF758F9B2
:10133000A36955F81C2F05934FF08043424904914F
:10134000AA42586A1CD0A16A93683844411A99424B
:1013500071D3E3699A688A4204D21B68891A9A6831
:101360008A42FAD35A68029201AE019316605E6017
:1013700003919A68521A4FF0FF319A6061620FE050
:101380000397D968A06201AE11F00201CDE90122F4
:101390003844C4E9076631D1022258631961DA6022
:1013A0000820FFF7C5FDFFF71BF9049B8BB1FFF782
:1013B00017F9E369019AB34224D002990A60019BAC
:1013C0000022AB425960049203D09A6803990A4400
:1013D0009A60FFF785FEFFF733FE2368A34204D02F
:1013E000A2699B6892689A4204D3002383F3118810
:1013F00007B0F0BD72B6154BE362FEE772B6144B50
:10140000E362FEE70023AA42E2615560049315D02F
:1014100093680398A16A03444FF080409360406A48
:10142000421A9342D5D99B1A022B2CBFC018023006
:10143000FEF7E6FFCDE7FEF7E3FF8AE74FF08042D5
:10144000D360C6E778080020310E0008601D000850
:10145000F01D000800000000000000000000000077
:101460001A4B1B489A6A4FF0FF3100222DE9804841
:1014700099629A621C6919611A61DC68D960DA6044
:10148000D96941F08051D961016841F480710160EE
:10149000196A01F44071B1F5007F89B003D04FF4AF
:1014A000803119621A62094B1A6A160407D41A6A43
:1014B00042F400721A621A6A42F400421A62054A41
:1014C0000549002313601D46044A0BE0001002404A
:1014D00000700040D00E002008000240401F0008AD
:1014E00052F80C1F0D60DC4941F8335001330C2BCE
:1014F000F6D1DFF8A493DFF8A483DFF8A4A3D74BD9
:10150000DFF8A0B3DFF8A0E3D54FD64EDFF89CC3D9
:10151000D54AD64CD6484FF0FF31C9F80410C8F868
:101520000410DAF81880D34948F00108CAF8188086
:10153000D3F8008048F02008C3F80080DAF814805F
:10154000CD4B48F4FC08CAF814804FF090484FF691
:10155000FF79C8F80450C8F80810C8F80CB0DFF8D4
:1015600050B3C8F81490C8F820B04FF46E2BC8F8E8
:1015700024B0DFF840B3C8F800B04FF0C008CEF890
:1015800004804FF2C008CEF80880DFF82C83CEF834
:101590000C804FF08848CEF81490CEF820804AF2A4
:1015A0008008CEF82450CEF800804FF0704EDFF85F
:1015B0000C837D60DFF808B3C7F808E0C7F80C803B
:1015C0004FF0553EDFF8FC82C7F81490AB493D62FE
:1015D0007D623D60CCF80450CCF80850CCF80CE0AB
:1015E000CCF814904FF0FF0ECCF820507560CCF87A
:1015F0002450B560CCF800505560DFF8CCC2F560DF
:10160000C2F80880C2F80CB04FF00F08DFF8BCB287
:10161000C2F814E015624FF0A04E35615562756155
:10162000C2F800C06560DFF8A8C23562C4F808805F
:10163000C4F80CB0C4F814902562716390496562D7
:101640000122C6F828C04FF4802825604FF0500CC6
:10165000C6F82CE031634FF4004E4FF0005406F111
:10166000180B42F68A21C6E906BB3270B16380F8D6
:1016700012C3C0F88081C0F800801A7080F82FC3B0
:10168000C0F884E1C0F804E080F83DC3C0F88441AC
:101690004460DAF81C40DFF83C925D601443CAF8FD
:1016A0001C40D9F80840DFF830E2C3F828E044EAEB
:1016B000020142F68A249C63DFF820C2DFF820B2E0
:1016C000DFF82082DFF820E2C3F82CB04FF080442E
:1016D000C3F83080C3F834E09D60C3E903555D6111
:1016E0001D6203F11808C9F808104FF0805E4FF032
:1016F000FF3141F61F4B4FF08009C4F828B0C3F802
:101700001880E162C3F81C80A5616563E5606560CF
:1017100062612260009280F81C93C0F880E1C0F8FA
:1017200000E0CCF80850DCF80C00564BDFF8BC8128
:10173000554CDFF8BCE14FF6FF0900EA090003430E
:10174000CCF80C30D8F80C30646043F08073C8F8E3
:101750000C30DEF80030A560134310204FF020025B
:10176000CEF800304FF000088CF81F0004F11C0385
:101770008CF822204FF0000902A82460CDE9021560
:10178000C4E90915C4E90733CDE90455C4E90444A3
:10179000C4F8A054CDE90689FEF7E2FE02A8FEF7E0
:1017A000AFFE3A48DFF84CE1394BDFF84CC19D61A0
:1017B00020F0070B04F59860C0E9008904F59B60F0
:1017C000C0E9008904F14000E06302204FF0FF32DD
:1017D000A4F860042F48C4F8B0242EF0070EC4F813
:1017E000C824009ACCF800E0C0F800B084F8622465
:1017F00003F110004FF0400B0192DFF800C1049A92
:10180000C4F8A024C3F800C0C3E90400C3E902552A
:10181000C4F8A854C4F8AC54C4F8B454C4F8B854C8
:10182000C4F8BC54C4F8CC54C4F8D054C4F8D4544C
:10183000C4F87C54C4F87854C4F85854C4F85044DC
:10184000C4F838B0C4F848B46069C4F8540404F566
:101850008863C4F880B453E0700E0020000001409B
:10186000000800480008002000100048001400484C
:1018700000E100E000FCC03C3C080020401F0008E4
:10188000000100500003FA057808002000A00020A5
:10189000500E0020D40E0020000002400004024040
:1018A000001002405411156400040048000C004868
:1018B0000000505500A8802A150555555555550569
:1018C00015551501C000FFFF4000555550555555A1
:1018D00000030050002004E00007005000ED00E08D
:1018E0000004005000050050C41F0008F0ED00E0A7
:1018F000001000E097120020D80E002041120008CE
:101900000093036104F5916063614FF0FF3304F2CB
:101910006C4104F58D6EC4F8883404F5936C00F1C5
:101920001803C4F85C34C4F86C14C4F87014C4F818
:101930008C54C4F89054C4F89454C4F868E4CCE9C6
:101940000089FEF70DFE216BA348009B019AA3615D
:1019500084F86024C4F85C0409B9656B1DB172B6E3
:101960009E4BE362FEE785F3118862B6A3699C494A
:10197000996104F59C609B4BF821FFF7F1FB3B6AF2
:10198000994A826123F0F0033B627A68974B98484A
:1019900022F002027A60BA6822F00C02BA60FA6899
:1019A00022F00C02FA603A6842F00C023A603A6A9D
:1019B00022F470623A627A6822F004027A60BA68AD
:1019C00022F03002BA60FA6822F03002FA60396818
:1019D00041F0300139605A464FF4B471FFF7C0FB53
:1019E000202383F31188FFF733FBFFF7A9FB33783C
:1019F0005A1E012A03D972B67E4BE362FEE7012B21
:101A0000756066D002233370FFF77AFB202383F3DF
:101A10001188FFF71DFBFFF793FB73691BB172B6CB
:101A2000754BE362FEE7FEF7DBFD3378022B06D051
:101A3000043B012B03D972B6704BE362FEE7704B97
:101A4000704AB26003250822C6E903233570FEF709
:101A500027FC7269A3691AB172B66B4BE362FEE7A9
:101A60006A4A5A6228467361FFF762FAFFF748FB39
:101A700042F21070FFF74CFC202383F31188FFF72C
:101A8000E7FAFFF75DFBFEF7ABFD3378022B06D0DC
:101A9000043B012B03D972B6584BE362FEE75C4A64
:101AA0005C4BB36010210323C6E903123370FEF7C9
:101AB000F7FBFFF725FBDFF87C814FF090472025EF
:101AC0003B69DB0700F1BA8041F28830FFF720FC68
:101AD000F6E7726B002A7BD04F48517A00688B4042
:101AE000034262D14D4FDFF850C147F831C007EBD8
:101AF000C105034348486E605D06036005D0DAF80F
:101B0000141041F00101CAF8141013F4786F04D0D6
:101B100043494B6943F002034B61D2E9000103687A
:101B20003F4F23F00F030360157A0F23AB400025CE
:101B30000B600560927A530902F1604101F5614141
:101B40009B004FF0500C03F1604381F800C303F594
:101B50006143012102F01F0201FA02F2C3F8802161
:101B60001A60D7F814C0326B2E49D6E90AE34CF05C
:101B7000805CC7F814C00EF10C0787604FF08050EE
:101B80004FF4C037CEF808709D60986090604D6843
:101B90004868401BB0F5347FFAD39968B1F1805F93
:101BA00007D072B6204BE362FEE772B61F4BE362CA
:101BB000FEE7996841F00041996099680029FCDBD3
:101BC0009168B1F1805F73D072B6174BE362FEE7A4
:101BD00072B6174BE362FEE700040020E020000825
:101BE000C020000881030008E8200008F11C00085C
:101BF00028110020001E0008801E0008201E00087A
:101C0000F01F0008E40E0020C01D0008140800208A
:101C100040200008240F0020D00E0020700E00206D
:101C200000100240001000E0401E0008B01E000836
:101C3000901E000800080020510C000885F3118850
:101C4000FFF706FAFFF77CFA33789A1E012A2BD8A1
:101C5000022B404614D0FEF7B3FB7069002302222A
:101C60003361327060B190F82020032A6FF00101D7
:101C700003D072B6194BE362FEE77361FFF720F9F8
:101C8000FFF72EFAFFF7DCF92368A34204D0A2691C
:101C90009B6892689A4203D3002383F3118813E769
:101CA00072B60F4BE362FEE772B60E4BE362FEE7DD
:101CB000916841F00041916091680029FCDB9968CE
:101CC00041F0010199601968C807FCD5936843F099
:101CD000010393601368D907FCD593E6E01D000863
:101CE000801D0008601E00080000000000000000C9
:101CF00008B5094B094A9B69094C9A614FF4005594
:101D00002E46268341F28830FFF702FB658341F2BD
:101D10008830FFF7FDFAF4E778080020501D00082E
:101D2000001000480000000000000000000000005B
:101D3000FEE700BF000000000000000000000000FF
:101D4000704700BF0000000000000000000000001D
:101D5000626C696E6B65720000000000000000009C
:101D60006368537973556E6C6F636B0000000000FD
:101D70006368537973556E6C6F636B0000000000ED
:101D80006368537973556E6C6F636B0000000000DD
:101D900063685654446F5469636B49000000000047
:101DA000636853636852656164794900000000000C
:101DB000636854686445786974530000000000004B
:101DC000636854686453757370656E6453000000F3
:101DD0006368546864526573756D6549000000005E
:101DE0006368546864526573756D65530000000044
:101DF00073745374617274416C61726D0000000001
:101E0000616463537461727400000000000000009C
:101E10007374536574416C61726D000000000000C2
:101E20006164635374617274436F6E766572736933
:101E30006F6E49000000000000000000000000007C
:101E40006164635F6C6C645F63616C69627261742E
:101E5000650000000000000000000000000000001D
:101E600061646353746F70436F6E76657273696FEC
:101E70006E000000000000000000000000000000F4
:101E8000616463436F6E7665727400000000000049
:101E9000646D6153747265616D416C6C6F636174E4
:101EA00065000000000000000000000000000000CD
:101EB0006164635F6C6C645F7374617274000000D2
:101EC0006164635F6C6C645F73746172745F636F91
:101ED0006E76657273696F6E00000000000000008E
:101EE00053562338000000000000000000000000EE
:101EF00053562339000000000000000000000000DD
:101F000053562334000000000000000000000000D1
:101F100053562336000000000000000000000000BF
:101F200053562335000000000000000000000000B0
:101F3000535623370000000000000000000000009E
:101F4000080002400400024000000B001C00024098
:101F50000400024004010C00300002400400024072
:101F600008020D0044000240040002400C030E0071
:101F7000580002400400024010040F006C000240B0
:101F800004000240140510008000024004000240DA
:101F9000180611000804024004040240000738003B
:101FA0001C040240040402400408390030040240CA
:101FB0000404024008093A004404024004040240B8
:101FC0000C0A3B005804024004040240100B3C0081
:101FD000756E68616E646C656420657863657074A5
:101FE000696F6E00000000000000000000000000AB
:101FF0000000040000000000910300080020000021
:102000000000FF0F010000000000000000000000C1
:10201000C08100000000000000000000000000007F
:10202000000000000000000000720000000000003E
:1020300000000000000000000000000000000000A0
:1020400001001000A1030008910300080020000017
:102050000000FF0F01008001000080040000B400B8
:10206000C0811C08070245000000000000000000BD
:10207000000080040000B40000722007C811410075
:102080000000000000000000000000000000000050
:102090005356233130000000000000000000000013
:1020A0005356233131000000000000000000000002
:1020B000737461636B206F766572666C6F77000076
:1020C0006D61696E00160118040460080C10141884
:1020D0001C20212200000000000000000000000081
:1020E000535623330000000069646C650000000053
:04000005080001A14D
:00000001FF
