:020000040800F2
:1000000000040020A10100082114000821140008A8
:1000100021140008211400082114000821140008EC
:1000200021140008211400082114000811080008F8
:1000300021140008211400082114000821140008CC
:1000400021140008211400082114000821140008BC
:1000500021140008211400082114000821140008AC
:10006000211400082114000821140008211400089C
:10007000211400082114000821140008211400088C
:10008000211400082114000821140008211400087C
:10009000211400082114000821140008211400086C
:1000A000211400082114000821140008211400085C
:1000B000E110000821140008211400082114000890
:1000C000211400082114000821140008211400083C
:1000D000211400082114000821140008211400082C
:1000E000211400082114000821140008211400081C
:1000F000211400082114000821140008211400080C
:1001000021140008211400082114000821140008FB
:1001100021140008211400082114000821140008EB
:1001200021140008211400082114000821140008DB
:1001300021140008211400082114000821140008CB
:1001400021140008211400082114000821140008BB
:1001500021140008211400082114000821140008AB
:10016000211400082114000851100008F19600081D
:10017000211400082114000821140008211400088B
:10018000211400082114000821140008211400087B
:10019000211400082114000821140008211400086B
:1001A00072B6214880F30988022080F31488BFF3D7
:1001B0006F8F01F0EDFF4FF055301C491C4A914202
:1001C0003CBF41F8040BFAE71A49174A91423CBF79
:1001D00041F8040BFAE71849184A194B9A423EBFF6
:1001E00051F8040B42F8040BF8E700201549164AB1
:1001F00091423CBF41F8040BFAE709F051FC134C63
:10020000134DAC4203DA54F8041B8847F9E706F0B3
:10021000DFF8104C104DAC4203DA54F8041B884749
:10022000F9E709F035BC00000008002000000020BC
:100230000004002000040020E8B5000800080020A9
:10024000781200207812002038250020A001000834
:10025000A0010008A0010008A001000800000000A3
:100260002DE9F04FC1F80CD0D0F80CD0BDE8F08FDC
:1002700001F0F6FF01F0DCFF002383F3118828462C
:10028000A047002005F0F4F801F0DAFF02F0C8F80A
:1002900001F0DEFF01F0E4FF01F0CAFF00DFFEE73E
:1002A000014B01221A7070476823002000000000F3
:1002B000FEE700BF0000000000000000000000009A
:1002C000022906D0032906D00129064818BF0020BC
:1002D000704705487047032A9ABF044800EBC200E4
:1002E0000020704790B3000830B3000850B40008F5
:1002F000024B0022C3E900339A607047141C0020AF
:10030000704700BF00000000000000000000000077
:10031000704700BF00000000000000000000000067
:1003200030B4084A084B09481B60151D04240021FD
:100330001D619C605B60DA60C3E90522C3E90701C7
:1003400030BC7047381C0020AC0C002001030008B2
:10035000084A094B094810B40021141D1C611B6098
:100360005B60DA60C3E90522D8619960196210BC4C
:10037000704700BF381C0020140C00200103000847
:10038000084B094910B400224FF4E06403F1100057
:10039000C1E900249960C3E904001A60DA609A6137
:1003A00010BC7047B01B0020381C0020000000006B
:1003B000FFF7E6BF000000000000000000000000A2
:1003C0000020704700000000000000000000000056
:1003D000084B094910B400224FF4E06403F1100007
:1003E000C1E900249960C3E904001A60DA609A61E7
:1003F00010BC704748230020381C0020000000007B
:1004000020B370B584B06D462C46114E00E0144602
:10041000A6FB0023DB0803EB8301A0EB410000F106
:1004200030012246C9B202F8011B1846002BEED15A
:10043000AA4209D9074E01E014F8011D306803688B
:100440009B689847A542F7D104B070BD704700BFC4
:10045000CDCCCCCC301B0020000000000000000000
:1004600028B9044B1868036830219B681847FFF7C8
:10047000C7BF00BF301B00200000000000000000CC
:1004800070B5084D4C24286803682D219B68984757
:10049000013CF8D128680449036802221B68BDE8C2
:1004A00070401847301B00206CA7000800000000B7
:1004B000F0B40E4E0E4F356801393B4603E013F899
:1004C000014B944208D19D4211F8012FF7D81AB977
:1004D00037601046F0BC7047064C0749074B0122B5
:1004E000227018600A701046F0BC704790230020FC
:1004F0008023002040230020041C0020AC1B00208F
:1005000051B910B40649074C074A01232370106003
:100510000B70184610BC704700231846704700BF88
:10052000041C002040230020AC1B00200000000021
:1005300070B5017889B10A4D0446286803689B6844
:10054000984714F8011F0029F7D128680549036866
:1005500002221B68BDE870401847014DF5E700BF57
:10056000301B00206CA70008000000000000000005
:10057000017859B138B5064D0446286803689B6870
:10058000984714F8011F0029F7D138BD704700BF04
:10059000301B0020000000000000000000000000F0
:1005A00000EB8101C9688A69536833B1498A0B44F9
:1005B000013BB3FBF1F313827047012313827047B1
:1005C00000EB8103F0B4DC68236803F00303013B14
:1005D000022B9CBF324A32F81330A26888BF4FF416
:1005E00000730AB143F02003E2680AB143F40053F8
:1005F00043EA01028D0022F4784205F1804505F5B9
:10060000B84548F2800622F0F00232432A602F6893
:10061000628A47F6700C03EA0C037B4033433E2AA0
:100620002B6002F1FF3328D943F01F0301331D4D26
:100630005B1145EA83239BB21B4E258A346D04F17E
:10064000005404F5405404EBC101490000244C60FF
:10065000CB60D0F880402544B5F5007FC0F88050CD
:1006600019D80C60D0F880301A44B2F5007FC0F879
:1006700080200BD88B60F0BC704743F0010301333E
:1006800003EBD3735B0203F47C43D5E772B6074BED
:10069000074ADA62FEE772B6044B054ADA62FEE701
:1006A000009C00080080FFFF005C004058150020FF
:1006B000A0A10008000000000000000000000000F1
:1006C0000D4B0E4859680E4AC96830B40029D860ED
:1006D0004FF000010CBF4FF41C404FF41E4080252A
:1006E000402411655164D5641064C3F880401846F5
:1006F00030BCFFF765BF00BFD0140020D0A70008B2
:10070000005C00400000000000000000000000004D
:1007100090F87630426880F87E300649126843F0DF
:10072000800310B50446CB640AB10121904703232E
:10073000237010BD005C00400000000000000000BD
:10074000704700BF00000000000000000000000033
:1007500090F8743003F06003202B01D00020704724
:1007600090F87530202BF9D3212B07D8074B8366DF
:1007700007220023C0E91B2301207047222BEDD163
:100780000023C0E91A33036701207047380C0020AA
:100790004FF08043DA68920701D55863704772B60C
:1007A000014B024ADA62FEE75815002080A10008DA
:1007B000202383F31188114B5B6813F4006302D18B
:1007C00083F31188704780B400AFEFF309834FF0D3
:1007D000807243F8042CA3F1200282F30988084AAE
:1007E000116892698968926891428CBF054A064AED
:1007F00043F8082CBD4680BC704700BF00ED00E008
:1008000058150020890200089C0200080000000022
:1008100080B400AFEFF30983203383F3098800230A
:1008200083F31188BD4680BC704700BF0000000004
:100830000E4B42685B68F0B48B60D0E90261D0E98E
:1008400004459B1BE61845F1000701319342C0E9BE
:100850000231C0E9046705D80268934238BF0360DB
:10086000F0BC70474360F0BC704700BF001000E070
:10087000074AD2F8AC3410B401F14804013300F156
:100880004801204610BCC2F8AC34FFF7D1BF00BF0E
:1008900058150020000000000000000000000000CB
:1008A0000F4B104A5B68C168F0B48468D2F8A0644A
:1008B00042681B1BD0E904459B1BE61845F1000765
:1008C00001319342C0E90231C0E9046705D80268EA
:1008D000934238BF0360F0BC70474360F0BC704780
:1008E000001000E05815002000000000000000008B
:1008F0000148FFF7D5BF00BF201A0020000000000C
:10090000014B5B6883607047001000E0000000004E
:100910000148FFF7F5BF00BF201A002000000000CB
:100920000B4A30B4D36B446A91694FF080456D6ACD
:100930001D60C3E9011490F820101973103302F5FB
:1009400088618B4228BF02F14003D36330BC7047FB
:10095000581500200000000000000000000000000A
:10096000054B1A6B1AB95A6B002A00DD704772B634
:10097000024ADA62FEE700BF5815002060A40008B2
:10098000054B1A6B002A03DB5A6B002A00DD704707
:1009900072B6024ADA62FEE75815002050A4000839
:1009A00070B5FFF7EDFFF0B1012303FA01F50489FB
:1009B000ADB214EA050601D0184670BD8A0002F1F6
:1009C000804202F5B8422C431368048123F4F043BB
:1009D00023F0400383F0300343F4004343F08003EB
:1009E0003046136070BD72B6014B024ADA62FEE710
:1009F0005815002000A200080000000000000000C0
:100A000070B5FFF7BDFFF0B1012303FA01F544898A
:100A1000ADB214EA050601D0184670BD8A0002F195
:100A2000804202F5B8422C431368448123F490437A
:100A300023F0700383F4405343F4004343F08003F6
:100A40003046136070BD72B6014B024ADA62FEE7AF
:100A500058150020E0A10008000000000000000080
:100A6000F8B504461F461046069DFFF789FF002C87
:100A700036D0E72934D97F2832D824396218E26089
:100A80001A4E67501A495560166221614D692064FB
:100A9000002304F1280602220127A0606561228458
:100AA00084F82270C4E90E33A36104F12C022C6196
:100AB00004F1600CA6624FF0FF3000260027A0640E
:100AC000C4E9133304F148006365C4E90B22C4F898
:100AD0001CC0C4E916674C61FFF712FF2046F8BD41
:100AE00072B6034B034ADA62FEE700BF71020008E8
:100AF00058150020D09F00080000000000000000F2
:100B000008B5FFF73DFFD0B190F8203001468BB11A
:100B10000F2B0FD000220C4B806881F820201B681F
:100B20009A688242FBD25A680846C1E900321160D5
:100B3000596008BD72B6044B044ADA62FEE772B629
:100B4000014B024ADA62FEE758150020509F000868
:100B500010B5FFF715FFFFF713FFD0E90524A242F8
:100B6000836822D00133541C836044611170D0E942
:100B700004329A4201D3C3684361036898420BD0A0
:100B80001A680260506093F82020042A06D072B6DA
:100B9000084B094ADA62FEE7002010BD00245C62BF
:100BA0001846FFF7ADFF204610BD002BDAD06FF0DE
:100BB000030010BD58150020F09E00080000000042
:100BC00038B5FFF7DDFEFFF7DBFE154BD3E9050176
:100BD00088429A681ED01D69481C01329A6098614B
:100BE000A8420C7801D3DA689A61186898420FD04D
:100BF00002681A60536090F82030042B04D072B65B
:100C0000084B094ADA62FEE700234362FFF778FFE8
:100C1000204638BD002ADED06FF0020038BD00BF8C
:100C2000AC0C002058150020F09E000800000000C9
:100C300008B5FFF7A5FEB0B1836B90F820200B43F9
:100C40000A2A836306D00B2A03D1426A32EA0303DD
:100C500003D008BD426A1342FBD000234362BDE8C3
:100C60000840FFF74DBF72B6014B024ADA62FEE759
:100C700058150020E0A0000800000000000000005F
:100C800070B5FFF77DFE0468A0420FD005460E4602
:100C9000E3683343E36016B12269134203D0D4E919
:100CA0000101FFF7C5FF2468A542F1D170BD00BF67
:100CB00070B5FFF755FE90B1204B9D69EE6B002E8D
:100CC00037D0B268AA4203D072B61D4ADA62FEE794
:100CD0008642014608D072B6194ADA62FEE772B659
:100CE000164B174ADA62FEE7C068E863FFF738FE82
:100CF0000C68A1421AD02E6C58B1FFF731FE036880
:100D0000984203D09B689E4238BF1E46C0680028A8
:100D1000F3D1E26B2368AE6020460B605960C1E9F5
:100D20000242E163BDE87040FFF7EABE0023B36012
:100D300070BD72B6024ADA62FEE700BF58150020A5
:100D4000B0A000080000000000000000000000004B
:100D500008B5FFF715FE88B182680368002A06DB34
:100D6000834206D072B60D4B0D4ADA62FEE783422B
:100D7000F8D00132002A826005DD08BD72B6074B4B
:100D8000074ADA62FEE71A680260002150601846DE
:100D90005962BDE80840FFF7B3BE00BF58150020F8
:100DA000A0A00008000000000000000000000000FB
:100DB00010B50F49FFF7E4FDFFF7E2FD8C69002C49
:100DC00013DDFFF7DDFD013CCB688C614A681C68D0
:100DD00004339342CB60046028BF0B68054828BFEA
:100DE000CB60FFF7B5FF002001E04FF0FF3010BDF2
:100DF000780C0020940C002000000000000000008F
:100E000070B5FFF7BDFD00291EDB85680368002D66
:100E1000044606DB984206D072B60E4B0E4ADA62E2
:100E2000FEE79842F8D00135002DA1600BDC6FF091
:100E300001066068436863601C60FFF761FE01356E
:100E4000012D4662F5D170BD72B6024B024ADA62DC
:100E5000FEE700BF58150020A09F0008000000001A
:100E600038B50446006884420BD0026822605460A2
:100E700090F82020042A05D072B60A4B0A4ADA629A
:100E8000FEE738BD0D464562FFF73AFE2068844212
:100E9000F7D0036823605C6090F82030042BEBD11E
:100EA000F1E700BF58150020F09E00080000000088
:100EB00010B5FFF765FDC368002B2FD01C4AD3691E
:100EC00083420ED0D0E900310B6003681C3200244D
:100ED00093425960C46003D081689A680A449A605A
:100EE00010BD1046196840F81C1F0024814248605C
:100EF000DC6018D098688B68926A03444FF0804099
:100F00008B60406A821A9342EAD99B1A022B2CBF4B
:100F1000C0180230BDE81040FFF73ABC72B6044B6F
:100F2000044ADA62FEE74FF08043DC6010BD00BF88
:100F300058150020C09F00080000000000000000BD
:100F4000F8B5044617461846FFF71AFD61B3234D5E
:100F50002061AC4602295CF81C6FE7604FF08040CE
:100F60000B4638BF02236645476A22D0A96AB26899
:100F7000D819411A8A4201D9FFF70AFCEB699A682D
:100F8000914204D91B68891A9A688A42FAD35A682E
:100F9000C4E9003214605C60A1609A684FF0FF30D1
:100FA000521A9A60686213E072B60C4B0C4ADA620D
:100FB000FEE7AF62C5E90744A360C26812F002020F
:100FC000C4E900663B4404D1022143630261C1606D
:100FD000F8BD72B6034BEB62FEE700BF5815002068
:100FE000809F000870A100080000000000000000C1
:100FF000202383F31188074B1A6B002A01DD596BFC
:1010000019B172B6044ADA62FEE7013A1A6381F353
:10101000118870475815002060A2000800000000E9
:10102000202383F31188074B1A6B002A01DB596BCD
:1010300019B172B6044ADA62FEE701321A6381F32B
:10104000118870475815002050A2000800000000C9
:1010500008B5074AD2F8A8340133C2F8A834FFF71C
:10106000DFFFFFF7C5FFBDE80840FFF7A1BB00BFEA
:1010700058150020000000000000000000000000E3
:10108000064B1A6B002A05DD5A6B002A02DD00228E
:101090005A63704772B6024ADA62FEE758150020BA
:1010A000B0A20008000000000000000000000000E6
:1010B000064B1A6B002A01DD5A6B1AB172B6044A4C
:1010C000DA62FEE701225A63704700BF581500201C
:1010D00080A20008000000000000000000000000E6
:1010E0002DE9F047394CD4F8A8344FF0804901334A
:1010F000C4F8A834FFF794FFD9F810309B0705D443
:10110000FFF776FFBDE8F047FFF752BB0027C9F8AD
:1011100010704FF0200888F31188FFF7F9FBFFF7F4
:10112000C7FFFFF72DFCFFF72BFCE569D9F824304A
:10113000A16AAA68581A904204F11C0621D32B68B0
:10114000D5F80CA01144B342A1625E60E361EF6088
:1011500008BFC9F80C70FFF793FFFFF7C9FB87F3CF
:1011600011882869D04788F31188FFF7D1FBFFF772
:101170009FFFE569D9F82430A16AAA68581A82420B
:10118000DDD9B54214D01144C91A02292CBF59180F
:10119000991C0846FFF7FCFA4FF08043A06A5A6A90
:1011A0000B1A121A9A4203D972B6094BE362FEE790
:1011B000FFF766FFFFF79CFB002383F31188FFF71F
:1011C00017FFBDE8F047FFF7F3BA00BF581500203E
:1011D000D09E000800000000000000000000000099
:1011E00001F111032DE9F04750F823401CB30546E7
:1011F0000E464FF0200888F3118800EB8109FFF7B5
:1012000087FBFFF755FF201D0421FFF739FDD9F8B3
:101210000C30B3F812A0FFF7B3FBD4E906236769DB
:101220009B1ADF1BBA4508D9FFF72AFFFFF760FBBF
:10123000002383F31188BDE8F087FFF721FFFFF754
:1012400057FB002282F31188D9F80C30B7FBFAF76C
:101250009B690AFB07F70C3401211970C3E901727D
:10126000DC6031462846FFF79BF988F31188FFF7C9
:101270004FFBFFF71DFF31462846FFF7C1FBD3E7C1
:1012800008B50146202383F31188FFF741FBFFF7E0
:101290000FFF91F82030072B10D8DFE803F0150F6F
:1012A0000F1D0A040F0A486AFFF76AFB83680133BF
:1012B0008360D1E900231A600A6853604FF0FF335E
:1012C0004B620846FFF71CFCFFF7DAFEFFF710FB46
:1012D000002383F3118808BD4B6A00221A604FF087
:1012E000FF334B620846FFF70BFCEDE70000000000
:1012F000044B1A6B0AB95A6B1AB172B6024ADA6217
:10130000FEE770475815002040A2000800000000CA
:10131000044B1A6B0AB95A6B1AB172B6024ADA62F6
:10132000FEE770475815002090A20008000000005A
:1013300008B5202080F3118862B6FFF7E9FF72B686
:10134000094B1A6B0AB9596B19B172B6074ADA62BE
:10135000FEE780F3118862B6FFF7DAFFFFF7C8FFF8
:1013600081F3118862B608BD5815002070B00008DE
:1013700010B5FFF705FBC20712D5284BD3E90014BF
:1013800099423FD000220968994202F10102FAD144
:101390008C4235D064689C4202F1FF32FAD17ABBAC
:1013A000830713D51D4CD4E907211C34A2422DD04C
:1013B00000231268A24203F10103FAD191421FD027
:1013C0004968A14203F1FF33FAD1CBB910F0040010
:1013D00015D0124BD3E904219A424FF0000019D0E6
:1013E00012699A4200F10100FAD1914208D049698C
:1013F000994200F1FF30FAD1003018BF012010BD32
:10140000012010BD9C42CBD00022C3E7A142DDD019
:101410000023D5E79142EAD110BD00BF5815002046
:1014200072B6024B024ADA62FEE700BF581500208E
:10143000D0A2000800000000000000000000000032
:1014400010B5FFF79DFA074B1A689A4209D0116848
:10145000196000244B6010465462BDE81040FFF74D
:101460004FBB10BD040C0020000000000000000075
:1014700038B50F49FFF784FAFFF782FA4C6A002C5F
:1014800013DDFFF77DFAD1E90152131DAB4204F1E0
:10149000FF348B604C6228BF0B681060054828BF82
:1014A0008B60FFF755FC002038BD4FF0FF3038BD92
:1014B000780C0020880C00200000000000000000D4
:1014C00010B50F49FFF75CFAFFF75AFA4C6A002C87
:1014D00012DDFFF755FACB680A68043B013C9342E2
:1014E0004C62CB6002D24B68043BCB60186005486D
:1014F000FFF72EFC002010BD4FF0FF3010BD00BFE5
:10150000780C0020880C0020000000000000000083
:1015100010B52F482F4CFFF72BF84FF4BB60FEF7A8
:101520006FFF2046FFF704F82B48FFF721F86020F3
:10153000FEF766FF2046FEF7FBFF2848FFF718F886
:101540001420FEF75DFF2046FEF7F2FF2448FFF768
:101550000FF80C20FEF754FF2046FEF7E9FF214864
:10156000FFF706F80420FEF74BFF2046FEF7E0FFEA
:101570001D48FEF7FDFF1420FEF742FF2046FEF750
:10158000D7FF1A48FEF7F4FF1020FEF739FF204678
:10159000FEF7CEFF1648FEF7EBFF0820FEF730FF00
:1015A0002046FEF7C5FF1348FEF7E2FF2420FEF7B2
:1015B00027FF2046FEF7BCFF0F48FEF7D9FF282083
:1015C000FEF71EFF2046BDE81040FEF7B1BF00BF8A
:1015D00040A3000850A3000858A3000868A300080F
:1015E00078A3000888A3000898A30008A8A300080F
:1015F000B8A30008C8A30008D8A300080000000092
:10160000024B0122C3E900339A607047281C002076
:10161000024B0022C3E900339A607047281C002067
:10162000034B00224FF4B471C3E900219A60704764
:10163000081C002000000000000000000000000066
:10164000034B00224FF4B471C3E900219A60704744
:10165000A00C0020000000000000000000000000BE
:1016600030B40B4B0B4A1A6002F11405052403F148
:101670001C010020C3E9022203F110025D605C62DC
:10168000C3E906011962C3E9042230BC704700BFF8
:10169000780C0020381C0020000000000000000032
:1016A0000649074A074B096000204960C2E9002249
:1016B00090609860C3E90033704700BF040C0020BD
:1016C000580C0020680C0020000000000000000002
:1016D000044A054B126000215260C3E9003399604F
:1016E000704700BF040C0020580C002000000000D0
:1016F000FFF7EEBF00000000000000000000000047
:10170000044A054B12600021C2E901219960C3E936
:1017100000337047580C0020680C002000000000C7
:10172000024B0022C3E900339A607047580C002036
:10173000FFF7F6BF000000000000000000000000FE
:10174000024B0022C3E900339A607047D00C00209E
:10175000FFF7F6BF000000000000000000000000DE
:10176000FFF7EEBF000000000000000000000000D6
:1017700038B50D4698B1044628600D49204608F05A
:10178000E7F9044420460A4908F0BAF968B1421C56
:1017900000232A600370237823B1204638BD0C68EB
:1017A000002CEAD10024204638BD2860F3E700BFB2
:1017B000C0A20008000000000000000000000000BF
:1017C0000EB42DE9F04F86B00FAF044657F8046B06
:1017D00002974FF000083178721C61B1252910D0B2
:1017E000236816469B6820469847317808F101081F
:1017F000721C0029F2D1404606B0BDE8F04F03B09C
:10180000704771782D2903BFB178B21C4FF0010CDD
:101810004FF0000C302903BF517801324FF0300AED
:101820004FF0200A0132002505E03B78043712F81A
:10183000011B03EB4005A1F13003DBB2092B9646F7
:1018400005EB8500F3D92A29EFD02E294FF00002AD
:1018500048D001F0DF034C2B0EF101064ED0A1F170
:101860004103A1F14400DBB2342800F21681DFE825
:1018700010F0650114011401140114016501140133
:1018800014011401140114011001140114011401B4
:1018900014011401E100140114016E01140114017A
:1018A0001401140114011401140114011401140190
:1018B0008F00650114011401140114016501140164
:1018C0001401140114011401100114011401140174
:1018D0006D001401E100140114016E013B7804371E
:1018E00003EB40021EF8011BA1F13003DBB2092B10
:1018F00002EB8200F4D92A29F0D0AAE79EF8003042
:101900000BB3A3F14401342900F2C980DFE801F0F0
:10191000D7C7C7C7C7D7C7C7C7C7C7C2C7C7C7C73C
:10192000C793C7C7D4C7C7C7C7C7C7C7C7C7C741F4
:10193000D7C7C7C7C7D7C7C7C7C7C7C2C7C7C71FC4
:10194000C793C7C7D4000B467646DAE77646D7F882
:1019500000900437B9F1000F00F0FD8099F80030D5
:101960004846002A40F0FE80002B00F00C8147F62C
:10197000FE724B4601E0013A03D413F8011F00291F
:10198000F9D11B1AED1A013B00934FF0200A0BE02E
:1019900076460DF118093B6809F80C3D0023013D1E
:1019A000043700934FF0200A002D1EDBBCF1000F1E
:1019B0007ED16B42002D7AD099F8001022682D2933
:1019C000926800F0A8809B4601E023689A6851461F
:1019D000204690471BF1010BF7D1009A002A5B4685
:1019E000A844FFF6F8AE1D4604E0009B002BFFF66E
:1019F000F2AE0025DDF800B0236819F8011B9B68E2
:101A00000BF1FF3B20469847BBF1FF3FF4D1009B11
:101A100008F1010843449846002D3FF4DCAEA94686
:101A2000236851469B6820469847B9F10109F7D1D0
:101A3000A844D0E676464FF00A0957F8042B0DF17A
:101A4000170100E00146B2FBF9FE09FB1E2202F17C
:101A50003003392BC8BF02F13703DBB2724601F8FD
:101A6000013C481E002AEDD10DF11702A2EB000B3C
:101A70000DF10C094A46584401E011F8013B02F807
:101A8000013B8142F9D10BF1FF33A5EB0B0500932C
:101A90008AE776464FF00809CFE776460B460DF108
:101AA0001809013D09F80C3D002300937CE71D4611
:101AB000009B002B9EDAAFE74FF01009BDE7391D00
:101AC0003A680F46002A55DB0DF10C09484600F133
:101AD0000B03009319462F4BA3FB02E3DB0803EB38
:101AE000830B9E46A2EB4B033033DBB2724601F808
:101AF000013D002AEFD1009A521A024401E011F888
:101B0000013F00F8013B9042F9D1A0EB0900431ED0
:101B10002D1A009348E7BAF1300F7FF454AF2046F6
:101B200001939047009B2268013B0093019B9268C0
:101B300008F1010809F101099B4648E73946192BCC
:101B400051F8042B764688BF0F46BBD8B8E77646D7
:101B50004FF0100971E710488146002A3FF407AFA3
:101B6000013A06E7002BFBD14FF0FF3300934FF013
:101B7000200A19E72D2352428DF80C300DF10D008B
:101B80000DF10C09A3E74FF0FF3300934FF0200A4B
:101B90000CE700BFCDCCCCCCA0A400080000000016
:101BA000002918DC70B504460C4E0D4D02E0336878
:101BB0001B689847236800215B69204698470130DD
:101BC0004FF4806229460548F1D020460549BDE81A
:101BD0007040FFF7F5BD0449FFF7F2BD7812002011
:101BE0000008002050A7000860A7000800000000BF
:101BF000002903DD194A1A49FFF7E2BD10B5194A59
:101C0000194982B00446FFF7DBFD184A18492046FF
:101C1000FFF7D6FD174A18492046FFF7D1FD174AAE
:101C200017492046FFF7CCFD164A17492046FFF713
:101C3000C7FD164A16492046FFF7C2FD154A164948
:101C40002046FFF7BDFD154B00932046144B154A67
:101C50001549FFF7B5FD02B010BD00BFB0A40008E4
:101C6000B8A40008C4A40008CCA40008E0A400089C
:101C700028A500083CA5000848A500085CA50008A8
:101C800068A500087CA5000894A50008A8A5000880
:101C9000C4A50008D8A50008FCA5000838A60008BF
:101CA00010A6000814A6000820A6000800000000E6
:101CB00038B51546FEF764FE80B10378042B08D1D1
:101CC00000EB8102D46874B172B6104B104ADA622C
:101CD000FEE772B60D4B0E4ADA62FEE772B60B4BA8
:101CE0000B4ADA62FEE76B691BB11C605C609C60AA
:101CF000DC60AB692BB100241C605C609C60DC6024
:101D00001C61D560BDE83840FEF75ABC581500206C
:101D1000C0A100080000000000000000000000005A
:101D2000022952D1F8B506460D46202383F31188C7
:101D3000FEF7EEFD254CFFF7BBF93046244A0121A2
:101D4000FFF7B6FF234A2946FFF7B2FFD4F8543213
:101D500004F10C071E680025FEF712FEA3696362FA
:101D600038466FF0010123626561FFF779F8FEF7ED
:101D700007FED4E90F2304F130009B1A6FF0010134
:101D8000A2646264A363FFF76BF8201D0121FEF7D4
:101D900077FFD4F85432597906EB81033046DA687C
:101DA0009369528A5A6001221A70C3E90257FEF7FA
:101DB000F7FBD4F854325979FEF722FEFFF760F9A9
:101DC000FEF796FD85F31188F8BD70477812002064
:101DD00000A8000830A80008000000000000000073
:101DE00070B5174D2A68AC691368A6682B6001208E
:101DF00000215D6082F82000AA6184F8201000E0D4
:101E00001B689A689642FBD35A682046C4E90032A0
:101E100014605C60FEF784FD2146A869FEF728FD8A
:101E2000EFF30983E269243B9A4205D82146A86969
:101E3000BDE87040FEF714BA72B6024BEB62FEE7E3
:101E40005815002070A400080000000000000000E9
:101E500008B5FEF785FDFEF793FD064B1A689B69F2
:101E600092689B689A4200D808BDBDE80840FFF719
:101E7000B7BF00BF581500200000000000000000A0
:101E800070B5164E0446FEF76BFDB069A268836814
:101E900061629A4218D9FEF733FE012384F820309C
:101EA0000546B461FEF73CFD01462046FEF7E0FC26
:101EB000EFF30983EA69243B9A420AD8294620466F
:101EC000BDE87040FEF7CCB92046BDE87040FEF793
:101ED00017BE72B6024BF362FEE700BF5815002032
:101EE00070A40008000000000000000000000000D6
:101EF00038B5124CFEF734FDA569236885F820003B
:101F00001A68226001215460284683F82010A361DA
:101F1000FEF706FD2946A069FEF7AAFCEFF3098348
:101F2000EA69243B9A4205D82946A069BDE83840B1
:101F3000FEF796B972B6024BE362FEE75815002031
:101F400070A4000800000000000000000000000075
:101F5000F8B53B4EB469FEF703FD002833D00546C3
:101F6000806858B3A26883689A4207D990F82030F5
:101F70008260062B4AD0072B34D043B32B4603E0B4
:101F80009968A268914202D31B689D42F8D15A68B1
:101F90000620C4E9003214605C606562FFF7A8FFA8
:101FA000AB68A34203D072B6264BF362FEE7E36B45
:101FB000AB4207D072B6234BF362FEE7E36BC5E991
:101FC0000243E563F8BD72B61E4BF362FEE7D0E94B
:101FD0000023012180F820101A6002685360FEF788
:101FE0008FFDCBE7D0E9001319600768416A7B6079
:101FF0000B4602E09F68974202D31B689942F9D1D1
:102000005A68C0E9003210605860B7E7D0E90013A1
:1020100019600768416A7B600B4602E09F6897423F
:1020200002D31B689942F9D15A68C0E900321060A6
:1020300058608868A2688368934297D39EE700BF80
:1020400058150020909F00080000000000000000CC
:10205000104DAC6908B5A36A606204F12806B3426A
:1020600007D01A68A2621846FEF74AFDA36AB34277
:10207000F7D194F821309B0704D1D4E904231A61E5
:10208000226953610F20FFF733FF72B6024BEB62F8
:10209000FEE700BF5815002030A100080000000036
:1020A00030B587B00546FEF75BFC4B1C13D00D4CDA
:1020B0000D4AA36901A8FEF743FF2846FFF718FF62
:1020C000FEF75EFC049B13B101A8FEF7F1FEA369C5
:1020D000586A07B030BD034CFFF70AFFA369586A7E
:1020E00007B030BD58150020811200080000000024
:1020F00010B5FEF735FC98B183680268002B0446E2
:1021000006DB824206D072B6114B124ADA62FEE753
:102110008242F8D05A1E002AA26006DB002010BDC1
:1021200072B60B4B0B4ADA62FEE761B1084B9B6952
:102130005C621C6062685A60052013606360BDE8E1
:102140001040FFF7ADBFA3604FF0FF3010BD00BFE0
:102150005815002040A0000800000000000000000A
:1021600061B1084B9B6910B4186044685C6002461A
:1021700023600420536010BCFFF792BF4FF0FF3084
:10218000704700BF5815002000000000000000004C
:10219000234B1A6842F001021A601A689207FCD5B4
:1021A00059681F4A21F00301596059685960536802
:1021B00013F00C03FBD11068194900F0F90010600E
:1021C0005360136843F4803313600B689803FCD5A5
:1021D0004B6A134A43F001034B62536A9907FCD5DB
:1021E000104B536000213023D1621363136801F157
:1021F000804143F0807301F5043113600B689B014B
:10220000FCD5094B064A122018604B6843F00203C4
:102210004B60536803F00C03082BFAD1704700BFE2
:102220000010024000641DA80020024000000000D1
:102230000148FEF735BB00BF081A0020000000006F
:102240000148FEF75DBB00BF081A00200000000037
:10225000FFF7C6BD00000000000000000000000005
:10226000054B1A6B22B9596B002901DD5A6370477F
:1022700072B6024ADA62FEE758150020A0A20008F2
:1022800008B5FFF7EDFFFFF7D3FF084B1A689A4236
:1022900004D0996992688968914203D3002383F33B
:1022A000118808BD72B6024ADA62FEE758150020AE
:1022B000D09D0008000000000000000000000000A9
:1022C00008B5FFF7CDFFFFF7B3FF084B1A689A4236
:1022D00004D0996992688968914203D3002383F3FB
:1022E000118808BD72B6024ADA62FEE7581500206E
:1022F000F09D000800000000000000000000000049
:1023000008B5FFF7ADFFFFF793FF084B1A689A4235
:1023100004D0996992688968914203D3002383F3BA
:10232000118808BD72B6024ADA62FEE7581500202D
:10233000A09E000800000000000000000000000057
:1023400008B5FFF78DFFFFF773FF084B1A689A4235
:1023500004D0996992688968914203D3002383F37A
:10236000118808BD72B6024ADA62FEE758150020ED
:10237000909E000800000000000000000000000027
:1023800008B5FFF76DFFFFF753FF084B1A689A4235
:1023900004D0996992688968914203D3002383F33A
:1023A000118808BD72B6024ADA62FEE758150020AD
:1023B000809E0008000000000000000000000000F7
:1023C000C8B910B50446EFF30583C3F308039BB9FE
:1023D000FFF73EFDFFF744FFFFF72AFF0C4B1A689B
:1023E0009A4210D099699268896891420BD272B66C
:1023F000084ADA62FEE77047FEF742FEFEF778FA17
:1024000084F3118810BD002383F3118810BD00BF31
:1024100058150020609D000800000000000000002A
:10242000054B1A6B0AB95A6B1AB172B6034ADA62D3
:10243000FEE701225A6370475815002070A2000879
:1024400008B50146202383F31188FFF7F9FEFFF753
:10245000E7FF08460021FEF7D3FCFFF7F9FCFFF782
:10246000FFFEFFF7E5FE084B1A689A4204D099690F
:1024700092688968914203D3002383F3118808BDD1
:1024800072B6024ADA62FEE758150020A09D0008E5
:1024900010B50146202383F31188FFF7D1FEFFF723
:1024A000BFFF0D48FFF724FE0446FFF7D9FEFFF7F4
:1024B000BFFE0A4B1A689A4204D0996992688968EB
:1024C000914204D3002383F31188204610BD72B6D5
:1024D000034ADA62FEE700BFD00C00205815002046
:1024E000A09D0008000000000000000000000000A7
:1024F00070B5264CA2682368002A06DBA34206D0EA
:1025000072B6234B234ADA62FEE7A342F8D02023B7
:1025100083F31188FFF794FEFFF782FFA36801336E
:10252000002BA36007DC2068036823605C60FEF773
:10253000E7FA00234362A368013B002BA36014DB8E
:10254000FFF786FC124D0024FFF78AFEFFF770FEAE
:102550002B68AB4204D0AA699B6892689A4211D357
:10256000002383F31188204670BD094D6368AE696E
:102570000520C6E900431E6074626660FFF7B8FC80
:10258000746AE1E772B6044BEB62FEE7D00C002000
:102590005815002010A10008A09D000800000000B0
:1025A00038B5202383F31188FFF74AFEFFF738FF81
:1025B000FEF7D6F9104B114C9A688AB10025FFF747
:1025C0004FFEFFF735FE2368A34204D0A2699B6843
:1025D00092689A420BD3002383F31188284638BDB2
:1025E000A2699A60D16BD960D3630125E7E772B61F
:1025F000034BE362FEE700BF580C00205815002093
:10260000B09D000800000000000000000000000075
:1026100008B5202383F31188FFF712FEFFF700FFB0
:102620000F4B1868984205D002681A605360002169
:10263000FFF726FCFFF714FEFFF7FAFD094B1A68B7
:102640009A4204D0996992688968914203D3002321
:1026500083F3118808BD72B6034ADA62FEE700BF51
:10266000040C002058150020C09D00080000000048
:1026700070B520230546164683F31188FFF7E0FD69
:10268000104CFFF7CDFE2B68A2690B6000204FF0C5
:10269000FF332960C1E90303C1E90126FFF7E0FD2B
:1026A000FFF7C6FD2368A34204D0A2699B68926825
:1026B0009A4203D3002383F3118870BD72B6024B94
:1026C000E362FEE758150020D09D000800000000DE
:1026D00038B5202383F311880E4CFFF7B1FDFFF7C7
:1026E0009FFEA36900229D6B9A63FFF7B9FDFFF778
:1026F0009FFD2368A34204D0A2699B6892689A4216
:1027000004D3002383F31188284638BD72B6024BE8
:10271000E362FEE758150020D09D0008000000008D
:10272000FFF7D6BF0000000000000000000000001E
:10273000FFF7F6BF000000000000000000000000EE
:10274000FFF7EEBF000000000000000000000000E6
:1027500070B5164C2023A66983F31188FFF770FD2E
:10276000FFF75EFEB36BABB15D421D4023EA05038C
:10277000B363FFF775FDFFF75BFD2368A34204D049
:10278000A2699B6892689A420CD3002383F3118854
:10279000284670BD4FF0FF3373620A20FFF7A8FB95
:1027A000B36BE1E772B6024BE362FEE75815002017
:1027B000D09D0008000000000000000000000000A4
:1027C00070B5154C2023A56983F31188FFF738FDF8
:1027D000FFF726FEAE6B96B10023AB63FFF740FD1B
:1027E000FFF726FD2368A34204D0A2699B68926884
:1027F0009A420CD3002383F31188304670BD4FF00A
:10280000FF336B620A20FFF773FBAE6BE4E772B62F
:10281000024BE362FEE700BF58150020D09D000880
:1028200070B52A4C0146A669202383F31188FFF76F
:1028300007FDFFF7F5FDB36B4BB9F1B14FF0FF3377
:1028400073620A20FFF72CFC00282BDBB36B5D4280
:102850001D4023EA0503B363FFF702FDFFF7E8FC21
:102860002368A34204D0A2699B6892689A4215D358
:10287000002383F31188284670BDFFF7F1FCFFF7B2
:10288000D7FC2368A34204D0A2699B6892689A424D
:1028900018D3002585F31188284670BD72B60C4BFD
:1028A000E362FEE7FFF7DCFCFFF7C2FC2368A3420C
:1028B000EFD0A2699B6892689A42EAD272B6044B42
:1028C000E362FEE772B6024BE362FEE758150020B2
:1028D000D09D000800000000000000000000000083
:1028E00070B52023064683F31188184CFFF7A8FC27
:1028F000FFF796FDFEF734F804F11C00FFF7F8FB34
:10290000054668B9D4E90112131D8B42A360104833
:10291000166024BF2368A360FEF71AFAFFF798FA3F
:10292000FFF79EFCFFF784FC0A4B1A689A4204D01A
:10293000996992688968914204D3002383F31188CE
:10294000284670BD72B6044ADA62FEE7780C0020B1
:10295000880C002058150020F09D000800000000A1
:1029600070B52023064683F31188194CFFF768FCE5
:10297000FFF756FDFDF7F4FF04F11C00FFF7B8FB6D
:10298000054658B9E3682268043B9342E36017D3D5
:102990001E601048FEF7DCF9FFF75AFAFFF760FCFB
:1029A000FFF746FC0C4B1A689A4204D0996992686A
:1029B0008968914208D3002383F31188284670BDAB
:1029C0006368043BE360E3E772B6044ADA62FEE759
:1029D000780C0020880C002058150020F09D00087D
:1029E00070B52023064683F31188104CFFF728FCAE
:1029F000FFF716FDFDF7B4FF04F11000FFF778FBB9
:102A0000054670B9E368626819680948043393425F
:102A1000E360316024BF2368E360FEF799F9FFF7B4
:102A200017FAFFF74DFC284670BD00BF780C002058
:102A3000940C0020000000000000000000000000D6
:102A400008B5164B00221A70202383F31188FFF774
:102A5000F7FBFFF7E5FCFDF793FF1148C3680BB1E7
:102A6000FEF726FA00230F4A0D4842F21071FEF7D6
:102A700067FAFFF7F5FBFFF7DBFB0B4B1A689A428F
:102A800004D0996992688968914203D3002383F343
:102A9000118808BD72B6054ADA62FEE76823002095
:102AA00094230020A102000858150020409E000831
:102AB00070B5046AD4F8542213681978042900D038
:102AC00070BD217A0229FBD15179588901228A40AF
:102AD0000242F5D103EB8103DB685E8AFDF750FF0C
:102AE000D4E9062365699B1A5D1BAE42E8D8FFF75F
:102AF000B7FBFFF79DFB1A4B1A689A4204D09969FD
:102B000092688968914226D3002282F31188D4F812
:102B10005432B5FBF6F51868597900EB810306FBD2
:102B200005F5DB689B6901265D6004F10C059A6080
:102B30001E70DD60FDF734FD202383F31188FFF75D
:102B40007FFBFFF76DFCD4F85432BDE87040597933
:102B50001868FDF755BF72B6024ADA62FEE700BF99
:102B600058150020309E0008000000000000000002
:102B700010B50146202383F31188FFF761FBFFF7AF
:102B80004FFCFDF7FDFE1148114B04681A68CB1D80
:102B900023F00703121B93429ABF1B190360002402
:102BA000FFF75EFBFFF744FB0A4B1A689A4204D01A
:102BB000996992688968914204D3002383F311884C
:102BC000204610BD72B6044ADA62FEE7241C0020DB
:102BD000581B002058150020109E0008000000001F
:102BE0002DE980487F4B04689B697F4AD0F80490A8
:102BF0007E499A6199B02046FEF7E2FDDFF8208217
:102C000008AE0DF15F0741462046FEF7D9FD236867
:102C100035465B6801220DF10701204698470028E0
:102C200070D09DF80710042968D0082911D07F2999
:102C30000FD00D2921D01F292368EAD9BD42E8D23F
:102C40009B68204698479DF807302B702368013514
:102C5000DFE7B5422368DCD09B68204698472368AD
:102C600020219B682046984723689DF807109B68A1
:102C700020469847013D2368CBE75D492046FEF793
:102C80009FFD002302A92B7030461D46FEF770FD04
:102C900002A9834600200DF10C0AFEF769FD50B130
:102CA000042D24D04AF8040B02A900200135FEF7B8
:102CB0005FFD0028F4D118AB03EB850343F8540CF7
:102CC000BBF1000F9FD04B49584606F0F1FEF0B91A
:102CD0004DBB202383F31188FFF7B2FAFFF7A0FB67
:102CE00045480021FDF7CCFF0020FFF7B1F943492B
:102CF0002046FEF765FD0023079384E74049204600
:102D0000FEF75EFD20463F49FEF75AFDE1E73E49EA
:102D1000584606F0CDFE60B905B33B4A3B49204614
:102D2000FEF74EFD6FE7334A38492046FEF748FD6F
:102D300069E7DFF8F0A0DAF8000018B936E05AF8D1
:102D4000080F98B3594606F0B3FE0028F7D1DAF819
:102D5000043003AA29462046984754E7DFF8C4A068
:102D60002B492046FEF72CFDDAF8002042B1294D10
:102D700029462046FEF724FD5AF8082F002AF7D1ED
:102D8000B9F1000F0DD0D9F8002052B1DFF884A0BE
:102D90004D4651462046FEF713FD55F8082F002AF0
:102DA000F7D113492046FEF70BFD2CE7B9F1000FD0
:102DB0000DD0D9F8000050B1CA4602E05AF8080F09
:102DC00028B1594606F074FE0028F7D1BFE75A46ED
:102DD00011492046FEF7F4FC10492046FEF7F0FCAE
:102DE00011E700BF5815002030AA000838AA0008D3
:102DF0006CA7000880AA0008341C002068AA0008FC
:102E000058AA00085CAA000888AA0008B8A400080C
:102E100090AA0008A8AA0008ACAA0008B0AA000856
:102E200050AA0008400C0020000000000000000034
:102E3000002903DD154A1649FEF7C2BC38B5044621
:102E4000202383F31188FFF7FBF9FFF7E9FA4FF02E
:102E500080435D6AFFF704FAFFF7EAF90D4B196842
:102E6000994204D098698A688168914209D3002305
:102E700083F3118808492A462046BDE83840FEF70A
:102E80009FBC72B6054ADA62FEE700BFC0A6000822
:102E9000B8A4000858150020C8A60008209F000804
:102EA00038B5114C2023A56983F31188FFF7C8F9C1
:102EB000FFF7B6FA0320FFF71BF86B6A002BF9D077
:102EC000FFF7CEF9FFF7B4F92368A34204D0A26953
:102ED0009B6892689A4203D3002383F3118838BD1C
:102EE00072B6024BE362FEE758150020C09E000850
:102EF00038B5202383F31188FFF7A2F9FFF790FA82
:102F00000120FEF735FA474C0546FFF7A9F9FFF710
:102F10008FF92368A34204D0A2699B6892689A4201
:102F200070D3002383F3118885F00101C9B2012019
:102F3000FDF7E6FA00B138BD202383F31188FFF7CF
:102F40007FF9FFF76DFA0220FEF712FA0546FFF748
:102F500087F9FFF76DF92368A34204D0A2699B6843
:102F600092689A4252D3002383F3118885F00101BD
:102F7000C9B20220FDF7C4FA0028DCD1202383F374
:102F80001188FFF75DF9FFF74BFA0420FEF7F0F91F
:102F90000546FFF765F9FFF74BF92368A34204D014
:102FA000A2699B6892689A4234D3002383F3118804
:102FB00085F00101C9B20320FDF7A2FA0028BAD1B9
:102FC000202383F31188FFF73BF9FFF729FA082044
:102FD000FEF7CEF90546FFF743F9FFF729F9236815
:102FE000A34204D0A2699B6892689A4216D3002338
:102FF00083F3118885F00101C9B20420BDE838408F
:10300000FDF77EBA72B6084BE362FEE772B6064B76
:10301000E362FEE772B6044BE362FEE772B6024B70
:10302000E362FEE758150020B09E00080000000093
:1030300070B50020FFF7F4FBB0FA80F149090120D8
:10304000FDF75EFA00B170BD784C05462023A169FA
:1030500083F31188FFF7F4F8FFF7E2F98B6B002B8D
:1030600040F0A680FFF7FCF8FFF7E2F82368A342E0
:1030700005D0A2699B6892689A42C0F095800023AF
:1030800083F3118801210220FDF73AFA0146054633
:103090000028D8D1A669202383F31188FFF7D0F840
:1030A000FFF7BEF9B36B013300F09780FFF7D8F854
:1030B000FFF7BEF82368A34205D0A2699B68926817
:1030C0009A42C0F09B80002383F311880125294692
:1030D0000320FDF715FA0028B5D10A20FFF7A0FB61
:1030E000B0FA80F149090420FDF70AFA0028AAD1B4
:1030F000A569202383F31188FFF7A2F8FFF790F961
:10310000AE6B4EB94FF0FF330A216B620846FEF7F3
:10311000C7FF00287ADBAE6B0023AB63FFF7A0F894
:10312000FFF786F82368A34204D0A2699B689268DF
:103130009A426ED3002383F31188B6FA86F14909C7
:103140000520FDF7DDF9054600287FF47CAFA66970
:10315000202383F31188FFF773F8FFF761F9B36B4E
:10316000013308D04FF0FF3373620A210B20FEF7C2
:1031700097FF002851DB0023B363FFF771F8FFF7D7
:1031800057F82368A34204D0A2699B6892689A42C8
:1031900047D3002383F311884FF0FF31013106201C
:1031A000BDE87040FDF7ACB972B6214BE362FEE7B3
:1031B0008D63FFF755F8FFF73BF82368A34204D06F
:1031C000A2699B6892689A4203D3002181F3118817
:1031D00059E772B6164BE362FEE7B163FFF740F8BA
:1031E000FFF726F82368A34204D0A2699B6892687F
:1031F0009A4207D3002383F3118868E772B60C4B19
:10320000E362FEE772B60A4BE362FEE7FFF738F8C7
:1032100093E772B6064BE362FEE7FFF731F8294603
:10322000BCE772B6024BE362FEE700BF5815002010
:10323000D09D000800000000000000000000000019
:1032400008B50146202383F31188FEF7F9FFFFF745
:10325000E7F8FDF795FB8B68002B12DDFEF7F8FD14
:10326000FEF7FEFFFEF7E4FF0A4B1A689A4204D00D
:10327000996992688968914207D3002383F3118882
:1032800008BD0846FDF764FDE8E772B6024ADA6257
:10329000FEE700BF58150020609E000800000000F7
:1032A0002DE9F041154D164C05F114082027002694
:1032B00055F8041BC9B187F31188FEF7C1FFFFF76A
:1032C000AFF891F8213043F0040381F82130FEF784
:1032D000C7FFFEF7ADFF2368A34204D0A2699B6835
:1032E00092689A4205D386F311884545E0D1BDE83E
:1032F000F08172B6034BE362FEE700BF6C2300204F
:1033000058150020709D000800000000000000001B
:10331000F8B507460E461446202383F31188FEF7BE
:103320008FFFFFF77DF84FF080435D6AFEF798FF4F
:10333000FEF77EFF0E4B1A689A4204D09969926894
:10334000896891420FD3002383F31188AD1BA41B1E
:10335000A54206D307480849084A012303700B70A9
:1033600017601846F8BD72B6054ADA62FEE700BF7C
:103370005815002040230020041C0020AC1B002016
:10338000409E000800000000000000000000000057
:1033900008B50146202383F31188FEF751FFFFF79C
:1033A0003FF80D4A1368197001331360FEF758FF98
:1033B000FEF73EFF094B1A689A4204D09969926859
:1033C0008968914203D3002383F3118808BD72B644
:1033D000034ADA62FEE700BF902300205815002060
:1033E000409E0008000000000000000000000000F7
:1033F0004320FFF7CDBF00BF000000000000000029
:103400004220FFF7C5BF00BF000000000000000021
:103410004120FFF7BDBF00BF00000000000000001A
:10342000F0B5202383B083F31188134CFEF708FF17
:10343000FEF7F6FFFDF7A4FAFDF7A2FA616AA1F123
:103440000501B1FA81F101204909FDF759F8B8B138
:10345000FEF706FFFEF7ECFE084B1A689A4205D00D
:103460009969926889689142C0F05E83002383F372
:10347000118803B0F0BD00BF780C00205815002063
:10348000D54DFEF7EDFEFEF7D3FE2B68AB4205D01F
:10349000AA699B6892689A42C0F04283002383F332
:1034A000118842264FF0FF313046FFF719FAB0FA83
:1034B00080F149090220FDF723F801360028D8D110
:1034C000462EEFD14FF0FF314120FFF749FAB0FA15
:1034D00080F149090320FDF713F80028C9D1012123
:1034E0005820FFF7FDF9A0F1FF31B1FA81F1490948
:1034F0000420FDF705F80028BBD1202383F31188B1
:10350000FEF79EFEFEF78CFF5820FDF7B1FF064642
:10351000FEF7A6FEFEF78CFE2B68AB4205D0AA692B
:103520009B6892689A42C0F00383002383F311885A
:1035300006F1010EDEF1000141EB0E010520FCF762
:10354000DFFF002895D101215820FFF709FA00F18B
:10355000010CDCF1000141EB0C010620FCF7D0FF6F
:10356000002886D1202383F31188FEF769FEFEF739
:1035700057FF5820FDF7A4FF0646FEF771FEFEF741
:1035800057FE2B68AB4205D0AA699B6892689A42A5
:10359000C0F0D282002383F31188771C79427941ED
:1035A0000720FCF7ADFF00287FF463AF202585F3EB
:1035B0001188FEF745FEFEF733FFFDF7E1F9FDF751
:1035C000DFF9616AB1FA81F149090820FCF798FF37
:1035D000002840F0A282FEF7D3FE85F31188FEF7A3
:1035E0002FFEFEF71DFFFDF7CBF9FDF7C9F9A16925
:1035F0004E1F714271410920FCF782FF002840F004
:103600008C82FEF7BDFE85F31188FEF719FEFEF7EA
:1036100007FFD4E90231CD1A694269410A20FCF75B
:103620006FFF002840F07982FEF7AAFE05254FF0D3
:10363000FF3101A8FFF7D4F9B0FA80F149090B2056
:10364000FCF75EFF00287FF414AF9DF80400FFF73D
:103650009FFE013DEBD161490C20FCF729FF0028BA
:103660007FF407AF4FF0FF314720FFF739F9B0FA89
:1036700080F149090D20FCF743FF00287FF4F9AEE3
:103680004FF0FF3101A8FFF7ABF9B0FA80F149091B
:103690000E20FCF735FF00287FF4EBAE2168A3680D
:1036A000CA1A514251410F20FCF72AFF00287FF42B
:1036B000E0AE2168E368CB1A594259411020FCF76B
:1036C0001FFF00287FF4D5AE012101A8FFF788F97C
:1036D00000F1010EDEF1000141EB0E011120FCF7BB
:1036E0000FFF00287FF4C5AE202585F31188FEF773
:1036F000A7FDFEF795FE01A8FDF75AFB0646FEF76B
:103700003FFE06F1010CDCF1000141EB0C0112203F
:10371000FCF7F6FE00287FF4ACAE85F31188FEF7C7
:103720008FFDFEF77DFEFDF72BF9FDF729F9616AA4
:103730004F1F794279411320FCF7E2FE002840F048
:10374000EC81FEF71DFE85F31188FEF779FDFEF78B
:1037500067FEFDF715F9FDF713F9A169B1FA81F1DB
:1037600049091420FCF7CCFE002840F0D681FEF772
:1037700007FE85F31188FEF763FDFEF751FED4E9DD
:103780000231CE1A714271411520FCF7B9FE0028B2
:1037900040F0C381FEF7F4FD85F31188FEF750FD7C
:1037A000FEF73EFE4120FDF763FEB0FA80F14909C5
:1037B0001620FCF7A5FE00287FF45BAE4220FDF743
:1037C00057FEB0FA80F149091720FCF799FE00284E
:1037D0007FF44FAE04E000BF58150020A0A80008F9
:1037E0004320FDF745FEB0FA80F149091820FCF7A7
:1037F00087FE00287FF43DAE4420FDF739FEB0FA85
:1038000080F149091920FCF77BFE00287FF431AED6
:103810004520FDF72DFE0646FEF7B2FDB6FA86F10D
:1038200049091A20FCF76CFE00287FF422AED4E987
:103830000231C81A414241411B20FCF761FE0028B9
:103840007FF417AE052685F31188FEF7F9FCFEF725
:10385000E7FD01A8FDF7ACFA0746FEF791FDB7FAC0
:1038600087F149091C20FCF74BFE00287FF401AECC
:103870009DF80400FFF78CFD013EE4D1B0491D2006
:10388000FCF716FE00287FF4F4AD85F31188FEF7EF
:10389000D7FCFEF7C5FDFDF773F8FDF771F8616A17
:1038A0004A1F514251411E20FCF72AFE002840F0D9
:1038B0003481FEF765FD85F31188FEF7C1FCFEF744
:1038C000AFFDFDF75DF8FDF75BF8A169B1FA81F195
:1038D00049091F20FCF714FE002840F01E81FEF766
:1038E0004FFDD4E90231CB1A594259412020FCF74F
:1038F00007FE00287FF4BDAD85F31188FEF7A0FC1C
:10390000FEF78EFD4520FDF7DBFDB0FA80F1490999
:103910002120FCF7F5FD00287FF4ABAD4420FDF736
:10392000CFFDB0FA80F149092220FCF7E9FD00281B
:103930007FF49FAD4320FDF7C3FDB0FA80F1490944
:103940002320FCF7DDFD00287FF493AD4220FDF736
:10395000B7FDB0FA80F149092420FCF7D1FD002819
:103960007FF487AD4120FDF7ABFD0546FEF708FD6E
:10397000B5FA85F149092520FCF7C2FD00287FF43E
:1039800078ADD4E90231A1EB030EDEF1000141EB89
:103990000E012620FCF7B4FD00287FF46AAD052651
:1039A000202585F31188FEF74BFCFEF739FD01A8B1
:1039B000FDF7FEF90746FEF7E3FCB7FA87F1490980
:1039C0002720FCF79DFD00287FF453AD9DF80400EF
:1039D000FFF7DEFC013EE4D159492820FCF768FDE1
:1039E00000287FF446AD85F31188FEF729FCFEF729
:1039F00017FDFCF7C5FFFCF7C3FF616AA1F1050CD9
:103A0000DCF1000141EB0C012920FCF779FD0028D5
:103A100040F08380FEF7B4FC85F31188FEF710FCBC
:103A2000FEF7FEFCFCF7ACFFFCF7AAFFA169B1FAB8
:103A300081F149092A20FCF763FD00286DD1FEF7CA
:103A40009FFCD4E90231CF1A794279412B20FCF74F
:103A500057FD00287FF40DAD85F31188FEF7F0FBCC
:103A6000FEF7DEFCFCF78CFFD4E90032D21A91108D
:103A70003448A360E360FDF7C3F931463248FDF7EF
:103A8000BFF9FEF7E5F9FEF71BFC85F31188FEF799
:103A9000D7FBFEF7C5FCFCF773FFFCF771FF616A0B
:103AA0004E1F714271412C20FCF72AFDA8BBFEF786
:103AB00067FC85F31188FEF7C3FBFEF7B1FCFCF74A
:103AC0005FFFFCF75DFFA169B1FA81F149092D2083
:103AD000FCF716FD08BBFEF753FC85F31188FEF7D3
:103AE000AFFBFEF79DFC2168A368CA1A5142514101
:103AF0002E20FCF705FD80B9FEF742FC85F3118806
:103B0000FEF79EFBFEF78CFC2168E368CB1A594256
:103B10004FF02F005941FCF7F3FCFEF731FCA8E40D
:103B200072B60A4BEB62FEE772B6084ADA62FEE74B
:103B300072B6064BEB62FEE772B6044BEB62FEE731
:103B4000A0A80008940C0020880C0020809E00088B
:103B50000078FFF71DBC00BF00000000000000005F
:103B6000FFF7F6BF000000000000000000000000AA
:103B700010B52023044683F31188FEF761FBFEF79E
:103B80004FFCFCF7FDFEA4B199B123680B602160E6
:103B9000FEF766FBFEF74CFB0A4B1A689A4204D00C
:103BA000996992688968914208D3002383F3118848
:103BB00010BD72B6034B044ADA62FEE772B6034ADE
:103BC000DA62FEE75815002000A00008209E0008D9
:103BD00010B50146202383F31188FEF731FBFEF771
:103BE0001FFCFCF7CDFE0C689CB123680B60FEF750
:103BF00037FBFEF71DFB0C4B1A689A4204D09969FB
:103C00009268896891420BD3002383F31188204680
:103C100010BD8B68002BEAD0486898470446E6E759
:103C200072B6024ADA62FEE758150020209E0008AC
:103C3000F0B5064683B023480F46FFF7C9FF044698
:103C4000002837D000F160010346FF2203F8012B62
:103C50009942FBD11B4D6A6822449A4204D95521EE
:103C600003F8011B9A42FBD1202383F31188FEF74E
:103C7000E7FAFEF7D5FB32466968134B00972046FA
:103C8000FCF7EEFE022380F8213045640021044653
:103C9000FEF7F6F8FEF7E4FAFEF7CAFA0B4B1A68DD
:103CA0009A4204D0996992688968914205D30023A9
:103CB00083F31188204603B0F0BD72B6044ADA627D
:103CC000FEE700BF081C0020613B000858150020DB
:103CD000809D0008000000000000000000000000BF
:103CE000F8B52F4E2F4D3746052429463846FFF7A5
:103CF0003FFF7368013C1D44F7D1294D0524284638
:103D0000FFF766FF011C18BF01210120FCF7F8FB3B
:103D1000A0BB013CF3D12248FFF75AFFB0FA80F173
:103D200049090220FCF7ECFB40BB1F4C1C4F1D490E
:103D300004F110053846FFF71BFFA54206D054F8E2
:103D4000041B3846FFF714FFA542F8D1144D052493
:103D50002846FFF73DFF011C18BF01210320FCF797
:103D6000CFFB58B9013CF3D10D48FFF731FFB0FA52
:103D700080F149090420FCF7C3FB00B1F8BD0B4BEF
:103D80000748B3601022C6E90042FFF721FFB0FAEE
:103D900080F149090520BDE8F840FCF7B1BB00BF40
:103DA000A00C0020381C002094B40008C1030008B7
:103DB000002A64D02DE9F04F174683B004468846A8
:103DC0009A46D0F81C90202282F31188FEF738FA28
:103DD0000192FEF725FB2E4D0026FCF7D1FDA368CE
:103DE00008F1010B5A1E204663B36369A2605A1C96
:103DF000626198F800201A70D4E904329A4224BF14
:103E0000E3686361B9F1000F00D0C847FEF728FAF4
:103E1000FEF70EFA2B68AB4204D0AA699B68926841
:103E20009A4228D3002383F31188013F06F101064B
:103E30001DD0019B83F31188FEF702FAD846FEF7E6
:103E4000EFFACAE751462046FEF78AF90028C4D0A7
:103E5000FEF706FAFEF7ECF92B68AB4204D0AA692C
:103E60009B6892689A420FD3002383F311883046EF
:103E700003B0BDE8F08F72B6064BEB62FEE772B698
:103E8000034B054ADA62FEE772B6024BEB62FEE7CD
:103E900058150020009E000840A100080000000006
:103EA0003030FFF785BF00BF0000000000000000B9
:103EB00030304FF0FF33FFF77BBF00BF0000000042
:103EC000F8B504460F461646202383F31188FEF703
:103ED000B7F9FEF7A5FA03E0FEF742F9051E27DB66
:103EE000FCF74EFDA36831462046002BF4D06269F2
:103EF000013B511C6161A3601770D4E904329A42FE
:103F000024BFE3686361E36903B19847FEF7A8F94A
:103F1000FEF78EF9134B1A689A4204D09969926899
:103F2000896891421AD3002585F311882846F8BD87
:103F3000FEF796F9FEF77CF90A4B1A689A4204D00C
:103F4000996992688968914204D3002383F31188A8
:103F50002846F8BD72B6044ADA62FEE772B6024A33
:103F6000DA62FEE758150020009E000800000000FD
:103F70004FF4FA6200210148FFF7A2BFAC0C002009
:103F80003030FFF79DBF00BF0000000000000000C0
:103F900030304FF0FF32FFF793BF00BF000000004A
:103FA000002A64D02DE9F04F83B0984601928146F3
:103FB000D0F81CA0202787F31188FEF741F9FEF7FF
:103FC0002FFA0026304C4D1EB346BAF1000F05D033
:103FD0004846D04702E0FEF7C3F8A8BBFCF7D0FC88
:103FE000D9F8082041464846002AF4D0D9F81810DC
:103FF000013A481CC9F81800C9F808200A7805F8E1
:10400000012FD9F81020D9F81810914224BFD9F8FF
:104010000C20C9F81820FEF723F9FEF709F92268E9
:10402000A24204D0A16992688968914224D38BF39B
:104030001188019B0136B34215D087F31188FEF732
:10404000FFF8FEF7EDF9C0E7FEF70AF9FEF7F0F822
:104050002368A34204D0A2699B6892689A420FD356
:10406000002383F31188304603B0BDE8F08F72B6A9
:10407000054B064ADA62FEE772B6054BE362FEE7DD
:1040800072B6034BE362FEE75815002010A000084B
:10409000009E00080000000000000000000000007A
:1040A0000C30FFF77DBF00BF0000000000000000E3
:1040B0000C304FF0FF33FFF773BF00BF000000006C
:1040C00070B5202304460E4683F31188FEF7B8F836
:1040D000FEF7A6F9E36933B12046984703E0FEF7FF
:1040E0003FF8051E24DBFCF74BFCA3683146204655
:1040F000002BF4D0A16920694A1C013B8242A360D5
:10410000A26128BFE3680D7828BFA361FEF7A8F875
:10411000FEF78EF8114B1A689A4204D0996992689A
:104120008968914215D3002383F31188284670BD16
:10413000FEF796F8FEF77CF8084B1A689A42F2D020
:104140009969926889689142EDD272B6044ADA623E
:10415000FEE772B6024ADA62FEE700BF5815002099
:10416000009E0008000000000000000000000000A9
:104170004FF4FA610148FFF7A3BF00BF140C002001
:104180000C30FFF79DBF00BF0000000000000000E2
:104190000C304FF0FF31FFF793BF00BF000000006D
:1041A00010B52023044683F31188FEF749F8FEF783
:1041B00037F994F820300D2B04D072B60E4B0F4A0D
:1041C000DA62FEE7FCF7CCFB2046FDF759FEFEF76E
:1041D00047F8FEF72DF8084B1A689A4204D09969FF
:1041E00092688968914203D3002383F3118810BD3C
:1041F00072B6034ADA62FEE758150020B09F000845
:10420000E09D000800000000000000000000000029
:1042100038B5202383F31188174CFEF711F8FEF709
:10422000FFF8A169FCF7ACFB0B4653F82C5F9D42ED
:1042300016D02A68CA620D21536085F82010FEF757
:104240000FF8FDF7F5FF2368A34204D0A2699B682D
:1042500092689A420CD3002383F31188284638BD14
:104260000E20FDF745FEA169CD6A01F12C03E0E7C0
:1042700072B6024BE362FEE758150020E09D00088D
:1042800010B5FFF7C5FF446B2146FFF789FF002CEF
:10429000F7D110BD00000000000000000000000089
:1042A00060B370B51C4E04462023B56983F31188B2
:1042B000FDF7C6FFFEF7B4F804F12C036B622B6028
:1042C000236B6B6069631D6094F8203025630E2BAF
:1042D0001DD00C20FDF70CFE6C6AFDF7C1FFFDF749
:1042E000A7FF3368B34204D0B2699B6892689A42D0
:1042F00009D3002383F31188204670BD72B6064BA4
:10430000064ADA62FEE772B6054BF362FEE7204624
:10431000FCF7F6FBDDE700BF58150020409F0008C2
:10432000E09D000800000000000000000000000008
:1043300010B541210446FFF7B3FF20464221FFF7A5
:10434000AFFF20464321BDE81040FFF7A9BF00BFE3
:1043500038B50546202383F311880F4CFDF770FF15
:10436000FEF75EF8A3699A6B15439D63FDF778FF2E
:10437000FDF75EFF2368A34204D0A2699B689268A0
:104380009A4204D3002383F31188284638BD72B6BD
:10439000024BE362FEE700BF58150020D09D0008E5
:1043A00010B52023044683F31188FDF749FFFEF77B
:1043B00037F8234602E08A4214D013461A68A24214
:1043C000F9D1FDF74DFFFDF733FF0A4B1A689A420A
:1043D00004D0996992688968914206D3002383F3D7
:1043E000118810BD0A681A60EBE772B6024ADA62F9
:1043F000FEE700BF58150020D09D00080000000017
:10440000F0B5294C8BB0204605A901222460FEF7A7
:104410002FF9204669460222FEF72AF92168091B76
:1044200018BF01210120FCF76BF808B10BB0F0BDFB
:1044300005A92046FFF7B4FF2168091B18BF012119
:104440000220FCF75DF80028F0D169462046FFF70E
:10445000A7FF2168091BB1FA81F103204909FCF784
:104460004FF80028E2D1114F04460725012625FA0E
:1044700004F313F0010F06FA04F220460DD057F8AA
:10448000243025EA020553B198470134002DEED1BE
:1044900007490420FCF70CF8C8E70134E7E772B6D7
:1044A000044B054ADA62FEE70C0C002060A8000805
:1044B00070A800085815002020A100080000000086
:1044C000F8B51E4C2023A56983F31188FDF7B8FECB
:1044D000FDF7A6FFE96BC1B10027CE68EE63FCF7DC
:1044E0003FFA0B68994218461FD0DE6B1A680A60C3
:1044F0005160C1E90236D963FCF702FBE96B002980
:10450000EBD12B6CAB60FDF7A3FCFDF7A9FEFDF72B
:104510008FFE2368A34204D0A2699B6892689A42E6
:1045200008D3002383F31188F8BD8F60314600293A
:10453000D3D1E6E772B6024BE362FEE758150020DE
:10454000B09D000800000000000000000000000016
:10455000F8B5C8B12D4F04462023BE6983F31188F6
:10456000FDF76EFEFDF75CFFF06B002849D0836815
:10457000B34203D072B6264BFB62FEE7A04208D0DE
:1045800072B6234BFB62FEE772B6204B204ADA621A
:10459000FEE7E168F163FCF7E3F92568AC422DD052
:1045A000306C59B1FCF7DCF90B68994203D09B6879
:1045B000984238BF1846C9680029F3D12B68EA6BC6
:1045C000B0600021236028465C60C4E90252EC63BD
:1045D000FDF756FCFDF744FEFDF72AFE3B68BB42A3
:1045E00004D0BA699B6892689A4203D3002383F38C
:1045F0001188F8BD72B6074BFB62FEE700238360AB
:10460000E8E772B6024BFB62FEE700BF58150020D8
:1046100030A00008B09D000800000000000000006D
:1046200008B50146202383F31188FDF709FEFDF745
:10463000F7FE0846FDF78CFCFDF712FEFDF7F8FDCE
:10464000084B1A689A4204D0996992688968914225
:1046500003D3002383F3118808BD72B6024ADA62DD
:10466000FEE700BF58150020B09D000800000000C4
:10467000F8B507462948FFF7D3FF2948FFF7D0FFD1
:10468000202383F31188274CFDF7DAFDFDF7C8FEE0
:10469000FCF766F9A369DD6B002D37D02846FCF7DF
:1046A00007FB214BA2691946536203E09E6890689C
:1046B000864202D31B688B42F8D159680720C2E9B1
:1046C00000310A604FF0FF315A60FDF7E9FC01301C
:1046D00002D02846FDF73CFCFDF7C2FDFDF7A8FD22
:1046E0002368A34204D0A2699B6892689A4211D3BE
:1046F000002383F311883878FEF74AFE0848FFF755
:1047000027FF0648BDE8F840FFF722BF72B6074B07
:10471000E362FEE772B6064BE362FEE7680C002038
:10472000580C002058150020040C0020C0A00008E0
:10473000C09D000800000000000000000000000014
:10474000F8B507462348FFF76BFF202383F3118852
:10475000214DFDF775FDFDF763FEAC69FCF700F92F
:10476000E66B7EB33046FCF7A3FA1C4A626213463E
:1047700003E09868A168884202D31B689342F8D18D
:104780005A680720C4E9003214605C60FDF7B0FB92
:104790003046FDF7DDFBFDF763FDFDF749FD2B68B6
:1047A000AB4204D0AA699B6892689A420ED3002358
:1047B00083F311883878FEF7EBFD0648BDE8F84032
:1047C000FFF7C6BE72B6064BEB62FEE772B6054B4C
:1047D000EB62FEE7580C002058150020040C002066
:1047E00020A00008C09D000800000000000000009C
:1047F00038B5064C05462046FFF712FF2878FEF72D
:10480000C7FD2046BDE83840FFF7A2BE680C002077
:1048100070B5334CA3699E68FDF7C2FE01460120C6
:10482000FBF76EFE00B170BDFDF7BAFE80F001012E
:10483000C9B20220FBF764FE0028F4D1202383F3E1
:104840001188FDF7FDFCFDF7EBFD2648FCF730FA7B
:10485000FDF706FDFDF7ECFC2368A34204D0A26936
:104860009B6892689A4237D3002383F311881D4DC9
:104870002968491BB1FA81F103204909FBF740FE81
:104880000028D0D1A968B1FA81F149090420FBF7C9
:1048900037FE0028C7D1A36999688A1B514251414C
:1048A0000520FBF72DFE0028BDD12846FFF7B8FEF6
:1048B000FFF706FE29684B1B594259410620FBF7BA
:1048C0001FFE0028AFD1A968B1FA81F1490907207C
:1048D000BDE87040FBF714BE72B6034BE362FEE71F
:1048E00058150020580C0020709E000800000000A1
:1048F00038B5064C05462046FFF792FE2878FEF7AD
:1049000047FD2046BDE83840FFF722BE580C002086
:1049100070B5114C002818BF044604F11005284654
:104920000E46FFF77DFEA3686BB100221446D3E963
:10493000003001340244002BF9D128463260FFF7E1
:1049400007FE204670BD1A461C4628463260FFF717
:10495000FFFD204670BD00BF381B00200000000096
:1049600030B5002983B004DD0F49FCF729FF03B0FF
:1049700030BD044601A90020FFF7CAFF0B4A0C4BCB
:1049800012681B680B49D21A05462046FCF718FF2F
:104990002A4609492046FCF713FF2046019A074999
:1049A000FCF70EFF03B030BD50A60008581B0020D6
:1049B000241C002060A6000880A6000898A6000815
:1049C00010B370B550F8085C05F1100604460835C0
:1049D0003046FFF725FEA4F108012B468B4204D890
:1049E0005A6808321A44914209D3AB421A6801D07E
:1049F0008B4202D26AB191420BD31346EEE772B6F4
:104A0000154B164ADA62FEE772B6134B134ADA62A6
:104A1000FEE744F8082C54F8042C196054F8085C9C
:104A2000A018A84207D14068A55844F8085C08328D
:104A3000024444F8042C586800F108021A449142D8
:104A400005D154E902120832024419605A60304616
:104A5000BDE87040FFF77CBD58150020F09F0008AE
:104A6000F8B5204E002818BF064606F1100707319A
:104A7000384621F0070506F10804FFF7D1FD03E0F1
:104A80004368AB4212D2044620680028F8D1384669
:104A9000FFF75EFD336813B305F108009847F0B1E6
:104AA000C0E9006500F108042046F8BD05F10802E0
:104AB0009342016808D221600446384644F8086BE6
:104AC000FFF746FD2046F8BD00EB020C5B1B083BE0
:104AD0008150CCF80430C4F800C04560ECE70024F5
:104AE000E2E700BF381B00200000000000000000CB
:104AF00070B582B069460020FFF70AFF1021002040
:104B0000FFF7AEFF011C054618BF01210120FBF78E
:104B1000F7FC08B102B070BD04462846FFF750FF0D
:104B20006FF0FF012046FFF79BFFB0FA80F14909C3
:104B30000220FBF7E5FC0028ECD169467C48FFF732
:104B4000E7FE10217A48FFF78BFF102106467848D0
:104B5000FFF786FF102105467548FFF781FF0446E1
:104B60003046FFF72DFF2846FFF72AFF2046FFF7C4
:104B700027FF01A96E48FFF7CBFEA0F10101B1FAB2
:104B800081F149090320FBF7BBFC0028C2D11021A9
:104B90006748FFF765FF102104466548FFF760FF8F
:104BA000102105466248FFF75BFFFFF709FF284623
:104BB000FFF706FF2046FFF703FF01A95C48FFF758
:104BC000A7FEA0F10101B1FA81F149090420FBF728
:104BD00097FC00289ED111215548FFF741FF102175
:104BE00004465348FFF73CFF05462046FFF7E8FE22
:104BF00001A94F48FFF78CFEA0F10201B1FA81F143
:104C000049090520FBF77CFC002883D11021484886
:104C1000FFF726FF01A904464548FFF779FE012862
:104C200000F0838001A94248FFF772FEA0F1020163
:104C3000B1FA81F149090620FBF762FC00287FF4F4
:104C400069AF2846FFF7BCFE2046FFF7B9FE01A971
:104C50003748FFF75DFEA0F10101B1FA81F1490982
:104C60000720FBF74DFC00287FF454AF102130489B
:104C7000FFF7F6FE102105462D48FFF7F1FE04462A
:104C80002846FFF79DFE01A92948FFF741FE851E32
:104C9000694269410820FBF733FC00287FF43AAFF2
:104CA00020212348FFF7DCFEFFF78AFE2046FFF7AE
:104CB00087FE01A91E48FFF72BFE01384142414102
:104CC0000920FBF71DFC00287FF424AF01A9184838
:104CD000FFF71EFE01991648FFF7C2FE01A9044620
:104CE0001348FFF715FEB0FA80F149090A20FBF7D7
:104CF00007FC00287FF40EAF2046FFF761FE01A9F4
:104D00000B48FFF705FE421E514251410B20FBF7B5
:104D1000F7FB00287FF4FEAEDDE90031CB1A5942E3
:104D200059410C20FBF7ECFBF4E6014683E700BF9A
:104D300048230020000000000000000000000000E8
:104D40008268002A08B5036806DB834206D072B683
:104D5000174B184ADA62FEE78342F8D00146202357
:104D600083F31188FDF76CFAFDF75AFB8B6801336A
:104D7000002B8B6010DDFDF773FAFDF759FA0C4B31
:104D80001A689A4204D099699268896891420BD353
:104D9000002383F3118808BD086803680B6059601D
:104DA0000021FDF76DF8E6E772B6034ADA62FEE726
:104DB0005815002080A00008A09D000800000000F9
:104DC00038B50146202383F31188FDF739FAFDF742
:104DD00027FBFBF7C5FD8B680A68002B06DB8A42C0
:104DE00006D072B6164B174ADA62FEE78A42F8D04E
:104DF000013B002B8B60124C11DB0025FDF730FAD4
:104E0000FDF716FA2368A34204D0A2699B68926852
:104E10009A4211D3002383F31188284638BDA36931
:104E2000596219604A685A60052013604B60FDF7AB
:104E30005FF8A3695D6AE1E772B6034BE362FEE7E0
:104E400058150020E09F0008A09D00080000000009
:104E500038B5084CA36993F821305A0708D4064D99
:104E60002846FFF7ADFFA36993F821305B07F7D51C
:104E700038BD00BF58150020281C0020000000008D
:104E800010B5044C2046FFF79BFF2046BDE81040BC
:104E9000FFF756BFD00C002000000000000000000B
:104EA00010B504460348FFF78BFF2078BDE810409B
:104EB000FEF76EBAD00C00200000000000000000D9
:104EC00038B5202383F311880F4CFDF7B9F9FDF7AE
:104ED000A7FA256995F82230013385F82230FDF7CD
:104EE000BFF9FDF7A5F92368A34204D0A2699B6826
:104EF00092689A4204D3002383F31188284638BD70
:104F000072B6024BE362FEE758150020909D000840
:104F10002DE9F04182B0174698460E46089DFFF7EE
:104F20009FFD0446A0B300F160010346FF2203F891
:104F3000012B9942FBD1A2199A4204D9552103F8B9
:104F4000011B9A42FBD1202383F31188FDF778F9E6
:104F5000FDF766FA3A464346314620460095FBF790
:104F60007FFD012380F8213000210446FCF788FFF3
:104F7000FDF776F9FDF75CF9094B1A689A4204D0FF
:104F8000996992688968914206D3002383F3118856
:104F9000204602B0BDE8F08172B6024ADA62FEE74E
:104FA00058150020809D000800000000000000004F
:104FB00038B50446202383F31188FDF741F9FDF746
:104FC0002FFA94F82230CBB1013BDDB284F82250A5
:104FD000FDF746F9FDF72CF91B4B1A689A4204D0ED
:104FE00099699268896891420DD3002383F31188EF
:104FF0001DB994F820300F2B09D038BD72B6124B72
:10500000124ADA62FEE772B6114ADA62FEE794F8F3
:10501000213003F00303012B0CD0022BEDD1D4E996
:1050200004231A612269606C53612146BDE838404F
:10503000FEF79EBDD4E904231A612269204653611C
:10504000BDE83840FFF7BCBC58150020609F000841
:10505000809D00080000000000000000000000002B
:1050600070B52023064683F31188FDF7E9F8154C47
:10507000FDF7D6F93569A54222D095F82230FF2BED
:1050800016D0013385F82230FDF7EAF8FDF7D0F8A5
:105090002368A34204D0A2699B6892689A420BD30A
:1050A000002383F311883046FFF782FF284670BD46
:1050B00072B6054BE362FEE772B6044BE362FEE7AD
:1050C0000025E1E758150020709F0008909D00081A
:1050D000002902DD1349FCF773BBF0B51249134FE9
:1050E000134E85B00546FCF76BFBFFF7E9FE04465F
:1050F00094F82020E36857F82220029294F82220A6
:10510000013A0192A2680092314622462846FCF7F5
:1051100057FB2046FFF7A4FF04460028E8D105B05E
:10512000F0BD00BFF0A6000804A70008C0AA000850
:1051300034A700080000000000000000000000008C
:1051400038B50546FFF7BCFE002403461846AB42BF
:1051500008BF44F00104FFF783FF03460028F5D1A0
:10516000204638BD000000000000000000000000E4
:1051700000283AD070B52023044683F311881D4DD2
:10518000FDF75EF8FDF74CF9AB69A34229D094F81E
:10519000222012B394F820200F2A05D0A26A1A60A8
:1051A0000920A362FCF7A4FE666AFDF759F8FDF733
:1051B0003FF82B68AB4208D0AA699B6892689A4274
:1051C00003D272B60C4BEB62FEE7002383F3118827
:1051D0002046FFF7EDFE304670BD72B6074BEB621E
:1051E000FEE772B6054BEB62FEE772B6014B034A6F
:1051F000DA62FEE758150020709D000860A10008E3
:10520000002902DD0E49FCF7DBBA10B50D4A0E4B42
:10521000926982B00446926800904FF4F4710020C5
:10522000FFF776FE20B102B0BDE81040FFF7A0BF47
:105230000649204602B0BDE81040FCF7C1BA00BFE5
:10524000D0A600085815002011560008E0A6000856
:1052500070B5074C002604F1140554F8040B18B17E
:10526000FFF786FF44F8046CAC42F6D170BD00BF76
:105270006C2300200000000000000000000000007F
:10528000F8B5304B304C314F9B6931499D6804F182
:105290000C063846FEF76CFCB44206D054F8041BEA
:1052A0003846FEF765FCB442F8D12A492A4C681EFC
:1052B000FEF7BEFC29492060A81EFEF7B9FC28496C
:1052C0006060E81EFEF7B4FC2649A060281FFEF7C8
:1052D000AFFC2549E060681FFEF7AAFC2168206149
:1052E00041B1616831B1A16821B1E16811B1B0FA91
:1052F00080F149090120FBF703F900B1F8BDFFF780
:10530000A7FF1A490220FBF7D3F80028F6D10F4D6A
:1053100004242846FEF75CFC011C18BF0121032071
:10532000FBF7EEF80028E9D1013CF2D10748FEF77F
:105330004FFCB0FA80F149090420BDE8F840FBF7C2
:10534000DFB800BF5815002094B40008081C0020E6
:10535000381C0020B0A700086C230020B4A7000868
:10536000B8A7000800B00008A4A80008BCA700085F
:1053700070B5344B34489B69344C9D6884B002A9A5
:10538000FFF7C6FA324B00936A1E324B2E484FF499
:10539000B471FFF7BDFD304B2060AA1E00934FF49F
:1053A000B4712C4B2848FFF7B3FD03A96060264871
:1053B000FFF7AEFA03992448FFF752FB274B0093FF
:1053C0004FF4B4710646EA1E224B1F48FFF7A0FDBA
:1053D000A0603046FFF7F4FA216821B1616811B18D
:1053E000A16831B300210120FBF78AF808B104B0AD
:1053F00070BDFFF72DFF1A490220FBF759F800286E
:10540000F5D103A91048FFF783FAA0F10101B1FA21
:1054100081F149090320FBF773F80028E7D1DDE9A2
:105420000231C91AB1FA81F149090420FBF768F881
:10543000DDE7E368002BD6D12169B1FA81F1490992
:10544000D1E700BF58150020B01B00206C230020BE
:10545000B0A70008613B0008B4A70008B8A700087F
:10546000A0A70008000000000000000000000000ED
:1054700008B50146202383F31188FCF7E1FEFCF711
:10548000CFFF0846FCF7E4FD00000000000000002C
:1054900008B5FFF7EDFF00BF0000000000000000AE
:1054A00038B5202383F31188214CFCF7C9FEFCF7A3
:1054B000B7FFFBF755FAFBF753FA2368A56999681C
:1054C000AA6891420FD2FCF7CBFEFCF7B1FE23682D
:1054D000A34204D0A2699B6892689A4223D3002316
:1054E00083F3118838BD1A68226001215460284670
:1054F00083F82010A361FBF703FB2846FBF710FAA3
:105500002946A069FBF7B4F9EFF30983EA69243B64
:105510009A4204D82946A069FAF7A2FED3E772B6E8
:10552000044BE362FEE772B6034BE362FEE700BFA3
:105530005815002070A40008709D000800000000AD
:1055400038B5094D0446FFF7ABFFFFF7A9FFFFF79A
:10555000A7FFFFF7A5FF2368AA690433236092F829
:1055600021305B07EFD538BD581500200000000042
:1055700008B50146202383F31188FCF761FEFCF790
:105580004FFF0820FCF78CFDFCF76AFEFCF750FE8D
:10559000084B1A689A4204D09969926889689142C6
:1055A00003D3002383F3118808BD72B6024ADA627E
:1055B000FEE700BF58150020709D000800000000A5
:1055C0000D4B0E4A9B69DFF83C800D4D012680B5DE
:1055D0009A61374698F800206F8340F6C41341F271
:1055E0008834042A08BF1C462046FFF7C1FF204626
:1055F0002E83FFF7BDFFEDE758150020509D0008F2
:1056000000080048D0140020000000000000000046
:105610002DE9F04FA04CA14D206085B0A048FAF7CD
:1056200087FFA048FAF784FF9F48FAF781FF2A21F5
:10563000206803689B68984715F8011F0029F7D177
:105640009A489B4DFAF774FF2A21206803689B68EB
:10565000984715F8011F0029F7D19648964DFAF79B
:1056600067FF2A21206803689B68984715F8011F87
:105670000029F7D19148924DFAF75AFF2A21206864
:1056800003689B68984715F8011F0029F7D18D48DA
:105690008D4DFAF74DFF2A21206803689B689847D3
:1056A00015F8011F0029F7D18848894DFAF740FF06
:1056B0002A21206803689B68984715F8011F002974
:1056C000F7D18448844DFAF733FF2A212068036814
:1056D0009B68984715F8011F0029F7D17F48804D36
:1056E000FAF726FF2A21206803689B68984715F877
:1056F000011F0029F7D17B4B7B4802937B4B039121
:105700000193FAF715FF6648DFF81882784FDFF843
:1057100018A2FAF70DFF774B03991970764B8B4659
:105720000BF1010B0026002B00F08980734DFAF776
:10573000A7FE2D21206803689B68984715F8011F74
:105740000029F7D15846FAF78BFE2068DFF8DC9184
:1057500003682E219B68751C98472846FAF780FE3F
:105760002021206803689B68984719F8011F0029C9
:10577000F7D158F82630D3F8009099F8001039B1D5
:10578000206803689B68984719F8011F0029F7D122
:105790005B48FAF7CDFE4FF4FA60FFF7E9FE594A8D
:1057A000594B3B60002358F826901361C2E900333F
:1057B000C2E90233D9F804208AF8003002B19047D8
:1057C000D9F80C309847D9F8083003B19847FFF75B
:1057D0003FFD9AF80030002B3CD0DFF854912D218A
:1057E000206803689B68984719F8011F0029F7D1C2
:1057F000464BDFF840911868FAF732FE2021206806
:1058000003689B68984719F8011F0029F7D13B6886
:105810003D4A934209D99146206819F8011B036853
:105820009B6898473B689945F6D33948FAF780FE5C
:1058300008EB86032E465B68002B7FF477AF019A56
:1058400062B113689046029A114651F8042F0192F2
:10585000029165E72F48FAF76BFEE9E7FAF710FEC9
:105860002D4D0F48FAF764FE4621206803689B68B7
:10587000984715F8011F0029F7D11E4B1B782BB94B
:10588000264805B0BDE8F04FFAF752BE244805B0EF
:10589000BDE8F04FFAF74CBE301B0020109C00080A
:1058A000B4AA0008F09C00080C9D0008C4A40008DD
:1058B000249C0008109D0008389C0008E0A4000803
:1058C0004C9C00083CA50008609C00085CA50008F2
:1058D000749C00087CA50008889C0008A8A5000806
:1058E0009C9C000884A90008D8A50008F0A900081D
:1058F0009023002040230020B0B20008B09C000894
:10590000289D00086C23002080230020AC1B002071
:105910002C9D0008309D0008E09C00083C9D00087C
:10592000449D0008E0A90008041C0020C09C000859
:10593000C49C0008DC9C000800000000000000007F
:1059400030B55D4D5D49AA695D4B92685D4883B095
:10595000013A00914FF4B471FFF7DAFA04460120DE
:1059600094F82210091AB1FA81F14909FAF7C8FD31
:1059700008B103B030BD202383F31188FCF760FC2D
:10598000FCF74EFD94F82230FF2B00F0918001339C
:1059900084F82230FCF764FCFCF74AFC2B68AB422D
:1059A00004D0AA699B6892689A427DD3002383F34E
:1059B000118894F822100220091AB1FA81F14909DC
:1059C000FAF79EFD0028D4D12046FFF7F1FA94F8AB
:1059D0002210A1F10101B1FA81F103204909FAF77E
:1059E0008FFD0028C5D12046FFF7AAFB0146042001
:1059F000FAF786FD0028BCD12046FFF7A1FB01463F
:105A00000520FAF77DFD0028B3D12046FFF7D0FA34
:105A100094F82210B1FA81F149090620FAF770FDD5
:105A20000028A6D194F82010B1FA81F14909072085
:105A3000FAF766FD00289CD12046FFF781FB01465E
:105A40000820FAF75DFD002893D12046FFF778FB88
:105A500001460920FAF754FD00288AD14FF4FA7064
:105A6000FFF786FD94F82010A1F10F035942594128
:105A70000A20FAF745FD00287FF47BAF2046FFF7A8
:105A80005FFB01460B20FAF73BFD00287FF471AF66
:105A90002046FFF755FB80F00101C9B20C2003B08E
:105AA000BDE83040FAF72CBD72B6074BEB62FEE75B
:105AB00072B6064BEB62FEE758150020B0A700084F
:105AC000613B0008B01B0020809D0008309F00084B
:105AD00010B504464FF4FA70FFF74AFDECB12023ED
