:020000040800F2
:1000000000040020C100000841020008410500086A
:1000100041050008410500084105000841050008A8
:100020004105000841050008410500084105000898
:100030004105000841050008410500084105000888
:100040004105000841050008410500084105000878
:100050004105000841050008410500084105000868
:100060004105000841050008410500084105000858
:100070004105000841050008410500084108000845
:100080004105000841050008410500084105000838
:100090004105000841050008410500084105000828
:1000A0004105000841050008410500084105000818
:1000B0004105000841050008F10600084105000857
:1000C00072B6204880F30988022080F31488BFF3B9
:1000D0006F8F00F025FC1C481C491D4A914202DA32
:1000E00008600431FAE71B49164A914202DA0860B7
:1000F0000431FAE71849194A194B9A4204DA086898
:10010000106004310432F8E700201649164A914283
:1001100002DA08600431FAE701F092F9134C144D49
:10012000AC4203DA216888470434F9E700F038FD6F
:10013000104C114DAC4203DA216888470434F9E7CA
:100140000E4908470006002055555555000000206F
:100150000004002000040020801600080006002093
:100160000006002000060020600F0020C0000008EC
:10017000C0000008C0000008C000000831140008DA
:10018000F0B544464D4656465F46F0B46B46CB60EC
:10019000C3689D46F0BCA046A946B246BB46F0BD2A
:1001A00000F046FC62B6281CA047002001F018F9B8
:1001B00000F056FC00F00CFC00F03AFC014A024B47
:1001C0001360FEE704ED00E0000000800000000086
:1001D000FEE7C04600000000000000000000000034
:1001E0008023DB05DA68920701D55863704772B641
:1001F000014B024ADA62FEE7D009002040150008F0
:1002000080B500AF72B6EFF30983203B83F3098812
:1002100080225204DA61074A1168926989689268FB
:10022000914203D8044A9A61BD4680BD034A9A614F
:10023000FAE7C046D0090020BC010008B10100085F
:1002400080B500AFEFF30983203383F3098862B6EA
:10025000BD4680BD0000000000000000000000005E
:1002600080210B4AC905D36B496A196091695960AD
:10027000416A99602021415C19738821C9001033BB
:1002800051188B4201D313004033D3637047C046EB
:10029000D009002000000000000000000000000065
:1002A000054B1A6B002A03D15A6B002A00DD7047F8
:1002B00072B6024ADA62FEE7D00900203016000862
:1002C000054B1A6B002A03DB5A6B002A00DD7047CE
:1002D00072B6024ADA62FEE7D00900202016000852
:1002E00010B50400FFF7ECFF002C19D02023E25CCE
:1002F000002A10D00F2A0ED00022E254A2680B4B25
:100300001B6899689142FBD25A68236062602000A2
:1003100014605C6010BD72B6044B054ADA62FEE7F9
:1003200072B6024B024ADA62FEE7C046D0090020EC
:10033000E0140008000000000000000000000000C1
:1003400070B50400006884420BD0036823605C60D1
:100350002023C35C042B05D072B60A4B0A4ADA622A
:10036000FEE770BD002620254662FFF7B9FF206832
:100370008442F6D0036823605C60435D042BEBD1BC
:10038000F2E7C046D0090020C014000800000000B9
:10039000F0B5D6464F464646C0B507008846FFF73B
:1003A0008FFF3C68A74223D020239A46002399461A
:1003B0004346E26813434246E360002A02D02269C2
:1003C0001A4212D06568A668FFF77AFF002D1DD08B
:1003D0005246AB6B3343AB63AA5C0A2A0DD00B2A9F
:1003E00003D16A6A13409A420AD02468A742DFD137
:1003F0001CBC90469946A246F0BD6A6A1A42F4D0E7
:100400004B4628006B62FFF76BFFEEE772B6024BBC
:10041000024ADA62FEE7C046D00900200015000853
:1004200072B6074B1A6B002A02DD596B002903D004
:1004300072B6044ADA62FEE7013A1A6362B670479E
:10044000D009002080150008000000000000000016
:1004500072B6074B1A6B002A02DB596B002903D0D6
:1004600072B6044ADA62FEE701321A6362B6704776
:10047000D0090020701500080000000000000000F6
:10048000064B1A6B002A05DD5A6B002A02DD00229A
:100490005A63704772B6024ADA62FEE7D00900205A
:1004A000C01500080000000000000000000000006F
:1004B000064B1A6B002A02DD5A6B002A03D072B673
:1004C000034ADA62FEE701225A637047D00900202E
:1004D000A01500080000000000000000000000005F
:1004E00070B5040072B6FFF7E3FF2023E35C072B2F
:1004F0000ED8114A9B00D3589F46656AFFF7E0FE6D
:10050000AB680133AB60226863681A60226853608D
:1005100001235B4263622000FFF7E2FEFFF7B0FFBA
:1005200062B670BD0022636A20001A6001235B423C
:100530006362FFF7D5FEF1E75014000800000000E9
:1005400072B6024B024ADA62FEE7C046D0090020CA
:10055000D0150008000000000000000000000000AE
:1005600070B50600FFF79CFE20220E4CA56923689B
:10057000AE54196828004C60216001219954A36190
:10058000FFF76EFEEFF30983EA69243B9A4204D831
:100590002900A069FFF7F4FD70BD72B6024BE3625B
:1005A000FEE7C046D0090020401600080000000009
:1005B000F0B587B00E000700FFF772FEFFF780FE70
:1005C000002E04D172B6434B434ADA62FEE7414D36
:1005D00001ACAB692361414BE3608023DB055A6AC0
:1005E000012E3CD02900EB691C3190198B425CD064
:1005F000AA6A861A9A68964203D251E01B68B61A14
:100600009A68B242FAD35A680193626014605C60DF
:10061000A6609A68961B9E6001235B426B6238005D
:10062000FFF79EFFFFF74CFE049B002B13D0FFF754
:1006300047FEEA69019BA24213D062681360019BE6
:100640005A600022E260264A934204D09968A26868
:100650008C4662449A60AB69586A07B0F0BD0136B7
:10066000C0E700221E49EB615960E2608B4213D063
:100670009A68A0689446604498608023DB055A6AB3
:10068000AB6AD31A9842E6D9C01A022800D20220D7
:100690008018FFF7A5FDDEE78023DB05DA60DAE7E7
:1006A000FFF79EFDEB699A68ABE7019363608023D7
:1006B0000221AA62A660DB05DA68EC612C620A40BE
:1006C00003D158631A61D960A9E772B6054BEB6292
:1006D000FEE7C046D0090020F0140008E10400083D
:1006E000EC090020201500080000000000000000B8
:1006F000F8B57646FFF7ACFE4E4C4F4AE36A9A6077
:1007000072B6FFF7D5FE20000830FFF719FE200073
:1007100001211C30FFF73CFEFFF7B2FE62B6E36A30
:10072000DD68AA0700D070E010222A420CD0DA60FF
:1007300072B6FFF7BDFE200010212030FFF728FE23
:10074000FFF79EFE62B6E36A1D69AA0748D1102230
:100750002A420CD01A6172B6FFF7AAFE20001021BF
:100760002030FFF715FEFFF78BFE62B6E36A1C220E
:100770005D685A602A0721D46B0715D570200727BA
:10078000E36A9D699A692F4082439A61284212D197
:1007900072B6FFF78DFE2000290439432030FFF7A1
:1007A000F7FDFFF76DFE62B6FFF73AFE0F3601D098
:1007B000FFF726FDF8BD08231F43E9E703220221C6
:1007C00022701A688A431A6072B6FFF771FE200021
:1007D00000212830FFF7DCFDFFF752FE62B6CBE7C1
:1007E00010215A698A435A6172B6FFF761FE2000F0
:1007F0001030FFF7A5FD200002211830FFF7C8FDDB
:10080000FFF73EFE62B6E36AA1E702215A698A4316
:100810005A6172B6FFF74CFE20001030FFF790FDD2
:10082000200001211830FFF7B3FDFFF729FE62B663
:10083000E36A79E7000600200101010000000000E2
:10084000F0B5D6464F4646468024C0B5E405774607
:10085000FFF7FEFD23699B070AD4FFF7E1FD0F3781
:1008600001D0FFF7CDFC1CBC90469946A246F0BDD6
:100870000023236172B6FFF71BFEFFF721FDFFF790
:100880001FFD234D616AEE69AA6AB368881A98420F
:1008900022D31C2189460021A94488460EE0FFF797
:1008A000EFFD62B63069D04772B6FFF701FEEE6920
:1008B000616AAA6AB368881A83420DD8D3184A4677
:1008C000AB6233685A60F268EB6192464246F2606E
:1008D0004B45E4D1E260E2E70E48864214D09B1813
:1008E0005B1A022B00D202235C182000FFF778FC71
:1008F0008023DB055A6AAB6AD21AE31A9A4203D9FB
:1009000072B6054BEB62FEE7FFF7BAFD62B6A4E7ED
:10091000D0090020EC090020B014000800000000FD
:100920000121264B1A680A431A6001311A681142E4
:10093000FCD003215A688A435A605A6809315A60C8
:100940001E4A53680B40FCD1F92110680140116028
:1009500001215360536B0B435363184A0131536BAE
:100960001942FCD00121536A0B435362134A0131EF
:10097000536A1942FCD0A1239B0353600023D36226
:100980001363802311685B040B43802113600B4ABF
:10099000890413680B42FCD01121094B196053687C
:1009A0000F390B435360054A0A3153680B40082B3B
:1009B000FBD1012193690B43936170470010024002
:1009C00000200240000000000000000000000000C5
:1009D0002021012070B5134D2A68AC691368A66800
:1009E0005D605054AA6100222B60625400E01B68D5
:1009F0009A689642FBD35A682360626020001460B4
:100A00005C60FFF72DFCEFF30983E269243B9A4217
:100A100004D8A8692100FFF7B3FB70BD72B6024B82
:100A2000EB62FEE7D009002040160008000000003D
:100A3000064B1A6B002A04D1596B002901DD5A6359
:100A4000704772B6024ADA62FEE7C046D00900205B
:100A5000B0150008000000000000000000000000C9
:100A6000064B1A6B002A02D15A6B002A03D072B6C9
:100A7000034ADA62FEE701225A637047D009002078
:100A800090150008000000000000000000000000B9
:100A9000F8B54746CE46050080B5984617000400D5
:100AA0000E000300FF2248351A7001339D42FBD12E
:100AB000A219954205D22B005521197001339A4293
:100AC000FBD172B6FFF7CCFFFFF7FAFB33004246CB
:100AD000243BE318E3601A61002290465A612A4AD7
:100AE0002A4E1A624346E363A36302332384013B25
:100AF00099464A462133A7602764E254434626615B
:100B0000A361736963611C6123002833A36204330A
:100B1000E3622363E5617461FFF7C2FB4346B0699A
:100B2000636283689F4226D9FFF7DAFB20234A4697
:100B3000E2540500B461FFF793FBEFF30983EA6920
:100B4000243B9A4213D829002000FFF719FBFFF736
:100B50006FFF3368B34204D0B2699B6892689A42CF
:100B60000DD362B620000CBC90469946F8BD72B613
:100B7000074BF362FEE72000FFF7B2FBE7E772B630
:100B8000044BF362FEE7C046A1010008D009002033
:100B9000401600087014000800000000000000006B
:100BA000F8B5D94B01219A6ADE46002257464E46D7
:100BB00045464942E0B599629A62186919611A611D
:100BC000D868D2490143D9608021DA60D8694905E3
:100BD0000143D9618021CE48490004682143016066
:100BE000C020196A800001400138FF38814203D0DB
:100BF0008021490219621A628022C34B1202196ACB
:100C0000114207D18021186A890001431962196ACB
:100C10000A431A62FC23BC4EDB037269FC211343B6
:100C2000902273610023A020D205090653609160D1
:100C3000B8498005D160B84980245161136253627C
:100C40001060FC20B54A800053609060B448A40452
:100C5000D060A82000065161136253621060B14A4F
:100C6000B14853609060B148A146D060B048B14FE0
:100C70005061B148136253621060B04AB04853608B
:100C80009360D0605161136253621360AD4A536048
:100C90009360D0605161AC4D1362AC4853621360F5
:100CA000AB4A53609360D06051611362536213602A
:100CB0002A000832AA60EA602A0010322A616A61BA
:100CC0002A001832AA612A001C32EA612A00203266
:100CD0002A622A000121243229706A622A00F069FE
:100CE000283220438024AA629A4A6B60EA62A400F8
:100CF000F0611059000C00043843105190208027F7
:100D000080001350043013504038135010301350EB
:100D100008381150103011501059FF0588431051F8
:100D2000F2698D48813C0240F261F2698B480A43C6
:100D3000F2618268FF3C0A438260894ABA620122FA
:100D40005242FA629346874ABB619046CF224046A0
:100D500092007B63FB607B60796139608450BD3AAF
:100D6000FF3A924680225446120202517E4C0260A3
:100D7000226A7E48024022627D4C072022001C32FB
:100D8000E26122625A4662627A4AA3600732824373
:100D900093465846784AA362246064601060072036
:100DA000764A824376480260764A774893601060BC
:100DB000100010301061506120004030E063892045
:100DC000D36093614022C000225038302250A26389
:100DD0006E4AA350043AA350203AA3508A23DB0062
:100DE000E4506B4B1032E450A018143BE318A050B1
:100DF000684A684823616361A3618C23A21822506A
:100E0000043022500122DB00E152634BE254634B79
:100E1000634AE250236B002B02D1636B002B03D09B
:100E200072B6604BE362FEE762B65F4AA369E021F7
:100E30009A615E485E4B0122FFF72AFE5D4B83619B
:100E400072B6FFF70DFE2A78012A03D072B65A4B0C
:100E5000E362FEE702232B70584B40466B60DE23B3
:100E6000C0219B00C1505146475049460760F36975
:100E70001943EB6AF1611A605968114207D10121E7
:100E80000820FFF795FBEB6A5A68D207F7D56A6826
:100E900051681268D9611A60494A5A6103232B705C
:100EA000FFF7C6FD2368A34204D0A2699B6892683D
:100EB0009A4221D362B6E821424B47224900424878
:100EC000FFF7E6FDE821414B472249004048FFF784
:100ED000DFFD72B6FFF7C4FD3E490820FFF768FB4F
:100EE000FFF7A6FD2368A34204D0A2699B6892681D
:100EF0009A4205D362B6ECE772B6374BE362FEE77F
:100F000072B6364BE362FEE700100240FFFFBFFF00
:100F10000070004054551564FFFF000000040048B5
:100F2000555555010008004803F00FF054055005D1
:100F30003FFC0000010E000001500500000C0048BD
:100F40005555555500100048000600205055555580
:100F50000014004800640040FFFFFFFD00580140FE
:100F6000BF12000000E100E000ED00E0FFFF00FF25
:100F7000D0090020600F00205C0F002000400020FE
:100F8000580F0020380F0020E10F00087C040000FB
:100F9000540400006C040000620400005C040000C3
:100FA000000400207016000850160008580E00209B
:100FB000D101000878160008301500081016000846
:100FC0005B8F0100B11100083006002041100008BD
:100FD0000008002088130000A01400087014000806
:100FE00010B5040072B6FFF73BFDFFF769F9072261
:100FF000E31D93430E490F4A0C681268121B93427B
:1010000013D8E3180B60FFF713FD0B4B1A689A42D5
:1010100004D0996992688968914202D362B620002F
:1010200010BD72B6054ADA62FEE70024EBE7C0465F
:101030005C0F0020580F0020D009002090140008F9
:10104000F0B54E4C4E4BA16987B08B61039B4D4A66
:1010500001935B0F5B07134303932123CB5C5B0777
:1010600042D4E026484D760572B6FFF7F9FC2B789E
:10107000DA1E012A3AD82F00083700E02B78042B1B
:1010800003D0E86A8368334238D1FA21A369EA6859
:101090001F605A60890013600420EB60FFF788FA34
:1010A0000028EBD0FFF7C4FC2368A34204D0A26958
:1010B0009B6892689A421DD362B672B6FFF7D0FC65
:1010C00032490820FFF774FAFFF7B2FC2368A34205
:1010D00004D0A2699B6892689A424AD362B62123DF
:1010E000A269D35C5B07BFD507B0F0BD72B6284BD1
:1010F000E362FEE772B6274BE362FEE70F2102AA26
:10110000127883688A43110008220A4310218A4317
:1011100049189B010A4302AF9B0F3A700A4224D040
:10112000039A1C390192D20011431B01C222C31839
:101130000820520098501A0017488932FF32106078
:101140001648506001220A43C02149005A50FFF757
:101150006FFC2368A342AFD0A2699B6892689A4251
:10116000AAD272B60B4BE362FEE702AA9188490548
:10117000DBE772B60A4BE362FEE7C046D009002007
:1011800000160008674523010006002088130000B0
:1011900050150008A0140008AA55AA55FF00FF002A
:1011A00070140008000000000000000000000000B3
:1011B000F0B5DE4657464E464546E0B5814C824A7C
:1011C000A36987B09A6172B6FFF74AFC7F4D01AE02
:1011D000AB69AE610193A36973600123B36000231F
:1011E000F360013B3361FFF723FC2368A34205D082
:1011F000A2699B6892689A4200D2A0E062B6D823A6
:101200005B00994621239B461D3B9A465B4652460E
:10121000A769FB5C1A4274D172B6FFF721FCBB6B65
:101220009846002B0BD1FA21013B7B6289000A20F2
:10123000FFF7BEF9002800DAB3E0BB6B9846002345
:10124000BB63FFF7F5FB2368A34204D0A2699B6848
:1012500092689A4251D362B64346002BD6D0DA2325
:10126000DC275B0098467F0072B6FFF7F9FB2B780E
:10127000DA1E012A3DD8042B07D00322EB6AD96875
:101280000A420ED119690A420BD1FFF7D1FB23683C
:10129000A34204D0A2699B6892689A4260D362B666
:1012A000B0E70322D9680A4261D0494659584146FD
:1012B0005958D959DE21490059582021D960D96897
:1012C000114244D0FFF7B4FB2368A34204D0A269C3
:1012D0009B6892689A423FD362B680213C4A536928
:1012E0004B40536172B6FFF7BBFB2B78DA1E012A25
:1012F000C1D972B6374BE362FEE772B6364BE36292
:10130000FEE772B61835FFF7ABFB2A0002E0B342E6
:101310002AD01D002B689342F9D1FFF789FB23687F
:10132000A34204D0A2699B6892689A420BD362B62A
:1013300007B03CBC90469946A246AB46F0BD72B69B
:10134000254BE362FEE772B6234BE362FEE702221F
:1013500059690A435A61B5E772B6204BE362FEE76A
:1013600072B61E4BE362FEE733682B60D5E719695E
:101370001142A7D0E02149005958E22149005958AB
:10138000E42149005958E6214900595820211961A2
:101390001969114200D095E7102259690A435A6130
:1013A00090E7FFF745FB2368A34204D0A2699B683E
:1013B00092689A4201D362B628E772B6064BE3629E
:1013C000FEE7C046D0090020F01500080006002006
:1013D000000800486015000880140008A0140008E8
:1013E00070B5060072B6FFF73BFB0F4DAC69666245
:1013F0002600A06A2836B04206D00368A362FEF732
:101400006FFFA06AB042F8D12123E35C9B0704D1AF
:10141000226963691A61226953610F20FFF7A0F8FE
:1014200072B6024BEB62FEE7D009002010150008EF
:10143000FEE7C046000000000000000000000000C1
:101440007047C046000000000000000000000000DF
:101450001C050008100500081005000824050008F8
:1014600006050008FA040008100500080605000833
:101470006368537973556E6C6F636B0000000000F6
:101480006368537973556E6C6F636B0000000000E6
:101490006368537973556E6C6F636B0000000000D6
:1014A0006368537973556E6C6F636B0000000000C6
:1014B00063685654446F5469636B49000000000030
:1014C0006368546864446F446571756575654E65FD
:1014D00078744900000000000000000000000000D7
:1014E00063685363685265616479490000000000D5
:1014F00063685654446F536574490000000000004F
:1015000063684576745369676E616C49000000003A
:1015100063685468644578697453000000000000F3
:1015200073745374617274416C61726D00000000D9
:1015300063616E537461727400000000000000006B
:101540007374536574416C61726D0000000000009B
:1015500063616E5472616E736D6974000000000007
:1015600063616E5265636569766500000000000086
:101570005356233800000000000000000000000067
:101580005356233900000000000000000000000056
:10159000535623340000000000000000000000004B
:1015A0005356233600000000000000000000000039
:1015B000535623350000000000000000000000002A
:1015C0005356233700000000000000000000000018
:1015D000756E68616E646C656420657863657074AF
:1015E000696F6E00000000000000000000000000B5
:1015F0007265636569766572000000000000000096
:101600007472616E736D697474657200000000001D
:101610006400000006001840000000000000000008
:10162000535623313000000000000000000000008D
:10163000535623313100000000000000000000007C
:10164000737461636B206F766572666C6F770000F0
:101650006D61696E00160118040448080C10141816
:101660001C202122000000000000000000000000FB
:10167000535623330000000069646C6500000000CD
:04000005080000C12E
:00000001FF
