:020000040800F2
:100000000004002041010008710800087108000880
:1000100071080008710800087108000871080008DC
:100020007108000871080008710800081103000831
:1000300071080008710800087108000871080008BC
:1000400071080008710800087108000871080008AC
:10005000710800087108000871080008710800089C
:10006000710800087108000871080008710800088C
:10007000710800087108000871080008710800087C
:10008000710800087108000871080008710800086C
:10009000710800087108000871080008710800085C
:1000A00071080008A1050008710800083105000862
:1000B000E106000871080008D10500087108000871
:1000C000710800087108000871080008710800082C
:1000D000710800087108000871080008710800081C
:1000E000710800087108000871080008710800080C
:1000F00071080008710800087108000871080008FC
:1001000071080008710800087108000871080008EB
:1001100071080008710800087108000871080008DB
:1001200071080008710800087108000871080008CB
:1001300071080008710800087108000871080008BB
:1001400072B6214880F30988022080F31488BFF337
:100150006F8F00F0D5FB4FF055301C491C4A91427F
:100160003CBF41F8040BFAE71A49174A91423CBFD9
:1001700041F8040BFAE71849184A194B9A423EBF56
:1001800051F8040B42F8040BF8E700201549164A11
:1001900091423CBF41F8040BFAE701F051FB134CCC
:1001A000134DAC4203DA54F8041B8847F9E700F01A
:1001B000DFFD104C104DAC4203DA54F8041B8847A5
:1001C000F9E701F035BB0000000800200000002026
:1001D0000004002000040020F01A0008000800209D
:1001E0005408002058080020900E0020400100080C
:1001F0004001000840010008400100080000000024
:100200002DE9F04FC1F80CD0D0F80CD0BDE8F08F3C
:1002100000F006FC00F0B4FB002383F311882846AD
:10022000A047002000F0C4FC00F0B2FB00F048FC46
:1002300000F0B6FB00F0F4FB00F0A2FB00DFFEE7ED
:10024000FEE700BF0000000000000000000000000A
:1002500043691B68704700BF0000000000000000F9
:1002600003691B68704700BF000000000000000029
:100270004FF48052014B5A61704700BF001001409B
:100280004FF48052014B1A61704700BF00100140CB
:100290004FF08043DA68920701D55863704772B611
:1002A000014B024A9A62FEE790080020F01800080D
:1002B000202383F31188114B5B6813F4006302D190
:1002C00083F31188704780B400AFEFF309834FF0D8
:1002D0008071A3F1200243F8041C82F30988084AC4
:1002E000116892698968926891428CBF054A064AF2
:1002F00043F8082CBD4680BC704700BF00ED00E00D
:1003000090080020290200083C02000800000000BC
:1003100080B400AFEFF30983203383F3098800230F
:1003200083F31188BD4680BC704700BF0000000009
:10033000034AD2F8A8340133C2F8A834704700BF8A
:1003400090080020000000000000000000000000F5
:10035000104B2DE93008D0E904455B68C2688B601A
:10036000816801325B1A416814EB030B45F1000C04
:100370008B42C0E90232C0E904BC06D8BDE83008AF
:100380000268934238BF036070474360BDE830089D
:10039000704700BF001000E00000000000000000F7
:1003A000114B124A5B688168D2F8A0245B1A9B1A31
:1003B0004168C2682DE93008D0E9044514EB030B0D
:1003C00045F1000C01328B42C0E90232C0E904BCA5
:1003D00006D8BDE830080268934238BF0360704712
:1003E0004360BDE830087047001000E0900800202E
:1003F000014B5B6883607047001000E00000000064
:100400004FF080430B4A30B49169446A5D6A936B44
:10041000C3E901141D8090F8204003F1100102F29D
:100420003C4081421C732ABF02F13C0391639363F9
:1004300030BC704790080020000000000000000061
:10044000054BDA6A1AB91A6B002A00DD704772B6DA
:10045000024A9A62FEE700BF90080020A01A000836
:10046000054BDA6A002A03DB1A6B002A00DD7047AD
:1004700072B6024A9A62FEE790080020901A0008BD
:1004800008B5FFF7EDFFD0B190F8203001468BB1F1
:100490000F2B0FD000220C4B806881F820201B68A6
:1004A0009A688242FBD25A680846C1E9003211605C
:1004B000596008BD72B6044B044A9A62FEE772B6F0
:1004C000014B024A9A62FEE790080020A01800083B
:1004D000202383F31188074BDA6A002A01DD196BA8
:1004E00019B172B6044A9A62FEE7013ADA6281F300
:1004F0001188704790080020201A000800000000B2
:10050000202383F31188074BDA6A002A01DB196B79
:1005100019B172B6044A9A62FEE70132DA6281F3D7
:100520001188704790080020101A00080000000091
:1005300010B5FFF7FDFEFFF7E3FF154B1C69DA6806
:10054000144004F01E02D243A0071A6104D51148DA
:1005500043681B6903B19847610704D50D48436898
:100560009B6903B19847220704D50A4843681B6A70
:1005700003B19847E30604D5064843689B6A03B174
:100580009847FFF7A5FFBDE81040FFF791BE00BFF9
:10059000002C014070080020000000000000000056
:1005A00008B5FFF7C5FEFFF7ABFF6FF00101064886
:1005B000064A436811619B6803B19847FFF788FFBB
:1005C000BDE80840FFF774BE70080020002C014011
:1005D000F8B5294DFFF7ACFEFFF792FFEB686968AD
:1005E0001C69DA681440E2B2D2431A610B7D04F050
:1005F00002069BB9620732D52B78042B2BD0AEB9FB
:10060000E30705D56B681C481B69984703232B70CB
:10061000FFF75EFFBDE8F840FFF74ABE04F00407AD
:100620005EB12B78042B04D0002FE9D004232B706B
:10063000E6E78B68E3B128469847002FE0D02B7897
:10064000042BF3D16968CB68002BEFD00A48984798
:1006500004232B70D4E78B683BB128469847002EC3
:10066000CED02B78042BE1D1ECE7002EC8D0EAE7FE
:10067000002FC5D0E7E700BF5808002000000000A9
:10068000064BDA6A002A05DD1A6B002A02DD002219
:100690001A63704772B6024A9A62FEE79008002019
:1006A000601A0008000000000000000000000000C8
:1006B000064BDA6A002A01DD1A6B1AB172B6044AD7
:1006C0009A62FEE701221A63704700BF900800207B
:1006D000401A0008000000000000000000000000B8
:1006E0002DE9F0474FF08046FFF722FEFFF708FFA5
:1006F00033699B0705D4FFF7EBFEBDE8F047FFF732
:10070000D7BD00272023376183F31188354C04F5CA
:100710009960FFF76DFEFFF7CBFFFFF7A1FEFFF734
:100720009FFE736AE18CE5699BB2581A2A8980B2F0
:10073000904253D3B946374604F11C0606F2AC4842
:100740002B680A44B342E284D5F80CA05E60E361F2
:10075000C5F80C9008BFC7F80C90FFF791FF404612
:10076000FFF71EFE89F311882869D047202383F301
:1007700011884046FFF73CFEFFF79AFF7B6AE18C49
:10078000E5699BB2581A2A8980B28242D8D9B5420B
:1007900016D00A44D21A92B2022A2CBF9918991C78
:1007A00088B2FFF775FD4FF080435A6AE08C92B231
:1007B0000B1A121A9A4203DD72B60B4BA362FEE7C4
:1007C000FFF75EFF0948FFF7EBFD002383F3118875
:1007D000FFF77EFEBDE8F047FFF76ABD04F11C0697
:1007E000D5E700BF9008002090180008580D0020A1
:1007F00008B50146202383F311881948FFF7F8FD57
:10080000FFF756FF91F82030072B10D8DFE803F0F0
:10081000150F0F1E0A040F0A486AFFF721FE8368AE
:1008200001338360D1E900231A600A6853604FF0F6
:10083000FF3308464B62FFF723FEFFF721FF08480E
:10084000FFF7AEFD002383F3118808BD00224B6A39
:1008500008461A604FF0FF334B62FFF711FEECE7DA
:10086000580D002000000000000000000000000003
:1008700072B6024B024A9A62FEE700BF900800205F
:10088000701A0008000000000000000000000000D6
:1008900038B5FFF7D5FD0121144CA569236885F80B
:1008A00020001A682846546083F820102260A36153
:1008B000FFF7A6FDD4F8AC34A169013305F1480077
:1008C0004831C4F8AC34FFF743FDEFF30983EA691C
:1008D000243B9A4205D82946A069BDE83840FFF775
:1008E0008FBC72B6024BA362FEE700BF90080020E7
:1008F000B01A000800000000000000000000000026
:100900001B4B1A46196841F00101196013689807DA
:10091000FCD500201368164903F0F90313605060FA
:100920004B6813F00C0FFBD10B68114A43F4803372
:100930000B6013689903FCD553680D4943F4E81321
:100940005360136843F0807313600B689B01FCD500
:100950001222084B084848601A604B68044A43F06A
:1009600002034B60536803F00C03082BFAD1704765
:10097000001002400020024000641D000000000042
:100980000148FFF70DBD00BF400D00200000000032
:100990000148FFF72DBD00BF400D00200000000002
:1009A0000120002170B51A4C2268A5691368AE6851
:1009B00023605C6082F82000A26185F8201000E0CE
:1009C0001B689A689642FBD35A682846C5E90032EC
:1009D00015605D60FFF714FDD4F8AC34A1690133F4
:1009E000483105F14800C4F8AC34FFF7B1FCEFF32F
:1009F0000983EA69243B9A4205D82946A069BDE8E3
:100A00007040FFF7FDBB72B6024BA362FEE700BF6A
:100A100090080020B01A000800000000000000004C
:100A2000054BDA6A22B9196B002901DD1A63704798
:100A300072B6024A9A62FEE790080020501A000837
:100A400008B5FFF7EDFFFFF79BFF084B1A689A42C6
:100A500004D0996992688968914203D3002383F393
:100A6000118808BD72B6024A9A62FEE7900800201B
:100A700080180008000000000000000000000000D6
:100A800008B5FFF7CDFFFFF77BFF084B1A689A42C6
:100A900004D0996992688968914203D3002383F353
:100AA000118808BD72B6024A9A62FEE790080020DB
:100AB00070180008000000000000000000000000A6
:100AC000054BDA6A0AB91A6B1AB172B6034A9A620E
:100AD000FEE701221A63704790080020301A0008D0
:100AE00011490B7C23B972B6104B114A9A62FEE78A
:100AF00010B52023044683F31188FFF749FFFFF761
:100B0000DFFF0B78022B04D072B6084B084A9A62BA
:100B1000FEE7CB688A6943F001035463BDE81040E7
:100B2000CB60FFF78DBF00BF700800209008002049
:100B30005019000800000000000000000000000044
:100B400010B50146202383F31188FFF721FFFFF73B
:100B5000B7FFFFF785FC1148114B04681A68CB1DDD
:100B600023F00703121B93429ABF1B190360002452
:100B7000FFF756FFFFF704FF0A4B1A689A4204D0AA
:100B8000996992688968914204D3002383F311889C
:100B9000204610BD72B6044A9A62FEE78C0E002011
:100BA000880E002090080020601800080000000057
:100BB00008B50146202383F31188FFF7E9FEFFF70C
:100BC0007FFF0F4DAC69A06A04F12806B042616254
:100BD00006D00268A262FFF753FCA06AB042F8D1C7
:100BE00094F821309B0704D1D4E904231A612269C7
:100BF00053610F20FFF74CFE72B6024BAB62FEE76B
:100C000090080020B018000800000000000000005C
:100C100070B5014686B0202383F31188504CFFF74E
:100C2000B7FE2546FFF74CFFFFF70AFCFFF718FC5D
:100C30004FF08042A36955F81C6F4A480593536AE8
:100C4000AE4204909BB220D00B44E18C98B2411A82
:100C5000338989B28B427CD8E3691A898A4205D2EA
:100C60001B68891A1A8989B28A42F9D34FF6FF7034
:100C70005A6801AECDE9013216605E60ADF80C1025
:100C80001A89511A1981A08411E0D068E384CDE952
:100C900001660B4401AE10F002009BB2ADF80C10DF
:100CA000C4E9076632D1022153631061D160082084
:100CB000FFF7EEFDFFF7D4FB049B93B1FFF7D0FBEA
:100CC000E3690198B34225D00021029A1060019B8C
:100CD000AB425A60049104D01A89BDF80C100A4442
:100CE0001A81FFF79DFEFFF74BFE2368A34204D055
:100CF000A2699B6892689A4204D3002383F3118807
:100D000006B070BD72B6184BA362FEE772B6174B01
:100D1000A362FEE70023A842E061456004931BD074
:100D20004FF080435A6AE18C0389BDF80C5092B2AF
:100D3000511A2B449BB289B28B420381D1D95B1AE1
:100D40009BB2022B2CBFD318931C98B2FFF7A0FACA
:100D5000C7E7FFF79DFA7FE74FF08042D360C0E717
:100D600090080020F107000850180008C01800087B
:100D70002DE9804800254FF0FF374FF0805C4FF0A1
:100D800088319F4A4FF0010A146917611561D468D0
:100D9000D760D560D4699B4E44EA0C04D461D46911
:100DA000DFF8C0E244F00064D46134684FF080435F
:100DB00044F4807434609669934C46F07D069661E5
:100DC000924EE760666006F5802606F53F7626605F
:100DD00004F1E9448E4E04F55E148834F7607460C3
:100DE000316006F191468B4C06F5093606F56276C0
:100DF000E7606660884E4FF6FF702660874EC4F845
:100E00000C74C4F80414C4F80064854EC4F80C785B
:100E10007560C4F80418C4F80018824C82494FF673
:100E2000FF0BF16086F800A084F800A0D16965602E
:100E300041EA0A01D161DEF80410E56041F4006185
:100E4000CEF8041041F61F419962D8629D615D633E
:100E5000DD605D60C3F814A0C3F800A06FF07F03ED
:100E6000724A734982F81C33C2F880C1C2F800C0CC
:100E70004FF004026F4B22749D60DA68A16102EAB0
:100E80000B0C6D4A6D494CEA0202DA60CA68DFF861
:100E9000D8B142F08072CA6069494FF000080A6810
:100EA0004FF0000942EA0A020A604FF01002CBF844
:100EB0000850DA774FF0200287B0CBF804B083F8FF
:100EC00022200BF11C03CBF800B0CBE904BBCBF81C
:100ED00024006846CBE90733CBF8A054CDE9007570
:100EE000CDE90255CDE90489FFF782FA6846FFF79C
:100EF00057FA40224FF0020C029B5248CBF8A03424
:100F00000BF59863C3E900890BF59B63C3E900897E
:100F10000BF13C03CBF838304B4B20F007004B492A
:100F200018604B4821F007014A4B01604A49ABF871
:100F300060C4196003F11001C3E90411CBF8342037
:100F4000CBF84824CBF88024CBF8A854CBF8AC5489
:100F5000CBF8B074CBF8B454CBF8B854CBF8BC543D
:100F6000CBF8C874CBF8CC54CBF8D054CBF8D454CD
:100F7000CBF87C54CBF878548BF862A4CBF8585457
:100F8000CBF850B4C3E902559D61DBF814300BF582
:100F90008862CBF854341A610BF58D630BF59361BD
:100FA0000BF5946CCBF868340BF26C43C1E9008903
:100FB000CBF86C34CBF87034CBF88874CBF88C5405
:100FC000CBF89054CBF894540BF59160CBF85CC4FB
:100FD000CBF81420FFF70CFA2049DBF82C30CBF8C3
:100FE00018208BF860A4CBF85C141BB9DBF8303008
:100FF000002B3BD072B61A4BCBF82830FEE700BF6F
:1010000000100240007000400008014088488488B9
:10101000000C01400010014088888444448888887E
:1010200058080020700800200008004000E100E09F
:10103000002C014000ED00E00003FA05F0ED00E0B7
:10104000001000E0970E00208C0E002000500020C1
:10105000880E0020680E0020410B000800040020CC
:10106000E01A0008002004E09008002083F31188B3
:1010700062B60BF59C652B46FF22DBF81810BD48C5
:101080000BF5A869886103F8012B4B45FBD14B4652
:10109000552109F1980203F8011B9342FBD120234B
:1010A00083F31188FFF774FC0021FFF709FDFFF7B8
:1010B000D7F902200127002200234FF0FF3CDFF880
:1010C000E4E2DFF8E482CBF8B4E5ABF80005DFF842
:1010D000DCE2DBF81400CBF8D4E5CBF8F404CBF871
:1010E000B815CBF81C15CBF81815CBF8F814CBF8BD
:1010F000F0B4CBF8EC84CBF8E874CBF820758BF81F
:1011000002750561A8F1AC00CBF80805A8F1A800AC
:1011100048E91F23CBF82C15CBF83015CBF8341544
:10112000CBF828C5CBF80C05CBF81005CBF8FC9410
:10113000A8F18C00CBF81450FFF75AF9FFF780F9AB
:10114000DBF81800CBF804158368DBF8E8249A4232
:1011500040F28A80FFF794F981468BF80075CBF84E
:101160001850FFF74DF9DBF8AC3409F148000133B2
:10117000A8F18C01CBF8AC34FFF7EAF8EFF3098360
:10118000D9F81C20243B9A4278D84946A8F1D400CB
:10119000FFF736F8FFF744FCFFF7F2FBDBF800300F
:1011A0005B4505D0DBF818209B6892689A4260D3B3
:1011B000002181F311884FF480526F486F4BCBF8B8
:1011C000F8041A61202383F31188FFF7E1FBFFF78E
:1011D00077FC2078431E012B04D972B6684BCBF8FC
:1011E0002830FEE7674A01285568A369C4E901254C
:1011F00016D0196059639963D9631964596261699A
:101200001568B1FBF5F3581EB0F5803F03D203FB20
:1012100005F3994237D072B65B4BCBF82830FEE726
:101220004FF0700E4FF000784FF0006C46F66807F4
:101230005648856945F400658561C56845F40065D3
:10124000C560C1605249534881F819E36061C1F833
:101250008081C1F8008081F81BE3C1F880C1C1F82A
:1012600000C09F61DF61CAE7A8F1D400FFF708F969
:1012700090E772B6484BCBF82830FEE772B6474B82
:10128000CBF82830FEE7A368A169D2F80CC0013B77
:101290008862D06ACB620CF00F03012B486000F02B
:1012A000F981022B40F0F88143F00103556905F004
:1012B0000F00012803D0022803D143F0200343F09C
:1012C0001003D06900F00F07012F03D0022F03D1C4
:1012D00043F4007343F48073576A07F00F07012F3C
:1012E00003D0022F03D143F4005343F480530CF096
:1012F000F007102F03D0202F03D143F0080343F051
:10130000040305F0F005102D03D0202D03D143F088
:10131000800343F0400300F0F000102803D02028A1
:1013200003D143F4006343F48063012000254FF0B0
:10133000850C02270B624861D2E90C3020F0FF00D7
:1013400043F400430D61C8604B64C1F800C0E56020
:101350002770FFF775FB202383F31188FFF718FB35
:10136000FFF7AEFB2378BB4222D072B60C4BCBF812
:101370002830FEE7C01A0008E81A000800100140F3
:10138000E01800081C080020201900080010024086
:1013900000E100E000A24A0450180008B01A00085A
:1013A000D019000841020008440E00201102000874
:1013B00063689B68002B3DD0A369DA68D10706D427
:1013C000196942F0010221F001011961DA60FFF7A9
:1013D00037FB00220821154613464FF4807007049E
:1013E0004FEA05154FEA02124FEA031354BF45F0C6
:1013F0000F0542F00B02013943F00F034FEA4000A2
:10140000EDD1AD4F4FF0200C7868284002437A6050
:101410003A6813403B608CF31188FFF7B9FAFFF785
:101420004FFB3078431E012B09D972B6A34BCBF882
:101430002830FEE772B6A24BCBF82830FEE7A14A6F
:10144000137D7260012B38D80128F3681DD0196014
:10145000596399635962B768D2F804C04FF0000E1F
:10146000B7FBFCF190694D1E20F0FF00B5F5803F01
:10147000C3F810E0D86003D201FB0CF18F4221D0F9
:1014800072B6914BCBF82830FEE74FF0804C4FF00E
:10149000700E8E48C56945F00405C56107698C4D1D
:1014A00047F00407076101618A4985F81EE3B160CE
:1014B000C5F880C1C5F800C0CDE772B6824BCBF845
:1014C0002830FEE74FF6FF70117D9D621278D862DA
:1014D000002940F0E38040F2012054219861996096
:1014E000002A40F0D48031221A6203F138023433EA
:1014F000C6E90423022320253370FFF7C1FA85F3E0
:101500001188FFF745FAFFF7DBFA3378022B04D096
:1015100072B6714BCBF82830FEE705200027032177
:10152000F3685A6942F001025A611F611860317014
:10153000FFF7A6FA85F31188FFF72AFAFFF7C0FA3A
:101540003378033B012B04D972B6644BCBF82830B7
:10155000FEE7F168CA6812F0FF030ED170680B61F4
:10156000037D856883BB42F002030DB142F00603A0
:1015700002690AB143F00103CB60FFF781FA44F638
:101580002060FFF745FB41F64C5342F21070A26811
:1015900003FB02F3B3FBF0F0FFF7A2FA237C23B9BD
:1015A00072B64F4BCBF82830FEE7202383F3118827
:1015B000FFF7EEF9FFF784FA2378022B09D072B611
:1015C000474BCBF82830FEE742F00403002DCDD185
:1015D000CEE7E368D80743D563681B69002B3AD090
:1015E000A269D368990705D46FF0020143F00203A2
:1015F000D360116141F2883542F21078FFF720FA8A
:101600004CF25030FFF704FBA368202705FB03F3DF
:10161000B3FBF8F0FFF764FA4CF25030FFF7F8FA3A
:1016200040F6C410A36800FB03F0B0FBF8F0FFF72E
:1016300057FA4CF25030FFF7EBFA87F31188FFF7B7
:10164000A7F9FFF73DFA2378022B0ED072B6254B8F
:10165000CBF82830FEE772B6214BCBF82830FEE7F6
:1016600072B61F4BCBF82830FEE741F28732A369F0
:10167000A560DA62FFF7E4F94CF25030FFF7C8FAE0
:10168000237C9BBB72B6184BCBF82830FEE71322A5
:101690001A622AE7002307E6002307E64FF4817069
:1016A0006421986199607ABB13221A6203F13402B3
:1016B0003833C6E904231DE700080140D0180008AC
:1016C000D01900080008002070190008001002401E
:1016D00000E100E000A24A0430190008B019000837
:1016E000F0190008401900089019000887F31188C4
:1016F000FFF74EF9FFF7E4F92378022B07D072B613
:10170000444BCBF82830FEE731221A62CEE70025A1
:10171000A369E1685D63DA6821F0010122F0020249
:10172000E160DA60FFF78CF987F31188FFF730F991
:10173000FFF7C6F923785A1E012A04D972B6364B30
:10174000CBF82830FEE7022B16D14FF000704FF097
:101750000061A269314B1560D56015615564304A4E
:10176000C3F8800083F81953C3F8801083F81B5323
:10177000936923F400639361012300252370E560DE
:10178000FFF75EF9202484F31188FFF701F9FFF7D2
:1017900097F93378023B022B18D80221F3681D60B9
:1017A000DA68317022F0FF02DA60FFF769F984F33A
:1017B0001188FFF7EDF8FFF783F933785A1E012AF5
:1017C00009D972B6174BCBF82830FEE772B6164B24
:1017D000CBF82830FEE7022B0FD14FF08040F368A2
:1017E0000E490F4A1D60DD601D61C1F8800081F85F
:1017F0001E53D36923F00403D36101233370FFF731
:101800003FF94FF48052094B1A6141F28830FFF7DB
:10181000FFF9FAE7901900081019000800E100E04C
:101820000010024000190008801900080010014053
:10183000FEE700BF00000000000000000000000004
:10184000704700BF00000000000000000000000022
:101850006368537973556E6C6F636B000000000012
:101860006368537973556E6C6F636B000000000002
:101870006368537973556E6C6F636B0000000000F2
:101880006368537973556E6C6F636B0000000000E2
:1018900063685654446F5469636B4900000000004C
:1018A0006368536368526561647949000000000011
:1018B0006368546864457869745300000000000050
:1018C00073745374617274416C61726D0000000036
:1018D00069637553746172740000000000000000B9
:1018E00070776D5374617274000000000000000096
:1018F0007374536574416C61726D000000000000E8
:1019000069637553746F70000000000000000000F0
:1019100070776D53746F70000000000000000000CD
:1019200070776D5F6C6C645F73746172740000003B
:101930006963755374617274436170747572650084
:1019400070776D4368616E6765506572696F64009A
:1019500070776D456E61626C654368616E6E656C33
:101960000000000000000000000000000000000077
:101970006963755F6C6C645F7374617274000000FE
:1019800069637553746F704361707475726500009C
:1019900070776D44697361626C654368616E6E65F2
:1019A0006C000000000000000000000000000000CB
:1019B000696375456E61626C654E6F7469666963D3
:1019C0006174696F6E730000000000000000000089
:1019D00070776D456E61626C65506572696F6469A0
:1019E000634E6F74696669636174696F6E000000AD
:1019F00070776D456E61626C654368616E6E656C93
:101A00004E6F74696669636174696F6E00000000EF
:101A100053562338000000000000000000000000C2
:101A200053562339000000000000000000000000B1
:101A300053562334000000000000000000000000A6
:101A40005356233600000000000000000000000094
:101A50005356233500000000000000000000000085
:101A60005356233700000000000000000000000073
:101A7000756E68616E646C6564206578636570740A
:101A8000696F6E0000000000000000000000000010
:101A90005356233130000000000000000000000019
:101AA0005356233131000000000000000000000008
:101AB000737461636B206F766572666C6F7700007C
:101AC0006D61696E00160118040260080C1014188C
:101AD0001C20212200000000000000000000000087
:101AE000535623330000000069646C650000000059
:101AF00000000000102700006102000851020008E9
:101B0000000000000000000000000000102700009E
:101B10001027000081020008010000007102000887
:101B200000000000000000000000000000000000B5
:101B300000000000000000000000000000000000A5
:041B400000000000A1
:0400000508000141AD
:00000001FF
