:020000040800F2
:1000000000040020C100000881060008810A0008E1
:10001000810A0008810A0008810A0008810A000894
:10002000810A0008810A0008810A0008810A000884
:10003000810A0008810A0008810A0008810A000874
:10004000810A0008810A0008810A0008810A000864
:10005000810A0008810A0008810A0008810A000854
:10006000810A0008310D0008D10C0008710C00084D
:10007000810A0008810A0008810A0008910B000823
:10008000810A0008810A0008810A0008810A000824
:10009000810A0008810A0008810A0008810A000814
:1000A000810A0008810A0008810A0008710B000813
:1000B000510B0008810A0008810A0008810A000823
:1000C00072B6204880F30988022080F31488BFF3B9
:1000D0006F8F00F04DFE1C481C491D4A914202DA08
:1000E00008600431FAE71B49164A914202DA0860B7
:1000F0000431FAE71849194A194B9A4204DA086898
:10010000106004310432F8E700201649164A914283
:1001100002DA08600431FAE701F092FA134C144D48
:10012000AC4203DA216888470434F9E700F0F0FEB6
:10013000104C114DAC4203DA216888470434F9E7CA
:100140000E4908470006002055555555000000206F
:100150000004002000040020C01800080006002051
:100160002406002028060020440C0020C0000008BF
:10017000C0000008C0000008C000000831160008D8
:10018000F0B544464D4656465F46F0B46B46CB60EC
:10019000C3689D46F0BCA046A946B246BB46F0BD2A
:1001A00000F06EFE62B6281CA047002001F018FA8D
:1001B00000F096FE00F034FE00F062FE014A024BB1
:1001C0001360FEE704ED00E0000000800000000086
:1001D000002243088B4274D303098B425FD3030A86
:1001E0008B4244D3030B8B4228D3030C8B420DD399
:1001F000FF22090212BA030C8B4202D31212090227
:1002000065D0030B8B4219D300E0090AC30B8B4264
:1002100001D3CB03C01A5241830B8B4201D38B0312
:10022000C01A5241430B8B4201D34B03C01A5241B7
:10023000030B8B4201D30B03C01A5241C30A8B42FA
:1002400001D3CB02C01A5241830A8B4201D38B02E5
:10025000C01A5241430A8B4201D34B02C01A524189
:10026000030A8B4201D30B02C01A5241CDD2C309FB
:100270008B4201D3CB01C01A524183098B4201D377
:100280008B01C01A524143098B4201D34B01C01A62
:10029000524103098B4201D30B01C01A5241C308DA
:1002A0008B4201D3CB00C01A524183088B4201D349
:1002B0008B00C01A524143088B4201D34B00C01A35
:1002C0005241411A00D20146524110467047FFE7A1
:1002D00001B5002000F00CF802BDC0460029F7D09F
:1002E00076E77047000000000000000000000000FA
:1002F0007047C04600000000000000000000000041
:10030000F0B5C646030000B58846944600283AD0AA
:1003100001263400457B1E49AC400A680120224278
:1003200029D1E80045461B4F2243C5516546381880
:1003300045600A60520621D10F221968086890436F
:1003400008601C7B5868A2400260002008609B7B0C
:10035000C0241A001049C032920054501F210122BB
:1003600019408A400C495B098C46C0219B006344BC
:1003700049005A501A6004BC9046F0BD074A5169C2
:100380000E435661D8E772B6054B064ADA62FEE7BD
:10039000100C0020E80B002000E100E000100240FB
:1003A0006006002030170008000000000000000078
:1003B0000B4A53691B68D96092215860D068014389
:1003C000196051684968002905D040209268106280
:1003D00011680143116001211A680A431A607047CD
:1003E00028060020000000000000000000000000BF
:1003F0000723F0B5464698460833D6464F469C46F6
:1004000003219023C0B5002202250126DB058A4680
:100410001AE01F6A3940214319623400944057465C
:100420005968A1435400A740FC4359609968214092
:100430009960D9682140D960196821402943196021
:10044000400812D0AD0001320642F9D0414667465D
:100450001140890034008F408C40F943072AD8D9D5
:100460005F6A394021435962D7E71CBC90469946E0
:10047000A246F0BD000000000000000000000000E7
:10048000FEE7C04600000000000000000000000081
:100490007047C0460000000000000000000000009F
:1004A0008022024B52005A837047C0460008004821
:1004B0007047C0460000000000000000000000007F
:1004C0008022024B52001A837047C0460008004841
:1004D000F8B510238568FF332F68EC6906002C629D
:1004E0001C4218D043681B69002B14D02107C90F88
:1004F0000901E20701D504221143A20701D5082210
:100500001143620701D520221143E20501D54022A3
:100510001143300098474023234209D03B4207D083
:100520009F4373682F605B68002B01D030009847B1
:10053000F8BDC04600000000000000000000000000
:1005400010B504000B0715D40F2342691068016829
:10055000994301605168127B93400B6002236370E2
:1005600063681B68002B0AD0200098476378022B31
:1005700005D010BD72B6034B034ADA62FEE70023D2
:100580006370F6E760060020B01800080000000065
:1005900070B504000B0733D483784268002B06D172
:1005A000D368002B02D0018B89B2984770BD0F2110
:1005B00003691D682868884328601D7B5868A94026
:1005C00001600221A1709168002906D020008847AF
:1005D000A378022BEAD1626823690021A170D26856
:1005E0008A4212D0223122001B681832DA600122BE
:1005F000E0685A600143196019680A431A60D5E738
:1006000072B6034B034ADA62FEE72021EBE7C046ED
:1006100060060020B0180008000000000000000084
:100620008023DB05DA68920701D55863704772B6FC
:10063000014B024ADA62FEE760060020001700085C
:1006400080B500AF72B6EFF30983203B83F30988CE
:1006500080225204DA61074A1168926989689268B7
:10066000914203D8044A9A61BD4680BD034A9A610B
:10067000FAE7C04660060020BC010008B10100088E
:1006800080B500AFEFF30983203383F3098862B6A6
:10069000BD4680BD0000000000000000000000001A
:1006A00080210B4AC905D36B496A19609169596069
:1006B000416A99602021415C19738821C900103377
:1006C00051188B4201D313004033D3637047C046A7
:1006D0006006002000000000000000000000000094
:1006E000054B1A6B002A03D15A6B002A00DD7047B4
:1006F00072B6024ADA62FEE760060020401800087F
:10070000054B1A6B002A03DB5A6B002A00DD704789
:1007100072B6024ADA62FEE760060020301800086E
:1007200010B50400FFF7ECFF002C19D02023E25C89
:10073000002A10D00F2A0ED00022E254A2680B4BE0
:100740001B6899689142FBD25A682360626020005E
:1007500014605C6010BD72B6044B054ADA62FEE7B5
:1007600072B6024B024ADA62FEE7C046600600201B
:10077000B0160008000000000000000000000000AB
:1007800010B50400FFF7BCFFE368002B30D01D4B11
:10079000D969A1420FD0616822681C330A602268BF
:1007A00051600021E1609A4204D09168A3688C46B0
:1007B0006344936010BD1C0000200A681C34DA6199
:1007C0005460C860A24218D0886891689B6A8C46C1
:1007D000604490608022D205526AD31A9842E9D9C7
:1007E000C01A022800D202208018FFF719FFE1E7A3
:1007F00072B6044B044ADA62FEE78023DB05D86058
:10080000D8E7C04660060020C016000800000000BF
:10081000F8B5040015001F000E00FFF771FFE5603A
:100820001D4D80232900EA69DB051C312761586AC8
:100830008A421DD0AB6A3018C61A9368B34201D9F8
:10084000FFF7EEFEEB699A68B24204D21B68B61A53
:100850009A68B242FAD35A682360626014605C609E
:10086000A6609A68961B9E6001235B426B620DE056
:100870000221A862EC612C62A66022606260DA68E4
:1008800030180A4003D158631A61D960F8BD72B6B6
:10089000024BEB62FEE7C04660060020E01600084F
:1008A00072B6074B1A6B002A02DD596B002903D080
:1008B00072B6044ADA62FEE7013A1A6362B670471A
:1008C0006006002070170008000000000000000013
:1008D00072B6074B1A6B002A02DB596B002903D052
:1008E00072B6044ADA62FEE701321A6362B67047F2
:1008F00060060020601700080000000000000000F3
:10090000064B1A6B002A05DD5A6B002A02DD002215
:100910005A63704772B6024ADA62FEE76006002048
:10092000B0170008000000000000000000000000F8
:10093000064B1A6B002A02DD5A6B002A03D072B6EE
:10094000034ADA62FEE701225A637047600600201C
:1009500090170008000000000000000000000000E8
:1009600070B5040072B6FFF7E3FF2023E35C072BAA
:100970000ED8114A9B00D3589F46656AFFF7C0FE08
:10098000AB680133AB60226863681A602268536009
:1009900001235B4263622000FFF7C2FEFFF7B0FF56
:1009A00062B670BD0022636A20001A6001235B42B8
:1009B0006362FFF7B5FEF1E7501600080000000083
:1009C0008022134B520010B51A8372B6FFF7B0FFA6
:1009D000FFF796FE0F4CE368002B15D02000FFF7C1
:1009E000CFFEFFF78DFEE368002B02D02000FFF75B
:1009F000C7FEFA210023084AC9002000FFF708FFBC
:100A0000FFF77EFF62B610BDFFF77AFEF1E7C04642
:100A100000080048300C0020A1040008000000007D
:100A20008022124B520010B55A8372B6FFF780FF36
:100A3000FFF766FE0E4CE368002B14D02000FFF792
:100A40009FFEFFF75DFEE368002B02D02000FFF75A
:100A500097FE0023074A08492000FFF7D9FEFFF759
:100A60004FFF62B610BDFFF74BFEF2E700080048EB
:100A70001C0C0020A10A000850C300000000000068
:100A800072B6024B024ADA62FEE7C04660060020F8
:100A90001018000800000000000000000000000026
:100AA00010B572B6FFF744FFFFF72AFE0D4C23780E
:100AB000022B04D072B60C4B0C4ADA62FEE7637864
:100AC000012B09D00A490E20FFF772FC0123637045
:100AD000FFF716FF62B610BD72B6034B034ADA6227
:100AE000FEE7C04628060020600600202017000808
:100AF000A018000800000000000000000000000036
:100B000070B50600FFF7ECFD20220E4CA5692368A6
:100B1000AE54196828004C60216001219954A361EA
:100B2000FFF7BEFDEFF30983EA69243B9A4204D83C
:100B30002900A069FFF724FB70BD72B6024BE36287
:100B4000FEE7C046600600205018000800000000C4
:100B500010B57446FFF7BCFE0448FFF7B9FCFFF779
:100B60009FFE0F3401D0FFF76BFD10BD440600203F
:100B700010B57446FFF7ACFE0448FFF7A9FCFFF779
:100B80008FFE0F3401D0FFF75BFD10BD280600205B
:100B9000F0B5D6464F4646468024C0B5E4057746B4
:100BA000FFF796FE23699B070AD4FFF779FE0F37FC
:100BB00001D0FFF745FD1CBC90469946A246F0BD0A
:100BC0000023236172B6FFF7B3FEFFF799FDFFF72D
:100BD00097FD234D616AEE69AA6AB368881A984244
:100BE00022D31C2189460021A94488460EE0FFF744
:100BF00087FE62B63069D04772B6FFF799FEEE699C
:100C0000616AAA6AB368881A83420DD8D3184A4623
:100C1000AB6233685A60F268EB6192464246F2601A
:100C20004B45E4D1E260E2E70E48864214D09B18BF
:100C30005B1A022B00D202235C182000FFF7F0FCA5
:100C40008023DB055A6AAB6AD21AE31A9A4203D9A7
:100C500072B6054BEB62FEE7FFF752FE62B6A4E701
:100C6000600600207C060020A0160008000000009E
:100C700010B57446FFF72CFE104B19680904090FD4
:100C800007D00A035A600E4A9369002B01D0D0693D
:100C900098470A4B19680903090F07D00A045A60DC
:100CA000074A136A002B01D0506A9847FFF7F8FDF6
:100CB0000F3401D0FFF7C4FC10BDC0460000024055
:100CC000E80B002000000000000000000000000011
:100CD00010B57446FFF7FCFD104B19680906090FA3
:100CE00007D00A015A600E4A9368002B01D0D068E1
:100CF00098470A4B19680905090F07D00A025A607C
:100D0000074A1369002B01D050699847FFF7C8FDC7
:100D10000F3401D0FFF794FC10BDC0460000024024
:100D2000E80B0020000000000000000000000000B0
:100D300010B57446FFF7CCFD0F21084B1A6811401F
:100D4000074A59601368002B01D050689847FFF795
:100D5000A7FD0F3401D0FFF773FC10BD0000024067
:100D6000E80B002000000000000000000000000070
:100D70000121264B1A680A431A6001311A68114290
:100D8000FCD003215A688A435A605A6809315A6074
:100D90001E4A53680B40FCD1F921106801401160D4
:100DA00001215360536B0B435363184A0131536B5A
:100DB0001942FCD00121536A0B435362134A01319B
:100DC000536A1942FCD0A1239B0353600023D362D2
:100DD0001363802311685B040B43802113600B4A6B
:100DE000890413680B42FCD01121094B1960536828
:100DF0000F390B435360054A0A3153680B40082BE7
:100E0000FBD1012193690B439361704700100240AD
:100E10000020024000000000000000000000000070
:100E20002021012070B5134D2A68AC691368A668AB
:100E30005D605054AA6100222B60625400E01B6880
:100E40009A689642FBD35A6823606260200014605F
:100E50005C60FFF725FCEFF30983E269243B9A42CB
:100E600004D8A8692100FFF78BF970BD72B6024B58
:100E7000EB62FEE76006002050180008000000004A
:100E8000064B1A6B002A04D1596B002901DD5A6305
:100E9000704772B6024ADA62FEE7C046600600207A
:100EA000A017000800000000000000000000000083
:100EB00010B5FFF7E5FF074B1A689A4204D099690D
:100EC00092688968914201D362B610BD72B6024A37
:100ED000DA62FEE7600600209016000800000000BD
:100EE000064B1A6B002A02D15A6B002A03D072B645
:100EF000034ADA62FEE701225A6370476006002067
:100F00008017000800000000000000000000000042
:100F1000D74B0121F0B59A6AD64600224F46464685
:100F20004942C0B599629A62186919611A61D86814
:100F3000D04986B00143D9608021DA60D86949057B
:100F40000143D9618021CC484900046821430160F4
:100F5000C020196A800001400138FF38814203D067
:100F60008021490219621A628022C14B1202196A59
:100F7000114207D18021186A890001431962196A58
:100F80000A431A6200230126BC4ABD491360BD4AC8
:100F900076421360BC4AB64C13600B60BB49936049
:100FA0000B60BB4913610B60BA4993610B6013621C
:100FB000B94AA0205660BC226169D2030A4362612B
:100FC000FC2190220906D20553609160B349800547
:100FD000D160B349B34D5161136253621060FC207C
:100FE000B14A800053609060B048B14FD060516109
:100FF000136253621360AF4A53609560AE4DD56083
:10100000AE4D5561A025ED02136253621560AC4AE6
:10101000AC4D53609360D0605161AB481362536232
:101020001360AA4A53609360D060516113625362A7
:101030001360A74AA748AA6008229046EA60020007
:1010400020322A610200012110326A61A24A6B70CB
:1010500053709370AB706B60117029705360976020
:101060004746D76007003030403750611761E2696A
:101070009A480A43E261826880240A43826080229F
:101080009748D2059062CF20D66293615363D360B4
:10109000536051611160934A8000145080200134E4
:1010A0000002FF34105110608F48904C026A2240B9
:1010B0008F4C0262220007201C32E26122628D4ABC
:1010C000666207328C4E8243A360A3622460646030
:1010D00032608A4A82438A4802608A4A8A48936018
:1010E0001060100010301061506120004030E0634B
:1010F0008920D36093614022C000225038302250B2
:10110000A263824AA350043AA350203AA3508A23F0
:10111000DB00E4507E4B1032E450A018143BE3187F
:10112000A0507C4A7B4823616361A3618C23A21891
:101130002250043022500122DB00E152764BE2546F
:10114000764B774AE250236B002B02D1636B002B66
:1011500003D072B6734BE362FEE762B6724AA369CC
:10116000724E9A619A22D200A1183300FF221A709F
:1011700001338B42FBD1AD226D4BD200A1189A46B0
:1011800055221A7001339942FBD172B60027FFF73E
:10119000A7FEFFF7B5FA674B674AE250674B684A0C
:1011A000E2500433E750674A674BE2500123984608
:1011B00092234246DB00E2503833E250634BE75063
:1011C000043BE750183B994602234A46A352424645
:1011D0005F4BE2540A3BE750083BE4505D4A6369C9
:1011E000A3501E6196235C4ADB00E2505B4B5C4AD5
:1011F0006661A3500432A35052465A4BE250FFF7A7
:101200006FFA594BA069E7508368BB4200D093E165
:10121000FFF786FA4B464246E2540700A661FFF705
:101220003FFAEFF30983FA69243B9A4200D97FE140
:1012300039003000FEF7A4FFFFF722FE2368A34227
:1012400005D0A2699B6892689A4200D278E162B6A2
:101250009423464ADB00E25072B6FFF741FE2B783A
:101260005A1E012A00D885E072B6414BE362FEE7C0
:1012700000100240FFFFBFFF00700040100C002074
:101280001C00024008000240E80B00203000024031
:101290004400024058000240000002405455556589
:1012A000FFFF000000000FF00004004855555555A1
:1012B000004400400008004855555005FFFC000060
:1012C000000C0048280600205055555500140048D1
:1012D00000380140C01700084406002000580140B3
:1012E000BF12000000E100E000ED00E0FFFF00FFA2
:1012F00060060020440C0020180C00200020002074
:10130000140C0020C80B0020811500087C0400008C
:10131000540400006C040000620400005C0400003F
:10132000000400208018000860180008E80A002067
:10133000300B002094040000A40B00205405000092
:1013400081040008A101000864050000C404000035
:10135000AA0400009C040000100B0020140B0020C5
:10136000B4040000A4040000AC04000088180008C5
:10137000F0160008744A28696A60012B00D197E0D2
:101380000F23002298462969AA706A700F68AE6818
:1013900038689843386040464B68097B88406969E3
:1013A000186008684346844600689843634618609E
:1013B00043464868097B8B4003606B6832609846FF
:1013C000596972606148B260FEF702FF012342462C
:1013D0005B42D26980B2B0813362413313434246EB
:1013E0007360C123126A13434246B3600E239269AD
:1013F000FF33134333604346DA682223002A00D1C7
:10140000023B2A0001261832FA60EA687E60134324
:101410003B603B6833433B6002232B70FFF748FD82
:1014200080208000FEF7E4FF8020C000FEF7E0FF90
:1014300072B6FFF755FD2B78022B03D072B6444BE2
:10144000E362FEE76B78012B2AD042490D20FEF7BC
:10145000AFFF6E700825FFF72BFD3F4E72B6FFF70A
:101460003FFDFFF73DF9A36932003C4901A8FFF7B2
:10147000CFF92800FFF744FBFFF742F9049B002B4C
:1014800002D001A8FFF77CF9FFF7FAFC2368A3421A
:1014900004D0A2699B6892689A4205D362B6DDE7E0
:1014A00072B62B4BE362FEE772B62D4BE362FEE7AA
:1014B0002A002C49FEF724FF002835D12A002A49AA
:1014C0006869FEF71DFF00282AD18023274ADB0127
:1014D00091690B439361DB22C021254B9200995007
:1014E0008022491812055A501A60A0226B685201D6
:1014F0009B69134080225201934204D1A023EA68E1
:10150000DB001343EB60AB682A69190012682431D1
:1015100091606A6928331268936000232B832FE758
:1015200072B6144BE362FEE772B6124BE362FEE75B
:1015300072B6114BE362FEE73000FFF7F1F87BE68D
:1015400072B6074BE362FEE700060020006CDC0287
:10155000101700089018000861090008881300009F
:1015600070160008910500084105000800100240AF
:1015700000E100E0501700085018000800000000CB
:1015800010B5040072B6FFF7ABFCFFF7B9F80722FD
:10159000E31D93430E490F4A0C681268121B9342D5
:1015A00013D8E3180B60FFF76BFC0B4B1A689A42D9
:1015B00004D0996992688968914202D362B620008A
:1015C00010BD72B6054ADA62FEE70024EBE7C046BA
:1015D000180C0020140C0020600600208016000863
:1015E00070B5060072B6FFF77BFC0F4DAC69666202
:1015F0002600A06A2836B04206D00368A362FFF72F
:101600008FF8A06AB042F8D12123E35C9B0704D194
:10161000226963691A61226953610F20FFF770FA2A
:1016200072B6024BEB62FEE760060020D01600089F
:10163000FEE7C046000000000000000000000000BF
:101640007047C046000000000000000000000000DD
:101650009C0900089009000890090008A4090008E6
:10166000860900087A090008900900088609000820
:101670006368537973556E6C6F636B0000000000F4
:101680006368537973556E6C6F636B0000000000E4
:101690006368537973556E6C6F636B0000000000D4
:1016A00063685654446F5469636B4900000000003E
:1016B0006368536368526561647949000000000003
:1016C00063685654446F52657365744900000000A6
:1016D0006368546864457869745300000000000032
:1016E00073745374617274416C61726D0000000018
:1016F0007561727453746172740000000000000020
:101700007374536574416C61726D000000000000D9
:1017100075617274537461727453656E6400000075
:1017200075617274537461727453656E644900001C
:10173000646D6153747265616D416C6C6F6361744B
:101740006500000000000000000000000000000034
:10175000756172745F6C6C645F73746172740000A5
:101760005356233800000000000000000000000075
:101770005356233900000000000000000000000064
:101780005356233400000000000000000000000059
:101790005356233600000000000000000000000047
:1017A0005356233500000000000000000000000038
:1017B0005356233700000000000000000000000026
:1017C000080002400400024001000000000009007F
:1017D0001C000240040002400600000004010A0050
:1017E00030000240040002400600000008020A0027
:1017F0004400024004000240780000000C030B008B
:1018000058000240040002407800000010040B0061
:10181000756E68616E646C6564206578636570746C
:10182000696F6E0000000000000000000000000072
:10183000535623313000000000000000000000007B
:10184000535623313100000000000000000000006A
:10185000737461636B206F766572666C6F770000DE
:101860006D61696E00160118040448080C10141804
:101870001C202122000000000000000000000000E9
:10188000535623330000000069646C6500000000BB
:101890005374617274696E672E2E2E0D0A0000005B
:1018A00048656C6C6F20576F726C64210D0A0000E4
:0C18B000444D41206661696C7572650052
:1018C000C1040008210A000891040008C1090008A9
:1018D000B104000800960000000000000040000075
:0418E0000000000004
:04000005080000C12E
:00000001FF
