:020000040800F2
:1000000000040020410100084109000841090008DE
:100010004109000841090008410900084109000898
:1000200041090008410900084109000821050008AC
:100030004109000841090008410900084109000878
:100040004109000841090008410900084109000868
:100050004109000841090008410900084109000858
:100060004109000841090008410900084109000848
:100070004109000841090008410900084109000838
:100080004109000841090008410900084109000828
:100090004109000841090008410900084109000818
:1000A0004109000841090008410900084109000808
:1000B0008104000841040008010400084109000807
:1000C00041090008410900084109000841090008E8
:1000D000410900084109000891060008410900088B
:1000E00041090008410900084109000841090008C8
:1000F00041090008410900084109000841090008B8
:1001000041090008410900084109000841090008A7
:100110004109000841090008410900084109000897
:100120004109000841090008410900084109000887
:100130004109000841090008410900084109000877
:1001400072B6214880F30988022080F31488BFF337
:100150006F8F01F09DFD4FF055301C491C4A9142B4
:100160003CBF41F8040BFAE71A49174A91423CBFD9
:1001700041F8040BFAE71849184A194B9A423EBF56
:1001800051F8040B42F8040BF8E700201549164A11
:1001900091423CBF41F8040BFAE701F0F1FD134C2A
:1001A000134DAC4203DA54F8041B8847F9E701F019
:1001B000E7F8104C104DAC4203DA54F8041B8847A2
:1001C000F9E701F0D5BD0000000800200000002084
:1001D0000004002000040020102100080008002076
:1001E0000008002000080020341000204001000812
:1001F0004001000840010008400100080000000024
:100200002DE9F04FC1F80CD0D0F80CD0BDE8F08F3C
:10021000002383F311882846A047002001F078FDD1
:1002200001F09EFD00DFFEE700000000000000007E
:10023000014B5B6883607047001000E00000000025
:10024000FEE700BF0000000000000000000000000A
:100250000346202282F311880849094A0868126877
:10026000073323F00703121A93429ABF1B180B603F
:100270000020002383F31188704700BF181000206E
:10028000500A0020000000000000000000000000F4
:10029000024A938943F080039381704700440040F1
:1002A00030B4002201244568C36868680139D96206
:1002B0005C615A621A6110B1DA682243DA60052281
:1002C00030BC1A60704700BF000000000000000052
:1002D00070B40378012B13D0D0E9014322680025C4
:1002E000B3FBF2F3E168C268013BA0689BB221F066
:1002F000FF011560506093621561D16070BC70475A
:10030000194B984219D0194B9842E5D100264FF06D
:100310008044A025164BDA6942F00402DA611969BB
:10032000144A41F0040119611E61134B82F81E53F7
:10033000C2F8804114608360CEE700264FF000547D
:1003400060250B4BDA6942F00202DA611969094A49
:1003500041F0020119611E61074B82F81D53C2F87A
:10036000804114608360B7E7000800201008002077
:100370000010024000E100E000A24A04000000007A
:10038000202383F3118800220221C36801701A60C0
:100390001A61D96821F0FF01D96082F31188704792
:1003A000202383F31188114B5B6813F4006302D19F
:1003B00083F31188704780B400AFEFF309834FF0E7
:1003C0008071A3F1200243F8041C82F30988084AD3
:1003D000116892698968926891428CBF054A064A01
:1003E00043F8082CBD4680BC704700BF00ED00E01C
:1003F000D8080020210200082402000800000000A4
:10040000002108B50A4B1878DA680428116107D171
:100410000220187011601161D16821F0FF01D160D4
:100420005B6803485B689847BDE80840FFF7B8BFC2
:100430001008002000000000000000000000000084
:10044000002108B50A4B1878DA680428116107D131
:100450000220187011601161D16821F0FF01D16094
:100460005B6803485B689847BDE80840FFF798BFA2
:100470000008002000000000000000000000000054
:100480002DE9F0414FF0804423699B0703D4BDE878
:10049000F041FFF785BF00272025276185F31188EC
:1004A0001E4E606AB6F826C0F36980B2A0EB0C015C
:1004B0001A8989B2914206F11C081BD3196862445B
:1004C0004145F284DA68C1F80480F161DF6008BF59
:1004D000E76087F311881869904785F31188606A8F
:1004E000B6F826C0F36980B2A0EB0C011A8989B274
:1004F0008A42E3D943450AD06244121A92B2022AD0
:100500002CBF8218821C4FF0804392B25A630023A2
:1005100083F31188BDE8F041FFF742BFD8080020FF
:1005200080B400AFEFF30983203383F309880023FD
:1005300083F31188BD4680BC704700BF00000000F7
:10054000104B114A5B688168126F5B1A9B1A4168F5
:10055000C2682DE93008D0E9044514EB030B45F1DE
:10056000000C01328B42C0E90232C0E904BC06D85B
:100570000268934238BF0360BDE8300870474360AB
:10058000FAE700BF001000E0D808002000000000DB
:10059000202383F31188037F072B0ED8DFE803F0B5
:1005A000270D0D2308040D08026A93680133936038
:1005B000D0E900231A600268536010B400224FF0A3
:1005C000FF3481680C4B046202771B689A688A4288
:1005D000FBD25A680021C0E900321060586081F3F4
:1005E000118810BC70470022036A1A60E5E70023F7
:1005F00083F31188704700BFD80800200000000076
:1006000001460022064B80680A771B689A6882427E
:10061000FBD25A680846C1E9003211605960704740
:10062000D8080020000000000000000000000000CA
:10063000F8B5154F57F8044FBC421FD005460026A9
:1006400004E00B2A1BD02468BC4217D0E3682B437C
:10065000E36015B122691342F5D0D4E90103416B7F
:10066000027F0B430A2A4363EBD1026A1342EAD0AA
:100670000662FFF7C5FF2468BC42E7D1F8BD026AF5
:1006800032EA0303DFD1F3E7200800200000000076
:100690002DE9F0476B4DD5F874A0BAF80C70BAF894
:1006A0000040BFB2A4B2E60500F18280202383F3AC
:1006B000118814F02F0F4DD04FF00009DFF88C8116
:1006C0000AE0BAF80430A4069EB21FD4BAF800407B
:1006D000A4B214F02F0F3DD02107F2D014F0080F70
:1006E00014BF80200020E20748BF40F02000A3078D
:1006F00048BF40F04000660748BF40F48070FFF7F5
:1007000097FFBAF80430A4069EB2DFD56B69002BC0
:1007100040D0D5E908128A4246D001334A1C6B61A9
:100720002A620E70D5E907329A4201D3AB692B6277
:10073000EB684345CAD01A681846EA60C2F80480DC
:10074000C3F82090FFF75CFFBAF80040A4B214F0A1
:100750002F0FC1D1002383F31188390601D522065A
:1007600035D4630612D5202383F31188D5E91123EC
:100770009A4253D04FF6BF7227F04007BFB2AAF893
:100780000C700023AAF8002083F31188BDE8F0471D
:10079000FFF706BE0420FFF74BFFD5E90813994287
:1007A0006B69BAD1002BB8D08020FFF741FF8DE7ED
:1007B000202383F311884FF40070FFF739FF4FF6C1
:1007C000FF63AAF80030002383F311886EE720232B
:1007D00083F31188D5E911329342AB6B25D0296C94
:1007E000501C0133AB63A8648842167801D3EB6BCD
:1007F000AB642B6B144A934209D04FF0000C19687C
:10080000184629634A60C3F820C0FFF7F9FEB6B264
:10081000AAF80460002383F31188A2E7AB6B002BD6
:10082000A8D01020FFF704FFA4E7002BD7D00820A2
:10083000FFF7FEFE27F0C00343F04003AAF80C3098
:10084000E8E700BF20080020500800202C08002006
:1008500083680133002B836000DD704710B40246CB
:10086000002403681968184611604A601C6210BCB5
:10087000FFF7C6BE000000000000000000000000FE
:1008800038B5202383F31188114BD3F89C20002A1C
:1008900016DDD3E91F400025011D013AA142C3F82E
:1008A0009C2028BF9A6FC3F88010056028BFC3F84A
:1008B00080200848FFF7CCFF002383F3118838BD60
:1008C0000122054B1A70002383F3118838BD00BF45
:1008D000780F0020001000201C10002000000000F5
:1008E00038B5202383F311880F4B5A6A002A13DD91
:1008F000D3E901400125011D013AA1425A6228BFF6
:100900001A689960056028BF9A600848FFF7A0FF41
:10091000002383F3118838BD0122054B1A70002390
:1009200083F3118838BD00BF780F0020880F0020A6
:100930001C1000200000000000000000000000006B
:1009400072B6024B024A9A62FEE700BFD808002046
:10095000901D0008000000000000000000000000E2
:1009600070B404460026124B8068996926628D682F
:10097000A8420BD826771B689A689042FBD95A6820
:10098000C4E9003214605C6070BC70471A460E7790
:10099000126890688542FBD901255068C1E90020A2
:1009A00001605160257720469C6170BCFFF728BC30
:1009B000D808002000000000000000000000000037
:1009C00070B4012600250C4A106894690368A16878
:1009D00013605A6006779061257700E01B689A687B
:1009E0009142FBD35A682146C4E9003214605C602E
:1009F00070BCFFF705BC00BFD80800200000000055
:100A0000044B1A689B6992689B689A4200D87047A9
:100A1000FFF7D6BFD808002000000000000000004B
:100A200030B40125064B99691A6808771468104696
:100A3000636015771C6030BC9A61FFF7E1BB00BFB3
:100A4000D8080020000000000000000000000000A6
:100A50004FF6FF732DE9F041994286B050D0474CD4
:100A60004FF08047254655F81C2F7B6A0229064621
:100A7000DFF80CC1A06938BF0221AA4205909BB2E1
:100A8000CDF810C062D05818E38C80B21189C31A17
:100A90009BB28B4238BF78638B4205D912685B1AD0
:100AA00011899BB29942F9D34FF6FF7051680DF14D
:100AB0000408CDE90121C1F80080C2F80480ADF836
:100AC0000C301189CB1A1381A0843046FFF7A8FFA0
:100AD000049B83B1E269019B424519D00021029A2F
:100AE0001360019BAB425A60049104D01A89BDF88F
:100AF0000C100A441A81A369186A06B0BDE8F08197
:100B0000FFF78EFF1D4CA369186A06B0BDE8F0819F
:100B10000022AB42E3615D6004922AD04FF0804531
:100B2000696AE08C1A89BDF80C6089B2081A3244EF
:100B300092B280B282421A81DDD9131A9BB2022B83
:100B40002CBFCB188B1C9BB26B63D4E74FF0000C0F
:100B500002205A1892B20DF10408E384CDE9015540
:100B6000ADF80C10C4E907887A63C7F810C0F860C4
:100B7000ABE74FF08043DA60BDE700BFD808002044
:100B800091050008000000000000000000000000C7
:100B900061B10246074B10B49B6904201A60546887
:100BA0005C602360536010BCFFF752BF4FF0FF3012
:100BB000704700BFD80800200000000000000000BF
:100BC0002DE9F04F83B004460D4616460193D0F848
:100BD0001C804FF0200989F311880027BA46A368CA
:100BE00005F1010B591EFBB16369A160591C6161DC
:100BF00029781970D4E90431994224BFE36863610C
:100C0000B8F1000F01D02046C0478AF31188013E99
:100C100007F1010712D089F311885D46A36805F139
:100C2000010B591E002BDFD1019920460093FFF7DD
:100C3000AFFF009B0028D2D083F31188384603B061
:100C4000BDE8F08F00000000000000000000000080
:100C50003030FFF7B5BF00BF00000000000000000B
:100C600030304FF6FF73FFF7ABBF00BF000000004E
:100C7000F8B504460F461646202383F3118805E095
:100C800031462046FFF784FF002816DBA568002DBB
:100C9000F6D06369013D5A1C6261A5601F70D4E9FA
:100CA00004329A4224BFE3686361E3690BB12046D2
:100CB0009847002080F31188F8BD85F31188F8BDAE
:100CC0003030FFF7D5BF00BF00000000000000007B
:100CD00030304FF6FF72FFF7CBBF00BF00000000BF
:100CE0002DE9F04F044683B0894693461D46D0F85F
:100CF0001C80202787F311880026B2460197B8F19F
:100D0000000F07D02046C04704E029462046FFF7E1
:100D10003FFFC8B9A768002FF7D0A269013F511C57
:100D2000A161A760137809F8013B2369A2699A427F
:100D300024BFE368A3618AF311880136B34505D067
:100D4000019B83F31188DAE787F31188304603B0FB
:100D5000BDE8F08F0000000000000000000000006F
:100D60000C30FFF7BDBF00BF000000000000000016
:100D70000C304FF6FF73FFF7B3BF00BF0000000059
:100D800070B520230E46044683F31188C3693BB136
:100D9000984705E031462046FFF7FAFE002813DBAE
:100DA000A568002DF6D0A2692169531C8B42A3616E
:100DB00005F1FF3528BFE368A560107828BFA3615F
:100DC000002383F3118870BD85F3118870BD00BFC7
:100DD0000C30FFF7D5BF00BF00000000000000008E
:100DE0000C304FF6FF71FFF7CBBF00BF00000000D3
:100DF00008B50146202383F311880820FFF728FE59
:100E0000002383F3118808BD0000000000000000EB
:100E10002DE9F04FDFF864B1534ADBF8183000EBEE
:100E20008004E400DFF858819A615B7F04F11C01C3
:100E300004F1100583B0070941445B0706464544A9
:100E40000191444407F1FF3934D4202383F31188FE
:100E5000A369013B002BA3615DDBE16862680B1DA8
:100E6000E3609342D1F800A001D32368E3600198C6
:100E7000FFF7EEFCFFF7C4FD002383F311883FB1B9
:100E80004A463A490B68013A0133501C0B60F9D1CC
:100E9000BAF1000F11D1731E032B11D9344A136814
:100EA0000133B3F5FA7F47D21360DBF818305B7F6C
:100EB0005B07CAD503B0BDE8F08F731C032BEDD8D8
:100EC000202282F31188980000EB030C08EBCC027F
:100ED000D2F824E00EF1FF310029516238DB91682D
:100EE000184401F1040EC2F808E0C1F800A05168EE
:100EF00008EBC0008E4528BF58F83C1000F11000E8
:100F000028BF9160FFF7A4FC4FF0000AFFF778FDBF
:100F10008AF31188C9E7DBF8183005201D621D60CF
:100F20006A685A6013606B60FFF77AFDDBF818306F
:100F30001B6A002BA0D190E7002001230D4910600F
:100F40000968D1E90120D16883404B40D360ACE708
:100F5000C2F824E0002383F311880122064B4FF0EE
:100F6000FF3A1A70A1E700BF201E000830100020D1
:100F7000280A00202C0A00201C100020D80800207D
:100F8000780F0020000000000000000000000000BA
:100F90000EB42DE9F04F04464FF0000886B00FAFB5
:100FA00057F8046B02973178721C61B1252910D073
:100FB0001646236820469B689847317808F1010857
:100FC000721C0029F2D1404606B0BDE8F04F03B0D4
:100FD000704771784FF000092D2903BFB178B21C1A
:100FE00001200020302903BF51780132302520250F
:100FF000013205E03B78043712F8011B03EB460988
:10100000A1F13003DBB2092B944609EB8906F3D931
:101010002A29EFD02E294FF0000248D001F0DF033B
:101020004C2B0CF101064ED0A1F14103A1F1440675
:10103000DBB2342E00F21F81DFE816F06F011D01D4
:101040001D011D011D016F011D011D011D011D015E
:101050001D0119011D011D011D011D011D01E700DB
:101060001D011D0178011D011D011D011D011D0135
:101070001D011D011D011D011D018F006F011D01BD
:101080001D011D011D016F011D011D011D011D011E
:101090001D0119011D011D011D016D001D01E7004C
:1010A0001D011D0178013B78043703EB46021CF853
:1010B000011B02EB8206A1F13003DBB2092BF4D94C
:1010C0002A29F0D0AAE79CF800300BB3A3F1440121
:1010D000342900F2D280DFE801F0E1D0D0D0D0E1B5
:1010E000D0D0D0D0D0CBD0D0D0D0D099D0D0DED02E
:1010F000D0D0D0D0D0D0D0D0D041E1D0D0D0D0E15D
:10110000D0D0D0D0D0CBD0D0D01FD099D0D0DE008E
:101110000B466646DAE76646D7F800A00437BAF110
:10112000000F00F007819AF800305546002A40F081
:101130000881002B00F0158147F6FE72534601E04E
:10114000013A03D413F8011F0029F9D15B1BA9EB65
:101150000309013B009320250BE066463B680DF137
:10116000180A0AF80C3D0023202509F1FF3904373D
:101170000093B9F1000F21DB002840F08880C9F10D
:101180000003B9F1000F00F081809AF80010226886
:101190002D29926800F0AF809B4601E023689A6891
:1011A0002946204690471BF1010BF7D1009A5B4678
:1011B000002AC844FFF6F7AE994605E0009B002BD5
:1011C000FFF6F1AE4FF00009DDF800B023680BF137
:1011D000FF3B9B681AF8011B20469847BBF1FF3F75
:1011E000F4D1009B08F1010843449846B9F1000F7F
:1011F0003FF4D9AECA46236829469B6820469847E3
:10120000BAF1010AF7D1C844CDE666464FF00A0E9E
:1012100057F8042B0DF1170100E05946B2FBFEFC14
:101220000EFB1C2202F13003392BC8BF02F1370339
:101230006246DBB201F8013C01F1FF3B002AECD130
:101240000A460DF117010DF10C0AA1EB0B0ED44665
:101250000BEB0E0101E012F8013B8A420CF8013B56
:10126000F9D10EF1FF33A9EB0E09009381E7664631
:101270004FF0080ECCE766460B4600220DF1180A27
:10128000009209F1FF390AF80C3D72E79946009B7C
:10129000002B99DAAAE74FF0100EB9E7391D3A682A
:1012A0000F46002A54DB0DF10C0AD6460EF10B0B4B
:1012B00059462E4BA3FB02C3DB089C4603EB83037A
:1012C000A2EB430362463033DBB201F8013D002A52
:1012D000EFD1ABEB0102724401E011F8013F0EF8CF
:1012E000013B9645F9D1AEEB0A0E0EF1FF33A9EBA7
:1012F0000E0900933DE7302D7FF44EAF2046019359
:101300009047009B2268013B0093019B08F1010874
:1013100092680AF1010A9B4642E7394651F8042BCC
:10132000192B664688BF0F46BBD8B8E766464FF014
:10133000100E6DE70E4DAA46002A3FF4FDAE013AAD
:10134000FCE6002BFBD14FF0FF332025009310E784
:101350002D2352428DF80C300DF10D0E0DF10C0ABB
:10136000A4E74FF0FF332025009305E7CDCCCCCC8C
:10137000D01D000800000000000000000000000078
:1013800000254FF0FF334FF0805C4FF08830CB4E9C
:101390002DE98048D6F810E033613561D6F80CE0CD
:1013A000F360F560D6F81CE0DFF878A34EEA0C0E87
:1013B000C6F81CE0D6F81C80DFF86CE348F0006843
:1013C000C6F81C80DAF80080BD4F48F48078CAF86F
:1013D0000080D6F818800AF1914A48F07D08C6F8D6
:1013E00018800AF5763ADFF844830AF1880ACEF8C5
:1013F0000C30CEF804A0CEF80080DFF834A3DFF87C
:101400003483CAF80C30CAF8048008F15348CAF88B
:10141000000008F54A08DFF820A308F52B48CEF8AD
:101420000C38CEF80488CEF800A8DFF81083DFF877
:1014300010A3C8F80C300EF5006EC8F80400C8F808
:1014400000A0A8F58838CEF80C387D60CEF80408E6
:10145000C7F80C80CEF800084FF0010E994C4FF001
:10146000100B2146F24687F800E0974F974887F81F
:1014700000E0F860DFF8CCE2F06941F804EB40F0FE
:101480000100F061616004F17401216490499148A8
:10149000E164914984F808A0C4F838B065616167D7
:1014A00041684FF0804241F400617D60C4E90A5414
:1014B0002465416041F61F414FF6FF70916204F1CF
:1014C0000C01D062E1609561216104F15401556322
:1014D000A161C4E9081104F16401E161E163C4E9B7
:1014E000111104F13001C4E90C110121D5605560DE
:1014F000516111606FF07F024FF02009DFF848A2C0
:1015000076498AF81C23764ACAF880C1CAF800C016
:101510009560D0688BB020F4E0600004000C0143BB
:101520007048D160C1684FF0000C41F08071C1601B
:101530006D484FF04008016841F00101016082F8F8
:101540001FB082F82290CDE90435684B4FF6FF7149
:101550001A460DEB0B004FF0000B17465962C2E91B
:1015600000221C3395601567D3611362CDE908BC76
:10157000C2E90422CDE90655FEF75AFE04A8FEF79B
:10158000DFFF4FF0010E5A49786921F0070C394608
:1015900087F84950C7E9185587F84AE07D64FF632A
:1015A000069F544B0F67514F03F11001C3E904111B
:1015B00007F12C0138649D61C7F83480C7F8688052
:1015C00001614D48C3E902551860C7E9051107F1EB
:1015D000540307F15001494A3965C7E915334849B1
:1015E000484B22F0070287F848E00A60C3F800C0C1
:1015F00085F3118862B6444ABB699A6189F3118800
:101600003B467A69C7F8305101270221C3F8807040
:10161000C3E92C571F4603F5967CA7F894103B4866
:101620003B49C3F8AC50C3F8905083F896E0C3E947
:1016300021C37833C7F82C01C7F88C20C7F84C11A8
:10164000136107F19C0107F1A0021846C7E92712B0
:10165000C7F8A4207B61FFF783F985F311882D4B30
:10166000C7F8903089F31188237A012B00F03A8271
:1016700040F2A932636F44F240001A81012142F224
:101680002C1200260225188299829A811E801A88BF
:101690009B88257286F311881F4B204A20241A60EC
:1016A00084F3118808481E4B07464360FEF710FE7E
:1016B0003D7086F3118884F3118847E000100240E2
:1016C000000800202008002010080020000800402A
:1016D00091020008002004E0004400400003FA05E5
:1016E00000ED00E0F0ED00E0001000E0D808002080
:1016F00000500020300A0020510200083B1000205A
:1017000018100020500A0020B01D000841020008F7
:1017100011020008301E00082C0A0020001E0008DC
:10172000F01D00080070004000080140844B8888CC
:10173000000C01408888B8B48888844400140140B3
:1017400044888888F020000800E100E0B848B94BE0
:1017500007464360FEF7BCFD3D7086F31188B64B2B
:10176000B04699464FF0040B0194B44FB44DB54CBC
:10177000B5490393A5F10C0345F81C7C45E90577B1
:10178000103745E9033345F8187CC5E90055C5F81D
:1017900008B045F8048C019B83F311882C220220A9
:1017A0004FF0010AC4F824110291A84904F592737C
:1017B000C4F84411A6492077C4E903314B69A260FB
:1017C0006361E263C4F8286184F81D80C4E90D8870
:1017D000C4F8188084F81EA004F124021C6104F1EE
:1017E00028032046C4E90923E3624C61FFF7B8F8F7
:1017F00088F311885644042E49F8044B05F1280556
:1018000004F5A4740299B5D1002592499248029535
:10181000FFF7BEFB91499048FFF7BAFB904A914908
:101820008D48FFF7B5FB904A90498B48FFF7B0FB16
:101830008F4A90498848FFF7ABFB8F4A8F4986480B
:10184000FFF7A6FB8E4A8F498348FFF7A1FB8E4A1C
:101850008E498148FFF79CFB8D4A8E497E48FFF7F1
:1018600097FB8D4A8D497C48FFF792FB8C4A8D4946
:101870007948FFF78DFB8C497748FFF789FB642295
:101880008A497548FFF784FB2A4689497248FFF761
:101890007FFB324687497048FFF77AFB324686491C
:1018A0006D48CDF804A0FFF773FBDFF83492DFF842
:1018B000A8814FF4FA64019A80494046804F5C4EFB
:1018C000FFF766FB89F800504FF0200B8BF311886F
:1018D0004FF0030A7A4B611E384683F800A0FEF7EA
:1018E000DFFC85F311888BF31188514B611C304666
:1018F00083F800A0FEF7D4FC85F3118842F2107043
:10190000FFF776FA3846FEF73BFD3046FEF738FD26
:1019100099F800B0BBF1000F63D16A494046FFF768
:1019200037FB694A04F10903A2FB0323A4EBD304A8
:10193000012CC9D8C820FFF75BFA5A4663494046D4
:10194000FFF726FB019B0133652B0193B1D15C4866
:10195000FEF716FD3648FEF713FD029A5C493E4835
:10196000FFF716FB5B493C48FFF712FB4FF0200BDB
:101970004FF0000A03990A688BF31188537F43F0F4
:10198000040353778AF3118851F8044B03918BF3C6
:101990001188237F0F2B07D02D4B626A9B6909208A
:1019A0001A606362FFF73CF88AF311888BF31188A1
:1019B000A37F013BDBB2A3778AF3118813B9227F9F
:1019C0000F2A20D0039B444A43F804AC9A42D1D159
:1019D0004CF25030FFF70CFA4CF25030FFF708FA97
:1019E000F6E73E494046FFF7D3FAC820FFF700FA72
:1019F000029B2246A34238BF234634494046029305
:101A0000FFF7C6FA9EE7627F02F00302012A75D053
:101A1000022AD7D1D4E90401226C0861206941610E
:101A20008BF3118811682160146083F31188C9E772
:101A300000080020E01D0008201000209808002069
:101A4000940F0020580A0020110E0008110200080F
:101A5000D8080020B820000820080020381E000800
:101A6000701E0008781E0008901E0008A81E0008BE
:101A7000C01E0008081F0008201F0008281F0008BB
:101A8000401F00084C1F000800A24A04641F000801
:101A90007C1F0008941F0008AC1F0008D81F000816
:101AA000F01F0008042000081C2000082420000863
:101AB0003C200008542000086C2000088820000802
:101AC0001008002098200008CDCCCCCCA020000825
:101AD000BC200008D4200008301000209C20000802
:101AE0001C100020C022F36943F40033F3618AF82C
:101AF0002623CAF88481CAF80480B9E554F8085C42
:101B0000D4E904231A61226905F10809536105F13A
:101B10001007A4F108088BF311885A4AAB6996693B
:101B20004BB3D6F808C099688C4510D9197FC3F813
:101B300008C0062946D00729E6462ED039B9D3E990
:101B400000210A6018461B685960FEF759FD3946A6
:101B500003E08A68B3689A4203D309688F42F8D1D8
:101B600039464B680620C6E900131E604E60376296
:101B7000FEF756FF03E0B36BC5E90663B7638AF36C
:101B800011884B4699451A6801D0984503D9002A17
:101B900033D0424531D81346F4E71A685968D3F870
:101BA00020C00A601A686046516072460068844529
:101BB00002D081688A42F9D94268C3E90002136001
:101BC0004360C4E7D3F804E01A68186ACEF800202E
:101BD0001A680146C2F804E09E46624609688842D7
:101BE00002D08B689A42F9D94A688368CEE900121C
:101BF000C2F800E0C1F804E093E744F8082C54F878
:101C0000041CC3F8008054F8082C6018904206D1D8
:101C1000426801F108006158024444E90212586820
:101C200000F108021A44904505D154E90212083225
:101C30000244C3E90012134B99698BF311882A6996
:101C4000EB6997428B6319D0C86B4BB11C68A342F8
:101C500003D0A468A04238BF2046DB68002BF5D132
:101C600013688860916B10462B615F60C5E906219F
:101C70009763FEF775FE8AF31188A3E6C5F818A0EE
:101C8000F9E700BFD80800200000000000000000B5
:101C90001B4B1A46196841F0010119601368980737
:101CA000FCD500201368164903F0F9031360506057
:101CB0004B6813F00C0FFBD10B68114A43F48033CF
:101CC0000B6013689903FCD553680D4943F4E8137E
:101CD0005360136843F0807313600B689B01FCD55D
:101CE0001222084B084848601A604B68044A43F0C7
:101CF00002034B60536803F00C03082BFAD17047C2
:101D0000001002400020024000641D00000000009E
:101D100038B52022034682F311880E4A9469606A1E
:101D200004F12405A842236206D003686362FEF72B
:101D300067FC606AA842F8D1637F9B0704D1D4E9AD
:101D400004231A61226953610F20BDE83840FEF771
:101D500067BE00BFD808002000000000000000009F
:101D6000FEF72EBE00000000000000000000000092
:101D7000FEE700BF000000000000000000000000BF
:101D8000704700BF000000000000000000000000DD
:101D9000756E68616E646C656420657863657074E7
:101DA000696F6E00000000000000000000000000ED
:101DB0006D61696E00160118040244080C101418B5
:101DC000001C1D1E000000000000000000000000BC
:101DD000286E756C6C2900000000000000000000F7
:101DE00040420F00810800080000000000000000D1
:101DF00040420F00E1080008000000000000000061
:101E000020080020001001400C00000010080020F5
:101E100000080020F01D0008E01D000800A24A0490
:101E20006972715F73746F726D00000000000000D2
:101E300069646C65000000000D0A2A2A2A204368A4
:101E40006962694F532F5254204952512D53544FB8
:101E5000524D206C6F6E67206475726174696F6E8D
:101E600020746573740D0A2A2A2A0D0A00000000E6
:101E7000332E302E300000002A2A2A204B65726E45
:101E8000656C3A2020202020202025730D0A0000B8
:101E90004170722020362032303138202D203136EA
:101EA0003A30323A303600002A2A2A20436F6D70C9
:101EB000696C65643A202020202025730D0A0000FB
:101EC00047434320372E322E3120323031373039DC
:101ED0003034202872656C6561736529205B41523E
:101EE0004D2F656D6265646465642D372D62726186
:101EF0006E6368207265766973696F6E203235355E
:101F00003230345D000000002A2A2A20436F6D70B1
:101F1000696C65723A202020202025730D0A00008C
:101F200041524D76372D4D002A2A2A20417263688E
:101F300069746563747572653A2025730D0A000033
:101F4000436F727465782D4D330000002A2A2A20D1
:101F5000436F72652056617269616E743A20257311
:101F60000D0A00002A2A2A2053797374656D2043D4
:101F70006C6F636B3A2025640D0A00004164766142
:101F80006E636564206B65726E656C206D6F646551
:101F9000000000002A2A2A20506F727420496E66C1
:101FA0006F3A2020202025730D0A000053544D3332
:101FB000324631307820506572666F726D616E63A3
:101FC00065204C696E65204D656469756D204465BA
:101FD0006E736974790000002A2A2A20506C61749B
:101FE000666F726D3A202020202025730D0A0000B4
:101FF0004F6C696D65782053544D33322D5031301C
:10200000330000002A2A2A205465737420426F612D
:1020100072643A20202025730D0A00002A2A2A0D16
:102020000A0000002A2A2A20497465726174696FC7
:102030006E733A20202025640D0A00002A2A2A20E7
:1020400052616E646F6D697A653A202020202564A4
:102050000D0A00002A2A2A20546872656164733AC6
:1020600020202020202025640D0A00002A2A2A2072
:102070004D61696C626F782073697A653A202564D6
:102080000D0A0D0A00000000497465726174696FE1
:102090006E2025640D0A00002E00000023000000C1
:1020A0000D0A536174757261746564206174202532
:1020B000642075530D0A0D0A00000000576F7273FB
:1020C0007420636173652061742025642075530D4D
:1020D0000A0000000D0A5465737420436F6D706C24
:1020E0006574650D0A00000000000000000000009B
:1020F000610C0008710D0008D10C0008E10D00080A
:10210000C10C0008D10D0008510C0008610D000839
:0400000508000141AD
:00000001FF
