:020000040800F2
:100000000004002041010008811500088115000846
:100010008115000881150008811500088115000868
:10002000811500088115000881150008410C0008A1
:100030008115000881150008811500088115000848
:100040008115000881150008811500088115000838
:100050008115000881150008811500088115000828
:100060008115000881150008811500088115000818
:100070008115000881150008811500088115000808
:10008000811500088115000881150008910B0008F2
:10009000B1270008811500088115000881150008A6
:1000A00081150008811500088115000881150008D8
:1000B000A10B0008811500088115000881150008B2
:1000C00081150008811500088115000881150008B8
:1000D00081150008811500088115000881150008A8
:1000E0008115000881150008811500088115000898
:1000F0008115000881150008811500088115000888
:100100008115000881150008811500088115000877
:100110008115000881150008811500088115000867
:100120008115000881150008811500088115000857
:100130008115000881150008811500088115000847
:1001400072B6214880F30988022080F31488BFF337
:100150006F8F07F075F84FF055301C491C4A9142DB
:100160003CBF41F8040BFAE71A49174A91423CBFD9
:1001700041F8040BFAE71849184A194B9A423EBF56
:1001800051F8040B42F8040BF8E700201549164A11
:1001900091423CBF41F8040BFAE707F0B1F8134C69
:1001A000134DAC4203DA54F8041B8847F9E706F014
:1001B0001FFE104C104DAC4203DA54F8041B884764
:1001C000F9E707F095B800000008002000000020C3
:1001D0000004002000040020C88800080008002057
:1001E0007812002078120020F01F00204001000843
:1001F0004001000840010008400100080000000024
:100200002DE9F04FC1F80CD0D0F80CD0BDE8F08F3C
:10021000002383F311882846A047002007F050F8F8
:1002200007F05EF800DFFEE70000000000000000BD
:10023000014B5B6883607047001000E00000000025
:10024000202383F311880023034A9269506B536380
:1002500083F31188704700BF58150020000000008C
:10026000800000F1804000F5B840036823F4F043BB
:1002700023F0400383F0300343F4004343F0800352
:100280000360704700000000000000000000000054
:100290000122014B1A707047401E00200000000030
:1002A000FEE700BF000000000000000000000000AA
:1002B0000346202282F311880849094A0868126817
:1002C000073323F00703121A93429ABF1B180B60DF
:1002D0000020002383F31188704700BF9C17002083
:1002E000D016002000000000000000000000000008
:1002F000022906D0032906D00129064818BF00208C
:10030000704705487047032A9ABF044800EBC200B3
:1003100000207047708600081086000830870008AB
:100320000022024B9A60C3E9003370478C1700200B
:100330000122024B9A60C3E900337047A0170020E6
:10034000704700BF00000000000000000000000037
:10035000704700BF00000000000000000000000027
:100360000022024B9A60C3E900337047A0170020B7
:10037000202383F3118862B672B683F3118862B6C4
:10038000002383F3118862B6704700BF00000000AD
:1003900030B404240021074A074B084815191D6191
:1003A0009C60C3E9003330BCDA60C3E90522C3E9CD
:1003B00007017047B0170020AC0C00204103000873
:1003C0000021084A084B094810B4141D1C61C3E9F8
:1003D0000033DA60C3E90522D8619960196210BC64
:1003E000704700BFB0170020140C00204103000824
:1003F00000224FF4A471024B1A60C3E90112704746
:100400008017002000000000000000000000000035
:1004100010B400224FF4CC64064B074903F11000DE
:10042000C1E90024C3E904001A60DA609A619960A6
:1004300010BC704728170020B017002000000000F3
:10044000FFF7E6BF00000000000000000000000011
:1004500000207047000000000000000000000000C5
:1004600000224FF4A471024B1A60C3E901127047D5
:10047000A00C0020000000000000000000000000B0
:1004800010B400224FF4CC64064B074903F110006E
:10049000C1E90024C3E904001A60DA609A61996036
:1004A00010BC7047201E0020B01700200000000084
:1004B000FFF7C6BE000000000000000000000000C2
:1004C000FFF7F6BF00000000000000000000000081
:1004D000FFF7EEBF00000000000000000000000079
:1004E00030B4002005240A4B0A4A03F11C0102F132
:1004F00014051A60C3E9022203F110025D605C6218
:10050000C3E9060130BC1962C3E90422704700BF89
:10051000780C0020B0170020000000000000000050
:100520000020064A064B07499060C2E90022986005
:10053000C3E90033C1E90011704700BF580C002027
:10054000680C0020040C00200000000000000000E7
:100550000021044B044A9960C3E90033C2E9002238
:10056000704700BF580C0020040C00200000000061
:10057000FFF7EEBF000000000000000000000000D8
:100580000021044A044B9160C2E900229960C3E94A
:1005900000337047580C0020680C00200000000059
:1005A0000022024B9A60C3E900337047580C0020C8
:1005B000FFF7F6BF00000000000000000000000090
:1005C0000022024B9A60C3E900337047D00C002030
:1005D000FFF7F6BF00000000000000000000000070
:1005E000FFF7EEBF00000000000000000000000068
:1005F00020B370B584B06D46114E2C4600E0144611
:100600002246A6FB0013DB0803EB8301A0EB4100AD
:1006100000F13001C9B202F8011B1846002BEED1DF
:10062000AA4209D9074E01E014F8011D3068036899
:100630009B689847A542F7D104B070BD704700BFD2
:10064000CDCCCCCCA816002000000000000000009B
:1006500028B9044B3021186803689B681847FFF7D6
:10066000C7BF00BFA8160020000000000000000067
:1006700070B54C24074D28682D2103689B68984766
:10068000013CF8D128680222BDE8704003680249A5
:100690001B681847A81600204C7A000800000000CC
:1006A00030B420250024094B03F1140053F8042B27
:1006B0003AB185F31188517F41F00401517784F3F9
:1006C00011888342F2D130BC704700BF441E002025
:1006D00010B4202383F311884FF080440023646A10
:1006E00083F31188A4B2641A521A944206DB0123E0
:1006F000044C0549054A23700B701060184610BC65
:10070000704700BF181E00207C170020241700200F
:10071000F0B40E4E0E4F013935683B4603E013F836
:10072000014B944208D19D4211F8012FF7D81AB914
:1007300037601046F0BC70470122064C0649074B53
:10074000227018600A701046F0BC7047681E0020C6
:10075000581E0020181E00207C170020241700209F
:1007600051B9012310B40649064C074A23701060A2
:100770000B70184610BC704700231846704700BF26
:100780007C170020181E0020241700200000000005
:1007900010B4202383F31188044B00211A68541CE1
:1007A00010701C6081F3118810BC7047681E002017
:1007B0004320FFF7EDBF00BF000000000000000075
:1007C0004220FFF7E5BF00BF00000000000000006E
:1007D0004120FFF7DDBF00BF000000000000000067
:1007E0000078FFF7D5BF00BF000000000000000048
:1007F000FFF7F6BF0000000000000000000000004E
:1008000070B5017889B10446094D286803689B6872
:10081000984714F8011F0029F7D128680222BDE883
:100820007040036803491B681847014DF5E700BF96
:10083000A81600204C7A000800000000000000000C
:10084000017859B138B50446054D286803689B689E
:10085000984714F8011F0029F7D138BD704700BF31
:10086000A8160020000000000000000000000000AA
:1008700000EB8101C9688A69536833B1498A0B4426
:10088000013BB3FBF1F313827047012313827047DE
:1008900000EB8103DB68F0B41A6802F00302013A4E
:1008A000022A96BF294C4FF4007234F812209C683B
:1008B0000CB142F02002DC680CB142F4005248F264
:1008C000800647F6700742EA010424F478448D005C
:1008D00024F0F00405F1804505F5B84534432C605B
:1008E0002C683A4062405C8A32433E2C2A6004F114
:1008F000FF3222D842F00102013202EBD2725202E0
:1009000002F47C420026124F1D8A3B6D03F1005316
:1009100003F5405303EBC10149004E60CA60D0F8B3
:1009200080201544C0F880500A60D0F880301C4404
:10093000C0F880408B60F0BC704742F01F0201326B
:10094000044D521145EA822292B2DBE7607400083E
:10095000005C00400080FFFF00000000000000007D
:1009600000214368F0B4DB6880278B420CBF4FF452
:100970001C464FF41E464025054B064C196559642C
:10098000DF641E64C0F88050C460F0BCFFF780BF15
:10099000005C0040B07A0008000000000000000089
:1009A000012270B502FA01F304899BB214EA03062E
:1009B00001D0104670BD0546234308462B81FFF742
:1009C0004FFC304670BD00BF00000000000000007A
:1009D000012270B402FA01F345899BB215EA0306BD
:1009E00002D070BC10467047890001F1804101F5CA
:1009F000B8410C682B4324F4904424F0700484F430
:100A0000405444F4004444F08004438130460C6078
:100A100070BC7047000000000000000000000000F3
:100A2000F8B5046AD4F8542213681978042900D060
:100A3000F8BD217A0229FBD1012650795A8906FA9C
:100A400000F111EA0205F3D103EB8003D968606974
:100A5000D4E90632498AD31A1B1A9942E8D885F399
:100A60001188B3FBF1F3D4F8542201FB03F31068AF
:100A7000517904F10C0700EB8102D268926953604E
:100A80001670C2E90257FFF7F3FE202383F31188A3
:100A9000D4F8543259791868BDE8F840FFF798BF88
:100AA00090F87630426880F87E300649126843F04C
:100AB000800310B50446CB640AB10121904703239B
:100AC000237010BD005C004000000000000000002A
:100AD000704700BF000000000000000000000000A0
:100AE00090F87430024603F06003202B01D0002000
:100AF000704790F87530202BF9D3212B07D80720A9
:100B00000021074BC2E91B01936601207047222B8D
:100B1000EDD100230120C2E91A331367704700BFEB
:100B2000380C002000000000000000000000000061
:100B3000202383F31188114B5B6813F4006302D107
:100B400083F31188704780B400AFEFF309834FF04F
:100B50008071A3F1200243F8041C82F30988084A3B
:100B6000116892698968926891428CBF054A064A69
:100B700043F8082CBD4680BC704700BF00ED00E084
:100B8000581500202102000824020008000000007F
:100B9000FFF7CEBF000000000000000000000000D2
:100BA0002DE9F0414FF0804423699B0703D4BDE851
:100BB000F041FFF7BDBF00272025276185F311888D
:100BC0001E4E606AB6F826C0F36980B2A0EB0C0135
:100BD0001A8989B2914206F11C081BD31968624434
:100BE0004145F284DA68C1F80480F161DF6008BF32
:100BF000E76087F311881869904785F31188606A68
:100C0000B6F826C0F36980B2A0EB0C011A8989B24C
:100C10008A42E3D943450AD06244121A92B2022AA8
:100C20002CBF8218821C4FF0804392B25A6300237B
:100C300083F31188BDE8F041FFF77ABF5815002013
:100C400080B400AFEFF30983203383F309880023D6
:100C500083F31188BD4680BC704700BF00000000D0
:100C600008B52022034682F31188006828B1026883
:100C70001A60002383F3118808BD9A68002AF8D00F
:100C800058689047002383F3118808BD00000000D6
:100C900070B50522202500202F4B304C85F311889C
:100CA00021682360196080F311886168013A0B4460
:100CB000F4D10525294E3046FFF7D2FF011C18BF9D
:100CC00001210120FFF74CFDA0BB013DF3D12348DA
:100CD000FFF7C6FFB0FA80F102204909FFF740FD97
:100CE00040BB20261E4A1C4B02F1100086F31188DF
:100CF00021681960236085F31188904202D052F870
:100D0000043BF3E70525154E3046FFF7A9FF011C0C
:100D100018BF01210320FFF723FD58B9013DF3D18E
:100D20000E48FFF79DFFB0FA80F104204909FFF754
:100D300017FD00B170BD10220A4B0848C4E90052EB
:100D4000A360FFF78DFFBDE87040B0FA80F1052089
:100D5000C140FFF705BD00BFB0170020A00C002068
:100D60007487000851040008000000000000000023
:100D7000202383F31188024602E08B4207D01A46F3
:100D800013688342F9D1002383F3118870470B68FD
:100D90001360002383F31188704700BF0000000038
:100DA0002DE9F041334C8AB04FF0200C24608CF3D5
:100DB0001188012700234FF0FF302F4A26680AAD23
:100DC000916945F8146D06912560CDE90773099086
:100DD00083F311888CF311884FF00208916922681F
:100DE0000AAE46F8282D0191CDE903302660CDF8F2
:100DF000088083F3118821683846091B18BF012138
:100E0000FFF7AEFC10B10AB0BDE8F08129462046DC
:100E1000FFF7AEFF21684046091B18BF0121FFF70D
:100E20009FFC0028EFD131462046FFF7A1FF216843
:100E30000320091BB1FA81F14909FFF791FC002851
:100E4000E1D1044607250D4E25FA04F3DB0707FA26
:100E500004F20DD556F82430204625EA0205013467
:100E60009847002DF0D106490420FFF751FCCAE74E
:100E70000134E9E70C0C002058150020407B0008E5
:100E8000507B00080000000000000000000000008F
:100E9000104B114A5B688168126F5B1A9B1A41689C
:100EA000C2682DE93008D0E9044514EB030B45F185
:100EB000000C01328B42C0E90232C0E904BC06D802
:100EC0000268934238BF0360BDE830087047436052
:100ED000FAE700BF001000E05815002000000000F5
:100EE000202383F31188037F072B0ED8DFE803F05C
:100EF000270D0D2308040D08026A936801339360DF
:100F0000D0E900231A600268536010B400224FF049
:100F1000FF3481680C4B046202771B689A688A422E
:100F2000FBD25A680021C0E900321060586081F39A
:100F3000118810BC70470022036A1A60E5E700239D
:100F400083F31188704700BF58150020000000008F
:100F500001460022064B80680A771B689A68824225
:100F6000FBD25A680846C1E90032116059607047E7
:100F700058150020000000000000000000000000E4
:100F8000074B1A689A4209D010B400241168104621
:100F90004B601960146210BCFFF7DABF704700BFE6
:100FA000040C002000000000000000000000000011
:100FB00010B5D0E90524A24283681DD00133541C2A
:100FC000836044611170D0E904329A420DD2026804
:100FD00090420FD0034600241168104619604B6000
:100FE0001462FFF7B5FF204610BD0268C368904247
:100FF0004361EFD1002010BD002BDFD06FF0030064
:1010000010BD00BF00000000000000000000000054
:1010100038B5114BD3E9050188429A6817D01D698C
:10102000481C01329A609861A8420C780CD21A6868
:101030009A4207D00025116810464B60196015626E
:10104000FFF786FF204638BDDA689A61EFE7002A8D
:10105000E5D06FF0020038BDAC0C002000000000AD
:101060000346426B007F11430A2859630AD00B28BC
:1010700000D070471A6A8A43FBD1002218461A62D0
:10108000FFF766BF1A6A1142F7D1704700000000EF
:1010900070B50468A0420FD006460D46E3682B43A6
:1010A000E36015B12269134203D0D4E90101FFF7CF
:1010B000D7FF2468A642F1D170BD00BF0000000038
:1010C000F8B501F1110350F82340BCB107460D46B5
:1010D000202686F3118804216018FFF7D9FFD4E990
:1010E000060207EB850CDCF80C106369498A121ABA
:1010F000D31A994203D9002383F31188F8BD002045
:1011000080F31188B3FBF1F34FF0010EDCF80C20F3
:1011100001FB03F392690C34C2E901302946D46023
:1011200082F800E03846FFF7A3FB86F311882946D2
:10113000FFF74EFC002383F31188DFE70000000077
:10114000124A30B40468C36895698442AB6318D00E
:101150000146E86B4BB11A68934203D09268904203
:1011600038BF1046DB68002BF5D1A26B2368A8605E
:101170000B6020465960C1E90242A16330BCFFF711
:10118000E7BE0023A36030BC704700BF58150020A5
:1011900083680133002B836000DD704710B4024682
:1011A000002403681968184611604A601C6210BC6C
:1011B000FFF7CEBE000000000000000000000000AD
:1011C00038B50C4B5A6A002A10DDD3E90154211DB1
:1011D000013AA9425A6228BF1A68996020600648FD
:1011E00028BF9A60FFF7D4FF002038BD4FF0FF30D2
:1011F00038BD00BF780C0020880C002000000000E3
:101200000C4A516A002911DDD36810B51468043BFB
:101210000139A3425162D36002D25368043BD360C8
:1012200018600548FFF7B4FF002010BD4FF0FF30F5
:10123000704700BF780C0020880C002000000000E0
:101240000C4B9969002912DDDA68013910B59961F2
:101250005968146804328A42DA6028BF1A68046048
:10126000054828BFDA60FFF793FF002010BD4FF05C
:10127000FF307047780C0020940C00200000000024
:1012800070B5856881600135002D0CDC04466FF077
:10129000010660680135436863601C60FFF758FE13
:1012A000012D0662F5D170BD0000000000000000B5
:1012B00038B5036898420BD004460D461A681846A4
:1012C000226054601D62FFF743FE23689C42F5D103
:1012D00038BD00BF0000000000000000000000005A
:1012E0001C4B70B4DA6982420FD0D0E9002100248F
:1012F0000A6002681C339A425160C46003D00189BD
:1013000013890B44138170BC704718460024116880
:1013100040F81C1F81424860D46017D04FF08044D1
:10132000606A1689DD8C0B8982B23344501B9BB2F4
:1013300080B283420B81E6D91B1A9BB2022B2CBFD1
:10134000D318931C9BB2636370BC70474FF080430B
:10135000DC60D8E758150020000000000000000005
:10136000F0B51E4E4FF08047B646022938BF022125
:101370007D6A5EF81C4F1FFA85FC01EB0C05744575
:101380000361C260ADB21BD0F38C2289EB1A9BB211
:101390009A4204D912E024689B1A22899BB29A428D
:1013A000F9D34FF6FF716268C0E9004210606060D7
:1013B00003812289D31A2381B184F0BD7D63EEE7D6
:1013C00000220223A6F826C0C6E90700C0E90044AF
:1013D00001817D633A61FB60F0BD00BF58150020BC
:1013E00000210B4A08B52023117083F311880948A6
:1013F000C3680BB1FFF774FF0023074A4FF4FA618B
:101400000448FFF7ADFF002383F3118808BD00BF38
:10141000401E00206C1E0020910200080000000009
:10142000EFF3128020B9EFF30583202383F31188B3
:10143000704700BF00000000000000000000000036
:10144000C20710B410D5264BD3E9001499423BD003
:101450000022096801329942FBD18C4231D0646884
:10146000013A9C42FBD162BB830712D51C4BDA695F
:1014700003F11C04A242196A2AD000231268013326
:10148000A242FBD191421CD04968013BA142FBD151
:10149000BBB910F0040012D0114B0020D3E9042195
:1014A0009A4219D0126901309A42FBD1914208D078
:1014B000496901389942FBD1003018BF012010BCA6
:1014C0007047012010BC70479C42CDD00022C6E777
:1014D000A142DED00023D7E79142E9D1EFE700BF78
:1014E000581500200000000000000000000000006F
:1014F00038B5202484F311880120FFF7A1FF0023D1
:1015000083F3118880F00101C9B20120FFF728F9A7
:1015100000B138BD054684F311880220FFF790FF23
:1015200085F3118880F00101C9B20220FFF718F994
:1015300005460028EDD184F311880420FFF780FFD1
:1015400085F3118880F00101C9B20320FFF708F983
:1015500005460028DDD184F311880820FFF770FFCD
:1015600085F31188BDE8384080F00101C9B204203C
:10157000FFF7F6B8000000000000000000000000C7
:1015800072B6024B024A9A62FEE700BF581500206D
:10159000D0750008000000000000000000000000FE
:1015A00038B50D4698B1044628600D49204605F02F
:1015B000FFFE044420460A4905F0D2FE68B100232C
:1015C000421C2A600370237823B1204638BD0C6882
:1015D000002CEAD10024204638BD2860F3E700BF84
:1015E000C0750008000000000000000000000000BE
:1015F0000EB42DE9F04F04464FF0000886B00FAF4F
:1016000057F8046B02973178721C61B1252910D00C
:101610001646236820469B689847317808F10108F0
:10162000721C0029F2D1404606B0BDE8F04F03B06D
:10163000704771784FF000092D2903BFB178B21CB3
:1016400001200020302903BF5178013230252025A8
:10165000013205E03B78043712F8011B03EB460921
:10166000A1F13003DBB2092B944609EB8906F3D9CB
:101670002A29EFD02E294FF0000248D001F0DF03D5
:101680004C2B0CF101064ED0A1F14103A1F144060F
:10169000DBB2342E00F21F81DFE816F06F011D016E
:1016A0001D011D011D016F011D011D011D011D01F8
:1016B0001D0119011D011D011D011D011D01E70075
:1016C0001D011D0178011D011D011D011D011D01CF
:1016D0001D011D011D011D011D018F006F011D0157
:1016E0001D011D011D016F011D011D011D011D01B8
:1016F0001D0119011D011D011D016D001D01E700E6
:101700001D011D0178013B78043703EB46021CF8EC
:10171000011B02EB8206A1F13003DBB2092BF4D9E5
:101720002A29F0D0AAE79CF800300BB3A3F14401BA
:10173000342900F2D280DFE801F0E1D0D0D0D0E14E
:10174000D0D0D0D0D0CBD0D0D0D0D099D0D0DED0C7
:10175000D0D0D0D0D0D0D0D0D041E1D0D0D0D0E1F6
:10176000D0D0D0D0D0CBD0D0D01FD099D0D0DE0028
:101770000B466646DAE76646D7F800A00437BAF1AA
:10178000000F00F007819AF800305546002A40F01B
:101790000881002B00F0158147F6FE72534601E0E8
:1017A000013A03D413F8011F0029F9D15B1BA9EBFF
:1017B0000309013B009320250BE066463B680DF1D1
:1017C000180A0AF80C3D0023202509F1FF390437D7
:1017D0000093B9F1000F21DB002840F08880C9F1A7
:1017E0000003B9F1000F00F081809AF80010226820
:1017F0002D29926800F0AF809B4601E023689A682B
:101800002946204690471BF1010BF7D1009A5B4611
:10181000002AC844FFF6F7AE994605E0009B002B6E
:10182000FFF6F1AE4FF00009DDF800B023680BF1D0
:10183000FF3B9B681AF8011B20469847BBF1FF3F0E
:10184000F4D1009B08F1010843449846B9F1000F18
:101850003FF4D9AECA46236829469B68204698477C
:10186000BAF1010AF7D1C844CDE666464FF00A0E38
:1018700057F8042B0DF1170100E05946B2FBFEFCAE
:101880000EFB1C2202F13003392BC8BF02F13703D3
:101890006246DBB201F8013C01F1FF3B002AECD1CA
:1018A0000A460DF117010DF10C0AA1EB0B0ED446FF
:1018B0000BEB0E0101E012F8013B8A420CF8013BF0
:1018C000F9D10EF1FF33A9EB0E09009381E76646CB
:1018D0004FF0080ECCE766460B4600220DF1180AC1
:1018E000009209F1FF390AF80C3D72E79946009B16
:1018F000002B99DAAAE74FF0100EB9E7391D3A68C4
:101900000F46002A54DB0DF10C0AD6460EF10B0BE4
:1019100059462E4BA3FB02C3DB089C4603EB830313
:10192000A2EB430362463033DBB201F8013D002AEB
:10193000EFD1ABEB0102724401E011F8013F0EF868
:10194000013B9645F9D1AEEB0A0E0EF1FF33A9EB40
:101950000E0900933DE7302D7FF44EAF20460193F2
:101960009047009B2268013B0093019B08F101080E
:1019700092680AF1010A9B4642E7394651F8042B66
:10198000192B664688BF0F46BBD8B8E766464FF0AE
:10199000100E6DE70E4DAA46002A3FF4FDAE013A47
:1019A000FCE6002BFBD14FF0FF332025009310E71E
:1019B0002D2352428DF80C300DF10D0E0DF10C0A55
:1019C000A4E74FF0FF332025009305E7CDCCCCCC26
:1019D0007077000800000000000000000000000018
:1019E000002918DC70B504460C4E0D4D05E0336837
:1019F0004FF480621B6829469847236800215B6981
:101A00002046984701300548F1D02046BDE8704097
:101A10000449FFF7EDBD0449FFF7EABD7812002045
:101A200000080020307A0008407A0008000000001A
:101A3000002903DD084A0949FFF7DABD202383F3B3
:101A400011884FF080420023526A83F311880449C1
:101A500092B2FFF7CDBD00BF9079000898790008D9
:101A6000A479000800000000000000000000000051
:101A7000002903DD194A1A49FFF7BABD10B504461B
:101A800082B0184A1849FFF7B3FD184A1849204692
:101A9000FFF7AEFD174A18492046FFF7A9FD174A80
:101AA00017492046FFF7A4FD164A17492046FFF7BD
:101AB0009FFD164A16492046FFF79AFD154A16491A
:101AC0002046FFF795FD154B20460093144A154B11
:101AD0001549FFF78DFD02B010BD00BF80770008EB
:101AE000987900088877000890770008A4770008A4
:101AF000EC77000800780008087800081C780008D7
:101B0000287800083C7800085478000868780008B5
:101B100090780008A4780008CC78000808790008BC
:101B2000E4780008E0780008F07800080000000081
:101B300010B52F482F4CFEF783FE4FF4A870FEF728
:101B400057FD2046FEF75CFE2B48FEF779FE442049
:101B5000FEF74EFD2046FEF753FE2848FEF770FEC6
:101B60001420FEF745FD2046FEF74AFE2448FEF706
:101B700067FE0C20FEF73CFD2046FEF741FE2148A3
:101B8000FEF75EFE0420FEF733FD2046FEF738FE2A
:101B90001D48FEF755FE1420FEF72AFD2046FEF7ED
:101BA0002FFE1A48FEF74CFE1020FEF721FD2046BE
:101BB000FEF726FE1648FEF743FE0820FEF718FD46
:101BC0002046FEF71DFE1348FEF73AFE2420FEF7DE
:101BD0000FFD2046FEF714FE0F48FEF731FE2820C9
:101BE000FEF706FD2046BDE81040FEF709BE00BF27
:101BF000407600085076000858760008687600089D
:101C0000787600088876000898760008A87600089C
:101C1000B8760008C8760008D876000800000000F2
:101C2000536910B423B100241C605C609C60DC60CC
:101C300093692BB100241C605C609C60DC601C61BB
:101C400000EB8103DA6010BCFEF722BE000000004A
:101C5000022944D1F8B50D46202383F311880027CB
:101C60001F4C204A0121FFF7DBFF29461E4AFFF7E0
:101C7000D7FF04F10C06D4F85422A36930466FF064
:101C800001011568C4E908336761FFF711FBD4E966
:101C90000F2304F130009B1A6FF00101C4E91122F7
:101CA000A363FFF705FB201D0121FFF7F1F90122D6
:101CB000D4F85432597905EB8103DB68588A9B6963
:101CC000C3E901071A70DE602846FEF7D1FDD4F89B
:101CD00054325979FEF77CFE87F31188F8BD7047BE
:101CE00078120020E07A0008107B00080000000055
:101CF00070B5202383F31188114A106894698368B2
:101D0000A1688B4203D2002383F3118870BD0126A2
:101D1000002503685A60136006779061257700E01C
:101D20001B689A689142FBD95A682146C4E900327F
:101D300014605C60FEF764FA002383F3118870BDC1
:101D40005815002000000000000000000000000006
:101D500038B50446084DFFF7CBFFFFF7C9FFFFF783
:101D6000C7FFFFF7C5FF2368AA6904332360537FC9
:101D70005B07F0D538BD00BF5815002000000000FB
:101D800070B4012600250C4A106894690368A168A4
:101D900013605A6006779061257700E01B689A68A7
:101DA0009142FBD35A682146C4E9003214605C605A
:101DB00070BCFEF725BA00BF5815002000000000D7
:101DC000044B1A689B6992689B689A4200D87047D6
:101DD000FFF7D6BF581500200000000000000000EB
:101DE00008B5202282F311888368002B05DDFFF7F8
:101DF000E7FF002383F3118808BDFFF7C9F9FFF758
:101E0000DFFF002383F3118808BD00BF000000003E
:101E1000134A70B52023946983F31188A36BB3B17F
:101E200000261A68D9689342A16314D0956B116893
:101E3000104619604B60C3E902259363FFF788F8E9
:101E4000A36B002BEDD1E36BA360FFF7B9FF002379
:101E500083F3118870BD9E600B46002BE1D1F2E741
:101E600058150020000000000000000000000000E5
:101E700010B5202383F31188084B9B69DC6B9968AC
:101E8000A14201D0814200D29860D863FFF798FF49
:101E9000002383F31188204610BD00BF5815002091
:101EA000F8B5494EB3699C68651C2846FFF7E0FF0A
:101EB0000746391BB1FA81F101204909FEF750FCB0
:101EC00000B1F8BDB36902209968491BB1FA81F1EC
:101ED0004909FEF745FC0028F3D13846FFF7C8FF53
:101EE000291AB1FA81F103204909FEF739FC0028CB
:101EF000E7D1B36904209968091BB1FA81F1490956
:101F0000FEF72EFC0028DCD1202383F31188B26970
:101F100093680233936080F31188B369A71C9968B2
:101F20000520C91BB1FA81F14909FEF719FC002807
:101F3000C7D12846FFF79CFF011BB1FA81F10620AB
:101F40004909FEF70DFC0028BBD1B3690720996849
:101F5000C91BB1FA81F14909FEF702FC0028B0D192
:101F6000B3690820D96B4F1B79427941FEF7F8FB22
:101F70000028A6D1E71C3846FFF77AFF281A41420D
:101F800041410920FEF7ECFB00289AD1B3690A20F1
:101F90009968CA1B51425141FEF7E2FB002890D1DB
:101FA000B3690B20D96BCB1B59425941FEF7D8FBC3
:101FB000002886D1202383F31188B3699C60DC63F9
:101FC00080F31188F8BD00BF581500200000000004
:101FD00010B5EFF30584C4F308041CB1002383F3A8
:101FE000118810BDFFF7ECFE84F3118810BD00BF0F
:101FF00003682DE9F04103F1005E0EF5405E5FEAF3
:1020000052084FEA4E0E42601BD00F697646444696
:1020100000E06646886906F1040C431CBB428B61F4
:1020200028BFCB6800785D1C8D611B78AF4240EA09
:1020300003239CBFC8688861013C3360E9D10EEB83
:10204000880ED3070BD588690C69431C8B61A342AA
:10205000007828BFCB68CEF8000028BF8B61FFF75F
:10206000DFF904468B6808461A448A600021FFF7AE
:102070001FF91CB9BDE8F041FFF7AABFBDE8F08128
:1020800000EB8100C26810B45069CC00128A41682C
:1020900003788A4228BF0A46C168EBB9144B501C2A
:1020A0001B6D03F1005303F5405323445C00236888
:1020B000626003F1005303F5405342084FEA4303C3
:1020C00008D001EB420231F8020B04338A4243F894
:1020D000040CF8D110BC7047054B186D00F100508E
:1020E00000F540502044400010BCFFF781BF00BF06
:1020F000005C004000000000000000000000000044
:1021000090F86420062A14D80123934013F0670F37
:1021100070B5044627D113F008020BD0C3689B6941
:102120009B682BB9036F03B19847002384F8643090
:1021300070BD7047DB06FBD50521C36880F86410CD
:102140005B6911461A70DA60C3E90122FFF798FF54
:10215000202383F31188238913F0010021D0002369
:1021600083F3118870BD48F28006114943680A68FC
:102170001D6822F4F04222F0400282F01002324345
:102180000A600B6823F4904323F0700383F48053B8
:1021900033430B600DB10521A847062384F8643052
:1021A00070BD43F001032381FEF75AF8D7E700BF63
:1021B000005C004000000000000000000000000083
:1021C00038B590F864300446062B30D8DFE803F0C9
:1021D0005F04375F5F305F0090F87B2090F87A30C3
:1021E000C16E43EA02239942C26829D2108AB1FB28
:1021F000F0F300FB13131BBB526919461370D36035
:10220000C2E901332046FFF73BFF202383F3118807
:10221000238913F0010004D143F001032381FEF769
:102220001FF8002383F31188022384F8643038BD3B
:10223000036F03B19847002384F8643038BDC26847
:102240000321002384F86410926919461370D36047
:10225000C2E901332046FEF70BFB202383F31188EC
:102260006389DA070FD4194943F001020B686281D0
:1022700023F4904323F0700383F4405343F400436A
:1022800043F080030B60002383F3118838BD48F2CC
:1022900080000E4963680A681D6822F4F04222F04B
:1022A000400282F0100202430A600B6823F490435C
:1022B00023F0700383F4805303430B6015B10521B1
:1022C0002046A847062384F8643038BD005C0040EF
:1022D0000022C34B70B580F864201B6D044603F1E7
:1022E000005303F5405303EBC10149008B6800F133
:1022F000740203F1005303F540535B0003F1100037
:1023000019680433834222F8021BF9D163689B6881
:10231000002B3DD020469847002839D0E16E94F834
:10232000742094F87B0094F87A3043EA00238B42BF
:102330002CBF0B46E3661106E06800F1CC80002B51
:102340007DD00422002184F864208269A06E53604D
:10235000D060117091602046FEF78AFA202383F343
:1023600011886389DA070FD49D4943F001020B6895
:10237000628123F4904323F0700383F4405343F4C9
:10238000004343F080030B60002383F3118870BD8A
:1023900094F8742012F0600511461ED048F28000B7
:1023A0008F4963680A681D6822F4F04222F04002F7
:1023B00082F0100202430A600B6823F4904323F07A
:1023C000700383F4805303430B6015B1052120464D
:1023D000A847062384F8643070BD94F8750002F0B5
:1023E0007F0343EA0023B3F5407F00F0FF8040D92C
:1023F000B3F5C06F00F0DA8012D9B3F5106F00F0BA
:10240000818040F602418B4200F0C980B3F5006F35
:10241000C4D1012104F17F03C4E91B15A36680E741
:1024200040F20232934200F08F80B3F5A06FB5D135
:102430006C4BC4E91A5523670B06E06857D4002398
:102440000522194684F864204269C2E901331370F9
:10245000D3602046FFF714FE202383F311882389DD
:1024600013F0010090D143F001032381FDF7F8FE42
:102470008AE7022B00F0C98040F28680B3F5807FA6
:1024800053D0B3F5817F89D194F87630002B85D174
:1024900094F8782012F00F0318D09B0003F18043CA
:1024A00003F5B84312F0800F1A6840F0D68002F4AA
:1024B0004052B2F5405F09D01A6822F4F04222F08F
:1024C000400242F4204242F080021A600023C4E934
:1024D0001A332367B0E753B10122002184F8642046
:1024E0004269A06E5360D06011709160B1E7032221
:1024F000002384F86420826919461370D360C2E90E
:10250000013328E794F8763084F87F30002B40F0D0
:1025100094800323237063681B68002BD6D00221AC
:102520002046984794F87410D0E794F87630012B41
:102530007FF434AFB4F87C30A56623F00203C4E91D
:102540001B55A4F87C3077E794F87630002B7FF4A5
:1025500025AF94F8782012F00F03B7D09B0003F159
:10256000804303F5B84312F0800F1A6840F087806B
:1025700022F4904222F0700282F4805242F400422F
:1025800042F080021A60A1E733B9022104F17C0015
:10259000C4E91B13A066C4E6012B7FF4FFAE022141
:1025A0000020114BC4E91B10A366BAE694F8791019
:1025B000626894F87830566843EA012394F87620EC
:1025C00094F877102046B04700283FF4E7AED0E9F2
:1025D000001394F87420C4E91A312567A1E600BFFE
:1025E000005C0040A10A00089087000894F876304B
:1025F000012B7FF4D3AEB4F87C30A56643F0020320
:10260000C4E91B55A4F87C3016E794F8783003F041
:102610000F0113F0800F204B53F8213010D113F429
:1026200040533FF4BBAEB3F5805F0FD102210020D1
:102630001A4BC4E91B10A36673E6042323706AE7F0
:1026400013F030033FF4AAAE102BEFD0022100208C
:10265000134BC4E91B10A36663E602F03002302A74
:102660003FF434AF1A6822F4F04222F0400282F0C4
:10267000200242F4004242F080021A6026E722F46F
:10268000F04222F0400282F0100242F4004242F096
:1026900080021A601AE700BF005C0040607B0008FF
:1026A000F0750008000000000000000000000000BD
:1026B000F8B5046AD4F8542213681978042900D0B4
:1026C000F8BD217A0229FBD101251279198905FA71
:1026D00002F30B40F4D1D4E90F02A16B121A521A83
:1026E000EED083F31188D4F8541204F1300708684F
:1026F000097900EB8106F6687669C6E90123357031
:10270000F760FFF7BDFC202383F31188D4F854321F
:1027100019791868BDE8F840FEF742B900000000DA
:10272000F8B500EB81039C6A7CB30E460546202772
:1027300087F311880821201DFEF7AAFCD4E90F13A6
:10274000A26B5B1A9B1A21D105EB8601CB685A69F3
:102750005268BAB11B8A013B134013D183F311882D
:102760000120CA6830345269C2E90133D460107064
:1027700031462846FFF784FC87F311883146284606
:10278000FEF70EF9002383F31188F8BD002181F3D1
:10279000118805EB8602D268303452690120D4607A
:1027A000C2E90131E3E700BF0000000000000000C3
:1027B0002DE9F04FA14B83B05C6C660500F12081E0
:1027C00025050FD59E4E9D4A7168136C0D6843F028
:1027D0000803136415B130460321A8476FF4006263
:1027E000964B5A64E00407D5944B9A6C11046AD551
:1027F0006FF48052914B5A64A20509D5904E7368CC
:10280000DB680BB1304698476FF400728B4B5A640B
:10281000230453D58A4EDFF824B204F00F044FEAA4
:10282000840A0AF1804505F5B845D5F80090A71C43
:1028300006EB870319F0800FD3F8048025D02B68AE
:10284000E00023F4784323F0F00343F400432B60CB
:10285000DBF85030D8F8141003F1005303F540535F
:1028600003445B00D3F804C0D1E9012363448B60C7
:10287000D31A7FD101223389A24023EA0203338194
:102880002146D8F808306E48984719F4004F11D007
:102890002B6819F4006F23F4784323F0F00343F01E
:1028A00080032B601CD006EB87077B6821465B68A2
:1028B00063489847DBF844402204AED403B0BDE837
:1028C000F04FFEF735B95E4E1A6C716822F00802BF
:1028D0000D681A64002D8BD030460421A84787E785
:1028E000DBF85030D8F8180003F1005303F54053DB
:1028F00003EBC4035B00DA68114601920278C1F36E
:102900000909C168002A40F09D809B6809F1010215
:1029100003F1005303F5405352084FEA430309D033
:1029200003EB82028C4696461A68043373452CF8F2
:10293000022BF9D14944C160018AB8F812C00139AB
:10294000D0E9013289B24A44A3EB0903CC450182A4
:10295000C0E9013240F2CA800122738906EB870781
:102960007968A24023EA02037381CA683448214689
:1029700090479FE7B8F8102091F800E09A4228BFEE
:102980001A46CB68BEF1000F40F0A480DBF850E09F
:1029900063440EF1005E0EF5405E86444FEA4E0E33
:1029A000DEF80000CB6000F10051501C01F54051F1
:1029B00040084FEA4101CEF8042008D001EB800026
:1029C00033F8022B043141F8042C8142F8D1202342
:1029D00083F311880AF1804A0AF5B84ADAF8003020
:1029E000002223F4F04323F0400383F0300343F448
:1029F000004343F08003CAF8003082F3118844E7B3
:102A0000002502230E4E30463370F567C6E90255A5
:102A1000C6E90455C6E90655C6E90855B56286F803
:102A20006450FDF79DFF73681B680BB129469847FA
:102A30006FF48062014B5A64C2E600BF005C004044
:102A4000D014002098685FEA590C00F1005000F59E
:102A500040504FEA40001FD0864600EB8C0C4B697B
:102A6000DEF80020581C48611A704FEA122AD1E99A
:102A700004329A4228BFCA680EF10400531C4B610D
:102A800082F800A0D1E904329A4228BFCB6886467A
:102A900028BF4B616045E2D1019BDB070AD54B693A
:102AA0000268581C48611A70D1E904329A4224BF66
:102AB000CB684B61202383F311888B6808464B4415
:102AC0008B600021FEF7F4FB002383F31188D8F814
:102AD000180031E7DBF8501001F1005101F54051C9
:102AE000084440001946FFF783FA70E700293FF4D5
:102AF00033AF2B6823F4904323F0700383F44053E7
:102B000043F4004343F080032B60D3E60000000051
:102B100008B5202383F31188002282F3118883F300
:102B20001188FEF77DFC08B9FFF752FA002383F302
:102B3000118808BD00000000000000000000000037
:102B4000144B70B49E69856804460162B068854282
:102B50000CD8002222771B689A689542FBD95A68E4
:102B6000C4E9003214605C6070BC704700211A46F2
:102B70003177126891688842FBD901205168C6E913
:102B800000210E6056602077314620469C6170BC63
:102B9000FDF736BB581500200000000000000000C3
:102BA0002DE9F8431E4E804630468946FEF758F818
:102BB0000446002831D0202383F311884FF0020C03
:102BC00000254FF0010E7368164A243BC718C760F2
:102BD000C250154A154BC7F804903B620261576911
:102BE00000F1240100F12803C0F808804761C0F813
:102BF0003C8080F81EE080F81CC0C0E90D5585615E
:102C00003861416280F81DC00664C0E90A33294674
:102C10005061FFF795FF85F311882046BDE8F883E2
:102C200080170020F1070008581500201102000845
:102C300008B5202383F31188064B1868984205D005
:102C40000268002153601A60FFF77AFF002383F3C4
:102C5000118808BD040C00200000000000000000E6
:102C6000164B70B59D69202383F311880468C368EF
:102C70008442AB631CD0E96B4BB11A68934203D01A
:102C80009268914238BF1146DB68002BF5D10346AC
:102C9000A66B22682046A9601A6000215360C3E930
:102CA0000246A363FFF74CFF002383F3118870BD36
:102CB0000023A360002383F3118870BD5815002002
:102CC00008B5202383F3118883680133002B8360C8
:102CD00003DD002383F3118808BD0346006800214B
:102CE00002681A605360FFF72BFF002383F31188FB
:102CF00008BD00BF00000000000000000000000050
:102D0000F8B5069F0446202585F3118800254FF06D
:102D1000020E4FF0010C24394618C6604350104B88
:102D200010497760316203615969C263826000F1C2
:102D3000240600F128024161A0F81CE080F81EC0C2
:102D4000C0E90D55856108612946C0E90962C26282
:102D50005861FFF7F5FE85F311882046F8BD00BFE6
:102D600058150020110200080000000000000000BB
:102D700030B40125064B99691A6808771468104623
:102D8000636015771C6030BC9A61FDF739BA00BFEB
:102D900058150020000000000000000000000000A6
:102DA00038B5202383F31188154CA3680133002B19
:102DB000A3601ADD013B002BA36006DBFFF700F8E0
:102DC0000020002383F3118838BD0E4A636895699B
:102DD0000520C5E900431D602C626560FFF7C8FF50
:102DE000286A002383F3118838BD206803685C607B
:102DF0002360FEF7ADF80022A3680262DAE700BFA5
:102E0000D00C002058150020000000000000000039
:102E100010B500241D4A82B092694FF4A4719268E3
:102E20001B4B013200941B48FFF76AFF1A4C1B4BE7
:102E30001860FFF7B5FF21680120091BB1FA81F185
:102E40004909FDF78DFC08B102B010BDA168022050
:102E5000B1FA81F14909FDF783FC0028F4D1FFF7AD
:102E60009FFF21680320091BB1FA81F14909FDF791
:102E700077FC0028E8D1A1680420B1FA81F1490962
:102E800002B0BDE81040FDF76BBC00BF5815002034
:102E9000F14D0008B0170020D00C0020441E002087
:102EA0000B4A10B52023946983F31188636B33B9FF
:102EB0004FF0FF330A202362FFF75AFF636B58423B
:102EC000184023EA00036363002383F3118810BDD5
:102ED0005815002000000000000000000000000065
:102EE000094A10B52023946983F31188606B30B9C7
:102EF0004FF0FF330A202362FFF73AFF606B002395
:102F0000636383F3118810BD581500200000000092
:102F1000074A10B52023946983F311880320FFF733
:102F200027FF236A002BF9D0002383F3118810BDFB
:102F30005815002000000000000000000000000004
:102F40004FF6FF7330B5994287B012D005460C4C4E
:102F500001A8A3690B4AFEF703FA2846FFF708FF0A
:102F6000049B13B101A8FEF7BBF9A369186A07B067
:102F700030BDFFF7FDFE024CA369186A07B030BDF3
:102F800058150020E10E00080000000000000000BD
:102F9000202383F31188104B99684A1E002A9A60F7
:102FA00004DB0020002383F31188704780B10B4AB3
:102FB00010B592695C681362C2E900340146226070
:102FC00005205A60FFF7BCFF002383F3118810BD72
:102FD00099604FF0FF30E5E7D00C00205815002035
:102FE00070B5554C2023A26983F31188536B3BB90C
:102FF00083F3118801210120FDF7B2FB80B170BD80
:103000005942194023EA01035363002383F31188D3
:10301000B1FA81F101204909FDF7A2FB0028EED1A8
:10302000A369202282F311885A6B002A6FD058635B
:1030300080F3118801460220FDF792FB0028DED1C3
:10304000A369202282F311885A6B013263D080F386
:103050001188012001460320FDF782FB0028CED114
:10306000A669202383F31188756B4DB94FF0FF33A8
:103070000A2133620846FFF763FF00284FDB756BB8
:103080006942294025EA01057563002383F311880D
:10309000B1FA81F149090420FDF762FB0028AED1A5
:1030A000A669202383F31188756B4DB94FF0FF3368
:1030B0000A2133620846FFF743FF002833DB756BB4
:1030C0000023736383F31188B5FA85F1490905205C
:1030D000FDF746FB0546002891D1A469202383F320
:1030E0001188636B013308D04FF0FF330A2123624C
:1030F0000B20FFF725FF002819DB0023636383F310
:1031000011882946BDE870400620FDF729BB82F3EF
:10311000118801218FE7586380F311889AE785F3BE
:1031200011880121B7E785F311880121CFE785F3E5
:1031300011880125E5E700BF5815002000000000B8
:103140008368013B002B836001DB0020704702464F
:10315000064B10B49B6905201A621A6054685C60C3
:103160002360536010BCFFF7EBBE00BF5815002072
:1031700070B52023064683F311880D4C04F11C0022
:10318000FFF7DEFF054670B9D4E90112131D8B422B
:10319000A36028BF23681660064828BFA360FDF718
:1031A000F7FFFEF70DFE002383F31188284670BD5C
:1031B000780C0020880C00200000000000000000B7
:1031C00070B52023064683F31188104C04F11C00CF
:1031D000FFF7B6FF054620B1002383F31188284688
:1031E00070BDE3682268043B9342E36002D26368E7
:1031F000043BE3601E600648FDF7CAFFFEF7E0FDF2
:10320000002383F31188284670BD00BF780C00208E
:10321000880C0020000000000000000000000000FA
:1032200070B52023064683F311880E4C04F110007C
:10323000FFF786FF054678B9E2686168131D8B4287
:103240001268E36028BF23683260074828BFE36044
:10325000FDF79EFFFEF7B4FD002383F31188284697
:1032600070BD00BF780C0020940C0020000000000E
:10327000F0B5202383B083F31188D14D0120696A12
:10328000A1F10501B1FA81F14909FDF769FA0028B8
:1032900040F0908180F3118842244FF6FF71204660
:1032A000FFF766FFB0FA80F102204909FDF758FAEE
:1032B000013478B9462CF0D14FF6FF714120FFF769
:1032C0007FFFB0FA80F103204909FDF749FA002891
:1032D00000F07E8103B0F0BD80F3118884F3118883
:1032E0004120FDF76DFFB0FA80F116204909FDF786
:1032F00037FA0028EED14220FDF762FFB0FA80F1E4
:1033000017204909FDF72CFA0028E3D14320FDF7E7
:1033100057FFB0FA80F118204909FDF721FA00287B
:10332000D8D14420FDF74CFFB0FA80F119204909AB
:10333000FDF716FA06460028CCD14520FDF740FFE0
:1033400086F31188B0FA80F11A204909FDF708FACE
:103350000028BFD1D5E90231A1EB030CDCF100015B
:1033600041EB0C011B20FDF7FBF90028B2D1074609
:10337000052684F3118801A8FDF762FF87F3118801
:10338000B0FA80F11C204909FDF7EAF90028A1D123
:103390009DF80400FDF7FCF9013EEAD189491D20A2
:1033A000FDF7B6F9002895D184F31188696A1E20CB
:1033B0004F1F79427941FDF7D3F9002840F023826D
:1033C00086F3118884F31188A9691F20B1FA81F16D
:1033D0004909FDF7C5F9002840F0158286F31188E8
:1033E000D5E90231CA1A514251412020FDF7B8F9FE
:1033F00000287FF46FAF84F311884520FDF700FFAC
:10340000B0FA80F121204909FDF7AAF900287FF4DC
:1034100061AF4420FDF7F4FEB0FA80F122204909A3
:10342000FDF79EF900287FF455AF4320FDF7E8FE35
:10343000B0FA80F123204909FDF792F900287FF4C2
:1034400049AF4220FDF7DCFEB0FA80F124204909A3
:10345000FDF786F900287FF43DAF4120FDF7D0FE4F
:10346000002383F31188B0FA80F125204909FDF784
:1034700077F900287FF42EAFD5E90231CB1A5942F3
:1034800059412620FDF76CF900287FF423AF06464A
:103490000524202787F3118801A8FDF7D1FE86F3C4
:1034A0001188B0FA80F127204909FDF759F9002861
:1034B0007FF410AF9DF80400FDF76AF9013CE9D1F3
:1034C00040492820FDF724F900287FF403AF87F353
:1034D0001188696A2920A1F1050EDEF1000141EB96
:1034E0000E01FDF73DF9002840F0C58084F31188F6
:1034F00087F31188A9692A20B1FA81F14909FDF7FA
:103500002FF9002840F0B78084F31188D5E9023103
:10351000A1EB030CDCF1000141EB0C012B20FDF7CA
:103520001FF900287FF4D6AE87F31188D5E9003261
:10353000D21A91102448AB60EB60FDF7A1FE214642
:103540002248FDF79DFEFEF73BFC84F3118887F3CC
:103550001188696A2C204E1F71427141FDF700F9F4
:10356000002840F0888084F3118887F31188A969C6
:103570002D20B1FA81F14909FDF7F2F800287AD13E
:1035800084F3118887F311882968AB682E20CA1A42
:1035900051425141FDF7E4F800286CD184F31188C1
:1035A00087F311882968EB682F20CB1A59425941BB
:1035B000FDF7D6F8002383F3118803B0F0BD00BFF8
:1035C000780C0020807B0008940C0020880C0020E0
:1035D00001215820FFF7CCFDA0F1FF31B1FA81F1B4
:1035E00004204909FDF7BCF8044600287FF472AEB8
:1035F000202686F311885820FDF7E2FD014684F36A
:103600001188A1F1FF31B1FA81F105204909FDF7D7
:10361000A7F800287FF45EAE01215820FFF7D0FD07
:10362000A0F1FF31B1FA81F106204909FDF798F8C0
:10363000044600287FF44EAE86F311885820FDF72B
:10364000DFFD014684F31188A1F1FF31B1FA81F168
:1036500007204909FDF784F8044600287FF43AAEB4
:1036600086F31188696A0820B1FA81F14909FDF7EA
:1036700077F8074610B184F311882BE680F31188A0
:1036800086F31188A9690920A1F1050EDEF1000178
:1036900041EB0E01FDF764F810B187F3118819E6CC
:1036A00080F3118886F31188D5E90231A1EB030C70
:1036B000DCF100014FF00A0041EB0C01FDF750F87E
:1036C000002300287FF477AF83F31188052405E0F9
:1036D0009DF80400FDF75CF8013C0DD04FF6FF713A
:1036E00001A8FFF79DFDB0FA80F10B204909FDF715
:1036F00037F80028ECD0EDE544490C20FDF708F838
:1037000000287FF4E7AD4FF6FF714720FFF730FD4B
:10371000B0FA80F10D204909FDF722F800287FF466
:10372000D9AD4FF6FF7101A8FFF77AFDB0FA80F12D
:103730000E204909FDF714F800287FF4CBAD296865
:10374000AB680F20CF1A79427941FDF709F80028BC
:103750007FF4C0AD2968EB681020CE1A7142714128
:10376000FCF7FEFF00287FF4B5AD012101A8FFF7AB
:1037700057FD0130414241411120FCF7F1FF002883
:103780007FF4A8AD202686F3118801A8FDF758FD27
:10379000014684F311884A1C514251411220FCF722
:1037A000DFFF00287FF496AD86F31188696A132045
:1037B0004B1F59425941FCF7D3FF00287FF4FAAE62
:1037C000002787F31188202484F31188A969142025
:1037D000B1FA81F14909FCF7C3FF064600287FF4DE
:1037E0005CAF80F3118884F31188D5E90231A1EB35
:1037F000030EDEF1000141EB0E011520FCF7B0FFD6
:1038000000283FF469AD86F3118863E5807B0008EA
:1038100061B10246074B10B49B6904201A605468DA
:103820005C602360536010BCFFF78ABB4FF0FF3031
:10383000704700BF58150020000000000000000085
:103840002DE9F04F83B004460D4616460193D0F89B
:103850001C804FF0200989F311880027BA46A3681D
:1038600005F1010B591EFBB16369A160591C61612F
:1038700029781970D4E90431994224BFE36863615F
:10388000B8F1000F01D02046C0478AF31188013EED
:1038900007F1010712D089F311885D46A36805F18D
:1038A000010B591E002BDFD1019920460093FFF731
:1038B000AFFF009B0028D2D083F31188384603B0B5
:1038C000BDE8F08F000000000000000000000000D4
:1038D0003030FFF7B5BF00BF00000000000000005F
:1038E00030304FF6FF73FFF7ABBF00BF00000000A2
:1038F000F8B504460F461646202383F3118805E0E9
:1039000031462046FFF784FF002816DBA568002D0E
:10391000F6D06369013D5A1C6261A5601F70D4E94D
:1039200004329A4224BFE3686361E3690BB1204625
:103930009847002080F31188F8BD85F31188F8BD01
:103940004FF4C87200210148FFF7D2BFAC0C002031
:103950003030FFF7CDBF00BF0000000000000000C6
:1039600030304FF6FF72FFF7C3BF00BF000000000A
:103970002DE9F04F044683B0894693461D46D0F8A2
:103980001C80202787F311880026B2460197B8F1E2
:10399000000F07D02046C04704E029462046FFF725
:1039A00037FFC8B9A768002FF7D0A269013F511CA3
:1039B000A161A760137809F8013B2369A2699A42C3
:1039C00024BFE368A3618AF311880136B34505D0AB
:1039D000019B83F31188DAE787F31188304603B03F
:1039E000BDE8F08F000000000000000000000000B3
:1039F0000C30FFF7BDBF00BF00000000000000005A
:103A00000C304FF6FF73FFF7B3BF00BF000000009C
:103A100070B520230E46044683F31188C3693BB179
:103A2000984705E031462046FFF7F2FE002813DBF9
:103A3000A568002DF6D0A2692169531C8B42A361B1
:103A400005F1FF3528BFE368A560107828BFA361A2
:103A5000002383F3118870BD85F3118870BD00BF0A
:103A60004FF4C8710148FFF7D3BF00BF140C00200A
:103A70000C30FFF7CDBF00BF0000000000000000C9
:103A80000C304FF6FF71FFF7C3BF00BF000000000E
:103A900008B50146202383F311880820FFF750FA68
:103AA000002383F3118808BD00000000000000001F
:103AB0000226B0460B4B0C4A9B6980B50B4D0C4F50
:103AC0009A613B78C5F81480042B14BF4FF47A74C4
:103AD0004FF4FA742046FFF7DBFF20462E61FFF714
:103AE000D7FFEEE758150020B07500080008014028
:103AF000D0140020000000000000000000000000C2
:103B000010B586B0FDF78CFC08B9FEF761FA2023EA
:103B100083F31188FDF784FC08B9FEF759FA0023F6
:103B200083F31188EFF3128313B9202383F31188F1
:103B3000EFF3128313B9202383F31188002383F357
:103B40001188202282F31188EFF312820AB183F3E5
:103B50001188EFF3128313B1002383F3118800223D
:103B60002023049283F31188049B01AC13B12046F7
:103B7000FDF7B6FB204600230B4A0121FDF7F0FBC1
:103B8000002484F311880A20FFF782FF202383F3A7
:103B90001188049984F31188B1FA81F1012049094F
:103BA000FCF7DEFD06B010BD112B00080000000080
:103BB00010B504466420FFF76BFF202383F31188C0
:103BC00001212046FDF74CFAFEF7FAF8002383F3B3
:103BD000118810BD0000000000000000000000007F
:103BE00038B5202585F3118800210B48FDF750FAE0
:103BF0000024FEF7E5F884F311886420FFF748FFFE
:103C000085F3118805482146FDF742FAFEF7D8F8FA
:103C100084F3118838BD00BF0C0C0020100C00206C
:103C200008B56420FFF734FF202383F3118804488C
:103C3000FDF7AEFAFEF7C4F8002383F3118808BD40
:103C4000D00C002000000000000000000000000078
:103C500008B50120FFF71CFF202383F311884FF0E4
:103C600080420023506A83F3118880B208BD00BFF0
:103C70002DE9F0470024FFF7EBFFA246FDF7B0FB6C
:103C80004FF02009DFF86880144F154E154D89F369
:103C9000118800233A4630460121FDF761FB3A4680
:103CA000002342F210712846FDF75AFB3046FDF71B
:103CB00017FB2846FDF714FB8AF3118898F80030AB
:103CC0000134002BE3D00848FCF7BAFD6000FCF794
:103CD000BFFCBDE8F0470548FCF792BD5103000862
:103CE000801E0020941E0020007600081076000838
:103CF000401E002000000000000000000000000046
:103D0000F8B500231D46254A254C02F1100121611A
:103D1000E260C4E90522A360C4E90733C4E90044B2
:103D20002F46FFF795FFFDF75BFB1E4E202383F325
:103D3000118800212046FDF73BF920460121FDF7BF
:103D400037F920460221FDF733F920460321FDF71C
:103D50002FF987F311884FF6FF712046FFF758FEC1
:103D60004FF6FF712046FFF753FE4FF6FF712046D6
:103D7000FFF74EFE20464FF6FF71FFF749FE3378FE
:103D80000135002BD2D00848FCF75AFDA800FCF7FB
:103D90005FFCBDE8F8400548FCF732BD481700203D
:103DA00058170020401E00200076000840770008C9
:103DB0002DE9F0430024144B83B09B69A1469D6814
:103DC000FFF746FFFDF70CFBDFF850800F4F104E5A
:103DD00001353B46CDF800902A464FF4A471304699
:103DE000FEF78EFF98F800300134002BF1D009481F
:103DF000FCF726FD2046FCF72BFC074803B0BDE886
:103E0000F043FCF7FDBC00BF58150020D17200083C
:103E1000B01700200076000800770008401E002040
:103E2000F8B5FFF715FF202686F311884FF080457F
:103E30006C6A0023A4B283F31188C820FFF728FE20
:103E400004F1CB0204F1C80192B289B20120FCF75F
:103E50003FFC00B1F8BD86F311886C6AA4B280F310
:103E60001188C820FFF714FE04F1CB0204F1C80149
:103E700092B289B20220FCF72BFC0028EAD186F32B
:103E800011886C6AA4B280F311884FF4FA60FFF7CE
:103E9000FFFD04F2D37204F5FA6192B289B20320F5
:103EA000FCF716FC0028D5D186F311886C6AA4B201
:103EB00080F3118804F1C807BFB286F31188696ADC
:103EC000791A89B211B10820FFF73AF8002383F379
:103ED000118804F1CB023946BDE8F84092B20420C3
:103EE000FCF7F6BB0000000000000000000000002E
:103EF00038B5202383F311880B4CA269134653F87D
:103F0000280F984208D00D250168002491624B606B
:103F1000057784F3118838BD0E20FEF729FFA269CA
:103F2000906A02F12803EEE7581500200000000017
:103F300070B520260025FFF7DBFF046B86F31188A0
:103F40002146FEF7FDFD85F31188002CF3D170BDED
:103F500070B51F4A82B094694FF4A471A2681D4BDA
:103F6000013200941C48FEF7CBFE1C4B2025186044
:103F7000FFF7BEFF066B85F311883146FEF7E0FDC3
:103F8000002484F31188F0B2FCF702FCFFF7B0FFC5
:103F9000066B85F311883146FEF7D2FD84F3118854
:103FA000F0B2FCF7F5FBFFF7A3FF066B85F3118872
:103FB0003146FEF7C5FD84F31188F0B2FCF7E8FB4B
:103FC0000120074902B0BDE87040FCF7A1BB00BF6B
:103FD0005815002061400008B0170020441E002042
:103FE000507B0008000000000000000000000000FE
:103FF0000E4B10B520229C6982F3118800F1280233
:1040000022622260C26A216362601460027FC4621D
:104010000E2A07D00C20FEF7ABFE206A002383F3A4
:10402000118810BDFCF794FFF4E700BF581500207D
:1040300070B505460024FFF70BFEFDF7D1F9074EDA
:1040400001212846FFF7D4FF33780134002BF7D045
:1040500028460021FFF7CCFF204670BD401E0020FF
:1040600010B504464121FFF7C3FF20464221FFF768
:10407000BFFF2046BDE810404321FFF7B9BF00BF96
:10408000F8B5374A83689569002B3FD0A9689A68CC
:104090000446914206D91A7F9960062A3BD0072A26
:1040A00015D042B32646234603E09968AA68914298
:1040B0002AD31B689C42F8D173680620C5E90063C7
:1040C0001D6075602C62BDE8F840FEF751BE1F68A8
:1040D00058681E6A07601F683246786002E0906880
:1040E000884234D312689642F9D17268C3E90062FB
:1040F00013607360D6E7D3E90012116018461B689D
:104100005A60FCF725FFCDE71E46D5E7AB6BC0E94B
:104110000253A863F8BD1F6858681E6A07601F68CD
:10412000B4463246786002E09068884216D312683E
:104130009642F9D1DCF80420A968C3E900C21360F3
:10414000CCF80430B3689A688A42A4D3AAE716462A
:104150007268C3E9006213607360A3E79446E9E7FD
:1041600058150020000000000000000000000000C2
:1041700008B5202383F31188FFF782FF002383F320
:10418000118808BD000000000000000000000000D1
:1041900070B5FFF75DFD0025FDF722F9144E154CB3
:1041A0002046FFF7E5FF2046FEF75AFD2046FFF7C1
:1041B000DFFF2046FEF754FD2046FFF7D9FF2046DB
:1041C000FEF74EFD2046FFF7D3FF2046FEF748FDE1
:1041D00033780135002BE3D00748FCF731FBA8000A
:1041E000FCF736FABDE870400448FCF709BB00BF95
:1041F000401E00208C170020007600083076000852
:10420000F8B507461C48FFF7B3FF1C48FFF7B0FF9F
:10421000202383F311881A4DAB699E6B3046FCF75F
:104220008FFF184AAC6910461346226203E0996872
:10423000A268914202D31B688342F8D15A680720D2
:10424000C4E9003214605C60FEF792FDAB691B6A42
:10425000013302D03046FFF713FF002383F31188A8
:104260003878FCF795FA0548FEF7FAFCBDE8F84007
:104270000148FEF7F5BC00BF680C0020580C002078
:1042800058150020040C0020000000000000000071
:1042900070B506461648FFF76BFF202383F311889D
:1042A000144B9C69A56B2846FCF74AFF124A10463E
:1042B0001346226203E09968A268914202D31B6808
:1042C0008342F8D15A680720C4E9003214605C6068
:1042D000FEF74EFD2846FFF7D3FE002383F3118837
:1042E0003078FCF755FABDE870400148FEF7B8BCDD
:1042F000580C002058150020040C0020000000007D
:1043000038B50546054C2046FFF732FF2878FCF704
:104310003FFA2046BDE83840FEF7A2BC680C0020FA
:10432000F8B5374D2023AA69966883F31188354C78
:10433000A368002B57D00021002383F311880120AC
:10434000FCF70EFA014600B1F8BD202383F3118873
:10435000A368002B4ED00121002383F31188022093
:10436000FCF7FEF907460028EED1202383F31188DD
:104370002448FCF7E5FE87F3118821680320091B18
:10438000B1FA81F14909FCF7EBF90028DCD1A16809
:104390000420B1FA81F14909FCF7E2F90028D3D1F0
:1043A000AB6905209968891BB1FA81F14909FCF7CD
:1043B000D7F90028C8D11348FFF7DAFEFDF728FD2A
:1043C00021680620091BB1FA81F14909FCF7C8F9F7
:1043D0000028B9D1A1680720BDE8F840B1FA81F101
:1043E0004909FCF7BDB9AB6901219A6B9C63C4E92B
:1043F0000232A1E7AB699A6B9C63C4E90232ABE776
:1044000058150020580C002000000000000000009B
:1044100010B5064C6420FFF73BFB2046FFF7A8FED3
:104420002046BDE81040FEF71BBC00BF680C002012
:1044300010B5064C4FF49670FFF72AFB2046FFF7A5
:1044400097FE2046BDE81040FEF70ABC580C00203D
:1044500038B50546054C2046FFF78AFE2878FCF75C
:1044600097F92046BDE83840FEF7FABB580C00200B
:1044700070B5114C0E46002818BF044604F1100513
:104480002846FFF775FEA3686BB1002214465868F2
:104490001B6801340244002BF9D128463260FEF734
:1044A000DFFB204670BD1A461C4628463260FEF7E8
:1044B000D7FB204670BD00BFB016002000000000F2
:1044C00030B5002983B004DD0F49FDF791F803B042
:1044D00030BD044601A90020FFF7CAFF05460B4A7C
:1044E0000B4B12681B680B49D21A2046FDF780F867
:1044F0002A4609492046FDF77BF82046019A0749DC
:10450000FDF776F803B030BD20790008D016002002
:104510009C1700203079000850790008687900085D
:10452000F8B550F8085C064605F11007A0F108043C
:1045300008353846FFF71CFE2B46AB421A6801D0FF
:10454000A34202D21AB1944201D31346F5E746F8CA
:10455000082C56F8042C1C6056F8080CB11881423F
:104560000AD0596801F108021A44944211D0384621
:10457000BDE8F840FEF774BB496802F10805B05881
:10458000294446E90201596801F108021A4494429B
:10459000EDD156E9020208321144C3E90001384660
:1045A000BDE8F840FEF75CBB000000000000000022
:1045B00030B4202181F31188837F0024013BDBB2DA
:1045C000837784F311881BB9047F02460F2C01D036
:1045D00030BC7047447F04F00304012C0FD0022C40
:1045E000F6D1D0E90454006C256115696C6181F342
:1045F000118801681160026083F31188E8E7D0E94F
:1046000004131961026930BC5361FFF789BF00BF11
:1046100010B5202383F31188074B04699C4217BF10
:10462000A37F00240133A377002383F31188FFF7CE
:10463000BFFF204610BD00BF58150020000000003D
:10464000002902DD1649FCF7D3BFF0B5154985B046
:104650000646FCF7CDFF202383F31188124B00227E
:104660001C69A37F0133A37782F311880F4D104F8C
:10467000227FE36855F822200292A17F2246013969
:104680000191A068394600903046FCF7B1FF204602
:10469000FFF7BEFF04460028EAD105B0F0BD00BF19
:1046A000D0790008E479000858150020B07D000892
:1046B0000C7A00080000000000000000000000006C
:1046C00038B50546202383F311880A4B00241B6963
:1046D0009A7F01329A7784F311881846AB4208BF5B
:1046E00044F00104FFF794FF03460028F5D120466B
:1046F00038BD00BF58150020000000000000000079
:10470000F8B5204E0731002818BF064606F11007FD
:10471000384621F0070506F10804FFF729FD03E0FC
:104720004368AB4212D2044620680028F8D13846CC
:10473000FEF796FA336813B305F108009847F0B115
:10474000C0E9006500F108042046F8BD05F1080243
:104750009342016808D221600446384644F8086B49
:10476000FEF77EFA2046F8BD5B1B00EB020C083B0F
:104770008150CCF80430C4F800C04560ECE7002458
:10478000E2E700BFB01600200000000000000000BB
:1047900070B582B069460020FFF76AFE1021002044
:1047A000FFF7AEFF011C054618BF01210120FBF7F2
:1047B000D7FF08B102B070BD04462846FFF7B0FE2F
:1047C0006FF0FF012046FFF79BFFB0FA80F1022057
:1047D0004909FBF7C5FF0028ECD169467C48FFF783
:1047E00047FE10217A48FFF78BFF102106467848D4
:1047F000FFF786FF102105467548FFF781FF044645
:104800003046FFF78DFE2846FFF78AFE2046FFF769
:1048100087FE01A96E48FFF72BFEA0F10101B1FA56
:1048200081F103204909FBF79BFF0028C2D1102129
:104830006748FFF765FF102104466548FFF760FFF2
:10484000054610216248FFF75BFFFFF769FE284627
:10485000FFF766FE2046FFF763FE01A95C48FFF7FD
:1048600007FEA0F10101B1FA81F104204909FBF72B
:1048700077FF00289ED111215548FFF741FF1021F5
:1048800004465348FFF73CFF05462046FFF748FE25
:1048900001A94F48FFF7ECFDA0F10201B1FA81F147
:1048A00005204909FBF75CFF002883D11021484807
:1048B000FFF726FF01A904464548FFF7D9FD012867
:1048C00000F0838001A94248FFF7D2FDA0F1020168
:1048D000B1FA81F149090620FBF742FF00287FF475
:1048E00069AF2846FFF71CFE2046FFF719FE01A915
:1048F0003748FFF7BDFDA0F10101B1FA81F10720B2
:104900004909FBF72DFF00287FF454AF10213048F0
:10491000FFF7F6FE102105462D48FFF7F1FE04468D
:104920002846FFF7FDFD01A92948FFF7A1FD851ED7
:10493000694269410820FBF713FF00287FF43AAF72
:1049400020212348FFF7DCFEFFF7EAFD2046FFF7B2
:10495000E7FD01A91E48FFF78BFD013841424141A7
:104960000920FBF7FDFE00287FF424AF01A91848B9
:10497000FFF77EFD01991648FFF7C2FE01A9044624
:104980001348FFF775FDB0FA80F10A204909FBF7DB
:10499000E7FE00287FF40EAF2046FFF7C1FD01A916
:1049A0000B48FFF765FD421E514251410B20FBF7BA
:1049B000D7FE00287FF4FEAEDDE90031CB1A594264
:1049C00059410C20FBF7CCFEF4E6014683E700BF1B
:1049D000201E002000000000000000000000000079
:1049E0002DE9F843904699460E46FFF789FE0446A6
:1049F00070B3202383F31188022300254FF0010CAC
:104A0000A6F124014718C760134E40F80190134ADD
:104A100008993A62796006617169037700F12402AE
:104A200000F128034161C0F80880C0F83C80C0E96B
:104A30000D55856180F81EC00861426280F81DC076
:104A4000C0E90A3329467061FEF77AF885F31188C8
:104A50002046BDE8F88300BF581500201102000869
:104A600010B54A4B4A489A6982B092684FF4A471D3
:104A70000090484B013A4848FFF7B2FF817F044657
:104A80000120091AB1FA81F14909FBF769FE08B161
:104A900002B010BD202383F31188A37F0133A377D5
:104AA00080F311880220A17F091AB1FA81F1490926
:104AB000FBF756FE0028EBD12046FFF779FDA17FDA
:104AC0000320A1F10101B1FA81F14909FBF748FE88
:104AD0000028DDD12046FFF7F3FD01460420FBF757
:104AE0003FFE0028D4D12046FFF7EAFD014605200D
:104AF000FBF736FE0028CBD12046FFF759FDA17FFA
:104B00000620B1FA81F14909FBF72AFE0028BFD13E
:104B1000217F0720B1FA81F14909FBF721FE002826
:104B2000B6D12046FFF7CCFD01460820FBF718FE62
:104B30000028ADD12046FFF7C3FD01460920FBF751
:104B40000FFE0028A4D16420FEF7A2FF217F0A20D7
:104B5000A1F10F0359425941FBF702FE002897D1FA
:104B60002046FFF7ADFD01460B20FBF7F9FD0028BD
:104B70008ED12046FFF7A4FD80F001010C20C9B2C0
:104B800002B0BDE81040FBF7EBBD00BF5815002098
:104B9000A07A0008F1070008281700200000000094
:104BA000202383F311888368013B002B836004DB9F
:104BB0000020002383F311887047034610B5084C8A
:104BC0000520A26913621360596851600A605A6037
:104BD000FEF7CEF8A369186A002383F3118810BD8D
:104BE0005815002000000000000000000000000038
:104BF00070B5FFF72DF80025FCF7F2FB144E154CAD
:104C00002046FFF7CDFF2046FEF75AF82046FFF773
:104C1000C7FF2046FEF754F82046FFF7C1FF2046A5
:104C2000FEF74EF82046FFF7BBFF2046FEF748F898
:104C300033780135002BE3D00748FBF701FEA800CD
:104C4000FBF706FDBDE870400448FBF7D9BD00BF87
:104C5000401E0020A01700200076000820760008E3
:104C600038B5074CA3695B7F5A0707D4054D284622
:104C7000FFF796FFA3695B7F5B07F8D538BD00BFE0
:104C800058150020A01700200000000000000000C0
:104C9000F0B5002587B003AC0595CDE90344202687
:104CA00086F3118829462046FCF7EAFAFDF788F8D2
:104CB00085F3118886F3118805990120A942CCBF9C
:104CC00000210121FBF74CFD18B185F3118807B0D5
:104CD000F0BD074680F31188404A4FF4A4719269F1
:104CE0003F4B92683F48013A0094FEF709F83E4B6B
:104CF00018602046FFF754FF86F3118805990220BB
:104D00000029CCBF00210121FBF72AFD18B187F350
:104D1000118807B0F0BD80F3118886F31188059BD8
:104D2000002B23DDFDF74CF8002585F311882027A3
:104D300087F3118805990320A942D4BF00210121DE
:104D4000FBF70EFD06460028BFD180F3118887F3DC
:104D5000118805990420A1F10101B1FA81F14909F5
:104D6000FBF7FEFC30B186F31188B0E72046FCF774
:104D70000FFAD7E780F3118887F31188059B002B82
:104D800027DDFDF71DF8002484F31188202686F323
:104D9000118805990320A142D4BF00210121FBF70E
:104DA000DFFC054610B184F3118890E780F3118889
:104DB00086F3118805990520A1F10101B1FA81F16D
:104DC0004909FBF7CDFC00287FF47FAF80F3118801
:104DD0007DE72046FCF7DCF9D3E700BF581500203B
:104DE000E11D0008B0170020441E00200000000054
:104DF00010B5044C2046FFF7D3FE2046BDE8104016
:104E0000FDF75EBFD00C0020000000000000000095
:104E100010B504460348FFF7C3FE2078BDE81040F4
:104E2000FBF7B6BCD00C0020000000000000000022
:104E300038B50446202383F31188037F0F2B07D056
:104E4000084B426A9B6909201A606362FDF790FF74
:104E5000256A002383F311882046FFF7A9FB284623
:104E600038BD00BF58150020000000000000000001
:104E7000002902DD0E49FCF7BBBB10B504460D4A04
:104E800082B092690C4B92684FF4E4710020009458
:104E9000FFF7A6FD20B102B0BDE81040FFF7C8BF84
:104EA0002046064902B0BDE81040FCF7A1BB00BF98
:104EB000B07900085815002031680008C079000852
:104EC0002DE9F0430024154B83B09B69A1469D68F2
:104ED000FEF7BEFEFCF784FADFF85480104F114E47
:104EE000013D3B462A464FF4A471CDF80090304670
:104EF000FDF706FFFFF79CFF98F800300134002B08
:104F0000EFD00948FBF79CFC2046FBF7A1FB0748C4
:104F100003B0BDE8F043FBF773BC00BF5815002099
:104F2000D1720008B0170020007600080077000852
:104F3000401E0020000000000000000000000000F3
:104F400070B50026064C04F1140554F8040B18B192
:104F5000FFF76EFF44F8046CAC42F6D170BD00BFA1
:104F6000441E0020000000000000000000000000BF
:104F700000232DE9F041DFF8D08084B004AC44F880
:104F8000043DFEF765FED8F818302A4F2A4E9A687D
:104F900030463B46013A00944FF4A471FDF7B0FE51
:104FA000D8F81830254D9A684FF4A47128603B4614
:104FB000013A009406F5A470FDF7A2FED8F8183067
:104FC00068609A6806F524703B46013A00944FF4F5
:104FD000A471FDF795FED8F81830A8609A6806F518
:104FE00076703B46013A00944FF4A471FDF788FEB9
:104FF000D8F818304FF4A4719A68E8603B46013A3B
:10500000009406F5A460FDF77BFE28614FF4FA607A
:10501000FEF73EFDFBF744FBFFF792FF0848FBF766
:105020000FFC0398FBF714FB0648FBF7E9FB04B001
:10503000BDE8F081511D0008B0170020441E00207B
:1050400000760008307700085815002000000000A6
:105050002DE9F04100243A4D82B0AA69394B92689B
:105060004FF4A471053238480094FDF749FEAB694E
:10507000364E9A684FF4A47130600432314B00947C
:105080003348FDF73DFEAB6970609A684FF4A47138
:105090002C4B033200942F48FDF732FEAB69B06011
:1050A0009A684FF4A471274B023200942A48FDF706
:1050B00027FEAB69F0609A684FF4A471214B01326E
:1050C00000942648FDF71CFE25463061FEF7C0FD22
:1050D0002026FCF785F9DFF89880214F86F31188A8
:1050E00000213846FCF7CCF8FCF76AFE85F31188FE
:1050F00098F800300134002BF0D0FBF7D1FA86F39A
:10510000118800211648FCF7BBF8FCF759FE85F31F
:105110001188FFF715FF1348FBF792FB2046FBF7BA
:1051200097FA04EB44041048FBF78AFB6000FBF796
:105130008FFA0E4802B0BDE8F041FBF761BB00BF3B
:1051400058150020614C0008B0170020441E0020B4
:10515000F8180020401A0020881B0020D01C0020D6
:10516000A0170020007600081077000830770008AC
:10517000401E0020000000000000000000000000B1
:105180002DE9F0410025234A82B092694FF4A471C1
:105190009268214B013221480095FDF7B1FD204B6B
:1051A000044618602E46FEF753FD2027FCF718F939
:1051B000DFF8788087F3118800212046FDF7C0FCD6
:1051C00020460021FDF7BCFC20460021FDF7B8FC7D
:1051D00020460021FDF7B4FC86F3118898F80030D2
:1051E0000435002BE6D087F311884FF0FF312046BD
:1051F000FDF7A6FC86F31188FFF7A2FE0948FBF72E
:105200001FFB6800FBF724FA074802B0BDE8F04135
:10521000FBF7F6BA58150020112F0008B017002030
:10522000441E00200076000830770008401E002051
:105230002DE9F04100262C4F2C4DBB6982B09A68B5
:1052400028462B4B013200964FF4A471FDF758FD10
:10525000BB69284C9A68DFF8AC8020604346023A6C
:10526000009605F5A4704FF4A471FDF749FDBB69E4
:1052700060609A6805F524704346033A00964FF43F
:10528000A471FDF73DFDBB69A0609A6805F57670D5
:105290004346043A00964FF4A471FDF731FDBB6913
:1052A0004FF4A4719A68E0604346053A009605F50C
:1052B000A460FDF725FD20612068FEF7B9FE0446D5
:1052C000FFF73EFE0C48FBF7BBFA2046FBF7C0F9A0
:1052D0000A48FBF7B5FA6000FBF7BAF9084802B0D4
:1052E000BDE8F041FBF78CBA58150020B01700203C
:1052F000313F0008441E002000760008F0760008C8
:1053000030770008D17200080000000000000000A3
:1053100010B50024124A82B092694FF4A4719268C9
:10532000104B013200941048FDF7EAFC0F4B186057
:10533000FEF77EFE0446FFF703FE0D48FBF780FAFA
:105340002046FBF785F90B48FBF77AFA6000FBF77C
:105350007FF9094802B0BDE81040FBF751BA00BF21
:1053600058150020313F0008B0170020441E0020CF
:1053700000760008F0760008307700080000000092
:1053800010B50024124A82B092694FF4A471926859
:10539000104B013A00941048FDF7B2FC0F4B186017
:1053A000FEF746FE0446FFF7CBFD0D48FBF748FA33
:1053B0002046FBF74DF90B48FBF742FA6000FBF77C
:1053C00047F9094802B0BDE81040FBF719BA00BF21
:1053D00058150020313F0008B0170020441E00205F
:1053E00000760008F0760008307700080000000022
:1053F0002DE9F041202382B083F31188824DD5E955
:1054000005329A423ED000210120FBF7A9F998BB52
:1054100080F3118841247C4E214601344FF6FF72FF
:105420003046E4B2FEF764FA452CF5D1202686F327
:105430001188A9680220B1FA81F14909FBF790F9B6
:105440000746C8B980F311880424804686F3118882
:10545000FBF7DEFD88F31188C0B2FBF799F9013C38
:10546000F4D186F31188D5E905239A4228D039462C
:105470000320FBF775F950B1002383F3118802B0C4
:10548000BDE8F081A968003118BF0121BCE780F3B5
:1054900011885E490420FBF73BF904460028EED151
:1054A000202686F31188FBF7B3FD033014BF0021DB
:1054B00001210520FBF754F938B184F31188DEE7A8
:1054C000AF68003718BF0127D1E780F311880822A1
:1054D00003464F494C48FEF7B3F9A0F10401B1FA75
:1054E00081F106204909FBF73BF904460028C6D1A3
:1054F00086F31188A9680720B1FA81F14909FBF701
:105500002FF907460028D8D180F31188414A424B31
:1055100092694FF4A4719268404801320097FDF7F8
:10552000EFFB3F4B186086F31188A968D5E9032388
:105530009B1A591AA1F10401B1FA81F10820490915
:10554000FBF70EF9044610B187F3118897E780F353
:105550001188FFF7F5FC86F31188D5E903236FF076
:1055600001019B1A2848C5E90522AB60FBF7A0FEA4
:1055700084F3118886F31188D5E90323A9689B1A5F
:105580005F1A794279410920FBF7EAF803460028BF
:1055900093D180F3118802221D491B48FEF750F970
:1055A0000238414241410A20FBF7DAF8034600285D
:1055B0007FF465AF022216491348FEF741F9821EB7
:1055C000514251410B20FBF7CBF800287FF457AF35
:1055D00086F31188A9680C20B1FA81F14909FBF71B
:1055E000BFF800287FF448AF002181F311880A2218
:1055F0000548FEF77DF9431C0D205942594102B080
:10560000BDE8F041FBF7ACB8AC0C0020F07C000822
:10561000F81800205815002041390008B017002064
:10562000441E0020000000000000000000000000F8
:1056300070B5202682B086F31188994C0120A168AC
:10564000B1FA81F14909FBF78BF810BB054680F3ED
:10565000118886F3118841212046FBF7A9FC2046DA
:105660004221FBF7A5FC20464321FBF7A1FC204685
:105670004421FBF79DFC85F3118886F31188D4E95A
:1056800005329A4238D029460220FBF769F80546D0
:1056900020B1002383F3118802B070BD80F311881C
:1056A000202383F311887E482946FBF781FC0430D0
:1056B00014BF002101210320FBF752F8C0B980F389
:1056C00011880425764E4FF6FF713046FEF7A0F99B
:1056D000C0B2FBF75DF8013DF5D1202686F31188B5
:1056E000A1680420B1FA81F14909FBF739F878B1D2
:1056F00085F3118802B070BDA5680220003518BF7F
:1057000001252946FBF72CF805460028C1D1C5E73D
:1057100085F3118863490520FAF7FAFF0028BBD109
:1057200086F3118841215E48FBF742FC42215C4828
:10573000FBF73EFC43215A48FBF73AFC442158480A
:10574000FBF736FC85F31188574908222B4654484D
:10575000FEF70EF9A0F10401B1FA81F10620490922
:10576000FAF7FEFF002897D186F31188A168072079
:10577000B1FA81F14909FAF7F3FF0028B8D185F3AE
:10578000118886F3118841214548FBF711FC42211D
:105790004348FBF70DFC43214148FBF709FC44213A
:1057A0003F48FBF705FC85F311883F4902222B4651
:1057B0003B48FEF7DDF8A0F10201B1FA81F10820C3
:1057C0004909FAF7CDFF00287FF466AF36492B462A
:1057D00002223348FEF7CCF8A0F10201B1FA81F1C0
:1057E00009204909FAF7BCFF00287FF455AF86F37A
:1057F0001188A1680A20B1FA81F14909FAF7B0FFCE
:1058000000287FF475AF85F3118886F3118824484A
:105810002946FBF7CDFBE3686FF001012048A56046
:10582000C4E90533FBF744FD85F3118886F311883D
:10583000A1680B20B1FA81F14909FAF791FF00281C
:105840007FF456AF85F31188184A194B92694FF4CB
:10585000A4719268174800950132FDF751FA164B72
:10586000186086F31188A1680C20B1FA81F149090A
:10587000FAF776FF002310B183F311880CE783F366
:105880001188FFF75DFB0A210548FEF7C1F8431CAC
:105890000D205942594102B0BDE87040FAF760BF8F
:1058A000140C0020F07C0008F81800205815002087
:1058B000613A0008B0170020441E002000000000DC
:1058C000F8B520270026304A304B9169304A8D6860
:1058D000304903F10C0487F31188086810600A60EE
:1058E00086F311889C4202D053F8042BF3E72A492F
:1058F000681EFDF755F9294C29492060A81EFDF7BF
:105900004FF928496060E81EFDF74AF92649A06072
:10591000281FFDF745F92549E060681FFDF740F9AC
:105920002168206141B1616831B1A16821B1E168AC
:1059300011B1B0FA80F149090120FAF711FF00B165
:10594000F8BDFFF7FDFA1A490220FAF7E1FE002838
:10595000F6D104240F4D2846FBF782F9011C18BF2D
:1059600001210320FAF7FCFE0028E9D1013CF2D125
:105970000848FBF775F9BDE8F840B0FA80F104205B
:105980004909FAF7EDBE00BF5815002074870008DA
:10599000B017002080170020A07A0008441E0020C5
:1059A000907A0008947A0008F0820008847B00084E
:1059B000F07C000800000000000000000000000073
:1059C00070B5344B84B09B6902A933489D68FEF7DB
:1059D0004FFD324B6A1E00934FF4A471304B2E489A
:1059E000FEF7FEFF2F4C304BAA1E206000934FF4B1
:1059F000A4712B4B2848FEF7F3FF03A960602648EB
:105A0000FEF736FD03992448FEF77AFE274B4FF444
:105A1000A4710646EA1E00931F48214BFEF7E0FFE3
:105A2000A0603046FEF77CFD216821B1616811B1AC
:105A3000A16831B300210120FAF792FE08B104B049
:105A400070BDFFF77DFA1A490220FAF761FE0028BF
:105A5000F5D103A91048FEF70BFDA0F10101B1FA41
:105A600081F103204909FAF77BFE0028E7D1DDE93F
:105A70000231C91AB1FA81F104204909FAF770FE1E
:105A8000DDE7E368002BD6D12169B1FA81F149093C
:105A9000D1E700BF5815002028170020A07A000881
:105AA000F1070008441E0020907A0008947A00084C
:105AB000807A0008000000000000000000000000E4
:105AC0002DE9F04F20268FB086F31188AD4C0021D0
:105AD000A269536B43F00703536381F31188FDF709
