:020000040800F2
:1000000000040020A1010008610C0008610C000838
:10001000610C0008610C0008610C0008610C00080C
:10002000610C0008610C0008610C0008C1040008A4
:10003000610C0008610C0008610C0008610C0008EC
:10004000610C0008610C0008610C0008610C0008DC
:10005000610C0008610C0008610C0008610C0008CC
:10006000610C0008610C0008610C0008910900088F
:100070005109000811090008D1080008910800087A
:100080005108000811080008610C0008610C000804
:10009000610C0008610C0008610C0008610C00088C
:1000A000610C0008610C0008610C0008610C00087C
:1000B000610B0008610C0008610C0008610C00086D
:1000C000610C0008610C0008610C0008610C00085C
:1000D000610C0008610C0008610C0008610C00084C
:1000E000610C0008610C0008610C0008610C00083C
:1000F000610C0008610C0008610C0008610C00082C
:10010000610C0008610C0008610C0008610C00081B
:10011000610C0008610C0008610C0008610C00080B
:10012000D1070008910700085107000811070008CF
:10013000D1060008610C0008610C0008610C000881
:10014000610C0008610C0008610C0008610C0008DB
:10015000610C0008610C0008610C0008610C0008CB
:10016000610C0008610C0008610C0008610C0008BB
:10017000610C0008610C0008610C0008610C0008AB
:10018000610C0008610C0008610C0008610C00089B
:10019000610C0008610C0008610C0008610C00088B
:1001A00072B6214880F30988022080F31488BFF3D7
:1001B0006F8F00F0B5FE4FF055301C491C4A91423C
:1001C0003CBF41F8040BFAE71A49174A91423CBF79
:1001D00041F8040BFAE71849184A194B9A423EBFF6
:1001E00051F8040B42F8040BF8E700201549164AB1
:1001F00091423CBF41F8040BFAE701F0C9FD134CF2
:10020000134DAC4203DA54F8041B8847F9E701F0B8
:100210005FF8104C104DAC4203DA54F8041B8847C9
:10022000F9E701F0ADBD000000080020000000204B
:100230000004002000040020B02000080008002076
:10024000000800200008002030180020A00100084D
:10025000A0010008A0010008A001000800000000A3
:100260002DE9F04FC1F80CD0D0F80CD0BDE8F08FDC
:1002700000F0F6FE00F0A4FE002383F31188284668
:10028000A047002001F04CFD00F0A2FE00F0F8FEB7
:1002900000F0A6FE00F0E4FE00F092FE00DFFEE7B4
:1002A00000284BD0F0B4284F457AD7F800C001237E
:1002B00003FA05F414EA0C0F3DD1244E44EA0C0372
:1002C00006EBC5043B6062605A0646F8351004D060
:1002D0001F494A6942F001024A6113F4786F24D140
:1002E000D0E90024136823F00F031360037A0F2171
:1002F0009940002321601360817A4A0901F160442A
:10030000920004F5614402F1604202F5614201206D
:10031000A02501F01F0100FA01F184F800531846EE
:10032000C2F880111160F0BC7047094A536943F06C
:1003300002035361D4E71846F0BC704772B6054B10
:10034000054ADA62FEE700BF50100020F00F0020DF
:1003500000100240F8090020C01E00080000000044
:100360002DE9F043274A01F00306C1F3C10500243B
:10037000C9090F274FF0010E4FF0030C29E0D2F806
:10038000209003EA090343EA0803136253680EFA54
:1003900004F823EA080353606300D2F808800CFADB
:1003A00003F3DB4308EA030848EA0508C2F80880BB
:1003B000D2F80C8003EA0808C2F80C80D2F800805A
:1003C00003EA080333431360400819D0AD00B600B8
:1003D000013404F007084FEA880807FA08F310F020
:1003E000010F01FA08F86FEA0303EDD0072CC6D914
:1003F000D2F8249003EA090343EA08035362C5E7ED
:10040000BDE8F08300040048000000000000000088
:10041000FEE700BF00000000000000000000000038
:100420000B0700D4704772B6014B024ADA62FEE74E
:10043000F8090020802000080000000000000000F3
:100440004FF08043DA68920701D55863704772B65F
:10045000014B024ADA62FEE7F8090020701E00082C
:10046000202383F31188114B5B6813F4006302D1DE
:1004700083F31188704780B400AFEFF309834FF026
:10048000807243F8042CA3F1200282F30988084A01
:10049000116892698968926891428CBF054A064A40
:1004A00043F8082CBD4680BC704700BF00ED00E05B
:1004B000F8090020890200089C02000800000000E2
:1004C00080B400AFEFF30983203383F3098800235E
:1004D00083F31188BD4680BC704700BF0000000058
:1004E000034AD2F8A8340133C2F8A834704700BFD9
:1004F000F8090020000000000000000000000000DB
:100500000E4B42685B68F0B48B60D0E90261D0E9C1
:1005100004459B1BE61845F1000701319342C0E9F1
:100520000231C0E9046705D80268934238BF03600E
:10053000F0BC70474360F0BC704700BF001000E0A3
:100540000F4B104A5B68C168F0B48468D2F8A064AD
:1005500042681B1BD0E904459B1BE61845F10007C8
:1005600001319342C0E90231C0E9046705D802684D
:10057000934238BF0360F0BC70474360F0BC7047E3
:10058000001000E0F809002000000000000000005A
:10059000014B5B6883607047001000E000000000C2
:1005A0000B4A30B4D36B446A91694FF080456D6A51
:1005B0001D60C3E9011490F820101973103302F57F
:1005C00088618B4228BF02F14003D36330BC70477F
:1005D000F8090020000000000000000000000000FA
:1005E000054B1A6B1AB95A6B002A00DD704772B6B8
:1005F000024ADA62FEE700BFF80900201020000876
:10060000054B1A6B002A03DB5A6B002A00DD70478A
:1006100072B6024ADA62FEE7F809002000200008FC
:1006200008B5FFF7EDFFD0B190F8203001468BB14F
:100630000F2B0FD000220C4B806881F820201B6804
:100640009A688242FBD25A680846C1E900321160BA
:10065000596008BD72B6044B044ADA62FEE772B60E
:10066000014B024ADA62FEE7F8090020F01D00089B
:10067000202383F31188074B1A6B002A01DD596B85
:1006800019B172B6044ADA62FEE7013A1A6381F3DD
:1006900011887047F8090020F01E000800000000D3
:1006A000202383F31188074B1A6B002A01DB596B57
:1006B00019B172B6044ADA62FEE701321A6381F3B5
:1006C00011887047F8090020E01E000800000000B3
:1006D00010B5FFF705FFFFF7E3FF084B084819685F
:1006E000826DC1F303410C045C600AB1C06D904798
:1006F000FFF7BEFFBDE81040FFF7B2BE00040240A6
:10070000F00F0020000000000000000000000000CA
:1007100010B5FFF7E5FEFFF7C3FF084B084819685F
:10072000026DC1F303310C035C600AB1406D904768
:10073000FFF79EFFBDE81040FFF792BE00040240A5
:10074000F00F00200000000000000000000000008A
:1007500010B5FFF7C5FEFFF7A3FF084B084819685F
:10076000826CC1F303210C025C600AB1C06C90473B
:10077000FFF77EFFBDE81040FFF772BE00040240A5
:10078000F00F00200000000000000000000000004A
:1007900010B5FFF7A5FEFFF783FF084B084819685F
:1007A000026CC1F303110C015C600AB1406C90470C
:1007B000FFF75EFFBDE81040FFF752BE00040240A5
:1007C000F00F00200000000000000000000000000A
:1007D00008B5FFF785FEFFF763FF084B0848196867
:1007E000826B01F00F0159600AB1C06B9047FFF7AF
:1007F0003FFFBDE80840FFF733BE00BF00040240E2
:10080000F00F0020000000000000000000000000C9
:1008100010B5FFF765FEFFF743FF084B084819685E
:10082000026BC1F303610C065C600AB1406B904738
:10083000FFF71EFFBDE81040FFF712BE00000240A8
:10084000F00F002000000000000000000000000089
:1008500010B5FFF745FEFFF723FF084B084819685E
:10086000826AC1F303510C055C600AB1C06A90470B
:10087000FFF7FEFEBDE81040FFF7F2BD00000240AA
:10088000F00F002000000000000000000000000049
:1008900010B5FFF725FEFFF703FF084B084819685E
:1008A000026AC1F303410C045C600AB1406A9047DC
:1008B000FFF7DEFEBDE81040FFF7D2BD00000240AA
:1008C000F00F002000000000000000000000000009
:1008D00010B5FFF705FEFFF7E3FE084B084819685F
:1008E0008269C1F303310C035C600AB1C0699047AF
:1008F000FFF7BEFEBDE81040FFF7B2BD00000240AA
:10090000F00F0020000000000000000000000000C8
:1009100010B5FFF7E5FDFFF7C3FE084B084819685F
:100920000269C1F303210C025C600AB1406990477F
:10093000FFF79EFEBDE81040FFF792BD00000240A9
:10094000F00F002000000000000000000000000088
:1009500010B5FFF7C5FDFFF7A3FE084B084819685F
:100960008268C1F303110C015C600AB1C068904752
:10097000FFF77EFEBDE81040FFF772BD00000240A9
:10098000F00F002000000000000000000000000048
:1009900008B5FFF7A5FDFFF783FE084B084A196865
:1009A00001F00F01596013680BB150689847FFF7C9
:1009B0005FFEBDE80840FFF753BD00BF00000240E6
:1009C000F00F002000000000000000000000000008
:1009D000064B1A6B002A05DD5A6B002A02DD002245
:1009E0005A63704772B6024ADA62FEE7F8090020DD
:1009F000301F0008000000000000000000000000A0
:100A0000064B1A6B002A01DD5A6B1AB172B6044A02
:100A1000DA62FEE701225A63704700BFF80900203E
:100A2000101F00080000000000000000000000008F
:100A300008B50146202383F311881948FFF7A8FD64
:100A4000FFF7DEFF91F82030072B10D8DFE803F026
:100A5000150F0F1E0A040F0A486AFFF7D1FD8368BD
:100A600001338360D1E900231A600A6853604FF0B4
:100A7000FF334B620846FFF7D3FDFFF7A9FF084895
:100A8000FFF75EFD002383F3118808BD4B6A002247
:100A90001A604FF0FF334B620846FFF7C1FDECE7E9
:100AA000C00E002000000000000000000000000058
:100AB0000B0742D4D0E9082370B5D3E90056296862
:100AC00021F00F012960197A15680F2303FA01F14B
:100AD00031602968466821F00F012960157A516854
:100AE0003268AB4004460B6022B304230370904786
:100AF0002378042B1ED0202383F31188134901F59A
:100B00009960FFF745FDFFF77BFFA3684BB193F8B2
:100B10002020032A16D10022A26018465A62FFF74D
:100B20007FFDFFF755FF0A48FFF70AFD002383F317
:100B3000118870BD02232370DDE772B6034B054AAE
:100B4000DA62FEE772B6044BCB62FEE7F8090020DA
:100B5000C00E002080200008401E00080000000099
:100B60002DE9F0474FF08046FFF7BAFCFFF798FDFC
:100B700033699B0705D4FFF77BFDBDE8F047FFF71E
:100B80006FBC00273761202383F311882F4C04F5B5
:100B90009960FFF7FDFCFFF733FFFFF731FDFFF72B
:100BA0002FFDE569736AA16AAA68581A904204F198
:100BB0001C0925D309F2AC482B68D5F80CA01144C8
:100BC0004B45A162C3F80490E361EF6008BFF76092
:100BD000FFF7FEFE4046FFF7B3FC87F31188286954
:100BE000D047202383F311884046FFF7D1FCFFF75D
:100BF00007FFE569736AA16AAA68581A8242DBD9BD
:100C00004D4514D01144C91A02292CBF5918991CFA
:100C10000846FFF715FC4FF08043A06A5A6A0B1A8A
:100C2000121A9A4203D972B6094BE362FEE7FFF744
:100C3000CFFE0848FFF784FC002383F31188FFF7F9
:100C400017FDBDE8F047FFF70BBC00BFF809002017
:100C5000E01D0008C00E00200000000000000000A1
:100C600072B6024B024ADA62FEE700BFF8090020C2
:100C7000D01F00080000000000000000000000007D
:100C800070B5194D0446FFF7ABFCA869A2688368EC
:100C900000219A4261621ED9FFF7C2FC012384F849
:100CA00020300646AC61FFF77BFCD5F8AC34483009
:100CB000013304F14801C5F8AC34FFF721FCEFF330
:100CC0000983F269243B9A420AD831462046BDE89E
:100CD0007040FFF7C5BA2046BDE87040FFF7A0BCE2
:100CE00072B6024BEB62FEE7F809002020200008F4
:100CF00038B5164CFFF774FCA569236885F8200009
:100D00001A68226001215460284683F82010A361EC
:100D1000FFF746FCD4F8AC34A169013305F1480073
:100D20004831C4F8AC34FFF7EBFBEFF30983EA6911
:100D3000243B9A4205D82946A069BDE83840FFF710
:100D40008FBA72B6024BE362FEE700BFF8090020DB
:100D5000202000080000000000000000000000004B
:100D6000F8B5394D394EFFF73BFC6869B469002886
:100D700036D0A26883689A4211D990F820308260F8
:100D8000062B48D0072B32D04BB9D0E900230121E4
:100D900080F820101A6002685360FFF741FC2C4F66
:100DA0003B4603E09968A268914202D31B68BB42AC
:100DB000F8D15A680620C4E9003214605C606762AA
:100DC000FFF796FF6B699C4203D072B6214BF3622A
:100DD000FEE7E36BBB4209D072B61E4BF362FEE73F
:100DE000E26B6C6105F10C03AA61E363F8BDD0E925
:100DF000001319600768416A7B600B4602E09F6838
:100E0000974202D31B689942F9D15A68C0E900326F
:100E100010605860C3E7D0E9001319600768416AA1
:100E20007B600B4602E09F68974202D31B689942A1
:100E3000F9D15A68C0E90032106058608868A26829
:100E400083689A4299D8AAE730080020F809002060
:100E50003C080020001E0008000000000000000008
:100E600038B5264C2378012B23D06068A16A83898A
:100E7000E26A03F4706521F4706122F47062B5F5E2
:100E8000E06F84BF41F4A06142F4A062C4E90A1299
:100E90004189E26943F4805343F0070341F441710F
:100EA0000020106011605360136843F0400313602A
:100EB00038BD22461249206AFFF7F2F998B9224656
:100EC0001049606AFFF7ECF990B9D4E908500E496F
:100ED000E369CA692D6800680C3342F48042CA6134
:100EE000AB608360C1E772B6084B094ADA62FEE77D
:100EF00072B6064B064ADA62FEE700BF30080020F1
:100F0000B10A00082104000800100240F80900207E
:100F1000901E00080000000000000000000000001B
:100F2000234B1A6842F001021A601A689207FCD536
:100F300059681F4A21F00301596059685960536884
:100F400013F00C03FBD11068194900F0F900106090
:100F50005360136843F4A02313600B689803FCD517
:100F60004B6A134A43F001034B62536A9907FCD55D
:100F7000104B53604FF404513023D1621363136854
:100F80000B4943F0807313600B689B01FCD50A4B3F
:100F9000074A122018604B6843F002034B60536805
:100FA00003F00C03082BFAD1136B1363704700BFD7
:100FB0000010024000241D0000200240000000003C
:100FC0000148FFF7BDBA00BFA80E002000000000D6
:100FD0000148FFF7DDBA00BFA80E002000000000A6
:100FE00070B51B4C2268A5691368AE6823600120A8
:100FF00000215C6082F82000A26185F8201000E0EA
:101000001B689A689642FBD35A682846C5E90032A5
:1010100015605D60FFF7C4FAD4F8AC34A169013300
:10102000483105F14800C4F8AC34FFF769FAEFF332
:101030000983EA69243B9A4205D82946A069BDE89C
:101040007040FFF70DB972B6024BE362FEE700BFD6
:10105000F809002020200008000000000000000027
:10106000054B1A6B22B9596B002901DD5A63704791
:1010700072B6024ADA62FEE7F8090020201F000873
:10108000054B1A6B0AB95A6B1AB172B6034ADA6287
:10109000FEE701225A637047F8090020001F00088C
:1010A0002DE9F843054600F16006044617469846C8
:1010B000FF2004F8010BA642FBD16A18944205D226
:1010C0002046552300F8013B8242FBD1202383F3C5
:1010D0001188FFF77DFFFFF7D3FFFFF791FA24395F
:1010E00068180023234E244AE86045F801804360D5
:1010F00002622E617169AB6102220120C5E90E33E3
:101100006961AF602A8485F8220005F128022F6406
:101110004FF0FF300D614FF0000805F12C014FF04A
:101120000009C5E913336B65AA62C5E90B11A86410
:10113000EC6105F14800C5E916897561FFF728FAE9
:101140002846FFF79DFDFFF78BFFFFF739FF336858
:10115000B34204D0B2699B6892689A4205D30023D7
:1011600083F311882846BDE8F88372B6034BF36217
:10117000FEE700BFF809002071020008A01D00086A
:10118000F0B5202387B083F311884C4C2546FFF738
:101190001FFFFFF775FFFFF723FAFFF731FAA26988
:1011A00055F81C3F05924FF0804245490491AB42EF
:1011B000506A5ED000F59C50A16A9A680830411AC6
:1011C00091426DD3914204D91B68891A9A688A4268
:1011D000FAD35A68029201AE019316605E600391E1
:1011E0009A68521A4FF0FF319A6061620820FFF747
:1011F0007FFDFFF705FA049B8BB1FFF701FAE36966
:10120000019AB3421CD002990A60019B0022AB42B2
:101210005960049203D09A6803990A449A60FFF7D0
:101220001FFFFFF7CDFE2368A34204D0A2699B688D
:1012300092689A4230D3002383F3118807B0F0BD3F
:101240000023AA42E2615560049332D09368039868
:10125000A16A03444FF080409360406A421A93426F
:10126000DDD99B1A022B2CBFC0180230FFF7E8F81B
:10127000D5E741F288370397D168A06201AE11F03B
:101280000201CDE90133C4E907660ED138440223D7
:1012900050631161D360A9E772B60A4BE362FEE7BF
:1012A000FFF7CEF8E3699A688CE772B6064BE36203
:1012B000FEE74FF08042D360B1E700BFF80900209D
:1012C000310A0008A01D0008501E000800000000A0
:1012D0001B4B1C489A6A4FF0FF3100222DE98048D1
:1012E00099629A621C6919611A61DC68D960DA60D6
:1012F000D96941F08051D961016841F48071016080
:10130000196A01F44071B1F5007F87B003D04FF442
:10131000803119621A620A4B1A6A120407D41A6AD7
:1013200042F400721A621A6A42F400421A62064CCF
:101330000649074A0748002323601C460EE000BF09
:10134000001002400070004050100020401F0008B4
:1013500008000240F00F002051F80C2F146040F8F4
:10136000334001330C2BF7D1D44FD54BDFF8A49386
:10137000D44ADFF8A4A3DFF8A4B3D34DDFF8A0E389
:10138000D248DFF8A0C3D2494FF0FF367E605E60DE
:10139000D9F81830CF4F43F00103C9F8183013685B
:1013A00043F020031360D9F81430CB4A4FF0904833
:1013B00043F4FC03C9F81430C8F80440C8F808A086
:1013C000C8F80CB04FF6FF7ADFF85CB3C8F814A089
:1013D000C8F820B04FF46E2BC8F824B0DFF84CB337
:1013E000C8F800B04FF0C008C5F804804FF2C0083C
:1013F000C5F80880DFF83883C5F80C804FF08848BE
:10140000C5F814A0C5F820804AF280086C62C5F8BF
:1014100000804FF07048CEF80440CEF80880DFF826
:101420001483CEF80C80CEF814A0CEF82040CEF86D
:101430002440CEF800404FF0553ECCF80440CCF8A4
:101440000840CCF80CE0CCF814A0CCF82040446064
:10145000CCF824408460CCF80040DFF8DCC2546053
:101460004461C2F808C0DFF8D4C2C2F80CC04FF023
:10147000FF0CC2F814C01462DFF8C4C20762974FB1
:1014800054624C60C2F800C04FF00F0C944A7C606C
:101490008C60C7F808C0FA608E4F924BDFF8A4C288
:1014A00007F10C0E8D4F00F10C02C7F814A04FF09D
:1014B00001083C62C0F81CC07C6201F10C0CC0F851
:1014C00024E03C6041F20A07C0E9032241F218021D
:1014D000C0E90A72C1F80CC080F8008081F8008071
:1014E000C1F810C083F80080D9F81C00DFF858E27A
:1014F0004C6140EA0800C9F81C00DEF808908F62D1
:10150000C3E90A72734FCA62774ACA6107F11802C7
:101510000A6207F124024A627449D96139464FF0E0
:101520008042DFF828C272485C61483754311F623C
:10153000596203F10C074FF0805141F61F4A4FF0FA
:10154000800B49EA0809C3E90144CEF80890C2F8C3
:1015500028A0DF60D6621F6194615463D460546038
:10156000C2F81480C2F8008080F81CB3C0F8801163
:101570000160CCF80840DCF80C205E4B5E4F5F4900
:101580004FF6FF0E02EA0E021343CCF80C30D0F8EF
:10159000FC3C7F6043F08073C0F8FC3C0B68BC608F
:1015A000202243EA080310200B604FF0000A8CF859
:1015B0001F0007F11C038CF822204FF0000B684637
:1015C0003F60C7E90733CDE90064CDE90244C7E9CC
:1015D0000477C7E90964C7F8A044CDE904ABFEF776
:1015E000D7FF6846FEF7ACFF029BC7F8A03407F5AB
:1015F0009863C3E900AB07F59B63C3E900AB07F150
:101600004003FB633E483F493F4ADFF844C19461D1
:101610000223A7F860343D4BC7F8A84420F0070028
:1016200021F00701CCF80000196039481060402310
:1016300002F11001C2E90411C2E90244C7F8AC4446
:10164000C7F8B064C7F8B444C7F8B844C7F8BC4496
:10165000C7F8C864C7F8CC44C7F8D044C7F8D44426
:10166000C7F87C44C7F8784487F86284C7F85844C0
:10167000C7F85074BB63C7F84834C7F880347B6937
:10168000C7F8543407F588621A6107F5936107F2C9
:101690006C4307F58D6E07F5946CC1E900ABC7F894
:1016A0006C34C7F8703407F59160C7F88864C7F8E0
:1016B0008C44C7F89044C7F894444BE000000240C3
:1016C000000402400000014000040048000800201F
:1016D000300800204C1F000800100048001400488B
:1016E000505555556008002000380040003C00402F
:1016F00000E100E00003FA05F8090020001000E016
:101700003718002000A00020D00F00205410002027
:10171000F11A00080010024000FCC03C541115648E
:1017200000080048000C00480000505500A8802A1E
:101730001505555555555505C000FFFF15551501A3
:101740004000555500300140002004E000ED00E06D
:1017500058100020C7F868E4C7F85CC47A61FEF747
:1017600017FF3B6B2A49BA6187F86084C7F85C149D
:101770000BB97C6B1CB172B6264BFB62FEE784F39F
:10178000118862B6BB69244A9A61F8214246234B0C
:1017900007F59C60FFF784FC214B836140F29A219E
:1017A0004FF40050FEF7DCFD40F29A214FF48040E8
:1017B000FEF7D6FD40F29A214FF40040FEF7D0FD2F
:1017C00019214FF48050FEF7CBFD4FF48053154A9A
:1017D0002B83234602F8013F0133B3F5007FF9D193
:1017E000114B124841224FF4F471FFF759FC104B92
:1017F000104841224FF4F471FFF752FC0E4B0F4892
:101800003F224FF4B471FFF74BFCFFF7B9FCFCE744
:101810000004002070200008302000081104000897
:10182000782000082F160020411C000860120020BC
:10183000611B00084814002041180008900800208F
:1018400008B5074B074A9B69074C9A614FF400752E
:101850002E462683FFF794FC6583FFF791FCF8E79B
:10186000F8090020F01F00080010004800000000E8
:101870002DE9F0412C4C2023A66983F31188FFF752
:10188000A7FBFFF7FDFBF36B7BB19A68964203D091
:1018900072B6264BE362FEE7254901F10C07BB4215
:1018A00007D072B6214BE362FEE772B61F4BE362CC
:1018B000FEE78869F063FEF793FECD68BD422BD04A
:1018C000D6F8408058B1FEF78BFE0368984203D0EB
:1018D0009B68984538BF9846C0680028F3D12B68AC
:1018E000EA6BC6F808802846CB605F60EF63C1E909
:1018F0000552FFF7C5F9FFF7B3FBFFF761FB23685C
:10190000A34204D0A2699B6892689A4207D300233D
:1019100083F31188BDE8F08100234B61EBE772B6D9
:10192000044BE362FEE700BFF8090020101E000828
:1019300030080020B01D000800000000000000007A
:1019400008B5202383F31188FFF742FBFFF798FBCC
:10195000124B1A78022A04D072B6114B114ADA627D
:10196000FEE75B6819895A6801238B409BB2538359
:10197000FFF776FBFFF724FB094B1A689A4204D065
:10198000996992688968914203D3002383F311888F
:1019900008BD72B6044ADA62FEE700BF30080020D4
:1019A000F8090020801E0008D01D0008000000007B
:1019B00008B5202383F31188FFF70AFBFFF760FBCC
:1019C000124B1A78022A04D072B6114B114ADA620D
:1019D000FEE75B6819895A6801238B409BB2138329
:1019E000FFF73EFBFFF7ECFA094B1A689A4204D066
:1019F000996992688968914203D3002383F311881F
:101A000008BD72B6044ADA62FEE700BF3008002063
:101A1000F8090020A01E0008D01D000800000000EA
:101A200070B5202383F31188FFF7D2FAFFF728FB64
:101A3000274B1A78022A04D072B6264B264ADA625D
:101A4000FEE75A68126822B172B6224B224ADA6265
:101A5000FEE7D3E908120320D3E90A541870096895
:101A60001E4E1268CE6045F080054FF400764E6041
:101A700044F080040D601A4DD560566014600D6806
:101A80009E68144C45F001050D601168A56941F090
:101A9000010111601EB172B6124BE362FEE743F81A
:101AA000085F6B62FFF724F9FFF7DAFAFFF788FAAD
:101AB0002368A34204D0A2699B6892689A4203D328
:101AC000002383F3118870BD72B6074BE362FEE713
:101AD00030080020F8090020B01E00085C1000202B
:101AE00030160020301E0008D01D00080000000045
:101AF00010B50146202383F31188FFF769FAFFF739
:101B0000BFFAFEF77DFD1148114B04681A68CB1D22
:101B100023F00703121B93429ABF1B190360002492
:101B2000FFF79EFAFFF74CFA0A4B1A689A4204D064
:101B3000996992688968914204D3002383F31188DC
:101B4000204610BD72B6044ADA62FEE75810002043
:101B500054100020F8090020C01D000800000000FB
:101B60002C4C2D4AA3692D4DDFF8C090DFF8C080C2
:101B700080B500269A61202787F31188FFF728FA9D
:101B8000FFF77EFAFFF7ECF8FFF76AFAFFF718FAAB
:101B90002368A34204D0A2699B6892689A4230D31A
:101BA00086F311884FF40053A8F81A3087F3118890
:101BB000FFF70EFAFFF764FA2B78013B012B03D9EC
:101BC00072B6174BE362FEE7C5F80490FFF748F9D9
:101BD00002232B70FFF744FAFFF7F2F92368A342C0
:101BE00004D0A2699B6892689A420ED386F311884A
:101BF000FFF7A6FEFFF714FFFFF7DAFEFFF738FE48
:101C0000BAE772B6074BE362FEE772B6064BE362D1
:101C1000FEE700BFF8090020A020000830080020DF
:101C2000601E0008B01D0008D01D000860200008DC
:101C3000001000480000000000000000000000004C
:101C40002C4C2D4AA3692D4DDFF8C090DFF8C080E1
:101C500080B500269A61202787F31188FFF7B8F92D
:101C6000FFF70EFAFFF77CF8FFF7FAF9FFF7A8F98C
:101C70002368A34204D0A2699B6892689A4230D339
:101C800086F311884FF40053A8F8183087F31188B1
:101C9000FFF79EF9FFF7F4F92B78013B012B03D9ED
:101CA00072B6174BE362FEE7C5F80490FFF7D8F869
:101CB00002232B70FFF7D4F9FFF782F92368A342C0
:101CC00004D0A2699B6892689A420ED386F3118869
:101CD000FFF736FEFFF7A4FEFFF76AFEFFF7C8FD29
:101CE000BAE772B6074BE362FEE772B6064BE362F1
:101CF000FEE700BFF809002090200008300800200F
:101D0000601E0008B01D0008D01D0008502000080B
:101D1000001000480000000000000000000000006B
:101D200008B50146202383F31188114DFFF750F9C0
:101D3000FFF7A6F9AC69A06A616204F12806B04217
:101D400006D00268A262FEF76BFCA06AB042F8D12E
:101D500094F821309B0704D1D4E904231A61226945
:101D600053610F20FEF7C4FF72B6024BEB62FEE731
:101D7000F8090020201E00080000000000000000FC
:101D8000FEE700BF000000000000000000000000AF
:101D9000704700BF000000000000000000000000CD
:101DA0006368537973556E6C6F636B0000000000BD
:101DB0006368537973556E6C6F636B0000000000AD
:101DC0006368537973556E6C6F636B00000000009D
:101DD0006368537973556E6C6F636B00000000008D
:101DE00063685654446F5469636B490000000000F7
:101DF00063685363685265616479490000000000BC
:101E000063684D74784C6F636B53000000000000F2
:101E100063684D7478556E6C6F636B000000000052
:101E200063685468644578697453000000000000DA
:101E3000636854686453757370656E645300000082
:101E40006368546864526573756D654900000000ED
:101E500073745374617274416C61726D00000000A0
:101E60007370695374617274000000000000000018
:101E70007374536574416C61726D00000000000062
:101E800073706953656C65637400000000000000A6
:101E90007370695F6C6C645F7374617274000000CE
:101EA000737069556E73656C6563740000000000A3
:101EB00073706945786368616E67650000000000B3
:101EC000646D6153747265616D416C6C6F636174B4
:101ED000650000000000000000000000000000009D
:101EE00053562338000000000000000000000000EE
:101EF00053562339000000000000000000000000DD
:101F000053562334000000000000000000000000D1
:101F100053562336000000000000000000000000BF
:101F200053562335000000000000000000000000B0
:101F3000535623370000000000000000000000009E
:101F4000080002400400024000000B001C00024098
:101F50000400024004010C00300002400400024072
:101F600008020D0044000240040002400C030E0071
:101F7000580002400400024010040F006C000240B0
:101F800004000240140510008000024004000240DA
:101F9000180611000804024004040240000738003B
:101FA0001C040240040402400408390030040240CA
:101FB0000404024008093A004404024004040240B8
:101FC0000C0A3B005804024004040240100B3C0081
:101FD000756E68616E646C656420657863657074A5
:101FE000696F6E00000000000000000000000000AB
:101FF000626C696E6B6572000000000000000000FA
:1020000053562331300000000000000000000000A3
:102010005356233131000000000000000000000092
:10202000737461636B206F766572666C6F77000006
:102030006D61696E00160118040460080C10141814
:102040001C20212200000000000000000000000011
:1020500000000000000400480C0000000007000021
:1020600000000000000400480C00300000070000E1
:10207000535623330000000069646C6500000000C3
:10208000444D41206661696C757265000000000076
:10209000535049207468726561642031000000006B
:1020A000535049207468726561642032000000005A
:04000005080001A14D
:00000001FF
